:020000040000FA
:1050000000400020255400003D5400007162000063
:1050100041540000435400004554000000000000CB
:1050200000000000000000000000000047540000E5
:1050300049540000000000004B540000FD630000D4
:105040004F54000053540000575400005B540000BC
:1050500097540000975400009754000097540000A4
:105060009754000097540000975400009754000094
:105070009754000097540000975400009754000084
:105080005F540000975400009754000097540000AC
:105090009754000097540000975400009754000064
:1050A00063540000675400006B5400006F5400000C
:1050B00073540000775400007B5400007F540000BC
:1050C00083540000D96400008B5400008F5400000A
:1050D0009354000097540000975400009754000028
:1050E0009754000097540000975400009754000014
:1050F0009754000097540000975400009754000004
:1051000097540000975400009754000097540000F3
:1051100097540000975400009754000097540000E3
:1053F000975400009754000097540000FFFFFFFFF0
:10540000FFFFFFFFFFFFFFFFFFFFFFFFFEFFFFFFAD
:10541000DFF80CD000F0A2F8004800472583000018
:105420000040002072B61D481D4901600A6882F3E1
:1054300008881C48804762B61B480047FEE7FEE725
:10544000FEE7FEE7FEE7FEE7FEE7FEE7FEE71748BA
:1054500000471748004717480047174800471748B4
:1054600000471748004717480047174800471748A4
:105470000047174800471748004717480047174894
:105480000047174800471748004717480047174884
:1054900000471748004717480047000008ED00E0A4
:1054A00000500000256400001154000097540000D3
:1054B0009754000097540000975400009754000040
:1054C000AD620000C5620000CD630000E56300002E
:1054D0009754000097540000975400007D6400002A
:1054E00097540000C1640000975400009D650000BF
:1054F00097540000975400002DE9F05F0546002006
:1055000092469B4688460646814640241BE0284634
:1055100041464746224600F042F853465A46C01AD2
:10552000914110D311461846224600F029F82D1A51
:1055300067EB01084F4622460120002100F020F8C9
:1055400017EB00094E41201EA4F10104DFDC4846A0
:1055500031462A464346BDE8F09F0000064C074D01
:1055600006E0E06840F0010394E807009847103433
:10557000AC42F6D3FFF750FFF48D0000248E0000FC
:10558000202A04DB203A00FA02F100207047914003
:10559000C2F1200320FA03F3194390407047202AF8
:1055A00004DB203A21FA02F00021704721FA02F3CD
:1055B000D040C2F1200291400843194670470000D4
:1055C00038B500BF10481149486400BF104800F0CA
:1055D00049FB0F4908680F49086000BF0E480F4C8F
:1055E00000906379A2792179E07900F00FF90C48F5
:1055F00000F0ECFB0B480C4908600C494FF4E0202C
:1056000000F038F938BD00000000071100800440A8
:10561000588C000018E0FF1F33580000488C000031
:10562000508C0000008793030CE0FF1F006CDC022D
:105630007047000010B56E4800F004F96C48401C3B
:1056400000F000F96A48801C00F0FCF86848C01CB3
:1056500000F0F8F86648001D00F0F4F80722002179
:10566000644800F0ABFE01221146624800F0A6FE3D
:1056700060484068604908405E49486003220C2148
:105680005C4800F09BFE03220D215A4800F096FE74
:1056900000221221574800F091FE002213215548A4
:1056A00000F08CFE01220221524800F087FE514892
:1056B0008068514908404F498860072203214D48BE
:1056C00000F07CFE012204214A4800F077FE4948A0
:1056D00000694949084047490861012205214548B8
:1056E00000F06CFE4348406943490840801C414932
:1056F000486102220021414800F060FE022201219F
:105700003E4800F05BFE042210213C4800F056FEAB
:1057100001221221394800F051FE0122132137489D
:1057200000F04CFE01220221344800F047FE012225
:105730000321324800F042FE00221146304800F0BA
:105740003DFE002201212E4800F038FE01220A21F0
:105750002B4800F033FE01220221294800F02EFEE2
:1057600001220321264800F029FE012204212448B9
:1057700000F024FE01220821214800F01FFE012232
:1057800009211F4800F01AFE012200211D4800F0E7
:1057900015FE012211461B4800F010FE03220221D3
:1057A000184800F00BFE01220321164800F006FE07
:1057B00001220421134800F001FE072205211148AF
:1057C00000F0FCFD072206210E4800F0F7FD07223D
:1057D00011460C4800F0F2FD0B48C06820F0037041
:1057E0000949C8600846006920F03000086110BD12
:1057F0000900381000900440FDFFFFFE00A00440A7
:1058000000B0044000C00440008004402DE9F04195
:1058100007460C4615461E46DDF81880384600F04F
:105820005BFA434632462946204600F073FABDE84B
:10583000F08147F2305000E000BF011EA0F10100EE
:10584000FAD17047044A02EB10410A6801238340F1
:105850001A430A607047000000700440044A02EBDB
:1058600010410A68012383401A430A607047000010
:105870000070044070B5024601242748274D05EB0F
:1058800010431D6801268640B5431D6000BF32B934
:105890002348406820F48020214B586023E02148B1
:1058A000084490B1204B184458B1184428B118440A
:1058B00078B909201A4B98640DE00220184B9864BF
:1058C00009E00520164B986405E00020144B98640D
:1058D00001E0002400BF00BF1148406820F4E02030
:1058E00010430F4B58600C480C4D05EB10431D68DE
:1058F0000126864035431D6000BFB2F5E02F09D177
:1059000003200A4B18700A4890F8400140F08000CC
:105910001B1F1870204670BD120034100070044028
:1059200000800440009423FD00CA91FE44210740FA
:105930000020074000B510480068C0F3814020B146
:1059400002280DD0032811D10DE000F03DF9B0F58B
:10595000004F02D14FF4004000E00020014607E074
:105960000648016804E04FF47A7101E0002100BFAD
:1059700000BF084600BD0000007004401CE0FF1F8F
:1059800010B500F063F8044634B100F03BF9B4EB15
:10599000D00F01D8204610BD0020FCE72DE9F041D2
:1059A00000F0E2F8044614B92046BDE8F08116483C
:1059B0000078C0F3C205EC4013484078C0F30117EB
:1059C0001148007B00F0030607B10EB1022E19D179
:1059D000082D14D2DFE805F00405060708090B0FAF
:1059E00000BF00BF00BF00BF00BF640909E0142072
:1059F000B4FBF0F405E00C20B4FBF0F401E000246B
:105A000000BF00BF2046D0E70040064070B50D48FB
:105A1000407800F0020008B1002070BD00F016F8D8
:105A200004460CB92046F8E70648C078C0F3411593
:105A30000448C078C609044800EB850030F8160019
:105A40006043EAE700400640848C000010B505483A
:105A50008079C0F3001010B9FFF7A0FF10BD024815
:105A60000068FBE70040064010E0FF1F70B50546E8
:105A7000142D4BD2DFE805F00A0B154A1F4A292DD9
:105A8000464A423135394A4A4A4A3D3F00BF00F052
:105A9000B9F82149496C012202EB1171B0FBF1F414
:105AA00036E000F0AFF81C49496CC1F30361491CB2
:105AB000B0FBF1F42CE000F0A5F81749496CC1F3F4
:105AC0000341491CB0FBF1F422E000F0B5F80446B4
:105AD0001EE0FFF72FFF04461AE0FFF751FF0446D0
:105AE00016E000F01DF8044612E0FFF78FFF0446B1
:105AF0000EE00A4C0CE04FF47A7409E000F064F810
:105B0000044605E000F04EF8044601E0002400BF22
:105B100000BF204670BD000000800440006CDC0225
:105B200010B50548007800F0020008B9002010BD4B
:105B300000F004F8FBE700000040064007488079C9
:105B400000F0010010B90648006870470348007A69
:105B5000C0F3420103480068C840F6E70040064031
:105B600010E0FF1F14E0FF1F0A49097B01F0030149
:105B700021B1012905D0022908D105E006490868AC
:105B800006E00649086803E0054801E0002000BF80
:105B900000BF70470040064018E0FF1F1CE0FF1FD9
:105BA000006CDC020648007800F0800030B1044848
:105BB0008078810903480068C84070470020FCE7EE
:105BC0000050064018E0FF1F0448007800F08000F5
:105BD00010B10348006870470020FCE70050064001
:105BE00018E0FF1F014649F69702914201D80020B4
:105BF00005E0034A914201D8012000E002207047ED
:105C000000127A0010B50B498979C1F3810424B1DF
:105C1000012C05D0022C09D105E0FFF7F7FE07E0C3
:105C2000FFF78CFF04E0FFF79FFF01E0002000BFBB
:105C300000BF10BD0040064010B508494968C1F3D7
:105C4000014111B1032905D102E0FFF7DFFE03E0B6
:105C5000034801E0002000BF00BF10BD00800440E9
:105C6000006CDC0270B504462068FFF7BBFF0546F8
:105C700017482279017821F00F011143017000BF0C
:105C800000BF017821F0A001A27911430170E279EF
:105C9000C02303EA8212827000BF0E48407820F0D1
:105CA0003C00302101EA05110843617908430949A4
:105CB0004870607958B10648007800F0800030B133
:105CC00000BF0448807900F002000028F9D070BDC0
:105CD000005006400040064010B501460C48007BCD
:105CE00000F00300884201D0012200E000220848B1
:105CF000007B61F30100064C20733AB140F2DC53A3
:105D000000E000BF181EA3F10103FAD1002010BD6E
:105D1000004006402DE9F04706460F4690461D46D6
:105D20004FF000092848C4788079C0F3001038B1DA
:105D30004FF001092448C07880F020002249C87043
:105D40002148007820F0FC01382000EAC600014319
:105D50001D480170007B00F0030058B91A484078D4
:105D600000F0040030B100BF1748807900F0020055
:105D70000028F9D000BF14488079C0F30010002833
:105D8000F9D1B9F1000F01D00F48C470802000EAAA
:105D9000C710602101EA4811084324F0E00140EAFD
:105DA00001040948C47000BF0748C078A042FBD175
:105DB00000BF05488079C0F381000028F9D105B102
:105DC000A8470020BDE8F08700400640094A416826
:105DD00051640178526861F31142064B5A6000BF6A
:105DE0004178054A126861F39342034B1A6000BF81
:105DF00070470000008004400070044070B5044605
:105E00000D46204600F036F828B129462046094ABA
:105E10001268904704E029462046074A12689047D6
:105E200000BF00BF00BFBFF34F8F00BF00BF00BF68
:105E300070BD00003CE0FF1F40E0FF1F21B1026881
:105E400022F48042026003E0026842F48042026071
:105E5000704700000146002006E0054A52F8202065
:105E60008A4200D102E0401C0228F6D300BF7047EE
:105E7000448D000001460868C00F70472DE9F843C3
:105E800005460C4616462846FFF7E4FF3F4951F801
:105E900020804046FFF7E2FC01212846FFF7CEFFB5
:105EA000284600F0D3F90121284600F0B3F928680C
:105EB000374900EA0107A07F4FF0804101EA807076
:105EC000384394F820104FF0806202EA8161084361
:105ED000E17F921002EA0161084394F821104FF427
:105EE000407202EA012108432860627F217F284630
:105EF00000F095F9217833462846626800F04AF8A8
:105F000000B900BF217805F10C0050F8210020F005
:105F1000FE47207A401E4FF0F04101EAC06038434E
:105F2000217B4FF0806202EA81610843617B52105D
:105F300002EA41610843A17B521002EA0161084371
:105F4000227805F10C0141F82200206900902178A7
:105F500033460122284600F0E1F86069009021787C
:105F600033460222284600F0D9F8A0690090217833
:105F700033460322284600F0D1F80021284600F0DD
:105F80003DF9284600F05DF9BDE8F883508D00002A
:105F9000FFCCFFBA2DE9FF4F87B081468A464846BD
:105FA000FFF768FF18B900200BB0BDE8F08FDDF8EF
:105FB00024B04FF0FF35002005900490012003909D
:105FC00000200290002427E0002620E0012719E0AD
:105FD0001F4850F824101F4850F8260041430A98E3
:105FE0007843B0FBF1F8C3450BD3ABEB080001904D
:105FF0000198854205D9019D05940496CDF8088045
:1060000003977F1C032F01D2002DE1D1761C102EA7
:1060100001D2002DDAD1641C042C01D2002DD3D181
:1060200009F10C0050F82A000B490840069003982B
:10603000411E069840EAC171059841EA0040049962
:10604000084309F10C0141F82A000298ACE700006E
:10605000A48C0000B48C0000F0FFFC7F2DE9F0411F
:1060600004460D4616461F46DDF818802046FFF709
:1060700001FFB8B3B8F1010F06D0B8F1020F1AD082
:10608000B8F1030F45D12EE004F10C0050F82500C3
:1060900020F4400020F470404FF4400101EA8651A2
:1060A00008434FF4704101EA0731084304F10C0141
:1060B00041F825002EE004F10C0050F8250020F4F2
:1060C000401020F470604FF4401101EA065108437B
:1060D0004FF4706101EA0721084304F10C0141F813
:1060E000250017E017E004F10C0050F8250020F41B
:1060F000402020F0F0004FF4402101EA864108439F
:10610000F02101EA0711084304F10C0141F82500D0
:1061100000E000BF00BFBDE8F08100002DE9FF4FA7
:1061200085B091461D46DDF848A00598FFF7A2FE10
:1061300018B9002009B0BDE8F08F4FF0FF380320F8
:1061400004904FF00F0B2948B0FBF5F1284A049852
:1061500052F820004843274951F82B104843800843
:1061600003902548B0FBF5F04000019001985045A0
:1061700009D300231A46CDF80090DDE90501FFF7A9
:106180006DFF0198D6E7002421E0002619E01748AA
:10619000B0FBF5F0164951F824104843154951F861
:1061A00026104843870857450AD3A7EB0A000290F8
:1061B0000298804504D9DDF808800494B34603971B
:1061C000761C102E02D2B8F1000FE0D1641C042C12
:1061D00002D2B8F1000FD8D15B46CDF80090DDE9CE
:1061E00004200699FFF73AFF0398A3E700286BEE17
:1061F000F48C0000048D000000CA9A3B30B50446C0
:106200000B462046FFF726FE05460148435530BDA4
:1062100044E0FF1F026861F3DF720260704710B54F
:1062200013460268012B05D14FF47C1404EA0144A3
:10623000224304E04FF47C1404EA0144A2430260C8
:1062400010BD016821F0010101607047016841F053
:106250000101016070471AB901238B40836002E09D
:1062600001238B40436070478160704741607047F5
:1062700005A000F09FF900BFEFF30980044602F08B
:10628000E3F900BFFEE700000D0A20486172644692
:1062900061756C745F48616E646C657220696E74C0
:1062A000657272757074210D0A00000010B5034804
:1062B0000168034800F012F810BD000024E0FF1F41
:1062C0000060064010B503484168034800F006F836
:1062D00010BD000024E0FF1F0070064070B50446AA
:1062E0000D46E07800F0100018B9A07800F020000A
:1062F00028B129462046094A1268904704E02946F9
:106300002046074A1268904700BF00BF00BFBFF396
:106310004F8F00BF00BF00BF70BD00002CE0FF1F0B
:1063200030E0FF1F002020E00A2100EB40021F4B5D
:1063300003EB82021171C82100EB400203EB8202E1
:106340009171002100EB400203EB820251710521A3
:1063500000EB400203EB8202D171002100EB40020E
:1063600003EB82021172411CC8B20328DCDB01215D
:106370000E4A9172022151720321D17204220B49FB
:106380008A7505224A750622CA75072281F82220DD
:10639000082281F82120092281F823200449034A98
:1063A00011600449D16004499161704770E0FF1F9A
:1063B0003D8200004D8200005D82000050F82130D7
:1063C00062F30A2340F821307047000010B50348FB
:1063D00001680348FFF712FD10BD000034E0FF1F05
:1063E00000C0024010B5034841680348FFF706FDAE
:1063F00010BD000034E0FF1F00D0024000B500F0E7
:106400002BFB0648006840B104480068401E034961
:10641000086010B901200249087000BD04E0FF1FA8
:1064200008E0FF1F0848006840F470000649086053
:106430004CF220500549C8814DF62810C8814FF410
:10644000E97008807047000088ED00E000200540FA
:1064500010B5074801680748074A1268904700BF0F
:1064600000BF00BFBFF34F8F00BF00BF00BF10BD14
:10647000D8E2FF1F00A0064020E0FF1F10B5FFF785
:10648000E7FF00BF00BF00BFBFF34F8F00BF00BFDB
:1064900000BF10BD10B5074841680748074A126899
:1064A000904700BF00BF00BFBFF34F8F00BF00BFCA
:1064B00000BF10BDD8E2FF1F00B0064020E0FF1F64
:1064C00010B5FFF7E7FF00BF00BF00BFBFF34F8F5E
:1064D00000BF00BF00BF10BDF8B522480479C078E6
:1064E00000F0200008B924F020041E48C07800F015
:1064F000800008B924F0800404F0800070B11A48CC
:1065000000F09FFB1749C871174800F06BFB28B9D2
:106510001448C07820F080001249C87004F02000B0
:10652000F0B104F0040010B904F0020018B10D48F5
:10653000C079009014E00B48C6790C4800F03CFB91
:106540000546132D04D93146084800F096FB06E0B5
:10655000064800F076FB3146044800F08EFB00BF91
:10656000F8BD000000B00640B8E0FF1FC8E1FF1F03
:1065700010B5074881680748074A1268904700BF6E
:1065800000BF00BFBFF34F8F00BF00BF00BF10BDF3
:10659000D8E2FF1F00C0064020E0FF1F10B5FFF744
:1065A000E7FF00BF00BF00BFBFF34F8F00BF00BFBA
:1065B00000BF10BD0FB4054B10B503A9044A0298E3
:1065C00000F018F810BC5DF814FB0000D77F000045
:1065D00050E0FF1F02E008C8121F08C1002AFAD1CC
:1065E00070477047002001E001C1121F002AFBD153
:1065F000704700002DE9FF4F8DB00F46054600267D
:1066000006E025280BD0DDE90F1290476D1C761CA3
:1066100028780028F5D111B03046BDE8F08F00246D
:10662000A246A1460122EC4900E0044315F8013FCF
:10663000203B02FA03F00842F7D128782A2810D02C
:106640006FF02F022878A0F13001092914D80AEB45
:106650008A0102EB410144F0020400EB010A6D1CC7
:10666000F0E701CF5FEA000A03D544F40054CAF111
:10667000000A44F002046D1C28782E2817D115F862
:10668000010F44F004042A280ED06FF02F0228785E
:10669000A0F1300109290AD809EB890102EB410177
:1066A00000EB01096D1CF2E757F8049B6D1C28787C
:1066B0006C280FD006DC4C2817D068280DD06A282B
:1066C00014D104E0742810D07A280FD10DE044F4DE
:1066D00000140AE044F4801401E044F440146978A2
:1066E000814202D104F580146D1C6D1C2A786E2A3B
:1066F0001FD00CDC632A31D004DC002A8BD0582A4E
:1067000011D1A3E0642A68D0692A0CD165E0732A0C
:106710002ED004DC6F2A73D0702A04D19BE0752A36
:106720006FD0782A6ED01046DDE90F129047761CA4
:1067300050E1C4F30250022806D0032809D00428EF
:1067400001CF09D0066045E101CFF117C0E9006132
:1067500040E101CF06803DE106703BE117F8040BF4
:106760008DF8000000208DF80100EB46012003E0C9
:1067700057F804BB4FF0FF3061074FF0000102D41F
:106780000DE008F10101884649450FDA8045F8DB44
:106790001BF808100029F4D108E008F1010188462F
:1067A0008142FADB1BF808100029F6D1DDE90F233E
:1067B000AAEB08008146214600F036F9304400EB90
:1067C000080604E0DDE90F121BF8010B9047B8F151
:1067D0000108F7D221464846F7E00A21C4F30253E4
:1067E0004FF0000B0891022B04D001CFC117032BEF
:1067F00009D00AE0FF1D27F00707F7E8020108E0CB
:1068000032E01FE020E000B2C117042B01D140B2FA
:10681000C117031E71F1000307DA4FF0000CD0EB33
:106820000C006CEB01012D2302E0230504D52B2382
:106830008DF82430012303E0E30701D02023F7E79C
:10684000984658E00A2110E010210EE010204FF089
:10685000000B08900CE010214FF0000B44F00404F2
:106860004FF00809089103E008214FF0000B089150
:10687000C4F30253022B04D001CF0021032B06D016
:1068800006E0FF1D27F00707F7E8020103E080B2EA
:10689000042B00D1C0B24FF0000823072BD5702A7B
:1068A00007D0DDF820C08CF0100C5CEA0B0C05D092
:1068B0000EE040238DF82430012308E050EA010364
:1068C00006D030238DF824308DF8252002239846F9
:1068D000DDF820C08CF0080C5CEA0B0C0BD150EA00
:1068E000010301D1630706D530238DF824304FF022
:1068F0000108A9F10109582A04D038A20B9208AA6C
:106900000A920BE03AA2F9E75B46089AFEF7F4FD1B
:106910000B9B9B5C0A9A521E0A92137050EA01026A
:10692000F2D10A98ADEB000000F1200B600702D510
:1069300024F4803401E04FF00109D94502DDA9EBD0
:106940000B0000E0002000EB0B0141440890AAEB93
:10695000010AE00306D4DDE90F232146504600F08A
:1069600063F806444FF0000908E009A911F809008E
:10697000DDE90F12904709F10109761CC145F4DBEE
:10698000E0030CD5DDE90F232146504600F04CF81A
:10699000064404E0DDE90F1230209047761C089988
:1069A000481E08900029F5DC08E00A980A9900784A
:1069B000491C0A91DDE90F129047761CBBF10001DA
:1069C000ABF1010BF1DC21465046DDE90F2300F06D
:1069D00019F806446D1C1BE60928010030313233DA
:1069E000343536373839616263646566000000000B
:1069F00030313233343536373839414243444546F5
:106A0000000000002DE9F041044600251E4617460F
:106A1000880404D405E039462020B0476D1C641E6C
:106A2000F9D52846BDE8F0812DE9F041044600255E
:106A30001E469046C80301D5302700E02027880471
:106A400004D505E041463846B0476D1C641EF9D5B3
:106A50002846BDE8F081000007480068401C064950
:106A60000860084600686FF00041884202D10020AB
:106A7000014908607047000000E0FF1F01B5009861
:106A800000B908BD0098012801D102200090012022
:106A900080F3108800BF0A49009808600020094967
:106AA000087000BF80F3108800BF04E0054800783C
:106AB000012800D100E0F9E700BF00BFE1E70000D6
:106AC00004E0FF1F08E0FF1F30B5144800684FF4D2
:106AD0007A72B0FBF2F1481EB0F1807F00D31BE068
:106AE000481E4FF0E022506150170F22002804DBAF
:106AF00013071C0E0A4B1C5406E013071D0E094B0E
:106B000000F00F04241F1D5500BF00204FF0E022AD
:106B100090610720106100BF30BD00000CE0FF1F36
:106B200000E400E018ED00E070B504460D460020DA
:106B3000E070401EE0622946204601F081FC08B169
:106B4000042070BD04F22E2001F0E5FB4AF6552129
:106B5000884201D00320F4E794F83000E92807D0F8
:106B600094F83000EB2803D094F83000E82811D1D5
:106B7000032209A104F1660001F0FCFB08B9002022
:106B8000DFE7052205A104F1820001F0F3FB08B95B
:106B90000020D6E70220D4E7464154004641543352
:106BA00032000000024600E0521C107810B110784C
:106BB0008842F9D11078704770B5044600BFEFF3F2
:106BC000108101F0010072B600BF0546204600F0BA
:106BD00009F8A168081A461E284600B962B600BF27
:106BE000304670BD10B5014600BFEFF3108404F0CD
:106BF000010372B600BF1A46D1E90043A34203D392
:106C0000D1E90043181B04E0D1E9013423440C68A6
:106C1000181B134603B962B600BF10BD30B500BFE4
:106C2000EFF3108505F0010472B600BF2346C16082
:106C300082600024046044601C4604B962B600BF50
:106C400030BD10B5014600BFEFF3108404F0010021
:106C500072B600BF02460C68C868035D0868401C35
:106C600008608C680868A04201D3002008601046C4
:106C700000B962B600BF184610BD10B500BFEFF3F3
:106C8000108404F0010372B600BF1A464468C3685A
:106C9000195543685B1C4360D0E90134A34201D31A
:106CA00000234360134603B962B600BF10BD02461D
:106CB000891E5069801E884201D800207047538980
:106CC000906A03FB0100F9E72DE9F0478246884608
:106CD000DAF80040B8F1000F06D1E76817B1606933
:106CE000B84215D8012713E04146504601F07CF91F
:106CF0000546022D02D20120BDE8F087681C08B9C4
:106D00002846F9E76069A84201D92846F4E74746D2
:106D1000206908B90020EFE70026474518D17E1CFE
:106D20006069B04200D802263146504601F05CF955
:106D30000546012D01D0681C08B92846DCE73DB1A5
:106D4000E568022D03D36069A84200D92F460026CA
:106D5000E6B93E4600BF761C6069B04204D8022600
:106D6000BE4201D90020C7E73146504601F03CF948
:106D7000054605B909E0012D01D0681C08B928466F
:106D8000BAE7BE42E7D10020B6E700BF4FF0FF32BE
:106D90003146204601F06EFB8146B9F1000F08D163
:106DA000B8F1000F05D032464146204601F062FBA3
:106DB0008146B9F1000F0DD1E660D4E90410801EC0
:106DC000814202D82069401E2061207940F00100F4
:106DD000207107E0B9F1010F02D14FF0FF3000E060
:106DE00001200646304687E72DE9F35F8946D9F84A
:106DF0000080009800F120050B222021284601F098
:106E0000D8FA0020074606464FF0080B00BF304670
:106E1000761C18F80040202C00DC50E02F2C01D00C
:106E20005C2C0AD100E0761C18F806002F28FAD056
:106E300018F806005C28F6D041E02E2C01D05F4502
:106E40000BD3BBF10B0F01D02E2C02D00620BDE8D6
:106E5000FC9F08274FF00B0BD9E7802C03DB04F0D5
:106E60007F0021490C5C204600F048F8A8B130466C
:106E7000761C18F800A0504600F046F818B1ABF1A7
:106E80000100B84201D80620E1E738467F1C2C54A7
:106E900038467F1C05F800A010E0214613A0FFF73C
:106EA00081FE08B10620D2E7612C04DB7A2C02DCDB
:106EB000A4F12000C4B238467F1C2C54A7E700BFC1
:106EC00008EB0600C9F800000FB90620BFE72878D4
:106ED000E52801D105202870202C01DC042000E0E9
:106EE0000020E8720020B2E7588D0000222A2B2CE7
:106EF0003A3B3C3D3E3F5B5D7C7F0000014609B173
:106F0000002070470020FCE7014609B100207047CF
:106F10000020FCE72DE9F04104460E46D4F800803D
:106F20000021204600F00DF90546EDB9002700BF0D
:106F30004046A16901F084FA054605B113E0E06915
:106F40000078E52802D0E069007820B9781C07466F
:106F5000B04201D107E000270121204600F070F87F
:106F60000546002DE4D000BF042D00D1072528469A
:106F7000BDE8F0812DE9F04704468946204601F03E
:106F80001FFE10B10120BDE8F08749462046FFF7FB
:106F90008EFE0646E6624FF48052002104F1300076
:106FA00001F007FA04F130080127002500E03D4414
:106FB0006089A84207D9721960783B46414600F0C3
:106FC00050F90028F3D06089A84201D00120DAE707
:106FD0000020D8E72DE9F04104462768002120462B
:106FE00000F0AFF8054615B12846BDE8F08100BFB6
:106FF0003846A16901F024FA054605B11DE0E069B3
:1070000006780EB9042518E0E069C07A00F03F0068
:10701000A071E069C07A00F0080038B90B2204F1D1
:107020002001E06901F0A6F900B906E00021204640
:1070300000F006F80546002DDAD000BF2846D4E758
:107040002DE9F041044688462768206900F12006B2
:10705000A06910B1B6F5001F02D30420BDE8F0818D
:10706000C6F30B00002845D1A069401CA0616069EF
:1070700038B93889B0EB561F3CD80020A0610420F5
:10708000ECE77889401E00EA163098BB204661691B
:1070900000F0AAFF0546012D01D80220DEE7681C9A
:1070A00008B90120DAE77869A8421DD8B8F1000FC5
:1070B00003D10020A0610420D0E720466169FFF7DA
:1070C00003FE05460DB90720C8E7012D01D10220B6
:1070D000C4E7681C08B90120C0E729463846FFF715
:1070E00049FF08B10120B9E7656129463846FFF735
:1070F000DEFDA0612661C6F30B0107F130000844F4
:10710000E0610020AAE770B5044626680121204608
:10711000FFF700FF054695B93046A16901F090F9E7
:10712000054665B920220021E06901F042F90B22F1
:1071300004F12001E06901F02FF90120F0702846E8
:1071400070BD2DE9F04104460D462668B5F5001FD7
:1071500002D205F01F0010B10220BDE8F0812561C8
:10716000A7681FB93078032800DB776A47B93089F0
:10717000B0EB551F01D80220EFE7706AA0611CE058
:1071800070894FEA003811E03946204600F02CFFA4
:107190000746781C08B90120DFE7022F02D3706987
:1071A000B84201D80220D8E7A5EB08054545EBD247
:1071B00039463046FFF77BFDA0616761A06908B9D9
:1071C0000220CAE7A06900EB1530A061C5F30B01EE
:1071D00006F130000844E0610020BEE770B50546C6
:1071E0004DB901F009FC01F037FB00B1012424F096
:1071F0000104204670BD0120FCE710B50346ABB981
:10720000012904D0022906D003290BD107E04FF44D
:107210000060106006E04FF48050108002E0012012
:10722000106000BF00BF0024204610BD0420FCE712
:107230002DE9F0470446884615461E464CB93203F0
:107240002803414601F0E6FB814600273846BDE8A9
:10725000F0870420FBE7014609B9002070470120B0
:10726000FCE72DE9F0470546884614461E4675B9E9
:1072700020034FF4805101F05DFA320320034146B0
:1072800001F0F8FB814600273846BDE8F08704206E
:10729000FBE738B50546284600F058FC04463CB9E3
:1072A0006946284601F0B1FC04460CB9002028606C
:1072B000204638BD2DE9FF4F95B0174601201490A8
:1072C0004002139015A800F0FFFE029002980028DB
:1072D00003DA0B2019B0BDE8F08FFC49029851F891
:1072E000200028B10021F94A029852F820000170CC
:1072F0000298C0B21190002010901198FFF76EFF15
:107300000190019800F0010008B10320E2E7019824
:1073100000F0040008B10A20DCE70DAA032111984F
:10732000FFF76BFF50B90D9840B10D98B0F5004FC5
:1073300004D80D98401E0D99084008B101200D9009
:107340004FF4805A0FB1574505D3B7F1807F02D86B
:10735000781E384008B11320BCE7B7FBFAF7189C39
:107360002298B0FBFAF00E900E9800FB0AF00F90F6
:107370000CB10E9808B91120ACE700BF07AA012193
:107380001198FFF73AFF08B10120A3E7169800F023
:10739000080008B1002000E03F200A9007990A98F1
:1073A000814201D20E2095E707990A98081A0790A2
:1073B0000798802801D20E208CE700BF00BF802FE5
:1073C00001D9132086E7169800F0020050B11698F4
:1073D00000F00700022803D0169800F0010008B959
:1073E000032607E0169800F0010008B9132071E7A2
:1073F000022600BF00BF00BF3D46032E2DD1A5B918
:1074000007984FEA504900200390012503E00398B4
:10741000401C03906D00AE49039831F8100020B174
:10742000039831F810004845F1D90798B0FBF5F8FA
:10743000082000EB88005044401EB0FBFAF0059095
:1074400020200690002004904FF6F570804502D968
:10745000A048804535D90E203CE7A5B907984FEAEA
:10746000103900200390012503E00398401C03908D
:107470006D009949039831F8100020B1039831F854
:1074800010004845F1D90798B0FBF5F840F6F570C3
:10749000804503D9042000EB480906E0012608EBEB
:1074A0004800401C032101EB500909EB0A00401E73
:1074B000B0FBFAF00590012006908003B0FBFAF0D3
:1074C000049006990A98084409900999059801447E
:1074D0000498084408900D9908980844401E491ED5
:1074E00020EA01010898A1EB0009032E06D10698B5
:1074F0004844069009984844099002E00598484499
:107500000590089800EB05110A98081A0799884217
:1075100001D90E20DEE6DDE90601091A0598091AEF
:107520000498081AB0FBF5F8032E0AD14FF6F5704F
:10753000804506D81FB96808071E00D031E00E202C
:10754000C8E6022E24D14FF6F570804514D92FB924
:107550004020B0EB450F01D36F0022E0169800F0F9
:10756000020008B103261CE027B9680007468028FE
:1075700000D816E00E20ADE640F6F570804507D83D
:1075800027B968000746802800D80AE00E20A1E647
:10759000012E05D140F6F570804501D90E2099E6FF
:1075A00000E029E700BF52460021204600F001FF1D
:1075B0000B224AA1204600F0EFFE514604F10B00D9
:1075C00001F0AFFA6573069881B204F10E0001F084
:1075D000A8FA01202074032E01D1002001E04FF40D
:1075E0000070014604F1110001F09BFA0798B0F514
:1075F000803F06D2079881B204F1130001F091FA9E
:1076000004E004F12000079901F07FFAF82060758A
:107610003F2104F1180001F084FAFF2104F11A005F
:1076200001F07FFA04F11C000A9901F06EFA032EB2
:1076300025D12D4904F1430001F067FA04F124003B
:10764000059901F062FA022104F12C0001F05DFAC3
:10765000012104F1300001F064FA062104F1320046
:1076600001F05FFA802084F84000292084F842006D
:1076700013221EA104F1470000F08EFE16E01A4905
:1076800004F1270001F041FA059881B204F11600D7
:1076900001F047FA802084F82400292084F826008D
:1076A000132217A104F12B0000F076FE4AF65521B3
:1076B00004F5FF7001F035FA012321460A9A11986A
:1076C000FFF7CFFD08B1012004E623E048E0FF1FEB
:1076D000E68D0000F5FFFF0FD88D0000EBFE904D0A
:1076E00053444F53352E30000000214C4E4F204E56
:1076F000414D452020202046415433322020200097
:107700004E4F204E414D4520202020464154202000
:1077100020202000032E33D101230A9A921D2146F6
:107720001198FFF79EFD52460021204600F041FED1
:107730007E49204601F0E9F97D4904F5F27001F037
:10774000E4F9A8F1010104F5F47001F0DEF9022179
:1077500004F5F67001F0D9F94AF6552104F5FF70E9
:1077600001F0DFF901230A9AD21D21461198FFF793
:1077700078FD01230A9A521C21461198FFF771FDEA
:10778000002120460F9A00F014FE09980C9000206A
:10779000039041E0032E0FD16FF00701204601F066
:1077A000B4F9311F201D01F0B0F96FF0704104F100
:1077B000080001F0AAF909E0012E01D15D4801E0BD
:1077C0006FF007000146204601F09FF905980B90E5
:1077D00000BF0E990B98884201D90E9800E00B98D3
:1077E00081464B4621460C9A1198FFF73AFD08B1A5
:1077F00001206FE552460021204600F0DAFD0C988A
:1078000048440C900B98A0EB09000B900B980028B3
:10781000DFD10398401C039003980028BAD0032EB0
:1078200001D1284600E004980B9000BF0E990B98F8
:10783000884201D90E9800E00B9881464B462146BC
:107840000C9A1198FFF70DFD08B1012042E50C9844
:1078500048440C900B98A0EB09000B900B98002863
:10786000E4D100BF032E02D10C2012900CE0079847
:10787000B0F5803F02D30620129005E0022E01D120
:10788000042000E00120129000BF169800F00800CC
:10789000F0BB52460021204600F08BFD4AF65521F0
:1078A00004F5FF7001F03DF904F5DF7B00208BF853
:1078B000000001208BF801008BF8020000208BF8FB
:1078C000030012988BF8040007990A98084443F6BD
:1078D000C161B0FBF1F9FE208BF80500C02000EA81
:1078E000990040F03F008BF806008BF807900BF1F1
:1078F00008000A9901F009F90BF10C00079901F051
:1079000004F90123002221461198FFF7AAFC00E0A8
:1079100002E008B10120DDE4002211461198FFF7D2
:107920006CFC08B10120D5E40020D3E4525261413F
:1079300072724161F8FFFF00F7B582B016460398F6
:10794000019001A800F0C0FB0546002D02DA0B20D3
:1079500005B0F0BD0C4850F825400CB10020207057
:10796000029810B10020029908700749029841F866
:1079700025000EB90020EBE7002202A903A800F0C1
:1079800021F907463846E3E748E0FF1F2DE9F74FA6
:107990008EB0044616461CB9092011B0BDE8F08F20
:1079A00006F03F06324602A90FA800F00BF9054683
:1079B000002D7DD10298039003A80F9900F0BCFA26
:1079C00005462DB99DF8370000F0800000B106256E
:1079D00006F01C0000284DD045B1042D03D103A8AA
:1079E000FFF791FB054646F008060AE09DF81200F5
:1079F00000F0110008B1072503E006F0040000B113
:107A00000825002D47D106F00800002843D00A9928
:107A1000029800F061FC81460A9901F10E004A4982
:107A200001F073F820200A99C87200220A9902987E
:107A300001F059F80A9901F11C00002101F065F8E4
:107A400001200299C870B9F1000F24D00298C06AD1
:107A500001900022494603A800F0A8FD0546D5B9CB
:107A6000DDE9011000F0ECFC0546A9F101000299E6
:107A7000C86010E07DB99DF8120000F0100008B158
:107A8000042508E006F0020028B19DF8120000F07D
:107A9000010000B107254DB906F0080008B146F015
:107AA00040060298C06A20620A986062002D00E0D9
:107AB00041E044D10A99029800F00EFCA0600A99B6
:107AC00001F11C0000F01BFCE060029820600298AD
:107AD000C088A080267400206074E061606106F0B8
:107AE000200040B3E06830B3E068606102984089EC
:107AF0004FEA003AA768D4F80C800CE039462046DB
:107B000000F072FA0746012F00D80225781C00B950
:107B10000125A8EB0A080DB9D045EFD8A76155B9E2
:107B2000C8F30B0038B139460298FFF7C0F8B0F13E
:107B3000000B01D1022502E00BEB1830E0610DB122
:107B400000202060284628E70000214CF8B50446B4
:107B50006946204601F059F8064676BB207C00F0C5
:107B6000400050B3164F216A009800F069FC0646A9
:107B70001EBB656AE87A40F02000E8722946A268D8
:107B8000206800F0B0FF05F11C00E16800F0BDFFC7
:107B9000394605F1160000F0B8FF002105F112008A
:107BA00000F0BFFF01200099C870009800F0C0FFEE
:107BB0000646207C00F0BF0020743046F8BD00006F
:107BC0000000214C2DE9F74F8AB000210B9801608D
:107BD0000A9800F079FA08900898002803DA0B2038
:107BE0000DB0BDE8F08FB549089851F820400CB9A8
:107BF0000C20F5E70B9804600C9800F0FE000C9048
:107C0000207878B16078FFF726FB814609F0010003
:107C100040B90C9820B109F0040008B10A20DFE750
:107C20000020DDE700202070089860706078FFF782
:107C3000D5FA814609F0010008B10320D0E70C987D
:107C400020B109F0040008B10A20C9E7002739462D
:107C50002046FEF769FF0546022D01D02EDA2DE001
:107C6000002614E04FF4DF7000EB061104F1300041
:107C7000084409900998007920B10998083000F06B
:107C80003EFB00E0002002A941F82600761C042EED
:107C9000E8D3002606B1761E00BF02A850F8267071
:107CA00027B139462046FEF73FFF00E00320054696
:107CB000022D03DB701C06460428EED3042D01D1EF
:107CC00001208DE7022D01DB0D2089E704F13B0047
:107CD00000F021FBB0F5805F01D00D2080E704F1BA
:107CE000460000F018FB8046B8F1000F04D104F103
:107CF000540000F004FB8046C4F818804020005D6A
:107D0000A070A078012804D0A078022801D00D200E
:107D100066E7A07808FB00F83D20005D608160897F
:107D200018B16089411E084008B10D2058E704F1E0
:107D3000410000F0F0FA2081207A00F07F0008B1C5
:107D40000D204DE704F1430000F0E5FA8346BBF156
:107D5000000F04D104F1500000F0D1FA834604F181
:107D60003E0000F0D8FA0190019808B90D2037E7DD
:107D700001984044218900EBD11007900798834572
:107D800001D20D202CE70798ABEB00006189B0FB16
:107D9000F1FABAF1000F01D10D2021E70025484882
:107DA000824500D803254FF6F570824500D802259C
:107DB00040F6F570824500D801250DB90D200FE77A
:107DC0000AF102006061E761019838442062079877
:107DD0003844A062032D13D104F15A0000F09BFA3D
:107DE00008B10D20FCE6208908B10D20F8E604F169
:107DF0005C0000F084FA606260698000069014E024
:107E0000208908B90D20EBE6206A40446062022D0B
:107E100002D16069400007E0207D00F00100616947
:107E200001EB410100EB51000690A169069800F6B4
:107E3000FF70B1EB103F01D20D20D1E64FF0FF30C3
:107E40002061E06080202071032D2CD104F16000BE
:107E500000F061FA012826D1791C204600F0F0FAE2
:107E600008BB0020207104F22E2000F054FA4AF6DC
:107E70005521884217D104F1300000F040FA114931
:107E8000884210D104F5057000F039FA0E49884295
:107E900009D104F5067000F032FA206104F507708C
:107EA00000F02DFAE060257008480088401C80B280
:107EB00006490880E080002092E6000048E0FF1FAD
:107EC000F5FFFF0F52526141727241614CE0FF1F9A
:107ED00010B501464FF6FF7388B2164C606305E09B
:107EE000181EA3F1010301D1032010BD1148C06A7F
:107EF00000F000400028F3D00E48C06A40F0004077
:107F00000C4CE06205E0181EA3F1010301D103202F
:107F1000EBE70848C06A00F400300028F3D00548B9
:107F2000806BC2B20348C06A40F40030014CE0628A
:107F30001046DAE700D002402DE9F34104462768F5
:107F400002E00198401C0190019800782F28F8D099
:107F5000019800785C28F4D00020A0600198007897
:107F6000202808D280212B20015500212046FFF730
:107F7000E8F805462CE000BF01A92046FEF734FFD3
:107F8000054605B123E02046FFF724F805462B20DF
:107F9000065D3DB1042D04D100BF06F0040000B918
:107FA000052514E006F0040000B110E0A07900F00F
:107FB000100008B905250AE0208AC0F30B0207F17A
:107FC00030001118384600F087F9A060D4E700BFF0
:107FD0002846BDE8FC8138B504468DF800006946A6
:107FE0000320ABBE204638BD2DE9F04781460C4644
:107FF000D9F80050022C02D36869A04202D84FF091
:1080000001085EE04FF0FF382878012804D00228EC
:108010002CD0032851D13CE0264606EB5606286AB0
:1080200000EB1631284600F00BFA00B148E030466C
:10803000761CC0F30B0105F13000475C286A00EBA9
:108040001631284600F0FCF900B139E0C6F30B0107
:1080500005F13000405C47EA002704F0010008B158
:10806000380901E0C7F30B00804629E0286A00EBDD
:10807000D421284600F0E4F900B121E040F6FF7178
:1080800001EA440205F13001501800F044F980463D
:1080900016E0286A00EB9421284600F0D1F900B1DF
:1080A0000EE040F6FF7101EA840205F1300150183C
:1080B00000F025F920F0704802E04FF0010800BF01
:1080C00000BF4046BDE8F08770B504464FF0FF3072
:1080D00026683146324601B970BD00BF12F8013B37
:1080E000212B01D33A2BF9D13A2B11D101250E784E
:1080F000302E08DB0E78392E05DC8E1C964202D11C
:108100000E78A6F13005012D01DA28462260E3E75A
:10811000002000BFE0E7000010B54548406920F0AE
:108120000200434948618815424948604249C86095
:1081300004203F49883108603D49C1F8940010206F
:108140003B49C8310860012211463948C030FEF76A
:1081500082F83748D0F8D40040F002003449D431D6
:108160000860012200213248C030FEF774F8304820
:10817000D0F8D40040F001002D49D431086001222C
:1081800002212B484030FEF766F82948406D40F048
:10819000040027494865012205212548FEF75BF8C0
:1081A0002348406940F02000214948610122032111
:1081B0001F484030FEF74FF81D48406D40F0080062
:1081C0001B4948650122022119488030FEF743F817
:1081D0001748D0F8940040F0040015499431086025
:1081E0000122032112488030FEF735F81048D0F8FC
:1081F000940040F008000E499431086001221221D9
:108200000B484030FEF727F80948406D40F48020C5
:10821000074948650122132105484030FEF71BF845
:108220000348406D40F400200149486510BD00003E
:1082300000F00F400090044000B004400248006984
:10824000012121EA5000704700F00F400248006908
:10825000012121EA5000704700F00F4002480069F8
:10826000012121EA5000704700F00F4010B504468C
:1082700044B902210E48FDF7F9FF01210C48FDF732
:10828000F5FF14E0012C08D102210948FDF7ECFFAD
:1082900001210748FDF7EAFF09E0022C07D102217E
:1082A0000348FDF7E3FF01210148FDF7DDFF10BDA5
:1082B000C0F00F4010B50A2202490348FEF7AEFC99
:1082C00010BD000064E0FF1F54E0FF1F10B5FEF773
:1082D00029F8FFF7EFFF10BD70B505460C4604F115
:1082E0001A0000F018F806462878032805D104F192
:1082F000140000F010F846EA0046304670BD014612
:10830000C8788A7842EA00204A7842EA00200A784F
:1083100042EA00207047014648780A7842EA002085
:10832000704700004FF4A04010490860FDF782F943
:10833000FDF746F9FDF77CF9FFF7EEFE0120FFF7A8
:1083400095FFFEF7C1FB00F057FB00F085FAFFF741
:10835000BDFF00F037F807E020200549C86000BFE6
:108360004FF47A70FEF78AFBF6E7000008ED00E0B4
:1083700000F00F40F0B503461D460C46002000BF3C
:1083800015F8017B14F801CBA7EB0C00561E321E2A
:1083900001D00028F4D0F0BD30B503460C463AB108
:1083A00000BF14F8015B03F8015B551E2A1EF8D1CB
:1083B00030BD10B5034600BF03F8011B541E221E3A
:1083C000FAD110BD38B5012216A11748FFF7B4FA4B
:1083D0000446D4B100F09CF9002003460246014651
:1083E000009010A0FEF766FF044664B901220DA1BB
:1083F0000020FFF7A1FA044601220AA10A48FFF76C
:108400009BFA044601E000BFFEE7072207A10B48E4
:10841000FFF7BCFA04461CB114B10848FEF739FF57
:10842000002038BD303A00000000002045534F6E58
:108430006C696E652E7478740000000030100020A6
:1084400070B504460D460026E06AA84210D02046CA
:1084500000F0B6FB06465EB9607801232A4604F1B7
:108460003001FEF7E5FE10B14FF0FF350126E56261
:10847000304670BD2DE9F04704460D4616464FF0D4
:108480000209022D74D36069A84271D920780128AD
:1084900004D0022849D003280DD15EE02F4607EB17
:1084A0005707206A00EB17312046FFF7C9FF8146C6
:1084B000B9F1000F00D075E038467F1CC0F30B0106
:1084C00004F1300001EB000805F0010028B1F1B221
:1084D00098F8000061F31F1000E0304688F80000B3
:1084E0000120E070206A00EB17312046FFF7A8FF5B
:1084F0008146B9F1000F00D054E0C7F30B0104F13D
:10850000300001EB000805F0010010B1C6F30710C0
:1085100006E098F8000000F0F000C6F303210843DD
:1085200088F800000120E0703CE0206A00EBD521D3
:108530002046FFF785FF8146B9F1000F00D031E0FA
:10854000B1B240F6FF7202EA450304F13002981816
:1085500000F0E7FA0120E07024E0206A00EB9521AA
:108560002046FFF76DFF8146B9F1000F01D019E0F9
:1085700019E040F6FF7101EA850204F1300150185C
:10858000FFF7BDFE66F31B00064640F6FF7101EAE9
:10859000850204F130015018314600F0B6FA01208E
:1085A000E07000BF00BF4846BDE8F0872DE9F04706
:1085B00081460E4617464FF00008D9F80040022EBB
:1085C00002D36069B04202D80220BDE8F08767B1EB
:1085D00000BF4FF0FF3239462046FFF74BFF804681
:1085E000B8F1000F01D04046EFE700BF31464846E2
:1085F000FFF7FAFC054605B922E0012D01D1022062
:10860000E3E7681C08B90120DFE700223146204675
:10861000FFF730FF8046B8F1000F01D04046D4E7A5
:10862000D4E90410801E814206D22069401C2061DA
:10863000207940F0010020712E466069B042D5D803
:1086400000BF0020C1E7000010B5044610A0E1699A
:10865000FDF7B0FF12A0A169FDF7ACFF14A061699E
:10866000FDF7A8FF16A02169FDF7A4FF18A0E16897
:10867000FDF7A0FF1AA0A168FDF79CFF1CA0616890
:10868000FDF798FF1EA02168FDF794FF10BD0000C4
:108690007073723A203078253038780D0A00000067
:1086A0002070633A203078253038780D0A000000B9
:1086B000206C723A203078253038780D0A0000009E
:1086C0007231323A203078253038780D0A000000B7
:1086D0007230333A203078253038780D0A000000A7
:1086E0007230323A203078253038780D0A00000098
:1086F0007230313A203078253038780D0A00000089
:108700007230303A203078253038780D0A00000079
:1087100010B500F004F9002000F0BEF8C720FFF704
:10872000D7FB012000F0B8F800F0C4F800F0ECF836
:10873000002010BD70B504460D460026C4F30B00A2
:10874000201AA04201D0042070BD61191948006AA6
:10875000B1EB003F01D90420F6E716488069B5FB6C
:10876000F0F100FB115008B10420EDE71BE000F030
:10877000D6F8002000F090F82020FFF7A9FBC4F302
:108780000740FFF7A5FBC4F30720FFF7A1FBE0B20A
:10879000FFF79EFB012000F07FF806F5805604F5F8
:1087A000805400F087F8AE42E1D300F0ADF800202D
:1087B000CAE7000094E0FF1F2DE9F04104460D4692
:1087C0001746E0B210B10420BDE8F08100F0A7F830
:1087D00000F070F8002000F05FF80220FFF778FB4F
:1087E000C4F30740FFF774FBC4F30720FFF770FBE7
:1087F000E0B2FFF76DFB002604E02878FFF768FB86
:108800006D1C761CFF2EF8D9012000F045F800F011
:1088100051F800F079F80020D6E72DE9F04100206A
:1088200000F03AF89F20FFF753FBFF20FFF750FBC3
:108830000546FF20FFF74CFB0646FF20FFF748FBED
:108840000746012000F028F8280440EA062040EA04
:1088500007042046BDE8F08110B5FFF7DEFF0446AF
:108860000B48046000200A49C8614FF480508861B9
:108870004010086208468069096A48430449486113
:108880000448844201D1002010BD4FF0FF30FBE7C7
:1088900094E0FF1F1720C20020B91021044A916004
:1088A00000BF04E01021024A516000BF00BF7047C2
:1088B000C0F00F4070B54FF47A751CE00020FFF750
:1088C000EBFF32260520FFF703FB00BFFF20FFF779
:1088D000FFFA0446022000F02DF804F0010018B160
:1088E000301EA6F10106F1D10120FFF7D5FF04F0FB
:1088F000010000B903E0281EA5F10105DED100BF8B
:108900000DB900BFFEE770BD10B50020FFF7C4FF32
:108910000420FFF7DDFA0120FFF7BEFF10BD10B500
:108920000020FFF7B9FF0620FFF7D2FA0120FFF77A
:10893000B3FF10BD064909684FF47A72B1FBF2F13A
:10894000C91C8908484300BF411E081EFCD170475E
:108950000CE0FF1F10B58AB000208DF804002248FB
:1089600002900821039101218DF810108DF811104B
:1089700000218DF812101D490298B1FBF0F105910C
:108980001A490298B1FBF0F1069118490298B1FB1F
:10899000F0F1079100208DF822008DF823008DF86A
:1089A00024008DF825000220FDF760F804462246D9
:1089B00001A90F48FDF762FA0420002121B9012224
:1089C00082400C4B9A6003E001228240094B5A60BE
:1089D00000BF08481430006840F010000549C03955
:1089E000C1F8D4000AB010BD8096980000CA9A3B26
:1089F00000D00240C0F00F4010B5FFF7ABFF0020E1
:108A0000FFF74AFFFFF756FFFFF77EFF0120FFF752
:108A100043FF10BD70B504460E4615462DB16119D1
:108A20001348006AB1EB003F01D9042070BD00205B
:108A3000FFF732FF0320FFF74BFAC4F30740FFF7BD
:108A400047FAC4F30720FFF743FAE0B2FFF740FA12
:108A500004E0FF20FFF73CFA06F8010B281EA5F101
:108A60000105F6D10120FFF717FF0020DEE7000027
:108A700094E0FF1F2DE9F04104460E4615464FF0E5
:108A800000080027E0B210B10420BDE8F0814FEAF1
:108A90001528EFB2B8F1000F07D12A46314620461B
:108AA000FFF78AFEE8B10120EFE70CE04FF4807297
:108AB00031462046FFF780FE08B10120E5E704F5C6
:108AC000807406F58076B8F10000A8F10108EDD1B8
:108AD0003FB13A4631462046FFF76EFE08B101200D
:108AE000D3E70020D1E770B506460C461546A9B27B
:108AF00004F11A0000F015F83078032804D1290C8D
:108B000004F1140000F00DF870BD00F8011B090A13
:108B100000F8011B090A00F8011B090A00F8011BF3
:108B2000704700F8011B091200F8011B7047000094
:108B300070B50446204600F043F80546002D38D1B4
:108B4000207803282ED1207901282BD1020300217F
:108B500004F13000FFF72DFC4AF6552104F22E20D7
:108B6000FFF7DFFF144904F13000FFF7CEFF134990
:108B700004F50570FFF7C9FF04F506702169FFF7DA
:108B8000C4FF04F50770E168FFF7BFFFE069401C10
:108B9000E0626078012304F13001E26AFEF761FBD4
:108BA00000202071607800221146FEF726FB00B1FC
:108BB0000125284670BD0000525261417272416128
:108BC00070B504460025E078E8B16078012304F12F
:108BD0003001E26AFEF745FBA0B90020E070216A8F
:108BE000E06A401AA16988420DD2A07802280AD111
:108BF000A369E16ACA186078012304F13001FEF725
:108C000030FB00E00125284670BD70B504460D46D6
:108C100009268CB1206878B12068007860B1A088FE
:108C20002168C988884207D121684878FEF713FB7C
:108C300000F0010000B900260EB9206800E0002015
:108C40002860304670BD00000300010003020000F0
:108C5000030000000000030100127A000D0400016F
:108C600000010103040400010203040401010201E4
:108C700001010001010304040001010304050404CF
:108C8000040404058002DC020005B805800795088D
:108C9000000A710B127A000097980000C0C62D00E0
:108CA000404B4C00020000000300000005000000E3
:108CB00007000000020000000400000006000000A1
:108CC000080000001000000020000000400000002C
:108CD000800000000001000000020000000400000D
:108CE000000800000010000000200000004000000C
:108CF00000800000010000000300000005000000EB
:108D0000070000000200000004000000080000004E
:108D10001000000020000000400000008000000063
:108D20000001000000020000000400000008000034
:108D30000010000000200000004000000080000043
:108D40000000010000C0024000D002401A1B0000D9
:108D50000C003C100D003C10809A45418E418F80E4
:108D60004545454949498E8F9092924F994F5555A7
:108D700059999A9B9C9D9E9F41494F55A5A5A6A791
:108D8000A8A9AAABACADAEAFB0B1B2B3B4B5B6B7EB
:108D9000B8B9BABBBCBDBEBFC0C1C2C3C4C5C6C7DB
:108DA000C8C9CACBCCCDCECFD0D1D2D3D4D5D6D7CB
:108DB000D8D9DADBDCDDDEDFE0E1E2E3E4E5E6E7BB
:108DC000E8E9EAEBECEDEEEFF0F1F2F3F4F5F6F7AB
:108DD000F8F9FAFBFCFDFEFF010004001000400062
:108DE0000001000200000100020004000800100061
:108DF00020000000248E000000E0FF1F540000004F
:108E0000D4650000788E000054E0FF1F900200003F
:108E1000E4650000788E000000000020581000007B
:108E2000E4650000000000000000000000000000F9
:108E3000000040010080000000093D00000000002B
:108E40000000000000000000000000000000000022
:108E50000000000000000000000000000000000012
:108E60000000000000000000000000000000000002
:088E70000000000000000000FA
:040000050000541192
:00000001FF
