:020000040000FA
:1040000000400020254400003D44000035530000DE
:10401000414400004344000045440000000000000B
:104020000101000000000000000000004744000003
:1040300049440000000000004B440000ED54000023
:104040004F44000053440000574400005B4400000C
:1040500097440000974400009744000097440000F4
:1040600097440000974400009744000097440000E4
:1040700097440000974400009744000097440000D4
:104080005F440000974400009744000097440000FC
:1040900097440000974400009744000097440000B4
:1040A00063440000674400006B4400006F4400005C
:1040B00073440000774400007B4400007F4400000C
:1040C00083440000874400008B4400008F440000BC
:1040D0009344000097440000974400009744000078
:1040E0009744000097440000974400009744000064
:1040F0009744000097440000974400009744000054
:104100009744000097440000974400009744000043
:104110009744000097440000974400009744000033
:1043F000974400009744000097440000FFFFFFFF30
:10440000FFFFFFFFFFFFFFFFFFFFFFFFFEF9FFFFC3
:10441000DFF80CD000F0C0F80048004765810000CC
:104420000040002072B61D481D4901600A6882F3F1
:1044300008881C48804762B61B480047FEE7FEE735
:10444000FEE7FEE7FEE7FEE7FEE7FEE7FEE71748CA
:1044500000471748004717480047174800471748C4
:1044600000471748004717480047174800471748B4
:1044700000471748004717480047174800471748A4
:104480000047174800471748004717480047174894
:1044900000471748004717480047000008ED00E0B4
:1044A0000040000021550000114400009744000026
:1044B0009744000097440000974400009744000090
:1044C000495300005D530000C5540000D95400005A
:1044D0009744000097440000974400009744000070
:1044E0009744000097440000974400009744000060
:1044F000974400009744000040EA01039B0703D063
:1045000009E008C9121F08C0042AFAD203E011F812
:10451000013B00F8013B521EF9D27047D2B201E0D4
:1045200000F8012B491EFBD270470022F6E710B5B8
:1045300013460A4604461946FFF7F0FF204610BD11
:10454000421C10F8011B0029FBD1801A704710B5DE
:10455000002200E0521C835C8C5CA34201D1002B42
:10456000F8D1D8B2E1B2401A10BD30B50B460146C1
:1045700000202022012409E021FA02F59D4205D302
:1045800003FA02F5491B04FA02F52844151EA2F1AC
:104590000102F1DC30BD0000064C074D06E0E0688A
:1045A00040F0010394E8070098471034AC42F6D37A
:1045B000FFF732FFB8AF0000F8AF000008B51049B0
:1045C0000E4848640F4800F0C9FA0F480F490860C8
:1045D0000F480022009002230321104600F0EEF85D
:1045E0000848083800F044FB0B490A480860BDE859
:1045F00008400A494FF4E02000F010B9000007110C
:1046000000800440C897000000127A0034E0FF1FC9
:10461000DD4700000087930318000020006CDC02D7
:104620007047000070B55E4800F0E0F85C48401C40
:1046300000F0DCF85A48801C00F0D8F85848C01C3C
:1046400000F0D4F85648001D00F0D0F8554C072271
:104650000021204600F02EFF01220421204600F018
:1046600029FF6068504D2840606001220C212046DF
:1046700000F020FF03220D21204600F01BFF002246
:104680001221204600F016FF00221321204600F0E0
:1046900011FFA0682840A06007220321204600F0F7
:1046A00009FF20692840206101220521204600F0F1
:1046B00001FF606920F0807040F0020060613B4CB7
:1046C00001221321204600F0F5FE0122122120468E
:1046D00000F0F0FE01220221204600F0EBFE012254
:1046E0000321204600F0E6FE04221021204600F0BF
:1046F000E1FE2F4C00221146204600F0DBFE012295
:104700000A21204600F0D6FE01220221204600F0B8
:10471000D1FE01220321204600F0CCFE012204211B
:10472000204600F0C7FE01220821204600F0C2FE0C
:1047300001220921204600F0BDFE1E4D012200216C
:10474000284600F0B7FE01221146284600F0B2FECE
:1047500001220221284600F0ADFE0122114620462A
:1047600000F0A8FE01220421284600F0A3FE072243
:104770000521284600F09EFE07220621284600F06B
:1047800099FE07221146284600F094FE0A48C168A7
:1047900021F00371C160016921F03001016170BD38
:1047A0000900381000900440FDFFFFFE00A0044007
:1047B00000B0044000C00440008004402DE9F041F6
:1047C0000C4615461E46069F00F0F8F93B46324659
:1047D00029462046BDE8F04100F00ABA47F23050C1
:1047E00000E000BF401E411CFBD17047044901EBB3
:1047F00010410A68012383401A430A607047000091
:1048000000700440044901EB10410A680123834011
:104810001A430A60704700000070044030B501235D
:104820001D4D2A6822F480222A601B4A343A00284F
:104830001AD01A4C091922D0641009191CD0091970
:1048400017D0E14202D10921916400E000235168B0
:1048500021F4E02101435160296841F4802129605D
:10486000B0F5E02F0ED014E0516821F480215160A2
:10487000F2E702219164EAE705219164E7E700216C
:104880009164E4E7064803210171017841F0800159
:104890000170184630BD000034800440009423FDB0
:1048A0004021074000B50D480068C0F38140002852
:1048B00005D002280CD003280DD0002000BD00F048
:1048C00009F94FF40041884200D00021084600BD9C
:1048D0000348C06800BD4FF47A7000BD007004400A
:1048E0002CE0FF1F10B500F051F8044634B100F081
:1048F0000FF9B4EBD00F01D8204610BD002010BD39
:1049000010B500F0BFF8002817D0114A1178C1F394
:10491000C201C8405378C3F30113127B02F00302B3
:1049200003B10AB1022A08D108290FD2DFE801F049
:10493000040404040404060A400910BD1421B0FB59
:10494000F1F010BD0C21B0FBF1F010BD002010BD46
:104950000040064010B50B4C6078800701D5002060
:1049600010BD00F013F80028FAD0E178C1F341112E
:10497000E278D209044B03EB810131F8121048436D
:1049800010BD00000040064024A9000004488079C2
:10499000C00601D4FFF7B4BF0248006870470000AA
:1049A000004006402CE0FF1F10B5264C142847D2CB
:1049B000DFE800F00A0A13461C46252942463E2D30
:1049C000313546464646393B00F0A2F8616C01227B
:1049D00002EB1171B0FBF1F010BD00F099F8616CC1
:1049E000C1F30361491CB0FBF1F010BD00F090F879
:1049F000616CC1F30341491CB0FBF1F010BDBDE88F
:104A0000104000F099B8BDE81040FFF74BBFBDE87B
:104A10001040FFF767BFBDE8104000F017B8BDE8D1
:104A20001040FFF797BF084810BD4FF47A7010BDD3
:104A3000BDE8104000F04EB8BDE8104000F03AB8B4
:104A4000002010BD00800440006CDC0203480078A8
:104A5000800701D40020704700F002B800400640F3
:104A600006498879C207064805D0097A4068C1F32B
:104A70004201C8407047006870470000004006408F
:104A80002CE0FF1F0848007B084910F0030005D008
:104A9000012805D0022805D000207047886870479B
:104AA000C868704702487047004006402CE0FF1F6E
:104AB000006CDC0205480178090605D5807881097B
:104AC00003488068C8407047002070470050064087
:104AD0002CE0FF1F04480078000602D503488068D8
:104AE0007047002070470000005006402CE0FF1F78
:104AF00049F69701884201D800207047034988424F
:104B000001D80120704702207047000000127A008F
:104B100008488079C0F38100002805D0012805D01D
:104B2000022805D000207047FFF714BFFFF798BF99
:104B3000FFF7A8BF0040064006484068C0F30140A8
:104B4000002803D0032803D000207047FFF702BFDE
:104B50000148704700800440006CDC0210B5044638
:104B60002068FFF7C5FF024612492379087820F034
:104B70000F0018430870087820F0A003A0791843AC
:104B80000870E079800188700B484378120123F0A7
:104B90003C03C2F3011243EA021263791A434270E2
:104BA0006279002A05D00978090602D5817989073A
:104BB000FCD510BD00500640004006400B4A117B5A
:104BC00001F00301814201D0012100E00021137BAB
:104BD00060F30103137331B140F2DC5000E000BF19
:104BE000401E411CFBD100207047000000400640E1
:104BF0002DE9F04100261D4CE578A779FF0604D584
:104C00000126E77887F02007E7702778C00027F0B3
:104C1000FC07C0F3C20047EAC0002070207B800779
:104C200005D16078400702D5A0798007FCD5A0792E
:104C3000C006FCD406B1E570C801C0F3C010C001C5
:104C40005101C1F3411140EA411025F0E001084350
:104C5000E070E1788142FCD1A07910F00C0FFBD11B
:104C600003B198470020BDE8F081000000400640F5
:104C7000074942684A6402784B6862F311434B600B
:104C8000407804490A6860F393420A607047000064
:104C9000008004400070044010B50268D30F054A3C
:104CA000002B02D05268904701E092689047BFF312
:104CB0004F8F10BD3CE0FF1F002904D0016821F494
:104CC000804101607047016841F480410160704794
:104CD00001460020044A52F820308B4202D0401C8A
:104CE0000228F8D37047000048A900002DE9F843D6
:104CF00005460C4617462846FFF7EAFF3B4951F8A0
:104D00002000FFF77FFD01212846FFF7D5FF286827
:104D100040F0010028600120296860F3DF712960FC
:104D2000286833490840A17F4FF0804202EA817130
:104D3000014394F82000161106EA80600143E07FE9
:104D40004FF0807808EA0060014394F821004FF4A6
:104D5000407202EA002001432960627F217F2846D9
:104D600000F04CF921783B462846626800F042F892
:104D7000207805EB8000C16821F0FE41227A4FF0D7
:104D8000F043521E03EAC2620A43217B731006EA13
:104D900081610A43617B03EA41610A43A17B08EA1E
:104DA00001610A43C2602069009021783B460122DC
:104DB000284600F0B7F86069009021783B4602224F
:104DC000284600F0AFF8A069009021783B46032206
:104DD000284600F0A7F80021284600F005F92868C9
:104DE00020F001002860BDE8F883000050A9000011
:104DF000FFCCFFBA2DE9F04F8346DBF80000C00F6F
:104E000000280BD04FF0FF364FF000094FF0000A9A
:104E10004FF001084FF0000E00272BE00020BDE806
:104E2000F08F002521E001241AE0DFF870C01B4854
:104E30000CF1100C50F827005CF825C000FB0CF0BA
:104E400003FB04FCBCFBF0F0824208D3A2EB000C95
:104E5000664504D96646B946AA468646A046641CFD
:104E6000032C01D2002EE0D16D1C102D01D2002E9A
:104E7000D9D17F1C042F01D2002ED2D10BEB81009F
:104E8000C168074A1140A8F1010841EAC87141EA26
:104E9000094141EA0A01C1607046C0E758A9000013
:104EA000F0FFFC7F30B5039C0568ED0F002D13D09B
:104EB00000EB8100012C10D0022C1DD0032C0BD153
:104EC000C168154C21404FF4402404EA824211434A
:104ED0001A0741EA1261C16030BDC1680F4C214020
:104EE0004FF4400404EA825211434FF6FF7202EA83
:104EF00003321143C16030BDC168094C21404FF4F9
:104F0000401404EA025211434FF4706202EA032291
:104F10001143C16030BD00000FFFF3FFFF0F3FFFE3
:104F2000FFF0CFFF2DE9FF4F81B018460E9F01998A
:104F30000968C90F002927D04FF0FF3503224FF031
:104F40000F0CDFF89C90DFF89CA0B9FBF0F10AF1A0
:104F5000100BDAF80C30DBF83C40634359434FEA5E
:104F600091084FEA9901B1FBF0F14C00BC420DD31E
:104F700003980090DDE9010100231A46FFF792FF34
:104F8000204605B0BDE8F08F0020FAE700211AE0C6
:104F9000002313E0B9FBF0F45AF821605BF823E03A
:104FA00006FB0EF67443A408BC4206D3E61BB542CA
:104FB00003D935460A469C46A0465B1C102B01D2FD
:104FC000002DE7D1491C042901D2002DE0D103981E
:104FD0000090DDE901016346FFF764FF4046D0E73A
:104FE00000286BEEA8A9000010B50C46FFF770FE74
:104FF00001490C5410BD00003CE0FF1F10B50468CF
:105000004FF47C1303EA0143012A03D024EA03018D
:10501000016010BD43EA0401FAE700002DE9F04306
:1050200089B081460E4615461C4601AA31464846BF
:1050300002F072FB2A4631464846059B02F029FBE6
:10504000002805D1204602F03DFB0746380002D07B
:1050500009B0BDE8F083019C029E25446D1EB5FB9E
:10506000F6F006FB105020B1B5FBF6F56D1C75434C
:105070006D1E0021484602F0F0FADFF82C800BE0AC
:1050800024F07F4040F01060C8F80400484602F069
:1050900023FB074617B93444AC42F1D9484602F025
:1050A000D9FA3846D4E700000000024070B5044643
:1050B000002C2AD01748C06CC0F303600F2826D0FC
:1050C000154931F81000800200252560606001203C
:1050D0002072C002E0601148027881159140616140
:1050E000C078A061204602F0C7FA50B10C480560B4
:1050F000A0F18001416040318160E061204600F014
:1051000011F825626562002070BD042070BD4FF467
:105110000030D9E70080044020AA000028000240A7
:1051200060E6FF1F10B500280BD0C4694CB1606861
:1051300000F040FEA06800F02DFE0220206000205C
:1051400010BD042010BD00002DE9F04389B0814658
:105150000D4614461E46002C10D001AA294648468A
:1051600002F0DAFA324629464846049B02F091FAE8
:105170000746380004D009B0BDE8F0830420FAE700
:10518000019D0021484602F068FADFF8588022E0CD
:1051900001CCC8F808000498042803D00498082813
:1051A00007D00FE025F07F4040F0C060C8F8040051
:1051B00008E001CCC8F80C0025F07F4040F0E0602A
:1051C000C8F80400484602F087FA07462FB9049849
:1051D00005440498361A002EDAD1484602F03AFA0D
:1051E0003846C8E7000002402DE9F04788B0824603
:1051F0000C46154699466A462146504602F08CFAFE
:105200002A4621465046059B02F043FA00282ED13B
:105210006A462146504602F07FFA009EDDF808807B
:105220007042C8F1000108404742B7421CD14744D0
:105230001AE0BC1BAC4200D92C460598B4FBF0F038
:1052400026F07F4141F080720A494A60000440EA3A
:10525000092040F0FF008860504602F03DFA002827
:1052600005D12D1B26444744002DE2D1002008B073
:10527000BDE8F087000002402DE9F04F89B0834679
:10528000DDE91389129F0C4616461D46002D14D0E9
:1052900001AA2146584602F03FFA324621465846B6
:1052A000089B02F0F6F9002808D1019C6FF07F41BD
:1052B000DFF85CA041EA076726E0042009B0BDE8FA
:1052C000F08F24F07F4040F00070CAF80400CAF864
:1052D00008702868CAF80C00584602F0FDF958B169
:1052E000B8F1000F01D0C8F80040B9F1000FE5D0C7
:1052F0000021C9F80010E1E70899761A089921F011
:1053000003010D4408990C44002EDAD1D6E70000C1
:105310000000024001238B40002A01D04360704707
:105320008360704701238B40002A01D0436070479F
:1053300083607047EFF3098003F062FCEFF30880AD
:1053400003F05EFCFEE7000002480168024800F03E
:105350000FB80000240000200060064002484168A9
:10536000024800F005B8000024000020007006404C
:1053700010B5C278D306064A02D483789B0602D5BC
:105380001268904701E052689047BFF34F8F10BDFD
:105390001C00002030B50021002205240B4B6425A1
:1053A00001EB410003EB8000047185714271C27111
:1053B0000272491CC9B20029F2D001209872022061
:1053C00058720320D8720248186030BD5000002087
:1053D000457E00002DE9F04100250E4F05F1B0009B
:1053E000C0B203F0A1FA002003F09EFA102003F0EF
:1053F0009BFA002407EBC516305D03F0B7FA641C76
:10540000E4B2802CF8D36D1CEDB2082DE6D3BDE8D4
:10541000F081000020E1FF1F024901200870FFF722
:10542000D9BF00000DE0FF1F7FB519A318CBCDE950
:10543000023419A318CBCDE90034C1F3C703C4B2B9
:10544000174800EBC316305D01F00701002A1AD09F
:1054500002AA555C0543355512480078012816D13B
:10546000B033D8B203F060FA04F00F0003F05CFA36
:10547000102000EB141003F057FA04B02846BDE8E2
:10548000704003F073BA1DF801500540E3E77FBD9B
:105490000102040810204080FEFDFBF7EFDFBF7F14
:1054A00020E1FF1F0DE0FF1F014900200870704739
:1054B0000DE0FF1F50F8213062F30A2340F821303D
:1054C00070470000024801680248FFF7E5BB000092
:1054D00048E0FF1F00C00240024841680248FFF751
:1054E000DBBB000048E0FF1F00D002400B494868CA
:1054F000401C48608868002805D08868401E886085
:1055000001D1012008704878401CC0B248700A28B8
:1055100003D30020487002F065BE704700E0FF1F13
:105520000748016841F47001016006484CF22051BF
:10553000C1814DF62811C1814FF4E9710180704796
:1055400088ED00E000200540BFF34F8F054801685B
:10555000054A01F4E06111430160BFF34F8F00BFC2
:10556000FDE700000CED00E00400FA050FB4084B65
:1055700010B504A902AA039800F01CF8044602A979
:10558000002000F0B8F9204610BC5DF814FB0000C4
:10559000F758000002E008C8121F08C1002AFAD11B
:1055A00070477047002001E001C1121F002AFBD1A3
:1055B000704700002DE9FF4F8BB088460546002656
:1055C00006E025280BD0DDE90D1290476D1C761CF6
:1055D00028780028F5D10FB03046BDE8F08F0024C0
:1055E000A146A2460122AE4900E0044315F8013F5E
:1055F000203B02FA03F00842F7D128782A2810D07D
:105600006FF02F022878A0F13001092915D809EB95
:10561000890102EB410144F0020400EB01096D1C19
:10562000F0E758F8041B5FEA010903D544F400547D
:10563000C9F1000944F002046D1C28782E2817D106
:1056400015F8010F44F004042A280ED06FF02F0241
:105650002878A0F1300109290AD80AEB8A0102EB67
:10566000410100EB010A6D1CF2E758F804AB6D1C18
:1056700028786C280FD006DC4C2817D068280DD06D
:105680006A2814D104E0742810D07A280FD10DE0D4
:1056900044F400140AE044F4801401E044F440149B
:1056A0006978814202D104F580146D1C6D1C287844
:1056B000692865D006DC00288DD0632827D06428AF
:1056C00006D15DE06E2808D073282AD0752877D0DF
:1056D000DDE90D129047761CE0E0C4F30250022889
:1056E00009D003280DD0D8F8001004280DD00E6082
:1056F00008F10408D2E0D8F80010F217C1E90062FE
:10570000F6E7D8F800100E80F2E70E70F0E718F810
:10571000041B8DF8001000208DF80100EB460120DD
:1057200003E058F804BB4FF0FF3061074FF000076B
:1057300001D40AE07F1C57450DDA8742FADB1BF8DB
:1057400007100029F6D106E07F1C8742FCDB1BF81E
:1057500007100029F8D1DDE90D23A9EB07008146E8
:10576000214600F0B1F83044C61904E0DDE90D121D
:105770001BF8010B90477F1EF8D22146484688E06F
:1057800058F8040BC4F302514FF00A0B032900D15F
:1057900000B2042900D140B2002802DA40422D2193
:1057A00002E0210505D52B218DF82410012104E00C
:1057B00006E0E10710D02021F6E708AF089113E0DA
:1057C00058F8040BC4F302514FF00A0B032900D11F
:1057D00080B2042900D1C0B20021EEE75946FEF79D
:1057E000C4FE303107F8011D0028F7D1ADEB0700EA
:1057F00000F1200B600702D524F4803401E04FF063
:10580000010ADA4502DDAAEB0B0000E00020824627
:1058100000EB0B0108980144A9EB01000A90E0039A
:1058200006D4DDE90D2321460A9800F04DF8064420
:105830004FF0000908E009A911F80900DDE90D128F
:10584000904709F10109761C08998945F3DBE003CB
:105850000CD5DDE90D2321460A9800F035F8064401
:1058600004E0DDE90D1230209047761CBAF100010A
:10587000AAF1010AF5DC05E0DDE90D1217F8010BCC
:105880009047761CBBF10001ABF1010BF4DC0A98E8
:105890002146DDE90D2300F005F806446D1C97E66E
:1058A000092801002DE9F041044600251E4617464F
:1058B000880404D405E039462020B0476D1C641EDE
:1058C000F9D52846BDE8F0812DE9F04104460025D0
:1058D0001E469046C80301D5302700E020278804E3
:1058E00004D505E041463846B0476D1C641EF9D525
:1058F0002846BDE8F0810A68531C0B6010707047A1
:1059000001220A21084600F037B8000030B5184CD3
:10591000207800281ED0A288002A1BD0204661785B
:105920004089144D401C80B20023A1B1012911D13E
:10593000608190420ED3E08840B12189491C89B230
:105940002181814200D32370207870B1638163701C
:105950000220686030BD608161888842FAD30220ED
:10596000A86063810120607030BDA38030BD00005D
:1059700058E0FF1F80F00F4000280CD0064B5880E5
:10598000998000205881587001211970DA8018819F
:10599000022002494860704758E0FF1F80F00F4026
:1059A00000280ED0012800D10220012181F31088A7
:1059B000044988600020087080F310880878012866
:1059C000FCD1704700E0FF1F2DE9F041354A00EBA4
:1059D000400102EB810400EB4000217A00250526FE
:1059E000042702EB800808F10A08062957D2DFE8ED
:1059F00001F0030C15283F5120688047002802D091
:105A0000012020726571BDE8F0812068804718B1DF
:105A1000022020726571F6E72572F4E7206880475E
:105A200068B16079401CC0B2607121798842EAD3C4
:105A3000A07910B103202072E5E72672E3E7257212
:105A4000E1E72068804788B16079401CC0B260718E
:105A5000A1798842D7D304F10B0002F069FBE07909
:105A600010B127726571CEE72672CCE72672CAE7BD
:105A70002068804760B16079401CC0B26071E179F4
:105A80008842C0D3404602F053FB27726571BAE7E3
:105A90002672B8E7404602F04BFB2572B3E7257249
:105AA000B1E70000500000200A484FF47A71006806
:105AB000B0FBF1F0401EB0F1807F09D24FF0E02141
:105AC0004861054AF02010700020886107200861B5
:105AD000704700001800002023ED00E010B50446D8
:105AE00000202071401EE062204602F0B7FB08B1A2
:105AF000032010BD94F82E0294F82F1240EA0120E2
:105B0000A0F52A41553901D0022010BD14F8660FC6
:105B1000E178627840EA0161A078663C000440EADE
:105B2000022001430B48B0EB012F01D1002010BD32
:105B300014F8821FE278637841EA0261A2781204C5
:105B400042EA03221143B0EB012F01D1002010BD26
:105B5000012010BD0046415410B50346002000222C
:105B600002E08C5C2044521C9A42FAD310BD00E043
:105B7000401C02780AB18A42FAD10078704730B5E9
:105B80000546EFF3108000F0010472B6284600F0DD
:105B900007F8A968081A401E002C00D162B630BD73
:105BA000EFF3108101F0010372B6D0E900219142B8
:105BB00001D3881A02E080680844801A002B00D1C3
:105BC00062B67047EFF3108303F0010372B6C16051
:105BD0008260002101604160002B00D162B67047F5
:105BE00010B5EFF3108101F0010272B6C3680168CD
:105BF0005B5C491C01608468A14201D30021016003
:105C000002B962B6184610BD10B5EFF3108202F06B
:105C1000010272B64468C36819554168491C416065
:105C20008368994201D300214160002A00D162B605
:105C300010BDF0B507460D4614463846FFF7B0FFD5
:105C4000844200D220460646002404E03846FFF78E
:105C5000C7FF2855641CB442F8D33046F0BDF0B5F8
:105C600007460D4614463846FFF789FF844200D2A6
:105C700020460646002404E0295D3846FFF7C4FFAD
:105C8000641CB442F8D33046F0BD426A121D00686D
:105C9000090B8078B1FBF0F002CA21B1884204D22E
:105CA00011680844704700207047401A121DF3E73E
:105CB000891E4269921E8A4201D800207047826A7A
:105CC000807801FB002070472DE9F05F81460F4688
:105CD000387820F04000401E00EB800101EBC0044A
:105CE00000260125DFF85CA007F101084FF6FF7BD5
:105CF0001AF80600395C10F8080041EA00207DB16E
:105D000001F050FA0546182C07D22046641C39F8D9
:105D1000100001F047FAA84206D00020BDE8F09F2D
:105D2000584501D00020F9E7761C0D2EE0D33878D5
:105D3000400605D525B139F8140008B10020EDE77B
:105D40000120EBE77EAF000030B595B005460F4C63
:105D5000204602F051F9012802D0002015B030BDD4
:105D6000FF22502101A8FEF7D9FB5022294601A8A5
:105D7000FEF7C2FB502201A9204602F05DF901287E
:105D800001D00020EAE70120E8E7000000F0010070
:105D90000020704710B504461C2204492046FEF737
:105DA000ABFB0348641C446010BD000004AA000063
:105DB0002C00002005490A6802604A684260896830
:105DC00081600349401C086070470000F8A900008A
:105DD0002C0000202DE9F04106460F46002F08D088
:105DE0003946304601F0FEFD022809D20120BDE807
:105DF000F081F56815B17069A84207D8012505E062
:105E0000411CF4D071698142F1D83D462C46641C96
:105E10007069A04204D80224022D01D20020E6E7D6
:105E20002146304601F0DEFD38B1411CDFD00128AB
:105E3000DDD0AC42EBD10020D9E76FF070422146B3
:105E4000304602F02FFE28B927B1224639463046A7
:105E500002F028FE20B101280DD001242046C6E71B
:105E6000F4603069411CF9D0401E3061707940F017
:105E700001007071F2E74FF0FF34EFE72DE9F35FB7
:105E80008846D8F8005000E06D1C28782F28FBD0F9
:105E90005C28F9D00098D0F81C90002426463046A3
:105EA000761C285C202808D32F2806D05C2804D034
:105EB000182C09D30620BDE8FC9FA919C8F80010CA
:105EC000202817D204261FE0C0B2012101F050F9AA
:105ED000074647B1802F08D239465EA0FFF747FE3C
:105EE00018B10620E7E70620E5E72046641C29F8FC
:105EF0001070D4E7002607E0601E39F81000202853
:105F000001D02E2802D1641E002CF5D154B10020FE
:105F100029F8140000980B222021806902F07FF9F3
:105F2000002702E00620C6E77F1C39F8170020286A
:105F3000FAD02E28F8D01FB146F0030600E0641E08
:105F400024B1601E39F810002E28F8D14FF0000857
:105F5000C2464FF0080B38467F1C39F8105005B385
:105F6000202D03D02E2D04D1A74202D046F00306E7
:105F7000F1E7DA4501D2A74219D1BBF10B0F0ED0E0
:105F8000A74201D046F003060BD827464FF0080A77
:105F90004FF00B0B4FEA88604FEA1068DBE746F0E2
:105FA0000306009880690178E5292ED02FE0802D26
:105FB0000BD30021284601F0DBF805461DB1284827
:105FC000284410F8805C46F0020625B1294625A039
:105FD000FFF7CDFD18B15F2546F003060EE0A5F1F1
:105FE0004100192802D848F0020807E0A5F1610035
:105FF000192803D848F00108203DADB20098816906
:1060000050460AF1010A0D54A5E705210170BBF1C4
:10601000080F03D14FEA88604FEA1068C8F3810087
:10602000032803D06FEA0801890701D146F0020670
:10603000B10709D408F00301012901D146F0100687
:10604000012801D146F0080600988069C672002038
:1060500031E70000222A3A3C3E3F7C7F00000000EE
:10606000FEAE00002B2C3B3D5B5D000070B505468D
:106070000E460021284600F0D9F988B90024296984
:10608000286802F0EBF858B969690978E5290BD05E
:1060900051B100240121284600F06DF80028EED00F
:1060A000042800D1072070BD641CB442F8D0F1E789
:1060B0002DE9F04704460021204600F0B7F90028FA
:1060C00057D1FF26B1464FF6FF7AA4F820A02169E8
:1060D000206802F0C3F880465FEA080048D167698B
:1060E0003D7865B1F87A00F03F00E52D03D0010757
:1060F00008D50F2806D0FF26A4F820A030E04FF0E6
:10610000040835E00F2801D0CEB11DE0E06938B3B6
:10611000690606D597F80D9025F040052E46E188D2
:106120002184B54208D1797B494505D13946FFF72D
:10613000CBFD08B1761E00E0FF26F6B210E038462F
:1061400003F053F8484513D0A169C87AC00704D1B9
:106150000B22384602F04DF850B1FF26A4F820A0DB
:106160000021204600F007F880465FEA0800AED024
:106170004046BDE8F0872DE9F04104460E46E78829
:106180007F1C3804000C04D0206910B1790603D0BC
:1061900067E00420BDE8F081401C2061E16831B176
:1061A00020688278521E12EAD71F06D059E0206874
:1061B0000089B84255D80420ECE701F013FC0546ED
:1061C000012D01D80220E5E7681C14D02068416940
:1061D000A94240D88EB1E168FFF7FCFD05462800D2
:1061E0000DD0012D0DD0681C0DD0206803F064F88F
:1061F00058B10120CEE70120CCE70420CAE70720F0
:10620000C8E70220C6E70120C4E720684FF48052A7
:106210003030002102F003F829462068FFF748FDDE
:106220002168C86200264FF001080CE080F8048065
:10623000206803F041F808B10120ABE72068C16A8B
:10624000491CC162761C20688178B142EED8216871
:10625000C96A891BC162E56029462068FFF728FDED
:106260002061E78007F07F013022206802EB4111B6
:106270000844606100208DE72DE9F0470546894616
:10628000FF26B046042746E0286801F0E7FF0746EE
:10629000380043D1686904786CB1C17A01F03F01DC
:1062A000E52C06D02E2C04D0082906D000224A4521
:1062B00005D0FF261FE0042730E00122F7E70F2971
:1062C00001D026BB1FE0610606D590F80D8024F0B2
:1062D00040042646E9882984B4420AD1417B4145DD
:1062E00007D1EA690146104602F0A4FB08B1761E08
:1062F00000E0FF26F6B200212846FFF73CFF0746E4
:10630000380008D00AE002F070FF404506D04FF692
:10631000FF70288402E029690029B5D10FB100205F
:1063200028613846BDE8F0872DE9FE430446A76999
:10633000E6690C223946684601F068FF9DF80B00BB
:10634000C00718D00020F872E06101252B463246C4
:106350006946384601F0DAFA2046FFF7A9FE10B97F
:106360006D1C642DF2D3642D0BD004280AD19DF846
:106370000B00F872E6619DF80B0080070ED5002037
:1063800003E00720BDE8FE83401C36F8101000290A
:10639000FAD119300D21B0FBF1F600E001263146AB
:1063A0002046FFF763FE054601271DBB761E21D060
:1063B000E088811B204600F039F80546280019D1F5
:1063C000A06902F012FF80462169206801F046FFB3
:1063D00005467DB9F2B243466169E06901F004F90E
:1063E0002068077100212046FFF7C5FE05460DB95C
:1063F000761EE9D1C5B92169206801F02FFF054655
:10640000280011D120220021606901F008FFD4E9A1
:1064100005010B2201F0FAFEA0696169C07A00F063
:1064200018000873206807712846ABE770B504466A
:106430000D46E580A368012B03D02068416999428D
:1064400001D8022070BD1BB90178032900D1436A2D
:1064500013B18078C60118E00189A94201D8022051
:1064600070BD406A17E01946206801F0BBFA034688
:10647000581C07D0022B03D320684069984203D8E8
:10648000022070BD012070BDAD1BB542EBD2194694
:106490002068FFF70DFCE36060B100EBD5102061D0
:1064A00005F07F013022206802EB41110844606151
:1064B000002070BD022070BD10B5002801D0012061
:1064C00010BD02F045FD012801D0012010BD0020C3
:1064D00010BD002801D004207047012904D00229F2
:1064E00006D003290AD107E04FF4C060106005E030
:1064F0004FF48050108001E00120106000207047B0
:1065000010B5002801D0042010BD02F500721B0355
:1065100010031A4602F000FE002010BD002801D032
:10652000012070470020704770B50D461E460028B8
:1065300001D0042070BD02F50072100304464FF430
:10654000805102F07FFC32032046294602F014FEFF
:10655000002070BD10B50446204600F0CCFD002898
:1065600006D1204603F016F9002801D10021216050
:1065700010BD10B50446204603F00CF9002801D1E7
:106580000021216010BD2DE9F74F8B4614460022F3
:106590006946204600F0A0FE804626685FEA0800B3
:1065A0005DD1D6E90409A9F10201884202D8CBF8ED
:1065B000000054E096F800A00025BAF1010F04D0C5
:1065C000376A00200024B8B123E002242146304677
:1065D00001F008FA411C03D0012804D030B106E0D4
:1065E0004FF0010834E04FF0020831E06D1C706993
:1065F000641C8442EAD32BE039467F1C304601F00C
:106600002DFE80465FEA080022D106F130044FF4E7
:106610008050BAF1020F0CD02178E278637841EA19
:106620000261A278120442EA03221143090109D04F
:1066300009E02178627851EA022100D16D1CA41C86
:10664000801E02E06D1C241D001FB9F10109BAD1A2
:106650003561707940F001007071CBF80050404610
:10666000BDE8FE8F2DE9F05F04460D46204603F09D
:1066700091F882465FEA0A0001D0BDE8F09FE07918
:106680000028FAD1676A002F55D0681C20D0E06836
:10669000A84200D20546A560002D18D0691E2046EC
:1066A000FFF7F3FA6061226801461046FFF700FB2E
:1066B000B8B321688978491E6D1E01EA1531084476
:1066C0002189090503D0A169814200D0A061A1E020
:1066D00057F804BB02262169E1B189460025B61CA2
:1066E00088466D1C206801F07DF90146012902D819
:1066F0000220E071C1E7481C14D008F101084145AF
:10670000EED05E4502D820C747F8049B2068406958
:106710008842E2D8606A06605E4506D8002038608C
:1067200078E005E00120E071A7E74FF0110A71E081
:106730000220E071A1E7E068A84203D2A1798907AD
:1067400000D40546A0680027A760FDB122689178B3
:106750000E0368B1691E401EB1FBF6F1B0FBF6F303
:10676000994205D3711E8843A0602D1A61690CE01F
:10677000216949B900211046FFF72CFB0146012988
:1067800005D0481C06D02161616139BB33E002208D
:10679000E07172E70120E0716FE7A079800706D50C
:1067A0002068FFF717FB014629B9354618E0206835
:1067B00001F018F90146481C08D0012903D92068C6
:1067C0004069884205D80220E07156E70120E07157
:1067D00053E76161A0683044A060AD1BB542DCD8CE
:1067E000A0682844A060280505D02068FFF760FA5B
:1067F00090B100EB1537A068010503D0A169B9423B
:1068000000D0A761E168884204D9E060A07940F037
:106810002000A071504630E70220E0712DE7000013
:106820002DE9F74F88B0154608A801F0B0F9002807
:1068300003DA0B200BB0BDE8F08F0999012901D9CB
:106840001320F7E7691E0D4201D01320F2E7F84943
:1068500051F8204054B100212170C0B20490049836
:10686000FFF72AFEC10703D00320E3E70C20E1E78E
:10687000400701D50A20DDE76A4601210498FFF7A9
:1068800028FE10B90098802801D20120D2E709998A
:1068900011B14FF0000801E04FF03F08A0EB0801F4
:1068A000009175B9FA20B1FBF0F20020E14B00E055
:1068B000401C33F810509542FAD8DE4A163232F8AE
:1068C00010504FEA1539B9F1000F01D14FF001090D
:1068D000B9F1800F01D94FF08009B1FBF9F0012621
:1068E00040F6F672904200D302264FF6F6729042BE
:1068F00000D30326032E17D0012E1ED04000001D0A
:1069000000F6FF70070B01254FF0040A08EB050B9A
:106910000BEB07005044019001984844A0EB08009D
:10692000884210D90E2085E741F2070202EB800071
:10693000070B20254FF0000AE8E700EB4000401C61
:106940004008C01CDCE702AA03210498FFF7C1FD40
:1069500020B9029810B1B0F5004F01D90120029082
:10696000DDE901100144491E401E81430198081AC7
:106970000290032E0BD007440098411BC91BA1EBCA
:106980000A01B1FBF9F10391022E03D007E005449F
:106990008344F1E7039940F6F672914206D3032E41
:1069A00006D103994FF6F672914201D20E2041E7CB
:1069B000032E02D0012E03D008E00C2005900CE03D
:1069C000B0F5803F02D20120059006E0B0F5803F8F
:1069D00001D2042000E006200590099810B1F020B3
:1069E00006903CE004F130004FF480520021079003
:1069F00001F015FC04F5F77001214170817000224F
:106A0000C27005990171FE214171009943F6C1637D
:106A10004144B1FBF3F102913F2343EA910C80F82A
:106A200006C0C171037242728272C2720099017310
:106A30000A0A42730A0C8273090EC173552084F846
:106A40002E02AA2084F82F0201230022079904981D
:106A5000FFF76AFD08B10120ECE6F820069030341B
:106A60004FF480520021204601F0D9FB0B2272A185
:106A7000204601F0CBFB0021E1721020207384F846
:106A80000D90A573280AE07301202074032E0BD00B
:106A900040026074000AA0740098B0F5803F05D2EF
:106AA000E074000A20750AE00020F2E704F8200FE5
:106AB000020A6270020CA270000EE070203C069880
:106AC00060753F20207600206076FF21A176E07679
:106AD00084F81C804FEA182060774FEA1840A077AE
:106AE0004FEA1860E07700F0E3FF0290802129224E
:106AF000032E22D016346074030AA374030CE374CB
:106B0000000E20752770380A6070A1732274163C3D
:106B100013224CA104F12B0001F078FB552084F8DE
:106B2000FE01AA2084F8FF01012342462146049871
:106B3000FFF7FAFC48B301207CE62434E077030A2F
:106B400084F82030030C84F82130000E84F82200F1
:106B50002770380A6070380CA070380EE070022080
:106B6000207200206072A072E072012323736073B0
:106B70000623A373E0732177A277243C132236A166
:106B800004F1470001F042FBC8E7032E06D10123C0
:106B900008F1060221460498FFF7C6FC5D464FF057
:106BA000000B4FF480520021204601F038FB06987C
:106BB0000290032E12D0012E0ED06FF0FF01014380
:106BC000029121700298000A60700298000CA07077
:106BD0000298000EE07018E02449F0E760F0FF0032
:106BE000029020700298000A60700298000CA07059
:106BF0000298000EE070FF2020716071A071E071BA
:106C000020726072A0720F20E0722A466D1C012370
:106C100021460498FFF788FC08B101200AE64FF4EA
:106C200080520021204601F0FAFA012002902CE067
:106C300054E0FF1F8CAF0000EBFE904D53444F53C8
:106C4000352E30004E4F204E414D4520202020460D
:106C500041542020202020004E4F204E414D452001
:106C600020202046415433322020200000FFFF0026
:106C70002A466D1C012321460498FFF755FC08B1F4
:106C80000120D7E50298401C02900298B842EFD349
:106C90000BF1010BBBF1000F83D0032E00D0D146C6
:106CA0002A466D1C012321460498FFF73DFC08B1DC
:106CB0000120BFE5B9F10109F2D1032E3AD15220EA
:106CC000207060706120A0704121E170722284F810
:106CD000E42184F8E52184F8E61184F8E7010398BB
:106CE000401E84F8E801010A84F8E911010C84F8D7
:106CF000EA11000E84F8EB01022084F8EC01002078
:106D000084F8ED0184F8EE0184F8EF01552084F851
:106D1000FE01AA2084F8FF01012308F101022146A7
:106D20000498FFF701FC012308F1070221460498AB
:106D3000FFF7FAFB002211460498FFF7CAFB08B1DF
:106D4000012077E5002075E517B581B0144602985B
:106D50000090684600F01BFF002802DA0B2004B008
:106D600010BD0B4B53F82010002201B10A7001999D
:106D7000002900D00A7043F8201001D0012C01D066
:106D80000020ECE7002202A901A800F0A5FAE6E73E
:106D900054E0FF1F2DE9F74799B00646002E0FD0AB
:106DA0004FF00008C6F8008002F01F0727F001022C
:106DB0001AA910A800F090FA0546280004D093E024
:106DC00009201CB0BDE8F0870DA81690CDF85CD066
:106DD00010A81A9900F064FD0546159C0DB904B978
:106DE000062517F01C0F4DD04DB1042D03D110A86E
:106DF000FFF79AFA054647F00807159C08E0E07A85
:106E000010F0110F01D0072502E0780700D5082502
:106E1000BDBB380741D500F04BFEA073010AE173FA
:106E2000010C2174000E607484F80B8084F81C80BF
:106E300084F81D8084F81E8084F81F8021461098F5
:106E400001F080F981460021204602F0C6F9109930
:106E500001200871B9F1000F1FD01098D0F82CA0B4
:106E60004946109801F099FE0546280015D1109862
:106E7000A9F10109C0F80C905146109801F0EEF903
:106E800005460AE04DB9E07AC10601D5042504E0C3
:106E9000B90702D5C00700D007253DB9380701D58D
:106EA00047F020071098C06AF0613462E5B9B77105
:106EB00086F807802146109801F044F93061207F60
:106EC000E17F627F40EA0160A17F090441EA02217B
:106ED0000843F060C6F80880C6F81880C6F8248019
:106EE00010983060C088B08028466AE733B591B00A
:106EF0000546002D07D0002212A910A800F0ECF9D9
:106F000004461CB125E0092013B030BD109828605C
:106F10000DA8A861C5F81CD02846129900F0C0FC45
:106F200004469CB9696941B1C87AC00604D5109875
:106F300001F008F9A86000E005243CB91098C08869
:106F4000A88000212846FFF771FA0446042C00D1DE
:106F500005240CB1002028602046D5E72DE9F05F1C
:106F600004460F46164698460020C8F80000204602
:106F700002F010FC00280FD1E07900280CD1A07994
:106F8000C00708D0D4E90210401A864200D906464C
:106F90004FF001097EE00720BDE8F09FA1680805D9
:106FA00053D120688278521E02EA113202F0FF0AA1
:106FB000BAF1000F13D129B1626A2AB12046FEF757
:106FC00064FE04E0206902E0616900F00BFD022824
:106FD00002D20220E071DFE7411C1CD060616169D0
:106FE0002068FEF765FED0B100EB0A0B350B55B3F8
:106FF00020680AEB050281788A4201D9A1EB0A05D3
:10700000EBB240785A463946FFF77AFA50B184F825
:1070100007900120C0E784F807900120BCE7022018
:10702000E071B9E72168087958B1C86AA0EB0B0094
:10703000A84206D2303107EB00304FF4805201F005
:10704000E5F82D031CE0C4F818B02089C0F30B004C
:10705000C0F58055B54200D93546A169206801F0D8
:10706000FDF818B184F80790012095E72089216880
:10707000C0F30B00303001442A46384601F0C6F810
:107080002F44A0682844A060D8F800002844C8F81D
:107090000000761B002E81D100207DE770B590B0F6
:1070A00004460E46204602F075FB002810D15EB162
:1070B0000DA8A061C4F81CD000212046FFF7DCF821
:1070C0000025042806D007E000212046FFF7AEF98E
:1070D00010B070BD256100200028F9D1314620464E
:1070E00000F0EAFC00212046FFF745F80428EFD124
:1070F00025610020ECE770B50446204602F04AFB0B
:10710000002834D1A179890631D5E169206801F0E0
:10711000A5F800282BD1256AE87A40F02000E87213
:10712000207B2877A089000A6877E068000CA877A0
:10713000E068000EE8772846216902F04EF800F07A
:10714000B7FCA875010AE975010C2976000E68766E
:107150000020A874E874A07920F02000A0712168B4
:10716000012008712068BDE8704002F04BB870BD86
:10717000802804D30A4A39B1FF2801D9002070477A
:10718000803832F810007047002132F81130834205
:1071900003D0491C89B28029F7D38031C8B2704727
:1071A0003EAA00000021084B00E0491C33F81120E2
:1071B0000AB18242F9D133F81120002A02D00348E3
:1071C00030F81100704700003EAB00001EAD00001B
:1071D00010B592B01A4807901920089019A109A873
:1071E000FFF784FE28B11848FFF7B4F9002012B069
:1071F00010BD01A909A8FFF751FF48B99DF80D007E
:1072000030B12E28F5D00798007830B1079906E004
:1072100009A8FFF7AEF90120E9E70DF10D019DF88E
:107220000C00C006E5D4084C10223834207804EB5A
:107230000010801CFDF760F92078401C2070D8E712
:10724000800000202F000000F41000201CB5012257
:107250000FA11048FFF778FD98B101F0E1FD002281
:1072600011460BA0FFF7DCFA08B100201CBD00227C
:1072700007A11046FFF768FD012205A10548FFF7A9
:1072800063FD01AA694602A0FFF77DF901201CBD3C
:10729000303A0000C400002038B50D4614460146BF
:1072A0000C48FFF7DFF920B10A48FFF753F9002037
:1072B00038BD6B46224629460648FFF74FFE009828
:1072C000844204D00348FFF745F9002038BD01206F
:1072D00038BD0000F41000202DE9FF478046084625
:1072E00016460027C8F8007000F051FC054628003B
:1072F00003D50B2004B0BDE8F087B84850F825400E
:107300008CB1C8F80040207820B16078FFF706F90A
:10731000C1070AD02770E8B26070FFF7CDF8C10747
:107320000AD00320E6E70C20E4E71EB1400701D5B0
:107330000A20DFE70020DDE71EB1400701D50A2063
:10734000D8E7002529462046FEF7C8FB012826D1AC
:107350000021E84604EB011000F5F770027952B104
:10736000027AC37A42EA0362837A407A1B0443EAD0
:107370000020024300E0002248F82120491C042993
:10738000E8D3002658F8265025B129462046FEF7B6
:10739000A5FB00E0022010B1761C042EF2D30328D6
:1073A00002D018B10D20A5E70120A3E794F83B0017
:1073B00094F83C1040EA0120B0F5805F01D00D2028
:1073C00098E794F8460094F8471040EA012058B92D
:1073D00014F8540FE178627840EA0160A17809045A
:1073E000543C41EA02210843A06194F8409084F89B
:1073F0000390B9F1010F04D0B9F1020F01D00D20B3
:1074000078E709FB00F994F83D20A27012B1511EF3
:107410000A4201D00D206DE794F8411094F84230F3
:1074200041EA03232381590601D00D2062E794F835
:10743000431094F8446041EA062161B914F8501FE2
:10744000E67894F801C041EA0661A6783604503C1B
:1074500046EA0C26314394F83E6094F83FC046EA71
:107460000C28B8F1000F07D008EB090606EBD31C77
:10747000614503D20D203DE70D203BE7A1EB0C0158
:10748000B1FBF2F139B3012640F6F672914200D316
:1074900002264FF6F672914200D30326891C6161E1
:1074A000E56105EB08022262AC44C4F828C0032E53
:1074B00013D033B34A446262022E24D001F0010299
:1074C00001EB410102EB510101F6FF71B0EB113FFD
:1074D0001BD20D200EE70D200CE70BB10D2009E7A4
:1074E00094F85C2094F85F3094F85DC042EA03623F
:1074F00094F85E301B0443EA0C231A43626289004D
:10750000E2E70D20F6E64900DEE74FF0FF302061AC
:10751000E06080206071032E57D194F8600094F8E9
:10752000611040EA012001284FD1691C204600F07B
:1075300095FEE0BB677194F82E0294F82F1240EA92
:107540000120A0F52A4155393FD114F8300FE178D8
:10755000627840EA0160A178303C090441EA0221E6
:1075600008431F49884230D194F8140294F8171246
:1075700094F8152240EA016094F81612090441EAD1
:1075800002210843174988421FD194F8180294F841
:107590001B1294F8192240EA016094F81A120904A7
:1075A00041EA02210843206194F81C0200E00CE04B
:1075B00094F81F1294F81D2240EA016094F81E12FC
:1075C000090441EA02210843E06026700349091FCB
:1075D0000888401C0880E08000208BE654E0FF1FF4
:1075E00052526141727241612DE9F0434B730F2396
:1075F000CB7200230B738B76CB76531E03EB830485
:1076000004EBC30500231C46114E01F1010C4FF69B
:10761000FF77BB4203D02B466D1C30F8133016F8B1
:10762000048001F8083016F804904FEA132809F88E
:107630000C8003B93B46641C0D2CEAD3BB4202D03C
:1076400030F8150008B942F040020A70BDE8F08336
:107650007EAF00000121AFF3008010B50C4600F0B2
:107660000BF8002807D1012C05D100F0FDF8BDE88A
:10767000104000F007B910BD002806D0C06910B155
:107680000068022803D06D20704704207047002056
:10769000704710B5002806D05B1E194201D11A426E
:1076A00003D0652010BD042010BD03688B4206D8AE
:1076B000406811441844884201D3002010BD662060
:1076C00010BD00000349884201D06B2070470020A4
:1076D000704700006B66656B10B50D4C7021217012
:1076E000FFF7CAFF002807D10A49204609688847E2
:1076F0002078810601D5672010BDC10601D568201C
:1077000010BDC00701D0692010BD002010BD0000D1
:10771000000002402C00002070B505460E461446BD
:10772000002D17D0B4B120212046FCF7FEFE2868BA
:10773000301A2060E8686060297A6868B0FBF1F070
:10774000A0600420E060082121616161A061E06126
:10775000002070BD042070BD4FF6FF710F4A5063CA
:1077600002E0491E481C07D0D06A0028F9DAD06A26
:1077700040F00040D06204E003207047491E481CDE
:1077800009D0D06A8003F9D5906BC0B2D16A41F4B8
:107790000031D162704703207047000000D00240E2
:1077A00010B5A02000F056FB012803D000F086FBA6
:1077B000002010BD012010BD10B501F02BFCFFF71B
:1077C000EFFF012801D0002010BD012010BD2DE9E0
:1077D000F04105460E46904600F05AFB0E2707EA98
:1077E000D51040F0A00000F0B1FB00F083FB0128B1
:1077F00035D1E8B200F0AAFB00F07CFB01282ED1C5
:1078000000240AE0305D00F0A1FB00F073FB0128CA
:1078100025D16D1CADB2641CA4B24445F2D300F076
:107820004DFB002407EAD51040F0A0054FF4FA768E
:1078300000F02EFB284600F089FB00F05BFB0128DE
:1078400006D0304600F014FB641CA4B20A2CEFD31F
:107850000A2C04D200F032FB0120BDE8F08100F0D8
:107860002DFB0020F9E7000030B40448044C0F233E
:10787000142264681905A44630BC604704F0014036
:107880002C00002030B40448044C01231322646807
:10789000D904A44630BC604704F001402C0000200D
:1078A00073B50446019908782F2801D05C2801D1CE
:1078B000491C01910025A56001980078202805D277
:1078C00000212046FEF7B2FD65617CBD01A920467E
:1078D000FEF7D4FA0028F8D12046FEF7E9FBA169AB
:1078E000C97A28B10428F0D14907EED405207CBD1F
:1078F0004907FCD46169C87AC00601D405207CBD63
:10790000206800F01FFCA060E0E700007CB50546A1
:1079100016461C460B22284600F078FC052C11D98F
:107920001B480CE0B61C002322460C4662F35F04A1
:107930004908E20300D544405B1C102BF4D3318886
:107940000029EFD107216B4604F00F023032392AAB
:1079500001D9D21DD2B20846491E1A542409002C5E
:10796000F2D17E205854002200E0521C8A4202D2FA
:10797000A85C2028F9D1082903D20846491C185CC4
:1079800000E020201446521C2855082AF3D37CBD61
:107990002110010030B5A1B0114D00202870FFF773
:1079A00017FC012802D00E2021B030BD00F048FDA8
:1079B00000240EE00A4805EB0411891C102210383F
:1079C000FCF79AFD802201A9104600F019FD641C05
:1079D000E4B22878A042EDD800F024FD0020E3E7CF
:1079E0002C1100202DE9F04104460D46022D02D352
:1079F0006069A84202D80120BDE8F0812078012802
:107A000007D040F6FF76022827D0032835D0012082
:107A1000F2E705EB5506206A00EB1631204600F030
:107A20001DFC88BBC6F30B00204490F83070761C18
:107A3000206A00EB1631204600F010FC20BBC6F394
:107A40000B00204490F8300047EA0020E90701D0FD
:107A50000009D1E7C0F30B00CEE7206A00EBD52187
:107A6000204600F0FBFB78B906EA450020443030A0
:107A70000178407841EA0020BEE7206A00EB9521BA
:107A8000204600F0EBFB10B14FF0FF30B4E706EA00
:107A90008500204430300178C27841EA0261827862
:107AA0004078120442EA0020014321F07040A3E72D
:107AB00000487047000021422DE9F0410E4606F1D2
:107AC00009040169002937D04369002529466D1C46
:107AD0005A5C202A17D0052A00D1E522092D02D1AF
:107AE0002E2104F8011BA2F14101192909D81F7B9D
:107AF000092D01D3102100E008210F4201D02032CE
:107B0000D2B204F8012B0B2DE0D3D97A3172197F50
:107B1000DA7F5D7F41EA02619A7F120442EA052220
:107B200011433160197E5A7E41EA0221B180997D6C
:107B3000DA7D41EA0221F18000272770D6F818800B
:107B4000B8F1000F21D000250169E1B1F169D1B18F
:107B5000018CA1F57F42FF3A15D0C4690FE00021E6
:107B6000FFF706FB28B1F169491EA94203D8002599
:107B700009E0002507E029466D1C08F8010034F8EB
:107B8000020B0028EBD108F80570BDE8F08110B5B4
:107B900004464FF0FF302368002B0BD0194600E05D
:107BA000491C0A78202A01D33A2AF9D10A783A2ABC
:107BB00001D0002010BD13F8012B303A0A2AF9D267
:107BC0008B42F7D1002AF5D11046491C216010BD27
:107BD00010B50B460449102201EB0011891C184610
:107BE000FCF78AFC002010BD2C1100200249097806
:107BF00001700020704700002C11002030B5A1B0AA
:107C00008468456800681149884202D0862021B006
:107C100030BD802C01D08620F9E700F011FC22460F
:107C200001A9284600F0ECFB0028F0D100F0FAFB97
:107C30008021042000F0BCFE802301AA0021042042
:107C400000F0D7FE0028E2D1E1E70000014C464FEA
:107C500070B519A61A48FFF7C9FF0024184D08E0AF
:107C600004EB04104119491C2046FFF7B1FF641CC6
:107C7000E4B22878A042F3D83046FCF761FC024613
:107C80002878314600EB00102844401CFCF734FCF7
:107C90002878401CC0B228700A49032802D3032266
:107CA0000A7000E00870002210B10120487000E066
:107CB0004A708A70CA7070BD45584954000000006F
:107CC00020E5FF1F11E0FF1F07281ED2DFE800F0AC
:107CD00004070E0B121519000020086013E04FF482
:107CE000F81008600FE00A4808600CE04FF4FF103D
:107CF000086008E00748086005E04FF4801008605D
:107D000001E005480860002070471320704700001C
:107D100000D01F0000F01F0000F01E0070B5464CA0
:107D200054F8440C20F0100044F8440C4349A015CA
:107D3000086154F8041C21F4003144F8041C404943
:107D40004864C864800244F8100C44F8040C001223
:107D50002063E063384D012228350A212846FDF7CB
:107D6000D9FAE06B40F48060E063E06F20F002003D
:107D7000E067314E0122683611463046FDF7CAFAF7
:107D8000E06F40F00200E067012200213046FDF77D
:107D9000C1FAE06F40F00100E067583C0122052184
:107DA0002046FDF7B7FA183454F8040C40F02000D0
:107DB00044F8040C204E0122183E03213046FDF702
:107DC000A9FAE06B40F00800E0630122022130468E
:107DD000FDF7A0FAE06B40F00400E063002201210F
:107DE0002846FDF797FAE06F40F00200E0670122B5
:107DF00012213046FDF78EFAE06B40F48020E063FC
:107E0000012213213046FDF785FAE06B40F4002093
:107E1000E063012202212846FDF77CFAE06F40F082
:107E20000400E067012203212846FDF773FAE06FA2
:107E300040F00800E06770BD58F00F40009004402B
:107E400000A004400248006940F30010401C704745
:107E500000F00F4010B5044600F01AF8204600F07C
:107E600075F800F047F8044600F028F8204610BDE9
:107E70000549064A0968B1FBF2F1C91C890841436A
:107E8000491EFDD1704700001800002040420F003D
:107E900010B50220084C60600120FFF7E9FF0120C7
:107EA00060600420FFF7E4FF0220A0600420FFF7D9
:107EB000DFFF0120A06010BD40F00F4010B5012091
:107EC000084CA060FFF7D4FF0220A0600420FFF759
:107ED000CFFF0120606002206060BDE810400420F8
:107EE000FFF7C6BF40F00F4010B5FFF7E7FF0020D7
:107EF00010BD000070B54FF480540220124D686030
:107F00000120FFF7B5FF01206860FFF7B1FF0E48C1
:107F10004038416D21F00201416502E0641E611CA0
:107F20000ED0016DC1F340010029F7D1416D41F040
:107F3000020141650120A860FFF79AFF012070BD92
:107F4000BDE87040FFF7D0BF40F00F4070B5054668
:107F500000240D4E280602D50220706001E00220A8
:107F6000B0600120FFF784FF01207060FFF780FF01
:107F70000120B060FFF77CFF6806050E641CE4B2C8
:107F8000082CE7D370BD000040F00F4010B5EFF3B0
:107F9000108000F0010472B60C484CF22051C181EF
:107FA0004DF62811C181018821F0010101803421A1
:107FB0000748FCF7BAFA0648FDF778F808B1002040
:107FC00010BD04B962B6012010BD000000200540BC
:107FD000C4E0FF1F70B505460E46002408E02819CE
:107FE00000F00AF8012801D0002070BD04F50064FB
:107FF000B442F4D3012070BD70B50546EFF3108094
:1080000000F0010472B60A4E0A4B29463046F26867
:10801000FDF704F828B9002329463046F268FDF739
:10802000E3F804B962B608B1002070BD012070BD4C
:10803000C4E0FF1F6B66656BF0B5ADF20C4D0546F5
:108040000E4617464FF4806103A8FCF76EFAA807A6
:1080500003D000200DF20C4DF0BD3A46314603A886
:10806000FCF74AFAEFF3108000F0010472B63B46C9
:1080700003AA29460A48FDF767F850B900200121F4
:10808000CDE90010029033463A4629460448FDF7F0
:10809000F3F804B962B608B10020DBE70120D9E7A4
:1080A000C4E0FF1F7FB505460E4C2046FFF7A4FF36
:1080B000012802D0002004B070BDFF2210216846C4
:1080C000FCF72CFA102229466846FCF715FA102214
:1080D00069462046FFF7B0FF012801D00020EAE7FB
:1080E0000120E8E700F8010002490A22A1F110008E
:1080F000FDF768BD4400002010B5FDF74BF9BDE861
:108100001040FFF7F1BF000010B501460122024800
:10811000FDF78FFDC0B210BD3400002010B5002463
:108120002046FDF751FC641CE4B2002CF8D010BDD1
:1081300010B5014601220248FDF791FDC0B210BD05
:10814000340000200246887ECB7E40EA032012786D
:10815000032A05D10A7D497D42EA012140EA014016
:10816000704700001CB51D494FF480400860FCF7C3
:1081700059FAFCF723FAFCF753FA00F0A7FDFFF7D2
:10818000CDFD00F069FBFFF7B7FFFFF715FB00F02F
:10819000B3FF00F000F900F051F8FDF785FC08206E
:1081A0000F49486020200E49403988600224032589
:1081B00001A8FFF7A9FF70B19DF80400012802D0C3
:1081C000032805D101E0009402E0FDF799FB00953A
:1081D000684600F06FF800F02BF8E9E708ED00E0E2
:1081E00040F00F4010B5FFF799FFBDE81040FDF7D4
:1081F0008DBB10B50023521E541C05D010F8013B56
:1082000011F8014B1B1BF6D0184610BD03E011F806
:10821000013B00F8013B521E531CF8D17047C9B214
:1082200001E000F8011B521E531CFAD170470000F8
:10823000014880680068004710E0FF1F10B506493C
:10824000A1F10C00816001210170FFF701FDBDE883
:10825000104000F01DB800001CE0FF1F70B5044680
:108260000D46E06AA84210D0204601F025F808B17A
:10827000012070BD607801232A4604F13001FEF729
:108280003FF908B1012070BDE562002070BD00001B
:1082900002490A22A1F11000FDF794BC60120020EF
:1082A00010B5014601220248FDF7C3FCC0B210BD63
:1082B0005012002010B5014601220248FDF7CFFC04
:1082C000C0B210BD501200201CB50A4601218DF825
:1082D0000010ADF802100021ADF80410ADF8061042
:1082E00001466B46002000F02BFA1CBD1CB50A4667
:1082F00001218DF800100023ADF80230ADF8041014
:10830000ADF8063001466B46002000F019FA1CBD9E
:1083100030B585B014216846FCF707F90024124DEA
:108320001CE0E8781149204400EB00104218521C70
:108330000FA16846FDF71AF9A878A04206D1601C83
:108340000007000E6946FFF7D1FF05E0601C00073B
:10835000000E6946FFF7B8FF641CE4B22878A0421B
:10836000DFD805B030BD000011E0FF1F20E5FF1F82
:10837000252D31367300000010B50C4600F016F8BC
:1083800000F05EF880222146002000F039F8BDE8B8
:10839000104000F047B810B5FEF758FF012801D093
:1083A0000C2010BDBDE81040FFF7F4BA10B501462F
:1083B00010221248FCF7A0F81048103000780A2864
:1083C00001D3852010BD0D490422A1F12800FEF73C
:1083D000E1FC082806D058B108482838FEF7BAF85A
:1083E0000D2010BD05482838FEF7B4F8842010BDD4
:1083F00002482838FEF7AEF8002010BD1C110020FE
:1084000010B5074B1B78022B01D00F2010BDFEF7D3
:1084100043FF012801D00F2010BD002010BD000037
:108420000CE0FF1F10B50449002008700348FEF758
:1084300091F8002010BD00000CE0FF1FF410002098
:1084400010B50B480178002901D00F2010BD022182
:10845000017008490122A1F12800FEF79BFC28B118
:1084600004482838FEF776F80F2010BD002010BD14
:108470000CE0FF1F1C11002010B5A0B00446694697
:108480002046FFF779FF21490098884202D08620D4
:1084900020B010BD0198801F022801D38620F7E785
:1084A00069467C20FDF758FB1F99814201D0862048
:1084B000EEE702A8FFF7A2FB0028E9D106A801F029
:1084C000CBF80028E4D10AA801F096F80028DFD103
:1084D0000EA800F0C7FF0028DAD112A801F068F852
:1084E0000028D5D116A801F003F90028D0D11E9894
:1084F000012804D11AA801F009F80028C8D11021D8
:10850000204600F0A7FB0020C2E70000004C464FC9
:108510002DE9F04387B0002506950FF23818059530
:108520004EA0D0E900128068CDE902120490012625
:108530008DF80060ADF80260ADF804504A4FDFF8E6
:108540002C917C1C387801282FD1002000F0CEF827
:108550008DF80060ADF80260ADF8045000216B4664
:1085600002AA084600F0ECF86B4641A20021402028
:1085700000F0E6F899F800203FA1521E05A8FCF78C
:10858000F5FF6B4605AA0021602000F0D9F862785B
:1085900039A105A8FCF7EAFF6B4605AA002148208F
:1085A00000F0CEF83D70FFF7B3FE06A8FFF778FEA7
:1085B0009DF81800002815D0022816D0032811D1E4
:1085C000294914310E716078401E00EB00104844B8
:1085D000401C08604146FBF7BAFFA8B3B868406882
:1085E000B8603E7007B0BDE8F083607899F800107D
:1085F000884206D309B1667000E06570A570E57029
:108600000CE0A278022A04D0401C6070521CA270B8
:1086100004E0E278521CE270401C607062788A428A
:1086200005D1521E14A105A8FCF7A0FF03E012A17A
:1086300005A8FCF79BFF6B4605AA0021482000F027
:108640007FF8FFF765FECDE7FFE70D4800F0DAFAA7
:10865000FCF77AFF4558495400000000D1A1D4F13D
:10866000B7BDB0B80000000010E0FF1F20E5FF1FFD
:108670002830302F202029002530326400000000EF
:108680004B4E494C2DE9F041884616461F46154C85
:10869000154D217800290DD100F038FED5E90101F2
:1086A000FFF798FCC0B2012802D00020BDE8F0819D
:1086B00001202070207898B16A6802EB080082429D
:1086C00003D8A9681144814201D20020EEE73A465E
:1086D0003146FFF7B1FCC0B2012801D00020E5E728
:1086E0000120E3E7000000200CE1FF1F30B400226E
:1086F0000A4C002104EBC2135854491CC9B280290A
:10870000FAD3521CD2B2082AF3D3054800780128C4
:1087100002D130BCFCF75EBE30BC704720E1FF1FC9
:108720000DE0FF1F05494FF47A720968B1FBF2F1C1
:10873000C91C89084143491EFDD17047180000201B
:108740002DE9FF4F97B090469946FCF7ADFE1020FB
:1087500004908246202003903D4801903D4F6EE0FA
:10876000802A0BD203980199400802FB00110246AF
:1087700005A8FBF7C1FE4FEA5A0624E018F8014F9E
:10878000002C60D00021039DAD1C01FB05F0491CAD
:10879000C9B23B5C93420AD13E187678A64206D114
:1087A000801C391805A8039AFBF7A6FE0AE0FF2BE8
:1087B000EBD138444078FF28E7D1FF2205A8039980
:1087C000FBF7ACFE56461898029000252BE0DDF82A
:1087D0005CB000241FE07000B0FBFAF005A968430C
:1087E00001EBD40104F00702405C8021D140084233
:1087F00006D099F8022058460299FCF715FE05E0CC
:1088000099F8042058460299FCF70EFE0BF1010B73
:108810001FFA8BFB641CB442DDD30298401C80B26B
:1088200002906D1CEDB204988542D0D31798B9F828
:1088300006103044084480B2179008F1010898F8F7
:108840000020002A8CD1FCF7E7FD1BB0BDE8F08FBB
:10885000009900003298000070B54FF48025314C2B
:1088600065606420FFF75EFFA5606420FFF75AFF94
:108870006560AE2000F058F8002000F055F8102098
:1088800000F052F8402000F04FF8812000F04CF842
:10889000CF2000F049F8A12000F046F8C82000F0F1
:1088A00043F8A62000F040F8A82000F03DF83F2053
:1088B00000F03AF8D32000F037F8002000F034F848
:1088C000D52000F031F8802000F02EF8D92000F0FB
:1088D0002BF8F12000F028F8DA2000F025F812201B
:1088E00000F022F8DB2000F01FF8402000F01CF818
:1088F000202000F019F8022000F016F88D2000F07A
:1089000013F8142000F010F8A42000F00DF8A620B1
:1089100000F00AF8AF2000F007F8BDE87040002032
:10892000FFF7E4BE40F00F4030B54FF400240E4D89
:10893000AC6004210C4B40339960082199600421FC
:1089400059600021020602D508225A6001E008227F
:108950009A6004229A604006000E5A60491CC9B20F
:108960000829EFD36C6030BD40F00F4030B54FF4B4
:1089700000240E4DAC6004210C4B4033996008215B
:108980005960042159600021020602D508225A606C
:1089900001E008229A6004229A604006000E5A60A4
:1089A000491CC9B20829EFD36C6030BD40F00F40BC
:1089B00038B50C466946FFF787F900280BD1B4F5A6
:1089C000804F09D204F6FF74210B0903009800F0D0
:1089D00039FA60B1082038BD4FF6FF702044010C11
:1089E0000904009800F0DEF908B1082038BD002025
:1089F00038BDF8B50C4615461E466946FFF764F9C2
:108A0000002808D10098044432462946204600F048
:108A1000B3FB08B10920F8BDFDF7BAF938B1324609
:108A20002946204600F086F908B10920F8BD00204B
:108A3000F8BD00002DE9F0410A7802F03F02521E15
:108A400002EB820303EBC20200230125144F4E1CEC
:108A50004FF6FF7CFC5C11F80480A45D48EA042416
:108A600055B1182A02D30020BDE8F0819046254672
:108A7000521C20F8184003E0644501D00020F3E7C1
:108A80005B1C0D2BE6D30978490606D5182A01D3BD
:108A90000020E9E7002120F812100120E4E700009F
:108AA0007EAF00002DE9F04704460D461646022D24
:108AB00002D36069A84202D80220BDE8F08720787E
:108AC00006F0FF094FF00108012809D040F6FF77B2
:108AD000022837D0032846D0022084F80480ECE72F
:108AE00005EB5507206A00EB17312046FFF7B6FB70
:108AF0000028F2D1C7F30B0020443030E90703D03F
:108B0000017869F31F1100E0314601707F1C84F881
:108B10000480206A00EB17312046FFF79FFB0028F6
:108B2000DBD1C7F30B0121443031EA0702D0C6F391
:108B3000071205E00A78C6F3032302F0F0021A4395
:108B40000A70CAE7206A00EBD5212046FFF786FBB2
:108B50000028C2D107EA4501214481F83090320A49
:108B600081F83120B9E7206A00EB95212046FFF714
:108B700075FB0028B1D107EA8501214430314FF05F
:108B80007043CA7803EA026232430A70130A4B70D8
:108B9000130C8B70120ECA709FE72DE9F04104464A
:108BA0000F46022F02D36069B84201D8022624E0A2
:108BB00000261FE039462046FEF714FF0546E5B1C2
:108BC000012D09D0681C09D0002239462046FFF744
:108BD00069FF06468EB903E002260EE001260CE08E
:108BE0002069411C05D0401C2061607940F00100E3
:108BF00060712F466069B842DCD83046BDE8F0812C
:108C00007047000010B5054988600846FFF74AFA2A
:108C1000012801D0002010BD012010BDB4E0FF1FCD
:108C200010B50549C8600846FFF73CFA012801D095
:108C3000002010BD012010BDB4E0FF1F10B50A4692
:108C400001462020FEF7C3FD012801D0062010BDFB
:108C5000002010BD10B50A4601460020FEF7B7FD02
:108C6000012801D0062010BD002010BD10B50A4615
:108C700001463020FEF7ABFD012801D0062010BDD3
:108C8000002010BD70B50C2300210F4A05E05518D7
:108C900010F8014B2C72491CC9B29942F7D320231A
:108CA000002105E0551810F8014B2C75491CC9B27C
:108CB0009942F7D30448FDF747F8012801D0002076
:108CC00070BD012070BD000064E0FF1F10B5FFF70C
:108CD0005DF9502212491348FBF70EFC1049114868
:108CE000102250315030FBF707FC0F4800680F4C42
:108CF000A04204D150220C490A48FBF7FDFB094869
:108D000004600B480068A04205D1064810220849BB
:108D10005030FBF7F1FB03485030046010BD0000F9
:108D2000D297000064E0FF1F00F00100646C766BD6
:108D300000F8010070B506460D4614461849301972
:108D4000096AB0EB013F01D9002070BD8CB1002051
:108D500000F018F90320FEF7FFFCC6F30740FEF70A
:108D6000FBFCC6F30720FEF7F7FCF0B2FEF7F4FCBD
:108D70000DE0012070BDFF20FEF7EEFC15F8011B91
:108D8000814204D0012000F0FDF8002070BD641E77
:108D9000601CF0D1012000F0F5F8012070BD00004A
:108DA0005C00002070B504460E4600252004000C2F
:108DB00001D0042070BD1948A119026AB1EB023F2D
:108DC00001D9042070BD8069B6FBF0F100FB116091
:108DD000E8B1042070BD00F010F9002000F0D2F8D6
:108DE000D820FEF7B9FCC4F30740FEF7B5FCC4F386
:108DF0000720FEF7B1FCE0B2FEF7AEFC012000F068
:108E0000C1F805F5803504F5803400F0C7F8B542A7
:108E1000E1D300F0E6F8002070BD00005C00002007
:108E200010B500F0EAF8002000F0ACF8C720FEF71B
:108E300093FC012000F0A6F800F0B0F800F0D1F8A3
:108E4000002010BD70B504460E460025200501D057
:108E5000042070BD1848A119026AB1EB023F01D984
:108E6000042070BD8069B6FBF0F100FB1160E8B131
:108E7000042070BD00F0C1F8002000F083F820202D
:108E8000FEF76AFCC4F30740FEF766FCC4F3072054
:108E9000FEF762FCE0B2FEF75FFC012000F072F822
:108EA00005F5805504F5805400F078F8B542E1D31B
:108EB00000F097F8002070BD5C00002070B50546FA
:108EC0000C4615F0FF0F01D0042070BD00F095F89E
:108ED00000F064F8002000F055F80220FEF73CFC9A
:108EE000C5F30740FEF738FCC5F30720FEF734FC56
:108EF000E8B2FEF731FC00232078FEF72DFC641C5D
:108F00005B1CFF2BF8D9012000F03CF800F046F87C
:108F100000F067F8002070BD70B5002000F032F856
:108F20009F20FEF719FCFF20FEF716FC0546FF20E8
:108F3000FEF712FC0446FF20FEF70EFC0646012059
:108F400000F020F8280440EA0420304370BD0000FF
:108F500010B5FFF7E1FF094908600022CA614FF42C
:108F600080528A6152100A6212034A61044988429F
:108F700001D1012010BD002010BD00005C000020C8
:108F80001720C2000449002802D010204860704712
:108F90001020886070470000C0F00F4070B54FF49B
:108FA0007A7517E00020FFF7EDFF32240520FEF769
:108FB000D3FBFF20FEF7D0FB0646022000F050F85E
:108FC000F00702D0641E601CF3D10120FFF7DAFF26
:108FD000F00702D06D1E681CE4D1002D00D1FEE721
:108FE00070BD10B50020FFF7CDFF0420FEF7B4FBE5
:108FF000BDE810400120FFF7C5BF10B50020FFF706
:10900000C1FF0620FEF7A8FBBDE810400120FFF7D6
:10901000B9BF000038B50F48006800900E49BDF890
:1090200000000880091D08800C4D012200212846FF
:10903000FCF778F9094C403C616D41F00101616534
:10904000012211462846FCF76DF9606D40F00200E0
:10905000606538BDD097000000A0044040F00F408C
:1090600005494FF47A720968B1FBF2F1C91C89080D
:109070004143491EFDD170471800002000B589B05A
:1090800000208DF800001849019108220292012267
:109090008DF80C208DF80D208DF80E00134AB2FBD0
:1090A000F1F30493B2FBF1F30593B2FBF1F10691F6
:1090B0008DF81E008DF81F008DF820008DF821001E
:1090C0000220FBF771FC024669460948FBF70EFED9
:1090D00008481021816007481430016841F01001F0
:1090E000016009B000BD00008096980000CA9A3B5C
:1090F00000D00240C0F00F4010B5FFF7BFFF0020C6
:10910000FFF740FFFFF74AFFFFF76BFFBDE8104096
:109110000120FFF737BF000070B506460D46144624
:10912000002C05D013493019096AB0EB013F01D971
:10913000042070BD0020FFF725FF0320FEF70CFB85
:10914000C6F30740FEF708FBC6F30720FEF704FB53
:10915000F0B2FEF701FB04E0FF20FEF7FDFA05F890
:10916000010B641E601CF7D10120FFF70BFF0020EC
:1091700070BD00005C0000202DE9F04104460E4661
:1091800014F0FF0F02D00420BDE8F081150AD7B219
:1091900015B14FF4807812E031462046FFF78EFE7D
:1091A000C8B10120F0E7424631462046FFF786FE6F
:1091B00008B10120E8E704F5807406F580766D1E9D
:1091C000681CF0D13FB13A4631462046FFF776FEA3
:1091D00008B10120D8E70020D6E781760A0AC276D6
:1091E0000A0C0275090E41757047014600200B22DA
:1091F000430803EBC01011F8013B1844C0B2521EE3
:10920000F6D1704770B50446204600F055F8054683
:1092100028004FD12078032845D16079012842D118
:10922000020304F1300000210646FEF7F8FF552046
:1092300084F82E02AA2084F82F02522084F83000ED
:1092400084F83100612184F83210412084F8330021
:10925000722284F8142284F8152284F8160284F805
:109260001712206984F81802010A84F81912010CF7
:1092700084F81A12000E84F81B02E06884F81C02BD
:10928000010A84F81D12010C84F81E12000E84F8E5
:109290001F02E269521CE262607801233146FDF749
:1092A00043F900206071002260781146FDF711F942
:1092B00000B10125284670BD2DE9F0410446207912
:1092C000002820D0E66A04F130016078012332469C
:1092D0000F46FDF729F910B10120BDE8F08100200B
:1092E0002071206AA169301A88420CD2E57808E022
:1092F000A06906446078012332463946FDF714F927
:109300006D1E022DF4D20020E7E7000010B50446E0
:10931000FEF73CFE012801D0002010BD0A490B4891
:109320008C4205D14FF4804141604900816008E0E2
:1093300007498C4205D14FF4404141604FF49831C8
:109340008160012010BD00004C46464F0CE1FF1F1C
:109350004B4E494C2DE9FC4101268DF80060ADF8DB
:1093600002600024ADF80440ADF80640254D287891
:1093700001280FD10020FFF7B9F96B4622A20C217A
:109380000020FFF7DDF96B4624A220210020FFF723
:10939000D7F92C701B4F1437387900281ED03C7138
:1093A0000820234988602020214940398860386896
:1093B000FFF762F8A0B10020FFF798F96B461DA2F5
:1093C0000C210020FFF7BCF93C713C604FF4FA60BF
:1093D000FCF7E6FAA8684068A8602E70BDE8FC813A
:1093E0001948FFF70FFC1948FFF71AFC0020FFF798
:1093F0007DF96B4616A20C210020FFF7A1F9FCF7BE
:10940000A3F8000010E0FF1F202020757064617435
:10941000696E67202020202000000000202020709E
:109420006C6561736520776169742020000000001D
:1094300040F00F4020207570646174652065727281
:109440006F722020000000004B4E494C646D666F27
:109450002075706461746520737563636573732030
:10946000000000002DE9F043ADF2044D0026D0F8D5
:109470000C80846847680021009100682249884276
:1094800004D086200DF2044DBDE8F0832146012072
:10949000FFF78EFA0028F5D1FEF7D2FF4FF480696E
:1094A0004D46AC4200D225462A4601A93846FEF771
:1094B000A7FF0028E6D12B4601AA31460120FFF77D
:1094C00098FA0028DED101A92846FCF745FB00994F
:1094D000084400902F442E44641B002CE0D1FEF77A
:1094E000A1FF009880B2404501D08620CAE7042140
:1094F0000220FFF75DFA04236A4600210220FFF7ED
:1095000078FA0020BEE70000044C464F2DE9F043F6
:10951000ADF2044D0027C16800918468D0F8048042
:10952000002600682149884204D086200DF2044DAF
:10953000BDE8F08321460520FFF73AFA0028F5D16F
:10954000FEF77EFF4FF480694D46AC4200D22546BF
:109550002A4601A94046FEF753FF0028E6D12B46D4
:1095600001AA39460520FFF744FA0028DED101A9F7
:109570002846FCF7F1FA0644A8442F44641B002C4B
:10958000E2D1FEF74FFF0099B0B2884201D08620A9
:10959000CCE704210620FFF70BFA04236A460021DA
:1095A0000620FFF726FA0028C0D1BFE7074C464F38
:1095B00070B58EB00446A56866680E49206888427A
:1095C00002D086200EB070BDFEF73AFF2A4601A9F0
:1095D0003046FEF715FF0028F4D1FEF723FF1021D7
:1095E0002046FFF72BFB342101A8FFF73FFB0020AB
:1095F000E8E70000054C464F2DE9F041ADF5806DE0
:109600008468466800681349884204D086200DF5B6
:10961000806DBDE8F081FEF713FF4FF4806845468A
:10962000AC4200D225462A4669463046FEF7E8FE9F
:1096300007466846FFF726FB012800D012270FB126
:109640003846E4E72E44641B002CE8D1FEF7EAFE1E
:109650000020DCE7034C464F2DE9F04FADF2044DFE
:109660000027D0F80C908468D0F8048000260068A9
:109670001D49884204D086200DF2044DBDE8F08FCC
:10968000FEF7DEFE4FF4806A5546AC4200D2254616
:109690002A4601A94046FEF7B3FE8346BBF1000F00
:1096A00001D05846E8E72B4601AA39460F48FEF795
:1096B000E9FF012801D04FF0120BBBF1000F01D0E0
:1096C0005846D9E701A92846FCF746FA0644A844BB
:1096D0002F44641B002CD7D1FEF7A4FE4E4501D0C9
:1096E0008620C9E70020C7E7024C464F4B4E494C45
:1096F0002DE9F043ADF2044D0027C1680091846864
:10970000D0F80480002600682149884204D08620D1
:109710000DF2044DBDE8F08321460020FFF748F923
:109720000028F5D1FEF78CFE4FF480694D46AC421F
:1097300000D225462A4601A94046FEF761FE0028D0
:10974000E6D12B4601AA3946FFF753F90028DFD1AD
:1097500001A92846FCF700FA0644A8442F44641BDC
:10976000002CE3D1FEF75EFE0099B0B2884201D032
:109770008620CDE704210320FFF71AF904236A4667
:1097800000210320FFF735F90028C1D1C0E7000010
:10979000064C464F10B5002807D0016829B10A7859
:1097A0001AB1CA888088824201D0092010BD487849
:1097B000FCF7B4FEC00701D0032010BD002010BD8F
:1097C000030000000000030100127A000D040001F4
:1097D0002001000000000000000000000000000068
:1097E0000000000000000000000000000000000079
:1097F0000000000000000000000000000000000069
:109800000000000000000000000000000000000058
:109810000000000000000000000000000000000048
:109820000000000000000000000000000000000038
:109830000000D1A100402240124013F80440004033
:10984000F7FC11201120112012241224141C2800CE
:1098500047FE0000D4F1200027F822082110F0A0D4
:10986000204021B0264E3040E3F82040204027FC25
:109870002040A0404040CDD1010478844888481061
:1098800049FC79044904490449FC785048504890FF
:10989000489249124A0E9C00BBFA100011F01110B8
:1098A0001110FD1011103110391055105510911074
:1098B000111211121212120E1400B7BD0200010093
:1098C0000100FFFE04000400040007F0041004106F
:1098D000041008100810101020A04040B0B801007B
:1098E0007FFC40040400FFFE08201E4003C03C38FB
:1098F0000100FFFE054009203118C1060100FFFFED
:109900000000000000000000000000000000000057
:1099100000007E81A58181BD9981817E00000000CB
:1099200000007EFFDBFFFFC3E7FFFF7E00000000BB
:10993000000000006CFEFEFEFE7C381000000000FF
:109940000000000010387CFE7C3810000000000091
:10995000000000183C3CE7E7E718183C0000000056
:10996000000000183C7EFFFF7E18183C000000003D
:10997000000000000000183C3C180000000000003F
:10998000FFFFFFFFFFFFE7C3C3E7FFFFFFFFFFFF8F
:1099900000000000003C664242663C0000000000FF
:1099A000FFFFFFFFFFC399BDBD99C3FFFFFFFFFF8F
:1099B00000001E0E1A3278CCCCCCCC78000000000F
:1099C00000003C666666663C187E181800000000C1
:1099D00000003F333F3030303070F0E000000000D6
:1099E00000007F637F6363636367E7E6C000000096
:1099F0000000001818DB3CE73CDB181800000000F2
:109A00000080C0E0F0F8FEF8F0E0C0800000000048
:109A10000002060E1E3EFE3E1E0E06020000000064
:109A20000000183C7E1818187E3C1800000000004A
:109A30000000666666666666660066660000000090
:109A400000007FDBDBDB7B1B1B1B1B1B0000000004
:109A5000007CC660386CC6C66C380CC67C00000042
:109A60000000000000000000FEFEFEFE00000000FE
:109A70000000183C7E1818187E3C187E000000007C
:109A80000000183C7E18181818181818000000005C
:109A90000000181818181818187E3C18000000004C
:109AA0000000000000180CFE0C1800000000000070
:109AB00000000000003060FE603000000000000088
:109AC000000000000000C0C0C0FE00000000000058
:109AD0000000000000286CFE6C2800000000000060
:109AE000000000001038387C7CFEFE000000000002
:109AF00000000000FEFE7C7C3838100000000000F2
:109B00000000000000000000000000000000000055
:109B10000000183C3C3C1818180018180000000001
:109B200000666666240000000000000000000000DF
:109B30000000006C6CFE6C6C6CFE6C6C0000000035
:109B400018187CC6C2C07C060686C67C18180000A1
:109B500000000000C2C60C183060C686000000007D
:109B60000000386C6C3876DCCCCCCC760000000081
:109B700000303030600000000000000000000000F5
:109B800000000C18303030303030180C000000006D
:109B9000000030180C0C0C0C0C0C183000000000ED
:109BA0000000000000663CFF3C6600000000000072
:109BB000000000000018187E1818000000000000C7
:109BC000000000000000000000181818300000001D
:109BD00000000000000000FE000000000000000087
:109BE0000000000000000000000018180000000045
:109BF0000000000002060C183060C0800000000069
:109C00000000386CC6C6D6D6C6C66C380000000048
:109C100000001838781818181818187E000000006E
:109C200000007CC6060C183060C0C6FE00000000B4
:109C300000007CC606063C060606C67C0000000046
:109C400000000C1C3C6CCCFE0C0C0C1E0000000038
:109C50000000FEC0C0C0FC060606C67C0000000076
:109C600000003860C0C0FCC6C6C6C67C000000004C
:109C70000000FEC606060C18303030300000000030
:109C800000007CC6C6C67CC6C6C6C67C00000000F6
:109C900000007CC6C6C67E0606060C7800000000E2
:109CA0000000000018180000001818000000000054
:109CB0000000000018180000001818300000000014
:109CC000000000060C18306030180C060000000080
:109CD00000000000007E00007E0000000000000088
:109CE0000000006030180C060C1830600000000006
:109CF00000007CC6C60C18181800181800000000D8
:109D00000000007CC6C6DEDEDEDCC07C0000000099
:109D1000000010386CC6C6FEC6C6C6C600000000ED
:109D20000000FC6666667C66666666FC00000000F5
:109D300000003C66C2C0C0C0C0C2663C000000005B
:109D40000000F86C6666666666666CF800000000E7
:109D50000000FE6662687868606266FE00000000CF
:109D60000000FE6662687868606060F000000000D5
:109D700000003C66C2C0C0DEC6C6663A00000000F5
:109D80000000C6C6C6C6FEC6C6C6C6C600000000DF
:109D900000003C18181818181818183C000000008B
:109DA00000001E0C0C0C0C0CCCCCCC78000000007D
