:020000040000FA
:10C000000040002025C400003DC4000069E300009A
:10C0100041C4000043C4000045C40000000000000B
:10C0200000000000000000000000000047C4000005
:10C0300049C40000000000004BC400002DF80000BF
:10C040004FC4000053C4000057C400005BC400008C
:10C0500097C4000097C4000097C4000097C4000074
:10C0600097C4000097C4000097C4000097C4000064
:10C0700097C4000097C4000097C4000097C4000054
:10C080005FC4000097C4000097C4000097C400007C
:10C0900097C4000097C4000097C4000097C4000034
:10C0A00063C4000067C400006BC400006FC40000DC
:10C0B00073C4000077C400007BC400007FC400008C
:10C0C00083C40000B9F900008BC400008FC40000D5
:10C0D00093C4000097C4000097C4000097C40000F8
:10C0E00097C4000097C4000097C4000097C40000E4
:10C0F00097C4000097C4000097C4000097C40000D4
:10C1000097C4000097C4000097C4000097C40000C3
:10C1100097C4000095FA000097C4000097C400007F
:10C1200097C4000097C4000097C4000097C40000A3
:10C1300097C4000097C4000097C4000097C4000093
:10C1400097C4000097C4000097C4000097C4000083
:10C1500097C4000097C4000097C4000097C4000073
:10C3F00097C4000097C4000097C40000FFFFFFFF30
:10C40000FFFFFFFFFFFFFFFFFFFFFFFFFEF9FFFF43
:10C41000DFF80CD000F0B4F8004800478D77010039
:10C420000040002072B61D481D4901600A6882F371
:10C4300008881C48804762B61B480047FEE7FEE7B5
:10C44000FEE7FEE7FEE7FEE7FEE7FEE7FEE717484A
:10C450000047174800471748004717480047174844
:10C460000047174800471748004717480047174834
:10C470000047174800471748004717480047174824
:10C480000047174800471748004717480047174814
:10C4900000471748004717480047000008ED00E034
:10C4A00000C000007DF8000011C4000097C4000027
:10C4B00097C4000097C4000097C4000097C4000010
:10C4C00097C4000097C4000009E7000021E70000BE
:10C4D00097C4000097C4000097C400005DF90000F5
:10C4E00097C40000A1F9000097C400007DFA000085
:10C4F00097C4000097C40000202A04DB203A00FA09
:10C5000002F1002070479140C2F1200320FA03F3AA
:10C51000194390407047202A04DB203A21FA02F0A8
:10C520000021704721FA02F3D040C2F1200291406D
:10C5300008431946704740EA01039B0703D009E00E
:10C5400008C9121F08C0042AFAD203E011F8013BFF
:10C5500000F8013B521EF9D27047D2B201E000F858
:10C56000012B491EFBD270470022F6E710B5134697
:10C570000A4604461946FFF7F0FF204610BD0000AA
:10C58000064C074D06E0E06840F0010394E8070020
:10C5900098471034AC42F6D3FFF73EFF40CD010080
:10C5A00080CD010070B58C1810F8015B15F0070301
:10C5B00001D110F8013B2A1106D110F8012B03E03C
:10C5C00010F8016B01F8016B5B1EF9D12B0705D444
:10C5D0000023521E0DD401F8013BFAE710F8013B8D
:10C5E000CB1A921C03E013F8015B01F8015B521EA9
:10C5F000F9D5A142D8D3002070BD000038B500BFE6
:10C6000010481149486400BF104800F031FB0F4941
:10C6100008680F49086000BF0E480F4C009063790E
:10C62000A2792179E07900F0F7F80C4800F0D4FB0A
:10C630000B480C4908600C494FF4E02000F020F949
:10C6400038BD0000000007110080044034B1010033
:10C65000400000203FC8000024B101002CB10100BF
:10C6600000879303A0E0FF1F006CDC02704700000E
:10C6700010B5624800F0ECF86048401C00F0E8F8A3
:10C680005E48801C00F0E4F85C48C01C00F0E0F854
:10C690005A48001D00F0DCF807220021584802F03B
:10C6A0002BF801220421564802F026F8544840682D
:10C6B000544908405249486001220C21504802F078
:10C6C0001BF803220D214E4802F016F80022122119
:10C6D0004B4802F011F800221321494802F00CF8EF
:10C6E0004748806847490840454988600722032138
:10C6F000434802F001F84248006942490840404975
:10C700000861012205213E4801F0F6FF3C484069DE
:10C710003C490840801C3A494861012213213A48AB
:10C7200001F0EAFF01221221374801F0E5FF012262
:10C730000221354801F0E0FF01220321324801F0D7
:10C74000DBFF04221021304801F0D6FF0022114601
:10C750002E4801F0D1FF01220A212C4801F0CCFF24
:10C7600001220221294801F0C7FF012203212748A5
:10C7700001F0C2FF01220421244801F0BDFF012283
:10C780000821224801F0B8FF012209211F4801F0C9
:10C79000B3FF012200211E4801F0AEFF0122114625
:10C7A0001B4801F0A9FF01220221194801F0A4FF52
:10C7B00001221146154801F09FFF0122042114486F
:10C7C00001F09AFF07220521114801F095FF072289
:10C7D00006210F4801F090FF072211460C4801F096
:10C7E0008BFF0C48C06820F003700A49C8600846F7
:10C7F000006920F03000086110BD00000900381009
:10C8000000900440FDFFFFFE00A0044000B0044083
:10C8100000C00440008004402DE9F04107460C466A
:10C8200015461E46DDF81880384600F05BFA434690
:10C8300032462946204600F073FABDE8F08147F2FF
:10C84000305000E000BF011EA0F10100FAD1704796
:10C85000044A02EB10410A68012383401A430A602C
:10C860007047000000700440044A02EB10410A685F
:10C87000012383401A430A6070470000007004409F
:10C8800070B5024601242748274D05EB10431D686B
:10C8900001268640B5431D6000BF32B92348406879
:10C8A00020F48020214B586023E02148084490B1B7
:10C8B000204B184458B1184428B1184478B90920BD
:10C8C0001A4B98640DE00220184B986409E005208B
:10C8D000164B986405E00020144B986401E0002496
:10C8E00000BF00BF1148406820F4E02010430F4B08
:10C8F00058600C480C4D05EB10431D68012686401E
:10C9000035431D6000BFB2F5E02F09D103200A4B6B
:10C9100018700A4890F8400140F080001B1F187002
:10C92000204670BD120034100070044000800440A6
:10C93000009423FD00CA91FE4421074000200740D7
:10C9400000B510480068C0F3814020B102280DD026
:10C95000032811D10DE000F03DF9B0F5004F02D1F0
:10C960004FF4004000E00020014607E0064801685F
:10C9700004E04FF47A7101E0002100BF00BF0846D7
:10C9800000BD0000007004404400002010B500F01D
:10C9900063F8044634B100F03BF9B4EBD00F01D892
:10C9A000204610BD0020FCE72DE9F04100F0E2F840
:10C9B000044614B92046BDE8F08116480078C0F35B
:10C9C000C205EC4013484078C0F301171148007BC2
:10C9D00000F0030607B10EB1022E19D1082D14D2B2
:10C9E000DFE805F00405060708090B0F00BF00BFCC
:10C9F00000BF00BF00BF640909E01420B4FBF0F4DD
:10CA000005E00C20B4FBF0F401E0002400BF00BFFF
:10CA10002046D0E70040064070B50D48407800F051
:10CA2000020008B1002070BD00F016F804460CB9F1
:10CA30002046F8E70648C078C0F341150448C0789E
:10CA4000C609044800EB850030F816006043EAE7A9
:10CA50000040064084C4010010B505488079C0F349
:10CA6000001010B9FFF7A0FF10BD02480068FBE7F7
:10CA7000004006403800002070B50546142D4BD20A
:10CA8000DFE805F00A0B154A1F4A292D464A4231B4
:10CA900035394A4A4A4A3D3F00BF00F0B9F82149BA
:10CAA000496C012202EB1171B0FBF1F436E000F0A9
:10CAB000AFF81C49496CC1F30361491CB0FBF1F4A8
:10CAC0002CE000F0A5F81749496CC1F30341491C5B
:10CAD000B0FBF1F422E000F0B5F804461EE0FFF7E9
:10CAE0002FFF04461AE0FFF751FF044616E000F05E
:10CAF0001DF8044612E0FFF78FFF04460EE00A4CD3
:10CB00000CE04FF47A7409E000F064F8044605E0A4
:10CB100000F04EF8044601E0002400BF00BF2046AC
:10CB200070BD000000800440006CDC0210B50548B8
:10CB3000007800F0020008B9002010BD00F004F8F1
:10CB4000FBE70000004006400748807900F0010044
:10CB500010B90648006870470348007AC0F34201E4
:10CB600003480068C840F6E700400640380000204F
:10CB70003C0000200A49097B01F0030121B1012991
:10CB800005D0022908D105E00649086806E00649F3
:10CB9000086803E0054801E0002000BF00BF7047BF
:10CBA000004006404000002044000020006CDC02F1
:10CBB0000648007800F0800030B104488078810990
:10CBC00003480068C84070470020FCE7005006405A
:10CBD000400000200448007800F0800010B10348B5
:10CBE000006870470020FCE700500640400000202D
:10CBF000014649F69702914201D8002005E0034A18
:10CC0000914201D8012000E00220704700127A0012
:10CC100010B50B498979C1F3810424B1012C05D0E9
:10CC2000022C09D105E0FFF7F7FE07E0FFF78CFFC4
:10CC300004E0FFF79FFF01E0002000BF00BF10BD30
:10CC40000040064010B508494968C1F3014111B1DF
:10CC5000032905D102E0FFF7DFFE03E0034801E00E
:10CC6000002000BF00BF10BD00800440006CDC024B
:10CC700070B504462068FFF7BBFF054617482279C8
:10CC8000017821F00F011143017000BF00BF01784E
:10CC900021F0A001A27911430170E279C02303EAD7
:10CCA0008212827000BF0E48407820F03C00302194
:10CCB00001EA051108436179084309494870607920
:10CCC00058B10648007800F0800030B100BF044839
:10CCD000807900F002000028F9D070BD00500640B5
:10CCE0000040064010B501460C48007B00F00300F0
:10CCF000884201D0012200E000220848007B61F355
:10CD00000100064C20733AB140F2DC5300E000BF52
:10CD1000181EA3F10103FAD1002010BD0040064007
:10CD20002DE9F04706460F4690461D464FF0000994
:10CD30002848C4788079C0F3001038B14FF0010959
:10CD40002448C07880F020002249C870214800782B
:10CD500020F0FC01382000EAC60001431D480170A4
:10CD6000007B00F0030058B91A48407800F0040036
:10CD700030B100BF1748807900F002000028F9D0D8
:10CD800000BF14488079C0F300100028F9D1B9F130
:10CD9000000F01D00F48C470802000EAC710602146
:10CDA00001EA4811084324F0E00140EA010409487F
:10CDB000C47000BF0748C078A042FBD100BF05483F
:10CDC0008079C0F381000028F9D105B1A84700207F
:10CDD000BDE8F08700400640094A41685164017887
:10CDE000526861F31142064B5A6000BF4178054A10
:10CDF000126861F39342034B1A6000BF7047000052
:10CE0000008004400070044010B502460B461078C4
:10CE100008B9012100E01178012937D101201F4C08
:10CE2000207000BF20201E4C206040201C4C843C01
:10CE3000C4F88400C0001A4C241D206040102060FB
:10CE40001020174C843CC4F884002046D0F894008D
:10CE500040F48070124C103420600802104C241DE5
:10CE600020604000206010200D4C843CC4F88400F9
:10CE70002046D0F8940040F01000094C1034206097
:10CE800040F21310074C206100BF01E0002100BFF9
:10CE900000BF19704FF0011010BD00007C1500207C
:10CEA00084F00F4000B0044030B502460B461078C5
:10CEB000547840EA042101EB410081000846044611
:10CEC00000BF00BF651E2C1EFCD100BF00201870E3
:10CED000004830BD0100020001460020114A1070D8
:10CEE00000BF4FF40070104A106040100E4A843AA0
:10CEF000C2F884001020C2F884001046D0F89400D4
:10CF000020F01000C2F894000848006940F08070DA
:10CF1000064A106140F21310106100BF0020087033
:10CF2000012070477C15002084F00F4000B00440C1
:10CF300030B502461546521C12F8014B0BE012F8B0
:10CF4000013B03F0020020B103F0100010B1121DEC
:10CF500000E0121D641E002CF1D100200870487002
:10CF6000501B0004801C30BD2DE9F04104460D46E5
:10CF700020787F281BD114F8010B05F8010B14F859
:10CF8000017B05F8017B4FF0021809E02946204695
:10CF900000F09CF80646B04404EB1644B0B20544D9
:10CFA000381EA7F10107F1D14046BDE8F0812946BE
:10CFB000204600F08BF8F8E710B50246107810B163
:10CFC000012813D104E0537803F0010000BF11E001
:10CFD000507800F001030820094C606000BF202059
:10CFE000074C403CE06000BF00BF03E0FF2008703A
:10CFF000044810BD00BF002008700248F9E7000097
:10D0000040F00F400100020010B502460020062A41
:10D010001BD006DC062A28D2DFE802F0270C0D0E12
:10D020000F16F02A12D0FD2A14D0FE2A19D0FF2A9A
:10D030001BD110E01AE019E018E00D4B1C680C60E1
:10D040001B790B71052011E010E00FE011230B702C
:10D0500001200BE00AE040230B7000234B700220FC
:10D0600004E005230B70012000E000BF00BF10BDED
:10D070003EB1010002461378FF200870581C0004DE
:10D08000401C70470246FF2008704FF001107047A7
:10D09000F0B502460B46FF2003F8010B01250126DF
:10D0A00012F8017B0AE012F8014B04F03F0101B9CC
:10D0B0004021C81DC1080A44481C0544381EA7F178
:10D0C0000107F0D1304665F31F40F0BD70B505464D
:10D0D0000E462878802807D328789F2804D8314620
:10D0E000284600F088F870BD287806F8010B15F87E
:10D0F000010B172875D2DFE800F00C151B215B61CE
:10D1000067746D262C747474747431373D43494FC1
:10D1100055002878711CFFF777FF0446347004F13E
:10D120000210E0E731462846FFF746FF04465EE07E
:10D1300031462846FFF768FE044658E03046FFF7C0
:10D14000CBFE044653E031462846FFF7ADFE0446C9
:10D150004DE0304600F055F8044648E03146284698
:10D1600000F0B4FB044642E03146284600F074FB70
:10D1700004463CE03146284600F070FC044636E0A8
:10D180003146284600F0B2F8044630E031462846E1
:10D19000FFF77EFF04462AE031462846FFF76AFF84
:10D1A000044624E031462846FFF76CFF04461EE0A3
:10D1B0003146284600F0C0FC044618E031462846B7
:10D1C00000F07AFC044612E03146284600F08CFC60
:10D1D00004460CE03146284600F0C6FC044606E052
:10D1E000FFE7FF2006F8010C4FF001107BE700BFBE
:10D1F00004F1011077E70246FF2008704FF001109C
:10D200007047014600BF0020487008700220704738
:10D210003348806B40F4F050314988634FF4A0707C
:10D22000304948612020304908602F488438D0F8C0
:10D23000940040F020002C49103108604FF4A07099
:10D2400028498861402028498439C1F8840008466B
:10D25000D0F8940040F0400023491031086040F2BB
:10D2600003102049C86120488438D0F8940020F089
:10D2700080001D49103108604FF4A07019494862C0
:10D28000481519498439C1F884000846D0F894003B
:10D2900040F400701449103108604FF4A070114937
:10D2A0000862881510498439C1F884000846D0F80E
:10D2B000940040F480700C491031086010200A4935
:10D2C0008439C1F884000846D0F8940040F010007A
:10D2D00005491031086040F2131002490861704797
:10D2E0000080044000B0044084F00F4010B50246B6
:10D2F000137803F00300401C054C2075C3F3800431
:10D3000003484475002008704FF0011010BD000064
:10D310007C1500202DE9F04F87B005460C46069598
:10D32000002005900026A246A41CE0490870834610
:10D3300004906D1C15F8019B50E115F8017B07F076
:10D34000020000287ED0BBF1000F3DD0D848B0F8D5
:10D350000A8007F01100012811D100BF01A9384649
:10D3600001F0EAF90646022E1CD1B8F10000A8F13E
:10D37000010817D0CD4800780028EFD012E000BF98
:10D3800001A90E2001F0D8F90646022E08D1B8F105
:10D390000000A8F1010803D0C44800780028EFD0AD
:10D3A0004FF0000B012E00D01CE1019804F8010B96
:10D3B0000198000A04F8010B0198000C04F8010B15
:10D3C0000198000E04F8010B07F0100000285ED051
:10D3D0002878697840EA0120A97840EA0140E97894
:10D3E00040EA016003902D1DB1488089029007F04A
:10D3F0000100B0B1AE48B0F80A8000BF0021384645
:10D4000001F09AF90646022E08D1B8F10000A8F101
:10D41000010803D0A54800780028EFD0012E00D0E5
:10D42000E0E000BFA248B0F80A8000BF01A938467A
:10D4300001F082F90646022E0AD1B8F10000A8F1E7
:10D44000010800E069E003D0984800780028EDD09A
:10D45000012E00D00EE0964800690199084003991A
:10D46000884207D00298411E029118B18F48007877
:10D470000028D7D000BF8E48006901990840039961
:10D48000884201D046F01006012E43D0AAE0884819
:10D49000B0F80A8007F00100C8B1BBF1000F39D124
:10D4A00000BF0021384601F047F90646022E08D198
:10D4B000B8F10000A8F1010803D07C4800780028EA
:10D4C000EFD0012E00D08DE04FF0010B22E000BF25
:10D4D00001A9384601F030F90646022E08D1B8F10C
:10D4E0000000A8F1010803D0704800780028EFD0B0
:10D4F000012E00D076E0019804F8010B0198000A93
:10D5000004F8010B0198000C04F8010B0198000EBF
:10D5100004F8010B0020049057E0BBF1000F27D066
:10D520006348B0F80A8000BF01A90E2001F004F999
:10D530000646022E08D1B8F10000A8F1010803D078
:10D540005A4800780028EFD0012E00D04AE0019818
:10D5500004F8010B0198000A04F8010B0198000C73
:10D5600004F8010B0198000E04F8010B4FF0000BBA
:10D570002878697840EA0120A97840EA0140E978F2
:10D5800040EA016001902D1D07F0200020B14848BD
:10D5900001990161012618E04548B0F80A8000BFF2
:10D5A00001A9384601F0C8F80646022E08D1B8F1A4
:10D5B0000000A8F1010803D03C4800780028EFD013
:10D5C000012E00D00EE0012004900598401C05902B
:10D5D0003648007800B105E0A9F10109B9F1000F62
:10D5E0007FF4ABAE00BF0CE015F8017B07F0020042
:10D5F00020B107F0100010B12D1D00E02D1DA9F184
:10D600000109B9F1000FEFD1012E3FD1BBF1000F9D
:10D6100026D02748B0F80A8000BF01A90E2001F0EB
:10D620008BF80646022E08D1B8F10000A8F10108D7
:10D6300003D01E4800780028EFD0012E00D026E04D
:10D64000019804F8010B0198000A04F8010B0198F5
:10D65000000C04F8010B0198000E04F8010B15E012
:10D66000049898B11248B0F80A8000BF00210E203B
:10D6700001F062F80646022E08D1B8F10000A8F1C8
:10D68000010803D0094800780028EFD000BF0598B2
:10D690008AF800008AF80160A4EB0A010698281AAB
:10D6A00041EA004007B0BDE8F08F00001400002000
:10D6B0007C1500202DE9F84F04460D464FF0000B75
:10D6C0000026A846ED1C002056490870641C2078EE
:10D6D000617840EA012AA41CBAF1000F00D195E05C
:10D6E00014F8017B07F0020000284FD007F001007A
:10D6F000B0B14D48B0F80A9000BF0021384601F0A3
:10D700001BF80646022E08D1B9F10000A9F1010963
:10D7100003D0444800780028EFD0012E00D075E0F7
:10D720002EE0BAF1000F03D107F0010000B10E277F
:10D730003D48B0F80A9000BF6946384600F0FCFF4B
:10D740000646022E08D1B9F10000A9F1010903D063
:10D75000344800780028EFD0012E00D056E0009821
:10D7600005F8010B0098000A05F8010B0098000C61
:10D7700005F8010B0098000E05F8010B0BF1010BE9
:10D78000BAF10000AAF1010ACBD13EE024E02078F2
:10D79000617840EA0120A17840EA0140E17840EA5E
:10D7A00001600090241D2048B0F80A9000BF69462F
:10D7B000384600F0C1FF0646022E08D1B9F100003C
:10D7C000A9F1010903D0174800780028EFD0012EF5
:10D7D00000D01BE00BF1010BBAF10000AAF1010A25
:10D7E000D5D11148B0F80A9000BF00210E2000F0FA
:10D7F000A3FF0646022E08D1B9F10000A9F10109E4
:10D8000003D0084800780028EFD000BF88F800B0A7
:10D810004FEA1B2088F8010088F80260A5EB080099
:10D82000BDE8F88F140000207C15002038B50446B0
:10D830000D466078A17840EA0120E17840EA014095
:10D84000217940EA016000906946002000F074FFF1
:10D8500000202870012038BD30B502460C461078F3
:10D86000557840EA0520957840EA0540D57840EAA9
:10D8700005631BB9FF202070104830BD104883425B
:10D8800004D301200F4D6870686012E000200D4D38
:10D890006870581E0C4D2844B0FBF3F1022905D9DD
:10D8A000891E081D0525B0FBF5F100E001210548A2
:10D8B0004160002020700148DFE700000100040003
:10D8C000808D5B007C15002080C3C90170B50346C4
:10D8D0000D4619785A789878DE7840EA06201E7945
:10D8E00040EA06405E7940EA066402F0010078B141
:10D8F00001F0010028B100BF2020544E306000BF6D
:10D9000006E000BF2020514E361D306000BF00BF32
:10D9100002F0020078B101F0020028B100BF4020FF
:10D920004A4E306000BF06E000BF4020474E361D23
:10D93000306000BF00BF02F0040010B1880800BFD3
:10D9400000BF02F0200010B1480900BF00BF02F084
:10D95000800020B1C8093E4E306100BF00BF002CDE
:10D9600055D03C48844200D9044600BF00204FF007
:10D97000E026B061C4EB04108000706105203061C6
:10D9800000BF00BF02F0010020B100BF00204840EE
:10D9900000B12CE002F0020048B100BF2B480C306F
:10D9A0000068C0F3C01080EA510000B11FE002F02F
:10D9B000040028B100BF002080EA910000B116E009
:10D9C00002F0200028B100BF002080EA511000B111
:10D9D0000DE002F0800048B100BF1C480C30006828
:10D9E000C0F3001080EAD11000B100E007E000BFF2
:10D9F0004FF0E0200069C0F300400028C2D000BF13
:10DA000000BF00204FF0E026306100BF00BF00BF24
:10DA1000002600BF0D480C300068C0F3C01046EA75
:10DA2000400000BF40EA860000BF40EAC60000BFD9
:10DA300040EA461605488438D0F89000C0F300103C
:10DA400046EAC0112970044870BD000084F00F4000
:10DA50000010FE43C0C62D000100060070B504464C
:10DA60000E4614F8015B0DB94FF480752146284627
:10DA700001F09CFE00203070E81DC508681C000401
:10DA8000401C70BD10B500200A4908704870042081
:10DA9000486000200872642106484181002181818C
:10DAA0000161012003490875002102484175FFF713
:10DAB000AFFB10BD7C15002070B505460E46094829
:10DAC0000078012805D131462846FFF723FC04469B
:10DAD00005E031462846FFF72BFA044600BF00BF99
:10DAE000204670BD7C15002070B505460E461148D5
:10DAF0000078012805D131462846FFF7DBFD0446B2
:10DB000005E0002030707070B070032400BF00BFCB
:10DB1000E87800F0020010B144F4802408E068784E
:10DB2000A97840EA0120042101EB800044EA004486
:10DB3000204670BD7C15002002461078084B1872F4
:10DB40005078937840EA032305484381D0781379CD
:10DB500040EA03230248838100200870014870478F
:10DB60007C1500200100050070B506460D460948E9
:10DB70000078012805D129463046FFF757FE0446B4
:10DB800003E0FF202870012400BF00BF44F4A02060
:10DB900070BD00007C15002070B504460D4620467F
:10DBA00000F036F828B129462046094A1268904705
:10DBB00004E029462046074A1268904700BF00BF8C
:10DBC00000BFBFF34F8F00BF00BF00BF70BD00009C
:10DBD000B0E0FF1FB4E0FF1F21B1026822F48042D1
:10DBE000026003E0026842F4804202607047000075
:10DBF0000146002006E0054A52F820208A4200D162
:10DC000002E0401C0228F6D300BF704744C5010063
:10DC100001460868C00F70472DE9F84305460C46D9
:10DC200016462846FFF7E4FF3F4951F8208040465A
:10DC3000FEF71AFE01212846FFF7CEFF284600F026
:10DC4000D3F90121284600F0B3F92868374900EAE2
:10DC50000107A07F4FF0804101EA8070384394F8BB
:10DC600020104FF0806202EA81610843E17F921048
:10DC700002EA0161084394F821104FF4407202EA6D
:10DC8000012108432860627F217F284600F095F932
:10DC9000217833462846626800F04AF800B900BF90
:10DCA000217805F10C0050F8210020F0FE47207A81
:10DCB000401E4FF0F04101EAC0603843217B4FF035
:10DCC000806202EA81610843617B521002EA41618D
:10DCD0000843A17B521002EA01610843227805F152
:10DCE0000C0141F82200206900902178334601227E
:10DCF000284600F0E1F8606900902178334602225E
:10DD0000284600F0D9F8A069009021783346032214
:10DD1000284600F0D1F80021284600F03DF92846B9
:10DD200000F05DF9BDE8F88350C50100FFCCFFBAF3
:10DD30002DE9FF4F87B081468A464846FFF768FFC6
:10DD400018B900200BB0BDE8F08FDDF824B04FF01B
:10DD5000FF350020059004900120039000200290E0
:10DD6000002427E0002620E0012719E01F4850F892
:10DD700024101F4850F8260041430A987843B0FB0E
:10DD8000F1F8C3450BD3ABEB080001900198854235
:10DD900005D9019D05940496CDF8088003977F1C52
:10DDA000032F01D2002DE1D1761C102E01D2002DBF
:10DDB000DAD1641C042C01D2002DD3D109F10C005E
:10DDC00050F82A000B49084006900398411E069817
:10DDD00040EAC171059841EA00400499084309F1FD
:10DDE0000C0141F82A000298ACE70000A4C401002D
:10DDF000B4C40100F0FFFC7F2DE9F04104460D465C
:10DE000016461F46DDF818802046FFF701FFB8B31D
:10DE1000B8F1010F06D0B8F1020F1AD0B8F1030F14
:10DE200045D12EE004F10C0050F8250020F440000C
:10DE300020F470404FF4400101EA865108434FF44A
:10DE4000704101EA0731084304F10C0141F8250053
:10DE50002EE004F10C0050F8250020F4401020F4CE
:10DE600070604FF4401101EA065108434FF47061AD
:10DE700001EA0721084304F10C0141F8250017E0ED
:10DE800017E004F10C0050F8250020F4402020F0A9
:10DE9000F0004FF4402101EA86410843F02101EAF5
:10DEA0000711084304F10C0141F8250000E000BF10
:10DEB00000BFBDE8F08100002DE9FF4F85B091461D
:10DEC0001D46DDF848A00598FFF7A2FE18B900200E
:10DED00009B0BDE8F08F4FF0FF38032004904FF0F9
:10DEE0000F0B2948B0FBF5F1284A049852F820009E
:10DEF0004843274951F82B10484380080390254890
:10DF0000B0FBF5F0400001900198504509D3002383
:10DF10001A46CDF80090DDE90501FFF76DFF019885
:10DF2000D6E7002421E0002619E01748B0FBF5F001
:10DF3000164951F824104843154951F82610484312
:10DF4000870857450AD3A7EB0A000290029880453C
:10DF500004D9DDF808800494B3460397761C102E8C
:10DF600002D2B8F1000FE0D1641C042C02D2B8F147
:10DF7000000FD8D15B46CDF80090DDE9042006996A
:10DF8000FFF73AFF0398A3E700286BEEF4C4010003
:10DF900004C5010000CA9A3B30B504460B46204632
:10DFA000FFF726FE05460148435530BDB8E0FF1F88
:10DFB000026861F3DF720260704710B513460268B1
:10DFC000012B05D14FF47C1404EA0144224304E000
:10DFD0004FF47C1404EA0144A243026010BD0168BE
:10DFE00021F0010101607047016841F00101016009
:10DFF000704700002DE9F04F89B083460C469046EB
:10E00000994601AA2146584607F0E2FA42462146BF
:10E010005846059B07F090FA07461FB1384609B0ED
:10E02000BDE8F08F484607F0A1FA07460FB1384621
:10E03000F5E7019C029D04EB0800461EB6FBF5F0D7
:10E0400005FB106030B1B6FBF5F000F1010A0AFBE8
:10E0500005F0461E0021584607F04FFA0CE024F068
:10E060007F4040F0106008494860584607F088FA41
:10E07000074607B102E02C44B442F0D900BF58462D
:10E0800007F034FA3846CAE70000024010B50446EB
:10E090000CB9042010BD194AD26CC2F303610F29D8
:10E0A00002D14FF4003003E0154A32F811209002FB
:10E0B00000222260606001222272D202E2601148D6
:10E0C00001788015884060610E48283890F82B0050
:10E0D000A061204607F022FA58B100200A490860E2
:10E0E0000A4848600A4888600846E061204600F017
:10E0F00011F800202062606200BFCBE7008004407E
:10E1000088C5010028000240F01700207017002089
:10E11000B017002070B504460CB1E06908B90420BE
:10E1200070BDE569686804F09FFBA86804F08CFB8B
:10E13000022028600020F3E72DE9F04188B08046F6
:10E140000D4614461E461CB9042008B0BDE8F081F7
:10E150006A462946404607F03BFA32462946404681
:10E16000039B07F0E9F907460FB13846EDE7009D3C
:10E170000021404607F0C1F920E001CC1349886036
:10E180000398042805D125F07F4040F0C060486026
:10E190000AE00398082807D101CC0C49C86025F093
:10E1A0007F4040F0E0604860404607F0E9F90746EC
:10E1B00007B105E0039805440398361A002EDCD118
:10E1C00000BF404607F092F93846BEE70000024023
:10E1D0002DE9FF4F89B00C46924601AA21460998C5
:10E1E00007F0F6F952462146069B099807F0A4F974
:10E1F0008146B9F1000F03D048460DB0BDE8F08F5D
:10E2000001AA2146099807F0E3F9019C039F6042A7
:10E21000794208404542A54200D13D44564625E09A
:10E22000A5EB0408B04500D9B0460698B8FBF0FB52
:10E2300024F07F4040F080700E4948604FEA0B4167
:10E240000C98C0B241EA002040F0FF000949886004
:10E25000099807F095F98146B9F1000F01D04846B9
:10E26000CBE7A6EB080644443D4400BF002ED7D1BF
:10E270000020C2E7000002402DE9F04F89B082463D
:10E280000C4617461D46DDE912B8DDF850901DB961
:10E29000042009B0BDE8F08F01AA2146504607F0DE
:10E2A00097F93A4621465046089B07F045F906463D
:10E2B0000EB13046EDE7019C25E024F07F4040F0B0
:10E2C0000070134948606FF07F4040EA0B6088603F
:10E2D0002868C860504607F053F906465EB1B8F1A9
:10E2E000000F01D0C8F80040B9F1000F02D00020A3
:10E2F000C9F8000009E008983F1A0898800805EB63
:10E30000800508980444002FD7D100BF3046C0E7ED
:10E31000000002401AB901238B40836002E0012310
:10E320008B40436070471AB901238B40836002E041
:10E3300001238B4043607047816070478160704764
:10E34000816070478160704781607047816070476D
:10E35000416070474160704741607047416070475D
:10E36000416070474160704700BFEFF3098001468C
:10E370000BF069FA00BFEFF3088001460BF063FA77
:10E3800000BFFEE73348806B40F4F05031498863AA
:10E390004FF4A070304948612020304908602F4870
:10E3A0008438D0F8940040F020002C4910310860E7
:10E3B0004FF4A07028498861402028498439C1F869
:10E3C00084000846D0F8940040F040002349103102
:10E3D000086040F203102049C86120488438D0F812
:10E3E000940020F080001D49103108604FF4A070A7
:10E3F00019494862481519498439C1F8840008460A
:10E40000D0F8940040F400701449103108604FF4C3
:10E41000A07011490862881510498439C1F8840038
:10E420000846D0F8940040F480700C491031086020
:10E4300040F2231008490861102008498439C1F8C6
:10E4400084000846D0F8940020F0100003491031F1
:10E45000086070470080044000B0044084F00F4022
:10E460003348806B40F4F050314988634FF4A0701A
:10E47000304948612020304908602F488438D0F85E
:10E48000940040F020002C49103108604FF4A07037
:10E4900028498861402028498439C1F88400084609
:10E4A000D0F8940040F0400023491031086040F259
:10E4B00003102049C86120488438D0F8940020F027
:10E4C00080001D49103108604FF4A070194948625E
:10E4D000481519498439C1F884000846D0F89400D9
:10E4E00040F400701449103108604FF4A0701149D5
:10E4F0000862881510498439C1F884000846D0F8AC
:10E50000940040F480700C491031086040F22310F0
:10E5100008490861102008498439C1F88400084678
:10E52000D0F8940020F010000349103108607047C3
:10E530000080044000B0044084F00F4008B5002083
:10E5400000900BF009FF08B9002008BD4EF29E7044
:10E550000BF0EAFF08B90020F7E70BF0FDFE08B961
:10E560000020F2E768460BF0BFFE08B90020ECE798
:10E570000120EAE700201EE0052100EB4002144BD9
:10E5800003EB82021171642100EB400203EB820273
:10E590009171002100EB400203EB8202517100EB0C
:10E5A000400203EB8202D17100EB400203EB8202D6
:10E5B0001172411CC8B20128DEDB0121044A9172AC
:10E5C000022151720321D17202491160704700008B
:10E5D000600100207560010070B5002418E004F1AE
:10E5E000B001C8B20AF0E4F900200AF0E1F9102005
:10E5F0000AF0DEF9002507E0074901EBC411485D88
:10E600000AF014FA681CC5B2802DF5DB601CC4B298
:10E61000082CE4DB70BD000008ECFF1F10B50120E2
:10E6200002490870FFF7D8FF10BD00003400002039
:10E630002DE9FF4780460C46914623A103C9CDE949
:10E64000020123A103C9CDE900012046E11704EB33
:10E650005171C1F3C70708F0FF061F4800EBC71050
:10E66000855DB9F1000F0AD12046E11704EB517125
:10E67000C910A4EBC1011DF801100D4009E02046AE
:10E68000E11704EB5171C910A4EBC10102AA515C5E
:10E690000D43114800EBC71085551048007801283C
:10E6A00010D107F1B001C8B20AF082F906F00F00EC
:10E6B0000AF07EF9102101EB16100AF079F92846CC
:10E6C0000AF0B4F9BDE8FF87010204081020408079
:10E6D000FEFDFBF7EFDFBF7F08ECFF1F34000020DB
:10E6E00000200149087070473400002010B500EB8D
:10E6F000810314881C8010BD50F8213062F30A2376
:10E7000040F821307047000010B503480168034805
:10E71000FFF742FA10BD0000A8E0FF1F00C0024052
:10E7200010B5034841680348FFF736FA10BD0000F2
:10E73000A8E0FF1F00D0024030B504460D46064851
:10E74000407820B12946204600F008F830BD29461F
:10E75000204600F04BFBF9E77C150020F0B503469E
:10E760000F4600240120DFF830C4CCF8180000BFA9
:10E7700000BF2020DFF824C4CCF8880000BF00BF11
:10E7800000BF00BF00BF00BF00BF2020DFF80CC4E7
:10E79000CCF8840000BF00BF00BF00BF00BF00BFB7
:10E7A0001A461346FC48836100BF00BF2020DFF8F3
:10E7B000ECC3CCF8880000BF00BF00BF00BF00BFA3
:10E7C00000BF00BF2020DFF8D4C3CCF8840000BF16
:10E7D00000BF00BF00BF00BF00BF14445A0810466E
:10E7E000DFF8B4C3CCF8180000BF00BF2020DFF86A
:10E7F000ACC3CCF8880000BF00BF00BF00BF00BFA3
:10E8000000BF00BF2020DFF894C3CCF8840000BF15
:10E8100000BF00BF00BF00BF00BF14449A081046ED
:10E82000DFF874C3CCF8180000BF00BF2020DFF869
:10E830006CC3CCF8880000BF00BF00BF00BF00BFA2
:10E8400000BF00BF2020DFF854C3CCF8840000BF15
:10E8500000BF00BF00BF00BF00BF1444DA0810466D
:10E86000DFF834C3CCF8180000BF00BF2020DFF869
:10E870002CC3CCF8880000BF00BF00BF00BF00BFA2
:10E8800000BF00BF2020DFF814C3CCF8840000BF15
:10E8900000BF00BF00BF00BF00BF14442046DFF828
:10E8A000F8C2CCF8180000BF00BF2020DFF8ECC28F
:10E8B000CCF8880000BF00BF00BF00BF00BF00BF92
:10E8C00000BF2020DFF8D4C2CCF8840000BF00BF16
:10E8D00000BF00BF00BF00BF0020DFF8BCC2CCF803
:10E8E000180000BF00BF2020DFF8B0C2CCF88800BD
:10E8F00000BF00BF00BF00BF00BF00BF00BF20209F
:10E90000DFF898C2CCF8840000BF00BF00BF00BF92
:10E9100000BF00BF0120DFF880C2CCF8180000BFA4
:10E9200000BF2020DFF874C2CCF8880000BF00BF11
:10E9300000BF00BF00BF00BF00BF2020DFF85CC2E7
:10E94000CCF8840000BF00BF00BF00BF00BF00BF05
:10E9500000BF4FF40070DFF844C2CCF8840000BF61
:10E960008F48017D18E000BF2020DFF830C2CCF8CE
:10E97000880000BF00BF00BF00BF00BF00BF00BFD6
:10E980002020DFF818C2CCF8840000BF00BF00BF11
:10E9900000BF00BF00BF491E0029E4D100BF2020F6
:10E9A000DFF8F8C1CCF8880000BF00BF00BF00BF8F
:10E9B00000BF00BF00BF7B480068024600BF2020A8
:10E9C000DFF8D8C1CCF8840000BF00BF00BF00BF93
:10E9D00000BF00BF164600BF2020DFF8C0C1CCF842
:10E9E000880000BF00BF00BF00BF00BF00BF00BF66
:10E9F0006948D0F81C02024600BF2020DFF89CC105
:10EA0000CCF8840000BF00BF00BF00BF00BF00BF44
:10EA100046EA420600BF2020DFF880C1CCF888001B
:10EA200000BF00BF00BF00BF00BF00BF00BF5D4808
:10EA30000068024600BF2020DFF860C1CCF88400E7
:10EA400000BF00BF00BF00BF00BF00BF46EA820694
:10EA5000012E75D103F00200002873D00025002498
:10EA6000202120E000BF2020DFF830C1CCF8880052
:10EA700000BF00BF00BF00BF00BF00BF00BF4948CC
:10EA80000068024600BF2020DFF810C1CCF88400E7
:10EA900000BF00BF00BF00BF00BF00BF14446D082F
:10EAA00045EAC275491E0029DCD100BF2020DFF8ED
:10EAB000ECC0CCF8880000BF00BF00BF00BF00BFA3
:10EAC00000BF00BF37480068024600BF2020DFF8C3
:10EAD000CCC0CCF8840000BF00BF00BF00BF00BFA7
:10EAE00000BF84EA020000F0010000B1082607B16F
:10EAF0003D602B48017D18E000BF2020DFF89CC05E
:10EB0000CCF8880000BF00BF00BF00BF00BF00BF3F
:10EB100000BF2020DFF884C0CCF8840000BF00BF15
:10EB200000BF00BF00BF00BF491E0029E4D100BFE5
:10EB30004FF40070DFF864C0CCF8880000BF73E0C9
:10EB40009FE0FFE71648017D18E000BF2020DFF8B6
:10EB50004CC0CCF8880000BF00BF00BF00BF00BFA2
:10EB600000BF00BF2020DFF834C0CCF8840000BF15
:10EB700000BF00BF00BF00BF00BF491E0029E4D195
:10EB800000BF4FF40070DFF814C0CCF8880000BF5D
:10EB90003D680024202128E00010FE4300F00F40D3
:10EBA0007C1500201C12FE432846DFF834C2CCF846
:10EBB000180000BF00BF2020DFF828C2CCF8880072
:10EBC00000BF00BF00BF00BF00BF00BF00BF2020CC
:10EBD000DFF810C2CCF8840000BF00BF00BF00BF48
:10EBE00000BF00BF2C446D08491E0029DCD100BFC6
:10EBF0007B48846100BF00BF2020DFF8E8C1CCF86B
:10EC0000880000BF00BF00BF00BF00BF00BF00BF43
:10EC10002020DFF8D0C1CCF8840000BF00BF00BFC7
:10EC200000BF00BF00BF00BF6F48017A09B30020DA
:10EC3000DFF8ACC1CCF8180000BF18E000BF2020FE
:10EC4000DFF8A0C1CCF8880000BF00BF00BF00BF44
:10EC500000BF00BF00BF2020DFF888C1CCF88400CF
:10EC600000BF00BF00BF00BF00BF00BF491E00299A
:10EC7000E4D10120DFF868C1CCF8180000BFF0B281
:10EC8000F0BD022E01D0042E7AD15748407DF8B154
:10EC900003F00200E0B1212118E000BF2020DFF8DE
:10ECA00044C1CCF8880000BF00BF00BF00BF00BF58
:10ECB00000BF00BF2020DFF82CC1CCF8840000BFCB
:10ECC00000BF00BF00BF00BF00BF491E0029E4D144
:10ECD0004548017D18E000BF2020DFF808C1CCF8CE
:10ECE000880000BF00BF00BF00BF00BF00BF00BF63
:10ECF0002020DFF8F0C0CCF8840000BF00BF00BFC8
:10ED000000BF00BF00BF491E0029E4D100BF4FF47F
:10ED10000070DFF8D0C0CCF8880000BF3248407DDA
:10ED200028B303F0020010BB0020DFF8B4C0CCF819
:10ED3000180000BF212118E000BF2020DFF8A4C088
:10ED4000CCF8880000BF00BF00BF00BF00BF00BFFD
:10ED500000BF2020DFF88CC0CCF8840000BF00BFCB
:10ED600000BF00BF00BF00BF491E0029E4D1012041
:10ED7000DFF86CC0CCF8180000BFF0B280E7FFE706
:10ED80001948007D00F1210118E000BF2020DFF8C4
:10ED900054C0CCF8880000BF00BF00BF00BF00BF58
:10EDA00000BF00BF2020DFF83CC0CCF8840000BFCB
:10EDB00000BF00BF00BF00BF00BF491E0029E4D153
:10EDC00000BF4FF40070DFF81CC0CCF8880000BF13
:10EDD0000120DFF80CC0CCF8180000BFF0B24FE7FC
:10EDE0000010FE4300F00F407C15002003B587B0F3
:10EDF0000020039001200190FE490198886100BF26
:10EE000000BF2020FC49086000BFFC48406801901A
:10EE10000198009000BF00BF0098401E009000289D
:10EE2000FAD100BF00BF2020F349091F086000BFCE
:10EE3000F248406801900198009000BF00BF009820
:10EE4000401E00900028FAD100BF07980590059851
:10EE50000190E8490198886100BF00BF2021E64881
:10EE6000016000BFE548406801900198009000BF34
:10EE700000BF0098401E00900028FAD100BF00BFDC
:10EE80002020DD49091F086000BFDC484068019070
:10EE90000198009000BF00BF0098401E009000281D
:10EEA000FAD100BF059903980844039007984008D9
:10EEB000059005980190CF490198886100BF00BF77
:10EEC0002020CD49086000BFCC48406801900198DF
:10EED000009000BF00BF0098401E00900028FAD1AB
:10EEE00000BF00BF2020C449091F086000BFC348FD
:10EEF000406801900198009000BF00BF0098401E3C
:10EF000000900028FAD100BF0599039808440390A7
:10EF100007988008059005980190B6490198886186
:10EF200000BF00BF2020B449086000BFB34840685C
:10EF300001900198009000BF00BF0098401E009013
:10EF40000028FAD100BF00BF2020AB49091F08608C
:10EF500000BFAA48406801900198009000BF00BF20
:10EF60000098401E00900028FAD100BF0599039830
:10EF7000084403900798C0080590059801909D49A2
:10EF80000198886100BF00BF20209B49086000BF36
:10EF90009A48406801900198009000BF00BF009817
:10EFA000401E00900028FAD100BF00BF20209249E7
:10EFB000091F086000BF91484068019001980090C7
:10EFC00000BF00BF0098401E00900028FAD100BF8B
:10EFD0000599039808440390039801908549019886
:10EFE000886100BF00BF20208349086000BF8348BC
:10EFF000406801900198009000BF00BF0098401E3B
:10F0000000900028FAD100BF00BF20207A49091FD4
:10F01000086000BF7948406801900198009000BFE7
:10F0200000BF0098401E00900028FAD100BF019058
:10F0300070490198886100BF00BF20206E490860B8
:10F0400000BF6E48406801900198009000BF00BF6B
:10F050000098401E00900028FAD100BF00BF202079
:10F060006549091F086000BF644840680190019825
:10F07000009000BF00BF0098401E00900028FAD109
:10F0800000BF012001905B490198886100BF00BF6B
:10F0900020205949086000BF5848406801900198F5
:10F0A000009000BF00BF0098401E00900028FAD1D9
:10F0B00000BF00BF20205049091F086000BF4F4813
:10F0C000406801900198009000BF00BF0098401E6A
:10F0D00000900028FAD100BF00BF4FF400704649ED
:10F0E000091F086000BF4548007D029027E000BF6F
:10F0F00020204149086000BF4048406801900198C5
:10F10000009000BF00BF0098401E00900028FAD178
:10F1100000BF00BF20203849091F086000BF3748E2
:10F12000406801900198009000BF00BF0098401E09
:10F1300000900028FAD100BF0298401E0290029869
:10F140000028D4D100BF20202B49086000BF2B48E5
:10F15000406801900198009000BF00BF0098401ED9
:10F1600000900028FAD100BF00BF25480068059034
:10F1700000BF202020498839C1F8840000BF1F4803
:10F18000406801900198009000BF00BF0098401EA9
:10F1900000900028FAD100BF0598069000BF2020FB
:10F1A0001549086000BF154840680190019800901B
:10F1B00000BF00BF0098401E00900028FAD100BF99
:10F1C00000BF0F480068059000BF20200A49883919
:10F1D000C1F8840000BF0948406801900198009080
:10F1E00000BF00BF0098401E00900028FAD100BF69
:10F1F00008E000000010FE4388F00F407C1500205E
:10F200001C12FE43DDE9051040EA4100069000BFF4
:10F210002021FE48016000BFFD4840680190019830
:10F22000009000BF00BF0098401E00900028FAD157
:10F2300000BF00BFF7480068059000BF2020F349D9
:10F240008839C1F8840000BFF148406801900198F6
:10F25000009000BF00BF0098401E00900028FAD127
:10F2600000BFDDE9051040EA8100069006980128FC
:10F270007ED1079800F0020000287AD00020049088
:10F2800003902020029038E000BF2020DF49086072
:10F2900000BFDF48406801900198009000BF00BFA8
:10F2A0000098401E00900028FAD100BF00BFD94846
:10F2B0000068059000BF2020D4498839C1F8840037
:10F2C00000BFD348406801900198009000BF00BF84
:10F2D0000098401E00900028FAD100BF05990398BD
:10F2E00008440390049840080490DDE9040140EAD2
:10F2F000C17004900298401E029002980028C3D169
:10F3000000BF2020C149086000BFC148406801908B
:10F310000198009000BF00BF0098401E0090002898
:10F32000FAD100BF00BFBB480068059000BF202095
:10F33000B6498839C1F8840000BFB54840680190DB
:10F340000198009000BF00BF0098401E0090002868
:10F35000FAD100BF05990398484000F0010008B1B8
:10F3600008200690089810B108990498086001E0F8
:10F3700017E135E0A648007D029027E000BF20207D
:10F38000A249086000BFA24840680190019800901F
:10F3900000BF00BF0098401E00900028FAD100BFB7
:10F3A00000BF20209949091F086000BF98484068A5
:10F3B00001900198009000BF00BF0098401E00908F
:10F3C0000028FAD100BF0298401E0290029800283F
:10F3D000D4D100BF4FF400708C49086000BF9FE09B
:10F3E0008B48007D029027E000BF202087490860FD
:10F3F00000BF8748406801900198009000BF00BF9F
:10F400000098401E00900028FAD100BF00BF2021C4
:10F410007E48001F016000BF7D4840680190019850
:10F42000009000BF00BF0098401E00900028FAD155
:10F4300000BF0298401E029002980028D4D100BF5D
:10F440004FF400717148016000BF08980068049093
:10F45000002003902020029034E0049801906E492F
:10F460000198886100BF00BF20206849086000BF84
:10F470006748406801900198009000BF00BF009865
:10F48000401E00900028FAD100BF00BF20205F4935
:10F49000091F086000BF5E48406801900198009015
:10F4A00000BF00BF0098401E00900028FAD100BFA6
:10F4B000DDE9030108440390049840080490029891
:10F4C000401E029002980028C7D10398019052492B
:10F4D0000198886100BF00BF20204C49086000BF30
:10F4E0004B48406801900198009000BF00BF009811
:10F4F000401E00900028FAD100BF00BF20214348E1
:10F50000001F016000BF42484068019001980090D0
:10F5100000BF00BF0098401E00900028FAD100BF35
:10F520003B48007A0290029888B3002001903A4943
:10F530000198886100BF27E000BF202033490860A0
:10F5400000BF3348406801900198009000BF00BFA1
:10F550000098401E00900028FAD100BF00BF202074
:10F560002A49091F086000BF294840680190019896
:10F57000009000BF00BF0098401E00900028FAD104
:10F5800000BF0298401E029002980028D4D10120AA
:10F59000019021490198886100BF0698C0B209B066
:10F5A00000BD0698022802D0069804287ED118488B
:10F5B000407D98B3079800F0020078B321200290B4
:10F5C00031E000BF20211148016000BF10484068B1
:10F5D00001900198009000BF00BF0098401E00906D
:10F5E0000028FAD100BF00BF20200849091F086089
:10F5F00000BF0748406801900198009000BF00BF1D
:10F600000098401E00900028FAD108E088F00F40D2
:10F610007C1500201C12FE430010FE4306E000BFD4
:10F620000298401E029002980028CAD15C48007DD2
:10F63000029027E000BF20215A48016000BF5848CF
:10F64000406801900198009000BF00BF0098401EE4
:10F6500000900028FAD100BF00BF20205149091FA7
:10F66000086000BF4E48406801900198009000BFBC
:10F6700000BF0098401E00900028FAD100BF0298F9
:10F68000401E029002980028D4D100BF4FF40070B1
:10F690004449086000BF4248407DC8B3079800F065
:10F6A0000200A8BB002001903F4900E039E001982A
:10F6B000886100BF2120029027E000BF2020394947
:10F6C000086000BF3648406801900198009000BF74
:10F6D00000BF0098401E00900028FAD100BF00BF74
:10F6E00020203049091F086000BF2D484068019064
:10F6F0000198009000BF00BF0098401E00900028B5
:10F70000FAD100BF0298401E029002980028D4D17E
:10F710000120019024490198886100BF0698C0B279
:10F720003DE71F48007D2130029027E000BF2020E8
:10F730001C49086000BF1A48406801900198009079
:10F7400000BF00BF0098401E00900028FAD100BF03
:10F7500000BF20201349091F086000BF10484068FF
:10F7600001900198009000BF00BF0098401E0090DB
:10F770000028FAD100BF0298401E0290029800288B
:10F78000D4D100BF4FF400710648016000BF0120D2
:10F79000019005490198886100BF0698C0B2FEE655
:10F7A0007C15002088F00F400010FE4370B5002249
:10F7B000002332E013B911F8012B082302F00104F1
:10F7C0002CB100BF4024174D2C6000BF06E000BFE5
:10F7D0004024144D2D1D2C6000BF00BF00BF20240D
:10F7E000104D2D1D2C6000BF0F4D6C68254600BFCD
:10F7F00000BF6E1E351EFCD100BF00BF2024094D86
:10F800002C6000BF084D6C68254600BF00BF6E1E0F
:10F81000351EFCD100BF52085B1E041EA0F1010082
:10F82000C8D170BD84F00F407C15002010B50F4882
:10F830000068401C0D4908600D48006840B10C4844
:10F840000068401E0A49086010B901200949087083
:10F8500009480078401CC0B2074908700A2803DB39
:10F860000020087007F0CEFF10BD0000000000204F
:10F87000040000200800002009000020084800685B
:10F8800040F47000064908604CF220500549C881D8
:10F890004DF62810C8814FF4E970088070470000C9
:10F8A00088ED00E00020054000BF00BF00BF00BFA2
:10F8B00000BFBFF34F8F00BF00BF00BF0948006803
:10F8C00000F4E06008490843001D0649086000BFD5
:10F8D00000BF00BFBFF34F8F00BF00BF00BF00BF1E
:10F8E00000BFFDE70CED00E00000FA0500BF00BF1F
:10F8F00000BF00BF00BFBFF34F8F00BF00BF00BFFE
:10F900000948006800F4E06008490843001D064902
:10F91000086000BF00BF00BFBFF34F8F00BF00BF34
:10F9200000BF00BF00BFFDE70CED00E00000FA05DE
:10F9300010B5074801680748074A1268904700BF9A
:10F9400000BF00BFBFF34F8F00BF00BF00BF10BD9F
:10F950006417002000A00640A4E0FF1F10B5FFF7C9
:10F96000E7FF00BF00BF00BFBFF34F8F00BF00BF66
:10F9700000BF10BD10B5074841680748074A126824
:10F98000904700BF00BF00BFBFF34F8F00BF00BF55
:10F9900000BF10BD6417002000B00640A4E0FF1FA8
:10F9A00010B5FFF7E7FF00BF00BF00BFBFF34F8FE9
:10F9B00000BF00BF00BF10BDF8B522480479C07871
:10F9C00000F0200008B924F020041E48C07800F0A0
:10F9D000800008B924F0800404F0800070B11A4857
:10F9E00002F0C1FD1749C871174802F08DFD28B912
:10F9F0001448C07820F080001249C87004F020003C
:10FA0000F0B104F0040010B904F0020018B10D4880
:10FA1000C079009014E00B48C6790C4802F05EFDF6
:10FA20000546132D04D93146084802F0B8FD06E01A
:10FA3000064802F098FD3146044802F0B0FD00BFD0
:10FA4000F8BD000000B0064090010020A002002098
:10FA500010B5074881680748074A1268904700BFF9
:10FA600000BF00BFBFF34F8F00BF00BF00BF10BD7E
:10FA70006417002000C00640A4E0FF1F10B5FFF788
:10FA8000E7FF00BF00BF00BFBFF34F8F00BF00BF45
:10FA900000BF10BD2DE9F0474FF00009474800783E
:10FAA0000446074604F00800002870D06BE0434984
:10FAB000103108780509C0F3C006C0F3800865BBA3
:10FAC0005EBB730005F00F0203EB8202012303FB10
:10FAD00008213B4A12F83120C2F38302012A1BD1CC
:10FAE000374A02EBC1025288B2B9364A525D344BF2
:10FAF00003EBC1035A80324A12F8312002F040026F
:10FB000022B188222E4B03F8312003E0C8222C4B6F
:10FB100003F8312040F0010000BF014600BFEFF3C1
:10FB2000108C0CF0010372B600BF1A46DFF898C0C3
:10FB3000DFF898A0DAF800A00CF80A10234B1B6835
:10FB40005B1C4FF0150CB3FBFCFA0CFB1A33DFF80F
:10FB50007CC0CCF80030134603B962B600BF00BFCA
:10FB60000821164A1170B9F1000F05D1134914315B
:10FB7000097801F0200109B1012100E00021894646
:10FB80000E490C7800BF04F0080000288FD12743ED
:10FB900039460F4809F0C5FCB9F1000F01D001202A
:10FBA00000E000200B49097808430A49087003491E
:10FBB0000C7001F019FBBDE8F087000080200740C1
:10FBC0000018002014010020A01D002020010020AA
:10FBD0002401002028010020014600207047000079
:10FBE0000448006804490968401A04490988081A49
:10FBF000704700001CE1FF1F20E1FF1F40CB010008
:10FC000070B506460C460E4800680E4909688842E1
:10FC100013D90B4800680B490968451AAC4200DD4E
:10FC20002C462246074801683046FCF784FC05480C
:10FC3000006820440349086000E00024204670BDAD
:10FC40003CE1FF1F40E1FF1F01460020704700001C
:10FC50002DE9F04707460C46B84624480068244979
:10FC60000968A0EB010923480088A0EB0906002ED3
:10FC700002DC0020BDE8F087B44200DD34460025F8
:10FC80001D4800681D49096888421AD31A4800684F
:10FC900020441B49174A12881144884211D318483E
:10FCA00014490988084414490968451A2A464146F6
:10FCB00011480068FCF73FFCA844641B10480E493B
:10FCC000086054B1224641460B480068FCF733FCFB
:10FCD000094800682044084908602C44034800682B
:10FCE0002044024908602046C4E700001CE1FF1FD1
:10FCF00020E1FF1F40CB010024E1FF1F28E1FF1F8F
:10FD0000E4F0FF1F10B504460648006800B110BDBE
:10FD100001200449086000F007F80020014908604C
:10FD200000BFF4E710E1FF1F70B53848006800B964
:10FD300070BD3748006837490968441A34B93648F5
:10FD4000006818B9002031490860F1E714B333485E
:10FD500000683349096888420FD33048006820445E
:10FD60003049314A12881144884206D32D482E4921
:10FD70000988084429490968441A2C482C490978FB
:10FD800030F81100A04209DA28482949097830F8EA
:10FD9000114003E02048006800B1002400201E4903
:10FDA00008602449097841F0800022461B4909680F
:10FDB00002F01CF9054619480068284417490860F4
:10FDC00014480068284413490860164816490988F1
:10FDD000084412490968884202D112480F49086054
:10FDE0000B4800680B49096888420AD10F4810493E
:10FDF000097830F81100A84203D1012006490860B3
:10FE000002E000200449086000BF91E714E1FF1FF1
:10FE10001CE1FF1F20E1FF1F18E1FF1F28E1FF1F6A
:10FE200024E1FF1FE4F0FF1F40CB010048CB01009D
:10FE3000D5E0FF1F3DCB010010B504461148006816
:10FE400028B111480068401C0F49086010BD01200E
:10FE50000C4908600D49086000F01EF800200B49AD
:10FE60000860084908600A4800680A490968884229
:10FE700006D007490968074A1268881AFFF7E4FEA6
:10FE800000BFE3E72CE1FF1F34E1FF1F30E1FF1F5C
:10FE90003CE1FF1F40E1FF1F70B51D4800681D4990
:10FEA000401A1D490988081A1C491D4A127831F860
:10FEB000121088421FDB164800681649401A16497E
:10FEC00009880D1A2A46124801681648007801F080
:10FED00019FB04460E48006820440D49086012488A
:10FEE000006898B11148006880B90F480068401E4A
:10FEF0000D4908600AE001200D4908600B480068C0
:10FF000020B109480068401C0749086070BD000026
:10FF10003CE1FF1F24F1FF1F42CB010048CB010051
:10FF2000D5E0FF1F3ECB010034E1FF1F30E1FF1F92
:10FF300038E1FF1F10B5044604F0040010B120465C
:10FF4000FFF77AFF04F0080010B12046FFF7DAFE51
:10FF500010BD704701460020704700207047000028
:10FF600010B5104800F072F8D0B10E4800780E4974
:10FF700008700C480088000A48700A480068000CA5
:10FF8000887008480068000EC8700648007908713B
:10FF9000044840794871034880798871012010BD78
:10FFA0000020FCE746E1FF1F22F0FF1F10B50020F4
:10FFB0001549086015490860154908601549086029
:10FFC0001549086015481649086016490860002060
:10FFD0001549086015490860154908601549086009
:10FFE0001548164908601649086000201549088020
:10FFF0004FF4165014490860002008714871082019
:020000040001F9
:10000000887100F035F810BD10E1FF1F14E1FF1FEB
:1000100018E1FF1F1CE1FF1F20E1FF1FE4F0FF1F9D
:1000200024E1FF1F28E1FF1F2CE1FF1F30E1FF1F2C
:1000300034E1FF1F38E1FF1F24F1FF1F3CE1FF1FE8
:1000400040E1FF1F44E1FF1F46E1FF1F0146074853
:100050000068086005480079887104484079487153
:1000600002488079087101207047000050E1FF1FAD
:1000700010B50AF0B3FB07F0DBFB012010BD10B593
:100080000AF0F6FB012010BD014601207047000078
:1000900010B50446206807490860A07908716079A6
:1000A0004871207988710020C87108460AF0F4FB75
:1000B00010BD000050E1FF1F10B500201749086077
:1000C0001749086017490860174908601749086010
:1000D0001748184908601849086000201749086047
:1000E00017490860174908601749086017481849F8
:1000F000086018490860002017490880FFF7BFFF13
:100100004FF4165015490860002008714871082006
:1001100088710846FFF7BCFF10BD000010E1FF1F0B
:1001200014E1FF1F18E1FF1F1CE1FF1F20E1FF1F6B
:10013000E4F0FF1F24E1FF1F28E1FF1F2CE1FF1F58
:1001400030E1FF1F34E1FF1F38E1FF1F24F1FF1FE3
:100150003CE1FF1F40E1FF1F44E1FF1F46E1FF1F9D
:1001600010B5FFF7A9FF10BD10B52A48007800B9F7
:1001700010BD29480068B8B92848006828490968AE
:10018000884211D125480068264988420CD00120B8
:10019000214908602348214908602149086000205E
:1001A000214908601C49086020480068D0B11A48FD
:1001B0000068B8B91C480068A0B901201649086059
:1001C000FFF76AFE002014490860144800681449CB
:1001D0000968884206D011490968114A1268881ACC
:1001E000FFF732FD1248006890B91248006878B9EC
:1001F0001148006811490968401A09D001200C49CA
:1002000008600C490860FFF78FFD0020084908606E
:1002100000BFADE7C7E0FF1F2CE1FF1F3CE1FF1F60
:1002200040E1FF1F24F1FF1F38E1FF1F34E1FF1FF2
:1002300010E1FF1F14E1FF1F1CE1FF1F20E1FF1F62
:1002400070B505463DB102F0B3F80C4908600020D6
:100250000AF0BBFA0FE002F0ABF80446074800686A
:10026000201AB0F5967F03D3012007F0F5FA02E0DB
:10027000002007F0F1FA012070BD000058E1FF1FD7
:1002800000207047014600207047000010B504466A
:10029000024804802046FFF7F7FE10BD44E1FF1F2F
:1002A00010B50E4800780D49497840EA01200B4905
:1002B000897840EA01400949C97840EA0160084963
:1002C000086006480079087104484079487103487D
:1002D000807988710846FFF7DBFE10BD22F0FF1F12
:1002E00046E1FF1F10B508480178084800F056F8AD
:1002F000074908600846006820B1002005490860E9
:1003000000F00AF810BD0000300100206EF1FF1F60
:10031000340100203801002070B50025194800681C
:1003200050B31848006818490988884202D2154815
:10033000006801E0144800880546002408E01348DE
:100340000068204412490968085C12490855641C79
:10035000AC42F4D31049097841F080002A460D4997
:1003600001F044FE0948006828440849086005482F
:100370000068401B034908600248006808B900F0A3
:1003800099F870BD3401002050CB010038010020E5
:10039000400100206EF1FF1F4DCB010070B50546F6
:1003A0000C462948007810B1012836D127E0082CE6
:1003B00000DA38E0284605F0EFFA244908600846DC
:1003C0000068B0F5806F01D9012000E000201F49CE
:1003D000096809B9012100E00021084308B100F0D3
:1003E00069F82146284602F07FF9012803D0012050
:1003F0001549087002E002201349087013E02146F5
:10040000284602F071F9012803D001200E49087036
:1004100002E002200C49087005E000200A4908703B
:1004200000F048F800BF00BF07480078022808D154
:100430000749084803F0B6FC074908600846006809
:1004400070BD0020FCE7000014E0FF1F1CE0FF1F50
:10045000D8E5FF1FD8E1FF1F20E0FF1F10B50446BD
:10046000FFF75AFF10BD000010B50446054802888A
:1004700005490648007801F045F805490870FFF77E
:1004800031FF10BD50CB01006EF1FF1F4ECB0100BC
:100490003001002010B5044604F0040010B12046DD
:1004A000FFF7E2FF04F0080010B12046FFF7D6FF87
:1004B00010BD000000200449086004490860044998
:1004C00008600449087070471CE0FF1F20E0FF1F10
:1004D00018E0FF1F14E0FF1F0020074908600749CC
:1004E0000860074807490860074808490860002075
:1004F00007490870704700001CE0FF1F18E0FF1F4D
:10050000D8E1FF1F3C010020D8E5FF1F400100207B
:1005100014E0FF1F10B50446074804F00F0110F85F
:10052000210020F00201044804F00F0200F822101C
:10053000204601F09BFC10BDC020074070B504466A
:10054000A578A688A07800F0800008B902494E5529
:10055000284601F08BFC70BD14010020704700F0AC
:1005600075BB000060B10E49097841F001010C4AE9
:10057000943A82F894101021094A743211700EE0F6
:100580000749097821F00101054A943A82F894104C
:10059000114691F8081121F0100182F808117047F6
:1005A0009420074010B51048808810490978884287
:1005B00002DD0E48047801E00B48848814B900205D
:1005C0000B490870084822460168802001F00EFDA2
:1005D00004460548006820440349086008468088AE
:1005E000001B888010BD0000D8E0FF1F25CB010054
:1005F000D6E0FF1F10B5084882880168002000F08F
:1006000081FF044604480068204403490860084606
:100610008088001B888010BDD8E0FF1F7047000055
:1006200000F0800151B100F00F00094911F82010CD
:1006300021F00502064901F8202007E0044911F8DD
:10064000201021F00902024901F820207047000023
:10065000C020074000F0800151B100F00F000949AF
:1006600011F8201041F00502064901F8202007E0AA
:10067000044911F8201041F00902024901F8202034
:1006800070470000C020074010B5044604F0020087
:10069000002872D001F07EFCBD490978C809FFF737
:1006A000BDFFBB48C088BB498880B9480078C0F30B
:1006B000411020B101286ED002286DD1C5E0B448A8
:1006C00040780C2869D2DFE800F0060DA21BA229B1
:1006D000464D4E62729501F0D7F800B9DBE0FFF7A6
:1006E00061FF95E0002001F02FF900B9D3E001F09F
:1006F0005BFCA948006810B1A7480068804787E004
:10070000012001F021F900B9C5E001F04DFCA2483B
:10071000006810B1A0480068804779E000BF9C489D
:10072000007800F01F0030B99948807840F08000D0
:100730009A49087001E0002001E000BF012000B9E3
:10074000A9E09649097801F07F00012101F00CFC35
:1007500001F02AFC5CE000F05FFF00B99BE0FFF7CE
:1007600021FF55E097E000BF8948007800F01F00A6
:1007700020B98B488749086002E09FE0002001E033
:1007800000BF012000B986E0FFF70CFF40E001F058
:1007900053F918B97FE03DE07CE038E001F004FC5B
:1007A0008048006810B17F480068804730E000BF93
:1007B0007748007800F01F00012812D178480078AF
:1007C00060B17348007978490978884206DA704840
:1007D0000079764908446F49086001E0002004E090
:1007E00001E0002001E000BF012000B953E0FFF765
:1007F000D9FE0DE001F012FA00B94CE001F0D4FB93
:100800006B48006810B16A480068804700E042E029
:1008100000BF52E05E48007800F01F0020B10128C0
:1008200003D002280FD10DE035E000F09BF900B1B4
:100830000AE000F009FA00B106E000F013F900B197
:1008400002E028E027E026E037E05148007800F099
:100850001F0010B101281AD10CE04D48007904287E
:1008600003D154484B49086000E000BF00BFFFF7C8
:1008700099FE0DE046480079052803D14E484549C8
:10088000086000E000BF00BFFFF78CFE00E002E060
:1008900000BF12E000BF3E480078C00930B93C48B4
:1008A000C08818B1002001F067FB02E0802001F051
:1008B00063FB00203749888000BF00BF04F00400BC
:1008C00098B333480078C00980BB3248808860B351
:1008D000FFF790FE2F48808838BB2D480078C0F382
:1008E000411010B1012818D100E017E02848007825
:1008F00000F01F0020B1012803D002280BD109E02D
:100900000CE000F095F800B106E000F059F800B1F5
:1009100002E003E002E001E007E000BF802001F018
:100920002BFB00201B49888000BF02E0FFE701F09D
:1009300043FB04F00800F0B1154800780121B1EB49
:10094000D01F08D11348808810B91C48007890B196
:10095000FFF728FE0FE01148007800F0800050B14A
:100960000E48007800F07F000C49087000210B4809
:10097000007801F0F9FA04F0400010B10020FFF710
:10098000C9FD04F0800010B18020FFF7C3FD10BD49
:10099000E0E0FF1FD8E0FF1FB8CB0100C6E0FF1F5B
:1009A000C7E0FF1FB0CB0100D4E0FF1F50000020C4
:1009B000B4CB01005C00002084000020D6E0FF1FC3
:1009C00010B51848007918490978884205D01548AB
:1009D000007916490978884222D11248407820B11E
:1009E00002280AD020281AD111E0FFF749FC18B1DB
:1009F00001F0DAFA012010BD11E00A494888FFF73A
:100A000041FC18B101F0D0FA0120F4E707E0FFF74C
:100A100047FC18B101F0C8FA0120ECE700BF00BFA5
:100A20000020E8E7E0E0FF1F3ACB01003BCB0100EC
:100A300010B50A4800790A49097888420CD107485C
:100A40004078092807D100F0ABFB18B101F0ACFAEF
:100A5000012010BD00BF00BF0020FAE7E0E0FF1F4B
:100A600026CB010010B53A4800793A490978884206
:100A700005D03748007938490978884266D134482A
:100A80004078042833D007DC78B1012812D002283E
:100A90001BD0032859D11DE0202832D0212835D081
:100AA00022283ED0232850D145E02C482C4908600C
:100AB000012010BDFFF751FA30B1284828490860DD
:100AC000FFF770FD0120F4E73FE024482449086067
:100AD0000120EEE71E494888FFF73CFA30B11F4875
:100AE0001F490860FFF75EFD0120E2E72DE018498D
:100AF0004888FFF771F818B101F056FA0120D8E7DD
:100B000023E01648164908600120D2E7FFF728FACB
:100B100030B1124812490860FFF744FD0120C8E7D0
:100B200013E00B494888FFF7B1FB18B101F03CFA1C
:100B30000120BEE709E006494888FFF781FB18B1AC
:100B400001F032FA0120B4E700BF00BF0020B0E797
:100B5000E0E0FF1F3ACB01003BCB010022F0FF1F7A
:100B6000D8E0FF1F10B53148007931490978884233
:100B70005AD12E4840780C2855D2DFE800F05406B0
:100B80002E4154545454541D394C00F003FA90B182
:100B90002648C078012803D126482749086006E086
:100BA0002248C078032802D1244823490860FFF76F
:100BB000F9FC012010BD36E01C48C078022803D1A2
:100BC0001F481D49086006E01848C078032802D174
:100BD0001A48194908600120ECE700F0C3F930B168
:100BE000184815490860FFF7DDFC0120E2E71AE02C
:100BF00000F0AEFA18B101F0D7F90120DAE712E0FF
:100C000000F0BEF930B10F480B490860FFF7CAFC8D
:100C10000120CFE707E000F0B9FA18B101F0C4F9FC
:100C20000120C7E700BF00BF0020C3E7E0E0FF1FCF
:100C300026CB010063F0FF1FD8E0FF1F5A00002001
:100C4000A4F0FF1F22F0FF1F0020704700200C4976
:100C500008700C4908600C4908600C4908600C4990
:100C600008800C4908800C4908600C4908600C4950
:100C700008800C4908800C4908600C4908807047BE
:100C8000E8E0FF1FECE0FF1FF0E0FF1FF4E0FF1FB4
:100C9000F8E0FF1FFAE0FF1FFCE0FF1F00E1FF1F6D
:100CA00004E1FF1F06E1FF1F08E1FF1F0CE1FF1F2A
:100CB00070B506466648008866490988884224DB84
:100CC0006548006808BB00206449086060490880E6
:100CD000634801780123421C184609F027FF5D494B
:100CE00008800846008880B15D485C4908605D481E
:100CF0000078012804DC08460068401C086004E015
:100D000054480088401C53490880524800880028F5
:100D10005ED15548006818B100205349086057E07B
:100D200052480068002853D04E48007801281CDC47
:100D30004E48006800284BD00020494908704449BB
:100D400008800223464A521C0021012009F0EEFED1
:100D5000404908800846008818B14148401C3F4976
:100D6000086000204149086032E03D48047800BF37
:100D7000202C00DB00240120A0403C4909680840E9
:100D800010B3601C36490870002031490880601C8F
:100D9000C1B20223324A521C012009F0C7FE2D497C
:100DA00008800846008838B12D482C490860294839
:100DB0000088401C274908800120A0402B49096871
:100DC00081432A48016002E0601CC4B2D0E700BF42
:100DD0002048008810B920480068A0B31D4800884A
:100DE0001B490988401A85B221482249097830F800
:100DF0001100A84204DA1E481E49097830F8115043
:100E00001D49097841F080002A461449096801F01B
:100E1000EDF8124800682844104908600C48008822
:100E200028440B49088008460088144909888842EC
:100E30000ADA0F480F49097830F81100A84203D1A7
:100E400001200549086002E000200349086070BDE8
:100E5000FAE0FF1FF8E0FF1FFCE0FF1FF4E0FF1FB8
:100E600062F0FF1F32CB0100ECE0FF1FF0E0FF1F3C
:100E70002ECB0100D5E0FF1F27CB010034CB0100B2
:100E800038B505462648008848B9264826490860EE
:100E900026480088264908800020214908802448E7
:100EA00000881F490988421A1F48016821480078B4
:100EB00000F028FB84B21C48006820441A490860EE
:100EC0001748008820441649088064B10846008805
:100ED00016490988884206DA17481849097830F80F
:100EE0001100A0421BDD16480078012809DC012012
:100EF00000900B4803880B4A0021022009F0DCFE19
:100F00000AE00120009006480088431E0548017849
:100F1000421C022009F0D0FE00200149088038BDA3
:100F200006E1FF1FA3F0FF1F00E1FF1F36CB01000A
:100F300004E1FF1F28CB01002ECB0100D5E0FF1FED
:100F400033CB010010B5044604F0080010B1204670
:100F5000FFF7AEFE04F0040010B12046FFF790FF4B
:100F600010BD0000034880780349085C03490870FD
:100F700001207047E0E0FF1F5800002022F0FF1F13
:100F800010B509F0D1FD02490870012010BD000024
:100F900022F0FF1F10B500240C48C078012804D0AF
:100FA000022804D0032806D103E0094C03E0002006
:100FB00010BD084C00BF00BF044A9178D0780023D0
:100FC000224609F0B3FD0120F2E70000E0E0FF1F38
:100FD00063F0FF1F5A0000202DE9F04151480078CE
:100FE00000287DD00026504801780078401C4E4AE9
:100FF00010704E48007800EB400204209040401EE4
:10100000814203DB0020484908700126002548483A
:101010000088FF2804DA46480088401C44490880BC
:1010200044484249097830F811004149098888420A
:1010300000D10125002462E04FF000089EB13E4837
:10104000005DFF2804DA3C48005D401C3A49085521
:101050003A48005D38B13848005D3849095D88423A
:1010600001DB4FF001083548005D3049097801EB9C
:1010700041020221914088402E492C4A127831F8D1
:101080001210884204DA2D48005D08B1012000E00A
:10109000002007463DB137B10120A040284909682A
:1010A0000843274908602548005D2649095D8842B4
:1010B00013D02148005D2349095D884209DB0120E6
:1010C000A0401F49096808431D49086000201649CF
:1010D00008701C48005D19490855B8F1000F00E080
:1010E0001EE00AD037B90120A0401549096808431D
:1010F00013490860002010490855601CC4B212480A
:101100000078844298DB15B10020094908800C481A
:10111000006828B10D48008810B90020FFF7C8FD0D
:10112000BDE8F081C7E0FF1F0EE1FF1FD5E0FF1F04
:10113000540000202ACB0100560000205700002058
:10114000F0E0FF1F5800002032CB0100F8E0FF1F45
:101150000B48807830B10A48C2788078401E094B2D
:101160001A540BE0002105E00548C078054A5054A8
:10117000481CC1B2044800788142F5DB0120704769
:10118000E0E0FF1F5800002032CB010010B50349FA
:10119000887809F08FFD012010BD0000E0E0FF1FFE
:1011A00038B500240D48C078012804D0022804D0A6
:1011B000032806D103E0002038BD094C01E0094CAA
:1011C00000BF00BF0020054A0090D3889178D078F6
:1011D000224609F071FD0120EEE70000E0E0FF1F6C
:1011E000A4F0FF1F5A0000202DE9F0474FF0000A3D
:1011F00000BFEFF3108101F0010072B600BF81461D
:101200007F48056800207E4908607E4890F800A06D
:1012100000207C490870484600B962B600BF05F05E
:10122000010048B100F0A6FD09F0AAFD764800686B
:1012300010B175480068804705F0100038B100F023
:10124000C7FE7248006810B170480068804705F01A
:10125000200038B100F074FE6D48006810B16C4891
:101260000068804705F0040028B16A48006810B1A2
:10127000684800688047022D0AD16748006820B19D
:1012800066490878644909688847FF2063490870FF
:1012900005F0080000287DD089E000BF00BFEFF313
:1012A000108303F0010272B600BF11465C4A5D4B29
:1012B0001B68D05C5B4A1268521C1523B2FBF3FC1E
:1012C00003FB1C22574B1A600A4602B962B600BFE4
:1012D00000BF0646C6F30314C6F3C007C6F3800872
:1012E00064BB790004F00F0001EB8000012101FBD9
:1012F00008004D4911F83000C0F383000D281DD1BE
:101300004A48006820F00200484908604648007ECC
:1013100020F08000444908760846007C20F08000D8
:101320000874002042490870424850F8240090B3E5
:10133000404850F824100220884737E0790004F034
:101340000F0001EB8000012101FB0800364911F874
:101350003000C0F3830001280DD11CB906F0010054
:1013600033490870334850F8240020B1314850F810
:10137000241004208847790004F00F0001EB80005E
:10138000012101FB0800284911F83000C0F3830057
:10139000092801E026E009E008D1264850F8240099
:1013A00020B1244850F824100820884700BF00BF0F
:1013B00000BFEFF3108303F0010172B600BF0846CF
:1013C000184909681C4B1B68994201D1012100E0B2
:1013D00000210A46014601B962B600BF00BF002ADB
:1013E0003FF45BAFBAF1000F08D00C480C30007826
:1013F00020F020000949883981F89400BDE8F08781
:10140000240100202801002058CB01005CCB010002
:1014100060CB010068CB01006CCB01008820074045
:10142000A01D00201C010020001800202C0100201D
:101430002901002070CB01002001002010B54020C0
:10144000264908702648406840F4E0202449486056
:101450000846406B40F48020486300F04DF8214876
:10146000007840F08000204981F80C0100BF1D4841
:10147000007800F080000028F9D11C48000A1949C2
:10148000703908701948000C174981F8B0001748E6
:10149000000E144958390870FF20134981F8800064
:1014A0001348006808B1042000E0002040F0190053
:1014B0001049096809B1022100E0002108430A49E6
:1014C000843108704020084981F80001084690F8EE
:1014D0000C0140F0400081F80C0110BD1401002007
:1014E000008004400C210740002007400018002025
:1014F00068CB01006CCB010010B5352000F0E9FD90
:1015000010BD70472DE9F05F05460F4693464FF03A
:10151000000905F00F00002101EB8004384800EBC2
:10152000C400B0F8028065B93648007848B1620856
:10153000012000FA02F1344808F004F80020BDE868
:10154000F09F45B92E4810F83400C0F383000D28F1
:1015500001D14FF00109002605E02C4800EB841072
:10156000805DB855761C4645F7D32948405D24492F
:1015700001EBC4014880610823480068C84000F0BE
:1015800001001F4911F83410C1F38011884217D1AE
:10159000B879F97940EA012AB9F1000F08D0BAF117
:1015A000000F05D16FF00101174807F0A9FF06E011
:1015B0006208012000FA02F1134807F0C3FF00BFE0
:1015C000610811480068C84000F0010058B1482087
:1015D0000B4901F83400084610F8340040F0800050
:1015E00001F834000AE00820054901F834000846F3
:1015F00010F8340040F0800001F8340040469EE7C7
:1016000000180020290100202C010020A018002033
:1016100014010020704700001CB56148007800F0FC
:101620001F0010B1012874D19BE05D48C0780828E4
:1016300070D2DFE800F092041C7092920A47594879
:10164000594908601220009089E05848007808B98C
:1016500000201CBD5648007818B956485249086009
:1016600002E05548504908600A20009077E04F4852
:10167000007828B94E480078012801D10020E8E719
:101680004B48007810B94D48019001E04C4801905A
:10169000002407E00198007818B1019841880844B7
:1016A0000190641C3E488078A042F3D101980078F4
:1016B00008B90020CDE73C490198086001984088AE
:1016C00000904CE03948007808B90020C1E738485C
:1016D000007810B93B48019001E03B48019000249C
:1016E00007E00198007818B10198418808440190FA
:1016F000641C2B488078A042F3D10198007808B987
:101700000020A6E7284901980860019840880090C9
:1017100025E02EE021E02D480190002407E001980B
:10172000007818B10198017808440190641C1C48A5
:101730008078A042F3D11A488078EE2801D124485D
:1017400001900198007808B9002082E716490198B5
:10175000086001980078009001E0002079E700BF60
:1017600009E0694601A800F039F808B9002070E7DF
:1017700001E000206DE700BF0B4880880099884297
:101780000CD9094900988880084680881149097851
:10179000491E084010B901200F490870012058E780
:1017A000E0E0FF1FE6CB0100D8E0FF1F21CB0100E6
:1017B000D5E0FF1FF8CB0100F9CB0100FACB010007
:1017C0007DCC01007ECC01007FCC010080CC0100EB
:1017D00018CD010025CB0100D6E0FF1F02462048AE
:1017E000C078212804D0222824D0232833D130E007
:1017F0001B4800791B4B1B78984201D00020704792
:101800001948007828B919480078012801D100202A
:10181000F5E71648007810B91548106001E0154842
:101820001060154B1B8810681844144B1860092071
:10183000086012E00A4800790A4B1B78984201D0F0
:101840000020DCE70E480D4B18600E480088086049
:1018500003E00020D3E70020D1E700BF0120CEE75E
:10186000E0E0FF1F26CB010021CB0100D5E0FF1FE8
:10187000FACB01007DCC0100E4CB0100D8E0FF1FD2
:10188000C0CB0100E2CB01002748007800F01F0028
:1018900020B1012806D0022841D116E02348244B6C
:1018A00018603EE02348007860B11F480079224B61
:1018B0001B78984206DA0020204B188018461C4BF3
:1018C000186001E0002070472BE01748007900F015
:1018D0008F0101F0800028B101F00F034FF4803038
:1018E000984001E00120884002461248007810B973
:1018F00001F00F0080B912480068104060B1114833
:101900000068104008B1012000E000200B4B188057
:101910001846074B186001E00020D4E701E00020E2
:10192000D1E700BF0120CEE7E0E0FF1FC4E0FF1FCA
:10193000D8E0FF1FC7E0FF1FD4E0FF1F22F0FF1F0A
:10194000C8E0FF1FCCE0FF1F70B5064634480078A2
:1019500000F01F0020B101281DD002285BD11CE03F
:101960002F484088012813D146B100F03DFB2D4897
:10197000008840F002002B4908800BE0002000F0B6
:1019800033FB2848008820F002002649088001E047
:10199000002070BD41E00020FBE72148007900F005
:1019A0008F0404F0800028B104F00F014FF4803060
:1019B000884001E00120A04005461B48007838B36C
:1019C00004F00F0020B319480068284000B3144801
:1019D0004088D8B946B1204600F0CEFA14480068D5
:1019E00028431349086015E012480068284008B1F0
:1019F0000120CEE72046FEF78DFD2046FFF70AFEC8
:101A00000B480068A8430A49086003E00020C0E7CB
:101A10000020BEE701E00020BBE700BF0120B8E7DF
:101A2000E0E0FF1FC4E0FF1FC7E0FF1FC8E0FF1F8B
:101A3000CCE0FF1FD0E0FF1F2DE9F04100266A48EF
:101A4000007800F01F0000286FD1674880780028D8
:101A50006CD06648007830B965480078012802D11A
:101A60000020BDE8F0816248007808B9614D00E0CF
:101A7000614D7FE06878022804D0042853D00528FF
:101A800074D154E0687958498978884247D15648DA
:101A900080785A490870287959490870002403E071
:101AA000002058490855641C574800888442F7D3E1
:101AB000012414E00120A04054490968084010B1F5
:101AC0002046FEF7ADFD4FF48030A0404F49096835
:101AD000084018B144F08000FEF7A2FD641C102CF1
:101AE000E8D34FF0011049490860002048490860D8
:101AF000484908600120FEF731FDE87900F0400018
:101B000030B14548008840F001004349088009E0B1
:101B10004148008820F001003F49088002E06888C1
:101B2000054427E022E0EE7820E058E027E0E6B91F
:101B3000A87800F08F0404F0800028B104F00F01B1
:101B40004FF48030884001E00120A04007462F4834
:101B5000006838432D4908602846FEF7EFFC204610
:101B6000FEF778FD204600F081F900BF00BF28781D
:101B7000054400BF287800287FF47CAF26E00020D1
:101B80001E490870012414E00120A0401F49096883
:101B9000084010B12046FEF743FD4FF48030A040CE
:101BA0001A490968084018B144F08000FEF738FD72
:101BB000641C102CE8D34FF0011014490860002079
:101BC0001349086013490860FEF7C8FC064880788E
:101BD0000A490978884201D0002042E701E000204C
:101BE0003FE700BF01203CE7E0E0FF1F21CB010001
:101BF000D5E0FF1FFACB01007DCC0100C7E0FF1F3D
:101C0000D4E0FF1F5000002022CB0100C8E0FF1FDE
:101C1000CCE0FF1FD0E0FF1FC4E0FF1F2DE9F05F05
:101C20000027B846BB46B9464948007800F01F0077
:101C300001287CD14748007810B90020BDE8F09F0A
:101C40004FF0000A4448007828B944480078012839
:101C500001D10020F2E74148007808B9404C00E08B
:101C6000404C6CE06078022804D004280BD0052892
:101C700061D11EE0607937490978884202D06088D6
:101C800004445CE057E0A77894F803804FF0000923
:101C90002F480079B8420BD12D488078404507D1B4
:101CA0004FF0010A304810F807B0014601F80780EC
:101CB00041E027480079B8423CD1A07800F08F0677
:101CC00006F0800028B106F00F014FF48030884004
:101CD00001E00120B04005461D488078404515D1FF
:101CE0002248006828432149086021480068A84329
:101CF0001F4908602046FEF721FC3046FEF7AAFC8B
:101D0000304600F0B3F849EA050913E0D84511D18F
:101D100009EA050070B915480068A843134908602E
:101D200013480068A84312490860304600E00AE002
:101D3000FEF776FC00BF00BF2078044400BF207887
:101D400000288FD101E0002078E700BF504675E7FA
:101D5000E0E0FF1FC7E0FF1F21CB0100D5E0FF1F20
