:020000040000FA
:10C000000040002025C400003DC400002DD50000E4
:10C0100041C4000043C4000045C40000000000000B
:10C0200000000000000000000000000047C4000005
:10C0300049C40000000000004BC40000DDD900002E
:10C040004FC4000053C4000057C400005BC400008C
:10C0500097C4000097C4000097C4000097C4000074
:10C0600097C4000097C4000097C4000097C4000064
:10C0700097C4000097C4000097C4000097C4000054
:10C080005FC4000097C4000097C4000097C400007C
:10C0900097C4000097C4000097C4000097C4000034
:10C0A00063C4000067C400006BC400006FC40000DC
:10C0B00073C4000077C400007BC400007FC400008C
:10C0C00083C4000069DB00008BC400008FC4000043
:10C0D00093C4000097C4000097C4000097C40000F8
:10C0E00097C4000097C4000097C4000097C40000E4
:10C0F00097C4000097C4000097C4000097C40000D4
:10C1000097C4000097C4000097C4000097C40000C3
:10C1100097C4000045DC000097C4000097C40000ED
:10C1200097C4000097C4000097C4000097C40000A3
:10C1300097C4000097C4000097C4000097C4000093
:10C1400097C4000097C4000097C4000097C4000083
:10C1500097C4000097C4000097C4000097C4000073
:10C3F00097C4000097C4000097C40000FFFFFFFF30
:10C40000FFFFFFFFFFFFFFFFFFFFFFFFFEF9FFFF43
:10C41000DFF80CD000F0B4F800480047D96E0100F6
:10C420000040002072B61D481D4901600A6882F371
:10C4300008881C48804762B61B480047FEE7FEE7B5
:10C44000FEE7FEE7FEE7FEE7FEE7FEE7FEE717484A
:10C450000047174800471748004717480047174844
:10C460000047174800471748004717480047174834
:10C470000047174800471748004717480047174824
:10C480000047174800471748004717480047174814
:10C4900000471748004717480047000008ED00E034
:10C4A00000C000002DDA000011C4000097C4000095
:10C4B00097C4000097C4000097C4000097C4000010
:10C4C00097C4000097C40000ADD90000C5D9000092
:10C4D00097C4000097C4000097C400000DDB000063
:10C4E00097C4000051DB000097C400002DDC000061
:10C4F00097C4000097C40000202A04DB203A00FA09
:10C5000002F1002070479140C2F1200320FA03F3AA
:10C51000194390407047202A04DB203A21FA02F0A8
:10C520000021704721FA02F3D040C2F1200291406D
:10C5300008431946704740EA01039B0703D009E00E
:10C5400008C9121F08C0042AFAD203E011F8013BFF
:10C5500000F8013B521EF9D27047D2B201E000F858
:10C56000012B491EFBD270470022F6E710B5134697
:10C570000A4604461946FFF7F0FF204610BD0000AA
:10C58000064C074D06E0E06840F0010394E8070020
:10C5900098471034AC42F6D3FFF73EFFE8BC0100E9
:10C5A00028BD010070B58C1810F8015B15F0070369
:10C5B00001D110F8013B2A1106D110F8012B03E03C
:10C5C00010F8016B01F8016B5B1EF9D12B0705D444
:10C5D0000023521E0DD401F8013BFAE710F8013B8D
:10C5E000CB1A921C03E013F8015B01F8015B521EA9
:10C5F000F9D5A142D8D3002070BD002070470000BB
:10C6000038B500BF10481149486400BF104800F019
:10C61000CFFA0F4908680F49086000BF0E480F4C59
:10C6200000906379A2792179E07900F095F80C48BF
:10C6300000F072FB0B480C4908600C494FF4E020F5
:10C6400000F0BEF838BD0000000007110080044073
:10C6500004A101004CE0FF1F7FC70000F4A001000F
:10C66000FCA001000087930340E0FF1F006CDC0288
:10C670007047000010B5324800F08AF83048401C7E
:10C6800000F086F82E48801C00F082F82C48C01C70
:10C6900000F07EF82A48001D00F07AF807220021F9
:10C6A000284801F07BF901220C21264801F076F997
:10C6B00003220D21234801F071F9002212212148A3
:10C6C00001F06CF9002213211E4801F067F90722DE
:10C6D00003211C4801F062F9042211211A4801F0DB
:10C6E0005DF900221146194801F058F90122002194
:10C6F000174801F053F901221146154801F04EF98F
:10C7000001220221124801F049F9012204211048B6
:10C7100001F044F9072205210D4801F03FF90722F5
:10C7200006210B4801F03AF907221146084801F0AA
:10C7300035F90848C06840F000700649C86010BD6F
:10C74000090038100090044000A0044000B00440EC
:10C7500000C00440008004402DE9F04107460C462B
:10C7600015461E46DDF81880384600F05BFA434651
:10C7700032462946204600F073FABDE8F08147F2C0
:10C78000305000E000BF011EA0F10100FAD1704757
:10C79000044A02EB10410A68012383401A430A60ED
:10C7A0007047000000700440044A02EB10410A6820
:10C7B000012383401A430A60704700000070044060
:10C7C00070B5024601242748274D05EB10431D682C
:10C7D00001268640B5431D6000BF32B9234840683A
:10C7E00020F48020214B586023E02148084490B178
:10C7F000204B184458B1184428B1184478B909207E
:10C800001A4B98640DE00220184B986409E005204B
:10C81000164B986405E00020144B986401E0002456
:10C8200000BF00BF1148406820F4E02010430F4BC8
:10C8300058600C480C4D05EB10431D6801268640DE
:10C8400035431D6000BFB2F5E02F09D103200A4B2C
:10C8500018700A4890F8400140F080001B1F1870C3
:10C86000204670BD12003410007004400080044067
:10C87000009423FD00CA91FE442107400020074098
:10C8800000B510480068C0F3814020B102280DD0E7
:10C89000032811D10DE000F03DF9B0F5004F02D1B1
:10C8A0004FF4004000E00020014607E00648016820
:10C8B00004E04FF47A7101E0002100BF00BF084698
:10C8C00000BD00000070044050E0FF1F10B500F0F4
:10C8D00063F8044634B100F03BF9B4EBD00F01D853
:10C8E000204610BD0020FCE72DE9F04100F0E2F801
:10C8F000044614B92046BDE8F08116480078C0F31C
:10C90000C205EC4013484078C0F301171148007B82
:10C9100000F0030607B10EB1022E19D1082D14D272
:10C92000DFE805F00405060708090B0F00BF00BF8C
:10C9300000BF00BF00BF640909E01420B4FBF0F49D
:10C9400005E00C20B4FBF0F401E0002400BF00BFC0
:10C950002046D0E70040064070B50D48407800F012
:10C96000020008B1002070BD00F016F804460CB9B2
:10C970002046F8E70648C078C0F341150448C0785F
:10C98000C609044800EB850030F816006043EAE76A
:10C99000004006402CB4010010B505488079C0F372
:10C9A000001010B9FFF7A0FF10BD02480068FBE7B8
:10C9B0000040064044E0FF1F70B50546142D4BD2E1
:10C9C000DFE805F00A0B154A1F4A292D464A423175
:10C9D00035394A4A4A4A3D3F00BF00F0B9F821497B
:10C9E000496C012202EB1171B0FBF1F436E000F06A
:10C9F000AFF81C49496CC1F30361491CB0FBF1F469
:10CA00002CE000F0A5F81749496CC1F30341491C1B
:10CA1000B0FBF1F422E000F0B5F804461EE0FFF7A9
:10CA20002FFF04461AE0FFF751FF044616E000F01E
:10CA30001DF8044612E0FFF78FFF04460EE00A4C93
:10CA40000CE04FF47A7409E000F064F8044605E065
:10CA500000F04EF8044601E0002400BF00BF20466D
:10CA600070BD000000800440006CDC0210B5054879
:10CA7000007800F0020008B9002010BD00F004F8B2
:10CA8000FBE70000004006400748807900F0010005
:10CA900010B90648006870470348007AC0F34201A5
:10CAA00003480068C840F6E70040064044E0FF1F26
:10CAB00048E0FF1F0A49097B01F0030121B1012968
:10CAC00005D0022908D105E00649086806E00649B4
:10CAD000086803E0054801E0002000BF00BF704780
:10CAE000004006404CE0FF1F50E0FF1F006CDC02DE
:10CAF0000648007800F0800030B104488078810951
:10CB000003480068C84070470020FCE7005006401A
:10CB10004CE0FF1F0448007800F0800010B103488B
:10CB2000006870470020FCE7005006404CE0FF1F03
:10CB3000014649F69702914201D8002005E0034AD8
:10CB4000914201D8012000E00220704700127A00D3
:10CB500010B50B498979C1F3810424B1012C05D0AA
:10CB6000022C09D105E0FFF7F7FE07E0FFF78CFF85
:10CB700004E0FFF79FFF01E0002000BF00BF10BDF1
:10CB80000040064010B508494968C1F3014111B1A0
:10CB9000032905D102E0FFF7DFFE03E0034801E0CF
:10CBA000002000BF00BF10BD00800440006CDC020C
:10CBB00070B504462068FFF7BBFF05461748227989
:10CBC000017821F00F011143017000BF00BF01780F
:10CBD00021F0A001A27911430170E279C02303EA98
:10CBE0008212827000BF0E48407820F03C00302155
:10CBF00001EA0511084361790843094948706079E1
:10CC000058B10648007800F0800030B100BF0448F9
:10CC1000807900F002000028F9D070BD0050064075
:10CC20000040064010B501460C48007B00F00300B0
:10CC3000884201D0012200E000220848007B61F315
:10CC40000100064C20733AB140F2DC5300E000BF13
:10CC5000181EA3F10103FAD1002010BD00400640C8
:10CC60002DE9F04706460F4690461D464FF0000955
:10CC70002848C4788079C0F3001038B14FF001091A
:10CC80002448C07880F020002249C87021480078EC
:10CC900020F0FC01382000EAC60001431D48017065
:10CCA000007B00F0030058B91A48407800F00400F7
:10CCB00030B100BF1748807900F002000028F9D099
:10CCC00000BF14488079C0F300100028F9D1B9F1F1
:10CCD000000F01D00F48C470802000EAC710602107
:10CCE00001EA4811084324F0E00140EA0104094840
:10CCF000C47000BF0748C078A042FBD100BF054800
:10CD00008079C0F381000028F9D105B1A84700203F
:10CD1000BDE8F08700400640094A41685164017847
:10CD2000526861F31142064B5A6000BF4178054AD0
:10CD3000126861F39342034B1A6000BF7047000012
:10CD4000008004400070044070B504460D46204643
:10CD500000F036F828B129462046094A1268904763
:10CD600004E029462046074A1268904700BF00BFEA
:10CD700000BFBFF34F8F00BF00BF00BF70BD0000FA
:10CD80005CE0FF1F60E0FF1F21B1026822F48042D7
:10CD9000026003E0026842F48042026070470000D3
:10CDA0000146002006E0054A52F820208A4200D1C0
:10CDB00002E0401C0228F6D300BF7047ECB401002B
:10CDC00001460868C00F70472DE9F84305460C4638
:10CDD00016462846FFF7E4FF3F4951F820804046B9
:10CDE000FFF7E2FC01212846FFF7CEFF284600F0BE
:10CDF000D3F90121284600F0B3F92868374900EA41
:10CE00000107A07F4FF0804101EA8070384394F819
:10CE100020104FF0806202EA81610843E17F9210A6
:10CE200002EA0161084394F821104FF4407202EACB
:10CE3000012108432860627F217F284600F095F990
:10CE4000217833462846626800F04AF800B900BFEE
:10CE5000217805F10C0050F8210020F0FE47207ADF
:10CE6000401E4FF0F04101EAC0603843217B4FF093
:10CE7000806202EA81610843617B521002EA4161EB
:10CE80000843A17B521002EA01610843227805F1B0
:10CE90000C0141F8220020690090217833460122DC
:10CEA000284600F0E1F860690090217833460222BC
:10CEB000284600F0D9F8A069009021783346032273
:10CEC000284600F0D1F80021284600F03DF9284618
:10CED00000F05DF9BDE8F883F8B40100FFCCFFBABB
:10CEE0002DE9FF4F87B081468A464846FFF768FF25
:10CEF00018B900200BB0BDE8F08FDDF824B04FF07A
:10CF0000FF3500200590049001200390002002903E
:10CF1000002427E0002620E0012719E01F4850F8F0
:10CF200024101F4850F8260041430A987843B0FB6C
:10CF3000F1F8C3450BD3ABEB080001900198854293
:10CF400005D9019D05940496CDF8088003977F1CB0
:10CF5000032F01D2002DE1D1761C102E01D2002D1D
:10CF6000DAD1641C042C01D2002DD3D109F10C00BC
:10CF700050F82A000B49084006900398411E069875
:10CF800040EAC171059841EA00400499084309F15B
:10CF90000C0141F82A000298ACE700004CB40100F3
:10CFA0005CB40100F0FFFC7F2DE9F04104460D4622
:10CFB00016461F46DDF818802046FFF701FFB8B37C
:10CFC000B8F1010F06D0B8F1020F1AD0B8F1030F73
:10CFD00045D12EE004F10C0050F8250020F440006B
:10CFE00020F470404FF4400101EA865108434FF4A9
:10CFF000704101EA0731084304F10C0141F82500B2
:10D000002EE004F10C0050F8250020F4401020F42C
:10D0100070604FF4401101EA065108434FF470610B
:10D0200001EA0721084304F10C0141F8250017E04B
:10D0300017E004F10C0050F8250020F4402020F007
:10D04000F0004FF4402101EA86410843F02101EA53
:10D050000711084304F10C0141F8250000E000BF6E
:10D0600000BFBDE8F08100002DE9FF4F85B091467B
:10D070001D46DDF848A00598FFF7A2FE18B900206C
:10D0800009B0BDE8F08F4FF0FF38032004904FF057
:10D090000F0B2948B0FBF5F1284A049852F82000FC
:10D0A0004843274951F82B104843800803902548EE
:10D0B000B0FBF5F0400001900198504509D30023E2
:10D0C0001A46CDF80090DDE90501FFF76DFF0198E4
:10D0D000D6E7002421E0002619E01748B0FBF5F060
:10D0E000164951F824104843154951F82610484371
:10D0F000870857450AD3A7EB0A000290029880459B
:10D1000004D9DDF808800494B3460397761C102EEA
:10D1100002D2B8F1000FE0D1641C042C02D2B8F1A5
:10D12000000FD8D15B46CDF80090DDE904200699C8
:10D13000FFF73AFF0398A3E700286BEE9CB40100C9
:10D14000ACB4010000CA9A3B30B504460B462046F9
:10D15000FFF726FE05460148435530BD64E0FF1F3A
:10D16000026861F3DF720260704710B5134602680F
:10D17000012B05D14FF47C1404EA0144224304E05E
:10D180004FF47C1404EA0144A243026010BD01681C
:10D1900021F0010101607047016841F00101016067
:10D1A000704700002DE9F04F89B083460C46904649
:10D1B000994601AA2146584607F03AFC42462146C4
:10D1C0005846059B07F0E8FB07461FB1384609B0F3
:10D1D000BDE8F08F484607F0F9FB07460FB1384627
:10D1E000F5E7019C029D04EB0800461EB6FBF5F036
:10D1F00005FB106030B1B6FBF5F000F1010A0AFB47
:10D2000005F0461E0021584607F0A7FB0CE024F06D
:10D210007F4040F0106008494860584607F0E0FB46
:10D22000074607B102E02C44B442F0D900BF58468B
:10D2300007F08CFB3846CAE70000024010B50446F0
:10D240000CB9042010BD194AD26CC2F303610F2936
:10D2500002D14FF4003003E0154A32F81120900259
:10D2600000222260606001222272D202E260114834
:10D2700001788015884060610E48283890F82B00AE
:10D28000A061204607F07AFB58B100200A490860E7
:10D290000A4848600A4888600846E061204600F075
:10D2A00011F800202062606200BFCBE700800440DC
:10D2B00030B50100280002402CF2FF1FACF1FF1F27
:10D2C000ECF1FF1F70B504460CB1E06908B9042009
:10D2D00070BDE569686803F0B3FBA86803F0A0FBC4
:10D2E000022028600020F3E72DE9F04188B0804655
:10D2F0000D4614461E461CB9042008B0BDE8F08156
:10D300006A462946404607F093FB32462946404686
:10D31000039B07F041FB07460FB13846EDE7009D40
:10D320000021404607F019FB20E001CC134988603A
:10D330000398042805D125F07F4040F0C060486084
:10D340000AE00398082807D101CC0C49C86025F0F1
:10D350007F4040F0E0604860404607F041FB0746F0
:10D3600007B105E0039805440398361A002EDCD176
:10D3700000BF404607F0EAFA3846BEE70000024028
:10D380002DE9FF4F89B00C46924601AA2146099823
:10D3900007F04EFB52462146069B099807F0FCFA1F
:10D3A0008146B9F1000F03D048460DB0BDE8F08FBB
:10D3B00001AA2146099807F03BFB019C039F6042AC
:10D3C000794208404542A54200D13D44564625E0F9
:10D3D000A5EB0408B04500D9B0460698B8FBF0FBB1
:10D3E00024F07F4040F080700E4948604FEA0B41C6
:10D3F0000C98C0B241EA002040F0FF000949886063
:10D40000099807F0EDFA8146B9F1000F01D04846BE
:10D41000CBE7A6EB080644443D4400BF002ED7D11D
:10D420000020C2E7000002402DE9F04F89B082469B
:10D430000C4617461D46DDE912B8DDF850901DB9BF
:10D44000042009B0BDE8F08F01AA2146504607F03C
:10D45000EFFA3A4621465046089B07F09DFA0646E9
:10D460000EB13046EDE7019C25E024F07F4040F00E
:10D470000070134948606FF07F4040EA0B6088609D
:10D480002868C860504607F0ABFA06465EB1B8F1AE
:10D49000000F01D0C8F80040B9F1000F02D0002001
:10D4A000C9F8000009E008983F1A0898800805EBC1
:10D4B000800508980444002FD7D100BF3046C0E74C
:10D4C000000002401AB901238B40836002E001236F
:10D4D0008B40436070471AB901238B40836002E0A0
:10D4E00001238B40436070478160704781607047C3
:10D4F00081607047816070478160704781607047CC
:10D5000081607047816070478160704741607047FB
:10D5100041607047416070474160704741607047AB
:10D520004160704741607047C160704700F094FAF5
:10D530003A48806B40F4F050384988634FF4A0704B
:10D540003749486120203749086036488438D0F888
:10D55000940040F020003349103108604FF4A0706F
:10D560002F49886140202F498439C1F8840008463A
:10D57000D0F8940040F040002A491031086040F291
:10D5800003102749C86127488438D0F8940020F058
:10D5900080002449103108604FF4A070204948628F
:10D5A000481520498439C1F884000846D0F8940011
:10D5B00040F400701B49103108604FF4A070184906
:10D5C0000862881517498439C1F884000846D0F8E4
:10D5D000940040F480701349103108604FF4A0703B
:10D5E0000F49086110200F498439C1F884000846AA
:10D5F000D0F8940040F010000A491031086040F261
:10D6000003100749C86207488438D0F8940020F412
:10D610000060044910310860704700000080044039
:10D6200000B0044084F00F403A48806B40F4F05062
:10D63000384988634FF4A070374948612020374942
:10D64000086036488438D0F8940040F02000334910
:10D65000103108604FF4A0702F49886140202F4995
:10D660008439C1F884000846D0F8940040F04000A6
:10D670002A491031086040F203102749C861274841
:10D680008438D0F8940020F08000244910310860DC
:10D690004FF4A07020494862481520498439C1F8E8
:10D6A00084000846D0F8940040F400701B49103103
:10D6B00008604FF4A070184908628815174984392A
:10D6C000C1F884000846D0F8940040F480701349F3
:10D6D000103108604FF4A0700F49086110200F4905
:10D6E0008439C1F884000846D0F8940040F0100056
:10D6F0000A491031086040F203100749C862074820
:10D700008438D0F8940020F4006004491031086097
:10D71000704700000080044000B0044084F00F40D7
:10D720003A48806B40F4F050384988634FF4A07059
:10D730003749486120203749086036488438D0F896
:10D74000940040F020003349103108604FF4A0707D
:10D750002F49886140202F498439C1F88400084648
:10D76000D0F8940040F040002A491031086040F29F
:10D7700003102749C86127488438D0F8940020F066
:10D7800080002449103108604FF4A070204948629D
:10D79000481520498439C1F884000846D0F894001F
:10D7A00040F400701B49103108604FF4A070184914
:10D7B0000862881517498439C1F884000846D0F8F2
:10D7C000940040F480701349103108604FF4A07049
:10D7D0000F49086110200F498439C1F884000846B8
:10D7E000D0F8940040F010000A491031086040F26F
:10D7F00003100749C86207488438D0F8940020F421
:10D800000060044910310860704700000080044047
:10D8100000B0044084F00F4000201EE0052100EB22
:10D820004002144B03EB82021171642100EB4002B1
:10D8300003EB82029171002100EB400203EB8202B4
:10D84000517100EB400203EB8202D17100EB400208
:10D8500003EB82021172411CC8B20128DEDB0121F8
:10D86000044A9172022151720321D172024911605E
:10D8700070470000ACEBFF1F4D55010070B5002450
:10D8800018E004F1B001C8B20AF04CFC00200AF024
:10D8900049FC10200AF046FC002507E0074901EB8F
:10D8A000C411485D0AF07CFC681CC5B2802DF5DB14
:10D8B000601CC4B2082CE4DB70BD0000DCEBFF1F71
:10D8C00010B5012002490870FFF7D8FF10BD000015
:10D8D000AC0000202DE9FF4780460C46914623A16D
:10D8E00003C9CDE9020123A103C9CDE90001204606
:10D8F000E11704EB5171C1F3C70708F0FF061F4899
:10D9000000EBC710855DB9F1000F0AD12046E11781
:10D9100004EB5171C910A4EBC1011DF801100D40B9
:10D9200009E02046E11704EB5171C910A4EBC101D5
:10D9300002AA515C0D43114800EBC71085551048F1
:10D940000078012810D107F1B001C8B20AF0EAFB53
:10D9500006F00F000AF0E6FB102101EB16100AF0AA
:10D96000E1FB28460AF01CFCBDE8FF870102040821
:10D9700010204080FEFDFBF7EFDFBF7FDCEBFF1FD9
:10D98000AC0000200020014908707047AC00002066
:10D9900010B500EB810314881C8010BD50F82130B5
:10D9A00062F30A2340F821307047000010B50348A5
:10D9B00001680348FFF7C8F910BD000054E0FF1FDD
:10D9C00000C0024010B5034841680348FFF7BCF9A6
:10D9D00010BD000054E0FF1F00D0024010B50F48FA
:10D9E0000068401C0D4908600D48006840B10C48B3
:10D9F0000068401E0A49086010B9012009490870F2
:10DA000009480078401CC0B2074908700A2803DBA7
:10DA10000020087009F0A0FA10BD00001CE0FF1FF4
:10DA200020E0FF1F24E0FF1F25E0FF1F08480068DB
:10DA300040F47000064908604CF220500549C88146
:10DA40004DF62810C8814FF4E97008807047000037
:10DA500088ED00E00020054000BF00BF00BF00BF10
:10DA600000BFBFF34F8F00BF00BF00BF0948006871
:10DA700000F4E06008490843001D0649086000BF43
:10DA800000BF00BFBFF34F8F00BF00BF00BF00BF8C
:10DA900000BFFDE70CED00E00000FA0500BF00BF8D
:10DAA00000BF00BF00BFBFF34F8F00BF00BF00BF6C
:10DAB0000948006800F4E06008490843001D064971
:10DAC000086000BF00BF00BFBFF34F8F00BF00BFA3
:10DAD00000BF00BF00BFFDE70CED00E00000FA054D
:10DAE00010B5074801680748074A1268904700BF09
:10DAF00000BF00BFBFF34F8F00BF00BF00BF10BD0E
:10DB0000E816002000A00640B000002010B5FFF786
:10DB1000E7FF00BF00BF00BFBFF34F8F00BF00BFD4
:10DB200000BF10BD10B5074841680748074A126892
:10DB3000904700BF00BF00BFBFF34F8F00BF00BFC3
:10DB400000BF10BDE816002000B00640B000002065
:10DB500010B5FFF7E7FF00BF00BF00BFBFF34F8F57
:10DB600000BF00BF00BF10BDF8B522480479C078DF
:10DB700000F0200008B924F020041E48C07800F00E
:10DB8000800008B924F0800404F0800070B11A48C5
:10DB900002F0D5FD1749C871174802F0A1FD28B958
:10DBA0001448C07820F080001249C87004F02000AA
:10DBB000F0B104F0040010B904F0020018B10D48EF
:10DBC000C079009014E00B48C6790C4802F072FD51
:10DBD0000546132D04D93146084802F0CCFD06E075
:10DBE000064802F0ACFD3146044802F0C4FD00BF17
:10DBF000F8BD000000B00640F00100200003002046
:10DC000010B5074881680748074A1268904700BF67
:10DC100000BF00BFBFF34F8F00BF00BF00BF10BDEC
:10DC2000E816002000C00640B000002010B5FFF745
:10DC3000E7FF00BF00BF00BFBFF34F8F00BF00BFB3
:10DC400000BF10BD2DE9F0474FF0000947480078AC
:10DC50000446074604F00800002870D06BE04349F2
:10DC6000103108780509C0F3C006C0F3800865BB11
:10DC70005EBB730005F00F0203EB8202012303FB7E
:10DC800008213B4A12F83120C2F38302012A1BD13A
:10DC9000374A02EBC1025288B2B9364A525D344B60
:10DCA00003EBC1035A80324A12F8312002F04002DD
:10DCB00022B188222E4B03F8312003E0C8222C4BDE
:10DCC00003F8312040F0010000BF014600BFEFF330
:10DCD000108C0CF0010372B600BF1A46DFF898C032
:10DCE000DFF898A0DAF800A00CF80A10234B1B68A4
:10DCF0005B1C4FF0150CB3FBFCFA0CFB1A33DFF87E
:10DD00007CC0CCF80030134603B962B600BF00BF38
:10DD10000821164A1170B9F1000F05D113491431C9
:10DD2000097801F0200109B1012100E000218946B4
:10DD30000E490C7800BF04F0080000288FD127435B
:10DD400039460F480AF069FFB9F1000F01D00120F0
:10DD500000E000200B49097808430A49087003498C
:10DD60000C7002F0DFF9BDE8F0870000802007406A
:10DD7000001A00202CE1FF1FA01F002038E1FF1F28
:10DD80003CE1FF1F40E1FF1F0146002070470000FB
:10DD90000448006804490968401A04490988081AB7
:10DDA0007047000054E1FF1F58E1FF1FE8BA01006F
:10DDB00070B506460C460E4800680E490968884250
:10DDC00013D90B4800680B490968451AAC4200DDBD
:10DDD0002C462246074801683046FEF7ACFB054852
:10DDE000006820440349086000E00024204670BD1C
:10DDF00074E1FF1F78E1FF1F01460020704700001B
:10DE00002DE9F04707460C46B846244800682449E7
:10DE10000968A0EB010923480088A0EB0906002E41
:10DE200002DC0020BDE8F087B44200DD3446002566
:10DE30001D4800681D49096888421AD31A480068BD
:10DE400020441B49174A12881144884211D31848AC
:10DE500014490988084414490968451A2A46414664
:10DE600011480068FEF767FBA844641B10480E4980
:10DE7000086054B1224641460B480068FEF75BFB40
:10DE8000094800682044084908602C440348006899
:10DE90002044024908602046C4E7000054E1FF1F07
:10DEA00058E1FF1FE8BA01005CE1FF1F60E1FF1FBE
:10DEB000B617002010B504460648006800B110BD32
:10DEC00001200449086000F007F8002001490860BB
:10DED00000BFF4E748E1FF1F70B53848006800B99B
:10DEE00070BD3748006837490968441A34B9364864
:10DEF000006818B9002031490860F1E714B33348CD
:10DF000000683349096888420FD3304800682044CC
:10DF10003049314A12881144884206D32D482E498F
:10DF20000988084429490968441A2C482C49097869
:10DF300030F81100A04209DA28482949097830F858
:10DF4000114003E02048006800B1002400201E4971
:10DF500008602449097841F0800022461B4909687D
:10DF600002F00CF905461948006828441749086072
:10DF7000144800682844134908601648164909885F
:10DF8000084412490968884202D112480F490860C2
:10DF90000B4800680B49096888420AD10F481049AC
:10DFA000097830F81100A84203D101200649086021
:10DFB00002E000200449086000BF91E74CE1FF1F28
:10DFC00054E1FF1F58E1FF1F50E1FF1F60E1FF1FF9
:10DFD0005CE1FF1FB6170020E8BA0100F0BA0100AB
:10DFE000D5000020E5BA010010B5044611480068CC
:10DFF00028B111480068401C0F49086010BD01207D
:10E000000C4908600D49086000F01EF800200B491B
:10E010000860084908600A4800680A490968884297
:10E0200006D007490968074A1268881AFFF7E4FE14
:10E0300000BFE3E764E1FF1F6CE1FF1F68E1FF1F22
:10E0400074E1FF1F78E1FF1F70B51D4800681D498E
:10E05000401A1D490988081A1C491D4A127831F8CE
:10E06000121088421FDB164800681649401A1649EC
:10E0700009880D1A2A46124801681648007801F0EE
:10E08000FFFA04460E48006820440D490860124813
:10E09000006898B11148006880B90F480068401EB8
:10E0A0000D4908600AE001200D4908600B4800682E
:10E0B00020B109480068401C0749086070BD000095
:10E0C00074E1FF1FF6170020EABA0100F0BA010060
:10E0D000D5000020E6BA01006CE1FF1F68E1FF1FD8
:10E0E00070E1FF1F10B5044604F0040010B1204693
:10E0F000FFF77AFF04F0080010B12046FFF7DAFEC0
:10E1000010BD704701460020704700207047000096
:10E1100010B5104800F072F8D0B10E4800780E49E2
:10E1200008700C480088000A48700A480068000C13
:10E13000887008480068000EC870064800790871A9
:10E14000044840794871034880798871012010BDE6
:10E150000020FCE77EE1FF1FF416002010B5002030
:10E160001549086015490860154908601549086097
:10E1700015490860154816490860164908600020CE
:10E180001549086015490860154908601549086077
:10E19000154816490860164908600020154908808E
:10E1A0004FF4165014490860002008714871082087
:10E1B000887100F035F810BD48E1FF1F4CE1FF1FEA
:10E1C00050E1FF1F54E1FF1F58E1FF1FB617002069
:10E1D0005CE1FF1F60E1FF1F64E1FF1F68E1FF1FBB
:10E1E0006CE1FF1F70E1FF1FF617002074E1FF1FB5
:10E1F00078E1FF1F7CE1FF1F7EE1FF1F014607481A
:10E2000000680860054800798871044840794871C1
:10E2100002488079087101207047000088E1FF1FE3
:10E2200010B50BF057FB08F0ADFE012010BD10B586
:10E230000BF09AFB012010BD014601207047000041
:10E2400010B50446206807490860A0790871607914
:10E250004871207988710020C87108460BF098FB3E
:10E2600010BD000088E1FF1F10B5002017490860AD
:10E27000174908601749086017490860174908607E
:10E2800017481849086018490860002017490860B5
:10E290001749086017490860174908601748184966
:10E2A000086018490860002017490880FFF7BFFF81
:10E2B0004FF4165015490860002008714871082075
:10E2C00088710846FFF7BCFF10BD000048E1FF1F42
:10E2D0004CE1FF1F50E1FF1F54E1FF1F58E1FF1FFA
:10E2E000B61700205CE1FF1F60E1FF1F64E1FF1F24
:10E2F00068E1FF1F6CE1FF1F70E1FF1FF6170020B0
:10E3000074E1FF1F78E1FF1F7CE1FF1F7EE1FF1F2B
:10E3100010B5FFF7A9FF10BD10B52A48007800B965
:10E3200010BD29480068B8B928480068284909681C
:10E33000884211D125480068264988420CD0012026
:10E3400021490860234821490860214908600020CC
:10E35000214908601C49086020480068D0B11A486B
:10E360000068B8B91C480068A0B9012016490860C7
:10E37000FFF76AFE00201449086014480068144939
:10E380000968884206D011490968114A1268881A3A
:10E39000FFF732FD1248006890B91248006878B95A
:10E3A0001148006811490968401A09D001200C4938
:10E3B00008600C490860FFF78FFD002008490860DD
:10E3C00000BFADE7C700002064E1FF1F74E1FF1F3D
:10E3D00078E1FF1FF617002070E1FF1F6CE1FF1FBF
:10E3E00048E1FF1F4CE1FF1F54E1FF1F58E1FF1FF1
:10E3F0000146012070470020704701460020704709
:10E4000010B50446024804802046FFF715FF10BDF2
:10E410007CE1FF1F10B50E4800780D49497840EAAD
:10E4200001200B49897840EA01400949C97840EA4E
:10E43000016008490860064800790871044840797D
:10E4400048710348807988710846FFF7F9FE10BDCE
:10E45000F41600207EE1FF1F10B508480178084837
:10E4600000F056F8074908600846006820B100200F
:10E470000549086000F00AF810BD000010010020F6
:10E4800040180020140100201801002070B500255C
:10E490001948006850B3184800681849098888422C
:10E4A00002D21548006801E014480088054600249F
:10E4B00008E013480068204412490968085C1249C2
:10E4C0000855641CAC42F4D31049097841F080002F
:10E4D0002A460D4901F052FE0948006828440849BF
:10E4E000086005480068401B03490860024800684E
:10E4F00008B900F099F870BD14010020F8BA0100C5
:10E50000180100202001002040180020F5BA010069
:10E5100070B505460C462948007810B1012836D15F
:10E5200027E0082C00DA38E0284606F06FFC244982
:10E53000086008460068B0F5A06F01D9012000E02E
:10E5400000201F49096809B9012100E000210843A2
:10E5500008B100F069F82146284602F0B1F9012817
:10E5600003D001201549087002E002201349087009
:10E5700013E02146284602F0A3F9012803D0012028
:10E580000E49087002E002200C49087005E00020E6
:10E590000A49087000F048F800BF00BF074800783B
:10E5A000022808D10749084804F026FE07490860F8
:10E5B0000846006870BD0020FCE7000000E0FF1F77
:10E5C00008E0FF1F90E6FF1F90E1FF1F0CE0FF1F18
:10E5D00010B50446FFF75AFF10BD000010B5044601
:10E5E0000548028805490648007801F049F80549C0
:10E5F0000870FFF731FF10BDF8BA01004018002085
:10E60000F6BA01001001002010B5044604F0040021
:10E6100010B12046FFF7E2FF04F0080010B12046D9
:10E62000FFF7D6FF10BD0000002004490860044930
:10E6300008600449086004490870704708E0FF1F3B
:10E640000CE0FF1F04E0FF1F00E0FF1F002008494F
:10E6500008600849086008480849086008480949EE
:10E6600008600020084908700849087070470000D9
:10E6700008E0FF1F04E0FF1F90E1FF1F1C010020C6
:10E6800090E6FF1F2001002000E0FF1F10E0FF1FA9
:10E6900010B50446074804F00F0110F8210020F0DF
:10E6A0000201044804F00F0200F82210204601F095
:10E6B0009BFC10BDC020074070B50446A578A68815
:10E6C000A07800F0800008B902494E55284601F0B4
:10E6D0008BFC70BD2CE1FF1F704700F075BB000084
:10E6E00060B10E49097841F001010C4A943A82F870
:10E6F00094101021094A743211700EE0074909780C
:10E7000021F00101054A943A82F89410114691F8DB
:10E71000081121F0100182F8081170479420074079
:10E7200010B51048808810490978884202DD0E48EB
:10E73000047801E00B48848814B900200B49087064
:10E74000084822460168802001F018FD044605486B
:10E75000006820440349086008468088001B8880C0
:10E7600010BD0000D8000020CDBA0100D600002066
:10E7700010B5084882880168002000F081FF044637
:10E780000448006820440349086008468088001B4C
:10E79000888010BDD80000207047000000F0800184
:10E7A00051B100F00F00094911F8201021F00502C5
:10E7B000064901F8202007E0044911F8201021F053
:10E7C0000902024901F8202070470000C0200740DC
:10E7D00000F0800151B100F00F00094911F820103C
:10E7E00041F00502064901F8202007E0044911F82C
:10E7F000201041F00902024901F820207047000072
:10E80000C020074010B5044604F00200002872D072
:10E8100001F07EFCBD490978C809FFF7BDFFBB4880
:10E82000C088BB498880B9480078C0F3411020B146
:10E8300001286ED002286DD1C5E0B44840780C287C
:10E8400069D2DFE800F0060DA21BA229464D4E62F8
:10E85000729501F0D7F800B9DBE0FFF761FF95E0B2
:10E86000002001F02FF900B9D3E001F065FCA948C0
:10E87000006810B1A7480068804787E0012001F0D8
:10E8800021F900B9C5E001F057FCA248006810B1B9
:10E89000A0480068804779E000BF9C48007800F0FD
:10E8A0001F0030B99948807840F080009A4908707C
:10E8B00001E0002001E000BF012000B9A9E0964975
:10E8C000097801F07F00012101F00CFC01F034FC1B
:10E8D0005CE000F05FFF00B99BE0FFF721FF55E02F
:10E8E00097E000BF8948007800F01F0020B98B48EE
:10E8F0008749086002E09FE0002001E000BF01209E
:10E9000000B986E0FFF70CFF40E001F053F918B9B9
:10E910007FE03DE07CE038E001F00EFC80480068DC
:10E9200010B17F480068804730E000BF774800782A
:10E9300000F01F00012812D17848007860B17348B8
:10E94000007978490978884206DA70480079764972
:10E9500008446F49086001E0002004E001E0002065
:10E9600001E000BF012000B953E0FFF7D9FE0DE040
:10E9700001F012FA00B94CE001F0DEFB6B480068D0
:10E9800010B16A480068804700E042E000BF52E0F2
:10E990005E48007800F01F0020B1012803D0022853
:10E9A0000FD10DE035E000F09BF900B10AE000F076
:10E9B00009FA00B106E000F013F900B102E028E026
:10E9C00027E026E037E05148007800F01F0010B142
:10E9D00001281AD10CE04D480079042803D154488D
:10E9E0004B49086000E000BF00BFFFF799FE0DE053
:10E9F00046480079052803D14E484549086000E0A3
:10EA000000BF00BFFFF78CFE00E002E000BF12E095
:10EA100000BF3E480078C00930B93C48C08818B1F2
:10EA2000002001F067FB02E0802001F063FB002082
:10EA30003749888000BF00BF04F0040098B3334812
:10EA40000078C00980BB3248808860B3FFF790FE31
:10EA50002F48808838BB2D480078C0F3411010B192
:10EA6000012818D100E017E02848007800F01F00C6
:10EA700020B1012803D002280BD109E00CE000F0FE
:10EA800095F800B106E000F059F800B102E003E0AB
:10EA900002E001E007E000BF802001F02BFB002036
:10EAA0001B49888000BF02E0FFE701F04DFB04F046
:10EAB0000800F0B1154800780121B1EBD01F08D152
:10EAC0001348808810B91C48007890B1FFF728FEE1
:10EAD0000FE01148007800F0800050B10E48007837
:10EAE00000F07F000C49087000210B48007801F00D
:10EAF000F9FA04F0400010B10020FFF7C9FD04F05E
:10EB0000800010B18020FFF7C3FD10BDE0000020A1
:10EB1000D800002060BB0100C6000020C700002014
:10EB200058BB0100D400002068E0FF1F5CBB01005F
:10EB300074E0FF1F9CE0FF1FD600002010B51848AE
:10EB4000007918490978884205D015480079164996
:10EB50000978884222D11248407820B102280AD090
:10EB600020281AD111E0FFF746FC18B101F0E4FAB1
:10EB7000012010BD11E00A494888FFF73EFC18B19A
:10EB800001F0DAFA0120F4E707E0FFF743FC18B1DF
:10EB900001F0D2FA0120ECE700BF00BF0020E8E757
:10EBA000E0000020E2BA0100E3BA010010B50A4813
:10EBB00000790A49097888420CD107484078092829
:10EBC00007D100F0ABFB18B101F0B6FA012010BD7F
:10EBD00000BF00BF0020FAE7E0000020CEBA01002D
:10EBE00010B53A4800793A490978884205D0374843
:10EBF000007938490978884266D134484078042839
:10EC000033D007DC78B1012812D002281BD00328AA
:10EC100059D11DE0202832D0212835D022283ED0DD
:10EC2000232850D145E02C482C490860012010BD14
:10EC3000FFF76BFA30B1284828490860FFF770FDEC
:10EC40000120F4E73FE02448244908600120EEE772
:10EC50001E494888FFF756FA30B11F481F4908601F
:10EC6000FFF75EFD0120E2E72DE018494888FFF735
:10EC70008BF818B101F060FA0120D8E723E01648BC
:10EC8000164908600120D2E7FFF742FA30B1124876
:10EC900012490860FFF744FD0120C8E713E00B4963
:10ECA0004888FFF7ADFB18B101F046FA0120BEE736
:10ECB00009E006494888FFF79BFB18B101F03CFAD0
:10ECC0000120B4E700BF00BF0020B0E7E000002053
:10ECD000E2BA0100E3BA0100F4160020D8000020D7
:10ECE00010B5314800793149097888425AD12E4807
:10ECF00040780C2855D2DFE800F054062E415454D9
:10ED00005454541D394C00F003FA90B12648C07891
:10ED1000012803D126482749086006E02248C07828
:10ED2000032802D1244823490860FFF7F9FC012099
:10ED300010BD36E01C48C078022803D11F481D4989
:10ED4000086006E01848C078032802D11A4819491B
:10ED500008600120ECE700F0C3F930B1184815490C
:10ED60000860FFF7DDFC0120E2E71AE000F0AEFAF0
:10ED700018B101F0E1F90120DAE712E000F0BEF984
:10ED800030B10F480B490860FFF7CAFC0120CFE7FC
:10ED900007E000F0B9FA18B101F0CEF90120C7E799
:10EDA00000BF00BF0020C3E7E0000020CEBA010092
:10EDB00035170020D800002072E0FF1F76170020D2
:10EDC000F41600200020704700200C4908700C4900
:10EDD00008600C4908600C4908600C4908800C491F
:10EDE00008800C4908600C4908600C4908800C49EF
:10EDF00008800C4908600C4908807047E800002032
:10EE0000EC000020F0000020F4000020F8000020BA
:10EE1000FA000020FC000020000100200401002076
:10EE200006010020080100200C01002070B50646F4
:10EE30006648008866490988884224DB654800687E
:10EE400008BB002064490860604908806348017875
:10EE50000123421C18460AF063FF5D4908800846FA
:10EE6000008880B15D485C4908605D4800780128F1
:10EE700004DC08460068401C086004E05448008830
:10EE8000401C534908805248008800285ED15548EC
:10EE9000006818B100205349086057E052480068E4
:10EEA000002853D04E48007801281CDC4E480068EA
:10EEB00000284BD0002049490870444908800223AB
:10EEC000464A521C002101200AF02AFF40490880CE
:10EED0000846008818B14148401C3F49086000209E
:10EEE0004149086032E03D48047800BF202C00DB37
:10EEF00000240120A0403C490968084010B3601C70
:10EF000036490870002031490880601CC1B20223D4
:10EF1000324A521C01200AF003FF2D49088008469E
:10EF2000008838B12D482C49086029480088401CC9
:10EF3000274908800120A0402B49096881432A48BD
:10EF4000016002E0601CC4B2D0E700BF2048008826
:10EF500010B920480068A0B31D4800881B490988E3
:10EF6000401A85B221482249097830F81100A84298
:10EF700004DA1E481E49097830F811501D490978F5
:10EF800041F080002A461449096801F0F7F8124858
:10EF900000682844104908600C48008828440B4940
:10EFA0000880084600881449098888420ADA0F4810
:10EFB0000F49097830F81100A84203D10120054912
:10EFC000086002E000200349086070BDFA000020DC
:10EFD000F8000020FC000020F4000020341700207E
:10EFE000DABA0100EC000020F0000020D6BA0100DF
:10EFF000D5000020CFBA0100DCBA010038B50546C3
:10F000002648008848B926482649086026480088CE
:10F0100026490880002021490880244800881F498B
:10F020000988421A1F4801682148007800F028FB2F
:10F0300084B21C48006820441A49086017480088B8
:10F0400020441649088064B108460088164909889A
:10F05000884206DA17481849097830F81100A042AA
:10F060001BDD16480078012809DC012000900B48C0
:10F0700003880B4A002102200AF058FE0AE0012012
:10F08000009006480088431E05480178421C022073
:10F090000AF04CFE00200149088038BD060100201E
:10F0A0007517002000010020DEBA010004010020D5
:10F0B000D0BA0100D6BA0100D5000020DBBA0100A9
:10F0C00010B5044604F0080010B12046FFF7AEFE6C
:10F0D00004F0040010B12046FFF790FF10BD0000BF
:10F0E000034880780349085C034908700120704791
:10F0F000E000002070E0FF1FF416002010B50AF0B9
:10F100000DFE02490870012010BD0000F416002019
:10F1100010B500240C48C078012804D0022804D07F
:10F12000032806D103E0094C03E0002010BD084C81
:10F1300000BF00BF044A9178D078002322460AF02D
:10F14000EFFD0120F2E70000E0000020351700206D
:10F1500072E0FF1F2DE9F0415148007800287DD072
:10F160000026504801780078401C4E4A10704E48E6
:10F17000007800EB400204209040401E814203DBF7
:10F180000020484908700126002548480088FF28CB
:10F1900004DA46480088401C4449088044484249F3
:10F1A000097830F8110041490988884200D10125C9
:10F1B000002462E04FF000089EB13E48005DFF2849
:10F1C00004DA3C48005D401C3A4908553A48005D65
:10F1D00038B13848005D3849095D884201DB4FF09D
:10F1E00001083548005D3049097801EB41020221F0
:10F1F000914088402E492C4A127831F812108842EA
:10F2000004DA2D48005D08B1012000E00020074627
:10F210003DB137B10120A04028490968084327497A
:10F2200008602548005D2649095D884213D02148C1
:10F23000005D2349095D884209DB0120A0401F4988
:10F24000096808431D4908600020164908701C48D9
:10F25000005D19490855B8F1000F00E01EE00AD022
:10F2600037B90120A04015490968084313490860CF
:10F27000002010490855601CC4B21248007884422E
:10F2800098DB15B10020094908800C48006828B1B6
:10F290000D48008810B90020FFF7C8FDBDE8F081D7
:10F2A000C70000200E010020D50000206CE0FF1FE9
:10F2B000D2BA01006EE0FF1F6FE0FF1FF0000020D8
:10F2C00070E0FF1FDABA0100F80000200B488078D8
:10F2D00030B10A48C2788078401E094B1A540BE0BE
:10F2E000002105E00548C078054A5054481CC1B2C9
:10F2F000044800788142F5DB01207047E0000020DF
:10F3000070E0FF1FDABA010010B5034988780AF0EF
:10F310000CFD012010BD0000E000002038B50024E5
:10F320000D48C078012804D0022804D0032806D153
:10F3300003E0002038BD094C01E0094C00BF00BFCC
:10F340000020054A0090D3889178D07822460AF0B0
:10F35000EDFC0120EEE70000E00000207617002021
:10F3600072E0FF1F2DE9F0474FF0000A00BFEFF3F6
:10F37000108101F0010072B600BF81467F48056828
:10F3800000207E4908607E4890F800A000207C495B
:10F390000870484600B962B600BF05F0010048B1E8
:10F3A00000F0A6FD0AF0D4FC7648006810B175485C
:10F3B0000068804705F0100038B100F0D1FE7248B7
:10F3C000006810B170480068804705F0200038B12F
:10F3D00000F074FE6D48006810B16C48006880470A
:10F3E00005F0040028B16A48006810B16848006858
:10F3F0008047022D0AD16748006820B16649087825
:10F40000644909688847FF206349087005F00800CF
:10F4100000287DD089E000BF00BFEFF3108303F028
:10F42000010272B600BF11465C4A5D4B1B68D05C9E
:10F430005B4A1268521C1523B2FBF3FC03FB1C222F
:10F44000574B1A600A4602B962B600BF00BF0646B3
:10F45000C6F30314C6F3C007C6F3800864BB790083
:10F4600004F00F0001EB8000012101FB08004D4971
:10F4700011F83000C0F383000D281DD14A48006800
:10F4800020F00200484908604648007E20F08000D5
:10F49000444908760846007C20F08000087400206B
:10F4A00042490870424850F8240090B3404850F850
:10F4B00024100220884737E0790004F00F0001EBA8
:10F4C0008000012101FB0800364911F83000C0F32B
:10F4D000830001280DD11CB906F0010033490870E2
:10F4E000334850F8240020B1314850F8241004204B
:10F4F0008847790004F00F0001EB8000012101FB37
:10F500000800284911F83000C0F38300092801E001
:10F5100026E009E008D1264850F8240020B124480C
:10F5200050F824100820884700BF00BF00BFEFF349
:10F53000108303F0010172B600BF0846184909683C
:10F540001C4B1B68994201D1012100E000210A46B1
:10F55000014601B962B600BF00BF002A3FF45BAFAD
:10F56000BAF1000F08D00C480C30007820F02000D1
:10F570000949883981F89400BDE8F0873CE1FF1F14
:10F5800040E1FF1F00BB010004BB010008BB0100FC
:10F5900010BB010014BB010088200740A01F002001
:10F5A00034E1FF1F001A002044E1FF1F41E1FF1F6B
:10F5B00018BB010038E1FF1F10B540202649087034
:10F5C0002648406840F4E020244948600846406BE3
:10F5D00040F48020486300F04DF82148007840F066
:10F5E0008000204981F80C0100BF1D48007800F020
:10F5F00080000028F9D11C48000A194970390870A8
:10F600001948000C174981F8B0001748000E14493A
:10F6100058390870FF20134981F8800013480068AA
:10F6200008B1042000E0002040F0190010490968EA
:10F6300009B1022100E0002108430A498431087021
:10F640004020084981F80001084690F80C0140F07C
:10F65000400081F80C0110BD2CE1FF1F0080044028
:10F660000C21074000200740001A002010BB0100B9
:10F6700014BB010010B5352000F0F3FD10BD70473C
:10F680002DE9F05F05460F4693464FF0000905F05F
:10F690000F00002101EB8004384800EBC400B0F8F3
:10F6A000028065B93648007848B16208012000FA46
:10F6B00002F1344809F0C2FA0020BDE8F09F45B9D4
:10F6C0002E4810F83400C0F383000D2801D14FF00C
:10F6D0000109002605E02C4800EB8410805DB85538
:10F6E000761C4645F7D32948405D244901EBC40107
:10F6F0004880610823480068C84000F001001F49A5
:10F7000011F83410C1F38011884217D1B879F97912
:10F7100040EA012AB9F1000F08D0BAF1000F05D173
:10F720006FF00101174809F067FA06E0620801204E
:10F7300000FA02F1134809F081FA00BF610811488C
:10F740000068C84000F0010058B148200B4901F89A
:10F750003400084610F8340040F0800001F834000E
:10F760000AE00820054901F83400084610F8340082
:10F7700040F0800001F8340040469EE7001A002067
:10F7800041E1FF1F44E1FF1FA01A00202CE1FF1FF1
:10F79000704700001CB56148007800F01F0010B1F0
:10F7A000012874D19BE05D48C078082870D2DFE85A
:10F7B00000F092041C7092920A4759485949086017
:10F7C0001220009089E05848007808B900201CBD3C
:10F7D0005648007818B956485249086002E0554822
:10F7E000504908600A20009077E04F48007828B917
:10F7F0004E480078012801D10020E8E74B48007806
:10F8000010B94D48019001E04C480190002407E0F8
:10F810000198007818B10198418808440190641C4F
:10F820003E488078A042F3D10198007808B90020C2
:10F83000CDE73C49019808600198408800904CE071
:10F840003948007808B90020C1E73848007810B975
:10F850003B48019001E03B480190002407E00198FB
:10F86000007818B10198418808440190641C2B4825
:10F870008078A042F3D10198007808B90020A6E76B
:10F8800028490198086001984088009025E02EE002
:10F8900021E02D480190002407E00198007818B17C
:10F8A0000198017808440190641C1C488078A042AB
:10F8B000F3D11A488078EE2801D1244801900198AC
:10F8C000007808B9002082E716490198086001987D
:10F8D0000078009001E0002079E700BF09E0694668
:10F8E00001A800F039F808B9002070E701E0002015
:10F8F0006DE700BF0B488088009988420CD9094900
:10F90000009888800846808811490978491E084077
:10F9100010B901200F490870012058E7E0000020CD
:10F920008EBB0100D8000020C9BA0100D50000201C
:10F93000A0BB0100A1BB0100A2BB010025BC0100CE
:10F9400026BC010027BC010028BC0100C0BC01008E
:10F95000CDBA0100D600002002462048C0782128F8
:10F9600004D0222824D0232833D130E01B4800794A
:10F970001B4B1B78984201D0002070471948007833
:10F9800028B919480078012801D10020F5E7164868
:10F99000007810B91548106001E015481060154B4B
:10F9A0001B8810681844144B18600920086012E086
:10F9B0000A4800790A4B1B78984201D00020DCE706
:10F9C0000E480D4B18600E480088086003E00020C8
:10F9D000D3E70020D1E700BF0120CEE7E000002000
:10F9E000CEBA0100C9BA0100D5000020A2BB0100B7
:10F9F00025BC01008CBB0100D800002068BB0100C1
:10FA00008ABB01002748007800F01F0020B10128C0
:10FA100006D0022841D116E02348244B18603EE06E
:10FA20002348007860B11F480079224B1B78984228
:10FA300006DA0020204B188018461C4B186001E0A5
:10FA4000002070472BE01748007900F08F0101F08B
:10FA5000800028B101F00F034FF48030984001E09E
:10FA60000120884002461248007810B901F00F00CA
:10FA700080B912480068104060B111480068104019
:10FA800008B1012000E000200B4B18801846074BFE
:10FA9000186001E00020D4E701E00020D1E700BFBA
:10FAA0000120CEE7E0000020C4000020D8000020A4
:10FAB000C7000020D4000020F4160020C800002059
:10FAC000CC00002070B506463448007800F01F00D6
:10FAD00020B101281DD002285BD11CE02F484088AE
:10FAE000012813D146B100F047FB2D48008840F0B3
:10FAF00002002B4908800BE0002000F03DFB284865
:10FB0000008820F002002649088001E0002070BD36
:10FB100041E00020FBE72148007900F08F0404F069
:10FB2000800028B104F00F014FF48030884001E0DC
:10FB30000120A04005461B48007838B304F00F00B0
:10FB400020B319480068284000B314484088D8B949
:10FB500046B1204600F0CEFA144800682843134905
:10FB6000086015E012480068284008B10120CEE77F
:10FB70002046FEF78DFD2046FFF70AFE0B48006881
:10FB8000A8430A49086003E00020C0E70020BEE760
:10FB900001E00020BBE700BF0120B8E7E000002043
:10FBA000C4000020C7000020C8000020CC000020B6
:10FBB000D00000202DE9F04100266A48007800F0CE
:10FBC0001F0000286FD16748807800286CD06648F5
:10FBD000007830B965480078012802D10020BDE8DE
:10FBE000F0816248007808B9614D00E0614D7FE026
:10FBF0006878022804D0042853D0052874D154E032
:10FC0000687958498978884247D1564880785A4956
:10FC10000870287959490870002403E000205849E9
:10FC20000855641C574800888442F7D3012414E027
:10FC30000120A04054490968084010B12046FEF751
:10FC4000ADFD4FF48030A0404F490968084018B11D
:10FC500044F08000FEF7A2FD641C102CE8D34FF0A6
:10FC60000110494908600020484908604849086077
:10FC70000120FEF731FDE87900F0400030B1454841
:10FC8000008840F001004349088009E041480088AD
:10FC900020F001003F49088002E06888054427E021
:10FCA00022E0EE7820E058E027E0E6B9A87800F0FE
:10FCB0008F0404F0800028B104F00F014FF480306D
:10FCC000884001E00120A04007462F4800683843E3
:10FCD0002D4908602846FEF7EFFC2046FEF778FD28
:10FCE000204600F081F900BF00BF2878054400BF1E
:10FCF000287800287FF47CAF26E000201E49087099
:10FD0000012414E00120A0401F490968084010B1F7
:10FD10002046FEF743FD4FF48030A0401A490968A1
:10FD2000084018B144F08000FEF738FD641C102C28
:10FD3000E8D34FF00110144908600020134908600F
:10FD400013490860FEF7C8FC064880780A4909781C
:10FD5000884201D0002042E701E000203FE700BFD9
:10FD600001203CE7E0000020C9BA0100D5000020D6
:10FD7000A2BB010025BC0100C7000020D400002068
:10FD800068E0FF1FCABA0100C8000020CC000020B4
:10FD9000D0000020C40000202DE9F05F0027B84605
:10FDA000BB46B9464948007800F01F0001287CD1C5
:10FDB0004748007810B90020BDE8F09F4FF0000AD6
:10FDC0004448007828B944480078012801D100202F
:10FDD000F2E74148007808B9404C00E0404C6CE044
:10FDE0006078022804D004280BD0052861D11EE0D9
:10FDF000607937490978884202D0608804445CE021
:10FE000057E0A77894F803804FF000092F48007955
:10FE1000B8420BD12D488078404507D14FF0010AF8
:10FE2000304810F807B0014601F8078041E0274844
:10FE30000079B8423CD1A07800F08F0606F080002F
:10FE400028B106F00F014FF48030884001E0012016
:10FE5000B04005461D488078404515D122480068CD
:10FE600028432149086021480068A8431F490860C9
:10FE70002046FEF721FC3046FEF7AAFC304600F093
:10FE8000B3F849EA050913E0D84511D109EA05009C
:10FE900070B915480068A843134908601348006802
:10FEA000A84312490860304600E00AE0FEF776FCFD
:10FEB00000BF00BF2078044400BF207800288FD105
:10FEC00001E0002078E700BF504675E7E000002021
:10FED000C7000020C9BA0100D5000020A2BB010064
:10FEE00025BC010068E0FF1FC8000020CC000020F6
:10FEF00010B53520002817DB00F01F0201219140CA
:10FF00002E4A430942F8231000BF00BF00BFBFF3D1
:10FF10004F8F00BF00BF00BF00BF00BF00BFBFF3D7
:10FF20006F8F00BF00BF00BF00BF012404E00021AD
:10FF3000234800F82410641C102CF8D31521214804
:10FF4000FCF712FB00202049086020490860204986
:10FF50000860204908702049087040201F494880E7
:10FF60001F484860C8200870002008721C48803074
:10FF7000486100211948C1610D20114908704FF0F6
:10FF80005530184908600E48C03890F8940040F089
:10FF900002000B492C390870FF20094940390870CC
:10FFA000074938390870091D0870002004492839AC
:10FFB0000870352000F055F910BD000080E100E028
:10FFC000C0200740A01F002034E1FF1F38E1FF1FC1
:10FFD0003CE1FF1F40E1FF1F41E1FF1F001A00202D
:10FFE000A01A002044E1FF1F10B5044604F0800071
:10FFF000F8B104F00F04012000EB440200FA02F112
:020000040001F9
:10000000264808F00AFE022000EB8400244901EB98
:100010008011022000EB8400224A02EBC000416004
:100020000021022000EB8400401C02EBC000416074
:1000300033E0620001209040C143184808F0DCFD25
:100040001948015D04F00F00002202EB8000154A00
:1000500002EBC000418004F00F00002101EB8000A2
:100060000F4901EB801104F00F00002202EB800029
:100070000C4A02EBC0004160882104F00F0000220E
:1000800002EB8000074A02F83010002104F00F0054
:1000900001EB8000401C02F8301010BD44E1FF1F4E
:1000A000A01A0020001A00202CE1FF1F10B5FEF757
:1000B0002FF9BDE81040FEF7B7BA000004480078F9
:1000C00020F020000249843981F884007047000044
:1000D0008420074010B5FFF73DF8BDE81040FEF75B
:1000E0001BB9000019B900F07F02014B1A7070476C
:1000F0009820074000F00F00044911F8201041F04B
:100100000202024901F8202070470000C020074089
:1001100010B5082202490020FFF7B2FA10BD000016
:10012000E00000200348006840F4004001490860F6
:100130007047000014E0FF1F10B500221146802018
:1001400000F01CF810BD000010B503480278034908
:100150000020FFF795FA10BDCDBA0100F41600207B
:100160000448007840F020000249843981F8840076
:100170007047000084200740704700002DE9F041DF
:1001800005468846164605F00F05022000EB85045B
:10019000144901EBC4014E80002706E018F807005F
:1001A000114901EB8411C8557F1CB742F6D3610891
:1001B0000E480068C84000F0010020B188200949BD
:1001C00001F8340003E0C820064901F83400620851
:1001D000012000FA02F1054808F030FD3046BDE884
:1001E000F0810000001A0020A01A002044E1FF1F47
:1001F000002807DB00F01F0201219140024A430959
:1002000042F823107047000080E200E0002817DB6E
:1002100000F01F02012191400A4A430942F82310CD
:1002200000BF00BF00BFBFF34F8F00BF00BF00BFC4
:1002300000BF00BF00BFBFF36F8F00BF00BF00BF94
:100240007047000080E100E0002809DB00F01F0299
:10025000012191404209920002F1E022C2F800110E
:100260007047002809DB00F01F020121914042097C
:10027000920002F1E022C2F80011704702E008C8C3
:10028000121F08C1002AFAD170477047002001E010
:1002900001C1121F002AFBD1704780F310887047FC
:1002A00038B50446200A8DF80000E0B28DF8010050
:1002B00002226946E22006F0F5FA38BD01B50122B6
:1002C0006946E02006F0EEFA08BD10B501220A21C9
:1002D000084600F063F810BD10B502220A21084656
:1002E00000F05CF810BD10B501220A21084600F0AC
:1002F00055F810BD10B52748007810B12548808802
:1003000000B910BD23484078B0B922488088002841
:100310003EDD20484089401C80B21E494881498802
:10032000884235DB02211C48FDF7E8F80020194916
:100330004881012048702BE016484078012827D1D9
:1003400014484089401C80B21249488189888842FB
:100350001EDB1048C088002812DD0E480089401CB2
:1003600080B20C490881C988884202DB0020094913
:1003700008700848007818B9002006498880C0E74E
:10038000002004494881487002210348FDF7C6F85F
:1003900000BFB6E71004002080F00F4070B504469F
:1003A0000D46164604B970BD0948448001468D804B
:1003B000002048814870012008700846C68000204F
:1003C000088102210348FDF7A9F800BFEBE7000010
:1003D0001004002080F00F4010B5044604B910BD91
:1003E000012C00D102240120FFF757FF08480460C8
:1003F000002008490870FFF750FF04E00548007826
:10040000012800D100E0F9E700BF00BFE7E70000E6
:1004100020E0FF1F24E0FF1F70B5054605EB4500F7
:10042000384901EB8004207A062866D2DFE800F024
:10043000030B162C485E2068804718B101202072FB
:10044000002060715CE02068804720B102202072AB
:100450000020607101E00020207251E02068804798
:1004600078B16079401C60716079217988420ADB3B
:10047000A079002802DD0320207204E0052020720C
:1004800001E0002020723BE020688047A8B160793D
:10049000401C60716079A179884210DB04F10B0087
:1004A00006F07AFCE079002804DD042020720020A8
:1004B000607104E00520207201E0052020721FE039
:1004C0002068804778B16079401C60716079E1797B
:1004D00088420ADB04F10A0006F05EFC0420207268
:1004E0000020607101E00520207209E004F10A009B
:1004F00006F052FC0020207202E00020207200BFB3
:1005000000BF70BDACEBFF1F30B5144800684FF45E
:100510007A72B0FBF2F1481EB0F1807F00D31BE08D
:10052000481E4FF0E022506150170F22002804DBD4
:1005300013071C0E0A4B1C5406E013071D0E094B33
:1005400000F00F04241F1D5500BF00204FF0E022D3
:1005500090610720106100BF30BD000040E0FF1F28
:1005600000E400E018ED00E010B590B00024FDF7C5
:100570000FFC0446402C00D9402424B1A1B26846A7
:1005800009F0E6F904468CB121466846FDF738FCCF
:1005900060B104211748FCF7B7FF08211548FCF7A4
:1005A000C3FF202113484038FCF7AEFF09F082FA60
:1005B0000446402C00D9402424B121466846FDF76A
:1005C000F7FB04468CB1A1B2684609F04BFA60B162
:1005D00004210848FCF798FF08210648FCF7A4FF0F
:1005E000202104484038FCF78FFF06F0CBFC10B008
:1005F00010BD000040F00F4070B504460D460020CD
:100600002071401EE0622946204606F071FD08B1C7
:10061000032070BD94F82E1294F82F0241EA0020B6
:100620004AF65521884201D00220F2E794F8690089
:10063000010694F8680041EA004194F8670041EA35
:10064000002094F86610084320F07F400D4988424E
:1006500001D10020DDE794F88500010694F88400BC
:1006600041EA004194F8830041EA002094F88210A6
:10067000084320F07F400349884201D10020C8E7A9
:100680000120C6E74641540010B502460B46002043
:10069000002102E05C5C2044491C9142FAD310BD69
:1006A000024600E0521C107810B110788842F9D14F
:1006B0001078704770B5044600BFEFF3108101F069
:1006C000010072B600BF0546204600F009F8A16897
:1006D000081A461E284600B962B600BF304670BDF3
:1006E00010B5014600BFEFF3108404F0010372B6A9
:1006F00000BF1A46D1E90043A34203D3D1E9004326
:10070000181B04E0D1E9013423440C68181B13467C
:1007100003B962B600BF10BD30B500BFEFF310855E
:1007200005F0010472B600BF2346C1608260002458
:10073000046044601C4604B962B600BF30BD10B509
:10074000014600BFEFF3108404F0010072B600BF51
:1007500002460C68C868035D0868401C08608C6825
:100760000868A04201D300200860104600B962B6B4
:1007700000BF184610BD10B500BFEFF3108404F0A1
:10078000010372B600BF1A464468C368195543682E
:100790005B1C4360D0E90134A34201D300234360D2
:1007A000134603B962B600BF10BD2DE9F041804683
:1007B0000E4617464046FFF793FF0546AF4201D26B
:1007C000384600E028460546002404E04046FFF78E
:1007D000B6FF3055641CAC42F8D32846BDE8F08122
:1007E0002DE9F04180460E4617464046FFF762FF6E
:1007F0000546AF4201D2384600E0284605460024AF
:1008000004E0315D4046FFF7B6FF641CAC42F8D30C
:100810002846BDE8F081000010B54FF4807205490C
:100820000548FFF779FF4FF4807204490448FFF749
:1008300073FF10BD00020020F00100201003002013
:100840000003002010B500240C24002004E0002246
:100850000D490A54411CC8B2A042F8DB20240020F4
:1008600005E0002208490C310A54411CC8B2A042DC
:10087000F7DB0548083800F0ABF8012801D000206C
:1008800010BD0120FCE7000054F1FF1F70B50346C6
:100890000D46586A021D280B1E68B678B0FBF6F4A8
:1008A00000BF02CA09B9002070BD8C4200D202E02C
:1008B000641A121DF5E700BF10682044F4E7000039
:1008C00030B504460A46002306E0E05C1249096898
:1008D0001944124D68545B1C9342F6D30E480068CD
:1008E00010440D4908600E480068801A0C490860E1
:1008F00009480068B0F5A06F01D9FDF795FE0848DA
:10090000006838B90448006820B100200249086036
:10091000012030BD0020FCE704E0FF1F90E1FF1F35
:1009200008E0FF1F0246891E5069801E884201D8D8
:10093000002070479378906A01FB0300F9E70000FC
:100940002DE9F04705460C46207820F04000401E77
:1009500000EB800101EBC00600274FF0010800BF4B
:100960001A48C05D205C1949C95D2144497840EAB4
:100970000129B8F1000F10D0484603F0F1FC804681
:10098000182E07D23146761C35F8110003F0E8FC2A
:10099000404508D00020BDE8F0874FF6FF70814544
:1009A00001D00020F7E7781C07460D28D8D320781F
:1009B00000F0400038B1B8F1000F04D035F816004F
:1009C00008B10020E7E70120E5E70000CEB501000F
:1009D00070B594B00446104E304604F051FF054601
:1009E000012D02D0002014B070BDFF2250216846B6
:1009F000FBF7B3FD502221466846FBF79CFD5022D1
:100A00006946304604F062FF0546012D01D0002002
:100A1000E9E70120E7E7000000F00100002070474F
:100A200010B504461C2204492046FBF784FD601CD7
:100A30000249086010BD000014B50100B800002094
:100A400005490A6802604A68426089688160411C01
:100A5000024A11607047000008B50100B400002090
:100A60002DE9F04704468946B9F1000F06D1E76841
:100A700017B16069B84215D8012713E049462046EE
:100A800004F012FA0646022E02D20120BDE8F087D9
:100A9000701C08B93046F9E76069B04201D93046A8
:100AA000F4E74F463D4600BF6D1C6069A84204D87C
:100AB0000225BD4201D90020E8E72946204604F07E
:100AC000F3F9064606B909E0701C08B1012E01D100
:100AD0003046DBE7BD42E7D10020D7E700BF6FF02B
:100AE00070422946204608F0BAF88046B8F1000F57
:100AF00008D1B9F1000F05D02A464946204608F032
:100B0000AEF88046B8F1000F0BD1E5602069401CBB
:100B100078B12069401E2061607940F00100607169
:100B200007E0B8F1010F02D14FF0FF3000E00120E3
:100B300005462846AAE700002DE9F34F83B0824618
:100B40000498D0F800B001E00BF1010B9BF8000015
:100B50002F28F9D09BF800005C28F5D0DAF81C901B
:100B600000252E4600BF3046761C1BF80040202C86
:100B700003DB2F2C01D05C2C00D11CE0182D03D3FB
:100B8000062005B0BDE8F08FE4B20121204603F055
:100B9000C1FB04460CB90620F3E7802C06DA214697
:100BA0006BA0FFF77DFD08B10620EAE728466D1C23
:100BB00029F81040D7E700BF0BEB0601049801604D
:100BC000202C01DA042000E00020074608E0681E1F
:100BD00039F81040202C02D02E2C00D002E06D1EDF
:100BE000002DF4D100BF0DB90620CAE7002029F876
:100BF00015000B222021DAF8180006F001FA002671
:100C000000E0761C39F816002028FAD039F81600D2
:100C10002E28F6D00EB147F0030700E06D1E25B177
:100C2000681E39F810002E28F8D14FF00008CDF8D2
:100C300008800820019000BF3046761C39F810402B
:100C400004B955E0202C03D02E2C04D1AE4202D0A2
:100C500047F00307F0E7DDE90110884201D2AE4218
:100C600016D101980B2802D147F0030740E0AE42AD
:100C700001D047F00307AE4200D939E02E460820E4
:100C800002900B2001904FEA88604FEA1068D3E78A
:100C9000802C0BDB0021204603F03CFB04461CB1FA
:100CA000A4F180002D490C5C47F0020700BF24B17D
:100CB00021462BA0FFF7F4FC18B15F2447F003078F
:100CC0000FE0412C04DB5A2C02DC48F0020808E05B
:100CD000612C06DB7A2C04DC48F00108A4F120002A
:100CE00084B2DAF818300298411C02911C54A3E730
:100CF00000BFDAF818000078E52803D10520DAF8FB
:100D0000181008700198082803D14FEA88604FEA4C
:100D1000106808F00C000C2803D008F0030003282A
:100D200001D147F0020707F0020058B908F00300AC
:100D3000012801D147F0100708F00C00042801D168
:100D400047F00807DAF81800C772002019E700001A
:100D5000222A3A3C3E3F7C7F000000004EB5010055
:100D60002B2C3B3D5B5D000038B50446200A8DF816
:100D70000000E0B28DF8010002226946E42005F08F
:100D800091FD38BD1CB5012200214FF4824005F0D1
:100D9000D1F8012801D0A5201CBD04F013FE0128C4
:100DA00001D0A520F8E701205A49087000240FE07F
:100DB000012201A944F2020004F09CFE012801D0A6
:100DC000A520E9E7BDF8040000B103E0601CC4B24F
:100DD000022CEDDD00BFBDF8040098B901224E4998
:100DE00044F2121005F0A6F8012801D0A520D3E79F
:100DF00004F0D3FE08B1A520CEE7022045490870D3
:100E00000020C9E782E004F033FF012801D0A520CB
:100E1000C2E7002405E004F0D5FD00B103E0601C4A
:100E2000C4B20A2CF7DB00BF0A2C01DBA520B3E714
:100E30003A484078012803D1002038494870ABE790
:100E4000012269464FF6847004F054FE012801D057
:100E5000A520A1E7BDF8000000F0600000B156E059
:100E600000240FE0012201A944F2020004F042FE36
:100E7000012801D0A5208FE7BDF8040000B103E0F0
:100E8000601CC4B2022CEDDD00BFBDF8040080B9C7
:100E90000122214944F2121005F04CF8012801D03A
:100EA000A52079E704F079FE08B1A52074E70020B9
:100EB00072E71B48007C012811D000240DE018487F
:100EC00030F81400BDF80410884204D10120134901
:100ED0000870002060E7601CC4B2082CEFDBBDF88E
:100EE00004001049098888420BDBBDF804000E4954
:100EF0000988884205DC0B4800880B49098888422C
:100F000004D1012005490870002045E77BE700BFB8
:100F1000002041E7380000203C000020390000207C
:100F2000C801002042000020440000201CB501221E
:100F300000214FF4824004F0FDFF012801D0A520DC
:100F40001CBD04F03FFD012801D0A520F8E70120D9
:100F50003549087063E004F0B3FE012801D0A520F4
:100F6000EEE7002405E004F02DFD00B103E0601C75
:100F7000C4B20A2CF7DB00BF0A2C01DBA520DFE797
:100F80002A484078012803D1002028494870D7E733
:100F9000012269464FF6847004F0ACFD012801D0AF
:100FA000A520CDE7BDF8000000F0600000B137E0FB
:100FB000012201A944F2020004F09CFD012801D0A5
:100FC000A520BDE71A48007C012811D000240DE0BF
:100FD000174830F81400BDF80410884204D10120ED
:100FE000124908700020ABE7601CC4B2082CEFDB8C
:100FF000BDF804000F49098888420BDBBDF80400E6
:101000000D490988884205DC0A4800880A49098890
:10101000884204D1012005490870002090E79AE732
:1010200000BF00208CE700003800002039000020BD
:10103000C8010020420000204400002010B5012219
:1010400000214FF4824004F075FF012801D0A52053
:1010500010BD11480078012801D00020F8E704F005
:1010600007FE012801D0A520F2E702200A490870F6
:10107000002405E004F0A6FC00B103E0601CC4B24B
:101080000A2CF7DB00BF0A2C01DBA520E0E70120DA
:10109000014908700020DBE73800002010B501226C
:1010A00000214FF4824004F045FF012801D0A52023
:1010B00010BD0D480078012801D0A520F8E704F004
:1010C000EBFD012801D0A520F2E7022006490870B7
:1010D00004F078FC012801D0A520E9E701200249AD
:1010E00008700020E4E700003800002010B501225D
:1010F00000214FF4824004F01DFF012801D0A520FB
:1011000010BD0D480078012801D00020F8E704F058
:10111000D7FD012801D0A520F2E70220064908707A
:1011200004F050FC012801D0A520E9E70120024984
:1011300008700020E4E700003800002010B501220C
:10114000002144F2111004F0F5FE012801D0A52081
:1011500010BD002409E0084830F8140018B1002040
:10116000054921F81400601CC4B2082CF3DB0120EF
:10117000014908740020EBE7C801002038B5054696
:10118000E878A97800EB012080B20090012269463E
:1011900044F2111004F0CEFE012801D0A52038BD84
:1011A00000240DE0114830F81400BDF8001088420A
:1011B00004D100200D4921F8140003E0601CC4B2E2
:1011C000082CEFDB00BF002406E0084830F81400CC
:1011D00000B103E0601CC4B2082CF6DB00BF082C91
:1011E00002DB0120014908740020D8E7C801002073
:1011F00010B504F0D3FB012801D0A52010BD04F0E8
:10120000E1FB012801D0A520F8E701200149087081
:101210000020F3E7380000202DE9F84305460E468C
:101220006878297840EA0128002403E0285D3055D9
:10123000601C84B2092CF9DB00243AE004EB440082
:101240000A30295C04EB44000930285C41EA00279D
:1012500004EB44000B30285C0090012269463846BC
:1012600004F068FE012802D0A520BDE8F883012221
:101270006946384604F03EFC012801D0A520F4E779
:1012800004EB44000930295C04EB4400093031547C
:1012900004EB44000A30295C04EB44000A3031546A
:1012A000BDF80000C1B204EB44000B303154601CA7
:1012B00084B24445C2DB0020D7E738B504466078E5
:1012C000217840EA0125E078A17840EA01200090E9
:1012D0000122694644F2020004F02CFE012801D0EC
:1012E000A52038BD012001F00FFC0020F9E72DE911
:1012F000FC4104460E466078217840EA0128E078F7
:10130000A17840EA012720790190002503E0605D83
:101310007055681C85B2092DF9DB00251CE00122FF
:1013200001A9384604F006FE012802D0A520BDE838
:10133000FC8101226946384604F0DCFB012801D01B
:10134000A520F4E7781C87B2BDF80000C1B205F112
:1013500009003154681C85B24545E0DB0020E6E712
:1013600038B50546002405E0002104F108002954A1
:10137000601CC4B2092CF7DB08202872002427E087
:1013800044F2070160180122694604F0B3FB01280A
:1013900001D0A52038BD0020092101EB840168544B
:1013A0000021092000EB8400401C2954BDF80000F6
:1013B0000112092000EB8400801C2954BDF80000B4
:1013C000C1B2092000EB8400C01C2954601CC4B2C7
:1013D000082CD5DB0020DDE72DE9F84305460E4655
:1013E0006878297840EA0128E878A97840EA012756
:1013F000002403E0285D3055601C84B2092CF9DB21
:10140000002413E001226946384604F073FB0128EA
:1014100002D0A520BDE8F883781C87B2BDF8000093
:10142000C1B204F109003154601C84B24445E9DBC7
:101430000020EFE7F8B505460122694644F20600B0
:1014400004F058FB012801D0A520F8BDBDF800002C
:10145000C6B206F00800082800D108262E70002425
:1014600027E044F2070160180122694604F042FBBC
:10147000012801D0A520E8E70020092101EB840123
:1014800068540021092000EB8400401C2954BDF859
:101490000000010A092000EB8400801C2954BDF8DB
:1014A0000000C1B2092000EB8400C01C2954601C5C
:1014B000C4B2B442D5DB0020C7E7000010B5204815
:1014C0000078012801D0A52010BD04F03FFA0128C2
:1014D00001D0A520F8E7022001F016FB01201849F1
:1014E000087004F06FFA012801D0A520ECE7012272
:1014F00000214FF4824004F01DFD012801D0A520F9
:10150000E2E7002414E00F4830F8140070B1002026
:101510000C490874084600EB4401012244F2101003
:1015200004F008FD012801D0A520CDE7601CC4B25D
:10153000082CE8DB00200449487000BFC4E7000025
:1015400038000020C80100203900002010B5012219
:1015500000214FF4824004F0EDFC012801D0A520C9
:1015600010BD0C480078012801D0A520F8E704F050
:1015700014FB012801D0A520F2E7022005490870DC
:1015800000BF04F01FFA0128FBD1034908700020B6
:10159000E6E70000380000203900002038B5054695
:1015A000E878A97800EB012080B2009000240AE0DE
:1015B000164830F81400BDF80010884201D1002010
:1015C00038BD601CC4B2082CF2DB002406E00F48D2
:1015D00030F8140000B903E0601CC4B2082CF6DB3C
:1015E00000BF082C01DBA520EAE70122694644F28E
:1015F000101004F09FFC012801D0A520E0E7BDF801
:101600000000024921F814000020D9E7C801002099
:1016100038B504466078217840EA01200090012224
:10162000694644F2041004F085FC012801D0A5208D
:1016300038BDE078A17840EA012000900122694697
:1016400044F2051004F076FC012801D0A520EFE754
:101650006079217940EA012000900122694644F234
:10166000061004F067FC012801D0A520E0E7E0792E
:10167000A17940EA012000900122694644F2071056
:1016800004F058FC012801D0A520D1E7607A217A26
:1016900040EA012000900122694644F2081004F05B
:1016A00049FC012801D0A520C2E7E07AA17A40EAEE
:1016B000012000900122694644F20A1004F03AFC2D
:1016C000012801D0A520B3E7607B217B40EA0120FF
:1016D00000900122694644F2091004F02BFC012815
:1016E00001D0A520A4E70020A2E7000070B50546C0
:1016F0000E46F748C560066128780006697840EA1A
:101700000140A97840EA0120E9780843F0490860DF
:1017100008460068EF49884201D0A0246EE268794B
:10172000297940EA0120EA498880A879522801D025
:10173000A12463E20421E848FBF7DAFE0821E64829
:10174000FBF7E8FE2021E4484038FBF7D1FE5220A9
:10175000DF498871E879C87108691421FAF704FF34
:10176000DB480661C079252879D026DC132877D09C
:1017700012DC072875D008DC012840D0022862D08E
:10178000032874D006286ED186E010286CD011286A
:101790006BD01228F7D19CE0212867D006DC1428F2
:1017A00070D015286FD02028EDD1D0E022286BD042
:1017B00023286AD02428E6D10DE1362871D00DDC2B
:1017C000A0F1260010284ED2DFE800F0F5F4F3F285
:1017D000F1F04D4D4D4D4D4DEF4D4DEE412874D036
:1017E00006DC372872D03A2871D04028CBD1C1E12D
:1017F00047286DD0602849D07028C4D1E3E101208A
:10180000B34909690872B249096948720020B049B0
:10181000096988720120AE490969C8720020AC4983
:1018200009690873AA4909694873A949096988734C
:10183000A7490969C873A649096908741420A4490D
:1018400088800024D8E1A249096901F1080007F065
:10185000C9FA04464FF405709D498880CCE1D0E078
:101860004FE01FE003E0C5E121E025E082E0984978
:10187000C96801F1080000F0E5FD04461420944910
:101880008880B9E151E057E07FE099E005F08EFBF8
:1018900014208F498880AFE1002414208C4988806F
:1018A000AAE147E10024142089498880A4E10024AA
:1018B0001420874988809FE18549C86800F090FD21
:1018C000044614208249888096E162E142E14CE1BD
:1018D0006AE104218048FBF70BFE08217E48FBF7F4
:1018E00019FE20217C484038FBF702FE7849C96880
:1018F00001F1080000F0F8FF0446142074498880C4
:101900007AE101F03BF8044604217348FBF7F0FD4F
:1019100008217148FBF7ECFD20216F484038FBF7A8
:10192000F9FD14206A49888066E1FAF766FE0446EC
:101930001420674988805FE16549C96801F10800A2
:1019400007F0FEFB044614206149888054E1FFF74C
:10195000B5FD044654B95E49096901F1080008F073
:10196000D3F8044620205A49888002E014205849C0
:10197000888041E100241420554988805748006838
:1019800040F002005549086036E1FFF757FB044676
:1019900094B94F49096901F1080008F0B5F8044607
:1019A00020204B4988800AE0C3E0AAE09EE087E05F
:1019B0007BE06FE063E043E01420454988801BE151
:1019C00000241420424988804448006840F0040004
:1019D0004249086010E1FFF70BFC04466CB9012096
:1019E0003F4948703A49096901F1080008F08CF84C
:1019F000044620203649888002E01420344988803B
:101A0000FAE000241420324988803448006840F00D
:101A10000800324908602E48C068C07A2C49C9685D
:101A2000897A00EB01202F4908802948C068C07BD3
:101A30002749C968897B00EB01202B490880DBE03E
:101A400000241420224988802448006840F01000B7
:101A5000224908601E48C068C07A1D49C968897A51
:101A600000EB01201F4908801948C068C07B184955
:101A7000C968897B00EB01201B490880BCE0002479
:101A80001420134988801548006840F0200013494D
:101A90000860B1E00E49C96801F10800FFF77EFD5A
:101AA000044614200A498880A6E00949C96801F162
:101AB0000800FFF763FB04461420054988809BE07B
:101AC000FFF73CFB0446002414200149888093E082
:101AD000DC010020BADCCDAB40F00F401400002048
:101AE0003900002042000020440000207B49C968E2
:101AF00001F10800FFF78CFD044614207749888027
:101B00007AE0764A126902F10801744AD26802F159
:101B10000800FFF761FC04467048C068007A142191
:101B200001EB00206D49C968497A08436B498880F8
:101B300062E061E06949096901F10800FFF77AFC98
:101B4000044666480069007A142101EB800063496D
:101B5000888051E06149096901F10800FFF700FC44
:101B6000044634205D49888046E014205B49888023
:101B7000002441E0594A126902F10801574AD2682B
:101B800002F10800FFF7B3FB044614205349888094
:101B900032E05249C96801F10800FFF78EFB0446A4
:101BA00014204E49888027E04C4A126902F108014E
:101BB0004A4AD26802F10800FFF72EFB04461420BF
:101BC0004649888018E04648007801280DD14349ED
:101BD000096901F1080007F097FF044620203F49FA
:101BE000888000203E49087003E014203B4988802B
:101BF000F32401E0032400BF00BF00BFAB2037493E
:101C000009690870CD20354909694870DC203349DD
:101C100009698870BA2031490969C8702F488088DD
:101C200000122E49096908712C4800792B4909696D
:101C300048712A4880792949096988712748C079FB
:101C400026490969C871A4B1F32C03D004212548A1
:101C5000FBF760FC08212348FBF74AFC20212148C0
:101C60004038FBF745FC1D48047214201B4988804E
:101C70000FE004211B48FBF73BFC08211948FBF748
:101C800037FC202117484038FBF744FCF420134967
:101C900008721248017A02698088C01E11540F4AE6
:101CA00011699288901EFEF7EFFC0C4948810846A6
:101CB00040890112094802698088801E1154074832
:101CC000817A02698088401E11540748006808B173
:101CD00005F062F90148808870BD0000DC01002039
:101CE0003900002040F00F401400002010B52D48AE
:101CF000007800F0020048B12A48006820F0020095
:101D000028490860FFF722FC04463AE0254800789D
:101D100000F0040048B12348006820F00400214985
:101D20000860FFF7E3F904462BE01E48007800F056
:101D3000200048B11B48006820F0200019490860C5
:101D4000FFF7ACF904461CE01648007800F00800E4
:101D500048B11448006820F0080012490860FFF7F5
