:020000040000FA
:10C000000040002025C400003DC4000045D60000CB
:10C0100041C4000043C4000045C40000000000000B
:10C0200000000000000000000000000047C4000005
:10C0300049C40000000000004BC40000B9DA000051
:10C040004FC4000053C4000057C400005BC400008C
:10C0500097C4000097C4000097C4000097C4000074
:10C0600097C4000097C4000097C4000097C4000064
:10C0700097C4000097C4000097C4000097C4000054
:10C080005FC4000097C4000097C4000097C400007C
:10C0900097C4000097C4000097C4000097C4000034
:10C0A00063C4000067C400006BC400006FC40000DC
:10C0B00073C4000077C400007BC400007FC400008C
:10C0C00083C4000001DC00008BC400008FC40000AA
:10C0D00093C4000097C4000097C4000097C40000F8
:10C0E00097C4000097C4000097C4000097C40000E4
:10C0F00097C4000097C4000097C4000097C40000D4
:10C1000097C4000097C4000097C4000097C40000C3
:10C1100097C40000DDDC000097C4000097C4000055
:10C1200097C4000097C4000097C4000097C40000A3
:10C1300097C4000097C4000097C4000097C4000093
:10C1400097C4000097C4000097C4000097C4000083
:10C1500097C4000097C4000097C4000097C4000073
:10C3F00097C4000097C4000097C40000FFFFFFFF30
:10C40000FFFFFFFFFFFFFFFFFFFFFFFFFEF9FFFF43
:10C41000DFF80CD000F0E4F8004800477D7101001F
:10C420000040002072B61D481D4901600A6882F371
:10C4300008881C48804762B61B480047FEE7FEE7B5
:10C44000FEE7FEE7FEE7FEE7FEE7FEE7FEE717484A
:10C450000047174800471748004717480047174844
:10C460000047174800471748004717480047174834
:10C470000047174800471748004717480047174824
:10C480000047174800471748004717480047174814
:10C4900000471748004717480047000008ED00E034
:10C4A00000C0000009DB000011C4000097C40000B8
:10C4B00097C4000097C4000097C4000097C4000010
:10C4C00097C4000097C4000089DA0000A1DA0000D8
:10C4D00097C4000097C4000097C40000A5DB0000CB
:10C4E00097C40000E9DB000097C40000C5DC000031
:10C4F00097C4000097C40000202A04DB203A00FA09
:10C5000002F1002070479140C2F1200320FA03F3AA
:10C51000194390407047202A04DB203A21FA02F0A8
:10C520000021704721FA02F3D040C2F1200291406D
:10C5300008431946704740EA01039B0703D009E00E
:10C5400008C9121F08C0042AFAD203E011F8013BFF
:10C5500000F8013B521EF9D27047D2B201E000F858
:10C56000012B491EFBD270470022F6E710B5134697
:10C570000A4604461946FFF7F0FF204610BD2DE994
:10C58000F05F0546002092469B4688460646814657
:10C5900040241BE02846414647462246FFF7BBFFA2
:10C5A00053465A46C01A914110D3114618462246A6
:10C5B000FFF7A2FF2D1A67EB01084F462246012024
:10C5C0000021FFF799FF17EB00094E41201EA4F14F
:10C5D0000104DFDC484631462A464346BDE8F09F69
:10C5E000064C074D06E0E06840F0010394E80700C0
:10C5F00098471034AC42F6D3FFF70EFFB0B90100F4
:10C60000F0B9010070B58C1810F8015B15F0070344
:10C6100001D110F8013B2A1106D110F8012B03E0DB
:10C6200010F8016B01F8016B5B1EF9D12B0705D4E3
:10C630000023521E0DD401F8013BFAE710F8013B2C
:10C64000CB1A921C03E013F8015B01F8015B521E48
:10C65000F9D5A142D8D3002070BD0020704700005A
:10C6600038B500BF10481149486400BF104800F0B9
:10C6700031FB0F4908680F49086000BF0E480F4C96
:10C6800000906379A2792179E07900F0F7F80C48FD
:10C6900000F0D4FB0B480C4908600C494FF4E02033
:10C6A00000F020F938BD00000000071100800440B0
:10C6B000E49D010048000020A3C80000D49D0100B3
:10C6C000DC9D0100008793038CE0FF1F006CDC02FF
:10C6D0007047000010B5624800F0ECF86048401C5C
:10C6E00000F0E8F85E48801C00F0E4F85C48C01CEC
:10C6F00000F0E0F85A48001D00F0DCF807220021A5
:10C70000584801F0B9F901220421564801F0B4F962
:10C7100054484068544908405249486003220C215B
:10C72000504801F0A9F903220D214E4801F0A4F967
:10C73000002212214B4801F09FF9002213214948A1
:10C7400001F09AF9474880684749084045498860A0
:10C7500007220321434801F08FF94248006942490A
:10C76000084040490861012205213E4801F084F952
:10C770003C4840693C490840801C3A4948610122D4
:10C7800013213A4801F078F901221221374801F0CB
:10C7900073F901220221354801F06EF901220321CB
:10C7A000324801F069F904221021304801F064F99F
:10C7B000002211462E4801F05FF901220A212C487F
:10C7C00001F05AF901220221294801F055F901220C
:10C7D0000321274801F050F901220421244801F0E7
:10C7E0004BF901220821224801F046F901220921D2
:10C7F0001F4801F041F9012200211E4801F03CF9D7
:10C80000012211461B4801F037F903220221194881
:10C8100001F032F901221146154801F02DF90122EB
:10C820000421144801F028F907220521114801F0DC
:10C8300023F9072206210F4801F01EF907221146AD
:10C840000C4801F019F90C48C06820F003700A493F
:10C85000C8600846006920F03000086110BD000083
:10C860000900381000900440FDFFFFFE00A00440C6
:10C8700000B0044000C00440008004402DE9F041B5
:10C8800007460C4615461E46DDF81880384600F06F
:10C890005BFA434632462946204600F073FABDE86B
:10C8A000F08147F2305000E000BF011EA0F101000E
:10C8B000FAD17047044A02EB10410A680123834011
:10C8C0001A430A607047000000700440044A02EBFB
:10C8D00010410A68012383401A430A607047000030
:10C8E0000070044070B5024601242748274D05EB2F
:10C8F00010431D6801268640B5431D6000BF32B954
:10C900002348406820F48020214B586023E02148D0
:10C91000084490B1204B184458B1184428B1184429
:10C9200078B909201A4B98640DE00220184B9864DE
:10C9300009E00520164B986405E00020144B98642C
:10C9400001E0002400BF00BF1148406820F4E0204F
:10C9500010430F4B58600C480C4D05EB10431D68FD
:10C960000126864035431D6000BFB2F5E02F09D196
:10C9700003200A4B18700A4890F8400140F08000EC
:10C980001B1F1870204670BD120034100070044048
:10C9900000800440009423FD00CA91FE442107401A
:10C9A0000020074000B510480068C0F3814020B166
:10C9B00002280DD0032811D10DE000F03DF9B0F5AB
:10C9C000004F02D14FF4004000E00020014607E094
:10C9D0000648016804E04FF47A7101E0002100BFCD
:10C9E00000BF084600BD0000007004404C0000205D
:10C9F00010B500F063F8044634B100F03BF9B4EB35
:10CA0000D00F01D8204610BD0020FCE72DE9F041F1
:10CA100000F0E2F8044614B92046BDE8F08116485B
:10CA20000078C0F3C205EC4013484078C0F301170A
:10CA30001148007B00F0030607B10EB1022E19D198
:10CA4000082D14D2DFE805F00405060708090B0FCE
:10CA500000BF00BF00BF00BF00BF640909E0142091
:10CA6000B4FBF0F405E00C20B4FBF0F401E000248A
:10CA700000BF00BF2046D0E70040064070B50D481B
:10CA8000407800F0020008B1002070BD00F016F8F8
:10CA900004460CB92046F8E70648C078C0F34115B3
:10CAA0000448C078C609044800EB850030F8160039
:10CAB0006043EAE700400640F4B0010010B50548C5
:10CAC0008079C0F3001010B9FFF7A0FF10BD024835
:10CAD0000068FBE7004006404000002070B50546B6
:10CAE000142D4BD2DFE805F00A0B154A1F4A292DF9
:10CAF000464A423135394A4A4A4A3D3F00BF00F072
:10CB0000B9F82149496C012202EB1171B0FBF1F433
:10CB100036E000F0AFF81C49496CC1F30361491CD1
:10CB2000B0FBF1F42CE000F0A5F81749496CC1F313
:10CB30000341491CB0FBF1F422E000F0B5F80446D3
:10CB40001EE0FFF72FFF04461AE0FFF751FF0446EF
:10CB500016E000F01DF8044612E0FFF78FFF0446D0
:10CB60000EE00A4C0CE04FF47A7409E000F064F82F
:10CB7000044605E000F04EF8044601E0002400BF42
:10CB800000BF204670BD000000800440006CDC0245
:10CB900010B50548007800F0020008B9002010BD6B
:10CBA00000F004F8FBE700000040064007488079E9
:10CBB00000F0010010B90648006870470348007A89
:10CBC000C0F3420103480068C840F6E70040064051
:10CBD00040000020440000200A49097B01F00301C5
:10CBE00021B1012905D0022908D105E006490868CC
:10CBF00006E00649086803E0054801E0002000BFA0
:10CC000000BF704700400640480000204C00002054
:10CC1000006CDC020648007800F0800030B1044867
:10CC20008078810903480068C84070470020FCE70D
:10CC300000500640480000200448007800F08000C2
:10CC400010B10348006870470020FCE70050064020
:10CC500048000020014649F69702914201D8002081
:10CC600005E0034A914201D8012000E0022070470C
:10CC700000127A0010B50B498979C1F3810424B1FF
:10CC8000012C05D0022C09D105E0FFF7F7FE07E0E3
:10CC9000FFF78CFF04E0FFF79FFF01E0002000BFDB
:10CCA00000BF10BD0040064010B508494968C1F3F7
:10CCB000014111B1032905D102E0FFF7DFFE03E0D6
:10CCC000034801E0002000BF00BF10BD0080044009
:10CCD000006CDC0270B504462068FFF7BBFF054618
:10CCE00017482279017821F00F011143017000BF2C
:10CCF00000BF017821F0A001A27911430170E2790F
:10CD0000C02303EA8212827000BF0E48407820F0F0
:10CD10003C00302101EA05110843617908430949C3
:10CD20004870607958B10648007800F0800030B152
:10CD300000BF0448807900F002000028F9D070BDDF
:10CD4000005006400040064010B501460C48007BEC
:10CD500000F00300884201D0012200E000220848D0
:10CD6000007B61F30100064C20733AB140F2DC53C2
:10CD700000E000BF181EA3F10103FAD1002010BD8E
:10CD8000004006402DE9F04706460F4690461D46F6
:10CD90004FF000092848C4788079C0F3001038B1FA
:10CDA0004FF001092448C07880F020002249C87063
:10CDB0002148007820F0FC01382000EAC600014339
:10CDC0001D480170007B00F0030058B91A484078F4
:10CDD00000F0040030B100BF1748807900F0020075
:10CDE0000028F9D000BF14488079C0F30010002853
:10CDF000F9D1B9F1000F01D00F48C470802000EACA
:10CE0000C710602101EA4811084324F0E00140EA1C
:10CE100001040948C47000BF0748C078A042FBD194
:10CE200000BF05488079C0F381000028F9D105B121
:10CE3000A8470020BDE8F08700400640094A416845
:10CE400051640178526861F31142064B5A6000BF89
:10CE50004178054A126861F39342034B1A6000BFA0
:10CE600070470000008004400070044070B5044624
:10CE70000D46204600F036F828B129462046094ADA
:10CE80001268904704E029462046074A12689047F6
:10CE900000BF00BF00BFBFF34F8F00BF00BF00BF88
:10CEA00070BD00005C0000206000002021B102681D
:10CEB00022F48042026003E0026842F48042026091
:10CEC000704700000146002006E0054A52F8202085
:10CED0008A4200D102E0401C0228F6D300BF70470E
:10CEE000B4B1010001460868C00F70472DE9F8434E
:10CEF00005460C4616462846FFF7E4FF3F4951F821
:10CF000020804046FFF7E2FC01212846FFF7CEFFD4
:10CF1000284600F0D3F90121284600F0B3F928682B
:10CF2000374900EA0107A07F4FF0804101EA807095
:10CF3000384394F820104FF0806202EA8161084380
:10CF4000E17F921002EA0161084394F821104FF446
:10CF5000407202EA012108432860627F217F28464F
:10CF600000F095F9217833462846626800F04AF8C7
:10CF700000B900BF217805F10C0050F8210020F025
:10CF8000FE47207A401E4FF0F04101EAC06038436E
:10CF9000217B4FF0806202EA81610843617B52107D
:10CFA00002EA41610843A17B521002EA0161084391
:10CFB000227805F10C0141F82200206900902178C7
:10CFC00033460122284600F0E1F86069009021789C
:10CFD00033460222284600F0D9F8A0690090217853
:10CFE00033460322284600F0D1F80021284600F0FD
:10CFF0003DF9284600F05DF9BDE8F883C0B10100B5
:10D00000FFCCFFBA2DE9FF4F87B081468A464846DC
:10D01000FFF768FF18B900200BB0BDE8F08FDDF80E
:10D0200024B04FF0FF3500200590049001200390BC
:10D0300000200290002427E0002620E0012719E0CC
:10D040001F4850F824101F4850F8260041430A9802
:10D050007843B0FBF1F8C3450BD3ABEB080001906C
:10D060000198854205D9019D05940496CDF8088064
:10D0700003977F1C032F01D2002DE1D1761C102EC7
:10D0800001D2002DDAD1641C042C01D2002DD3D1A1
:10D0900009F10C0050F82A000B490840069003984B
:10D0A000411E069840EAC171059841EA0040049982
:10D0B000084309F10C0141F82A000298ACE700008E
:10D0C00014B1010024B10100F0FFFC7F2DE9F04113
:10D0D00004460D4616461F46DDF818802046FFF729
:10D0E00001FFB8B3B8F1010F06D0B8F1020F1AD0A2
:10D0F000B8F1030F45D12EE004F10C0050F82500E3
:10D1000020F4400020F470404FF4400101EA8651C1
:10D1100008434FF4704101EA0731084304F10C0160
:10D1200041F825002EE004F10C0050F8250020F411
:10D13000401020F470604FF4401101EA065108439A
:10D140004FF4706101EA0721084304F10C0141F832
:10D15000250017E017E004F10C0050F8250020F43A
:10D16000402020F0F0004FF4402101EA86410843BE
:10D17000F02101EA0711084304F10C0141F82500F0
:10D1800000E000BF00BFBDE8F08100002DE9FF4FC7
:10D1900085B091461D46DDF848A00598FFF7A2FE30
:10D1A00018B9002009B0BDE8F08F4FF0FF38032018
:10D1B00004904FF00F0B2948B0FBF5F1284A049872
:10D1C00052F820004843274951F82B104843800863
:10D1D00003902548B0FBF5F04000019001985045C0
:10D1E00009D300231A46CDF80090DDE90501FFF7C9
:10D1F0006DFF0198D6E7002421E0002619E01748CA
:10D20000B0FBF5F0164951F824104843154951F880
:10D2100026104843870857450AD3A7EB0A00029017
:10D220000298804504D9DDF808800494B34603973A
:10D23000761C102E02D2B8F1000FE0D1641C042C31
:10D2400002D2B8F1000FD8D15B46CDF80090DDE9ED
:10D2500004200699FFF73AFF0398A3E700286BEE36
:10D2600064B1010074B1010000CA9A3B30B50446B4
:10D270000B462046FFF726FE05460148435530BDC4
:10D2800064000020026861F3DF720260704710B52D
:10D2900013460268012B05D14FF47C1404EA0144C3
:10D2A000224304E04FF47C1404EA0144A2430260E8
:10D2B00010BD016821F0010101607047016841F073
:10D2C00001010160704700002DE9F04F89B08346ED
:10D2D0000C469046994601AA2146584607F038FF69
:10D2E000424621465846059B07F0E6FE07461FB119
:10D2F000384609B0BDE8F08F484607F0F7FE07460C
:10D300000FB13846F5E7019C029D04EB0800461E6C
:10D31000B6FBF5F005FB106030B1B6FBF5F000F19F
:10D32000010A0AFB05F0461E0021584607F0A5FE3B
:10D330000CE024F07F4040F01060084948605846F7
:10D3400007F0DEFE074607B102E02C44B442F0D9F4
:10D3500000BF584607F08AFE3846CAE70000024080
:10D3600010B504460CB9042010BD194AD26CC2F3A2
:10D3700003610F2902D14FF4003003E0154A32F85F
:10D380001120900200222260606001222272D202EB
:10D39000E260114801788015884060610E482838A5
:10D3A00090F82B00A061204607F078FE58B10020CD
:10D3B0000A4908600A4848600A4888600846E061EF
:10D3C000204600F011F800202062606200BFCBE729
:10D3D00000800440F8B101002800024018F2FF1F4D
:10D3E00098F1FF1FD8F1FF1F70B504460CB1E0693A
:10D3F00008B9042070BDE569686803F075FDA86888
:10D4000003F062FD022028600020F3E72DE9F041DF
:10D4100088B080460D4614461E461CB9042008B04C
:10D42000BDE8F0816A462946404607F091FE324643
:10D4300029464046039B07F03FFE07460FB138469A
:10D44000EDE7009D0021404607F017FE20E001CCEB
:10D45000134988600398042805D125F07F4040F0E7
:10D46000C06048600AE00398082807D101CC0C4945
:10D47000C86025F07F4040F0E0604860404607F01B
:10D480003FFE074607B105E0039805440398361AA6
:10D49000002EDCD100BF404607F0E8FD3846BEE76D
:10D4A000000002402DE9FF4F89B00C46924601AAC8
:10D4B0002146099807F04CFE52462146069B0998E2
:10D4C00007F0FAFD8146B9F1000F03D048460DB0D0
:10D4D000BDE8F08F01AA2146099807F039FE019CAA
:10D4E000039F6042794208404542A54200D13D4435
:10D4F000564625E0A5EB0408B04500D9B04606988D
:10D50000B8FBF0FB24F07F4040F080700E4948608B
:10D510004FEA0B410C98C0B241EA002040F0FF00F6
:10D5200009498860099807F0EBFD8146B9F1000FC1
:10D5300001D04846CBE7A6EB080644443D4400BF73
:10D54000002ED7D10020C2E7000002402DE9F04FA5
:10D5500089B082460C4617461D46DDE912B8DDF853
:10D5600050901DB9042009B0BDE8F08F01AA2146F2
:10D57000504607F0EDFD3A4621465046089B07F01D
:10D580009BFD06460EB13046EDE7019C25E024F0F8
:10D590007F4040F00070134948606FF07F4040EAE0
:10D5A0000B6088602868C860504607F0A9FD0646F1
:10D5B0005EB1B8F1000F01D0C8F80040B9F1000F1A
:10D5C00002D00020C9F8000009E008983F1A089826
:10D5D000800805EB800508980444002FD7D100BFD0
:10D5E0003046C0E7000002401AB901238B40836037
:10D5F00002E001238B40436070471AB901238B403E
:10D60000836002E001238B40436070478160704774
:10D6100081607047816070478160704781607047AA
:10D62000816070478160704741607047416070471A
:10D63000416070474160704741607047416070478A
:10D640004160704700BFEFF3098001460BF004FD15
:10D6500000BFEFF3088001460BF0FEFC00BFFEE7C1
:10D660003348806B40F4F050314988634FF4A07028
:10D67000304948612020304908602F488438D0F86C
:10D68000940040F020002C49103108604FF4A07045
:10D6900028498861402028498439C1F88400084617
:10D6A000D0F8940040F0400023491031086040F267
:10D6B00003102049C86120488438D0F8940020F035
:10D6C00080001D49103108604FF4A070194948626C
:10D6D000481519498439C1F884000846D0F89400E7
:10D6E00040F400701449103108604FF4A0701149E3
:10D6F0000862881510498439C1F884000846D0F8BA
:10D70000940040F480700C491031086040F22310FE
:10D7100008490861102008498439C1F88400084686
:10D72000D0F8940020F010000349103108607047D1
:10D730000080044000B0044084F00F403348806B08
:10D7400040F4F050314988634FF4A070304948618B
:10D750002020304908602F488438D0F8940040F0E9
:10D7600020002C49103108604FF4A07028498861CE
:10D77000402028498439C1F884000846D0F8940034
:10D7800040F0400023491031086040F20310204966
:10D79000C86120488438D0F8940020F080001D49EA
:10D7A000103108604FF4A0701949486248151949B2
:10D7B0008439C1F884000846D0F8940040F4007021
:10D7C0001449103108604FF4A0701149086288159F
:10D7D00010498439C1F884000846D0F8940040F418
:10D7E00080700C491031086040F22310084908612C
:10D7F000102008498439C1F884000846D0F8940004
:10D8000020F0100003491031086070470080044088
:10D8100000B0044084F00F403348806B40F4F05077
:10D82000314988634FF4A070304948612020304965
:10D8300008602F488438D0F8940040F020002C492C
:10D84000103108604FF4A0702849886140202849B1
:10D850008439C1F884000846D0F8940040F04000B4
:10D8600023491031086040F203102049C861204864
:10D870008438D0F8940020F080001D4910310860F1
:10D880004FF4A07019494862481519498439C1F804
:10D8900084000846D0F8940040F400701449103118
:10D8A00008604FF4A0701149086288151049843946
:10D8B000C1F884000846D0F8940040F480700C4908
:10D8C0001031086040F2231008490861102008490F
:10D8D0008439C1F884000846D0F8940020F0100084
:10D8E00003491031086070470080044000B00440D4
:10D8F00084F00F4000201EE0052100EB4002144B95
:10D9000003EB82021171642100EB400203EB8202FF
:10D910009171002100EB400203EB8202517100EB98
:10D92000400203EB8202D17100EB400203EB820262
:10D930001172411CC8B20128DEDB0121044A917238
:10D94000022151720321D172024911607047000017
:10D9500084010020815B010070B5002418E004F10F
:10D96000B001C8B20AF088FD00200AF085FD102041
:10D970000AF082FD002507E0074901EBC411485D6C
:10D980000AF0B8FD681CC5B2802DF5DB601CC4B27E
:10D99000082CE4DB70BD000000ECFF1F10B5012077
:10D9A00002490870FFF7D8FF10BD00006EE0FF1FAE
:10D9B0002DE9FF4780460C46914623A103C9CDE9D6
:10D9C000020123A103C9CDE900012046E11704EBC0
:10D9D0005171C1F3C70708F0FF061F4800EBC710DD
:10D9E000855DB9F1000F0AD12046E11704EB5171B2
:10D9F000C910A4EBC1011DF801100D4009E020463B
:10DA0000E11704EB5171C910A4EBC10102AA515CEA
:10DA10000D43114800EBC7108555104800780128C8
:10DA200010D107F1B001C8B20AF026FD06F00F00D0
:10DA30000AF022FD102101EB16100AF01DFD284608
:10DA40000AF058FDBDE8FF8701020408102040805D
:10DA5000FEFDFBF7EFDFBF7F00ECFF1F6EE0FF1F57
:10DA600000200149087070476EE0FF1F10B500EB01
:10DA7000810314881C8010BD50F8213062F30A2302
:10DA800040F821307047000010B503480168034892
:10DA9000FFF7ECF910BD00005400002000C0024068
:10DAA00010B5034841680348FFF7E0F910BD0000D6
:10DAB0005400002000D0024010B50F480068401C00
:10DAC0000D4908600D48006840B10C480068401ED0
:10DAD0000A49086010B9012009490870094800780E
:10DAE000401CC0B2074908700A2803DB00200870F8
:10DAF00009F0A4FC10BD00005CE0FF1F60E0FF1F08
:10DB000064E0FF1F65E0FF1F0848006840F47000F4
:10DB1000064908604CF220500549C8814DF628108E
:10DB2000C8814FF4E97008807047000088ED00E07C
:10DB30000020054000BF00BF00BF00BF00BFBFF313
:10DB40004F8F00BF00BF00BF0948006800F4E060CD
:10DB500008490843001D0649086000BF00BF00BF18
:10DB6000BFF34F8F00BF00BF00BF00BF00BFFDE786
:10DB70000CED00E00000FA0510B507480168074801
:10DB8000074A1268904700BF00BF00BFBFF34F8F26
:10DB900000BF00BF00BF10BDCC16002000A0064093
:10DBA0005000002010B5FFF7E7FF00BF00BF00BF27
:10DBB000BFF34F8F00BF00BF00BF10BD10B50748B7
:10DBC00041680748074A1268904700BF00BF00BF7E
:10DBD000BFF34F8F00BF00BF00BF10BDCC160020A9
:10DBE00000B006405000002010B5FFF7E7FF00BF6F
:10DBF00000BF00BFBFF34F8F00BF00BF00BF10BD0D
:10DC0000F8B522480479C07800F0200008B924F063
:10DC100020041E48C07800F0800008B924F0800479
:10DC200004F0800070B11A4802F0DFFF1749C87194
:10DC3000174802F0ABFF28B91448C07820F08000E4
:10DC40001249C87004F02000F0B104F0040010B9CB
:10DC500004F0020018B10D48C079009014E00B48A0
:10DC6000C6790C4802F07CFF0546132D04D93146D5
:10DC7000084802F0D6FF06E0064802F0B6FF31463B
:10DC8000044802F0CEFF00BFF8BD000000B006401F
:10DC9000B4010020C402002010B50748816807487D
:10DCA000074A1268904700BF00BF00BFBFF34F8F05
:10DCB00000BF00BF00BF10BDCC16002000C0064052
:10DCC0005000002010B5FFF7E7FF00BF00BF00BF06
:10DCD000BFF34F8F00BF00BF00BF10BD2DE9F0475D
:10DCE0004FF00009474800780446074604F0080052
:10DCF000002870D06BE04349103108780509C0F363
:10DD0000C006C0F3800865BB5EBB730005F00F0260
:10DD100003EB8202012303FB08213B4A12F8312066
:10DD2000C2F38302012A1BD1374A02EBC102528897
:10DD3000B2B9364A525D344B03EBC1035A80324AC2
:10DD400012F8312002F0400222B188222E4B03F853
:10DD5000312003E0C8222C4B03F8312040F00100B1
:10DD600000BF014600BFEFF3108C0CF0010372B648
:10DD700000BF1A46DFF898C0DFF898A0DAF800A0D4
:10DD80000CF80A10234B1B685B1C4FF0150CB3FBFF
:10DD9000FCFA0CFB1A33DFF87CC0CCF800301346D9
:10DDA00003B962B600BF00BF0821164A1170B9F16D
:10DDB000000F05D113491431097801F0200109B190
:10DDC000012100E0002189460E490C7800BF04F0D3
:10DDD000080000288FD1274339460F480AF0E1FF99
:10DDE000B9F1000F01D0012000E000200B490978B3
:10DDF00008430A49087003490C7001F0EDFABDE8C8
:10DE0000F087000080200740001A002078000020E2
:10DE1000A01F002084000020880000208C0000202B
:10DE20000146002070470000044800680449096862
:10DE3000401A04490988081A70470000ACE1FF1F26
:10DE4000B0E1FF1FB0B7010070B506460C460E48A2
:10DE500000680E490968884213D90B4800680B49CD
:10DE60000968451AAC4200DD2C4622460748016885
:10DE70003046FEF760FB054800682044034908600F
:10DE800000E00024204670BDCCE1FF1FD0E1FF1F61
:10DE900001460020704700002DE9F04707460C4678
:10DEA000B8462448006824490968A0EB01092348C2
:10DEB0000088A0EB0906002E02DC0020BDE8F087F8
:10DEC000B44200DD344600251D4800681D4909683C
:10DED00088421AD31A48006820441B49174A1288FE
:10DEE0001144884211D31848144909880844144938
:10DEF0000968451A2A46414611480068FEF71BFB8F
:10DF0000A844641B10480E49086054B1224641469B
:10DF10000B480068FEF70FFB0948006820440849D9
:10DF200008602C44034800682044024908602046E9
:10DF3000C4E70000ACE1FF1FB0E1FF1FB0B7010074
:10DF4000B4E1FF1FB8E1FF1F9A17002010B5044687
:10DF50000648006800B110BD01200449086000F0C7
:10DF600007F800200149086000BFF4E7A0E1FF1FA7
:10DF700070B53848006800B970BD37480068374947
:10DF80000968441A34B93648006818B90020314984
:10DF90000860F1E714B333480068334909688842E0
:10DFA0000FD33048006820443049314A1288114468
:10DFB000884206D32D482E49098808442949096812
:10DFC000441A2C482C49097830F81100A04209DA8B
:10DFD00028482949097830F8114003E020480068B2
:10DFE00000B1002400201E4908602449097841F04E
:10DFF000800022461B49096802F0F0F805461948DE
:10E0000000682844174908601448006828441349E8
:10E010000860164816490988084412490968884268
:10E0200002D112480F4908600B4800680B49096883
:10E0300088420AD10F481049097830F81100A842E7
:10E0400003D101200649086002E00020044908606D
:10E0500000BF91E7A4E1FF1FACE1FF1FB0E1FF1F8C
:10E06000A8E1FF1FB8E1FF1FB4E1FF1F9A170020CE
:10E07000B0B70100B8B7010065E1FF1FADB70100FF
:10E0800010B504461148006828B111480068401CCA
:10E090000F49086010BD01200C4908600D49086057
:10E0A00000F01EF800200B490860084908600A4883
:10E0B00000680A490968884206D007490968074A82
:10E0C0001268881AFFF7E4FE00BFE3E7BCE1FF1F18
:10E0D000C4E1FF1FC0E1FF1FCCE1FF1FD0E1FF1F24
:10E0E00070B51D4800681D49401A1D490988081A65
:10E0F0001C491D4A127831F8121088421FDB16485D
:10E1000000681649401A164909880D1A2A4612480D
:10E1100001681648007801F0EDFA04460E480068E0
:10E1200020440D4908601248006898B11148006801
:10E1300080B90F480068401E0D4908600AE00120C0
:10E140000D4908600B48006820B109480068401C70
:10E150000749086070BD0000CCE1FF1FDA170020FE
:10E16000B2B70100B8B7010065E1FF1FAEB701000B
:10E17000C4E1FF1FC0E1FF1FC8E1FF1F10B5044647
:10E1800004F0040010B12046FFF77AFF04F0080005
:10E1900010B12046FFF7DAFE10BD7047014600209F
:10E1A000704700207047000010B5104800F072F86A
:10E1B000D0B10E4800780E4908700C480088000A5B
:10E1C00048700A480068000C887008480068000E13
:10E1D000C8700648007908710448407948710348BE
:10E1E00080798871012010BD0020FCE7D6E1FF1F77
:10E1F000D816002010B500201549086015490860A0
:10E200001549086015490860154908601548164900
:10E210000860164908600020154908601549086023
:10E2200015490860154908601548164908601649DF
:10E2300008600020154908804FF416501449086002
:10E240000020087148710820887100F035F810BD71
:10E25000A0E1FF1FA4E1FF1FA8E1FF1FACE1FF1F2A
:10E26000B0E1FF1F9A170020B4E1FF1FB8E1FF1FC4
:10E27000BCE1FF1FC0E1FF1FC4E1FF1FC8E1FF1F9A
:10E28000DA170020CCE1FF1FD0E1FF1FD4E1FF1F10
:10E29000D6E1FF1F0146074800680860054800797D
:10E2A00088710448407948710248807908710120DA
:10E2B000704700009400002010B50BF01DFB09F022
:10E2C000D3F8012010BD10B50BF060FB012010BD8C
:10E2D000014601207047000010B504462068074938
:10E2E0000860A079087160794871207988710020F0
:10E2F000C87108460BF05EFB10BD000094000020C2
:10E3000010B50020174908601749086017490860D0
:10E3100017490860174908601748184908601849E4
:10E32000086000201749086017490860174908600D
:10E330001749086017481849086018490860002004
:10E3400017490880FFF7BFFF4FF4165015490860C2
:10E35000002008714871082088710846FFF7BCFF4B
:10E3600010BD0000A0E1FF1FA4E1FF1FA8E1FF1FF7
:10E37000ACE1FF1FB0E1FF1F9A170020B4E1FF1FBF
:10E38000B8E1FF1FBCE1FF1FC0E1FF1FC4E1FF1F99
:10E39000C8E1FF1FDA170020CCE1FF1FD0E1FF1F0B
:10E3A000D4E1FF1FD6E1FF1F10B5FFF7A9FF10BD95
:10E3B00010B52A48007800B910BD29480068B8B9DE
:10E3C0002848006828490968884211D12548006812
:10E3D000264988420CD00120214908602348214960
:10E3E0000860214908600020214908601C49086034
:10E3F00020480068D0B11A480068B8B91C480068C5
:10E40000A0B9012016490860FFF76AFE00201449F0
:10E4100008601448006814490968884206D0114908
:10E420000968114A1268881AFFF732FD124800681D
:10E4300090B91248006878B9114800681149096814
:10E44000401A09D001200C4908600C490860FFF708
:10E450008FFD00200849086000BFADE757E1FF1FAE
:10E46000BCE1FF1FCCE1FF1FD0E1FF1FDA17002046
:10E47000C8E1FF1FC4E1FF1FA0E1FF1FA4E1FF1FD0
:10E48000ACE1FF1FB0E1FF1F0146012070470020F3
:10E49000704701460020704710B5044602480480CA
:10E4A0002046FFF715FF10BDD4E1FF1F10B50E4841
:10E4B00000780D49497840EA01200B49897840EA03
:10E4C00001400949C97840EA0160084908600648E6
:10E4D000007908710448407948710348807988714F
:10E4E0000846FFF7F9FE10BDD8160020D6E1FF1F41
:10E4F00010B508480178084800F056F80749086048
:10E500000846006820B100200549086000F00AF8BC
:10E5100010BD0000E0E1FF1F24180020E4E1FF1F10
:10E52000E8E1FF1F70B500251948006850B318488E
:10E53000006818490988884202D21548006801E03D
:10E54000144800880546002408E013480068204469
:10E5500012490968085C12490855641CAC42F4D39E
:10E560001049097841F080002A460D4901F036FE35
:10E570000948006828440849086005480068401BAD
:10E58000034908600248006808B900F08BF870BDC4
:10E59000E4E1FF1FC0B70100E8E1FF1FF0E1FF1F4A
:10E5A00024180020BDB7010070B505460C4622486E
:10E5B000007810B1012828D120E0082C00DA2AE0E8
:10E5C000284606F0A9FF1D49086008460068B0F516
:10E5D000A06F01D9012000E000201849096809B99D
:10E5E000012100E00021084308B100F05BF821465A
:10E5F000284602F0B9FB104908700CE02146284675
:10E6000002F0B2FB0C49087005E000200A490870CE
:10E6100000F048F800BF00BF07480078022808D182
:10E620000749084805F088F9074908600846006866
:10E6300070BD0020FCE7000000E0FF1F08E0FF1FA6
:10E64000F4E6FF1FF4E1FF1F0CE0FF1F10B50446C6
:10E65000FFF768FF10BD000010B5044605480288AA
:10E6600005490648007801F045F805490870FFF7AC
:10E670003FFF10BDC0B7010024180020BEB7010045
:10E68000E0E1FF1F10B5044604F0040010B120467D
:10E69000FFF7E2FF04F0080010B12046FFF7D6FFB5
:10E6A00010BD0000002004490860044908600449C6
:10E6B000086004490870704708E0FF1F0CE0FF1F66
:10E6C00004E0FF1F00E0FF1F002007490860074922
:10E6D00008600748074908600748084908600020A3
:10E6E000074908707047000008E0FF1F04E0FF1FA3
:10E6F000F4E1FF1FECE1FF1FF4E6FF1FF0E1FF1F55
:10E7000000E0FF1F10B50446074804F00F0110F8A1
:10E71000210020F00201044804F00F0200F822104A
:10E72000204601F09BFC10BDC020074070B5044698
:10E73000A578A688A07800F0800008B902494E5557
:10E74000284601F08BFC70BD78000020704700F077
:10E7500075BB000060B10E49097841F001010C4A17
:10E76000943A82F894101021094A743211700EE024
:10E770000749097821F00101054A943A82F894107A
:10E78000114691F8081121F0100182F80811704724
:10E790009420074010B510488088104909788842B5
:10E7A00002DD0E48047801E00B48848814B900208B
:10E7B0000B490870084822460168802001F00EFDD0
:10E7C00004460548006820440349086008468088DC
:10E7D000001B888010BD000068E1FF1F95B7010095
:10E7E00066E1FF1F10B5084882880168002000F02C
:10E7F00081FF044604480068204403490860084635
:10E800008088001B888010BD68E1FF1F70470000F2
:10E8100000F0800151B100F00F00094911F82010FB
:10E8200021F00502064901F8202007E0044911F80B
:10E83000201021F00902024901F820207047000051
:10E84000C020074000F0800151B100F00F000949DD
:10E8500011F8201041F00502064901F8202007E0D8
:10E86000044911F8201041F00902024901F8202062
:10E8700070470000C020074010B5044604F00200B5
:10E88000002872D001F07EFCBD490978C809FFF765
:10E89000BDFFBB48C088BB498880B9480078C0F339
:10E8A000411020B101286ED002286DD1C5E0B448D6
:10E8B00040780C2869D2DFE800F0060DA21BA229DF
:10E8C000464D4E62729501F0D7F800B9DBE0FFF7D4
:10E8D00061FF95E0002001F02FF900B9D3E001F0CD
:10E8E0005BFCA948006810B1A7480068804787E032
:10E8F000012001F021F900B9C5E001F04DFCA2486A
:10E90000006810B1A0480068804779E000BF9C48CB
:10E91000007800F01F0030B99948807840F08000FE
:10E920009A49087001E0002001E000BF012000B911
:10E93000A9E09649097801F07F00012101F00CFC63
:10E9400001F02AFC5CE000F05FFF00B99BE0FFF7FC
:10E9500021FF55E097E000BF8948007800F01F00D4
:10E9600020B98B488749086002E09FE0002001E061
:10E9700000BF012000B986E0FFF70CFF40E001F086
:10E9800053F918B97FE03DE07CE038E001F004FC89
:10E990008048006810B17F480068804730E000BFC1
:10E9A0007748007800F01F00012812D178480078DD
:10E9B00060B17348007978490978884206DA70486E
:10E9C0000079764908446F49086001E0002004E0BE
:10E9D00001E0002001E000BF012000B953E0FFF793
:10E9E000D9FE0DE001F012FA00B94CE001F0D4FBC1
:10E9F0006B48006810B16A480068804700E042E058
:10EA000000BF52E05E48007800F01F0020B10128EE
:10EA100003D002280FD10DE035E000F09BF900B1E2
:10EA20000AE000F009FA00B106E000F013F900B1C5
:10EA300002E028E027E026E037E05148007800F0C7
:10EA40001F0010B101281AD10CE04D4800790428AC
:10EA500003D154484B49086000E000BF00BFFFF7F6
:10EA600099FE0DE046480079052803D14E484549F6
:10EA7000086000E000BF00BFFFF78CFE00E002E08E
:10EA800000BF12E000BF3E480078C00930B93C48E2
:10EA9000C08818B1002001F067FB02E0802001F07F
:10EAA00063FB00203749888000BF00BF04F00400EA
:10EAB00098B333480078C00980BB3248808860B37F
:10EAC000FFF790FE2F48808838BB2D480078C0F3B0
:10EAD000411010B1012818D100E017E02848007853
:10EAE00000F01F0020B1012803D002280BD109E05B
:10EAF0000CE000F095F800B106E000F059F800B124
:10EB000002E003E002E001E007E000BF802001F046
:10EB10002BFB00201B49888000BF02E0FFE701F0CB
:10EB200043FB04F00800F0B1154800780121B1EB77
:10EB3000D01F08D11348808810B91C48007890B1C4
:10EB4000FFF728FE0FE01148007800F0800050B178
:10EB50000E48007800F07F000C49087000210B4837
:10EB6000007801F0F9FA04F0400010B10020FFF73E
:10EB7000C9FD04F0800010B18020FFF7C3FD10BD77
:10EB800070E1FF1F68E1FF1F28B8010056E1FF1F79
:10EB900057E1FF1F20B8010064E1FF1F90E0FF1F55
:10EBA00024B801009CE0FF1FC4E0FF1F66E1FF1FC7
:10EBB00010B51848007918490978884205D01548D9
:10EBC000007916490978884222D11248407820B14C
:10EBD00002280AD020281AD111E0FFF758FC18B1FA
:10EBE00001F0DAFA012010BD11E00A494888FFF768
:10EBF00050FC18B101F0D0FA0120F4E707E0FFF76C
:10EC000055FC18B101F0C8FA0120ECE700BF00BFC5
:10EC10000020E8E770E1FF1FAAB70100ABB70100D1
:10EC200010B50A4800790A49097888420CD107488A
:10EC30004078092807D100F0ABFB18B101F0ACFA1D
:10EC4000012010BD00BF00BF0020FAE770E1FF1FE8
:10EC500096B7010010B53A4800793A4909788842D8
:10EC600005D03748007938490978884266D1344858
:10EC70004078042833D007DC78B1012812D002286C
:10EC80001BD0032859D11DE0202832D0212835D0AF
:10EC900022283ED0232850D145E02C482C4908603A
:10ECA000012010BDFFF77DFA30B1284828490860DF
:10ECB000FFF770FD0120F4E73FE024482449086095
:10ECC0000120EEE71E494888FFF768FA30B11F4877
:10ECD0001F490860FFF75EFD0120E2E72DE01849BB
:10ECE0004888FFF79DF818B101F056FA0120D8E7DF
:10ECF00023E01648164908600120D2E7FFF754FACE
:10ED000030B1124812490860FFF744FD0120C8E7FE
:10ED100013E00B494888FFF7BFFB18B101F03CFA3C
:10ED20000120BEE709E006494888FFF7ADFB18B1AE
:10ED300001F032FA0120B4E700BF00BF0020B0E7C5
:10ED400070E1FF1FAAB70100ABB70100D816002081
:10ED500068E1FF1F10B531480079314909788842D0
:10ED60005AD12E4840780C2855D2DFE800F05406DE
:10ED70002E4154545454541D394C00F003FA90B1B0
:10ED80002648C078012803D126482749086006E0B4
:10ED90002248C078032802D1244823490860FFF79D
:10EDA000F9FC012010BD36E01C48C078022803D1D0
:10EDB0001F481D49086006E01848C078032802D1A2
:10EDC0001A48194908600120ECE700F0C3F930B196
:10EDD000184815490860FFF7DDFC0120E2E71AE05A
:10EDE00000F0AEFA18B101F0D7F90120DAE712E02D
:10EDF00000F0BEF930B10F480B490860FFF7CAFCBC
:10EE00000120CFE707E000F0B9FA18B101F0C4F92A
:10EE10000120C7E700BF00BF0020C3E770E1FF1F6C
:10EE200096B701001917002068E1FF1F9AE0FF1F45
:10EE30005A170020D81600200020704700200C49E7
:10EE400008700C4908600C4908600C4908600C49BE
:10EE500008800C4908800C4908600C4908600C497E
:10EE600008800C4908800C4908600C4908807047EC
:10EE700078E1FF1F7CE1FF1F80E1FF1F84E1FF1F9E
:10EE800088E1FF1F8AE1FF1F8CE1FF1F90E1FF1F58
:10EE900094E1FF1F96E1FF1F98E1FF1F9CE1FF1F18
:10EEA00070B506466648008866490988884224DBB2
:10EEB0006548006808BB0020644908606049088014
:10EEC000634801780123421C18460AF02DFF5D4972
:10EED00008800846008880B15D485C4908605D484C
:10EEE0000078012804DC08460068401C086004E043
:10EEF00054480088401C5349088052480088002824
:10EF00005ED15548006818B100205349086057E0A9
:10EF100052480068002853D04E48007801281CDC75
:10EF20004E48006800284BD00020494908704449E9
:10EF300008800223464A521C002101200AF0F4FEF8
:10EF4000404908800846008818B14148401C3F49A4
:10EF5000086000204149086032E03D48047800BF65
:10EF6000202C00DB00240120A0403C490968084017
:10EF700010B3601C36490870002031490880601CBD
:10EF8000C1B20223324A521C01200AF0CDFE2D49A3
:10EF900008800846008838B12D482C490860294867
:10EFA0000088401C274908800120A0402B4909689F
:10EFB00081432A48016002E0601CC4B2D0E700BF70
:10EFC0002048008810B920480068A0B31D48008878
:10EFD0001B490988401A85B221482249097830F82E
:10EFE0001100A84204DA1E481E49097830F8115071
:10EFF0001D49097841F080002A461449096801F04A
:10F00000EDF8124800682844104908600C48008850
:10F0100028440B490880084600881449098888421A
:10F020000ADA0F480F49097830F81100A84203D1D5
:10F0300001200549086002E000200349086070BD16
:10F040008AE1FF1F88E1FF1F8CE1FF1F84E1FF1FA2
:10F0500018170020A2B701007CE1FF1F80E1FF1F0D
:10F060009EB7010065E1FF1F97B70100A4B701003B
:10F0700038B505462648008848B92648264908601C
:10F080002648008826490880002021490880244815
:10F0900000881F490988421A1F48016821480078E2
:10F0A00000F028FB84B21C48006820441A4908601C
:10F0B0001748008820441649088064B10846008833
:10F0C00016490988884206DA17481849097830F83D
:10F0D0001100A0421BDD16480078012809DC012040
:10F0E00000900B4803880B4A002102200AF022FE00
:10F0F0000AE00120009006480088431E0548017878
:10F10000421C02200AF016FE00200149088038BD8A
:10F1100096E1FF1F5917002090E1FF1FA6B70100DD
:10F1200094E1FF1F98B701009EB7010065E1FF1F42
:10F13000A3B7010010B5044604F0080010B1204642
:10F14000FFF7AEFE04F0040010B12046FFF790FF79
:10F1500010BD0000034880780349085C034908702B
:10F160000120704770E1FF1F98E0FF1FD8160020B4
:10F1700010B50AF0D7FD02490870012010BD00004B
:10F18000D816002010B500240C48C078012804D0FF
:10F19000022804D0032806D103E0094C03E0002034
:10F1A00010BD084C00BF00BF044A9178D0780023FE
:10F1B00022460AF0B9FD0120F2E7000070E1FF1FCE
:10F1C000191700209AE0FF1F2DE9F04151480078FF
:10F1D00000287DD00026504801780078401C4E4A17
:10F1E00010704E48007800EB400204209040401E12
:10F1F000814203DB00204849087001260025484869
:10F200000088FF2804DA46480088401C44490880EA
:10F2100044484249097830F8110041490988884238
:10F2200000D10125002462E04FF000089EB13E4865
:10F23000005DFF2804DA3C48005D401C3A4908554F
:10F240003A48005D38B13848005D3849095D884268
:10F2500001DB4FF001083548005D3049097801EBCA
:10F2600041020221914088402E492C4A127831F8FF
:10F270001210884204DA2D48005D08B1012000E038
:10F28000002007463DB137B10120A0402849096858
:10F290000843274908602548005D2649095D8842E2
:10F2A00013D02148005D2349095D884209DB012014
:10F2B000A0401F49096808431D49086000201649FD
:10F2C00008701C48005D19490855B8F1000F00E0AE
:10F2D0001EE00AD037B90120A0401549096808434B
:10F2E00013490860002010490855601CC4B2124838
:10F2F0000078844298DB15B10020094908800C4849
:10F30000006828B10D48008810B90020FFF7C8FD3B
:10F31000BDE8F08157E1FF1F9EE1FF1F65E1FF1F80
:10F3200094E0FF1F9AB7010096E0FF1F97E0FF1FD0
:10F3300080E1FF1F98E0FF1FA2B7010088E1FF1FD7
:10F340000B48807830B10A48C2788078401E094B5B
:10F350001A540BE0002105E00548C078054A5054D6
:10F36000481CC1B2044800788142F5DB0120704797
:10F3700070E1FF1F98E0FF1FA2B7010010B503491D
:10F3800088780AF0D6FC012010BD000070E1FF1F54
:10F3900038B500240D48C078012804D0022804D0D4
:10F3A000032806D103E0002038BD094C01E0094CD8
:10F3B00000BF00BF0020054A0090D3889178D07824
:10F3C00022460AF0B7FC0120EEE7000070E1FF1FC3
:10F3D0005A1700209AE0FF1F2DE9F0474FF0000A6E
:10F3E00000BFEFF3108101F0010072B600BF81464B
:10F3F0007F48056800207E4908607E4890F800A09C
:10F4000000207C490870484600B962B600BF05F08C
:10F41000010048B100F0A6FD0AF09EFC76480068A5
:10F4200010B175480068804705F0100038B100F051
:10F43000C7FE7248006810B170480068804705F048
:10F44000200038B100F074FE6D48006810B16C48BF
:10F450000068804705F0040028B16A48006810B1D0
:10F46000684800688047022D0AD16748006820B1CB
:10F4700066490878644909688847FF20634908702D
:10F4800005F0080000287DD089E000BF00BFEFF341
:10F49000108303F0010272B600BF11465C4A5D4B57
:10F4A0001B68D05C5B4A1268521C1523B2FBF3FC4C
:10F4B00003FB1C22574B1A600A4602B962B600BF12
:10F4C00000BF0646C6F30314C6F3C007C6F38008A0
:10F4D00064BB790004F00F0001EB8000012101FB07
:10F4E00008004D4911F83000C0F383000D281DD1EC
:10F4F0004A48006820F00200484908604648007EFB
:10F5000020F08000444908760846007C20F0800006
:10F510000874002042490870424850F8240090B313
:10F52000404850F824100220884737E0790004F062
:10F530000F0001EB8000012101FB0800364911F8A2
:10F540003000C0F3830001280DD11CB906F0010082
:10F5500033490870334850F8240020B1314850F83E
:10F56000241004208847790004F00F0001EB80008C
:10F57000012101FB0800284911F83000C0F3830085
:10F58000092801E026E009E008D1264850F82400C7
:10F5900020B1244850F824100820884700BF00BF3D
:10F5A00000BFEFF3108303F0010172B600BF0846FD
:10F5B000184909681C4B1B68994201D1012100E0E0
:10F5C00000210A46014601B962B600BF00BF002A09
:10F5D0003FF45BAFBAF1000F08D00C480C30007854
:10F5E00020F020000949883981F89400BDE8F087AF
:10F5F000880000208C000020C8B70100CCB70100B3
:10F60000D0B70100D8B70100DCB70100882007405F
:10F61000A01F002080000020001A00209000002081
:10F620008D000020E0B701008400002010B54020CC
:10F63000264908702648406840F4E0202449486084
:10F640000846406B40F48020486300F04DF82148A4
:10F65000007840F08000204981F80C0100BF1D486F
:10F66000007800F080000028F9D11C48000A1949F0
:10F67000703908701948000C174981F8B000174814
:10F68000000E144958390870FF20134981F8800092
:10F690001348006808B1042000E0002040F0190081
:10F6A0001049096809B1022100E0002108430A4914
:10F6B000843108704020084981F80001084690F81C
:10F6C0000C0140F0400081F80C0110BD78000020D2
:10F6D000008004400C21074000200740001A002051
:10F6E000D8B70100DCB7010010B5352000F0FDFDF2
:10F6F00010BD70472DE9F05F05460F4693464FF069
:10F70000000905F00F00002101EB8004384800EBF0
:10F71000C400B0F8028065B93648007848B1620884
:10F72000012000FA02F1344809F04CFB0020BDE84A
:10F73000F09F45B92E4810F83400C0F383000D281F
:10F7400001D14FF00109002605E02C4800EB8410A0
:10F75000805DB855761C4645F7D32948405D24495D
:10F7600001EBC4014880610823480068C84000F0EC
:10F7700001001F4911F83410C1F38011884217D1DC
:10F78000B879F97940EA012AB9F1000F08D0BAF145
:10F79000000F05D16FF00101174809F0F1FA06E0FA
:10F7A0006208012000FA02F1134809F00BFB00BFC8
:10F7B000610811480068C84000F0010058B14820B5
:10F7C0000B4901F83400084610F8340040F080007E
:10F7D00001F834000AE00820054901F83400084621
:10F7E00010F8340040F0800001F8340040469EE7F5
:10F7F000001A00208D00002090000020A01A002098
:10F8000078000020704700001CB56148007800F0C7
:10F810001F0010B1012874D19BE05D48C078082812
:10F8200070D2DFE800F092041C7092920A475948A7
:10F83000594908601220009089E05848007808B9BA
:10F8400000201CBD5648007818B956485249086037
:10F8500002E05548504908600A20009077E04F4880
:10F86000007828B94E480078012801D10020E8E747
:10F870004B48007810B94D48019001E04C48019088
:10F88000002407E00198007818B1019841880844E5
:10F890000190641C3E488078A042F3D10198007822
:10F8A00008B90020CDE73C490198086001984088DC
:10F8B00000904CE03948007808B90020C1E738488A
:10F8C000007810B93B48019001E03B4801900024CA
:10F8D00007E00198007818B1019841880844019028
:10F8E000641C2B488078A042F3D10198007808B9B5
:10F8F0000020A6E7284901980860019840880090F8
:10F9000025E02EE021E02D480190002407E0019839
:10F91000007818B10198017808440190641C1C48D3
:10F920008078A042F3D11A488078EE2801D124488B
:10F9300001900198007808B9002082E716490198E3
:10F94000086001980078009001E0002079E700BF8E
:10F9500009E0694601A800F039F808B9002070E70D
:10F9600001E000206DE700BF0B48808800998842C5
:10F970000CD909490098888008468088114909787F
:10F98000491E084010B901200F490870012058E7AE
:10F9900070E1FF1F56B8010068E1FF1F91B7010039
:10F9A00065E1FF1F68B8010069B801006AB801008D
:10F9B000EDB80100EEB80100EFB80100F0B80100A9
:10F9C0009CB9010095B7010066E1FF1F024620487F
:10F9D000C078212804D0222824D0232833D130E035
:10F9E0001B4800791B4B1B78984201D000207047C0
:10F9F0001948007828B919480078012801D1002059
:10FA0000F5E71648007810B91548106001E0154870
:10FA10001060154B1B8810681844144B186009209F
:10FA2000086012E00A4800790A4B1B78984201D01E
:10FA30000020DCE70E480D4B18600E480088086077
:10FA400003E00020D3E70020D1E700BF0120CEE78C
:10FA500070E1FF1F96B7010091B7010065E1FF1F3C
:10FA60006AB80100EDB8010054B8010068E1FF1F59
:10FA700030B8010052B801002748007800F01F009C
:10FA800020B1012806D0022841D116E02348244B9A
:10FA900018603EE02348007860B11F480079224B8F
:10FAA0001B78984206DA0020204B188018461C4B21
:10FAB000186001E0002070472BE01748007900F043
:10FAC0008F0101F0800028B101F00F034FF4803066
:10FAD000984001E00120884002461248007810B9A1
:10FAE00001F00F0080B912480068104060B1114861
:10FAF0000068104008B1012000E000200B4B188086
:10FB00001846074B186001E00020D4E701E0002010
:10FB1000D1E700BF0120CEE770E1FF1F54E1FF1FD6
:10FB200068E1FF1F57E1FF1F64E1FF1FD8160020A7
:10FB300058E1FF1F5CE1FF1F70B5064634480078AE
:10FB400000F01F0020B101281DD002285BD11CE06D
:10FB50002F484088012813D146B100F03DFB2D48C5
:10FB6000008840F002002B4908800BE0002000F0E4
:10FB700033FB2848008820F002002649088001E075
:10FB8000002070BD41E00020FBE72148007900F033
:10FB90008F0404F0800028B104F00F014FF480308E
:10FBA000884001E00120A04005461B48007838B39A
:10FBB00004F00F0020B319480068284000B314482F
:10FBC0004088D8B946B1204600F0CEFA1448006803
:10FBD00028431349086015E012480068284008B11E
:10FBE0000120CEE72046FEF78DFD2046FFF70AFEF6
:10FBF0000B480068A8430A49086003E00020C0E7FA
:10FC00000020BEE701E00020BBE700BF0120B8E70D
:10FC100070E1FF1F54E1FF1F57E1FF1F58E1FF1F75
:10FC20005CE1FF1F60E1FF1F2DE9F04100266A48FB
:10FC3000007800F01F0000286FD167488078002806
:10FC40006CD06648007830B965480078012802D148
:10FC50000020BDE8F0816248007808B9614D00E0FD
:10FC6000614D7FE06878022804D0042853D005282D
:10FC700074D154E0687958498978884247D1564808
:10FC800080785A490870287959490870002403E09F
:10FC9000002058490855641C574800888442F7D30F
:10FCA000012414E00120A04054490968084010B123
:10FCB0002046FEF7ADFD4FF48030A0404F49096863
:10FCC000084018B144F08000FEF7A2FD641C102C1F
:10FCD000E8D34FF001104949086000204849086006
:10FCE000484908600120FEF731FDE87900F0400046
:10FCF00030B14548008840F001004349088009E0E0
:10FD00004148008820F001003F49088002E06888EF
:10FD1000054427E022E0EE7820E058E027E0E6B94D
:10FD2000A87800F08F0404F0800028B104F00F01DF
:10FD30004FF48030884001E00120A04007462F4862
:10FD4000006838432D4908602846FEF7EFFC20463E
:10FD5000FEF778FD204600F081F900BF00BF28784B
:10FD6000054400BF287800287FF47CAF26E00020FF
:10FD70001E490870012414E00120A0401F490968B1
:10FD8000084010B12046FEF743FD4FF48030A040FC
:10FD90001A490968084018B144F08000FEF738FDA0
:10FDA000641C102CE8D34FF00110144908600020A7
:10FDB0001349086013490860FEF7C8FC06488078BC
:10FDC0000A490978884201D0002042E701E000207A
:10FDD0003FE700BF01203CE770E1FF1F91B7010042
:10FDE00065E1FF1F6AB80100EDB8010057E1FF1F90
:10FDF00064E1FF1F90E0FF1F92B7010058E1FF1F71
:10FE00005CE1FF1F60E1FF1F54E1FF1F2DE9F05F80
:10FE10000027B846BB46B9464948007800F01F00A5
:10FE200001287CD14748007810B90020BDE8F09F38
:10FE30004FF0000A4448007828B944480078012867
:10FE400001D10020F2E74148007808B9404C00E0B9
:10FE5000404C6CE06078022804D004280BD00528C0
:10FE600061D11EE0607937490978884202D0608804
:10FE700004445CE057E0A77894F803804FF0000951
:10FE80002F480079B8420BD12D488078404507D1E2
:10FE90004FF0010A304810F807B0014601F807801A
:10FEA00041E027480079B8423CD1A07800F08F06A5
:10FEB00006F0800028B106F00F014FF48030884032
:10FEC00001E00120B04005461D488078404515D12D
:10FED0002248006828432149086021480068A84357
:10FEE0001F4908602046FEF721FC3046FEF7AAFCB9
:10FEF000304600F0B3F849EA050913E0D84511D1BE
:10FF000009EA050070B915480068A843134908605C
:10FF100013480068A84312490860304600E00AE030
:10FF2000FEF776FC00BF00BF2078044400BF2078B5
:10FF300000288FD101E0002078E700BF504675E728
:10FF400070E1FF1F57E1FF1F91B7010065E1FF1F3F
:10FF50006AB80100EDB8010090E0FF1F58E1FF1FF3
:10FF60005CE1FF1F10B53520002817DB00F01F02F1
:10FF7000012191402E4A430942F8231000BF00BFDF
:10FF800000BFBFF34F8F00BF00BF00BF00BF00BF67
:10FF900000BFBFF36F8F00BF00BF00BF00BF0124D1
:10FFA00004E00021234800F82410641C102CF8D32E
:10FFB00015212148FCF7D8FA002020490860204983
:10FFC00008602049086020490870204908704020D6
:10FFD0001F4948801F484860C820087000200872E8
:10FFE0001C488030486100211948C1610D20114929
:10FFF00008704FF05530184908600E48C03890F826
:020000040001F9
:10000000940040F002000B492C390870FF20094988
:1000100040390870074938390870091D08700020F8
:10002000044928390870352000F05FF910BD000040
:1000300080E100E0C0200740A01F002080000020D9
:1000400084000020880000208C0000208D0000200B
:10005000001A0020A01A00209000002010B50446CD
:1000600004F08000F8B104F00F04012000EB44021A
:1000700000FA02F1264808F094FE022000EB84000A
:10008000244901EB8011022000EB8400224A02EB9C
:10009000C00041600021022000EB8400401C02EB04
:1000A000C000416033E0620001209040C143184825
:1000B00008F066FE1948015D04F00F00002202EB13
:1000C0008000154A02EBC000418004F00F000021BF
:1000D00001EB80000F4901EB801104F00F000022BA
:1000E00002EB80000C4A02EBC0004160882104F062
:1000F0000F00002202EB8000074A02F830100021B6
:1001000004F00F0001EB8000401C02F8301010BD1D
:1001100090000020A01A0020001A00207800002083
:1001200010B5FEF741F9BDE81040FEF7BBBA00007C
:100130000448007820F020000249843981F88400C6
:10014000704700008420074010B5FFF73DF8BDE878
:100150001040FEF72DB9000019B900F07F02014BE5
:100160001A7070479820074000F00F00044911F8FA
:10017000201041F00202024901F8202070470000DF
:10018000C020074010B5082202490020FFF7B2FA4C
:1001900010BD000070E1FF1F10B500221146802045
:1001A00000F01CF810BD000010B5034802780349A8
:1001B0000020FFF79FFA10BD95B70100D816002068
:1001C0000448007840F020000249843981F8840016
:1001D0007047000084200740704700002DE9F0417F
:1001E00005468846164605F00F05022000EB8504FB
:1001F000144901EBC4014E80002706E018F80700FF
:10020000114901EB8411C8557F1CB742F6D3610830
:100210000E480068C84000F0010020B1882009495C
:1002200001F8340003E0C820064901F834006208F0
:10023000012000FA02F1054808F0C4FD3046BDE88F
:10024000F0810000001A0020A01A00209000002079
:100250000FB4084B10B504A902AA039800F064F883
:10026000044602A9002000F090FA204610BC5DF878
:1002700014FB00008B070100002807DB00F01F02C1
:1002800001219140024A430942F8231070470000BF
:1002900080E200E0002817DB00F01F0201219140FE
:1002A0000A4A430942F8231000BF00BF00BFBFF352
:1002B0004F8F00BF00BF00BF00BF00BF00BFBFF334
:1002C0006F8F00BF00BF00BF7047000080E100E0FB
:1002D000002809DB00F01F02012191404209920031
:1002E00002F1E022C2F800117047002809DB00F09B
:1002F0001F02012191404209920002F1E022C2F85E
:100300000011704702E008C8121F08C1002AFAD184
:1003100070477047002001E001C1121F002AFBD185
:10032000704780F3108870472DE9FF4F8DB00F465E
:100330000546002606E025280BD0DDE90F12904780
:100340006D1C761C28780028F5D111B03046BDE828
:10035000F08F0024A246A1460122EC4900E00443AC
:1003600015F8013F203B02FA03F00842F7D1287844
:100370002A2810D06FF02F022878A0F13001092927
:1003800014D80AEB8A0102EB410144F0020400EBAD
:10039000010A6D1CF0E701CF5FEA000A03D544F4BF
:1003A0000054CAF1000A44F002046D1C28782E287B
:1003B00017D115F8010F44F004042A280ED06FF06D
:1003C0002F022878A0F1300109290AD809EB890108
:1003D00002EB410100EB01096D1CF2E757F8049BA9
:1003E0006D1C28786C280FD006DC4C2817D06828A4
:1003F0000DD06A2814D104E0742810D07A280FD1C7
:100400000DE044F400140AE044F4801401E044F4E4
:1004100040146978814202D104F580146D1C6D1C72
:100420002A786E2A1FD00CDC632A31D004DC002A23
:100430008BD0582A11D1A3E0642A68D0692A0CD144
:1004400065E0732A2ED004DC6F2A73D0702A04D1A1
:100450009BE0752A6FD0782A6ED01046DDE90F1226
:100460009047761C50E1C4F30250022806D00328BE
:1004700009D0042801CF09D0066045E101CFF1176A
:10048000C0E9006140E101CF06803DE106703BE13B
:1004900017F8040B8DF8000000208DF80100EB46E2
:1004A000012003E057F804BB4FF0FF3061074FF025
:1004B000000102D40DE008F10101884649450FDA38
:1004C0008045F8DB1BF808100029F4D108E008F19A
:1004D000010188468142FADB1BF808100029F6D199
:1004E000DDE90F23AAEB08008146214600F036F92A
:1004F000304400EB080604E0DDE90F121BF8010BA5
:100500009047B8F10108F7D221464846F7E00A21A2
:10051000C4F302534FF0000B0891022B04D001CF1B
:10052000C117032B09D00AE0FF1D27F00707F7E8E2
:10053000020108E032E01FE020E000B2C117042B06
:1005400001D140B2C117031E71F1000307DA4FF069
:10055000000CD0EB0C006CEB01012D2302E0230515
:1005600004D52B238DF82430012303E0E30701D0C9
:100570002023F7E7984658E00A2110E010210EE00A
:1005800010204FF0000B08900CE010214FF0000BF2
:1005900044F004044FF00809089103E008214FF0EB
:1005A000000B0891C4F30253022B04D001CF0021A9
:1005B000032B06D006E0FF1D27F00707F7E802012E
:1005C00003E080B2042B00D1C0B24FF00008230733
:1005D0002BD5702A07D0DDF820C08CF0100C5CEA17
:1005E0000B0C05D00EE040238DF82430012308E0E9
:1005F00050EA010306D030238DF824308DF82520F1
:1006000002239846DDF820C08CF0080C5CEA0B0C45
:100610000BD150EA010301D1630706D530238DF8D1
:1006200024304FF00108A9F10109582A04D038A25A
:100630000B9208AA0A920BE03AA2F9E75B46089AE5
:10064000FBF79DFF0B9B9B5C0A9A521E0A9213704C
:1006500050EA0102F2D10A98ADEB000000F1200B44
:10066000600702D524F4803401E04FF00109D94538
:1006700002DDA9EB0B0000E0002000EB0B01414480
:100680000890AAEB010AE00306D4DDE90F23214616
:10069000504600F063F806444FF0000908E009A94D
:1006A00011F80900DDE90F12904709F10109761CE4
:1006B000C145F4DBE0030CD5DDE90F2321465046AC
:1006C00000F04CF8064404E0DDE90F1230209047BA
:1006D000761C0899481E08900029F5DC08E00A9865
:1006E0000A990078491C0A91DDE90F129047761C9F
:1006F000BBF10001ABF1010BF1DC21465046DDE915
:100700000F2300F019F806446D1C1BE609280100B0
:100710003031323334353637383961626364656677
:100720000000000030313233343536373839414239
:1007300043444546000000002DE9F04104460025F1
:100740001E461746880404D405E039462020B047E9
:100750006D1C641EF9D52846BDE8F0812DE9F041F5
:10076000044600251E469046C80301D5302700E008
:100770002027880404D505E041463846B0476D1C63
:10078000641EF9D52846BDE8F0810A68531C0B6049
:100790001070704738B50446200A8DF80000E0B2AA
:1007A0008DF8010002226946E22006F091FB38BD77
:1007B00001B501226946E02006F08AFB08BD10B5AC
:1007C00002220A21084600F05DF810BD10B5012292
:1007D0000A21084600F056F810BD000010B5274861
:1007E000007810B12548808800B910BD23484078B2
:1007F000B0B92248808800283EDD20484089401C4E
:1008000080B21E4948814988884235DB02211C4854
:10081000FCF706FF002019494881012048702BE0B1
:1008200016484078012827D114484089401C80B2DE
:1008300012494881898888421EDB1048C0880028F8
:1008400012DD0E480089401C80B20C490881C9881D
:10085000884202DB0020094908700848007818B96E
:10086000002006498880C0E700200449488148707C
:1008700002210348FCF7E2FE00BFB6E7F4EBFF1FDE
:1008800080F00F4070B504460D46164604B970BDA1
:100890000948448001468D8000204881487001202D
:1008A00008700846C6800020088102210348FCF732
:1008B000C5FE00BFEBE70000F4EBFF1F80F00F4028
:1008C00010B5044604B910BD012C00D1022401204A
:1008D000FFF727FD08480460002008490870FFF76B
:1008E00020FD04E005480078012800D100E0F9E788
:1008F00000BF00BFE7E7000060E0FF1F64E0FF1FEC
:1009000070B5054605EB4500384901EB8004207AB7
:10091000062866D2DFE800F0030B162C485E20683C
:10092000804718B101202072002060715CE02068CF
:10093000804720B1022020720020607101E0002079
:10094000207251E02068804778B16079401C607166
:100950006079217988420ADBA079002802DD032032
:10096000207204E00520207201E0002020723BE0AC
:1009700020688047A8B16079401C60716079A179D6
:10098000884210DB04F10B0006F08AFBE0790028B6
:1009900004DD042020720020607104E00520207234
:1009A00001E0052020721FE02068804778B160795F
:1009B000401C60716079E17988420ADB04F10A0029
:1009C00006F06EFB042020720020607101E005201B
:1009D000207209E004F10A0006F062FB0020207298
:1009E00002E00020207200BF00BF70BD8401002023
:1009F00030B5144800684FF47A72B0FBF2F1481E2B
:100A0000B0F1807F00D31BE0481E4FF0E022506120
:100A100050170F22002804DB13071C0E0A4B1C542E
:100A200006E013071D0E094B00F00F04241F1D558F
:100A300000BF00204FF0E02290610720106100BF4E
:100A400030BD00008CE0FF1F00E400E018ED00E086
:100A500010B590B00024FDF7E7F90446402C00D90A
:100A6000402424B1A1B2684608F084FF04461CB1BA
:100A700021466846FDF710FA09F02EF80446402C8E
:100A800000D9402424B121466846FDF7DDF904462B
:100A90001CB1A1B2684608F0F7FF06F0E5FC10B003
:100AA00010BD000070B504460D4600202071401EA8
:100AB000E0622946204606F049FD08B1032070BDDA
:100AC00094F82E1294F82F0241EA00204AF655219C
:100AD000884201D00220F2E794F86900010694F8F8
:100AE000680041EA004194F8670041EA002094F868
:100AF0006610084320F07F400D49884201D1002054
:100B0000DDE794F88500010694F8840041EA00418D
:100B100094F8830041EA002094F88210084320F002
:100B20007F400349884201D10020C8E70120C6E781
:100B30004641540010B502460B460020002102E059
:100B40005C5C2044491C9142FAD310BD024600E08F
:100B5000521C107810B110788842F9D11078704783
:100B600070B5044600BFEFF3108101F0010072B6CA
:100B700000BF0546204600F009F8A168081A461E85
:100B8000284600B962B600BF304670BD10B50146B8
:100B900000BFEFF3108404F0010372B600BF1A46E1
:100BA000D1E90043A34203D3D1E90043181B04E079
:100BB000D1E9013423440C68181B134603B962B60B
:100BC00000BF10BD30B500BFEFF3108505F0010484
:100BD00072B600BF2346C160826000240460446096
:100BE0001C4604B962B600BF30BD10B5014600BF57
:100BF000EFF3108404F0010072B600BF02460C68E7
:100C0000C868035D0868401C08608C680868A042DA
:100C100001D300200860104600B962B600BF184634
:100C200010BD10B500BFEFF3108404F0010372B6DD
:100C300000BF1A464468C368195543685B1C43608B
:100C4000D0E90134A34201D300234360134603B922
:100C500062B600BF10BD2DE9F04180460E46174632
:100C60004046FFF793FF0546AF4201D2384600E009
:100C700028460546002404E04046FFF7B6FF3055FD
:100C8000641CAC42F8D32846BDE8F0812DE9F04160
:100C900080460E4617464046FFF762FF0546AF42C4
:100CA00001D2384600E028460546002404E0315DC4
:100CB0004046FFF7B6FF641CAC42F8D32846BDE8B7
:100CC000F081000010B54FF4807205490548FFF728
:100CD00079FF4FF4807204490448FFF773FF10BD99
:100CE000C4010020B4010020D4020020C40200206E
:100CF00010B500240C24002004E000220C490A5402
:100D0000411CC8B2A042F8DB2024002005E00022EC
:100D100007490C310A54411CC8B2A042F7DB044811
:100D2000083800F0ABF808B1012010BD0020FCE746
:100D30003CF1FF1F70B503460D46586A021D280B93
:100D40001E68B678B0FBF6F400BF02CA09B90020ED
:100D500070BD8C4200D202E0641A121DF5E700BF9C
:100D600010682044F4E7000030B504460A4600232A
:100D700006E0E05C124909681944124D68545B1C96
:100D80009342F6D30E48006810440D4908600E489F
:100D90000068801A0C49086009480068B0F5A06F27
:100DA00001D9FDF77FFC0848006838B9044800689D
:100DB00020B1002002490860022030BD0120FCE77C
:100DC00004E0FF1FF4E1FF1F08E0FF1F0246891E39
:100DD0005069801E884201D8002070479378906A3D
:100DE00001FB0300F9E700002DE9F04705460C463A
:100DF000207820F04000401E00EB800101EBC0068F
:100E000000274FF0010800BF1A48C05D205C194957
:100E1000C95D2144497840EA0129B8F1000F10D09A
:100E2000484603F02DFE8046182E07D23146761C28
:100E300035F8110003F024FE404508D00020BDE83D
:100E4000F0874FF6FF70814501D00020F7E7781C4E
:100E500007460D28D8D3207800F0400038B1B8F10B
:100E6000000F04D035F8160008B10020E7E7012094
:100E7000E5E7000096B201000020704770B594B01D
:100E800004460F4E304604F0E9FF054615B1012037
:100E900014B070BDFF2250216846FBF75EFB502264
:100EA00021466846FBF747FB50226946304604F06E
:100EB000FBFF05460DB10120EAE70020E8E700004E
:100EC00000F001000020704710B504461C220449C0
:100ED0002046FBF730FB601C0249086010BD000093
:100EE000DCB101006C00002005490A6802604A6814
:100EF000426089688160411C024A116070470000AD
:100F0000D0B10100680000202DE9F0470446894671
:100F1000B9F1000F06D1E76817B16069B84215D87A
:100F2000012713E04946204604F03EFB0646022E08
:100F300002D20120BDE8F087701C08B93046F9E7FD
:100F40006069B04201D93046F4E74F463D4600BFE4
:100F50006D1C6069A84204D80225BD4201D9002059
:100F6000E8E72946204604F01FFB064606B909E0DB
:100F7000701C08B1012E01D13046DBE7BD42E7D13C
:100F80000020D7E700BF6FF070422946204607F0E7
:100F90002AFF8046B8F1000F08D1B9F1000F05D043
:100FA0002A464946204607F01EFF8046B8F1000F4A
:100FB0000BD1E5602069401C78B12069401E20619A
:100FC000607940F00100607107E0B8F1010F02D1D3
:100FD0004FF0FF3000E0012005462846AAE7000058
:100FE0002DE9F34F83B082460498D0F800B001E0B9
:100FF0000BF1010B9BF800002F28F9D09BF80000A3
:101000005C28F5D0DAF81C9000252E4600BF30464B
:10101000761C1BF80040202C03DB2F2C01D05C2C0D
:1010200000D11CE0182D03D3062005B0BDE8F08FD9
:10103000E4B20121204603F0FDFC04460CB9062071
:10104000F3E7802C06DA21466BA0FFF77FFD08B19D
:101050000620EAE728466D1C29F81040D7E700BFB4
:101060000BEB060104980160202C01DA042000E05B
:101070000020074608E0681E39F81040202C02D0F6
:101080002E2C00D002E06D1E002DF4D100BF0DB952
:101090000620CAE7002029F815000B222021DAF8E3
:1010A000180006F01FFA002600E0761C39F816003A
:1010B0002028FAD039F816002E28F6D00EB147F0C5
:1010C000030700E06D1E25B1681E39F810002E28B8
:1010D000F8D14FF00008CDF808800820019000BF3B
:1010E0003046761C39F8104004B955E0202C03D066
:1010F0002E2C04D1AE4202D047F00307F0E7DDE921
:101100000110884201D2AE4216D101980B2802D1BB
:1011100047F0030740E0AE4201D047F00307AE427C
:1011200000D939E02E46082002900B2001904FEAAA
:1011300088604FEA1068D3E7802C0BDB0021204643
:1011400003F078FC04461CB1A4F180002D490C5C2E
:1011500047F0020700BF24B121462BA0FFF7F6FCA1
:1011600018B15F2447F003070FE0412C04DB5A2C31
:1011700002DC48F0020808E0612C06DB7A2C04DC73
:1011800048F00108A4F1200084B2DAF8183002987F
:10119000411C02911C54A3E700BFDAF81800007844
:1011A000E52803D10520DAF81810087001980828FE
:1011B00003D14FEA88604FEA106808F00C000C2851
:1011C00003D008F00300032801D147F0020707F01D
:1011D000020058B908F00300012801D147F01007B8
:1011E00008F00C00042801D147F00807DAF81800CD
:1011F000C772002019E70000222A3A3C3E3F7C7F5C
:101200000000000016B201002B2C3B3D5B5D00008E
:1012100038B50446200A8DF80000E0B28DF80100D0
:1012200002226946E42005F053FE38BD1CB50122B8
:1012300000214FF4824005F06FF908B1A5201CBDD4
:1012400004F0AFFE08B1A520F9E701205749087066
:1012500000240EE0012201A944F2020004F03AFF4A
:1012600008B1A520EBE7BDF8040000B103E0601C65
:10127000C4B2022CEEDD00BFBDF8040090B901221B
:101280004B4944F2121005F047F908B1A520D6E702
:1012900004F072FF08B1A520D1E70220434908708D
:1012A0000020CCE77EE004F0D1FF08B1A520C6E71E
:1012B000002406E004F075FE012800D003E0601C65
:1012C000C4B20A2CF6DB00BF0A2C01DBA520B6E76E
:1012D00038484078012803D1002036494870AEE7ED
:1012E000012269464FF6847004F0F4FE08B1A5208F
:1012F000A5E7BDF8000000F0600000B153E0002455
:101300000EE0012201A944F2020004F0E3FE08B15C
:10131000A52094E7BDF8040000B103E0601CC4B24E
:10132000022CEEDD00BFBDF8040078B9012220498F
:1013300044F2121005F0F0F808B1A5207FE704F0A0
:101340001BFF08B1A5207AE7002078E71A48007C47
:1013500088B100240DE0184830F81400BDF80410DE
:10136000884204D1012013490870002067E7601CFF
:10137000C4B2082CEFDBBDF804001049098888428C
:101380000BDBBDF804000E490988884205DC0B48D8
:1013900000880B490988884204D10120054908705A
:1013A00000204CE77FE700BF002048E744E0FF1F34
:1013B00048E0FF1F45E0FF1F400100204EE0FF1FF7
:1013C00050E0FF1F1CB5012200214FF4824005F0C0
:1013D000A3F808B1A5201CBD04F0E3FD08B1A520C9
:1013E000F9E701203349087060E004F059FF08B1C3
:1013F000A520F0E7002406E004F0D3FD012800D08A
:1014000003E0601CC4B20A2CF6DB00BF0A2C01DB2F
:10141000A520E0E728484078012803D1002026498C
:101420004870D8E7012269464FF6847004F052FEF6
:1014300008B1A520CFE7BDF8000000F0600000B1C2
:1014400035E0012201A944F2020004F043FE08B194
:10145000A520C0E71948007C88B100240DE017489A
:1014600030F81400BDF80410884204D1012012495C
:1014700008700020AFE7601CC4B2082CEFDBBDF899
:1014800004000F49098888420BDBBDF804000D49B0
:101490000988884205DC0A4800880A490988884288
:1014A00004D1012004490870002094E79DE700BFA3
:1014B000002090E744E0FF1F45E0FF1F40010020AF
:1014C0004EE0FF1F50E0FF1F10B5012200214FF436
:1014D000824005F021F808B1A52010BD1148007820
:1014E000012801D00120F8E704F0B0FE08B1A520E2
:1014F000F3E702200B490870002406E004F051FDD8
:10150000012800D003E0601CC4B20A2CF6DB00BF47
:101510000A2C01DBA520E0E7012002490870002029
:10152000DBE7000044E0FF1F10B5012200214FF46B
:10153000824004F0F1FF08B1A52010BD0B480078EF
:10154000012801D0A520F8E704F095FE08B1A520F8
:10155000F3E702200549087004F023FD08B1A52037
:10156000EBE70120014908700020E6E744E0FF1F97
:1015700010B5012200214FF4824004F0CDFF08B1E4
:10158000A52010BD0B480078012801D00120F8E704
:1015900004F086FE08B1A520F3E702200549087093
:1015A00004F0FFFC08B1A520EBE701200149087019
:1015B0000020E6E744E0FF1F10B50122002144F2BD
:1015C000111004F0A9FF08B1A52010BD002409E006
:1015D000084830F8140018B10020064921F814001A
:1015E000601CC4B2082CF3DB00200249087400BF61
:1015F000EBE700004001002038B50546E878A978FF
:1016000000EB012080B200900122694644F21110E3
:1016100004F082FF08B1A52038BD00240DE0124877
:1016200030F81400BDF80010884204D100200E49A3
:1016300021F8140003E0601CC4B2082CEFDB00BFEB
:10164000002406E0084830F8140000B103E0601CF4
:10165000C4B2082CF6DB00BF082C02DB00200249D4
:1016600008740020D8E700004001002010B504F005
:1016700083FC08B1A52010BD04F093FC08B1A5209F
:10168000F9E70120014908700020F4E744E0FF1F5A
:101690002DE9F84305460E466878297840EA012886
:1016A000002403E0285D3055601C84B2092CF9DB6E
:1016B000002438E004EB44000A30295C04EB4400C9
:1016C0000930285C41EA002704EB44000B30285C19
:1016D000009001226946384604F01EFF10B1A52093
:1016E000BDE8F88301226946384604F0F3FC08B1EE
:1016F000A520F5E704EB44000930295C04EB440025
:101700000930315404EB44000A30295C04EB4400F6
:101710000A303154BDF80000C1B204EB44000B3074
:101720003154601C84B24445C4DB0020D8E738B58E
:1017300004466078217840EA0125E078A17840EA03
:10174000012000900122694644F2020004F0E4FE08
:1017500008B1A52038BD012001F0FAFB0020F9E70F
:101760002DE9FC4104460E466078217840EA0128C4
:10177000E078A17840EA012720790190002503E074
:10178000605D7055681C85B2092DF9DB00251AE0F3
:10179000012201A9384604F0BFFE10B1A520BDE822
:1017A000FC8101226946384604F094FC08B1A5206A
:1017B000F5E7781C87B2BDF80000C1B205F1090059
:1017C0003154681C85B24545E2DB0020E7E738B5B7
:1017D0000546002405E0002104F108002954601C9E
:1017E000C4B2092CF7DB08202872002426E044F25A
:1017F000070160180122694604F06CFC08B1A520BD
:1018000038BD0020092101EB840168540021092022
:1018100000EB8400401C2954BDF80000011209208F
:1018200000EB8400801C2954BDF80000C1B20920DF
:1018300000EB8400C01C2954601CC4B2082CD6DB09
:101840000020DDE72DE9F84305460E466878297843
:1018500040EA0128E878A97840EA0127002403E05B
:10186000285D3055601C84B2092CF9DB002412E09D
:1018700001226946384604F02DFC10B1A520BDE8D0
:10188000F883781C87B2BDF80000C1B204F10900EA
:101890003154601C84B24445EADB0020EFE7F8B520
:1018A00005460122694644F2060004F013FC08B123
:1018B000A520F8BDBDF80000C6B206F00800082853
:1018C00000D108262E70002426E044F2070160189B
:1018D0000122694604F0FEFB08B1A520E9E70020DB
:1018E000092101EB840168540021092000EB8400E8
:1018F000401C2954BDF80000010A092000EB8400B7
:10190000801C2954BDF80000C1B2092000EB8400FE
:10191000C01C2954601CC4B2B442D6DB0020C8E706
:1019200010B51E480078012801D0A52010BD04F094
:10193000FBFA08B1A520F9E7022001F009FB01201C
:101940001649087004F02DFB08B1A520EEE701222E
:1019500000214FF4824004F0DFFD08B1A520E5E747
:10196000002413E00E4830F8140068B101200C493F
:101970000874084600EB4401012244F2101004F000
:10198000CBFD08B1A520D1E7601CC4B2082CE9DB6F
:1019900000200449487000BFC8E7000044E0FF1F72
:1019A0004001002045E0FF1F10B5012200214FF447
:1019B000824004F0B1FD08B1A52010BD0B480078AD
:1019C000012801D0A520F8E704F0D6FB08B1A52036
:1019D000F3E702200549087000BF04F0E2FA00288E
:1019E000FBD10120024908700020E6E744E0FF1F18
:1019F00045E0FF1F38B50546E878A97800EB0120DF
:101A000080B2009000240AE0164830F81400BDF8B7
:101A10000010884201D1002038BD601CC4B2082CDF
:101A2000F2DB002406E00F4830F8140000B903E0B0
:101A3000601CC4B2082CF6DB00BF082C01DBA5201B
:101A4000EAE70122694644F2101004F065FD08B18E
:101A5000A520E1E7BDF80000024921F814000020AC
:101A6000DAE700004001002038B5044660782178AC
:101A700040EA012000900122694644F2041004F07B
:101A80004BFD08B1A52038BDE078A17840EA0120DF
:101A900000900122694644F2051004F03DFD08B1B2
:101AA000A520F0E76079217940EA01200090012229
:101AB000694644F2061004F02FFD08B1A520E2E7C4
:101AC000E079A17940EA012000900122694644F2C0
:101AD000071004F021FD08B1A520D4E7607A217A2F
:101AE00040EA012000900122694644F2081004F007
:101AF00013FD08B1A520C6E7E07AA17A40EA0120EB
:101B000000900122694644F20A1004F005FD08B174
:101B1000A520B8E7607B217B40EA012000900122EC
:101B2000694644F2091004F0F7FC08B1A520AAE7C1
:101B30000020A8E770B505460E46F748C560066167
:101B400028780006697840EA0140A97840EA012037
:101B5000E9780843F049086008460068EF49884280
:101B600001D0A02463E26879297940EA0120EA499A
:101B70008880A879522801D0A12458E20821E84899
:101B8000FBF746FD2021E6484038FBF741FD522097
:101B9000E1498871E879C87108691421FAF7E4FC11
:101BA000DD480661C079252879D026DC132877D056
:101BB00012DC072875D008DC012840D0022862D04A
:101BC000032874D006286ED186E010286CD0112826
:101BD0006BD01228F7D19CE0212867D006DC1428AE
:101BE00070D015286FD02028EDD1C8E022286BD006
:101BF00023286AD02428E6D105E1362871D00DDCEF
:101C0000A0F1260010284ED2DFE800F0F1F0EFEE50
:101C1000EDEC4D4D4D4D4D4DEB4D4DEA412874D001
:101C200006DC372872D03A2871D04028CBD1BAE1EF
:101C300047286DD0602849D07028C4D1DCE101204C
:101C4000B54909690872B449096948720020B24966
:101C5000096988720120B0490969C8720020AE493B
:101C600009690873AC4909694873AB490969887304
:101C7000A9490969C873A849096908741420A649C3
:101C800088800024D1E1A449096901F1080007F026
:101C900060F904464FF405709F498880C5E1C8E0AB
:101CA0004BE01FE003E0BEE121E025E07AE09A4945
:101CB000C96801F1080000F0D5FD044614209649DA
:101CC0008880B2E149E04FE077E091E005F0E0FB89
:101CD000142091498880A8E1002414208E4988802E
:101CE000A3E140E1002414208B4988809DE1002479
:101CF00014208949888098E18749C86800F080FDF0
:101D000004461420844988808FE15BE13BE145E192
:101D100063E108218248FBF77BFC202180484038A2
:101D2000FBF776FC7C49C96801F1080000F0DCFF94
:101D3000044614207849888077E101F02BF80446A6
:101D400008217748FBF772FC202175484038FBF7E3
:101D50005FFC14207049888067E1FAF77EFC044636
