:020000040000FA
:1000000000400020250400003D040000070D000012
:10001000410400004304000045040000000000000B
:100020000000000000000000000000004704000085
:1000300049040000000000004B0400008D0D00008A
:100040004F04000053040000570400005B0400004C
:100050009704000097040000970400009704000034
:100060009704000097040000970400009704000024
:100070009704000097040000970400009704000014
:100080005F0400009704000097040000970400003C
:1000900097040000970400009704000097040000F4
:1000A00063040000670400006B0400006F0400009C
:1000B00073040000770400007B0400007F0400004C
:1000C00083040000390E00008B0400008F04000040
:1000D00093040000970400009704000097040000B8
:1000E00097040000970400009704000097040000A4
:1000F0009704000097040000970400009704000094
:100100009704000097040000970400009704000083
:1001100097040000D90E0000970400009704000027
:100120009704000097040000970400009704000063
:100130009704000097040000970400009704000053
:100140009704000097040000970400009704000043
:100150009704000097040000970400009704000033
:1003F000970400009704000097040000FFFFFFFF30
:10040000FFFFFFFFFFFFFFFFFFFFFFFFFEF9FFFF03
:10041000DFF80CD000F094F800480047F52F0000FA
:100420000040002072B61D481D4901600A6882F331
:1004300008881C48804762B61B480047FEE7FEE775
:10044000FEE7FEE7FEE7FEE7FEE7FEE7FEE717480A
:100450000047174800471748004717480047174804
:1004600000471748004717480047174800471748F4
:1004700000471748004717480047174800471748E4
:1004800000471748004717480047174800471748D4
:1004900000471748004717480047000008ED00E0F4
:1004A00000000000B90D00001104000097040000D6
:1004B00097040000970400009704000097040000D0
:1004C000090D00001D0D0000650D0000790D0000F4
:1004D000970400009704000097040000010E00003C
:1004E000970400002D0E000097040000CD0E0000C0
:1004F000970400009704000040EA01039B0703D023
:1005000009E008C9121F08C0042AFAD203E011F852
:10051000013B00F8013B521EF9D27047D2B201E014
:1005200000F8012B491EFBD270470022F6E710B5F8
:1005300013460A4604461946FFF7F0FF204610BD51
:10054000064C074D06E0E06840F0010394E8070020
:1005500098471034AC42F6D3FFF75EFF6C370000CB
:10056000AC37000070B58C1810F8015B15F007036C
:1005700001D110F8013B2A1106D110F8012B03E03C
:1005800010F8016B01F8016B5B1EF9D12B0705D444
:100590000023521E0DD401F8013BFAE710F8013B8D
:1005A000CB1A921C03E013F8015B01F8015B521EA9
:1005B000F9D5A142D8D3002070BD0000104908B57C
:1005C0000E4848640F4800F063F910490E480022B5
:1005D00008600F48009002230321104600F0F4F851
:1005E0000848083800F0E6F90B490A480860BDE8F9
:1005F00008400A494FF4E02000F00AB90000071152
:1006000000800440D034000000127A0024E0FF1F74
:10061000E90700000087930318E0FF1F006CDC026D
:100620007047000070B5614800F0E6F85F48401C74
:1006300000F0E2F85D48801C00F0DEF85B48C01C6A
:1006400000F0DAF85948001D00F0D6F8584C07229F
:100650000021204600F07EFB01220421204600F00C
:1006600079FB6068534D2840606003220C212046CE
:1006700000F070FB03220D21204600F06BFB0022EE
:100680001221204600F066FB00221321204600F0D4
:1006900061FB01220221204600F05CFBA06828409B
:1006A000A06007220321204600F054FB2069284067
:1006B000206101220521204600F04CFB606920F0FA
:1006C000807040F0020060613B4C04221021204603
:1006D00000F040FB01221221204600F03BFB0122EA
:1006E0001321204600F036FB01220321204600F0B2
:1006F00031FB324C00221146204600F02BFB002239
:100700000121204600F026FB01220A21204600F0AC
:1007100021FB01220221204600F01CFB01220321C3
:10072000204600F017FB01220421204600F012FBB6
:1007300001220821204600F00DFB0122092120465C
:1007400000F008FB1E4C01220021204600F002FBB5
:1007500001221146204600F0FDFA03220221204624
:1007600000F0F8FA01220321204600F0F3FA0122FA
:100770000421204600F0EEFA07220521204600F071
:10078000E9FA07220621204600F0E4FA0722114682
:10079000204600F0DFFA0B48C16821F00371C16008
:1007A000016921F03001016170BD000009003810BD
:1007B00000900440FDFFFFFE00A0044000B0044094
:1007C00000C00440008004402DE9F0411D4616465B
:1007D0000F46069C00F096F823462A4631463846D6
:1007E000BDE8F04100F0A6B847F2305000E000BF8D
:1007F000401EFCD270470000044901EB10410A681A
:10080000012383401A430A607047000000700440CF
:1008100030B51C4D01232A6822F480222A60194A2F
:10082000343AC8B1184C09191BD0641009191AD0F0
:10083000091915D0E14201D1092112E000235168C4
:1008400021F4E02101435160296841F480212960AD
:10085000B0F5E02F09D012E0516821F48021F2E7D1
:1008600002219164EBE70521FBE70848032180F8AA
:10087000441190F8401141F0800180F84011184671
:1008800030BD000034800440009423FD0020074068
:1008900010B5016849F69702914201D8002105E0A0
:1008A000154A914201D8012100E00221134B04793D
:1008B0001A7822F00F0222431A701A78847922F0F3
:1008C000A00214431C70C27992019A700C4A5478A9
:1008D00021F0704124F03C0444EA011144792143A1
:1008E00051704079002805D01878000602D590791B
:1008F0008007FCD510BD000000127A0000500640B1
:10090000004006400A4A117B01F00301814201D0F8
:10091000012100E00021137B60F30103137329B16F
:1009200040F2DC5000E000BF401EFCD200207047C7
:10093000004006402DE9F0411D4C0026E578A779DE
:10094000FF0604D5E778012687F02007E7702778AF
:10095000C00027F0FC07C0F3C20047EAC0002070C7
:10096000207B800705D16078400702D5A0798007F9
:10097000FCD5A079C006FCD406B1E570C801C0F36F
:10098000C010C0015101C1F3411140EA411025F0EE
:10099000E0010843E070E1788142FCD1A07910F0D9
:1009A0000C0FFBD103B198470020BDE8F081000097
:1009B00000400640074942684A6402784B6862F387
:1009C00011434B60044940780A6860F393420A601F
:1009D00070470000008004400070044010B50268B9
:1009E000D30F044A01D0526800E092689047BFF3E9
:1009F0004F8F10BD240000202DE9F04389B015462B
:100A00001C460E4681466A4602F030F92A463146B7
:100A10004846049B02F0EAF800282BD1204602F059
:100A2000FDF8070026D1DDE9004625446D1EB5FB23
:100A3000F6F006FB105020B1B5FBF6F56D1C7543C2
:100A40006D1E0021484602F0B6F8DFF830800BE05A
:100A500024F07F4040F01061C8F80410484602F0CE
:100A6000E7F8070002D13444AC42F1D9484602F01D
:100A70009FF8384609B0BDE8F0830000000002404E
:100A800070B504002CD01948C06CC0F303600F2867
:100A900028D0174931F8100080020025C4E9005021
:100AA00001202072C002E060124810F8282F4FF495
:100AB000807191406161C078A061204602F08AF89F
:100AC00050B10D48A0F18001C0E900514031816072
:100AD000E061204600F012F825620020656270BDDA
:100AE000042070BD4FF40030D7E7000000800440C0
:100AF00048350000000002407CE4FF1F70B5D8B10B
:100B0000C469CCB10D4960680D4D0A6840F8042BEA
:100B10004A6840F8042B896840F80719286007499B
:100B2000A6681C220C313046FFF7E6FC761C02203A
:100B30006E602060002070BD042070BD2035000074
:100B4000380000202DE9F04389B01E4614000D4600
:100B5000814612D06A4602F089F832462946484654
:100B6000039B02F043F8070008D100214846009D8E
:100B700002F021F8DFF8548021E0042009B0BDE83C
:100B8000F08302CC4046C8F808100399042902D02B
:100B9000082905D00BE025F07F4141F0C06105E058
:100BA00002CCC16025F07F4141F0E06141604846E0
:100BB00002F03EF8070004D103980544361A002ECF
:100BC000DFD1484601F0F4FF3846D7E70000024085
:100BD0002DE9F04F89B0154699460C4683466A4682
:100BE00002F044F82A4621465846059B01F0FEFFD4
:100BF000002831D16A462146584602F037F8009E57
:100C0000DDF808807142C8F1000001404F42B74250
:100C100000D14744DFF848A01BE0BC1BAC4200D920
:100C20002C46059826F07F41B4FBF0F041F080722D
:100C3000CAF80420020442EA092040F0FF00CAF882
:100C40000800584601F0F4FF002805D12D1B26446A
:100C50004744002DE1D1002009B0BDE8F08F00002D
:100C6000000002402DE9F04F89B01D00DDE9127946
:100C7000DDF8508016460C46834612D06A4601F0D5
:100C8000F5FF324621465846079B01F0AFFF00288A
:100C900008D16FF07F41DFF85CA041EA0767009C54
:100CA00025E0042009B0BDE8F08F24F07F4040F03B
:100CB0000071CAF80410CAF808702968CAF80C1044
:100CC000584601F0B5FF58B1B9F1000F01D0C9F88D
:100CD0000040B8F1000FE5D00022C8F80020E1E79D
:100CE0000799761A21F003010D4407990C44002E50
:100CF000DBD1D7E70000024001238B400AB14360FB
:100D0000704783607047FEE702480168024800F0C0
:100D10000FB800001C000020006006400248416837
:100D2000024800F005B800001C00002000700640DA
:100D300010B5C278D306064A02D483789B0601D543
:100D4000126800E052689047BFF34F8F10BD00005B
:100D50001400002050F8213062F30A2340F82130BB
:100D600070470000024801680248FFF737BE0000E4
:100D70003000002000C00240024841680248FFF7EE
:100D80002DBE00003000002000D002400949486814
:100D900028B14868401E486001D101200870487899
:100DA000401CC0B248700A2803D30020487002F0EB
:100DB0005BB9704710E0FF1F0748016841F47001FC
:100DC000016006484CF22051C1814DF62811C181C5
:100DD0004FF4E9710180704788ED00E00020054084
:100DE00010B50448054A0168126803489047BFF3EC
:100DF0004F8F10BDC40A002000A006401000002044
:100E000010B5FFF7EDFFBFF34F8F10BD10B50448CD
:100E1000054A4168126803489047BFF34F8F10BDE1
:100E2000C40A002000B006401000002010B5FFF7F3
:100E3000EDFFBFF34F8F10BD38B5194D2C79E87811
:100E4000800601D424F02004E878000601D424F0C0
:100E5000800420060BD5134801F0A0FDE87111486D
:100E600001F08AFD18B9E87820F08000E870A0064B
:100E700005D514F0060F03D0E8798DF8000038BDD1
:100E8000EC79094801F067FD132802D8064801F003
:100E900085FD2146BDE83840034801F093BD0000C0
:100EA00000B0064058E1FF1F68E2FF1F10B504487C
:100EB000054A8168126803489047BFF34F8F10BD01
:100EC000C40A002000C006401000002010B5FFF743
:100ED000EDFFBFF34F8F10BD2DE9F05F384E0025B9
:100EE00096F88040DFF8DCA02146200754D5DFF8D3
:100EF000D8B04FF015090BF5B46E96F890000309C1
:100F0000C0F3C002C0F3800453EA020722D19F005D
:100F100007EB420222445F461BF83240C4F38304CD
:100F2000012C17D107EBC20CBCF8024094B9DFF8D2
:100F3000948008F1140818F80330ACF8023017F860
:100F400032305B0601D5882300E0C8230BF832302D
:100F500040F00100EFF3108212F0010F72B6DAF8E0
:100F600008200EF8020002F10102B2FBF9F009FBC1
:100F70001020CAF8080000D162B6082086F8800068
:100F80001DB996F89400800601D5012500E00025E2
:100F900096F880402007B0D40A4821430C3002F074
:100FA00057F90DB1012000E000209AF8002010430D
:100FB0008AF8000086F88040BDE8F05F00F0F6BED9
:100FC000002007402CE0FF1F000C0020002070478D
:100FD0000020704710B5054C6068002805D101203D
:100FE000606000F005F80020606010BD08E1FF1FA0
:100FF0002DE9F047244CA06800283ED0D4E9040134
:10100000421AE0684FF0000652EA000137D021464C
:101010001E4FC969DFF87880DFF878901E4D7AB1ED
:10102000A069814205D338888B182844834200D3B5
:10103000421A99F8003038F81300904200DA02465C
:101040001648E660007840F0800001F0CFFBE169CF
:101050000144E1616269024462613B882B448B4236
:1010600000D1E561216991420BD199F8002038F84F
:101070001210814205D10120E060BDE8F087A66032
:10108000FBE7E660F9E7000008E1FF1F803500009C
:101090008435000047000020F61100207E35000056
:1010A00010B50B4C206A18B1A06A401CA06210BD9C
:1010B00001202062606200F00DF800206062206272
:1010C000D4E90C018842F2D0401AFFF781FF10BD2D
:1010D00008E1FF1F10B5134C1348164B216B0A1A79
:1010E00012481B780088821A114830F81300824297
:1010F0000EDB1148007800F073FF216B0844206379
:10110000A06A00280CD0616A002909D1401E06E0BF
:101110000120E062606A002802D0A06A401CA06240
:1011200010BD000008E1FF1F09E5FF1F8235000028
:1011300084350000470000207F35000010B50446CC
:10114000400702D52046FFF7ABFF200704D5204615
:10115000BDE81040FFF73EBF10BD7047002070474C
:101160000020704710B50B4800F03CF8002810D064
:10117000084A0948116801700B0A43700B0C837010
:10118000090EC170117901715179417191798171A3
:10119000012010BD40E1FF1F88E4FF1F0E4810B57D
:1011A000002141608160C1600C4A0161C0E9051203
:1011B000C0E9072141620A4A8162C0E90B12426319
:1011C000018038304FF416520260017141710821DC
:1011D000817100F009F810BD08E1FF1FF611002031
:1011E00009E5FF1F0020704700207047002070476E
:1011F000002070470020704710B5104800241049A7
:1012000044608460C4600461C0E90541C0E907141A
:1012100044620C498462C0E90B4141630480FFF7DA
:10122000E5FF06484FF416513830016004714471EF
:1012300008218171FFF7DEFF10BD000008E1FF1FEC
:10124000F611002009E5FF1F10B5FFF7D5FF10BD0F
:1012500070B51948007800282DD0184C00250126BB
:10126000206A50B9D4E90C01884206D11449884259
:1012700003D02163E56225626163A06A70B1206AD0
:1012800060B9E06A50B92662FFF724FF2562D4E90D
:101290000C01884202D0401AFFF79AFED4E90101FE
:1012A000084308D1D4E90401884204D06660A660EE
:1012B000FFF79EFE656070BD4500002008E1FF1F3E
:1012C00009E5FF1F0020704700207047002070478D
:1012D000024910B50880FFF78BFF10BD08E1FF1F22
:1012E000084810B5C178026861F31F6206490A60B8
:1012F00002790A7142794A71807988710846FFF74C
:1013000079FF10BD88E4FF1F40E1FF1F10B5074CB7
:101310000748217800F03CF86060002805D00020E4
:10132000A060BDE8104000F005B810BD48E1FF1F07
:101330003612002070B5124D6C68F4B11148008867
:10134000844200D30446D5E9021300200E4A03E08C
:1013500046189E5D1654401CA042F9D30B48224605
:101360000949007840F0800001F040FAA868204464
:10137000A8606868001B686001D100F065F870BD66
:1013800048E1FF1F8A350000361200208835000032
:1013900070B5194C06460D46207848B101281AD080
:1013A0000020207000F050F8207802281AD020E0A9
:1013B000082D1ED3304601F095FCA060B0F5A06F5B
:1013C00001D3012100E0002150B10020014301D0F0
:1013D00000F03AF82946304601F00AFB2070E3E7B6
:1013E0000120F3E70549A1F5A06001F0C9FBE06029
:1013F00070BD002070BD000000E0FF1F90050020C0
:10140000064810B5028807480549007800F0E8FD55
:1014100005490870BDE81040FFF778BF8A35000025
:10142000361200208935000048E1FF1F10B5044640
:10143000400702D52046FFF7E3FF200703D5BDE8AC
:101440001040FFF777BF10BD034800218160C160E5
:10145000416001707047000000E0FF1F0648002156
:10146000074B8160054A41601A60064B02F5A06295
:101470001A6001707047000000E0FF1F900000201C
:101480006800002054E1FF1F01078A0E044911443F
:1014900011F8C02F22F002020A7001F01DB90000FD
:1014A00000200740014680788988020601D4024A5C
:1014B000115401F011B9000040E0FF1F704700F027
:1014C0004FBA00000A49002811F8940F06D040F0E6
:1014D00001000870102081F87400704720F00100AE
:1014E00001F8740B087820F01000087070470000B5
:1014F0000020074010B50B4C0B48A28800788242B0
:1015000000D902461AB90749002014390871802011
:10151000216801F06BF9216801442160A188081A53
:10152000A08010BD580000206A35000010B5064CA0
:101530000020A288216800F053FD21680144216049
:10154000A188081AA08010BD580000207047000034
:101550000949020607D5000701EB906010F8C01F8B
:1015600021F0050105E001EB800010F8C01F21F01B
:101570000901017070470000002007400949020678
:1015800007D5000701EB906010F8C01F41F005017E
:1015900005E001EB800010F8C01F41F00901017067
:1015A00070470000002007402DE9F047714E0446C7
:1015B000A6F1080580074FF00009A5F1140722D510
:1015C00001F0F0F83078C009FFF7C0FFF088A8807C
:1015D0003078C0F3411121B1012959D002296BD1D2
:1015E00065E07178DFF890810C2965D2DFE801F0C1
:1015F000060C6413641827642B31384500F03AFE5A
:101600001FE0FFF777FF6EE0002005E001F0D2F861
:10161000D8F8000038E0012000F06AFEB8B3F5E722
:1016200010F01F0F48D1B078012140F080003870D1
:1016300000F07F0001F0A0F801F0BCF853E000F0EA
:1016400039FD20B3DDE710F01F0F35D149481B38B5
:1016500042E000F09DFED0B101F0ACF8474812E046
:1016600000F01F00012827D1787880B13079B9784F
:10167000884221D2424908442EE000F04DFF30B1AB
:1016800001F098F83F48006868B380472BE00DE010
:1016900010F01F0010D001280ED100F009F910BB86
:1016A00000F05CF9F8B900F0B3F8E0B904E010F02C
:1016B0001F0008D001280BD0307800060ED4F08827
:1016C00060B100200BE0307904289AD12E4803E065
:1016D0003079052895D12D48286092E7802001F0C7
:1016E00055F8A5F80490600721D5307800061CD481
:1016F000A888E0B1FFF71AFFA888C0B93078C0F316
:10170000411161B101290AD110F01F0007D0012851
:1017100005D100F065F850B900F03AF838B98020EA
:1017200001F034F8A5F8049001E001F049F8200731
:1017300012D53078000606D5A888397908430BD031
:10174000FFF7D8FE08E03878010605D500F07F00E5
:101750003870002101F010F8600602D50020FFF774
:1017600093FE200604D5BDE8F0478020FFF78CBE2D
:10177000BDE8F08760000020E8350000E03500009B
:10178000FEE0FF1FE435000048E0FF1F70E0FF1F90
:1017900010B51049104A08791278904203D00F4AC8
:1017A0001278904214D1487820B1022805D0202820
:1017B0000ED10AE0FFF788FD02E04888FFF786FDBA
:1017C00030B100F0F7FF012010BDFFF789FDF7E70A
:1017D000002010BD600000207C3500007D35000039
:1017E00010B50948094A01791278914209D1407827
:1017F000092806D100F0BAFA18B100F0DBFF012089
:1018000010BD002010BD0000600000206B350000FE
:1018100070B52249224A08791278904203D0214AB1
:101820001278904237D11D4849781F4C1F4D40888F
:1018300004291FD007DC79B101290FD002290BD070
:10184000032928D111E0202906D0212919D02229E5
:101850001AD023291FD11AE02C6010E0FFF780FC7A
:1018600005E02C60FFF746FE09E0FFF777FC002853
:10187000F7D110E0FFF7AAFB0BE000F09BFF01207F
:1018800070BDFFF76FFCF2E7FFF722FD01E0FFF705
:1018900019FD0028F1D1002070BD0000600000207B
:1018A0007C3500007D35000088E4FF1F58000020D3
:1018B0002DE9F041224E23493079097888423CD104
:1018C0007078214C214D224F0C2836D2DFE800F0F1
:1018D0003506212C353535353516243100F062F9C1
:1018E00058B3F078012802D0032803D003E0194848
:1018F000206000E02560FFF7FDFD12E0F07802288F
:1019000002D0032803D00CE01348206009E02560D2
:1019100007E000F02FF909E000F002FA0BE000F018
:1019200049FF0120BDE8F08100F032F928B12760BD
:10193000E1E700F011FA0028F1D10020F2E7000001
:10194000600000206B3500005800002006E1FF1FFA
:1019500088E4FF1FC9E4FF1FB61100200020704774
:10196000074800214170C16001614161418081806F
:101970008161C161C18001810162418170470000C4
:101980006C0000202DE9F047484EB0887188494F1F
:10199000DFF81C817D1C0024884216D3B069A0B9F1
:1019A0007461B480012339787A1C184601F066FD11
:1019B0007080708848B1776198F80000012801D8DC
:1019C000756102E07088401C708070884FF00109DA
:1019D000B0BBF06808B1F46032E0316981B398F8C7
:1019E000000001280DD83C70B48002237A1C00212D
:1019F000012001F043FD7080708800B17561346191
:101A00001EE03D78C846202D00D3002508FA05F0D9
:101A1000084218D0681CC1B23970B48002237A1C05
:101A2000012001F02BFD7080708818B177617088FB
:101A3000401C7080306908FA05F820EA080030611F
:101A4000708830B902E06D1CEDB2DCE7B0690028A7
:101A500028D07088B188DFF86480401A85B2164FAC
:101A600098F8000037F81000A84200D20546144844
:101A70002A467169007840F0800000F0B7FE706976
:101A8000104928447061B088284480B2B080098829
:101A9000884209D298F8000037F81000A84203D114
:101AA000C6F81890BDE8F087B461FBE76C00002031
:101AB00076350000C8E4FF1F7235000047000020A3
:101AC0006C35000078350000F8B51B4C1B4D1C4EE2
:101AD0002089002710B9E5613188E180E1880A1A80
:101AE0001848E169007800F07BFA0004E169000C15
:101AF0000144E161218901448BB2238109D03188FD
:101B00008B4206D2114A1049127831F812108142E4
:101B100010D90F48017801200129009003D8002135
:101B2000064A022003E029786A1C02205B1E01F0AD
:101B3000A9FC2781F8BD00006C000020B511002031
:101B40007A3500006D350000723500004700002036
:101B50007735000010B50446000702D52046FFF790
:101B600011FF600704D52046BDE81040FFF7ACBF69
:101B700010BD0000034804498078085C03490870E0
:101B800001207047600000204100002088E4FF1F12
:101B900010B501F071FC02490870012010BD000071
:101BA00088E4FF1F0B4910B5C8780022012804D033
:101BB000022804D0032806D103E0074A02E00020EF
:101BC00010BD064A521C8978002301F057FC012001
:101BD00010BD000060000020C8E4FF1F05E1FF1FEA
:101BE0002DE9FC5F4548007800287DD0444D042352
:101BF00000262978B146481C28704248007800EB3E
:101C0000400293405B1E0192994202DB85F80090EE
:101C100001263D4A00241188FF2901D2491C118068
:101C20003A4931F81000384900900988884200D1BB
:101C3000012439490020DFF8D8804FF0010BDFF88C
:101C4000D4A091F800E045E0002276B11AF8001027
:101C50005346FF2901D2491C195418F8001021B12C
:101C60001AF800308B4200D30122019918F8007055
:101C700002238B4007FA03F1009B994202DA0FB16D
:101C8000012300E000233CB133B1D5F810C00BFABA
:101C900000F141EA0C0129612049095C8F420ED014
:101CA0001AF800708F4208D3D5F810C00BFA00F76D
:101CB00047EA0C072F6185F8009008F800103AB148
:101CC00023B92A690BFA00F1114329610AF800903F
:101CD000401CC0B27045B7D314B10B49A1F80090B5
:101CE0002869002808D000E006E06888002803D1B1
:101CF000BDE8FC5FFFF746BEBDE8FC9F4500002045
:101D00006C0000204700002002E1FF1F6E3500003C
:101D100004E1FF1F40000020763500004100002054
:101D2000094809498078C97810B1084A815409E006
:101D3000084A0020064B127802E01954401CC0B239
:101D40009042FAD30120704760000020400000203C
:101D50004100002076350000034810B5807801F07E
:101D600090FB012010BD0000600000200C4908B568
:101D7000C8780022012804D0022804D0032806D104
:101D800003E0002008BD074A00E0074A521C002378
:101D90000093CB88897801F075FB012008BD000015
:101DA00060000020B511002005E1FF1F2DE9F05F64
:101DB000EFF3108010F0010F72B6584D4FF000098C
:101DC000EC68C5F80C9095F800A085F8009000D15B
:101DD00062B6E00707D000F033FC01F063FB504827
:101DE000006800B18047E00605D500F0F3FC4D48DF
:101DF000006800B18047A00605D500F0ABFC4A485A
:101E0000006800B18047600703D54848006800B10A
:101E10008047DFF81C81022C08D14648016811B1C7
:101E200098F888008847FF2188F8881020076AD52D
:101E3000414E424FAB46EFF3108000F0010272B604
:101E40005B46D3E90110814258D1012057E0EFF3FE
:101E5000108010F0010F72B639484FF01502405C47
:101E600001F10101B1FBF2F502FB1511596000D13E
:101E700062B60409C0F3C002C0F3800109D109EBC6
:101E8000420C8C4416F83CC0CCF3830CBCF10D0F13
:101E90000AD0A50005EB4202551816F83510C1F31B
:101EA0008301012913D01CE0186920F00200186199
:101EB000307E20F080003076307C20F0800030745E
:101EC0008BF8019039680029B5D0022014E01CB9C4
:101ED00000F001008BF8010057F8241009B104202C
:101EE000884716F83500C0F383000928A3D157F8B6
:101EF000241000299FD0082088479CE7002002B9C1
:101F000062B60028A3D0BAF1000F05D0404610F801
:101F1000941F21F020010170BDE8F09F2CE0FF1F0D
:101F20008C35000090350000943500009835000095
:101F3000002007409C350000000C0020A035000068
:101F4000A011002010B51F48402404701E484168AD
:101F500041F4E0214160416B41F48021416335202F
:101F600000F072FC194890F80C1141F0800180F8E3
:101F70000C1190F80C110906FBD41549090A80F8D8
:101F80009C101349090C80F8B0101149090E80F813
:101F9000B410FF2180F880100E49096801B10421B6
:101FA0000D4A126802B10222114341F0190180F872
:101FB000841080F8004190F80C1141F0400180F845
:101FC0000C1110BD40E0FF1F0080044000200740BE
:101FD000000C0020983500009C3500007047000080
:101FE0002DE9F04703004FEA03702F4E4FEA90644B
:101FF00006EBC408DFF8B4A0B8F802504FF0000CAC
:102000004FF0010914D19AF8010048B1600809FAAB
:1020100000F10AF1100001F027F90020BDE8F08777
:1020200016F83400C0F383000D2801D14FF0010CE5
:102030001D480022A03000EB841702E0B85C8854F1
:10204000521CAA42FAD3194814306708C05CA8F899
:102050000200DAF8100016F83420F84000F0010011
:10206000C2F38012D04690420AD1C888BCF1000F5A
:1020700000D060B10D4809FA07F1103001F0F4F812
:10208000D8F81000F840C00708D0C82007E007487B
:102090006FF00101103001F0CFF8F1E7882006F869
:1020A00034002846BAE70000000C00202CE0FF1F97
:1020B000704700007CB54249A1F11C050878A1F1E8
:1020C000080410F01F0002D0012877D15FE03D48DE
:1020D000CB7802783A481C38C1781C30082B8078BD
:1020E0006CD2DFE803F06B04113C6B6B082A3648B6
:1020F0002060122049E0002A60D019B133482060E6
:102100000A2042E03248FAE70AB9012956D019B14B
:1021100030490091002108E02F49FAE7009A13782E
:1021200013B153881A440092491C8842F6D1009892
:102130000178E9B32060408827E0CAB319B1274984
:102140000091002108E02649FAE7009A137813B1BC
:1021500053881A440092491C8842F6D1E7E7214986
:102160000091002105E0009B1A780AB11A44009200
:10217000491C8842F7D1EE2801D0009801E01A48A6
:1021800000900178A1B120600078019005E001A9DC
:10219000684600F02DF800280FD0A18801988142F0
:1021A0000AD9124980B2A0800978491E084200E08D
:1021B00004E001D10120287101207CBD00207CBDFC
:1021C0006000002067350000123600002536000050
:1021D00024360000A936000026360000AB36000089
:1021E000AA360000AC360000583700006A350000FF
:1021F00030B5164A164B154CD278164D24791B78FB
:10220000212A02D0222A1ED114E09C421BD1124A5C
:102210001378124A12780BB9012A14D042B1104A2D
:10222000026010460F4A128810442860092007E017
:102230000D4AF5E79C4206D10C4828600C480088FE
:102240000860012030BD002030BD0000600000208B
:102250006B35000058000020673500004700002063
:10226000A93600001036000026360000EC350000CC
:102270000E36000070B51C481B4C0078A4F1080411
:1022800010F01F000AD0184AA4F11403174D597812
:102290001279012806D0022824D109E01248163804
:1022A00020601DE0F1B1987882421BD2002015E039
:1022B00002F08F00020605D500F00F064FF48032C1
:1022C000B24001E00122824009B900070AD19868B2
:1022D000104207D0D868104000D001202880256027
:1022E000012070BD002070BD6000002088E4FF1F49
:1022F00070B5264B024619461878498810F01F0021
:10230000A3F11C0604D0012829D0022827D111E00E
:10231000012924D132B1012000F066FAF08840F0A2
:10232000020005E0002000F05FFAF08820F00200D3
:10233000F08029E0187900F08F04200605D504F01C
:102340000F004FF48035854001E00125A5407078ED
:1023500028B1200703D0B068284200D009B100207E
:1023600070BD2AB1204600F011FAF06828430AE057
:102370003069284208D12046FFF786F82046FFF74B
:1023800097FEF068A843F060012070BD6000002057
:102390002DE9F05F5A480026017811F01F0F7DD11A
:1023A000574F80781C3FB1464FF0010A4FF4803BF5
:1023B000002879D0534801783846C07809B90128F7
:1023C0006CD008B1504C68E0504C66E06078022850
:1023D00004D0042844D005285DD143E04848617901
:1023E000807881423AD1787020794A49B8700020CB
:1023F000474A098802E002F80090401C8842FAD35C
:102400000125B8460AFA05F0D8F80810084202D0AB
:102410002846FFF79DF8D8F808100BFA05F0084297
:1024200003D045F08000FFF793F86D1C102DE9D321
:102430004FF00110C8E902090120C8F81090FFF719
:102440003DF8E0794006B8F8060002D540F00100FA
:1024500001E020F00100A8F806001CE060881BE005
:10246000E67818E0BEB9A07800F08F05280604D5FC
:1024700005F00F010BFA01F001E00AFA05F0B96866
:1024800001432046B960FFF70DF82846FFF776F8BC
:10249000284600F021F92078044401E02AE003E016
:1024A0002078002892D120E04D4687F80190012441
:1024B0005E46B9680AFA04F0084202D02046FFF7E7
:1024C00047F8B96806FA04F0084203D044F08000E7
:1024D000FFF73EF8641C102CEBD34FF00110C7E956
:1024E000020500203D61FEF7E9FF05487978807814
:1024F000884202D00020BDE8F09F0120FBE70000E9
:102500006000002067350000A93600002636000074
:10251000FEE0FF1F683500002DE9F84F4348002713
:102520003E460078BA4600F01F00B94601287BD12C
:102530003E491C394878002873D0002000903C4860
:1025400002780846C0780AB901286DD08B4608B1D8
:10255000384C62E0384C60E06078022804D00428EF
:1025600009D0052857D118E061799BF80100814214
:1025700051D0608850E02D48A778E67801794FF077
:102580000009B94247D18078B04244D1012000907F
:102590002A4810F807A0C6553DE024490879B842FA
:1025A00039D1A07800F08F085FEA086005D508F0FF
:1025B0000F004FF48035854002E0012505FA08F54B
:1025C0008878B04215D1DBF8081020462943CBF8B3
:1025D0000810DBF80C10A943CBF80C10FEF762FFD3
:1025E0004046FEF7CBFF404600F076F849EA050981
:1025F00011E056450FD119EA050F0CD1DBF8081090
:102600004046A943CBF80810DBF80C10A943CBF8DF
:102610000C10FEF79DFF20780444207800289BD101
:102620000098BDE8F88FFFE70020FAE7600000207F
:1026300067350000A936000026360000FEE0FF1FC7
:1026400070B520494FF40010C1F88001BFF34F8FDF
:10265000BFF36F8F01201C4D002405EB800181F832
:10266000C040401C1028F8D315211848FDF75DFF25
:1026700017481849402244608460C4600470447064
:102680004A8001F1A0024A60C8220A700C7201F56A
:102690009072CC614A610D2185F8C0104FF0553120
:1026A000016115F8940F40F0020005F81409FF20AD
:1026B0002870287228732C76BDE87040352000F011
:1026C000C3B8000004E000E000200740A011002093
:1026D0002CE0FF1F000C00202DE9F0410546174EAD
:1026E00000064FF000084FF00101A6F1A00705F029
:1026F0000F040FD501EB44008140114800F0A8FD04
:1027000007EB441006EB04218031C0F81C804161C6
:10271000BDE8F08168008140C943094800F08CFDA4
:102720000748001D415D07EB4410418006EB042182
:1027300041608821017080F80880E9E7A00C002042
:102740003CE0FF1F10B5FEF77FFDBDE81040FEF72F
:102750007BBE0000034810F8841F21F020010170A7
:10276000704700000020074010B5FFF739FABDE8B8
:102770001040FEF76DBD0000002904D1024900F0B1
:102780007F0081F898007047002007400007810E05
:102790000348084410F8C01F41F00201017070475F
:1027A00000200740082202490020FFF719BC000062
:1027B0006000002000221146802000F017B80000C1
:1027C0000248034902780020FFF70ABC6A3500007E
:1027D00088E4FF1F034810F8841F41F020010170B6
:1027E00070470000002007407047000070B5154694
:1027F00000F00F00022202EB8004114A002302EBDA
:10280000C400458002F1A00000EB841002E0CE5C21
:10281000C6545B1CAB42FAD30A4960080969C1403F
:10282000C90701D0882100E0C82102F83410012135
:1028300081400448103000F017FD284670BD0000AC
:10284000000C00202CE0FF1F002809DB00F01F0215
:10285000012191404009800000F1E020C0F8001102
:10286000704702E008C8121F08C1002AFAD1704759
:102870007047002001E001C1121F002AFBD1704700
:1028800070B50C4E04240C4A75680C49286800F099
:1028900089FD60B1D6E9011228190A44006800F0E8
:1028A00081FD20B1241D0C2CF4D900F009F8012081
:1028B00070BD00008CE3FF1F0040002000E0FF1F00
:1028C0000E4810B541680E4BD1E90002C3E9010280
:1028D00080F3088880F3098821F07F000949DA60D5
:1028E00008604FF0E020016921F001010161064913
:1028F000002081F88400904700BF10BD8CE3FF1FCB
:102900000000002008ED00E0002007400A484FF4D6
:102910007A710068B0FBF1F0401EB0F1807F0AD2FE
:102920004FF0E0214861054AF02082F8140D0020A4
:10293000886107200861704718E0FF1F0FE000E082
:10294000034610B50020024602E08C5C521C204475
:102950009A42FAD310BD30B50546EFF3108000F06F
:10296000010472B6284600F007F8A968081A401E4C
:10297000002C00D162B630BDEFF3108101F00103ED
:1029800072B6D0E900128A4201D3501A02E0806880
:102990001044401A002B00D162B6704710B5EFF317
:1029A000108101F0010272B6C36801685B5C491CCA
:1029B00001608468A14201D30021016002B962B6BE
:1029C000184610BD10B5EFF3108202F0010272B686
:1029D0004468C36819554168491C4160836899423D
:1029E00001D300214160002A00D162B610BD000071
:1029F000F0B50F4C00220F4D636803E0865C9F1812
:102A0000521CEE558A42F9D358186060A268511AD8
:102A1000A160B0F5A06F01D3FEF716FDA06828B93C
:102A2000606818B1002060600220F0BD0120F0BD98
:102A300000E0FF1F9000002030B50D4C05468DB022
:102A4000204600F05FFA80B9FF2234216846FDF786
:102A500065FD342229466846FDF74EFD342269465D
:102A6000204600F083FA002800D001200DB030BDD0
:102A700000F0010038B504460025684600F094F9DE
:102A8000009881B200912078CAB2904201D0012012
:102A900000E0002062780B0A9A4201D0012200E097
:102AA00000221043A2780B0C9A4201D0012200E0D0
:102AB00000221043E278B2EB116F01D0012100E057
:102AC0000021084301D0122501E000F0BBFC28469C
:102AD00038BD000010B5C2780168436862F31F6119
:102AE000C279002462F31F6300F10802034800F07A
:102AF00083FC00B11224204610BD00004B4E494C0F
:102B000038B50446002500F09DFC684600F04CF9FD
:102B1000009820700098000A60700098000CA07067
:102B20000098000EE070284638BD000010B5002463
:102B300000F0BCFB00B11224034800F0ABFB00B175
:102B40001224204610BD00004B4E494C0B4950B199
:102B500001280BD002280CD0032803D102204860A2
:102B60000120886070470220486004E002208860ED
:102B7000F6E702208860012048607047C0F00F40EF
:102B800010B50368C4781BBA23F0FF032343064C37
:102B90000022A34205D0054CA34202D100F066FA00
:102BA0000246104610BD0000BADCCDABABCDDCBA9E
:102BB0000121AFF3008010B50C4600F00BF800289F
:102BC00007D1012C05D100F071F8BDE8104000F0EC
:102BD0007BB810BD30B1C06910B10068022803D0C5
:102BE0006D207047042070470020704710B530B149
:102BF0005B1E194201D11A4203D0652010BD04208A
:102C000010BD03688B4206D84068114418448842BE
:102C100001D3002010BD662010BD0000034988428A
:102C200001D06B2070470020704700006B66656B19
:102C300010B50C4C70212170FFF7CCFF002807D194
:102C400009492046096888472078810601D5672010
:102C500010BDC10601D5682010BDC007FCD0692099
:102C600010BD0000000002403800002070B50E4684
:102C70000500144617D0B4B120211046FDF755FCCD
:102C80002868301A2060E8686060297A6868B0FBBC
:102C9000F1F0A06004200821C4E90301C4E9051093
:102CA000E061002070BD042070BD000030B4054C10
:102CB0000F23142264680248A44630BC19056047FB
:102CC00004F001403800002030B4054C01231322E9
:102CD00064680248A44630BCD904604704F001404F
:102CE000380000200168C27809BA21F0FF011143C1
:102CF000174A914202D1808840BA7047154A9142E2
:102D000024D14079182803D00021D92813D000E01D
:102D100001210022114332280FD0002211432A281A
:102D20000DD00022114335280BD0002001430AD0DA
:102D30004FF4806070470122ECE70122EEE70122A8
:102D4000F0E70120F2E74FF4007070470020704771
:102D5000BADCCDABABCDDCBA4FF48040006A411C8D
:102D600000D100207047000010B50C230A4A002152
:102D70005418491C247AC9B200F8014B9942F7D380
:102D8000202300215418491C247DC9B200F8014BAE
:102D90009942F7D32C2010BDB4E3FF1F0148C0684F
:102DA00070470000E8E3FF1F10B504460348816840
:102DB000406800F0C7F82060002010BDA0E3FF1FAE
:102DC00070B5324C606920F0100060613049A01588
:102DD00008613049C8648002A06460651020C4F8AE
:102DE000C8002A4D0122C03511462846FDF784FF50
:102DF000D4F8D40040F00200C4F8D400012200212D
:102E00002846FDF779FFD4F8D40040F00100C4F85B
:102E1000D400012205212046FDF76EFF54F8140F5F
:102E200040F0200001C4194D0122403503212846FD
:102E3000FDF762FFE06B40F00800E0630122122121
:102E40002846FDF759FFE06B40F48020E063012243
:102E500013212846FDF750FFE06B40F40020E063AB
:102E60000A4D0122803502212846FDF745FFE06F1B
:102E700040F00400E067012203212846FDF73CFFF3
:102E8000E06F40F00800E06770BD000000F00F4008
:102E90000090044000A0044010B5EFF3108000F053
:102EA000010472B60C484CF22051C1814DF6281134
:102EB000C181018821F00101018034210748FDF71B
:102EC00034FB0648FDF7DCFD08B1012010BD04B954
:102ED00062B6002010BD000000200540900A0020CE
:102EE00070B50D460646002407E0301900F00AF8D8
:102EF00008B1012070BD04F50064AC42F5D3002098
:102F000070BD000070B50546EFF3108000F00104BD
:102F100072B60A4E0A4B29463046F268FDF76CFD40
:102F200028B9002329463046F268FDF751FE04B95E
:102F300062B6002800D0012070BD0000900A002079
:102F40006B66656B30B50446002003460BE0E25823
:102F500050FA82F0C2F307252844C2F307452844FB
:102F600000EB12601B1D8B42F1D330BDFEB5054650
:102F700017460E4680071AD1EFF3108000F00104C7
:102F800072B613460A4629460A48FDF7DBFD50B9DA
:102F900000200121CDE90010029033463A4629462F
:102FA0000448FDF75FFE04B962B6002800D0012096
:102FB000FEBD0000900A002030B50D4C054685B0DE
:102FC0002046FFF79FFF80B9FF2214216846FDF7D6
:102FD000A5FA142229466846FDF78EFA142269469E
:102FE0002046FFF7C3FF002800D0012005B030BD08
:102FF00000F80100FDF716FBFDF7E0FAFDF710FB06
:1030000000F074F9FFF7A8FE00F0A8F908B1FFF787
:1030100037FCFFF7D5FE0220FFF798FDFFF776FC9F
:1030200000F032FA012000F025FA00F01BFA002827
:10303000FBD00B49202088600A4C4FF47A7500F0D1
:103040008DF90028FBD02068B0FBF5F0C01C80088B
:1030500000EB80004000401EFDD1FFF711FCEEE7C1
:1030600000F00F4018E0FF1F704700002DE9F04707
:10307000DFF8BC810B460024C8E9030101784FF456
:103080000077BA2901D0012200E000224178DC2932
:1030900001D0012100E000210A438178CD2901D02F
:1030A000012100E000210A43C178AB2901D00121B0
:1030B00000E000210A434FF0000601D0012474E033
:1030C0000279522A01D002246FE088F80420417965
:1030D00088F80510C088A8F806004FF480694546B6
:1030E00049461846FDF721FA68794FF0040A33285B
:1030F00054D00CDC28283BD004DC012845D02728FC
:1031000053D13DE0312840D032284ED13FE0D7287E
:1031100008D0DFF820C1D82812D0D92814D0DA2856
:1031200043D120E0A8462D69FFF716FE2872010A58
:103130006972010CA972000EE872A8F806A034E0CA
:10314000604600F037F920E0EA68D07A52F8081FAC
:1031500060F31F61D0795368083260F31F636046E3
:1031600000F04AF918E0E8680830FFF783FC0BE04C
:103170002869083000F084F804462C20E88014E028
:10318000E8680830FFF7D2FC0446EE800DE0E868FE
:103190000830FFF79FFC04464F46F6E728690830E1
:1031A000FFF7AEFC0446A5F806A0D8F81010BA2028
:1031B00045460870D8F81010DC204870D8F8101078
:1031C000CD208870D8F81010AB20C870D8F8101037
:1031D00052200871D8F8101098F805004871F420B2
:1031E00028722CB1012C02D128694671EE802C7214
:1031F0002969A8798871E8882969000AC871EA886C
:103200002969287A11440872E88829690930FFF78A
:1032100097FB6881EA88296911444872EA8829691C
:1032200068891144000A88723846BDE8F0870000BA
:1032300078E3FF1F4C46464FEFF3108212F0010F68
:1032400072B6036803EA0103036000D162B67047F7
:10325000EFF3108212F0010F72B6036843EA010324
:10326000036000D162B67047EFF3108212F0010FD5
:1032700072B6036883EA0103036000D162B6704747
:1032800010B50024FFF770FD2C2800D01124204633
:1032900010BD0000044910B5C8600846FFF78CFE59
:1032A000002800D0012010BDE8E3FF1F70B50C22FC
:1032B0000D4B00215D18491C10F8014BC9B22C724E
:1032C0009142F7D3202200215D18491C10F8014BD0
:1032D000C9B22C759142F7D30348FFF7ADFB002824
:1032E00000D0012070BD0000B4E3FF1F10B5FFF750
:1032F000D3FD342213491448FDF7FEF81149124852
:10330000142234313430FDF7F7F810480068104CBF
:10331000A04204D134220D490B48FDF7EDF80A48CC
:1033200004600C480068A04205D1074814220949EE
:103330003430FDF7E1F80448074934300460416057
:1033400010BD0000D8340000B4E3FF1F00F00100FE
:10335000646C766B00F8010032324B4D70B5FFF7AC
:103360001DFD0D490D4C884205D14FF48040606031
:103370004000A0600CE00A4988420BD14FF4983617
:103380004FF4404531462846FFF7DCFDC4E90156BD
:10339000012070BD002070BD4C46464F8CE3FF1FDE
:1033A0004B4E494C884203D3904201D801207047CC
:1033B0000020704710B50446FFF76EFD08B10120EC
:1033C00010BD0A490A488C4204D14FF48041416043
:1033D000490007E007498C4205D14FF44041416064
:1033E0004FF498318160002010BD00004C46464FDC
:1033F000A0E3FF1F4B4E494C2DE9F0410F4C0F4607
:10340000014620781D46164660B90846FFF7D2FFF0
:103410000B4881684068FFF763FD10F0FF0F09D18A
:10342000012020702A4631463846FFF79FFD10F0F4
:10343000FF0000D00120BDE8F08100000000002066
:10344000A0E3FF1F01490020087070470000002022
:1034500010B500F015F8FDF7A1FEBDE81040FDF72E
:10346000FDBF000002484078002800D001207047CE
:1034700044000020FEF726B8002070470020704767
:103480007047704770470000054910B50020C870AC
:10349000FFF7DEFFFEF7A2FDBDE81040FEF752BDCC
:1034A0004400002006484FF0011201780548C18011
:1034B000002101704170C0E90221016170470000E4
:1034C00066350000440000200300000000000301F6
:1034D00000127A000D04000100000000000000004E
:1034E00000000000000000000000000000000000DC
:1034F00000000000000000000000000000000000CC
:1035000000000000000000000000000000000000BB
:1035100000000000000000000000000000000000AB
:103520008021017002780A42FCD0704710B5002952
:1035300005D004688C439340194021430160BFF3D8
:103540006F8FBFF34F8F10BD0800100018002000D0
:103550003000400060008000C000000180010002D7
:103560000003000400060000040040030202010002
:1035700040004000400001014000400001020404FE
:10358000400040004000400001014000452700008D
:10359000000000000000000069270000000000009B
:1035A000A91500002D140000551B00005B11000040
:1035B0003D110000000000000000000000000000BD
:1035C00000000000000000000000000000000000FB
:1035D00000000000000000000000000000000000EB
:1035E000BF14000000000000000000000600FF09FA
:1035F00001A101150026FF0075089540090181020F
:1036000095400901910295010901B102C000210014
:10361000540012010002EF020140280D04020010C4
:103620000102030100000902820004010080FA097E
:1036300004000002FF0000070705810240000007A8
:10364000050102400000090403000203000006090E
:10365000210001000122210007058203400001072B
:10366000050203400001080B0102020201040904E3
:1036700001000102020104052400100105240103D8
:103680000204240206052406010207058303100034
:103690002009040200020A00000507050402400098
:1036A0000007058402400000000000000403090434
:1036B0000E0345005300530045004D00490012031E
:1036C000450053004C0069006E006B004900490042
:1036D0001A0330003000300031004100300030006B
:1036E0003000300030003000410022036D006200E5
:1036F00065006400200053006500720069006100ED
:103700006C00200050006F007200740022036D00F6
:1037100062006500640020005300650072006900CB
:1037200061006C00200050006F00720074001403F0
:1037300043004D005300490053002D004400410058
:103740005000160345005300530045004D0049004A
:103750005F0049004300440012034D00530046003F
:10376000540031003000300097000000AC370000FA
:1037700000E0FF1F58010000640500003838000019
:10378000000000209000000062280000383800008F
:1037900058E1FF1FF403000072280000C838000041
:1037A00090000020E811000072280000011A134068
:1037B0000132800319093D1A550181422813010481
:1037C00082010008100157494E5553423A8E1C1A87
:1037D00005282A8409393A12441265127612691AA8
:1037E00063081249126E1A7408127212663A611254
:1037F00012471A55163244324E127B1246123712B5
:103800003012321A34041A430C1A2D121A420C1AAE
:10381000350A1A34021A330E122D12391A451C1A9F
:10382000450A3A412A1A36341A461C1A3704123904
:103830001A3812025D7D0000000000000000000048
:103840000000000000000000000000000000000078
:103850000000000000000000000000000000000068
:103860000000000000000000000000000000000058
:103870000000000000000000000000000000000048
:103880000000000000000000000000000000000038
:103890000000000000000000000000000000000028
:1038A0000000000000000000000000000000000018
:1038B0000000000000000000000000000000000008
:0838C000000000000000000000
:0400000500000411E2
:00000001FF
