:020000040000FA
:1000000000400020250400003D0400004B0E0000CD
:10001000410400004304000045040000000000000B
:100020000000000000000000000000004704000085
:1000300049040000000000004B040000150F000000
:100040004F04000053040000570400005B0400004C
:100050009704000097040000970400009704000034
:100060009704000097040000970400009704000024
:100070009704000097040000970400009704000014
:100080005F0400009704000097040000970400003C
:1000900097040000970400009704000097040000F4
:1000A00063040000670400006B0400006F0400009C
:1000B00073040000770400007B0400007F0400004C
:1000C00083040000091000008B0400008F0400006E
:1000D00093040000970400009704000097040000B8
:1000E00097040000970400009704000097040000A4
:1000F0009704000097040000970400009704000094
:100100009704000097040000970400009704000083
:1001100097040000E5100000970400009704000019
:100120009704000097040000970400009704000063
:100130009704000097040000970400009704000053
:100140009704000097040000970400009704000043
:100150009704000097040000970400009704000033
:1003F000970400009704000097040000FFFFFFFF30
:10040000FFFFFFFFFFFFFFFFFFFFFFFFFEFFFFFFFD
:10041000DFF80CD000F094F800480047653F00007A
:100420000040002072B61D481D4901600A6882F331
:1004300008881C48804762B61B480047FEE7FEE775
:10044000FEE7FEE7FEE7FEE7FEE7FEE7FEE717480A
:100450000047174800471748004717480047174804
:1004600000471748004717480047174800471748F4
:1004700000471748004717480047174800471748E4
:1004800000471748004717480047174800471748D4
:1004900000471748004717480047000008ED00E0F4
:1004A00000000000550F0000110400009704000038
:1004B00097040000970400009704000097040000D0
:1004C0005D0E0000750E0000E50E0000FD0E000040
:1004D000970400009704000097040000AD0F00008F
:1004E00097040000F10F000097040000CD100000F9
:1004F000970400009704000040EA01039B0703D023
:1005000009E008C9121F08C0042AFAD203E011F852
:10051000013B00F8013B521EF9D27047D2B201E014
:1005200000F8012B491EFBD270470022F6E710B5F8
:1005300013460A4604461946FFF7F0FF204610BD51
:10054000064C074D06E0E06840F0010394E8070020
:1005500098471034AC42F6D3FFF75EFFCC4700005B
:100560000C48000070B58C1810F8015B15F00703FB
:1005700001D110F8013B2A1106D110F8012B03E03C
:1005800010F8016B01F8016B5B1EF9D12B0705D444
:100590000023521E0DD401F8013BFAE710F8013B8D
:1005A000CB1A921C03E013F8015B01F8015B521EA9
:1005B000F9D5A142D8D3002070BD000038B500BFE6
:1005C00010481149486400BF104800F0B1F90F49C4
:1005D00008680F49086000BF0E480F4C009063790F
:1005E000A2792179E07900F00BF90C4800F054FA77
:1005F0000B480C4908600C494FF4E02000F028F942
:1006000038BD000000000711008004400C450000C8
:100610001C00002027080000FC44000004450000E6
:100620000087930310000020006CDC02704700007C
:1006300010B56C4800F000F96A48401C00F0FCF866
:100640006848801C00F0F8F86648C01C00F0F4F818
:100650006448001D00F0F0F807220021624800F015
:1006600039FC01220421604800F034FC5E484068F7
:100670005E4908405C49486003220C215A4800F05A
:1006800029FC03220D21584800F024FC00221221ED
:10069000554800F01FFC00221321534800F01AFCBB
:1006A00001220221504800F015FC4F4880684F4954
:1006B00008404D498860072203214B4800F00AFC9E
:1006C0004948006949490840474908610122052114
:1006D000454800F0FFFB4448406944490840801CFD
:1006E0004149486101220021414800F0F3FB012209
:1006F00000213F4800F0EEFB042210213C4800F0AE
:10070000E9FB012212213A4800F0E4FB0122132107
:10071000374800F0DFFB01220221354800F0DAFB08
:1007200001220321324800F0D5FB00221146314856
:1007300000F0D0FB002201212E4800F0CBFB01226B
:100740000A212C4800F0C6FB01220221294800F0B2
:10075000C1FB01220321274800F0BCFB0122042138
:10076000244800F0B7FB01220821224800F0B2FB28
:10077000012209211F4800F0ADFB012200211E4883
:1007800000F0A8FB012211461B4800F0A3FB032246
:100790000221194800F09EFB01220321164800F0B7
:1007A00099FB01220421144800F094FB0722052143
:1007B000114800F08FFB072206210F4800F08AFB4A
:1007C000072211460C4800F085FB0C48C06820F059
:1007D00003700A49C8600846006920F030000861CB
:1007E00010BD00000900381000900440FDFFFFFE1E
:1007F00000A0044000B0044000C004400080044059
:100800002DE9F04107460C4615461E46DDF81880D6
:10081000384600F0C7F8434632462946204600F0E5
:10082000DFF8BDE8F08147F2305000E000BF011E64
:10083000A0F10100FAD17047044A02EB10410A68A6
:10084000012383401A430A6070470000007004408F
:1008500070B5024601242748274D05EB10431D685B
:1008600001268640B5431D6000BF32B92348406869
:1008700020F48020214B586023E02148084490B1A7
:10088000204B184458B1184428B1184478B90920AD
:100890001A4B98640DE00220184B986409E005207B
:1008A000164B986405E00020144B986401E0002486
:1008B00000BF00BF1148406820F4E02010430F4BF8
:1008C00058600C480C4D05EB10431D68012686400E
:1008D00035431D6000BFB2F5E02F09D103200A4B5C
:1008E00018700A4890F8400140F080001B1F1870F3
:1008F000204670BD12003410007004400080044097
:10090000009423FD00CA91FE4421074000200740C7
:10091000014649F69702914201D8002005E0034ABA
:10092000914201D8012000E00220704700127A00B5
:1009300070B504462068FFF7EBFF0546174822799B
:10094000017821F00F011143017000BF00BF017851
:1009500021F0A001A27911430170E279C02303EADA
:100960008212827000BF0E48407820F03C00302197
:1009700001EA051108436179084309494870607923
:1009800058B10648007800F0800030B100BF04483C
:10099000807900F002000028F9D070BD00500640B8
:1009A0000040064010B501460C48007B00F00300F3
:1009B000884201D0012200E000220848007B61F358
:1009C0000100064C20733AB140F2DC5300E000BF56
:1009D000181EA3F10103FAD1002010BD004006400B
:1009E0002DE9F04706460F4690461D464FF0000998
:1009F0002848C4788079C0F3001038B14FF001095D
:100A00002448C07880F020002249C870214800782E
:100A100020F0FC01382000EAC60001431D480170A7
:100A2000007B00F0030058B91A48407800F0040039
:100A300030B100BF1748807900F002000028F9D0DB
:100A400000BF14488079C0F300100028F9D1B9F133
:100A5000000F01D00F48C470802000EAC710602149
:100A600001EA4811084324F0E00140EA0104094882
:100A7000C47000BF0748C078A042FBD100BF054842
:100A80008079C0F381000028F9D105B1A847002082
:100A9000BDE8F08700400640094A4168516401788A
:100AA000526861F31142064B5A6000BF4178054A13
:100AB000126861F39342034B1A6000BF7047000055
:100AC000008004400070044070B504460D46204686
:100AD00000F01AF828B129462046094A12689047C2
:100AE00004E029462046074A1268904700BF00BF2D
:100AF00000BFBFF34F8F00BF00BF00BF70BD00003D
:100B00002C0000203000002001460868C00F70470C
:100B10002DE9F04F89B083460C469046994601AACC
:100B20002146584602F0D2FF424621465846059BD0
:100B300002F080FF07461FB1384609B0BDE8F08FCC
:100B4000484602F091FF07460FB13846F5E7019C91
:100B5000029D04EB0800461EB6FBF5F005FB106095
:100B600030B1B6FBF5F000F1010A0AFB05F0461EB4
:100B70000021584602F03FFF0CE024F07F4040F097
:100B8000106008494860584602F078FF074607B1F0
:100B900002E02C44B442F0D900BF584602F024FFD2
:100BA0003846CAE70000024010B504460CB90420DC
:100BB00010BD194AD26CC2F303610F2902D14FF460
:100BC000003003E0154A32F8112090020022226022
:100BD000606001222272D202E26011480178801521
:100BE000884060610E48283890F82B00A0612046AC
:100BF00002F012FF58B100200A4908600A48486014
:100C00000A4888600846E061204600F011F800209C
:100C10002062606200BFCBE7008004408C4500008A
:100C2000280002404CE4FF1FCCE3FF1F0CE4FF1F31
:100C300070B504460CB1E06908B9042070BDE569DF
:100C4000686802F0B9FDA86802F0A6FD02202860DD
:100C50000020F3E72DE9F04188B080460D461446A8
:100C60001E461CB9042008B0BDE8F0816A4629463A
:100C7000404602F02BFF324629464046039B02F0D5
:100C8000D9FE07460FB13846EDE7009D00214046EA
:100C900002F0B1FE20E001CC1349886003980428DB
:100CA00005D125F07F4040F0C06048600AE003981D
:100CB000082807D101CC0C49C86025F07F4040F0DE
:100CC000E0604860404602F0D9FE074607B105E003
:100CD000039805440398361A002EDCD100BF404625
:100CE00002F082FE3846BEE7000002402DE9FF4FC9
:100CF00089B00C46924601AA2146099802F0E6FE08
:100D000052462146069B099802F094FE8146B9F1AD
:100D1000000F03D048460DB0BDE8F08F01AA214670
:100D2000099802F0D3FE019C039F6042794208407B
:100D30004542A54200D13D44564625E0A5EB0408B6
:100D4000B04500D9B0460698B8FBF0FB24F07F40D0
:100D500040F080700E4948604FEA0B410C98C0B2D9
:100D600041EA002040F0FF0009498860099802F03C
:100D700085FE8146B9F1000F01D04846CBE7A6EBCE
:100D8000080644443D4400BF002ED7D10020C2E7EE
:100D9000000002402DE9F04F89B082460C4617460C
:100DA0001D46DDE912B8DDF850901DB9042009B0E8
:100DB000BDE8F08F01AA2146504602F087FE3A4670
:100DC00021465046089B02F035FE06460EB13046DD
:100DD000EDE7019C25E024F07F4040F000701349CE
:100DE00048606FF07F4040EA0B6088602868C86008
:100DF000504602F043FE06465EB1B8F1000F01D046
:100E0000C8F80040B9F1000F02D00020C9F8000076
:100E100009E008983F1A0898800805EB80050898B3
:100E20000444002FD7D100BF3046C0E70000024085
:100E30001AB901238B40836002E001238B40436099
:100E40007047816070474160704700BFEFF30980D1
:100E5000014603F00EFA00BFFEE7000010B503489C
:100E60000168034800F012F810BD00001CE0FF1FED
:100E70000060064010B503484168034800F006F8DA
:100E800010BD00001CE0FF1F0070064070B5044656
:100E90000D46E07800F0100018B9A07800F02000AE
:100EA00028B129462046094A1268904704E029469D
:100EB0002046074A1268904700BF00BF00BFBFF33B
:100EC0004F8F00BF00BF00BF70BD000024E0FF1FB8
:100ED00028E0FF1F50F8213062F30A2340F8213048
:100EE0007047000010B5034801680348FFF7ECFDA8
:100EF00010BD00002400002000C0024010B50348CF
:100F000041680348FFF7E0FD10BD00002400002009
:100F100000D0024010B50C48006840B10A48006893
:100F2000401E0949086010B90120084908700848A6
:100F30000078401CC0B2064908700A2803DB002074
:100F4000087003F03DF810BD00E0FF1F04E0FF1F34
:100F500005E0FF1F0848006840F47000064908607B
:100F60004CF220500549C8814DF62810C8814FF435
:100F7000E97008807047000088ED00E0002005401F
:100F800010B5074801680748074A1268904700BF34
:100F900000BF00BFBFF34F8F00BF00BF00BF10BD39
:100FA000F80A002000A0064018E0FF1F10B5FFF768
:100FB000E7FF00BF00BF00BFBFF34F8F00BF00BF00
:100FC00000BF10BD10B5074841680748074A1268BE
:100FD000904700BF00BF00BFBFF34F8F00BF00BFEF
:100FE00000BF10BDF80A002000B0064018E0FF1F47
:100FF00010B5FFF7E7FF00BF00BF00BFBFF34F8F83
:1010000000BF00BF00BF10BDF8B522480479C0780A
:1010100000F0200008B924F020041E48C07800F039
:10102000800008B924F0800404F0800070B11A48F0
:1010300002F026FB1749C871174802F005FB28B9D2
:101040001448C07820F080001249C87004F02000D5
:10105000F0B104F0040010B904F0020018B10D481A
:10106000C079009014E00B48C6790C4802F0D6FA1B
:101070000546132D04D93146084802F01DFB06E051
:10108000064802F0FDFA3146044802F015FB00BFA5
:10109000F8BD000000B0064070E1FF1F80E2FF1FB6
:1010A00010B5074881680748074A1268904700BF93
:1010B00000BF00BFBFF34F8F00BF00BF00BF10BD18
:1010C000F80A002000C0064018E0FF1F10B5FFF727
:1010D000E7FF00BF00BF00BFBFF34F8F00BF00BFDF
:1010E00000BF10BD2DE9F0474FF0000947480078D8
:1010F0000446074604F00800002870D06BE043491E
:10110000103108780509C0F3C006C0F3800865BB3C
:101110005EBB730005F00F0203EB8202012303FBA9
:1011200008213B4A12F83120C2F38302012A1BD165
:10113000374A02EBC1025288B2B9364A525D344B8B
:1011400003EBC1035A80324A12F8312002F0400208
:1011500022B188222E4B03F8312003E0C8222C4B09
:1011600003F8312040F0010000BF014600BFEFF35B
:10117000108C0CF0010372B600BF1A46DFF898C05D
:10118000DFF898A0DAF800A00CF80A10234B1B68CF
:101190005B1C4FF0190CB3FBFCFA0CFB1A33DFF8A5
:1011A0007CC0CCF80030134603B962B600BF00BF64
:1011B0000821164A1170B9F1000F05D113491431F5
:1011C000097801F0200109B1012100E000218946E0
:1011D0000E490C7800BF04F0080000288FD1274387
:1011E00039460F4803F017F8B9F1000F01D001207C
:1011F00000E000200B49097808430A4908700349B8
:101200000C7001F035FABDE8F0870000802007403F
:10121000000C002038000020C012002044000020F4
:10122000480000204C000020014600207047014685
:101230000020704710B504460648006800B110BD94
:1012400001200449086000F007F800200149086007
:1012500000BFF4E71CE1FF1F70B53848006800B913
:1012600070BD3748006837490968441A34B93648B0
:10127000006818B9002031490860F1E714B3334819
:1012800000683349096888420FD330480068204419
:101290003049314A12881144884206D32D482E49DC
:1012A0000988084429490968441A2C482C490978B6
:1012B00030F81100A04209DA28482949097830F8A5
:1012C000114003E02048006800B1002400201E49BE
:1012D00008602449097841F0800022461B490968CA
:1012E00002F0C8F805461948006828441749086004
:1012F00014480068284413490860164816490988AC
:10130000084412490968884202D112480F4908600E
:101310000B4800680B49096888420AD10F481049F8
:10132000097830F81100A84203D10120064908606D
:1013300002E000200449086000BF91E720E1FF1FA0
:1013400028E1FF1F2CE1FF1F24E1FF1F34E1FF1FF5
:1013500030E1FF1F1AE5FF1FCC450000D445000017
:1013600009E1FF1FC945000010B504461148006897
:1013700028B111480068401C0F49086010BD0120C9
:101380000C4908600D49086000F01EF800200B4968
:101390000860084908600A4800680A4909688842E4
:1013A00006D007490968074A1268881AFFF73FFF05
:1013B00000BFE3E738E1FF1F40E1FF1F3CE1FF1FF3
:1013C00048E1FF1F4CE1FF1F70B51D4800681D4933
:1013D000401A1D490988081A1C491D4A127831F81B
:1013E000121088421FDB164800681649401A164939
:1013F00009880D1A2A46124801681648007801F03B
:10140000C5FA04460E48006820440D490860124899
:10141000006898B11148006880B90F480068401E04
:101420000D4908600AE001200D4908600B4800687A
:1014300020B109480068401C0749086070BD0000E1
:1014400048E1FF1F5AE5FF1FCE450000D4450000CC
:1014500009E1FF1FCA45000040E1FF1F3CE1FF1FFB
:1014600044E1FF1F10B5044604F0040010B120460B
:10147000FFF77AFF04F0080010B12046FFF7DAFE0C
:1014800010BD7047014600207047002070470000E3
:1014900010B5104800F072F8D0B10E4800780E492F
:1014A00008700C480088000A48700A480068000C60
:1014B000887008480068000EC870064800790871F6
:1014C000044840794871034880798871012010BD33
:1014D0000020FCE752E1FF1F58E4FF1F10B5002079
:1014E00015490860154908601549086015490860E4
:1014F000154908601548164908601649086000201B
:1015000015490860154908601549086015490860C3
:1015100015481649086016490860002015490880DA
:101520004FF41650144908600020087148710820D3
:10153000887100F026F810BD1CE1FF1F20E1FF1F9D
:1015400024E1FF1F28E1FF1F2CE1FF1F1AE5FF1F09
:1015500030E1FF1F34E1FF1F38E1FF1F3CE1FF1FB7
:1015600040E1FF1F44E1FF1F5AE5FF1F48E1FF1F55
:101570004CE1FF1F50E1FF1F52E1FF1F0146002019
:1015800070470020704700207047014600207047D8
:10159000014600207047000010B500201749086080
:1015A000174908601749086017490860174908601B
:1015B0001748184908601849086000201749086052
:1015C0001749086017490860174908601748184903
:1015D000086018490860002017490880FFF7D3FF0A
:1015E0004FF4165015490860002008714871082012
:1015F00088710846FFF7CCFF10BD00001CE1FF1FFB
:1016000020E1FF1F24E1FF1F28E1FF1F2CE1FF1F46
:101610001AE5FF1F30E1FF1F34E1FF1F38E1FF1F14
:101620003CE1FF1F40E1FF1F44E1FF1F5AE5FF1FA0
:1016300048E1FF1F4CE1FF1F50E1FF1F52E1FF1F78
:1016400010B5FFF7A9FF10BD10B52A48007800B902
:1016500010BD29480068B8B92848006828490968B9
:10166000884211D125480068264988420CD00120C3
:101670002149086023482149086021490860002069
:10168000214908601C49086020480068D0B11A4808
:101690000068B8B91C480068A0B901201649086064
:1016A000FFF792FE002014490860144800681449AE
:1016B0000968884206D011490968114A1268881AD7
:1016C000FFF7B5FD1248006890B91248006878B974
:1016D0001148006811490968401A09D001200C49D5
:1016E00008600C490860FFF7B7FD00200849086052
:1016F00000BFADE7FBE0FF1F38E1FF1F48E1FF1F20
:101700004CE1FF1F5AE5FF1F44E1FF1F40E1FF1FAF
:101710001CE1FF1F20E1FF1F28E1FF1F2CE1FF1F3D
:1017200001460020704700207047014600207047A6
:1017300010B50446024804802046FFF726FF10BD7E
:1017400050E1FF1F10B50E4800780D49497840EA76
:1017500001200B49897840EA01400949C97840EAEB
:10176000016008490860064800790871044840791A
:1017700048710348807988710846FFF709FF10BD5A
:1017800058E4FF1F52E1FF1F10B5084801780848D0
:1017900000F056F8074908600846006820B10020AC
:1017A0000549086000F00AF810BD00005CE1FF1F69
:1017B000A4E5FF1F60E1FF1F64E1FF1F70B5002576
:1017C0001948006850B318480068184909888842C9
:1017D00002D21548006801E014480088054600243C
:1017E00008E013480068204412490968085C12495F
:1017F0000855641CAC42F4D31049097841F08000CC
:101800002A460D4901F036FE094800682844084977
:10181000086005480068401B0349086002480068EA
:1018200008B900F08BF870BD60E1FF1FDC450000D7
:1018300064E1FF1F6CE1FF1FA4E5FF1FD945000015
:1018400070B505460C462248007810B1012828D111
:1018500020E0082C00DA2AE0284602F077F91D493A
:10186000086008460068B0F5A06F01D3012000E0D1
:1018700000201849096809B9012100E00021084346
:1018800008B100F05BF82146284601F02FFF10490F
:1018900008700CE02146284601F028FF0C4908702A
:1018A00005E000200A49087000F048F800BF00BFBA
:1018B00007480078022808D10749084802F072F862
:1018C000074908600846006870BD0020FCE700007A
:1018D00000000020080000207C0500207C00002083
:1018E0000C00002010B50446FFF768FF10BD000093
:1018F00010B504460548028805490648007801F0FD
:1019000045F805490870FFF73FFF10BDDC450000B2
:10191000A4E5FF1FDA4500005CE1FF1F10B5044697
:1019200004F0040010B12046FFF7E2FF04F00800C5
:1019300010B12046FFF7D6FF10BD0000002004497B
:101940000860044908600449086004490870704749
:10195000080000200C0000200400002000000020EF
:1019600000200749086007490860074807490860E0
:1019700007480849086000200749087070470000C0
:1019800008000020040000207C00002068E1FF1F08
:101990007C0500206CE1FF1F0000002010B504460C
:1019A000074804F00F0110F8210020F0020104485C
:1019B00004F00F0200F82210204601F09BFC10BD3D
:1019C000C020074070B50446A578A688A07800F02E
:1019D000800008B902494E55284601F08BFC70BDC5
:1019E00038000020704700F075BB000060B10E4960
:1019F000097841F001010C4A943A82F894101021C0
:101A0000094A743211700EE00749097821F001018A
:101A1000054A943A82F89410114691F8081121F081
:101A2000100182F8081170479420074010B5104843
:101A3000808810490978884202DD0E48047801E068
:101A40000B48848814B900200B49087008482246C6
:101A50000168802001F00EFD04460548006820441E
:101A60000349086008468088001B888010BD00007C
:101A70000CE1FF1FB14500000AE1FF1F10B5084847
:101A800082880168002000F081FF04460448006855
:101A900020440349086008468088001B888010BDE8
:101AA0000CE1FF1F7047000000F0800151B100F011
:101AB0000F00094911F8201021F00502064901F82C
:101AC000202007E0044911F8201021F00902024902
:101AD00001F8202070470000C020074000F080017E
:101AE00051B100F00F00094911F8201041F0050232
:101AF000064901F8202007E0044911F8201041F0C0
:101B00000902024901F8202070470000C020074068
:101B100010B5044604F00200002872D001F07EFCEB
:101B2000BD490978C809FFF7BDFFBB48C088BB495C
:101B30008880B9480078C0F3411020B101286ED0E8
:101B400002286DD1C5E0B44840780C2869D2DFE89E
:101B500000F0060DA21BA229464D4E62729501F0BF
:101B6000D7F800B9DBE0FFF761FF95E0002001F056
:101B70002FF900B9D3E001F05BFCA948006810B16F
:101B8000A7480068804787E0012001F021F900B9EB
:101B9000C5E001F04DFCA248006810B1A048006803
:101BA000804779E000BF9C48007800F01F0030B902
:101BB0009948807840F080009A49087001E0002040
:101BC00001E000BF012000B9A9E09649097801F0C1
:101BD0007F00012101F00CFC01F02AFC5CE000F028
:101BE0005FFF00B99BE0FFF721FF55E097E000BFE2
:101BF0008948007800F01F0020B98B4887490860A9
:101C000002E09FE0002001E000BF012000B986E073
:101C1000FFF70CFF40E001F053F918B97FE03DE019
:101C20007CE038E001F004FC8048006810B17F4897
:101C30000068804730E000BF7748007800F01F0060
:101C4000012812D17848007860B17348007978494A
:101C50000978884206DA70480079764908446F4965
:101C6000086001E0002004E001E0002001E000BF86
:101C7000012000B953E0FFF7D9FE0DE001F012FAA0
:101C800000B94CE001F0D4FB6B48006810B16A4821
:101C90000068804700E042E000BF52E05E48007804
:101CA00000F01F0020B1012803D002280FD10DE061
:101CB00035E000F09BF900B10AE000F009FA00B14C
:101CC00006E000F013F900B102E028E027E026E08A
:101CD00037E05148007800F01F0010B101281AD1F8
:101CE0000CE04D480079042803D154484B49086062
:101CF00000E000BF00BFFFF799FE0DE04648007905
:101D0000052803D14E484549086000E000BF00BFE8
:101D1000FFF78CFE00E002E000BF12E000BF3E488B
:101D20000078C00930B93C48C08818B1002001F0E3
:101D300067FB02E0802001F063FB002037498880C8
:101D400000BF00BF04F0040098B333480078C00916
:101D500080BB3248808860B3FFF790FE2F488088B0
:101D600038BB2D480078C0F3411010B1012818D1BC
:101D700000E017E02848007800F01F0020B101289B
:101D800003D002280BD109E00CE000F095F800B177
:101D900006E000F059F800B102E003E002E001E0E3
:101DA00007E000BF802001F02BFB00201B4988804A
:101DB00000BF02E0FFE701F043FB04F00800F0B1D0
:101DC000154800780121B1EBD01F08D11348808855
:101DD00010B91C48007890B1FFF728FE0FE01148B9
:101DE000007800F0800050B10E48007800F07F00CD
:101DF0000C49087000210B48007801F0F9FA04F052
:101E0000400010B10020FFF7C9FD04F0800010B1C0
:101E10008020FFF7C3FD10BD14E1FF1F0CE1FF1F81
:101E200044460000FAE0FF1FFBE0FF1F3C460000B5
:101E300008E1FF1F34E0FF1F4046000040E0FF1FA5
:101E400068E0FF1F0AE1FF1F10B518480079184924
:101E50000978884205D015480079164909788842E2
:101E600022D11248407820B102280AD020281AD165
:101E700011E0FFF758FC18B101F0DAFA012010BDAB
:101E800011E00A494888FFF750FC18B101F0D0FA78
:101E90000120F4E707E0FFF755FC18B101F0C8FA9C
:101EA0000120ECE700BF00BF0020E8E714E1FF1FBE
:101EB000C6450000C745000010B50A4800790A4928
:101EC000097888420CD107484078092807D100F0EA
:101ED000ABFB18B101F0ACFA012010BD00BF00BF90
:101EE0000020FAE714E1FF1FB245000010B53A48A0
:101EF00000793A490978884205D03748007938494D
:101F00000978884266D134484078042833D007DC09
:101F100078B1012812D002281BD0032859D11DE026
:101F2000202832D0212835D022283ED0232850D155
:101F300045E02C482C490860012010BDFFF7A5FAA8
:101F400030B1284828490860FFF770FD0120F4E708
:101F50003FE02448244908600120EEE71E494888F4
:101F6000FFF790FA30B11F481F490860FFF75EFD88
:101F70000120E2E72DE018494888FFF755F918B12C
:101F800001F056FA0120D8E723E016481649086008
:101F90000120D2E7FFF77CFA30B1124812490860FD
:101FA000FFF744FD0120C8E713E00B494888FFF71D
:101FB000BFFB18B101F03CFA0120BEE709E0064979
:101FC0004888FFF7ADFB18B101F032FA0120B4E701
:101FD00000BF00BF0020B0E714E1FF1FC6450000AE
:101FE000C745000058E4FF1F0CE1FF1F10B5314842
:101FF00000793149097888425AD12E4840780C2816
:1020000055D2DFE800F054062E4154545454541D68
:10201000394C00F003FA90B12648C078012803D16A
:1020200026482749086006E02248C078032802D1E4
:10203000244823490860FFF7F9FC012010BD36E071
:102040001C48C078022803D11F481D49086006E0DB
:102050001848C078032802D11A481949086001209D
:10206000ECE700F0C3F930B1184815490860FFF7F4
:10207000DDFC0120E2E71AE000F0AEFA18B101F051
:10208000D7F90120DAE712E000F0BEF930B10F48CD
:102090000B490860FFF7CAFC0120CFE707E000F01A
:1020A000B9FA18B101F0C4F90120C7E700BF00BFB9
:1020B0000020C3E714E1FF1FB245000099E4FF1FB1
:1020C0000CE1FF1F3EE0FF1FDAE4FF1F58E4FF1F93
:1020D0000020704700200C4908700C4908600C492A
:1020E00008600C4908600C4908800C4908800C49BC
:1020F00008600C4908600C4908800C4908800C49AC
:1021000008600C49088070475400002058000020E7
:102110005C000020600000206400002066000020B9
:10212000680000206C000020700000207200002079
:10213000740000207800002070B5064666480088CC
:1021400066490988884224DB6548006808BB00208E
:102150006449086060490880634801780123421C93
:10216000184602F091F95D4908800846008880B160
:102170005D485C4908605D480078012804DC084639
:102180000068401C086004E054480088401C534923
:1021900008805248008800285ED15548006818B170
:1021A00000205349086057E052480068002853D087
:1021B0004E48007801281CDC4E48006800284BD0AF
:1021C000002049490870444908800223464A521CAD
:1021D0000021012002F058F9404908800846008893
:1021E00018B14148401C3F4908600020414908603F
:1021F00032E03D48047800BF202C00DB00240120A1
:10220000A0403C490968084010B3601C364908707A
:10221000002031490880601CC1B20223324A521C9E
:10222000012002F031F92D4908800846008838B1B4
:102230002D482C49086029480088401C27490880FF
:102240000120A0402B49096881432A48016002E02F
:10225000601CC4B2D0E700BF2048008810B92048F5
:102260000068A0B31D4800881B490988401A85B240
:1022700021482249097830F81100A84204DA1E48A2
:102280001E49097830F811501D49097841F0800045
:102290002A461449096801F0EDF8124800682844FC
:1022A000104908600C48008828440B4908800846FB
:1022B00000881449098888420ADA0F480F490978CA
:1022C00030F81100A84203D101200549086002E05E
:1022D00000200349086070BD6600002064000020F3
:1022E000680000206000002098E4FF1FBE45000049
:1022F000580000205C000020BA45000009E1FF1FE3
:10230000B3450000C045000038B5054626480088A2
:1023100048B926482649086026480088264908808A
:10232000002021490880244800881F490988421A52
:102330001F4801682148007800F028FB84B21C483F
:10234000006820441A49086017480088204416494C
:10235000088064B10846008816490988884206DA70
:1023600017481849097830F81100A0421BDD1648BB
:102370000078012809DC012000900B4803880B4AF3
:102380000021022002F086F80AE0012000900648B1
:102390000088431E05480178421C022002F07AF8AA
:1023A00000200149088038BD72000020D9E4FF1FD9
:1023B0006C000020C245000070000020B445000001
:1023C000BA45000009E1FF1FBF45000010B50446F3
:1023D00004F0080010B12046FFF7AEFE04F0040040
:1023E00010B12046FFF790FF10BD00000348807831
:1023F0000349085C034908700120704714E1FF1F7E
:102400003CE0FF1F58E4FF1F10B502F03BF8024903
:102410000870012010BD000058E4FF1F10B5002413
:102420000C48C078012804D0022804D0032806D123
:1024300003E0094C03E0002010BD084C00BF00BFC2
:10244000044A9178D0780023224602F01DF801203A
:10245000F2E7000014E1FF1F99E4FF1F3EE0FF1FB9
:102460002DE9F0415148007800287DD000265048E1
:1024700001780078401C4E4A10704E48007800EBFE
:10248000400204209040401E814203DB0020484966
:1024900008700126002548480088FF2804DA4648CD
:1024A0000088401C4449088044484249097830F873
:1024B000110041490988884200D10125002462E0C9
:1024C0004FF000089EB13E48005DFF2804DA3C480A
:1024D000005D401C3A4908553A48005D38B138481B
:1024E000005D3849095D884201DB4FF0010835483D
:1024F000005D3049097801EB41020221914088409A
:102500002E492C4A127831F81210884204DA2D48EC
:10251000005D08B1012000E0002007463DB137B161
:102520000120A04028490968084327490860254838
:10253000005D2649095D884213D02148005D23498A
:10254000095D884209DB0120A0401F490968084352
:102550001D4908600020164908701C48005D194993
:102560000855B8F1000F00E01EE00AD037B901208D
:10257000A040154909680843134908600020104924
:102580000855601CC4B212480078844298DB15B12B
:102590000020094908800C48006828B10D480088CF
:1025A00010B90020FFF7C8FDBDE8F081FBE0FF1F78
:1025B0007A00002009E1FF1F38E0FF1FB645000048
:1025C0003AE0FF1F3BE0FF1F5C0000203CE0FF1FE4
:1025D000BE450000640000200B48807830B10A48F6
:1025E000C2788078401E094B1A540BE0002105E0A8
:1025F0000548C078054A5054481CC1B204480078C8
:102600008142F5DB0120704714E1FF1F3CE0FF1F12
:10261000BE45000010B50349887801F03AFF01205B
:1026200010BD000014E1FF1F38B500240D48C0782C
:10263000012804D0022804D0032806D103E000209A
:1026400038BD094C01E0094C00BF00BF0020054A1D
:102650000090D3889178D078224601F01BFF0120AA
:10266000EEE7000014E1FF1FDAE4FF1F3EE0FF1F6A
:102670002DE9F0474FF0000A00BFEFF3108101F0A1
:10268000010072B600BF81467F48056800207E4980
:1026900008607E4890F800A000207C4908704846F9
:1026A00000B962B600BF05F0010048B100F0A6FD18
:1026B00001F002FF7648006810B175480068804755
:1026C00005F0100038B100F0C7FE7248006810B184
:1026D00070480068804705F0200038B100F074FEB3
:1026E0006D48006810B16C480068804705F0040030
:1026F00028B16A48006810B1684800688047022D18
:102700000AD16748006820B16649087864490968B9
:102710008847FF206349087005F0080000287DD035
:1027200089E000BF00BFEFF3108303F0010272B62F
:1027300000BF11465C4A5D4B1B68D05C5B4A126867
:10274000521C1923B2FBF3FC03FB1C22574B1A60EB
:102750000A4602B962B600BF00BF0646C6F30314BC
:10276000C6F3C007C6F3800864BB790004F00F000D
:1027700001EB8000012101FB08004D4911F83000F8
:10278000C0F383000D281DD14A48006820F00200E4
:10279000484908604648007E20F080004449087699
:1027A0000846007C20F08000087400204249087030
:1027B000424850F8240090B3404850F824100220BA
:1027C000884737E0790004F00F0001EB8000012119
:1027D00001FB0800364911F83000C0F383000128DE
:1027E0000DD11CB906F0010033490870334850F888
:1027F000240020B1314850F8241004208847790083
:1028000004F00F0001EB8000012101FB08002849C2
:1028100011F83000C0F38300092801E026E009E048
:1028200008D1264850F8240020B1244850F824103C
:102830000820884700BF00BF00BFEFF3108303F0FC
:10284000010172B600BF0846184909681C4B1B6895
:10285000994201D1012100E000210A46014601B957
:1028600062B600BF00BF002A3FF45BAFBAF1000FB1
:1028700008D00C480C30007820F020000949883935
:1028800081F89400BDE8F087480000204C0000204B
:10289000E4450000E8450000EC450000F445000078
:1028A000F845000088200740C012002040000020AA
:1028B000000C0020500000204D000020FC450000CE
:1028C0004400002010B54020264908702648406882
:1028D00040F4E020244948600846406B40F48020E2
:1028E000486300F04DF82148007840F0800020490E
:1028F00081F80C0100BF1D48007800F0800000281E
:10290000F9D11C48000A1949703908701948000C9F
:10291000174981F8B0001748000E1449583908705B
:10292000FF20134981F880001348006808B1042093
:1029300000E0002040F019001049096809B10221A7
:1029400000E0002108430A4984310870402008490A
:1029500081F80001084690F80C0140F0400081F831
:102960000C0110BD38000020008004400C210740FD
:1029700000200740000C0020F4450000F84500004E
:1029800010B5352000F0B0FD10BD70472DE9F05FA7
:1029900005460F4693464FF0000905F00F00002151
:1029A00001EB8004384800EBC400B0F8028065B940
:1029B0003648007848B16208012000FA02F1344834
:1029C00001F03AFC0020BDE8F09F45B92E4810F810
:1029D0003400C0F383000D2801D14FF00109002617
:1029E00005E02C4800EB8410805DB855761C464508
:1029F000F7D32948405D244901EBC40148806108B0
:102A000023480068C84000F001001F4911F8341045
:102A1000C1F38011884217D1B879F97940EA012AC7
:102A2000B9F1000F08D0BAF1000F05D16FF0010124
:102A3000174801F0DFFB06E06208012000FA02F10E
:102A4000134801F0F9FB00BF610811480068C84055
:102A500000F0010058B148200B4901F83400084645
:102A600010F8340040F0800001F834000AE008203B
:102A7000054901F83400084610F8340040F08000A1
:102A800001F8340040469EE7000C00204D00002075
:102A900050000020C00C00203800002070470000CB
:102AA0001CB56148007800F01F0010B1012874D1F6
:102AB0009BE05D48C078082870D2DFE800F09204FF
:102AC0001C7092920A475948594908601220009098
:102AD00089E05848007808B900201CBD56480078A5
:102AE00018B956485249086002E0554850490860F4
:102AF0000A20009077E04F48007828B94E480078C7
:102B0000012801D10020E8E74B48007810B94D4872
:102B1000019001E04C480190002407E00198007802
:102B200018B10198418808440190641C3E4880789F
:102B3000A042F3D10198007808B90020CDE73C49C4
:102B4000019808600198408800904CE0394800786E
:102B500008B90020C1E73848007810B93B48019017
:102B600001E03B480190002407E00198007818B18B
:102B70000198418808440190641C2B488078A04249
:102B8000F3D10198007808B90020A6E728490198F8
:102B9000086001984088009025E02EE021E02D4853
:102BA0000190002407E00198007818B1019801789D
:102BB00008440190641C1C488078A042F3D11A4854
:102BC0008078EE2801D1244801900198007808B956
:102BD000002082E71649019808600198007800906B
:102BE00001E0002079E700BF09E0694601A800F094
:102BF00039F808B9002070E701E000206DE700BF58
:102C00000B488088009988420CD90949009888802F
:102C10000846808811490978491E084010B90120EA
:102C20000F490870012058E714E1FF1F72460000A9
:102C30000CE1FF1FAD45000009E1FF1F84460000C5
:102C40008546000086460000094700000A4700004C
:102C50000B4700000C470000B8470000B1450000DA
:102C60000AE1FF1F02462048C078212804D022280C
:102C700024D0232833D130E01B4800791B4B1B782C
:102C8000984201D0002070471948007828B91948A7
:102C90000078012801D10020F5E71648007810B926
:102CA0001548106001E015481060154B1B8810682E
:102CB0001844144B18600920086012E00A48007993
:102CC0000A4B1B78984201D00020DCE70E480D4BE0
:102CD00018600E480088086003E00020D3E7002059
:102CE000D1E700BF0120CEE714E1FF1FB24500008D
:102CF000AD45000009E1FF1F8646000009470000BE
:102D0000704600000CE1FF1F4C4600006E460000BC
:102D10002748007800F01F0020B1012806D00228C3
:102D200041D116E02348244B18603EE02348007848
:102D300060B11F480079224B1B78984206DA0020C8
:102D4000204B188018461C4B186001E0002070478B
:102D50002BE01748007900F08F0101F0800028B1C6
:102D600001F00F034FF48030984001E001208840CB
:102D700002461248007810B901F00F0080B91248DD
:102D80000068104060B111480068104008B101208F
:102D900000E000200B4B18801846074B186001E03C
:102DA0000020D4E701E00020D1E700BF0120CEE7FA
:102DB00014E1FF1FF8E0FF1F0CE1FF1FFBE0FF1F06
:102DC00008E1FF1F58E4FF1FFCE0FF1F00E1FF1FA9
:102DD00070B506463448007800F01F0020B1012885
:102DE0001DD002285BD11CE02F484088012813D158
:102DF00046B100F03DFB2D48008840F002002B4911
:102E000008800BE0002000F033FB2848008820F009
:102E100002002649088001E0002070BD41E000204A
:102E2000FBE72148007900F08F0404F0800028B10E
:102E300004F00F014FF48030884001E00120A040F1
:102E400005461B48007838B304F00F0020B319483A
:102E50000068284000B314484088D8B946B12046DD
:102E600000F0CEFA1448006828431349086015E0C2
:102E700012480068284008B10120CEE72046FEF73E
:102E80008DFD2046FFF70AFE0B480068A8430A495B
:102E9000086003E00020C0E70020BEE701E000205A
:102EA000BBE700BF0120B8E714E1FF1FF8E0FF1FF8
:102EB000FBE0FF1FFCE0FF1F00E1FF1F04E1FF1F1D
:102EC0002DE9F04100266A48007800F01F00002834
:102ED0006FD16748807800286CD06648007830B998
:102EE00065480078012802D10020BDE8F0816248E1
:102EF000007808B9614D00E0614D7FE068780228F4
:102F000004D0042853D0052874D154E06879584976
:102F10008978884247D1564880785A49087028797C
:102F200059490870002403E0002058490855641CE2
:102F3000574800888442F7D3012414E00120A040C0
:102F400054490968084010B12046FEF7ADFD4FF422
:102F50008030A0404F490968084018B144F0800013
:102F6000FEF7A2FD641C102CE8D34FF00110494974
:102F70000860002048490860484908600120FEF7C1
:102F800031FDE87900F0400030B14548008840F05C
:102F900001004349088009E04148008820F0010011
:102FA0003F49088002E06888054427E022E0EE7887
:102FB00020E058E027E0E6B9A87800F08F0404F09C
:102FC000800028B104F00F014FF48030884001E008
:102FD0000120A04007462F48006838432D4908606B
:102FE0002846FEF7EFFC2046FEF778FD204600F06D
:102FF00081F900BF00BF2878054400BF2878002869
:103000007FF47CAF26E000201E490870012414E004
:103010000120A0401F490968084010B12046FEF772
:1030200043FD4FF48030A0401A490968084018B1A8
:1030300044F08000FEF738FD641C102CE8D34FF0FC
:103040000110144908600020134908601349086002
:10305000FEF7C8FC064880780A490978884201D002
:10306000002042E701E000203FE700BF01203CE7ED
:1030700014E1FF1FAD45000009E1FF1F8646000077
:1030800009470000FBE0FF1F08E1FF1F34E0FF1FBE
:10309000AE450000FCE0FF1F00E1FF1F04E1FF1F41
:1030A000F8E0FF1F2DE9F05F0027B846BB46B946A0
:1030B0004948007800F01F0001287CD1474800787B
:1030C00010B90020BDE8F09F4FF0000A4448007896
:1030D00028B944480078012801D10020F2E741488E
:1030E000007808B9404C00E0404C6CE06078022861
:1030F00004D004280BD0052861D11EE0607937493F
:103100000978884202D0608804445CE057E0A778E0
:1031100094F803804FF000092F480079B8420BD192
:103120002D488078404507D14FF0010A304810F80B
:1031300007B0014601F8078041E027480079B8420E
:103140003CD1A07800F08F0606F0800028B106F090
:103150000F014FF48030884001E00120B040054667
:103160001D488078404515D12248006828432149F0
:10317000086021480068A8431F4908602046FEF700
:1031800021FC3046FEF7AAFC304600F0B3F849EACD
:10319000050913E0D84511D109EA050070B91548B1
:1031A0000068A8431349086013480068A8431249FF
:1031B0000860304600E00AE0FEF776FC00BF00BF82
:1031C0002078044400BF207800288FD101E000203F
:1031D00078E700BF504675E714E1FF1FFBE0FF1FD3
:1031E000AD45000009E1FF1F8646000009470000C9
:1031F00034E0FF1FFCE0FF1F00E1FF1F10B535208A
:10320000002817DB00F01F02012191402E4A4309DC
:1032100042F8231000BF00BF00BFBFF34F8F00BFB5
:1032200000BF00BF00BF00BF00BFBFF36F8F00BF74
:1032300000BF00BF00BF012404E00021234800F8C4
:103240002410641C102CF8D319212148FDF76DF9C6
:103250000020204908602049086020490860204972
:1032600008702049087040201F4948801F48486066
:10327000C8200870002008721C4880304861002176
:103280001948C1610D20114908704FF05530184997
:1032900008600E48C03890F8940040F002000B49D6
:1032A0002C390870FF20094940390870074938391E
:1032B0000870091D0870002004492839087035205D
:1032C00000F012F910BD000080E100E0C0200740CE
:1032D000C0120020400000204400002048000020D0
:1032E0004C0000204D000020000C0020C00C0020ED
:1032F0005000002010B5044604F08000F8B104F03E
:103300000F04012000EB440200FA02F1264800F00D
:1033100082FF022000EB8400244901EB801102208F
:1033200000EB8400224A02EBC00041600021022031
:1033300000EB8400401C02EBC000416033E06200FF
:1033400001209040C143184800F054FF1948015D26
:1033500004F00F00002202EB8000154A02EBC000CF
:10336000418004F00F00002101EB80000F4901EBC8
:10337000801104F00F00002202EB80000C4A02EBE7
:10338000C0004160882104F00F00002202EB8000A1
:10339000074A02F83010002104F00F0001EB800012
:1033A000401C02F8301010BD50000020C00C00205E
:1033B000000C00203800002010B5FEF741F9BDE8F0
:1033C0001040FEF7BBBA00000448007820F020004F
:1033D0000249843981F88400704700008420074046
:1033E00010B5FFF73DF8BDE81040FEF72DB900001D
:1033F00019B900F07F02014B1A70704798200740FE
:1034000000F00F00044911F8201041F002020249B7
:1034100001F8202070470000C020074010B50822A6
:1034200002490020FFF7B2FA10BD000014E1FF1FAF
:1034300010B500221146802000F01CF810BD0000DD
:1034400010B50348027803490020FFF79FFA10BD2A
:10345000B145000058E4FF1F0448007840F0200008
:103460000249843981F884007047000084200740B5
:10347000704700002DE9F04105468846164605F0E4
:103480000F05022000EB8504144901EBC4014E80B6
:10349000002706E018F80700114901EB8411C85510
:1034A0007F1CB742F6D361080E480068C84000F0A0
:1034B000010020B18820094901F8340003E0C82048
:1034C000064901F834006208012000FA02F10548BB
:1034D00000F0B2FE3046BDE8F0810000000C002094
:1034E000C00C002050000020002809DB00F01F0263
:1034F000012191404209920002F1E022C2F800113C
:10350000704702E008C8121F08C1002AFAD17047AC
:103510007047002001E001C1121F002AFBD1704753
:1035200010B50549486800F045F8012801D000F0C1
:1035300005F8012010BD0000A4E3FF1F70B504488A
:103540004468256866683146284600F0D5FC70BDA1
:10355000A4E3FF1F30B5144800684FF47A72B0FB43
:10356000F2F1481EB0F1807F00D31BE0481E4FF0FF
:10357000E022506150170F22002804DB13071C0EB5
:103580000A4B1C5406E013071D0E094B00F00F04F4
:10359000241F1D5500BF00204FF0E022906107203E
:1035A000106100BF30BD00001000002000E400E00A
:1035B00018ED00E070B504460425002626680E4A82
:1035C0000E49304600F0E4FE08B9012070BD0FE05E
:1035D000601906680A484068094B9B68C218084889
:1035E0004168304600F0D4FE08B90120EEE72D1DF9
:1035F0000C2DEDD90020E9E70040002000E0FF1F7E
:10360000A4E3FF1F10B502460B460020002102E094
:103610005C5C2044491C9142FAD310BD70B504464D
:1036200000BFEFF3108101F0010072B600BF054644
:10363000204600F009F8A168081A461E284600B97D
:1036400062B600BF304670BD10B5014600BFEFF353
:10365000108404F0010372B600BF1A46D1E900439A
:10366000A34203D3D1E90043181B04E0D1E901349C
:1036700023440C68181B134603B962B600BF10BD83
:1036800010B5014600BFEFF3108404F0010072B6DC
:1036900000BF02460C68C868035D0868401C0860EB
:1036A0008C680868A04201D300200860104600B969
:1036B00062B600BF184610BD10B500BFEFF310840E
:1036C00004F0010372B600BF1A464468C368195576
:1036D00043685B1C4360D0E90134A34201D300235B
:1036E0004360134603B962B600BF10BD30B504464F
:1036F0000A46002306E0E05C124909681944124DAD
:1037000068545B1C9342F6D30E48006810440D4980
:1037100008600E480068801A0C4908600948006873
:10372000B0F5A06F01D3FEF709F90848006838B971
:103730000448006820B1002002490860022030BD22
:103740000120FCE7040000207C000020080000208D
:1037500070B58EB004460F4E304600F03BFB054678
:1037600015B101200EB070BDFF22342101A8FCF775
:10377000D5FE3422214601A8FCF7BEFE342201A961
:10378000304600F063FB05460DB10120EAE700205A
:10379000E8E7000000F0010010B504461C220449CF
:1037A0002046FCF7A9FE601C0249086010BD00001D
:1037B0007045000030E0FF1F05490A6802604A6852
:1037C000426089688160411C024A116070470000B4
:1037D000644500002CE0FF1F064909684FF47A7227
:1037E000B1FBF2F1C91C8908484300BF411E081E05
:1037F000FCD17047100000202DE9F041044600255F
:103800002078617840EA0120A17840EA0140E1781F
:1038100040EA01662079617940EA0120A17940EA15
:103820000140E17940EA01673B4604F10802314674
:10383000034800F0DBFD00B100BF2846BDE8F08181
:103840004C46464F38B504460025684600F0EAF974
:10385000009880B2009020780099C9B2884201D0C7
:10386000012000E000206178009AC2F30722914213
:1038700001D0012100E000210843A178009AC2F3A1
:103880000742914201D0012100E000210843E27883
:103890000099090E8A4201D0012100E0002108436D
:1038A00000B11225284638BD2DE9F0410446002517
:1038B0002078617840EA0120A17840EA0140E1786F
:1038C00040EA01662079617940EA0120A17940EA65
:1038D0000140E17940EA01673B4604F108023146C4
:1038E000034800F083FD00B112252846BDE8F081B1
:1038F0004B4E494C38B50446002500F0A3FD684600
:1039000000F090F9009820700098000A607000980C
:10391000000CA0700098000EE070284638BD000032
:1039200070B504460025204600F0B2FC00B1122517
:10393000034800F09FFC00B11225284670BD00002E
:103940004B4E494C10B5044644B902211448FDF7CA
:103950007AFA01211248FDF776FA1FE0012C08D10E
:1039600002210F48FDF76DFA01210D48FDF769FAB4
:1039700014E0022C08D102210948FDF762FA012166
:103980000748FDF760FA09E0032C07D1022104483B
:10399000FDF759FA01210248FDF753FA10BD000066
:1039A000C0F00F402DE9F04104460E460027207874
:1039B0000006617840EA0140A17840EA0120E17800
:1039C00040EA01050648854207D00648854204D1F1
:1039D0003146204600F0F6FA07463846BDE8F08149
:1039E000BADCCDABABCDDCBA10B504460121204624
:1039F00000F001F810BD70B505460C46284600F0F1
:103A00000BF8064606B170BD012C03D100F07EF81C
:103A100000F08CF800BFF6E7014609B904207047B2
:103A2000CA69C86920B11068022801D10020F6E7F0
:103A30006D20F4E730B504460CB9042030BD581EA3
:103A4000084010B9581E104008B16520F6E72068FC
:103A5000884207D8D4E9000528448D18A84201D32C
:103A60000020EBE76620E9E701460348814201D0E8
:103A70006B2070470020FCE76B66656B70B50646EF
:103A80007020104908703046FFF7C6FF05460DB19B
:103A9000284670BD0B480C490968884709480478D6
:103AA00004F0200008B16720F3E704F0100008B12B
:103AB0006820EEE704F0010008B16920E9E7002082
:103AC000E7E70000000002402CE0FF1F70B505464C
:103AD0000E46144605B10CB9042070BD20212046C5
:103AE000FCF723FD2868301A2060E8686060297AB6
:103AF0006868B0FBF1F0A0600420E060082020615D
:103B000060610420A061E0610020E6E770B5002458
:103B1000044C0F23142219052046034D2D68A84795
:103B200070BD000004F0014030E0FF1F70B50024BC
:103B3000044C01231322D9042046034D2D68A847C5
:103B400070BD000004F0014030E0FF1F10B50146D9
:103B50000B781B064C7843EA04438C7843EA042331
:103B6000CC7843EA04021B4B9A4204D14B790C797E
:103B700043EA04202CE0184B9A4228D14B79182BA9
:103B800001D1012300E000234C79D92C01D101247B
:103B900000E0002423434C79322C01D1012400E0C1
:103BA000002423434C792A2C01D1012400E0002475
:103BB00023434C79352C01D1012400E00024234318
:103BC00013B14FF4806003E04FF4007000E0002078
:103BD00010BD0000BADCCDABABCDDCBA0146002293
:103BE0000C22002005E00B4B1B5C01F8013B431C41
:103BF000D8B29042F7DB2022002006E0054B0C33C0
:103C00001B5C01F8013B431CD8B29042F6DB2C2030
:103C100070470000B80A00200148C06870470000E3
:103C2000E40A002010B50446034A9168506800F089
:103C3000F7F82060002010BDB8E3FF1F10B543481F
:103C4000406920F0100041494861881540490861E9
:103C50004049C86480023D498864486510203B495A
:103C6000C8310860012211463848C030FDF7E0F83D
:103C70003648D0F8D40040F002003449D43108600E
:103C8000012200213148C030FDF7D2F82F48D0F88A
:103C9000D40040F001002D49D431086001220221F6
:103CA0002A484030FDF7C4F82848406D40F0040031
:103CB00026494865012205212448FDF7B9F8234823
:103CC000406940F0200021494861012203211F483A
:103CD0004030FDF7ADF81D48406D40F008001B492D
:103CE00048650122122119484030FDF7A1F8174814
:103CF000406D40F480201549486501221321134886
:103D00004030FDF795F81148406D40F400200F4910
:103D10004865012202210D488030FDF789F80B48E3
:103D2000D0F8940040F00400084994310860012262
:103D3000032106488030FDF77BF80448D0F8940052
:103D400040F0080001499431086010BD00F00F40B8
:103D50000090044000A0044070B500BFEFF3108154
:103D600001F0010072B600BF04464CF220500D492C
:103D7000C8814DF62810C8810846008820F001004F
:103D8000088034210848FCF7D0FB0748FCF70CFFFB
:103D900005460DB1012070BD204600B962B600BFD6
:103DA0000020F8E7002005407C0A00202DE9F041C2
:103DB00005460F46002409E02E19304600F00AF8A7
:103DC00010B10120BDE8F08104F50064BC42F3D3DA
:103DD0000020F7E770B5044600BFEFF3108101F053
:103DE000010072B600BF05460B480C4B2146C26865
:103DF000FCF78EFE064636B9074800232146C26806
:103E0000FCF774FF0646284600B962B600BF0EB143
:103E1000012070BD0020FCE77C0A00206B66656B0A
:103E200030B503460C460021002000220BE09958D3
:103E3000CDB22844C1F307252844C1F307452844DF
:103E400000EB1160121DA242F1D330BD2DE9FE43FB
:103E500006460F46904606F0030010B10120BDE86B
:103E6000FE8300BFEFF3108101F0010072B600BFC6
:103E7000044643463A4631460C48FCF7EBFE0546FD
:103E80005DB900200122CDE900203B464246314683
:103E900002900648FCF77EFF0546204600B962B650
:103EA00000BF0DB10120DAE70020D8E77C0A00202E
:103EB00070B586B004460F4E3046FFF78BFF0546BF
:103EC00015B1012006B070BDFF22142101A8FCF736
:103ED00025FB1422214601A8FCF70EFB142201A9A0
:103EE0003046FFF7B3FF05460DB10120EAE7002099
:103EF000E8E7000000F8010070B504460D461348DD
:103F00000460134805600068124908600F4908689A
:103F100080F3088800BF086880F3098800BF0E4856
:103F2000406820F07F000D4908604FF0E0200069F4
:103F300020F001004FF0E0210861002008490870DE
:103F400004480068804700BF70BD00000CE0FF1F00
:103F500010E0FF1F14E0FF1FA4E3FF1F08ED00E0C7
:103F600084200740FCF764FBFCF728FBFCF75EFBB2
:103F700000F0B4F900F0E8F908B1FFF7D1FAFFF763
:103F80005DFE0220FFF7DEFCFFF7E4FA00F086FAA0
:103F9000012000F071FA00BF00F064FA0028FBD0A5
:103FA0000BE008200549C86000BF00F0CDF920B142
:103FB0000A20FFF711FCFFF7B3FAF2E740F00F40D9
:103FC000704700002DE9F04104460E4600254FF4ED
:103FD00000778648C46006612078BA2801D00120A5
:103FE00000E000206178DC2901D0012100E00021FF
:103FF0000843A178CD2901D0012100E00021084328
:10400000E178AB2901D0012100E00021084308B18B
:1040100001259AE02079522801D0022595E02079E7
:104020007249087160794871A079E17940EA01200C
:104030006E49C88008694FF48061FCF776FA6B48D6
:104040004079332873D00CDC282847D004DC0128C1
:1040500010D0272876D14CE0312855D0322871D1A4
:1040600056E0D7280AD0D82819D0D9281ED0DA2867
:1040700068D128E000205D49C88064E004205B49E5
:10408000C8800120096908725849096948720020EE
:1040900056490969887255490969C87253E05448FC
:1040A00000F080F900205149C8804CE04F49C968B0
:1040B00001F10800FFF7A0FB05464FF480670020E0
:1040C0004A49C8803FE04949C96801F10800FFF743
:1040D000B9FB054600204549C88034E043490969D9
:1040E00001F1080000F0B9F805462C203F49C880CE
:1040F00029E03E49C96801F10800FFF711FC0546B7
:1041000000203A49C8801EE000203849C8801AE0E3
:104110003649C96801F10800FFF7C6FB05464FF4B0
:10412000806700203149C8800DE000E00AE02F4997
:10413000096901F10800FFF7DDFB054604202B4962
:10414000C88000E000BF00BF00BFBA20274909694E
:104150000870DC20254909694870CD202349096988
:104160008870AB2021490969C87052201F4909692C
:1041700008711E4840791D4909694871F4201B499E
:10418000087245B1012D04D1002009694871174911
:10419000C8801648057215488079144909698871E4
:1041A0001248C088001211490969C8710F48017A84
:1041B0000269C088083011540C4A1169D28802F192
:1041C0000900FFF71FFA094948810846817A026908
:1041D000C08809301154054840890112034802691A
:1041E000C0880A3011543846BDE8F08190E3FF1FC3
:1041F0004C46464F10B500BFEFF3108404F00103A6
:1042000072B600BF1A4603680B400360134603B939
:1042100062B600BF10BD10B500BFEFF3108404F00C
:10422000010372B600BF1A4603680B4303601346CE
:1042300003B962B600BF10BD10B500BFEFF3108424
:1042400004F0010372B600BF1A4603684B400360D6
:10425000134603B962B600BF10BD70B50446002511
:104260002C262046FFF7BAFCB04200D01125284684
:1042700070BD704710B504460448C460FFF718FECF
:1042800008B1012010BD0020FCE70000E40A002076
:1042900070B5044600250C25002005E014F8012B1C
:1042A0000D490A54411CC8B2A842F7DB2025002062
:1042B00006E014F8012B08490C310A54411CC8B21D
:1042C000A842F6DB04480838FFF742FA08B101209B
:1042D00070BD0020FCE70000B80A002010B5FFF711
:1042E0003BFD342211491248FCF706F9142211490A
:1042F0001148FCF701F9114800681149884204D1BE
:1043000034220E490A48FCF7F7F80D4808490860BE
:104310000C4800680A49884204D114220949064819
:10432000FCF7EAF806480449086010BD144500008F
:10433000B00A002048450000E40A002000F0010017
:10434000646C766B00F8010010B5FFF765FC04465D
:104350000C48844208D14FF4A0400B4948604FF408
:10436000F0408860012010BD0848844208D14FF415
:104370004840054948604FF4943088600120F2E7D6
:104380000020F0E74C46464FA4E3FF1F4B4E494C3C
:1043900003468B4203D3934201D80120704700208B
:1043A000FCE7000010B50446FFF7D6FC08B1012079
:1043B00010BD0B48844207D14FF4A0400949486022
:1043C0004FF4F040886009E00748844206D14FF47A
:1043D0004840044948604FF4943088600020E7E783
:1043E0004C46464FB8E3FF1F4B4E494C2DE9F04178
:1043F00080460D4616461F461048007878B940465C
:10440000FFF7D0FF0E4A91685068FFF7CFFCC4B2A7
:1044100014B10120BDE8F081012008490870074867
:10442000007840B13A4631462846FFF70FFDC4B246
:104430000CB10120EEE70020ECE7000008E0FF1FD0
:10444000B8E3FF1F002001490870704708E0FF1F14
:1044500010B500F01DF8FDF741F8BDE81040FDF77C
:104460007FBA00000348007808B10120704700209F
:10447000FCE70000FBE0FF1F10B504462046FDF7F7
:10448000B5FA10BD0020704710B50446002010BDDD
:104490007047704710B5029C10BD000010B5002099
:1044A00004490870FFF7D4FFFEF76FFAFEF70AFA27
:1044B00010BD000009E1FF1F094800780949088084
:1044C000002009490870094908704FF00110084997
:1044D000086000200749086007490860704700002D
:1044E000AC450000F8E0FF1FFAE0FF1FFBE0FF1FF4
:1044F000FCE0FF1F00E1FF1F04E1FF1F03000100BC
:1045000003020000030000000000030100127A0013
:104510000D04000100000000000000000000000089
:10452000000000000000000000000000000000008B
:10453000000000000000000000000000000000007B
:10454000000000000000000000000000000000006B
:104550000000000000000000000000000400024015
:10456000100002408021017002780A42FCD070479E
:1045700010B5002905D004688C43934019402143AD
:104580000160BFF36F8FBFF34F8F10BD08001000A5
:10459000180020003000400060008000C0000001D2
:1045A0008001000200030004000600000000040077
:1045B00005400305050001004000400040000101E6
:1045C00040004000010001020304040040004000DC
:1045D00010001000400040000001010040000000F9
:1045E00000000000B93300000000000000000000DF
:1045F00000000000E133000000000000111B00007B
:104600001D19000000000000831400006514000064
:10461000CD230000000000000000000000000000AA
:10462000000000000000000000000000000000008A
:10463000000000000000000000000000E71900007A
:104640000000000000000000000000000600FF095C
:1046500001A101150026FF0075089540090181029E
:1046600095400901910295010901B102C0002100A4
:10467000540012010002EF020140280D0402001054
:104680000102030100000902820004010080FA090E
:104690000403000203000006092100010001222199
:1046A00000070585034000010705050340000108D8
:1046B0000B010202020104090401000102020104CB
:1046C0000524001001052401030204240206052428
:1046D0000601020705830310002009040200020AF4
:1046E00000000507050402400000070584024000A1
:1046F000000904000002FF000007070581024000D6
:104700000007050102400000000000000403090446
:104710000E0345005300530045004D0049001203AD
:10472000450053004C0069006E006B0049004900D1
:104730001A033000300030003100410030003000FA
:104740003000300030003000410022036D00620074
:10475000650064002000530065007200690061007C
:104760006C00200050006F007200740022036D0086
:10477000620065006400200053006500720069005B
:1047800061006C00200050006F0072007400140380
:1047900043004D005300490053002D0044004100E8
:1047A0005000160345005300530045004D004900DA
:1047B0005F0049004300440012034D0053004600CF
:1047C0005400310030003000970000000C48000019
:1047D00000E0FF1F70010000640500008C4800002D
:1047E000000000207C000000023500008C48000022
:1047F00070E1FF1F7404000012350000084900003A
:104800007C000020601200001235000001404228A8
:1048100013010482010008100157494E5553423AD2
:104820008E1C1A05282A8409393A12441265127618
:1048300012691A63081249126E1A7408127212660B
:104840003A611212471A55163244324E127B124602
:104850001237123012321A34041A430C1A2D121A5B
:10486000420C1A350A1A34021A330E122D12391A52
:10487000451C1A450A3A412A1A36341A461C1A3778
:104880000412391A3812027D7D0000000000000079
:1048900000000000000000000000000000004001D7
:1048A0000080000000093D00000000000000000042
:1048B00000000000000000000000000000000000F8
:1048C00000000000000000000000000000000000E8
:1048D0000000000000000000000000005555555584
:1048E00000000000000000000000000000000000C8
:1048F00000000000000000000000000000000000B8
:084900000000000000000000AF
:0400000500000411E2
:00000001FF
