:020000040000FA
:1000000000400020250400003D040000F50C000025
:10001000410400004304000045040000000000000B
:100020000101000000000000000000004704000083
:1000300049040000000000004B040000510D0000C6
:100040004F04000053040000570400005B0400004C
:100050009704000097040000970400009704000034
:100060009704000097040000970400009704000024
:100070009704000097040000970400009704000014
:100080005F0400009704000097040000970400003C
:1000900097040000970400009704000097040000F4
:1000A00063040000670400006B0400006F0400009C
:1000B00073040000770400007B0400007F0400004C
:1000C00083040000050E00008B0400008F04000074
:1000D00093040000970400009704000097040000B8
:1000E00097040000970400009704000097040000A4
:1000F0009704000097040000970400009704000094
:100100009704000097040000970400009704000083
:1001100097040000A50E000097040000970400005B
:100120009704000097040000970400009704000063
:100130009704000097040000970400009704000053
:100140009704000097040000970400009704000043
:100150009704000097040000970400009704000033
:1003F000970400009704000097040000FFFFFFFF30
:10040000FFFFFFFFFFFFFFFFFFFFFFFFFEF9FFFF03
:10041000DFF80CD000F094F800480047CD31000020
:100420000040002072B61D481D4901600A6882F331
:1004300008881C48804762B61B480047FEE7FEE775
:10044000FEE7FEE7FEE7FEE7FEE7FEE7FEE717480A
:100450000047174800471748004717480047174804
:1004600000471748004717480047174800471748F4
:1004700000471748004717480047174800471748E4
:1004800000471748004717480047174800471748D4
:1004900000471748004717480047000008ED00E0F4
:1004A00000000000850D000011040000970400000A
:1004B00097040000970400009704000097040000D0
:1004C0009704000097040000290D00003D0D000076
:1004D000970400009704000097040000CD0D000071
:1004E00097040000F90D000097040000990E000029
:1004F000970400009704000040EA01039B0703D023
:1005000009E008C9121F08C0042AFAD203E011F852
:10051000013B00F8013B521EF9D27047D2B201E014
:1005200000F8012B491EFBD270470022F6E710B5F8
:1005300013460A4604461946FFF7F0FF204610BD51
:10054000064C074D06E0E06840F0010394E8070020
:1005500098471034AC42F6D3FFF75EFFA439000091
:10056000E439000070B58C1810F8015B15F0070332
:1005700001D110F8013B2A1106D110F8012B03E03C
:1005800010F8016B01F8016B5B1EF9D12B0705D444
:100590000023521E0DD401F8013BFAE710F8013B8D
:1005A000CB1A921C03E013F8015B01F8015B521EA9
:1005B000F9D5A142D8D3002070BD0000104908B57C
:1005C0000E4848640F4800F059F910490E480022BF
:1005D00008600F48009002230321104600F0EAF85B
:1005E0000848083800F0DCF90B490A480860BDE803
:1005F00008400A494FF4E02000F000B9000007115C
:10060000008004400437000000127A0028E0FF1F39
:10061000D5070000008793031CE0FF1F006CDC027D
:100620007047000070B55C4800F0DCF85A48401C88
:1006300000F0D8F85848801C00F0D4F85648C01C88
:1006400000F0D0F85448001D00F0CCF8534C0722BD
:100650000021204600F060FB514E0122032130466C
:1006600000F05AFB60684F4D2840606001220C2169
:10067000204600F051FB03220D21204600F04CFBE8
:1006800000221221204600F047FB002213212046C1
:1006900000F042FBA0682840A0600722032120460A
:1006A00000F03AFB20692840206101220521204604
:1006B00000F032FB606920F0807040F00200606161
:1006C000394C01221321204600F026FB0122122181
:1006D000204600F021FB01220221204600F01CFBF5
:1006E00001220321204600F017FB0422102120469E
:1006F00000F012FB2D4C00221146204600F00CFBAE
:1007000001220A21204600F007FB01220221204697
:1007100000F002FB01220321204600F0FDFA012235
:100720000821204600F0F8FA01220921204600F0B5
:10073000F3FA01220021304600F0EEFA01221146C0
:10074000304600F0E9FA01220221304600F0E4FAD6
:1007500001221146204600F0DFFA01220421304632
:1007600000F0DAFA07220521304600F0D5FA072218
:100770000621304600F0D0FA07221146304600F03C
:10078000CBFA0B48C16821F00371C160016921F007
:100790003001016170BD0000090038100090044074
:1007A00000C00440FDFFFFFE00A0044000B0044074
:1007B000008004402DE9F0411D4616460F46069C78
:1007C00000F096F823462A4631463846BDE8F04107
:1007D00000F0A6B847F2305000E000BF401EFCD247
:1007E00070470000044901EB10410A68012383406F
:1007F0001A430A60704700000070044030B51C4D79
:1008000001232A6822F480222A60194A343AC8B1A6
:10081000184C09191BD0641009191AD0091915D0E0
:10082000E14201D1092112E00023516821F4E021C5
:1008300001435160296841F480212960B0F5E02F1F
:1008400009D012E0516821F48021F2E7022191647D
:10085000EBE70521FBE70848032180F8441190F8F5
:10086000401141F0800180F84011184630BD000071
:1008700034800440009423FD0020074010B5016837
:1008800049F69702914201D8002105E0154A9142AC
:1008900001D8012100E00221134B04791A7822F0DB
:1008A0000F0222431A701A78847922F0A0021443AE
:1008B0001C70C27992019A700C4A547821F07041F0
:1008C00024F03C0444EA01114479214351704079F9
:1008D000002805D01878000602D590798007FCD54D
:1008E00010BD000000127A00005006400040064093
:1008F0000A4A117B01F00301814201D0012100E08D
:100900000021137B60F30103137329B140F2DC5023
:1009100000E000BF401EFCD20020704700400640AF
:100920002DE9F0411D4C0026E578A779FF0604D596
:10093000E778012687F02007E7702778C00027F0C6
:10094000FC07C0F3C20047EAC0002070207B80078C
:1009500005D16078400702D5A0798007FCD5A07941
:10096000C006FCD406B1E570C801C0F3C010C001D8
:100970005101C1F3411140EA411025F0E001084363
:10098000E070E1788142FCD1A07910F00C0FFBD12E
:1009900003B198470020BDE8F08100000040064008
:1009A000074942684A6402784B6862F311434B601E
:1009B000044940780A6860F393420A607047000077
:1009C000008004400070044010B50268D30F044A50
:1009D00001D0526800E092689047BFF34F8F10BD7E
:1009E000140000202DE9F04389B015461C460E4640
:1009F00081466A4602F0DEF92A4631464846049BA3
:100A000002F098F900282BD1204602F0ABF907003C
:100A100026D1DDE9004625446D1EB5FBF6F006FB48
:100A2000105020B1B5FBF6F56D1C75436D1E00210D
:100A3000484602F064F9DFF830800BE024F07F4094
:100A400040F01061C8F80410484602F095F907001C
:100A500002D13444AC42F1D9484602F04DF938464F
:100A600009B0BDE8F08300000000024070B504004A
:100A70002CD01948C06CC0F303600F2828D0174948
:100A800031F8100080020025C4E9005001202072D6
:100A9000C002E060124810F8282F4FF48071914096
:100AA0006161C078A061204602F038F950B10D486C
:100AB000A0F18001C0E9005140318160E061204631
:100AC00000F012F825620020656270BD042070BD40
:100AD0004FF40030D7E70000008004409437000056
:100AE000000002408CE4FF1F70B5D8B1C469CCB1DE
:100AF0000D4960680D4D0A6840F8042B4A6840F8BB
:100B0000042B896840F8071928600749A6681C2249
:100B10000C313046FFF7F0FC761C02206E6020603E
:100B2000002070BD042070BD6C37000030E0FF1F56
:100B30002DE9F04389B01E4614000D46814612D0BF
:100B40006A4602F037F9324629464846039B02F0CE
:100B5000F1F8070008D100214846009D02F0CFF8C7
:100B6000DFF8548021E0042009B0BDE8F08302CC16
:100B70004046C8F808100399042902D0082905D076
:100B80000BE025F07F4141F0C06105E002CCC1607F
:100B900025F07F4141F0E0614160484602F0ECF809
:100BA000070004D103980544361A002EDFD14846C9
:100BB00002F0A2F83846D7E7000002402DE9F04FD6
:100BC00089B0154699460C4683466A4602F0F2F80B
:100BD0002A4621465846059B02F0ACF8002831D140
:100BE0006A462146584602F0E5F8009EDDF8088086
:100BF0007142C8F1000001404F42B74200D1474462
:100C0000DFF848A01BE0BC1BAC4200D92C4605987D
:100C100026F07F41B4FBF0F041F08072CAF8042066
:100C2000020442EA092040F0FF00CAF808005846D2
:100C300002F0A2F8002805D12D1B26444744002DC0
:100C4000E1D1002009B0BDE8F08F000000000240B3
:100C50002DE9F04F89B01D00DDE91279DDF85080F3
:100C600016460C46834612D06A4602F0A3F8324676
:100C700021465846079B02F05DF8002808D16FF026
:100C80007F41DFF85CA041EA0767009C25E0042073
:100C900009B0BDE8F08F24F07F4040F00071CAF841
:100CA0000410CAF808702968CAF80C10584602F0F7
:100CB00063F858B1B9F1000F01D0C9F80040B8F19C
:100CC000000FE5D00022C8F80020E1E70799761A66
:100CD00021F003010D4407990C44002EDBD1D7E726
:100CE0000000024001238B400AB1436070478360DB
:100CF00070470000BFF34F8F05480168054A01F4B3
:100D0000E06111430160BFF34F8F00BFFDE70000BA
:100D10000CED00E00400FA0550F8213062F30A23DC
:100D200040F8213070470000024801680248FFF790
:100D30004BBE00002000002000C002400248416875
:100D40000248FFF741BE00002000002000D0024012
:100D50000B494868401C4860886828B18868401E74
:100D6000886001D1012008704878401CC0B24870EA
:100D70000A2803D30020487002F066BA70470000CA
:100D800010E0FF1F0748016841F470010160064848
:100D90004CF22051C1814DF62811C1814FF4E97107
:100DA0000180704788ED00E00020054010B5044840
:100DB000054A0168126803489047BFF34F8F10BD82
:100DC000D40A002000A006401000002010B5FFF754
:100DD000EDFFBFF34F8F10BD10B50448054A4168C1
:100DE000126803489047BFF34F8F10BDD40A00200C
:100DF00000B006401000002010B5FFF7EDFFBFF374
:100E00004F8F10BD38B5194D2C79E878800601D484
:100E100024F02004E878000601D424F080042006A1
:100E20000BD5134801F0A0FDE871114801F08AFDCF
:100E300018B9E87820F08000E870A00605D514F015
:100E4000060F03D0E8798DF8000038BDEC79094829
:100E500001F067FD132802D8064801F085FD214600
:100E6000BDE83840034801F093BD000000B00640E3
:100E700050E1FF1F60E2FF1F10B50448054A81687A
:100E8000126803489047BFF34F8F10BDD40A00206B
:100E900000C006401000002010B5FFF7EDFFBFF3C3
:100EA0004F8F10BD2DE9F05F384E002596F8804039
:100EB000DFF8DCA02146200754D5DFF8D8B04FF08A
:100EC00015090BF5B46E96F890000309C0F3C00243
:100ED000C0F3800453EA020722D19F0007EB4202CD
:100EE00022445F461BF83240C4F38304012C17D11F
:100EF00007EBC20CBCF8024094B9DFF8948008F10B
:100F0000140818F80330ACF8023017F832305B06DA
:100F100001D5882300E0C8230BF8323040F00100EF
:100F2000EFF3108212F0010F72B6DAF808200EF813
:100F3000020002F10102B2FBF9F009FB1020CAF82D
:100F4000080000D162B6082086F880001DB996F826
:100F50009400800601D5012500E0002596F8804028
:100F60002007B0D40A4821430C3002F071FA0DB1C9
:100F7000012000E000209AF8002010438AF80000C9
:100F800086F88040BDE8F05F00F0F6BE0020074024
:100F900038E0FF1F000C0020002070470020704741
:100FA00010B5054C6068002805D10120606000F094
:100FB00005F80020606010BD10E1FF1F2DE9F0472B
:100FC000244CA06800283ED0D4E90401421AE0680D
:100FD0004FF0000652EA000137D021461E4FC96982
:100FE000DFF87880DFF878901E4D7AB1A0698142F1
:100FF00005D338888B182844834200D3421A99F8C5
:10100000003038F81300904200DA02461648E660D5
:10101000007840F0800001F0CFFBE1690144E1611C
:101020006269024462613B882B448B4200D1E561D6
:10103000216991420BD199F8002038F812108142B1
:1010400005D10120E060BDE8F087A660FBE7E6601F
:10105000F9E7000010E1FF1FCC370000D037000097
:10106000EFE0FF1FF6110020CA37000010B50B4C4F
:10107000206A18B1A06A401CA06210BD0120206245
:10108000606200F00DF8002060622062D4E90C017B
:101090008842F2D0401AFFF781FF10BD10E1FF1F18
:1010A00010B5134C1348164B216B0A1A12481B78C3
:1010B0000088821A114830F8130082420EDB114872
:1010C000007800F073FF216B08442063A06A0028B9
:1010D0000CD0616A002909D1401E06E00120E062BF
:1010E000606A002802D0A06A401CA06210BD000007
:1010F00010E1FF1F19E5FF1FCE370000D0370000B9
:10110000EFE0FF1FCB37000010B50446400702D5C3
:101110002046FFF7ABFF200704D52046BDE810406E
:10112000FFF73EBF10BD704700207047002070479A
:1011300010B50B4800F03CF8002810D0084A0948C8
:10114000116801700B0A43700B0C8370090EC1709B
:10115000117901715179417191798171012010BD2D
:1011600048E1FF1F98E4FF1F0E4810B500214160C1
:101170008160C1600C4A0161C0E90512C0E9072124
:1011800041620A4A8162C0E90B1242630180383031
:101190004FF416520260017141710821817100F013
:1011A00009F810BD10E1FF1FF611002019E5FF1F1F
:1011B00000207047002070470020704700207047D3
:1011C0000020704710B51048002410494460846026
:1011D000C4600461C0E90541C0E9071444620C49D8
:1011E0008462C0E90B4141630480FFF7E5FF0648D4
:1011F0004FF4165138300160047144710821817137
:10120000FFF7DEFF10BD000010E1FF1FF611002008
:1012100019E5FF1F10B5FFF7D5FF10BD70B51948D0
:10122000007800282DD0184C00250126206A50B9DE
:10123000D4E90C01884206D11449884203D02163C5
:10124000E56225626163A06A70B1206A60B9E06AF4
:1012500050B92662FFF724FF2562D4E90C018842C9
:1012600002D0401AFFF79AFED4E90101084308D1E1
:10127000D4E90401884204D06660A660FFF79EFEB0
:10128000656070BDEDE0FF1F10E1FF1F19E5FF1F56
:10129000002070470020704700207047024910B5B9
:1012A0000880FFF78BFF10BD10E1FF1F084810B545
:1012B000C178026861F31F6206490A6002790A7107
:1012C00042794A71807988710846FFF779FF10BD2D
:1012D00098E4FF1F48E1FF1F10B5074C074821782D
:1012E00000F03CF86060002805D00020A060BDE858
:1012F000104000F005B810BD540000203612002048
:1013000070B5124D6C68F4B111480088844200D366
:101310000446D5E9021300200E4A03E046189E5DFC
:101320001654401CA042F9D30B48224609490078C4
:1013300040F0800001F040FAA8682044A860686886
:10134000001B686001D100F065F870BD54000020FA
:10135000D637000036120020D437000070B5194C83
:1013600006460D46207848B101281AD0002020708A
:1013700000F050F8207802281AD020E0082D1ED363
:10138000304601F053FDA060B0F5A06F01D90121F6
:1013900000E0002150B10020014301D000F03AF8F4
:1013A0002946304601F00AFB2070E3E70120F3E70D
:1013B0000549A1F5A06001F081FCE06070BD00204E
:1013C00070BD000000E0FF1F8C050020064810B52E
:1013D000028807480549007800F0E8FD05490870D3
:1013E000BDE81040FFF778BFD63700003612002066
:1013F000D53700005400002010B50446400702D540
:101400002046FFF7E3FF200703D5BDE81040FFF7B4
:1014100077BF10BD034800218160C1604160017049
:101420007047000000E0FF1F06480021074B816065
:10143000054A41601A60064B02F5A0621A6001700D
:101440007047000000E0FF1F8C00002064000020B7
:101450006000002001078A0E0449114411F8C02FD2
:1014600022F002020A7001F01DB9000000200740BE
:10147000014680788988020601D4024A115401F09D
:1014800011B900004CE0FF1F704700F04FBA000098
:101490000A49002811F8940F06D040F001000870A6
:1014A000102081F87400704720F0010001F8740BDF
:1014B000087820F0100008707047000000200740F6
:1014C00010B50B4C0B48A2880078824200D9024626
:1014D0001AB907490020143908718020216801F0E9
:1014E0006BF9216801442160A188081AA08010BD11
:1014F00000E1FF1FB637000010B5064C0020A2889F
:10150000216800F053FD216801442160A188081A78
:10151000A08010BD00E1FF1F7047000009490206CE
:1015200007D5000701EB906010F8C01F21F00501FE
:1015300005E001EB800010F8C01F21F009010170E7
:1015400070470000002007400949020607D5000740
:1015500001EB906010F8C01F41F0050105E001EBC0
:10156000800010F8C01F41F00901017070470000B1
:10157000002007402DE9F047714E0446A6F108050A
:1015800080074FF00009A5F1140722D501F0F0F80B
:101590003078C009FFF7C0FFF088A8803078C0F32A
:1015A000411121B1012959D002296BD165E071782F
:1015B000DFF890810C2965D2DFE801F0060C641396
:1015C000641827642B31384500F03AFE1FE0FFF71E
:1015D00077FF6EE0002005E001F0D2F8D8F80000B7
:1015E00038E0012000F06AFEB8B3F5E710F01F0FF5
:1015F00048D1B078012140F08000387000F07F00C1
:1016000001F0A0F801F0BCF853E000F039FD20B380
:10161000DDE710F01F0F35D149481B3842E000F0DC
:101620009DFED0B101F0ACF8474812E000F01F0079
:10163000012827D1787880B13079B978884221D2D1
:10164000424908442EE000F04DFF30B101F098F817
:101650003F48006868B380472BE00DE010F01F00A2
:1016600010D001280ED100F009F910BB00F05CF990
:10167000F8B900F0B3F8E0B904E010F01F0008D0AA
:1016800001280BD0307800060ED4F08860B100201D
:101690000BE0307904289AD12E4803E030790528F0
:1016A00095D12D48286092E7802001F055F8A5F8E3
:1016B0000490600721D5307800061CD4A888E0B1DA
:1016C000FFF71AFFA888C0B93078C0F3411161B1A3
:1016D00001290AD110F01F0007D0012805D100F020
:1016E00065F850B900F03AF838B9802001F034F8C4
:1016F000A5F8049001E001F049F8200712D53078F0
:10170000000606D5A888397908430BD0FFF7D8FE24
:1017100008E03878010605D500F07F003870002118
:1017200001F010F8600602D50020FFF793FE2006B6
:1017300004D5BDE8F0478020FFF78CBEBDE8F087F8
:1017400008E1FF1F343800002C380000DFE0FF1FE5
:10175000303800002800002051E0FF1F10B510496C
:10176000104A08791278904203D00F4A12789042BA
:1017700014D1487820B1022805D020280ED10AE0E3
:10178000FFF788FD02E04888FFF786FD30B100F0E2
:10179000F7FF012010BDFFF789FDF7E7002010BD1E
:1017A00008E1FF1FC8370000C937000010B509481D
:1017B000094A01791278914209D14078092806D165
:1017C00000F0BAFA18B100F0DBFF012010BD0020D4
:1017D00010BD000008E1FF1FB737000070B52249B7
:1017E000224A08791278904203D0214A1278904216
:1017F00037D11D4849781F4C1F4D408804291FD000
:1018000007DC79B101290FD002290BD0032928D197
:1018100011E0202906D0212919D022291AD0232904
:101820001FD11AE02C6010E0FFF780FC05E02C606F
:10183000FFF746FE09E0FFF777FC0028F7D110E03C
:10184000FFF7AAFB0BE000F09BFF012070BDFFF744
:101850006FFCF2E7FFF722FD01E0FFF719FD00281A
:10186000F1D1002070BD000008E1FF1FC837000063
:10187000C937000098E4FF1F00E1FF1F2DE9F04188
:10188000224E23493079097888423CD17078214C26
:10189000214D224F0C2836D2DFE800F03506212CEE
:1018A000353535353516243100F062F958B3F07806
:1018B000012802D0032803D003E01948206000E08B
:1018C0002560FFF7FDFD12E0F078022802D0032822
:1018D00003D00CE01348206009E0256007E000F029
:1018E0002FF909E000F002FA0BE000F049FF0120B7
:1018F000BDE8F08100F032F928B12760E1E700F09F
:1019000011FA0028F1D10020F2E7000008E1FF1FE2
:10191000B737000000E1FF1FE8E0FF1F98E4FF1F5A
:10192000D9E4FF1FB61100200020704707480021AE
:101930004170C16001614161418081808161C1610B
:10194000C180018101624181704700006800002070
:101950002DE9F047484EB0887188494FDFF81C8167
:101960007D1C0024884216D3B069A0B97461B4808C
:10197000012339787A1C184601F09AFE708070882D
:1019800048B1776198F80000012801D8756102E03C
:101990007088401C708070884FF00109B0BBF068FF
:1019A00008B1F46032E0316981B398F80000012891
:1019B0000DD83C70B48002237A1C0021012001F074
:1019C00077FE7080708800B1756134611EE03D78EB
:1019D000C846202D00D3002508FA05F0084218D08B
:1019E000681CC1B23970B48002237A1C012001F056
:1019F0005FFE7080708818B177617088401C7080BD
:101A0000306908FA05F820EA08003061708830B9BA
:101A100002E06D1CEDB2DCE7B069002828D07088C8
:101A2000B188DFF86480401A85B2164F98F800003C
:101A300037F81000A84200D2054614482A467169BA
:101A4000007840F0800000F0B7FE7069104928442B
:101A50007061B088284480B2B0800988884209D279
:101A600098F8000037F81000A84203D1C6F8189083
:101A7000BDE8F087B461FBE768000020C2370000D2
:101A8000D8E4FF1FBE370000EFE0FF1FB8370000AB
:101A9000C4370000F8B51B4C1B4D1C4E2089002795
:101AA00010B9E5613188E180E1880A1A1848E169D6
:101AB000007800F07BFA0004E169000C0144E16168
:101AC000218901448BB2238109D031888B4206D20F
:101AD000114A1049127831F81210814210D90F487A
:101AE000017801200129009003D80021064A022034
:101AF00003E029786A1C02205B1E01F0DDFD2781CE
:101B0000F8BD000068000020B5110020C6370000B5
:101B1000B9370000BE370000EFE0FF1FC3370000F9
:101B200010B50446000702D52046FFF711FF6007F5
:101B300004D52046BDE81040FFF7ACBF10BD000043
:101B4000034804498078085C034908700120704705
:101B500008E1FF1F5100002098E4FF1F10B501F0BD
:101B6000A5FD02490870012010BD000098E4FF1F88
:101B70000B4910B5C8780022012804D0022804D0EF
:101B8000032806D103E0074A02E0002010BD064A00
:101B9000521C8978002301F08BFD012010BD00004C
:101BA00008E1FF1FD8E4FF1FE7E0FF1F2DE9FC5FFE
:101BB0004548007800287DD0444D0423002629782C
:101BC000B146481C28704248007800EB4002934020
:101BD0005B1E0192994202DB85F8009001263D4A86
:101BE00000241188FF2901D2491C11803A4931F89B
:101BF0001000384900900988884200D101243949F1
:101C00000020DFF8D8804FF0010BDFF8D4A091F866
:101C100000E045E0002276B11AF800105346FF2993
:101C200001D2491C195418F8001021B11AF80030DB
:101C30008B4200D30122019918F8007002238B40D7
:101C400007FA03F1009B994202DA0FB1012300E089
:101C500000233CB133B1D5F810C00BFA00F141EAD2
:101C60000C0129612049095C8F420ED01AF80070DE
:101C70008F4208D3D5F810C00BFA00F747EA0C07DB
:101C80002F6185F8009008F800103AB123B92A694D
:101C90000BFA00F1114329610AF80090401CC0B210
:101CA0007045B7D314B10B49A1F8009028690028FA
:101CB00008D000E006E06888002803D1BDE8FC5F9A
:101CC000FFF746BEBDE8FC9FEDE0FF1F6800002067
:101CD000EFE0FF1FE4E0FF1FBA370000E6E0FF1F60
:101CE00050000020C2370000510000200948094977
:101CF0008078C97810B1084A815409E0084A002068
:101D0000064B127802E01954401CC0B29042FAD33C
:101D10000120704708E1FF1F500000205100002003
:101D2000C2370000034810B5807801F0C4FC0120E0
:101D300010BD000008E1FF1F0C4908B5C87800225B
:101D4000012804D0022804D0032806D103E0002093
:101D500008BD074A00E0074A521C00230093CB88C5
:101D6000897801F0A9FC012008BD000008E1FF1FEF
:101D7000B5110020E7E0FF1F2DE9F05FEFF31080C1
:101D800010F0010F72B6584D4FF00009EC68C5F81D
:101D90000C9095F800A085F8009000D162B6E0079D
:101DA00007D000F033FC01F097FC5048006800B108
:101DB0008047E00605D500F0F3FC4D48006800B10F
:101DC0008047A00605D500F0ABFC4A48006800B18A
:101DD0008047600703D54848006800B18047DFF8B6
:101DE0001C81022C08D14648016811B198F888007E
:101DF0008847FF2188F8881020076AD5414E424F56
:101E0000AB46EFF3108000F0010272B65B46D3E9F7
:101E10000110814258D1012057E0EFF3108010F0FB
:101E2000010F72B639484FF01502405C01F1010113
:101E3000B1FBF2F502FB1511596000D162B604093D
:101E4000C0F3C002C0F3800109D109EB420C8C44FD
:101E500016F83CC0CCF3830CBCF10D0F0AD0A500E2
:101E600005EB4202551816F83510C1F3830101291C
:101E700013D01CE0186920F002001861307E20F0B9
:101E800080003076307C20F0800030748BF8019038
:101E900039680029B5D0022014E01CB900F0010017
:101EA0008BF8010057F8241009B10420884716F870
:101EB0003500C0F383000928A3D157F82410002966
:101EC0009FD0082088479CE7002002B962B600280E
:101ED000A3D0BAF1000F05D0404610F8941F21F0AE
:101EE00020010170BDE8F09F38E0FF1FD8370000E7
:101EF000DC370000E0370000E43700000020074036
:101F0000E8370000000C0020EC370000A011002092
:101F100010B51F48402404701E48416841F4E02178
:101F20004160416B41F480214163352000F072FC37
:101F3000194890F80C1141F0800180F80C1190F8CC
:101F40000C110906FBD41549090A80F89C101349A5
:101F5000090C80F8B0101149090E80F8B410FF2167
:101F600080F880100E49096801B104210D4A1268F9
:101F700002B10222114341F0190180F8841080F867
:101F8000004190F80C1141F0400180F80C1110BD97
:101F90004CE0FF1F0080044000200740000C0020A0
:101FA000E4370000E8370000704700002DE9F047F3
:101FB00003004FEA03702F4E4FEA906406EBC4080B
:101FC000DFF8B4A0B8F802504FF0000C4FF0010950
:101FD00014D19AF8010048B1600809FA00F10AF139
:101FE000100001F041FA0020BDE8F08716F8340037
:101FF000C0F383000D2801D14FF0010C1D480022D1
:10200000A03000EB841702E0B85C8854521CAA424E
:10201000FAD3194814306708C05CA8F80200DAF84F
:10202000100016F83420F84000F00100C2F38012CE
:10203000D04690420AD1C888BCF1000F00D060B1F0
:102040000D4809FA07F1103001F00EFAD8F8100027
:10205000F840C00708D0C82007E007486FF001012A
:10206000103001F0E9F9F1E7882006F8340028463D
:10207000BAE70000000C002038E0FF1F70470000A6
:102080007CB54249A1F11C050878A1F1080410F0C3
:102090001F0002D0012877D15FE03D48CB7802785D
:1020A0003A481C38C1781C30082B80786CD2DFE8A5
:1020B00003F06B04113C6B6B082A36482060122039
:1020C00049E0002A60D019B1334820600A2042E07C
:1020D0003248FAE70AB9012956D019B130490091BE
:1020E000002108E02F49FAE7009A137813B15388CA
:1020F0001A440092491C8842F6D100980178E9B34D
:102100002060408827E0CAB319B127490091002117
:1021100008E02649FAE7009A137813B153881A4465
:102120000092491C8842F6D1E7E72149009100213D
:1021300005E0009B1A780AB11A440092491C8842B3
:10214000F7D1EE2801D0009801E01A4800900178FC
:10215000A1B120600078019005E001A9684600F077
:102160002DF800280FD0A188019881420AD9124980
:1021700080B2A0800978491E084200E004E001D145
:102180000120287101207CBD00207CBD08E1FF1FDB
:10219000B33700005E38000071380000703800006E
:1021A000F538000072380000F7380000F6380000FB
:1021B000F838000090390000B637000030B5164AF4
:1021C000164B154CD278164D24791B78212A02D053
:1021D000222A1ED114E09C421BD1124A1378124AC3
:1021E00012780BB9012A14D042B1104A026010468D
:1021F0000F4A128810442860092007E00D4AF5E7CD
:102200009C4206D10C4828600C48008808600120D8
:1022100030BD002030BD000008E1FF1FB7370000CF
:1022200000E1FF1FB3370000EFE0FF1FF5380000AB
:102230005C38000072380000383800005A3800005E
:1022400070B51C481B4C0078A4F1080410F01F0066
:102250000AD0184AA4F11403174D597812790128AD
:1022600006D0022824D109E01248163820601DE06B
:10227000F1B1987882421BD2002015E002F08F0065
:10228000020605D500F00F064FF48032B24001E09F
:102290000122824009B900070AD19868104207D08C
:1022A000D868104000D0012028802560012070BD32
:1022B000002070BD08E1FF1F98E4FF1F70B5264B9A
:1022C000024619461878498810F01F00A3F11C0631
:1022D00004D0012829D0022827D111E0012924D1D6
:1022E00032B1012000F066FAF08840F0020005E00B
:1022F000002000F05FFAF08820F00200F08029E072
:10230000187900F08F04200605D504F00F004FF473
:102310008035854001E00125A540707828B120076F
:1023200003D0B068284200D009B1002070BD2AB1A6
:10233000204600F011FAF06828430AE0306928428C
:1023400008D12046FFF786F82046FFF797FEF06891
:10235000A843F060012070BD08E1FF1F2DE9F05F88
:102360005A480026017811F01F0F7DD1574F807811
:102370001C3FB1464FF0010A4FF4803B002879D052
:10238000534801783846C07809B901286CD008B1A3
:10239000504C68E0504C66E06078022804D0042875
:1023A00044D005285DD143E0484861798078814276
:1023B0003AD1787020794A49B8700020474A098894
:1023C00002E002F80090401C8842FAD30125B8468A
:1023D0000AFA05F0D8F80810084202D02846FFF79C
:1023E0009DF8D8F808100BFA05F0084203D045F024
:1023F0008000FFF793F86D1C102DE9D34FF001100A
:10240000C8E902090120C8F81090FFF73DF8E0790B
:102410004006B8F8060002D540F0010001E020F0C7
:102420000100A8F806001CE060881BE0E67818E0D0
:10243000BEB9A07800F08F05280604D505F00F017D
:102440000BFA01F001E00AFA05F0B96801432046F1
:10245000B960FFF70DF82846FFF776F8284600F038
:1024600021F92078044401E02AE003E020780028E4
:1024700092D120E04D4687F8019001245E46B9686C
:102480000AFA04F0084202D02046FFF747F8B9687C
:1024900006FA04F0084203D044F08000FFF73EF84B
:1024A000641C102CEBD34FF00110C7E9020500208B
:1024B0003D61FEF7E9FF054879788078884202D0CF
:1024C0000020BDE8F09F0120FBE7000008E1FF1FAE
:1024D000B3370000F538000072380000DFE0FF1F5E
:1024E000B43700002DE9F84F434800273E460078F6
:1024F000BA4600F01F00B94601287BD13E491C397D
:102500004878002873D0002000903C4802780846A4
:10251000C0780AB901286DD08B4608B1384C62E00A
:10252000384C60E06078022804D0042809D00528DF
:1025300057D118E061799BF80100814251D0608841
:1025400050E02D48A778E67801794FF00009B942AC
:1025500047D18078B04244D1012000902A4810F839
:1025600007A0C6553DE024490879B84239D1A07882
:1025700000F08F085FEA086005D508F00F004FF4FF
:102580008035854002E0012505FA08F58878B042DB
:1025900015D1DBF8081020462943CBF80810DBF8EA
:1025A0000C10A943CBF80C10FEF762FF4046FEF773
:1025B000CBFF404600F076F849EA050911E05645A0
:1025C0000FD119EA050F0CD1DBF808104046A943DA
:1025D000CBF80810DBF80C10A943CBF80C10FEF771
:1025E0009DFF20780444207800289BD10098BDE806
:1025F000F88FFFE70020FAE708E1FF1FB33700007C
:10260000F538000072380000DFE0FF1F70B5204988
:102610004FF40010C1F88001BFF34F8FBFF36F8FED
:1026200001201C4D002405EB800181F8C040401CB6
:102630001028F8D315211848FDF777FF17481849D7
:10264000402244608460C460047044704A8001F198
:10265000A0024A60C8220A700C7201F59072CC6127
:102660004A610D2185F8C0104FF05531016115F810
:10267000940F40F0020005F81409FF20287028721A
:1026800028732C76BDE87040352000F0C3B80000F8
:1026900004E000E000200740A011002038E0FF1F08
:1026A000000C00202DE9F0410546174E00064FF0C2
:1026B00000084FF00101A6F1A00705F00F040FD5A7
:1026C00001EB44008140114800F0C2FE07EB4410CA
:1026D00006EB04218031C0F81C804161BDE8F08127
:1026E00068008140C943094800F0A6FE0748001D64
:1026F000415D07EB4410418006EB042141608821D5
:10270000017080F80880E9E7A00C002048E0FF1F76
:1027100010B5FEF77FFDBDE81040FEF77BBE000060
:10272000034810F8841F21F0200101707047000059
:102730000020074010B5FFF739FABDE81040FEF75A
:102740006DBD0000002904D1024900F07F0081F82E
:1027500098007047002007400007810E0348084496
:1027600010F8C01F41F002010170704700200740BF
:10277000082202490020FFF719BC000008E1FF1FF2
:1027800000221146802000F017B8000002480349DB
:1027900002780020FFF70ABCB637000098E4FF1F5C
:1027A000034810F8841F41F02001017070470000B9
:1027B000002007407047000070B5154600F00F007C
:1027C000022202EB8004114A002302EBC400458080
:1027D00002F1A00000EB841002E0CE5CC6545B1C4A
:1027E000AB42FAD30A4960080969C140C90701D060
:1027F000882100E0C82102F83410012181400448FA
:10280000103000F031FE284670BD0000000C0020A2
:1028100038E0FF1F002809DB00F01F020121914072
:102820004009800000F1E020C0F80011704702E08C
:1028300008C8121F08C1002AFAD17047704700204B
:1028400001E001C1121F002AFBD1704770B50C4E88
:1028500004240C4A75680C49286800F0BFFE60B17A
:10286000D6E9011228190A44006800F0B7FE20B129
:10287000241D0C2CF4D900F009F8002070BD0000D4
:1028800084E3FF1F0040002000E0FF1F0E4810B54A
:1028900041680E4BD1E90002C3E9010280F30888C8
:1028A00080F3098821F07F000949DA6008604FF061
:1028B000E020016921F0010101610649002081F851
:1028C0008400904700BF10BD84E3FF1F000000207C
:1028D00008ED00E0002007400A484FF47A710068D4
:1028E000B0FBF1F0401EB0F1807F0AD24FF0E02142
:1028F0004861054AF02082F8140D00208861072005
:10290000086170471CE0FF1F0FE000E0034610B5B0
:102910000020024602E08C5C521C20449A42FAD30A
:1029200010BD30B50546EFF3108000F0010472B61B
:10293000284600F007F8A968081A401E002C00D1AC
:1029400062B630BDEFF3108101F0010372B6D0E939
:1029500000128A4201D3501A02E080681044401AE3
:10296000002B00D162B6704710B5EFF3108101F073
:10297000010272B6C36801685B5C491C016084682F
:10298000A14201D30021016002B962B6184610BD10
:1029900010B5EFF3108202F0010272B64468C3680A
:1029A00019554168491C41608368994201D300214F
:1029B0004160002A00D162B610BD0000F0B50F4C96
:1029C00000220F4D636803E0865C9F18521CEE5591
:1029D0008A42F9D358186060A268511AA160B0F514
:1029E000A06F01D9FEF716FDA06828B9606818B17C
:1029F000002060600220F0BD0120F0BD00E0FF1F5C
:102A00008C00002030B50E4C054695B0204600F0F5
:102A100057FB012810D1FF2250216846FDF77EFDAB
:102A2000502229466846FDF767FD50226946204638
:102A300000F07AFB012800D0002015B030BD000066
:102A400000F00100F0B5674C8DB00E46C4E90301FB
:102A50000168C27809BA21F0FF011143624A1425C6
:102A60002160914201D0A02026E0818849BAA1804E
:102A70008179522901D0A1201EE05221A171C07993
:102A8000E07114213046FDF750FD2661E079574F83
:102A9000324606F10801042854D008DC4FF0000645
:102AA000012827D002283AD0032804D13EE0052887
:102AB0005DD0602844D003202269AB2111702269C7
:102AC000CD2151702269DC2191702269BA21D17027
:102AD000A1882269090A002811712269217951719E
:102AE0002269A17991712269E179D1715DD0207259
:102AF000A5805CE0012010722169487221698E7204
:102B00002169C8722069067320694673206986733B
:102B10002069C67320690674A5800020CCE70846AA
:102B200000F0AEFC4FF40571A180C5E7E0681130FC
:102B300000F0C6FC384600F0B7FC2D4880F88460F1
:102B4000002030E0E268002632F8080F43BAD2F8DD
:102B5000020000BA20F0FF015079093201433846E3
:102B600000F066FD012800D0122630461BE00E461C
:102B700000272C216846FDF7D8FC00F07DFD0BA84E
:102B800000F0C8F90B98000A30700B9870708DF83F
:102B9000080030788DF80900684600F0A7FC01288D
:102BA00000D012273846A58086E7F4202072A2883C
:102BB0002169114401F8030CA0882169801EFFF7E8
:102BC000A5FE6081A2882169000A114401F8020C67
:102BD000A2882169A07A114401F8010CA0880DB0E7
:102BE000F0BD000070E3FF1FBADCCDAB4B4E494C8B
:102BF0000020074005494FF47A720968B1FBF2F1F1
:102C0000C91C89084143491EFDD170471CE0FF1FC4
:102C100038B504460025684600F07CF9009881B27A
:102C200000912078CAB2904201D0012000E000203B
:102C300062780B0A9A4201D0012200E00022104380
:102C4000A2780B0C9A4201D0012200E0002210432E
:102C5000E278B2EB116F01D0012100E000210843BE
:102C600001D0122501E000F007FD284638BD38B537
:102C70000446002500F000FD684600F04BF900987E
:102C800020700098000A60700098000CA0700098F6
:102C9000000EE070284638BD10B5002400F026FC78
:102CA000012800D01224044800F0FEFB012800D0C7
:102CB0001224204610BD00004B4E494C30B4024651
:102CC00000201368D4781BBA23F0FF032343084C79
:102CD000A34203D130BC1046FFF7B4BE054CA3425B
:102CE00003D130BC104600F0B1BA30BC70470000D0
:102CF000BADCCDABABCDDCBA0121AFF3008010B5AF
:102D00000C4600F00BF8002807D1012C05D100F08B
:102D100071F8BDE8104000F07BB810BD30B1C0695B
:102D200010B10068022803D06D207047042070475E
:102D30000020704710B530B15B1E194201D11A4214
:102D400003D0652010BD042010BD03688B4206D857
:102D5000406811441844884201D3002010BD662009
:102D600010BD00000349884201D06B20704700204D
:102D7000704700006B66656B10B50C4C70212170BC
:102D8000FFF7CCFF002807D109492046096888478A
:102D90002078810601D5672010BDC10601D56820C5
:102DA00010BDC007FCD0692010BD0000000002402B
:102DB00030E0FF1F70B50E460500144617D0B4B1C1
:102DC00020211046FDF7B1FB2868301A2060E86822
:102DD0006060297A6868B0FBF1F0A06004200821E7
:102DE000C4E90301C4E90510E061002070BD0420BE
:102DF00070BD000030B4054C0F23142264680248F3
:102E0000A44630BC1905604704F0014030E0FF1FC4
:102E100030B4054C0123132264680248A44630BC38
:102E2000D904604704F0014030E0FF1F0168C27818
:102E300009BA21F0FF011143174A914202D180885B
:102E400040BA7047154A914224D14079182803D0DE
:102E50000021D92813D000E001210022114332289B
:102E60000FD0002211432A280DD00022114335280B
:102E70000BD0002001430AD04FF48060704701223C
:102E8000ECE70122EEE70122F0E70120F2E74FF440
:102E90000070704700207047BADCCDABABCDDCBA18
:102EA00010B51C22064B00215C18491C94F83440D4
:102EB000C9B200F8014B9142F6D3104610BD000094
:102EC000ACE3FF1F4FF48040006A411C00D100209A
:102ED0007047000010B50C230A4A00215418491C01
:102EE000247AC9B200F8014B9942F7D3202300217C
:102EF0005418491C247DC9B200F8014B9942F7D3FC
:102F00002C2010BDACE3FF1F014880687047000013
:102F1000FCE3FF1F10B5044603488168406800F0D9
:102F2000EFF82060012010BD98E3FF1F70B5464CFC
:102F300054F8D40F20F0080044F87C0943494FF4BA
:102F40008070C86054F8041C21F4803144F8041CDB
:102F50003F490864C864800244F8100C44F8040C2B
:102F600000122063E063384D012280350A21284693
:102F7000FDF7B8FEE06B40F48060E063E06F20F0A6
:102F80000200E067304E0122C03611463046FDF7A0
:102F9000A9FEE06F40F00200E06701220021304608
:102FA000FDF7A0FE54F87C0F40F0010044F8D4096E
:102FB000002205212046FDF795FE54F8140F40F03D
:102FC000200001C4204E0022403603213046FDF788
:102FD00089FEE06B40F00800E063002202213046E9
:102FE000FDF780FEE06B40F00400E0630022012169
:102FF0002846FDF777FEE06F40F00200E06701220F
:1030000012213046FDF76EFEE06B40F48020E06355
:10301000012213213046FDF765FEE06B40F40020ED
:10302000E063012202212846FDF75CFEE06F40F0DC
:103030000400E067012203212846FDF753FEE06FFC
:1030400040F00800E06770BD00F00F4000C0044091
:1030500000A0044010B5EFF3108000F0010472B638
:103060000C484CF22051C1814DF62811C1810188D4
:1030700021F00101018034210748FDF756FA064886
:10308000FDF7F4FC08B1002010BD04B962B60120C0
:1030900010BD000000200540A00A002070B50D46BC
:1030A0000646002408E0301900F00AF8012801D093
:1030B000002070BD04F50064AC42F4D3012070BD63
:1030C00070B50546EFF3108000F0010472B60A4EA9
:1030D0000A4B29463046F268FDF784FC28B90023E4
:1030E00029463046F268FDF769FD04B962B608B1B9
:1030F000002070BD012070BDA00A00206B66656BCA
:1031000030B50446002003460BE0E25850FA82F046
:10311000C2F307252844C2F30745284400EB126098
:103120001B1D8B42F1D330BDF0B5ADF20C4D0F46F7
:10313000054616464FF4806103A8FDF7F6F9A80787
:103140001ED13246394603A8FDF7D6F9EFF31080B9
:1031500000F0010472B6334603AA29460B48FDF776
:10316000E7FC50B900200121CDE9001002903B4658
:10317000324629460548FDF76BFD04B962B618B121
:1031800000200DF20C4DF0BD0120FAE7A00A00204E
:103190007FB50D4C05462046FFF792FF012810D160
:1031A000FF2210216846FDF7B9F91022294668462A
:1031B000FDF7A2F9102269462046FFF7B5FF012866
:1031C00000D0002004B070BD00F801000024FDF71D
:1031D00029FAFDF7F3F9FDF723FA00F0A7F9FFF755
:1031E00071FE00F0D7F9012801D0FFF72FFBFFF7A0
:1031F0009DFE144D0420A8600820A86011492020DD
:1032000040398860FFF768FB00F058FA012000F0B1
:103210004BFA00F041FA0028FBD000F0BBF901287E
:1032200005D00A20FFF7E6FCFFF710FBF5E7641C6A
:10323000652C02D10420E86000240A20FFF7DAFCA4
:10324000EBE7000040F00F40704700002DE9F04729
:10325000DFF8D8810B460024C8E9030101784FF458
:103260000077BA2901D0012200E000224178DC2950
:1032700001D0012100E000210A438178CD2901D04D
:10328000012100E000210A43C178AB2901D00121CE
:1032900000E000210A434FF0000601D0012482E043
:1032A0000279522A01D002247DE088F80420417975
:1032B00088F80510C088A8F806004FF480694546D4
:1032C00049461846FDF731F96879332864D00CDC9B
:1032D000282840D004DC012849D0272863D141E0C8
:1032E000312844D032285ED143E0D72808D0DFF817
:1032F00040C1D82817D0D92819D0DA2853D125E0D1
:10330000A8462D69FFF7DEFD2872010A6972010CDB
:10331000A972000EE8722E736E73AE73EE730821FD
:10332000A8F806103FE0604600F060F91FE0EA6888
:103330000024D07A52F8081F60F31F61D0795368D7
:1033400060F31F63604620E04F4610E0E8680830F5
:10335000FFF75EFC0AE02869083000F09BF804469D
:103360002C201FE0E8680830FFF796FC0446EE804A
:1033700019E0EA680024D07A52F8081F60F31F6150
:10338000D079536860F31F632A48083200F050F97F
:103390000128D9D01224D7E728690830FFF767FC45
:1033A00004460420E880D8F81010BA20454608707A
:1033B000D8F81010DC204870D8F81010CD20887094
:1033C000D8F81010AB20C870D8F81010522008712F
:1033D000D8F8101098F805004871F42028722CB124
:1033E000012C02D128694671EE802C722969A879D6
:1033F0008871E8882969000AC871EA882969287AE9
:1034000011440872E88829690930FFF77FFA68815A
:10341000EA88296911444872EA882969688911444F
:10342000000A88723846BDE8F08700008C0A002048
:103430004C46464F4B4E494CEFF3108212F0010FB1
:1034400072B6036803EA0103036000D162B67047F5
:10345000EFF3108212F0010F72B6036843EA010322
:10346000036000D162B67047EFF3108212F0010FD3
:1034700072B6036883EA0103036000D162B6704745
:1034800010B500240930FFF70BFD1C2800D01124D3
:10349000204610BD10B50024FFF71CFD2C2800D0DD
:1034A0001124204610BD0000044910B5886008466C
:1034B000FFF76EFE012800D0002010BDFCE3FF1FC7
:1034C00070B51C23084A00215518491C10F8014BFF
:1034D000C9B285F834409942F6D30348FFF792FA0F
:1034E000012800D0002070BDACE3FF1F70B50C2296
:1034F0000D4B00215D18491C10F8014BC9B22C720C
:103500009142F7D3202200215D18491C10F8014B8D
:10351000C9B22C759142F7D30348FFF773FA01281B
:1035200000D0002070BD0000ACE3FF1F10B5FFF716
:1035300091FD502212491348FCF7DEFF1049114853
:10354000102250315030FCF7D7FF0F4800680F4C65
:10355000A04204D150220C490A48FCF7CDFF09488B
:1035600004600B480068A04205D1064810220849B3
:103570005030FCF7C1FF03485030046010BD00001C
:103580000C370000ACE3FF1F00F00100646C766BA9
:1035900000F8010070B5FFF7B7FC0D490D4C8842EB
:1035A00005D14FF4804060604000A0600CE00A4903
:1035B00088420BD14FF498364FF4404531462846A7
:1035C000FFF79EFDC4E90156002070BD012070BDCB
:1035D0004C46464F84E3FF1F4B4E494C884203D371
:1035E000904201D8012070470020704710B5044672
:1035F000FFF730FD012801D0002010BD09490A481D
:103600008C4204D14FF480414160490007E00749F2
:103610008C4205D14FF4404141604FF498318160B4
:10362000012010BD4C46464F98E3FF1F4B4E494CBE
:103630002DE9F0410E4C0F46014620781D461646F6
:1036400058B90846FFF7D2FF0A4881684068FFF77B
:1036500025FDC0B2012808D120702A4631463846DF
:10366000FFF762FDC0B2012800D00020BDE8F08164
:103670000000002098E3FF1F0149002008707047F8
:103680000000002010B500F015F8FDF76DFDBDE855
:103690001040FDF7C9BE000002484078002800D065
:1036A00001207047ECE0FF1FFDF7F2BE00207047DD
:1036B000002070477047704770470000054910B5FB
:1036C0000020C870FFF7DEFFFEF76EFCBDE810407B
:1036D000FEF71EBCECE0FF1F06484FF00112017818
:1036E0000548C180002101704170C0E902210161DB
:1036F00070470000B2370000ECE0FF1F030000003D
:103700000000030100127A000D0400010000000017
:1037100000000000000000000000000000000000A9
:103720000000000000000000000000000000000099
:103730000000000000000000000000000000000089
:103740000000000000000000000000000000000079
:103750000000000000000000000000000000000069
:103760000000000000000000000000008021017047
:1037700002780A42FCD0704710B5002905D00468D1
:103780008C439340194021430160BFF36F8FBFF317
:103790004F8F10BD080010001800200030004000BE
:1037A00060008000C00000018001000200030004EE
:1037B0000006000004004003020201004000400037
:1037C00040000101400040000102040440004000AC
:1037D00040004000010140001127000000000000EF
:1037E00000000000352700000000000075150000F3
:1037F000F9130000211B000027110000091100002F
:1038000000000000000000000000000000000000B8
:1038100000000000000000000000000000000000A8
:103820000000000000000000000000008B140000F9
:1038300000000000000000000600FF0901A10115C2
:103840000026FF0075089540090181029540090195
:10385000910295010901B102C0002100540012013A
:103860000002EF020140280D0402001001020301D2
:1038700000000902820004010080FA09040000022D
:10388000FF00000707058102400000070501024014
:1038900000000904030002030000060921000100E2
:1038A00001222100070582034000010705020340B1
:1038B0000001080B010202020104090401000102D7
:1038C000020104052400100105240103020424025E
:1038D00006052406010207058303100020090402DF
:1038E00000020A00000507050402400000070584E5
:1038F0000240000000000000040309040E0345001C
:103900005300530045004D00490012034500530089
:103910004C0069006E006B00490049001A0330003A
:103920003000300031004100300030003000300005
:103930003000300041001803530065007200690038
:1039400061006C00200050006F00720074001803CA
:10395000530065007200690061006C002000500097
:103960006F0072007400140343004D0053004900BF
:1039700053002D0044004100500016034500530041
:103980002D004C0069006E006B00200049004900CA
:1039900012034D0053004600540031003000300047
:1039A00097000000E439000000E0FF1F5001000014
:1039B00064050000603A0000000000208C00000058
:1039C0002E280000603A000050E1FF1F0C040000A8
:1039D0003E280000EC3A00008C000020EC110000B2
:1039E0003E280000011E13400132800321093D1AC8
:1039F000550151428E13010512012A840931122802
:103A000012441265127612691A63081249126E1A6C
:103A10007408127212663A611212471A551632442D
:103A2000324E127B12461237123012321A34041AF6
:103A3000430C1A2D121A420C1A350A1A34021A3380
:103A40000E122D12391A451C1A450A3A412A1A3605
:103A5000341A461C1A370412391A381202747D00BF
:103A60000000000000000000000000000000000056
:103A70000000000000000000000000000000000046
:103A80000000000000000000280000000001040009
:103A90000100000000000000000157494E5553424C
:103AA0000000000000000000000000000000000016
:103AB0000000000000000000000000000000000006
:103AC00000000000000000000000000000000000F6
:103AD00000000000000000000000000000000000E6
:0C3AE000000000000000000000000000DA
:0400000500000411E2
:00000001FF
