:020000040000FA
:1000000000400020250400003D040000F90E00001F
:10001000410400004304000045040000000000000B
:100020000000000000000000000000004704000085
:1000300049040000000000004B040000ED0F000028
:100040004F04000053040000570400005B0400004C
:100050009704000097040000970400009704000034
:100060009704000097040000970400009704000024
:100070009704000097040000970400009704000014
:100080005F0400009704000097040000970400003C
:1000900097040000970400009704000097040000F4
:1000A00063040000670400006B0400006F0400009C
:1000B00073040000770400007B0400007F0400004C
:1000C00083040000E11000008B0400008F04000096
:1000D00093040000970400009704000097040000B8
:1000E00097040000970400009704000097040000A4
:1000F0009704000097040000970400009704000094
:100100009704000097040000970400009704000083
:1001100097040000BD110000970400009704000040
:100120009704000097040000970400009704000063
:100130009704000097040000970400009704000053
:100140009704000097040000970400009704000043
:100150009704000097040000970400009704000033
:1003F000970400009704000097040000FFFFFFFF30
:10040000FFFFFFFFFFFFFFFFFFFFFFFFFEFFFFFFFD
:10041000DFF80CD000F0C6F800480047A9440000FF
:100420000040002072B61D481D4901600A6882F331
:1004300008881C48804762B61B480047FEE7FEE775
:10044000FEE7FEE7FEE7FEE7FEE7FEE7FEE717480A
:100450000047174800471748004717480047174804
:1004600000471748004717480047174800471748F4
:1004700000471748004717480047174800471748E4
:1004800000471748004717480047174800471748D4
:1004900000471748004717480047000008ED00E0F4
:1004A000000000002D10000011040000970400005F
:1004B00097040000970400009704000097040000D0
:1004C000350F00004D0F0000BD0F0000D50F0000DC
:1004D00097040000970400009704000085100000B6
:1004E00097040000C910000097040000A511000047
:1004F000970400009704000040EA01039B0703D023
:1005000009E008C9121F08C0042AFAD203E011F852
:10051000013B00F8013B521EF9D27047D2B201E014
:1005200000F8012B491EFBD270470022F6E710B5F8
:1005300013460A4604461946FFF7F0FF204610BD51
:100540002DE9F05F0546002092469B468846064608
:10055000814640241BE0284641464746224600F09B
:1005600042F853465A46C01A914110D311461846D4
:10057000224600F029F82D1A67EB01084F46224663
:100580000120002100F020F817EB00094E41201E49
:10059000A4F10104DFDC484631462A464346BDE863
:1005A000F09F0000064C074D06E0E06840F00103B4
:1005B00094E8070098471034AC42F6D3FFF72CFFBD
:1005C000544D0000944D0000202A04DB203A00FA2C
:1005D00002F1002070479140C2F1200320FA03F39A
:1005E000194390407047202A04DB203A21FA02F098
:1005F0000021704721FA02F3D040C2F1200291405D
:1006000008431946704770B58C1810F8015B15F057
:10061000070301D110F8013B2A1106D110F8012B74
:1006200003E010F8016B01F8016B5B1EF9D12B0799
:1006300005D40023521E0DD401F8013BFAE710F84F
:10064000013BCB1A921C03E013F8015B01F8015B3C
:10065000521EF9D5A142D8D3002070BD38B500BFD5
:1006600010481149486400BF104800F0B5F90F491F
:1006700008680F49086000BF0E480F4C009063796E
:10068000A2792179E07900F00FF90C4800F058FACE
:100690000B480C4908600C494FF4E02000F02CF99D
:1006A00038BD00000000071100800440A44A00008B
:1006B0001C000020CF080000944A00009C4A000063
:1006C0000087930310000020006CDC0270470000DC
:1006D00010B56E4800F004F96C48401C00F000F9B9
:1006E0006A48801C00F0FCF86848C01C00F0F8F86C
:1006F0006648001D00F0F4F807220021644800F06D
:1007000055FC01221146624800F050FC60484068E8
:10071000604908405E49486003220C215C4800F0B3
:1007200045FC03220D215A4800F040FC0022122112
:10073000574800F03BFC00221321554800F036FCDE
:1007400001220221524800F031FC51488068514991
:1007500008404F498860072203214D4800F026FCDD
:10076000012204214A4800F021FC49480069494916
:1007700008404749086101220521454800F016FC60
:100780004348406943490840801C4149486102226E
:100790000021414800F00AFC022201213E4800F0FD
:1007A00005FC042210213C4800F000FC012212212B
:1007B000394800F0FBFB01221321374800F0F6FB1B
:1007C00001220221344800F0F1FB012203213248CA
:1007D00000F0ECFB00221146304800F0E7FB00225D
:1007E00001212E4800F0E2FB01220A212B4800F0F3
:1007F000DDFB01220221294800F0D8FB0122032160
:10080000264800F0D3FB01220421244800F0CEFB4F
:1008100001220821214800F0C9FB012209211F48BB
:1008200000F0C4FB012200211D4800F0BFFB0122A3
:1008300011461B4800F0BAFB03220221184800F0C1
:10084000B5FB01220321164800F0B0FB0122042170
:10085000134800F0ABFB07220521114800F0A6FB6E
:10086000072206210E4800F0A1FB072211460C4882
:1008700000F09CFB0B48C06820F003700949C86079
:100880000846006920F03000086110BD09003810EA
:1008900000900440FDFFFFFE00A0044000B00440B3
:1008A00000C00440008004402DE9F04107460C469A
:1008B00015461E46DDF81880384600F0C7F8434656
:1008C00032462946204600F0DFF8BDE8F08147F2C5
:1008D000305000E000BF011EA0F10100FAD17047C6
:1008E000044A02EB10410A68012383401A430A605C
:1008F000704700000070044070B50246012427488C
:10090000274D05EB10431D6801268640B5431D6049
:1009100000BF32B92348406820F48020214B586042
:1009200023E02148084490B1204B184458B11844A2
:1009300028B1184478B909201A4B98640DE00220B8
:10094000184B986409E00520164B986405E00020D8
:10095000144B986401E0002400BF00BF11484068B8
:1009600020F4E02010430F4B58600C480C4D05EB71
:1009700010431D680126864035431D6000BFB2F557
:10098000E02F09D103200A4B18700A4890F8400163
:1009900040F080001B1F1870204670BD12003410FC
:1009A0000070044000800440009423FD00CA91FEC2
:1009B0004421074000200740014649F69702914232
:1009C00001D8002005E0034A914201D8012000E04F
:1009D0000220704700127A0070B504462068FFF7C5
:1009E000EBFF054617482279017821F00F011143EA
:1009F000017000BF00BF017821F0A001A27911436E
:100A00000170E279C02303EA8212827000BF0E48AF
:100A1000407820F03C00302101EA0511084361795B
:100A2000084309494870607958B10648007800F0D9
:100A3000800030B100BF0448807900F00200002837
:100A4000F9D070BD005006400040064010B5014688
:100A50000C48007B00F00300884201D0012200E036
:100A600000220848007B61F30100064C20733AB174
:100A700040F2DC5300E000BF181EA3F10103FAD1DD
:100A8000002010BD004006402DE9F04706460F4605
:100A900090461D464FF000092848C4788079C0F37D
:100AA000001038B14FF001092448C07880F02000D0
:100AB0002249C8702148007820F0FC01382000EA63
:100AC000C60001431D480170007B00F0030058B9C7
:100AD0001A48407800F0040030B100BF1748807910
:100AE00000F002000028F9D000BF14488079C0F35C
:100AF00000100028F9D1B9F1000F01D00F48C470DF
:100B0000802000EAC710602101EA4811084324F060
:100B1000E00140EA01040948C47000BF0748C078FA
:100B2000A042FBD100BF05488079C0F381000028B6
:100B3000F9D105B1A8470020BDE8F0870040064084
:100B4000094A416851640178526861F31142064BC9
:100B50005A6000BF4178054A126861F39342034B23
:100B60001A6000BF7047000000800440007004401D
:100B700070B504460D46204600F01AF828B1294603
:100B80002046094A1268904704E029462046074A51
:100B90001268904700BF00BF00BFBFF34F8F00BF78
:100BA00000BF00BF70BD000030E0FF1F34E0FF1F3A
:100BB00001460868C00F70472DE9F04F89B08346A1
:100BC0000C469046994601AA2146584603F02AFA57
:100BD000424621465846059B03F0D8F907461FB107
:100BE000384609B0BDE8F08F484603F0E9F90746FA
:100BF0000FB13846F5E7019C029D04EB0800461E44
:100C0000B6FBF5F005FB106030B1B6FBF5F000F176
:100C1000010A0AFB05F0461E0021584603F097F929
:100C20000CE024F07F4040F01060084948605846CE
:100C300003F0D0F9074607B102E02C44B442F0D9E2
:100C400000BF584603F07CF93846CAE7000002406E
:100C500010B504460CB9042010BD194AD26CC2F379
:100C600003610F2902D14FF4003003E0154A32F836
:100C70001120900200222260606001222272D202C2
:100C8000E260114801788015884060610E4828387C
:100C900090F82B00A061204603F06AF958B10020BB
:100CA0000A4908600A4848600A4888600846E061C6
:100CB000204600F011F800202062606200BFCBE700
:100CC00000800440144B00002800024044E4FF1F51
:100CD000C4E3FF1F04E4FF1F70B504460CB1E069D4
:100CE00008B9042070BDE569686803F05BF8A8687E
:100CF00003F048F8022028600020F3E72DE9F041D6
:100D000088B080460D4614461E461CB9042008B023
:100D1000BDE8F0816A462946404603F083F9324631
:100D200029464046039B03F031F907460FB1384688
:100D3000EDE7009D0021404603F009F920E001CCD9
:100D4000134988600398042805D125F07F4040F0BE
:100D5000C06048600AE00398082807D101CC0C491C
:100D6000C86025F07F4040F0E0604860404603F0F6
:100D700031F9074607B105E0039805440398361A90
:100D8000002EDCD100BF404603F0DAF83846BEE75B
:100D9000000002402DE9FF4F89B00C46924601AA9F
:100DA0002146099803F03EF952462146069B0998D0
:100DB00003F0ECF88146B9F1000F03D048460DB0BE
:100DC000BDE8F08F01AA2146099803F02BF9019C98
:100DD000039F6042794208404542A54200D13D440C
:100DE000564625E0A5EB0408B04500D9B046069864
:100DF000B8FBF0FB24F07F4040F080700E49486063
:100E00004FEA0B410C98C0B241EA002040F0FF00CD
:100E100009498860099803F0DDF88146B9F1000FAF
:100E200001D04846CBE7A6EB080644443D4400BF4A
:100E3000002ED7D10020C2E7000002402DE9F04F7C
:100E400089B082460C4617461D46DDE912B8DDF82A
:100E500050901DB9042009B0BDE8F08F01AA2146C9
:100E6000504603F0DFF83A4621465046089B03F00F
:100E70008DF806460EB13046EDE7019C25E024F0E2
:100E80007F4040F00070134948606FF07F4040EAB7
:100E90000B6088602868C860504603F09BF80646DF
:100EA0005EB1B8F1000F01D0C8F80040B9F1000FF1
:100EB00002D00020C9F8000009E008983F1A0898FD
:100EC000800805EB800508980444002FD7D100BFA7
:100ED0003046C0E7000002401AB901238B4083600E
:100EE00002E001238B40436070478160704741609E
:100EF0007047C1607047000005A002F061FB00BFB1
:100F0000EFF30980044603F05DFC00BFFEE700003C
:100F10000D0A20486172644661756C745F48616EA9
:100F2000646C657220696E74657272757074210DDF
:100F30000A00000010B503480168034800F012F8E9
:100F400010BD000018E0FF1F0060064010B5034808
:100F50004168034800F006F810BD000018E0FF1FCC
:100F60000070064070B504460D46E07800F01000B1
:100F700018B9A07800F0200028B129462046094A77
:100F80001268904704E029462046074A12689047B5
:100F900000BF00BF00BFBFF34F8F00BF00BF00BF47
:100FA00070BD000020E0FF1F24E0FF1F50F821303B
:100FB00062F30A2340F821307047000010B503485F
:100FC00001680348FFF7D4FD10BD000028E0FF1FB3
:100FD00000C0024010B5034841680348FFF7C8FD50
:100FE00010BD000028E0FF1F00D0024010B50C48E3
:100FF000006840B10A480068401E0949086010B9FD
:1010000001200849087008480078401CC0B2064911
:1010100008700A2803DB0020087003F079FA10BD7D
:1010200000E0FF1F04E0FF1F05E0FF1F0848006805
:1010300040F47000064908604CF220500549C88110
:101040004DF62810C8814FF4E97008807047000001
:1010500088ED00E00020054010B50748016807480A
:10106000074A1268904700BF00BF00BFBFF34F8F11
:1010700000BF00BF00BF10BDF40A002000A0064062
:101080002400002010B5FFF7E7FF00BF00BF00BF3E
:10109000BFF34F8F00BF00BF00BF10BD10B50748A2
:1010A00041680748074A1268904700BF00BF00BF69
:1010B000BFF34F8F00BF00BF00BF10BDF40A002078
:1010C00000B006402400002010B5FFF7E7FF00BF86
:1010D00000BF00BFBFF34F8F00BF00BF00BF10BDF8
:1010E000F8B522480479C07800F0200008B924F04F
:1010F00020041E48C07800F0800008B924F0800465
:1011000004F0800070B11A4802F092FD1749C871CE
:10111000174802F071FD28B91448C07820F080000B
:101120001249C87004F02000F0B104F0040010B9B6
:1011300004F0020018B10D48C079009014E00B488B
:10114000C6790C4802F042FD0546132D04D93146FC
:10115000084802F089FD06E0064802F069FD3146C4
:10116000044802F081FD00BFF8BD000000B0064059
:1011700030E1FF1F40E2FF1F10B5074881680748B4
:10118000074A1268904700BF00BF00BFBFF34F8FF0
:1011900000BF00BF00BF10BDF40A002000C0064021
:1011A0002400002010B5FFF7E7FF00BF00BF00BF1D
:1011B000BFF34F8F00BF00BF00BF10BD2DE9F04748
:1011C0004FF00009474800780446074604F008003D
:1011D000002870D06BE04349103108780509C0F34E
:1011E000C006C0F3800865BB5EBB730005F00F024C
:1011F00003EB8202012303FB08213B4A12F8312052
:10120000C2F38302012A1BD1374A02EBC102528882
:10121000B2B9364A525D344B03EBC1035A80324AAD
:1012200012F8312002F0400222B188222E4B03F83E
:10123000312003E0C8222C4B03F8312040F001009C
:1012400000BF014600BFEFF3108C0CF0010372B633
:1012500000BF1A46DFF898C0DFF898A0DAF800A0BF
:101260000CF80A10234B1B685B1C4FF0190CB3FBE6
:10127000FCFA0CFB1A33DFF87CC0CCF800301346C4
:1012800003B962B600BF00BF0821164A1170B9F158
:10129000000F05D113491431097801F0200109B17B
:1012A000012100E0002189460E490C7800BF04F0BE
:1012B000080000288FD1274339460F4803F053FA1E
:1012C000B9F1000F01D0012000E000200B4909789E
:1012D00008430A49087003490C7001F035FABDE86B
:1012E000F087000080200740000C0020280000202C
:1012F000C012002034000020380000203C000020F4
:1013000001460020704701460020704710B5044692
:101310000648006800B110BD01200449086000F0D3
:1013200007F800200149086000BFF4E744000020EE
:1013300070B53848006800B970BD37480068374953
:101340000968441A34B93648006818B90020314990
:101350000860F1E714B333480068334909688842EC
:101360000FD33048006820443049314A1288114474
:10137000884206D32D482E4909880844294909681E
:10138000441A2C482C49097830F81100A04209DA97
:1013900028482949097830F8114003E020480068BE
:1013A00000B1002400201E4908602449097841F05A
:1013B000800022461B49096802F0C8F80546194812
:1013C00000682844174908601448006828441349F5
:1013D0000860164816490988084412490968884275
:1013E00002D112480F4908600B4800680B49096890
:1013F00088420AD10F481049097830F81100A842F4
:1014000003D101200649086002E000200449086079
:1014100000BF91E748000020500000205400002049
:101420004C0000205C0000205800002012E5FF1F47
:10143000544B00005C4B000019E1FF1F514B0000B2
:1014400010B504461148006828B111480068401CD6
:101450000F49086010BD01200C4908600D49086063
:1014600000F01EF800200B490860084908600A488F
:1014700000680A490968884206D007490968074A8E
:101480001268881AFFF73FFF00BFE3E76000002003
:10149000680000206400002070000020740000201C
:1014A00070B51D4800681D49401A1D490988081A71
:1014B0001C491D4A127831F8121088421FDB164869
:1014C00000681649401A164909880D1A2A4612481A
:1014D00001681648007801F0C5FA04460E48006815
:1014E00020440D4908601248006898B1114800680E
:1014F00080B90F480068401E0D4908600AE00120CD
:101500000D4908600B48006820B109480068401C7C
:101510000749086070BD00007000002052E5FF1F01
:10152000564B00005C4B000019E1FF1F524B0000BE
:1015300068000020640000206C00002010B5044604
:1015400004F0040010B12046FFF77AFF04F0080011
:1015500010B12046FFF7DAFE10BD704701460020AB
:10156000704700207047000010B5104800F072F876
:10157000D0B10E4800780E4908700C480088000A67
:1015800048700A480068000C887008480068000E1F
:10159000C8700648007908710448407948710348CA
:1015A00080798871012010BD0020FCE77A000020BE
:1015B00050E4FF1F10B50020154908601549086068
:1015C000154908601549086015490860154816490D
:1015D0000860164908600020154908601549086030
:1015E00015490860154908601548164908601649EC
:1015F00008600020154908804FF41650144908600F
:101600000020087148710820887100F026F810BD8C
:1016100044000020480000204C0000205000002022
:101620005400002012E5FF1F580000205C0000203D
:101630006000002064000020680000206C00002092
:1016400052E5FF1F70000020740000207800002089
:101650007A000020014600207047002070470020DB
:101660007047014600207047014600207047000087
:1016700010B500201749086017490860174908602D
:101680001749086017490860174818490860184941
:10169000086000201749086017490860174908606A
:1016A0001749086017481849086018490860002061
:1016B00017490880FFF7D3FF4FF41650154908600B
:1016C000002008714871082088710846FFF7CCFF98
:1016D00010BD000044000020480000204C00002005
:1016E000500000205400002012E5FF1F5800002089
:1016F0005C000020600000206400002068000020E2
:101700006C00002052E5FF1F7000002074000020D4
:10171000780000207A00002010B5FFF7A9FF10BD67
:1017200010B52A48007800B910BD29480068B8B93A
:101730002848006828490968884211D1254800686E
:10174000264988420CD001202149086023482149BC
:101750000860214908600020214908601C49086090
:1017600020480068D0B11A480068B8B91C48006821
:10177000A0B9012016490860FFF792FE0020144925
:1017800008601448006814490968884206D0114965
:101790000968114A1268881AFFF7B5FD12480068F7
:1017A00090B91248006878B9114800681149096871
:1017B000401A09D001200C4908600C490860FFF765
:1017C000B7FD00200849086000BFADE70BE1FF1F2F
:1017D00060000020700000207400002052E5FF1F10
:1017E0006C00002068000020440000204800002019
:1017F00050000020540000200146002070470020C7
:10180000704701460020704710B504460248048026
:101810002046FFF726FF10BD7800002010B50E48C7
:1018200000780D49497840EA01200B49897840EA5F
:1018300001400949C97840EA016008490860064842
:1018400000790871044840794871034880798871AB
:101850000846FFF709FF10BD50E4FF1F7A00002083
:1018600010B508480178084800F056F807490860A4
:101870000846006820B100200549086000F00AF819
:1018800010BD0000840000209CE5FF1F88000020A0
:101890008C00002070B500251948006850B3184826
:1018A000006818490988884202D21548006801E09A
:1018B000144800880546002408E0134800682044C6
:1018C00012490968085C12490855641CAC42F4D3FB
:1018D0001049097841F080002A460D4901F036FE92
:1018E0000948006828440849086005480068401B0A
:1018F000034908600248006808B900F08BF870BD21
:1019000088000020644B00008C0000209400002020
:101910009CE5FF1F614B000070B505460C46224850
:10192000007810B1012828D120E0082C00DA2AE044
:10193000284602F0C1FB1D49086008460068B0F562
:10194000A06F01D3012000E000201849096809B9FF
:10195000012100E00021084308B100F05BF82146B6
:10196000284602F09BF9104908700CE021462846F1
:1019700002F094F90C49087005E000200A4908704B
:1019800000F048F800BF00BF07480078022808D1DF
:101990000749084802F0B2FA07490860084600689B
:1019A00070BD0020FCE700000000002008000020BF
:1019B000C0050020C00000200C00002010B5044627
:1019C000FFF768FF10BD000010B504460548028807
:1019D00005490648007801F045F805490870FFF709
:1019E0003FFF10BD644B00009CE5FF1F624B0000F1
:1019F0008400002010B5044604F0040010B1204615
:101A0000FFF7E2FF04F0080010B12046FFF7D6FF11
:101A100010BD000000200449086004490860044922
:101A20000860044908707047080000200C0000207E
:101A3000040000200000002000200749086007493A
:101A400008600748074908600748084908600020FF
:101A500007490870704700000800002004000020BB
:101A6000C000002090000020C0050020940000204D
:101A70000000002010B50446074804F00F0110F8DC
:101A8000210020F00201044804F00F0200F82210A7
:101A9000204601F09BFC10BDC020074070B50446F5
:101AA000A578A688A07800F0800008B902494E55B4
:101AB000284601F08BFC70BD28000020704700F024
:101AC00075BB000060B10E49097841F001010C4A74
:101AD000943A82F894101021094A743211700EE081
:101AE0000749097821F00101054A943A82F89410D7
:101AF000114691F8081121F0100182F80811704781
:101B00009420074010B51048808810490978884211
:101B100002DD0E48047801E00B48848814B90020E7
:101B20000B490870084822460168802001F00EFD2C
:101B30000446054800682044034908600846808838
:101B4000001B888010BD00001CE1FF1F394B000006
:101B50001AE1FF1F10B5084882880168002000F0D4
:101B600081FF044604480068204403490860084691
:101B70008088001B888010BD1CE1FF1F704700009B
:101B800000F0800151B100F00F00094911F8201058
:101B900021F00502064901F8202007E0044911F868
:101BA000201021F00902024901F8202070470000AE
:101BB000C020074000F0800151B100F00F0009493A
:101BC00011F8201041F00502064901F8202007E035
:101BD000044911F8201041F00902024901F82020BF
:101BE00070470000C020074010B5044604F0020012
:101BF000002872D001F07EFCBD490978C809FFF7C2
:101C0000BDFFBB48C088BB498880B9480078C0F395
:101C1000411020B101286ED002286DD1C5E0B44832
:101C200040780C2869D2DFE800F0060DA21BA2293B
:101C3000464D4E62729501F0D7F800B9DBE0FFF730
:101C400061FF95E0002001F02FF900B9D3E001F029
:101C50005BFCA948006810B1A7480068804787E08E
:101C6000012001F021F900B9C5E001F04DFCA248C6
:101C7000006810B1A0480068804779E000BF9C4828
:101C8000007800F01F0030B99948807840F080005B
:101C90009A49087001E0002001E000BF012000B96E
:101CA000A9E09649097801F07F00012101F00CFCC0
:101CB00001F02AFC5CE000F05FFF00B99BE0FFF759
:101CC00021FF55E097E000BF8948007800F01F0031
:101CD00020B98B488749086002E09FE0002001E0BE
:101CE00000BF012000B986E0FFF70CFF40E001F0E3
:101CF00053F918B97FE03DE07CE038E001F004FCE6
:101D00008048006810B17F480068804730E000BF1D
:101D10007748007800F01F00012812D17848007839
:101D200060B17348007978490978884206DA7048CA
:101D30000079764908446F49086001E0002004E01A
:101D400001E0002001E000BF012000B953E0FFF7EF
:101D5000D9FE0DE001F012FA00B94CE001F0D4FB1D
:101D60006B48006810B16A480068804700E042E0B4
:101D700000BF52E05E48007800F01F0020B101284B
:101D800003D002280FD10DE035E000F09BF900B13F
:101D90000AE000F009FA00B106E000F013F900B122
:101DA00002E028E027E026E037E05148007800F024
:101DB0001F0010B101281AD10CE04D480079042809
:101DC00003D154484B49086000E000BF00BFFFF753
:101DD00099FE0DE046480079052803D14E48454953
:101DE000086000E000BF00BFFFF78CFE00E002E0EB
:101DF00000BF12E000BF3E480078C00930B93C483F
:101E0000C08818B1002001F067FB02E0802001F0DB
:101E100063FB00203749888000BF00BF04F0040046
:101E200098B333480078C00980BB3248808860B3DB
:101E3000FFF790FE2F48808838BB2D480078C0F30C
:101E4000411010B1012818D100E017E028480078AF
:101E500000F01F0020B1012803D002280BD109E0B7
:101E60000CE000F095F800B106E000F059F800B180
:101E700002E003E002E001E007E000BF802001F0A3
:101E80002BFB00201B49888000BF02E0FFE701F028
:101E900043FB04F00800F0B1154800780121B1EBD4
:101EA000D01F08D11348808810B91C48007890B121
:101EB000FFF728FE0FE01148007800F0800050B1D5
:101EC0000E48007800F07F000C49087000210B4894
:101ED000007801F0F9FA04F0400010B10020FFF79B
:101EE000C9FD04F0800010B18020FFF7C3FD10BDD4
:101EF00024E1FF1F1CE1FF1FCC4B00000AE1FF1F84
:101F00000BE1FF1FC44B000018E1FF1F44E0FF1F5F
:101F1000C84B000050E0FF1F78E0FF1F1AE1FF1FD1
:101F200010B51848007918490978884205D0154835
:101F3000007916490978884222D11248407820B1A8
:101F400002280AD020281AD111E0FFF758FC18B156
:101F500001F0DAFA012010BD11E00A494888FFF7C4
:101F600050FC18B101F0D0FA0120F4E707E0FFF7C8
:101F700055FC18B101F0C8FA0120ECE700BF00BF22
:101F80000020E8E724E1FF1F4E4B00004F4B00000C
:101F900010B50A4800790A49097888420CD10748E7
:101FA0004078092807D100F0ABFB18B101F0ACFA7A
:101FB000012010BD00BF00BF0020FAE724E1FF1F91
:101FC0003A4B000010B53A4800793A4909788842FE
:101FD00005D03748007938490978884266D13448B5
:101FE0004078042833D007DC78B1012812D00228C9
:101FF0001BD0032859D11DE0202832D0212835D00C
:1020000022283ED0232850D145E02C482C49086096
:10201000012010BDFFF7A5FA30B128482849086013
:10202000FFF770FD0120F4E73FE0244824490860F1
:102030000120EEE71E494888FFF790FA30B11F48AB
:102040001F490860FFF75EFD0120E2E72DE0184917
:102050004888FFF755F918B101F056FA0120D8E782
:1020600023E01648164908600120D2E7FFF77CFA02
:1020700030B1124812490860FFF744FD0120C8E75B
:1020800013E00B494888FFF7BFFB18B101F03CFA99
:102090000120BEE709E006494888FFF7ADFB18B10B
:1020A00001F032FA0120B4E700BF00BF0020B0E722
:1020B00024E1FF1F4E4B00004F4B000050E4FF1F78
:1020C0001CE1FF1F10B53148007931490978884279
:1020D0005AD12E4840780C2855D2DFE800F054063B
:1020E0002E4154545454541D394C00F003FA90B10D
:1020F0002648C078012803D126482749086006E011
:102100002248C078032802D1244823490860FFF7F9
:10211000F9FC012010BD36E01C48C078022803D12C
:102120001F481D49086006E01848C078032802D1FE
:102130001A48194908600120ECE700F0C3F930B1F2
:10214000184815490860FFF7DDFC0120E2E71AE0B6
:1021500000F0AEFA18B101F0D7F90120DAE712E089
:1021600000F0BEF930B10F480B490860FFF7CAFC18
:102170000120CFE707E000F0B9FA18B101F0C4F987
:102180000120C7E700BF00BF0020C3E724E1FF1F15
:102190003A4B000091E4FF1F1CE1FF1F4EE0FF1FC0
:1021A000D2E4FF1F50E4FF1F0020704700200C49BD
:1021B00008700C4908600C4908600C4908600C491B
:1021C00008800C4908800C4908600C4908600C49DB
:1021D00008800C4908800C4908600C490880704749
:1021E000980000209C000020A0000020A4000020F7
:1021F000A8000020AA000020AC000020B0000020B1
:10220000B4000020B6000020B8000020BC00002070
:1022100070B506466648008866490988884224DB0E
:102220006548006808BB0020644908606049088070
:10223000634801780123421C184602F0F1FB5D4916
:1022400008800846008880B15D485C4908605D48A8
:102250000078012804DC08460068401C086004E09F
:1022600054480088401C5349088052480088002880
:102270005ED15548006818B100205349086057E006
:1022800052480068002853D04E48007801281CDCD2
:102290004E48006800284BD0002049490870444946
:1022A00008800223464A521C0021012002F0B8FB9C
:1022B000404908800846008818B14148401C3F4901
:1022C000086000204149086032E03D48047800BFC2
:1022D000202C00DB00240120A0403C490968084074
:1022E00010B3601C36490870002031490880601C1A
:1022F000C1B20223324A521C012002F091FB2D4947
:1023000008800846008838B12D482C4908602948C3
:102310000088401C274908800120A0402B490968FB
:1023200081432A48016002E0601CC4B2D0E700BFCC
:102330002048008810B920480068A0B31D480088D4
:102340001B490988401A85B221482249097830F88A
:102350001100A84204DA1E481E49097830F81150CD
:102360001D49097841F080002A461449096801F0A6
:10237000EDF8124800682844104908600C480088AD
:1023800028440B4908800846008814490988884277
:102390000ADA0F480F49097830F81100A84203D132
:1023A00001200549086002E000200349086070BD73
:1023B000AA000020A8000020AC000020A4000020FB
:1023C00090E4FF1F464B00009C000020A00000206E
:1023D000424B000019E1FF1F3B4B0000484B00003F
:1023E00038B505462648008848B926482649086079
:1023F0002648008826490880002021490880244872
:1024000000881F490988421A1F480168214800783E
:1024100000F028FB84B21C48006820441A49086078
:102420001748008820441649088064B1084600888F
:1024300016490988884206DA17481849097830F899
:102440001100A0421BDD16480078012809DC01209C
:1024500000900B4803880B4A0021022002F0E6FAA4
:102460000AE00120009006480088431E05480178D4
:10247000421C022002F0DAFA00200149088038BD2F
:10248000B6000020D1E4FF1FB00000204A4B00003E
:10249000B40000203C4B0000424B000019E1FF1F3C
:1024A000474B000010B5044604F0080010B1204668
:1024B000FFF7AEFE04F0040010B12046FFF790FFD6
:1024C00010BD0000034880780349085C0349087088
:1024D0000120704724E1FF1F4CE0FF1F50E4FF1F65
:1024E00010B502F09BFA02490870012010BD0000EF
:1024F00050E4FF1F10B500240C48C078012804D018
:10250000022804D0032806D103E0094C03E0002090
:1025100010BD084C00BF00BF044A9178D07800235A
:10252000224602F07DFA0120F2E7000024E1FF1FBD
:1025300091E4FF1F4EE0FF1F2DE9F0415148007864
:1025400000287DD00026504801780078401C4E4A73
:1025500010704E48007800EB400204209040401E6E
:10256000814203DB002048490870012600254848C5
:102570000088FF2804DA46480088401C4449088047
:1025800044484249097830F8110041490988884295
:1025900000D10125002462E04FF000089EB13E48C2
:1025A000005DFF2804DA3C48005D401C3A490855AC
:1025B0003A48005D38B13848005D3849095D8842C5
:1025C00001DB4FF001083548005D3049097801EB27
:1025D00041020221914088402E492C4A127831F85C
:1025E0001210884204DA2D48005D08B1012000E095
:1025F000002007463DB137B10120A04028490968B5
:102600000843274908602548005D2649095D88423E
:1026100013D02148005D2349095D884209DB012070
:10262000A0401F49096808431D4908600020164959
:1026300008701C48005D19490855B8F1000F00E00A
:102640001EE00AD037B90120A040154909680843A7
:1026500013490860002010490855601CC4B2124894
:102660000078844298DB15B10020094908800C48A5
:10267000006828B10D48008810B90020FFF7C8FD98
:10268000BDE8F0810BE1FF1FBE00002019E1FF1F34
:1026900048E0FF1F3E4B00004AE0FF1F4BE0FF1FDA
:1026A000A00000204CE0FF1F464B0000A8000020C7
:1026B0000B48807830B10A48C2788078401E094BB8
:1026C0001A540BE0002105E00548C078054A505433
:1026D000481CC1B2044800788142F5DB01207047F4
:1026E00024E1FF1F4CE0FF1F464B000010B50349DB
:1026F000887802F09AF9012010BD000024E1FF1F44
:1027000038B500240D48C078012804D0022804D030
:10271000032806D103E0002038BD094C01E0094C34
:1027200000BF00BF0020054A0090D3889178D07880
:10273000224602F07BF90120EEE7000024E1FF1FB2
:10274000D2E4FF1F4EE0FF1F2DE9F0474FF0000AD3
:1027500000BFEFF3108101F0010072B600BF8146A7
:102760007F48056800207E4908607E4890F800A0F8
:1027700000207C490870484600B962B600BF05F0E9
:10278000010048B100F0A6FD02F062F97648006849
:1027900010B175480068804705F0100038B100F0AE
:1027A000C7FE7248006810B170480068804705F0A5
:1027B000200038B100F074FE6D48006810B16C481C
:1027C0000068804705F0040028B16A48006810B12D
:1027D000684800688047022D0AD16748006820B128
:1027E00066490878644909688847FF20634908708A
:1027F00005F0080000287DD089E000BF00BFEFF39E
:10280000108303F0010272B600BF11465C4A5D4BB3
:102810001B68D05C5B4A1268521C1923B2FBF3FCA4
:1028200003FB1C22574B1A600A4602B962B600BF6E
:1028300000BF0646C6F30314C6F3C007C6F38008FC
:1028400064BB790004F00F0001EB8000012101FB63
:1028500008004D4911F83000C0F383000D281DD148
:102860004A48006820F00200484908604648007E57
:1028700020F08000444908760846007C20F0800063
:102880000874002042490870424850F8240090B370
:10289000404850F824100220884737E0790004F0BF
:1028A0000F0001EB8000012101FB0800364911F8FF
:1028B0003000C0F3830001280DD11CB906F00100DF
:1028C00033490870334850F8240020B1314850F89B
:1028D000241004208847790004F00F0001EB8000E9
:1028E000012101FB0800284911F83000C0F38300E2
:1028F000092801E026E009E008D1264850F8240024
:1029000020B1244850F824100820884700BF00BF99
:1029100000BFEFF3108303F0010172B600BF084659
:10292000184909681C4B1B68994201D1012100E03C
:1029300000210A46014601B962B600BF00BF002A65
:102940003FF45BAFBAF1000F08D00C480C300078B0
:1029500020F020000949883981F89400BDE8F0870B
:10296000380000203C0000206C4B0000704B000041
:10297000744B00007C4B0000804B00008820074017
:10298000C012002030000020000C00204000002079
:102990003D000020844B00003400002010B5402092
:1029A000264908702648406840F4E02024494860E1
:1029B0000846406B40F48020486300F04DF8214801
:1029C000007840F08000204981F80C0100BF1D48CC
:1029D000007800F080000028F9D11C48000A19494D
:1029E000703908701948000C174981F8B000174871
:1029F000000E144958390870FF20134981F88000EF
:102A00001348006808B1042000E0002040F01900DD
:102A10001049096809B1022100E0002108430A4970
:102A2000843108704020084981F80001084690F878
:102A30000C0140F0400081F80C0110BD280000207E
:102A4000008004400C21074000200740000C0020BB
:102A50007C4B0000804B000010B5352000F0C0FD1D
:102A600010BD70472DE9F05F05460F4693464FF0C5
:102A7000000905F00F00002101EB8004384800EB4D
:102A8000C400B0F8028065B93648007848B16208E1
:102A9000012000FA02F1344801F076FE0020BDE882
:102AA000F09F45B92E4810F83400C0F383000D287C
:102AB00001D14FF00109002605E02C4800EB8410FD
:102AC000805DB855761C4645F7D32948405D2449BA
:102AD00001EBC4014880610823480068C84000F049
:102AE00001001F4911F83410C1F38011884217D139
:102AF000B879F97940EA012AB9F1000F08D0BAF1A2
:102B0000000F05D16FF00101174801F01BFE06E030
:102B10006208012000FA02F1134801F035FE00BFFF
:102B2000610811480068C84000F0010058B1482011
:102B30000B4901F83400084610F8340040F08000DA
:102B400001F834000AE00820054901F8340008467D
:102B500010F8340040F0800001F8340040469EE751
:102B6000000C00203D00002040000020C00C002090
:102B700028000020704700001CB56148007800F074
:102B80001F0010B1012874D19BE05D48C07808286F
:102B900070D2DFE800F092041C7092920A47594804
:102BA000594908601220009089E05848007808B917
:102BB00000201CBD5648007818B956485249086094
:102BC00002E05548504908600A20009077E04F48DD
:102BD000007828B94E480078012801D10020E8E7A4
:102BE0004B48007810B94D48019001E04C480190E5
:102BF000002407E00198007818B101984188084442
:102C00000190641C3E488078A042F3D1019800787E
:102C100008B90020CDE73C49019808600198408838
:102C200000904CE03948007808B90020C1E73848E6
:102C3000007810B93B48019001E03B480190002426
:102C400007E00198007818B1019841880844019084
:102C5000641C2B488078A042F3D10198007808B911
:102C60000020A6E728490198086001984088009054
:102C700025E02EE021E02D480190002407E0019896
:102C8000007818B10198017808440190641C1C4830
:102C90008078A042F3D11A488078EE2801D12448E8
:102CA00001900198007808B9002082E71649019840
:102CB000086001980078009001E0002079E700BFEB
:102CC00009E0694601A800F039F808B9002070E76A
:102CD00001E000206DE700BF0B4880880099884222
:102CE0000CD90949009888800846808811490978DC
:102CF000491E084010B901200F490870012058E70B
:102D000024E1FF1FFA4B00001CE1FF1F354B0000C0
:102D100019E1FF1F0C4C00000D4C00000E4C000090
:102D2000914C0000924C0000934C0000944C000029
:102D3000424D0000394B00001AE1FF1F02462048B7
:102D4000C078212804D0222824D0232833D130E091
:102D50001B4800791B4B1B78984201D0002070471C
:102D60001948007828B919480078012801D10020B5
:102D7000F5E71648007810B91548106001E01548CD
:102D80001060154B1B8810681844144B18600920FC
:102D9000086012E00A4800790A4B1B78984201D07B
:102DA0000020DCE70E480D4B18600E4800880860D4
:102DB00003E00020D3E70020D1E700BF0120CEE7E9
:102DC00024E1FF1F3A4B0000354B000019E1FF1FC3
:102DD0000E4C0000914C0000F84B00001CE1FF1F5E
:102DE000D44B0000F64B00002748007800F01F008D
:102DF00020B1012806D0022841D116E02348244BF7
:102E000018603EE02348007860B11F480079224BEB
:102E10001B78984206DA0020204B188018461C4B7D
:102E2000186001E0002070472BE01748007900F09F
:102E30008F0101F0800028B101F00F034FF48030C2
:102E4000984001E00120884002461248007810B9FD
:102E500001F00F0080B912480068104060B11148BD
:102E60000068104008B1012000E000200B4B1880E2
:102E70001846074B186001E00020D4E701E000206D
:102E8000D1E700BF0120CEE724E1FF1F08E1FF1FCB
:102E90001CE1FF1F0BE1FF1F18E1FF1F50E4FF1FA4
:102EA0000CE1FF1F10E1FF1F70B5064634480078A3
:102EB00000F01F0020B101281DD002285BD11CE0CA
:102EC0002F484088012813D146B100F03DFB2D4822
:102ED000008840F002002B4908800BE0002000F041
:102EE00033FB2848008820F002002649088001E0D2
:102EF000002070BD41E00020FBE72148007900F090
:102F00008F0404F0800028B104F00F014FF48030EA
:102F1000884001E00120A04005461B48007838B3F6
:102F200004F00F0020B319480068284000B314488B
:102F30004088D8B946B1204600F0CEFA144800685F
:102F400028431349086015E012480068284008B17A
:102F50000120CEE72046FEF78DFD2046FFF70AFE52
:102F60000B480068A8430A49086003E00020C0E756
:102F70000020BEE701E00020BBE700BF0120B8E76A
:102F800024E1FF1F08E1FF1F0BE1FF1F0CE1FF1F02
:102F900010E1FF1F14E1FF1F2DE9F04100266A48F0
:102FA000007800F01F0000286FD167488078002863
:102FB0006CD06648007830B965480078012802D1A5
:102FC0000020BDE8F0816248007808B9614D00E05A
:102FD000614D7FE06878022804D0042853D005288A
:102FE00074D154E0687958498978884247D1564865
:102FF00080785A490870287959490870002403E0FC
:10300000002058490855641C574800888442F7D36B
:10301000012414E00120A04054490968084010B17F
:103020002046FEF7ADFD4FF48030A0404F490968BF
:10303000084018B144F08000FEF7A2FD641C102C7B
:10304000E8D34FF001104949086000204849086062
:10305000484908600120FEF731FDE87900F04000A2
:1030600030B14548008840F001004349088009E03C
:103070004148008820F001003F49088002E068884C
:10308000054427E022E0EE7820E058E027E0E6B9AA
:10309000A87800F08F0404F0800028B104F00F013C
:1030A0004FF48030884001E00120A04007462F48BF
:1030B000006838432D4908602846FEF7EFFC20469B
:1030C000FEF778FD204600F081F900BF00BF2878A8
:1030D000054400BF287800287FF47CAF26E000205C
:1030E0001E490870012414E00120A0401F4909680E
:1030F000084010B12046FEF743FD4FF48030A04059
:103100001A490968084018B144F08000FEF738FDFC
:10311000641C102CE8D34FF0011014490860002003
:103120001349086013490860FEF7C8FC0648807818
:103130000A490978884201D0002042E701E00020D6
:103140003FE700BF01203CE724E1FF1F354B0000B3
:1031500019E1FF1F0E4C0000914C00000BE1FF1F16
:1031600018E1FF1F44E0FF1F364B00000CE1FF1F7A
:1031700010E1FF1F14E1FF1F08E1FF1F2DE9F05FC1
:103180000027B846BB46B9464948007800F01F0002
:1031900001287CD14748007810B90020BDE8F09F95
:1031A0004FF0000A4448007828B9444800780128C4
:1031B00001D10020F2E74148007808B9404C00E016
:1031C000404C6CE06078022804D004280BD005281D
:1031D00061D11EE0607937490978884202D0608861
:1031E00004445CE057E0A77894F803804FF00009AE
:1031F0002F480079B8420BD12D488078404507D13F
:103200004FF0010A304810F807B0014601F8078076
:1032100041E027480079B8423CD1A07800F08F0601
:1032200006F0800028B106F00F014FF4803088408E
:1032300001E00120B04005461D488078404515D189
:103240002248006828432149086021480068A843B3
:103250001F4908602046FEF721FC3046FEF7AAFC15
:10326000304600F0B3F849EA050913E0D84511D11A
:1032700009EA050070B915480068A84313490860B9
:1032800013480068A84312490860304600E00AE08D
:10329000FEF776FC00BF00BF2078044400BF207812
:1032A00000288FD101E0002078E700BF504675E785
:1032B00024E1FF1F0BE1FF1F354B000019E1FF1F49
:1032C0000E4C0000914C000044E0FF1F0CE1FF1F7A
:1032D00010E1FF1F10B53520002817DB00F01F029A
:1032E000012191402E4A430942F8231000BF00BF3C
:1032F00000BFBFF34F8F00BF00BF00BF00BF00BFC4
:1033000000BFBFF36F8F00BF00BF00BF00BF01242D
:1033100004E00021234800F82410641C102CF8D38A
:1033200019212148FDF701F90020204908602049B2
:103330000860204908602049087020490870402032
:103340001F4948801F484860C82008700020087244
:103350001C488030486100211948C1610D20114985
:1033600008704FF05530184908600E48C03890F882
:10337000940040F002000B492C390870FF200949E5
:1033800040390870074938390870091D0870002055
:10339000044928390870352000F022F910BD0000DA
:1033A00080E100E0C0200740C01200203000002073
:1033B00034000020380000203C0000203D000020A8
:1033C000000C0020C00C00204000002010B5044676
:1033D00004F08000F8B104F00F04012000EB440277
:1033E00000FA02F1264801F0BEF9022000EB840049
:1033F000244901EB8011022000EB8400224A02EBF9
:10340000C00041600021022000EB8400401C02EB60
:10341000C000416033E0620001209040C143184881
:1034200001F090F91948015D04F00F00002202EB51
:103430008000154A02EBC000418004F00F0000211B
:1034400001EB80000F4901EB801104F00F00002216
:1034500002EB80000C4A02EBC0004160882104F0BE
:103460000F00002202EB8000074A02F83010002112
:1034700004F00F0001EB8000401C02F8301010BD7A
:1034800040000020C00C0020000C0020280000207C
:1034900010B5FEF741F9BDE81040FEF7BBBA0000D9
:1034A0000448007820F020000249843981F8840023
:1034B000704700008420074010B5FFF73DF8BDE8D5
:1034C0001040FEF72DB9000019B900F07F02014B42
:1034D0001A7070479820074000F00F00044911F857
:1034E000201041F00202024901F82020704700003C
:1034F000C020074010B5082202490020FFF7B2FAA9
:1035000010BD000024E1FF1F10B5002211468020ED
:1035100000F01CF810BD000010B503480278034904
:103520000020FFF79FFA10BD394B000050E4FF1F49
:103530000448007840F020000249843981F8840072
:103540007047000084200740704700002DE9F041DB
:1035500005468846164605F00F05022000EB850457
:10356000144901EBC4014E80002706E018F807005B
:10357000114901EB8411C8557F1CB742F6D361088D
:103580000E480068C84000F0010020B188200949B9
:1035900001F8340003E0C820064901F8340062084D
:1035A000012000FA02F1054801F0EEF83046BDE8CE
:1035B000F0810000000C0020C00C00204000002022
:1035C0000FB4054B10B503A9044A029800F024F883
:1035D00010BC5DF814FB0000A54000002CE1FF1FAB
:1035E000002809DB00F01F020121914042099200EE
:1035F00002F1E022C2F80011704702E008C8121F71
:1036000008C1002AFAD170477047002001E001C1CB
:10361000121F002AFBD170472DE9FF4F8DB00F46D6
:103620000546002606E025280BD0DDE90F1290475D
:103630006D1C761C28780028F5D111B03046BDE805
:10364000F08F0024A246A1460122EC4900E0044389
:1036500015F8013F203B02FA03F00842F7D1287821
:103660002A2810D06FF02F022878A0F13001092904
:1036700014D80AEB8A0102EB410144F0020400EB8A
:10368000010A6D1CF0E701CF5FEA000A03D544F49C
:103690000054CAF1000A44F002046D1C28782E2858
:1036A00017D115F8010F44F004042A280ED06FF04A
:1036B0002F022878A0F1300109290AD809EB8901E5
:1036C00002EB410100EB01096D1CF2E757F8049B86
:1036D0006D1C28786C280FD006DC4C2817D0682881
:1036E0000DD06A2814D104E0742810D07A280FD1A4
:1036F0000DE044F400140AE044F4801401E044F4C2
:1037000040146978814202D104F580146D1C6D1C4F
:103710002A786E2A1FD00CDC632A31D004DC002A00
:103720008BD0582A11D1A3E0642A68D0692A0CD121
:1037300065E0732A2ED004DC6F2A73D0702A04D17E
:103740009BE0752A6FD0782A6ED01046DDE90F1203
:103750009047761C50E1C4F30250022806D003289B
:1037600009D0042801CF09D0066045E101CFF11747
:10377000C0E9006140E101CF06803DE106703BE118
:1037800017F8040B8DF8000000208DF80100EB46BF
:10379000012003E057F804BB4FF0FF3061074FF002
:1037A000000102D40DE008F10101884649450FDA15
:1037B0008045F8DB1BF808100029F4D108E008F177
:1037C000010188468142FADB1BF808100029F6D176
:1037D000DDE90F23AAEB08008146214600F036F907
:1037E000304400EB080604E0DDE90F121BF8010B82
:1037F0009047B8F10108F7D221464846F7E00A2180
:10380000C4F302534FF0000B0891022B04D001CFF8
:10381000C117032B09D00AE0FF1D27F00707F7E8BF
:10382000020108E032E01FE020E000B2C117042BE3
:1038300001D140B2C117031E71F1000307DA4FF046
:10384000000CD0EB0C006CEB01012D2302E02305F2
:1038500004D52B238DF82430012303E0E30701D0A6
:103860002023F7E7984658E00A2110E010210EE0E7
:1038700010204FF0000B08900CE010214FF0000BCF
:1038800044F004044FF00809089103E008214FF0C8
:10389000000B0891C4F30253022B04D001CF002186
:1038A000032B06D006E0FF1D27F00707F7E802010B
:1038B00003E080B2042B00D1C0B24FF00008230710
:1038C0002BD5702A07D0DDF820C08CF0100C5CEAF4
:1038D0000B0C05D00EE040238DF82430012308E0C6
:1038E00050EA010306D030238DF824308DF82520CE
:1038F00002239846DDF820C08CF0080C5CEA0B0C23
:103900000BD150EA010301D1630706D530238DF8AE
:1039100024304FF00108A9F10109582A04D038A237
:103920000B9208AA0A920BE03AA2F9E75B46089AC2
:10393000FCF706FE0B9B9B5C0A9A521E0A921370C0
:1039400050EA0102F2D10A98ADEB000000F1200B21
:10395000600702D524F4803401E04FF00109D94515
:1039600002DDA9EB0B0000E0002000EB0B0141445D
:103970000890AAEB010AE00306D4DDE90F232146F3
:10398000504600F063F806444FF0000908E009A92A
:1039900011F80900DDE90F12904709F10109761CC1
:1039A000C145F4DBE0030CD5DDE90F232146504689
:1039B00000F04CF8064404E0DDE90F123020904797
:1039C000761C0899481E08900029F5DC08E00A9842
:1039D0000A990078491C0A91DDE90F129047761C7C
:1039E000BBF10001ABF1010BF1DC21465046DDE9F2
:1039F0000F2300F019F806446D1C1BE6092801008E
:103A00003031323334353637383961626364656654
:103A10000000000030313233343536373839414216
:103A200043444546000000002DE9F04104460025CE
:103A30001E461746880404D405E039462020B047C6
:103A40006D1C641EF9D52846BDE8F0812DE9F041D2
:103A5000044600251E469046C80301D5302700E0E5
:103A60002027880404D505E041463846B0476D1C40
:103A7000641EF9D52846BDE8F08100000148406881
:103A8000704700008CE3FF1F10B50449486800F040
:103A900069F808B900F004F810BD000064E3FF1FE6
:103AA00070B504484468256866683146284600F0C9
:103AB000D3FC70BD64E3FF1F01B5009800B908BDD9
:103AC0000098012801D102200090012080F3108885
:103AD00000BF0A490098086000200949087000BF2B
:103AE00080F3108800BF04E005480078012800D169
:103AF00000E0F9E700BF00BFE1E7000000E0FF1FC2
:103B000004E0FF1F30B5144800684FF47A72B0FB30
:103B1000F2F1481EB0F1807F00D31BE0481E4FF049
:103B2000E022506150170F22002804DB13071C0EFF
:103B30000A4B1C5406E013071D0E094B00F00F043E
:103B4000241F1D5500BF00204FF0E0229061072088
:103B5000106100BF30BD00001000002000E400E054
:103B600018ED00E070B504460425002626680E4ACC
:103B70000E49304600F0D8FE08B9012070BD0FE0B4
:103B8000601906680A484068094B9B68C2180848D3
:103B90004168304600F0C8FE08B90120EEE72D1D4F
:103BA0000C2DEDD90020E9E70040002000E0FF1FC8
:103BB00064E3FF1F10B502460B460020002102E01F
:103BC0005C5C2044491C9142FAD310BD70B5044698
:103BD00000BFEFF3108101F0010072B600BF05468F
:103BE000204600F009F8A168081A461E284600B9C8
:103BF00062B600BF304670BD10B5014600BFEFF39E
:103C0000108404F0010372B600BF1A46D1E90043E4
:103C1000A34203D3D1E90043181B04E0D1E90134E6
:103C200023440C68181B134603B962B600BF10BDCD
:103C300010B5014600BFEFF3108404F0010072B626
:103C400000BF02460C68C868035D0868401C086035
:103C50008C680868A04201D300200860104600B9B3
:103C600062B600BF184610BD10B500BFEFF3108458
:103C700004F0010372B600BF1A464468C3681955C0
:103C800043685B1C4360D0E90134A34201D30023A5
:103C90004360134603B962B600BF10BD30B5044699
:103CA0000A46002306E0E05C124909681944124DF7
:103CB00068545B1C9342F6D30E48006810440D49CB
:103CC00008600E480068801A0C49086009480068BE
:103CD000B0F5A06F01D3FDF79DFE0848006838B924
:103CE0000448006820B1002002490860022030BD6D
:103CF0000120FCE704000020C00000200800002094
:103D000010B500F0FDFA382208490948FCF7F4FB29
:103D1000084800680849884204D138220549044807
:103D2000FCF7EAFB04480249086010BDAC4A0000F9
:103D30008CE3FF1F00F80100646C766B70B58EB0E9
:103D400004460F4E304600F019FB054615B1012020
:103D50000EB070BDFF2238216846FCF7DFFB382229
:103D600021466846FCF7C8FB38226946304600F019
:103D700041FB05460DB10120EAE70020E8E700001D
:103D800000F8010010B504461C2204492046FCF747
:103D9000B3FB601C0249086010BD0000F84A000037
:103DA00040E0FF1F05490A6802604A68426089686E
:103DB0008160411C024A116070470000EC4A00001B
:103DC0003CE0FF1F2DE9F041044600252078617892
:103DD00040EA0120A17840EA0140E17840EA01662A
:103DE0002079617940EA0120A17940EA0140E17936
:103DF00040EA01673B4604F108023146034800F0FF
:103E0000C1FD00B100BF2846BDE8F0814C46464FD9
:103E100038B504460025684600F0B4F920780099CA
:103E2000C9B2884201D0012000E000206178009AE8
:103E3000C2F30722914201D0012100E00021084392
:103E4000A178009AC2F30742914201D0012100E01B
:103E500000210843E2780099090E8A4201D001212D
:103E600000E00021084300B10525284638BD0000C8
:103E70002DE9F041044600252078617840EA0120D0
:103E8000A17840EA0140E17840EA01662079617951
:103E900040EA0120A17940EA0140E17940EA016766
:103EA0003B4604F108023146034800F06BFD00B1C7
:103EB00005252846BDE8F0814B4E494C38B50446EF
:103EC000002500F08BFD684600F05CF9009820703A
:103ED0000098000A60700098000CA0700098000E16
:103EE000E070284638BD70B504460025204600F035
:103EF000CDFC00B10525284670BD00002DE9F0413C
:103F000004460E46002720780006617840EA01400A
:103F1000A17840EA0120E17840EA0105064885429F
:103F200007D00648854204D13146204600F0F2FA17
:103F300007463846BDE8F081BADCCDABABCDDCBA84
:103F400010B504460121204600F001F810BD70B5FF
:103F500005460C46284600F00BF8064606B170BD33
:103F6000012C03D100F07EF800F08CF800BFF6E7DA
:103F7000014609B904207047CA69C86920B11068B0
:103F8000022801D10020F6E76D20F4E730B50446A1
:103F90000CB9042030BD581E084010B9581E1040FE
:103FA00008B16520F6E72068884207D8D4E9000503
:103FB00028448D18A84201D30020EBE76620E9E7EA
:103FC00001460348814201D06B2070470020FCE786
:103FD0006B66656B70B506467020104908703046F8
:103FE000FFF7C6FF05460DB1284670BD0B480C49CA
:103FF000096888470948047804F0200008B1672060
:10400000F3E704F0100008B16820EEE704F00100C7
:1040100008B16920E9E70020E7E70000000002405E
:104020003CE0FF1F70B505460E46144605B10CB9BD
:10403000042070BD20212046FCF777FA2868301A4A
:104040002060E8686060297A6868B0FBF1F0A060E1
:104050000420E0600820206160610420A061E0612C
:104060000020E6E770B50024044C0F231422190544
:104070002046034D2D68A84770BD000004F00140A4
:1040800040E0FF1F70B50024044C01231322D90423
:104090002046034D2D68A84770BD000004F0014084
:1040A00040E0FF1F38B504468DF800006946032044
:1040B000ABBE204638BD000010B501460B781B068C
:1040C0004C7843EA04438C7843EA0423CC7843EAEF
:1040D00004021B4B9A4204D14B790C7943EA042029
:1040E0002CE0184B9A4228D14B79182B01D101238F
:1040F00000E000234C79D92C01D1012400E00024F8
:1041000023434C79322C01D1012400E000242343C5
:104110004C792A2C01D1012400E0002423434C795E
:10412000352C01D1012400E00024234313B14FF4C6
:10413000806003E04FF4007000E0002010BD00003C
:10414000BADCCDABABCDDCBA014600220C2200209C
:1041500005E00B4B1B5C01F8013B431CD8B29042BD
:10416000F7DB2022002006E0054B0C331B5C01F836
:10417000013B431CD8B29042F6DB2C207047000074
:1041800098E3FF1F10B50446034A9168506800F099
:104190001BF92060002010BD78E3FF1F10B54348D5
:1041A000406920F002004149486188154049486053
:1041B0004049C86480023D498864486510203B49F5
:1041C000C8310860012211463848C030FCF784FE2F
:1041D0003648D0F8D40040F002003449D4310860A9
:1041E000012200213148C030FCF776FE2F48D0F87C
:1041F000D40040F001002D49D43108600122022191
:104200002A484030FCF768FE2848406D40F0040022
:1042100026494865012205212448FCF75DFE234814
:10422000406940F0200021494861012203211F48D4
:104230004030FCF751FE1D48406D40F008001B491E
:1042400048650122122119484030FCF745FE174805
:10425000406D40F480201549486501221321134820
:104260004030FCF739FE1148406D40F400200F4902
:104270004865012202210D488030FCF72DFE0B48D5
:10428000D0F8940040F004000849943108600122FD
:10429000032106488030FCF71FFE0448D0F8940044
:1042A00040F0080001499431086010BD00F00F4053
:1042B0000090044000A0044010B5044644B9022117
:1042C0000E48FCF714FE01210C48FCF710FE14E028
:1042D000012C08D102210948FCF707FE01210748FB
:1042E000FCF705FE09E0022C07D102210348FCF788
:1042F000FEFD01210148FCF7F8FD10BDC0F00F40A4
:1043000070B500BFEFF3108101F0010072B600BF7D
:1043100005464CF220500D49C8814DF62810C88141
:104320000846008820F001000880284600B962B6DF
:1043300000BF34210648FCF7F8F80548FCF788FC74
:1043400004460CB1012070BD0020FCE700200540B0
:10435000C00A00202DE9F04105460F46002409E07F
:104360002E19304600F00AF810B10120BDE8F081A6
:1043700004F50064BC42F3D30020F7E770B50446AF
:1043800000BFEFF3108101F0010072B600BF0546D7
:104390000B480C4B2146C268FCF70EFC064636B9AA
:1043A000074800232146C268FCF7F4FC064628466D
:1043B00000B962B600BF0EB1012070BD0020FCE75D
:1043C000C00A00206B66656B30B503460C460021C1
:1043D000002000220BE09958CDB22844C1F30725F4
:1043E0002844C1F30745284400EB1160121DA24286
:1043F000F1D330BD2DE9FE4306460F46904606F048
:10440000030010B10120BDE8FE8300BFEFF310816F
:1044100001F0010072B600BF044643463A463146F9
:104420000C48FCF76BFC05465DB900200122CDE984
:1044300000203B464246314602900648FCF7FEFC0F
:104440000546204600B962B600BF0DB10120DAE78B
:104450000020D8E7C00A002070B504460D460D487C
:1044600004600D48056000680C4908600949086847
:1044700080F3088800BF086880F3098800BF0848F7
:10448000406820F07F0007490860044800688047C2
:1044900000BF70BD0CE0FF1F10E0FF1F14E0FF1F06
:1044A00064E3FF1F08ED00E0FCF712F9FCF7D6F813
:1044B000FCF70CF9FFF724FC00F012FA08B1FFF743
:1044C000E3FAFFF76BFE0120FFF7F6FEFFF71AFB9A
:1044D00000F0B0FA012000F09BFA00BF00F08EFA65
:1044E0000028FBD011E008210848FCF702FD20213C
:1044F00006484038FCF7FDFC00F0F2F908B1FFF780
:10450000C3FA4FF47A70FFF7D7FAECE740F00F40A8
:10451000704700002DE9F04104460E4600254FF497
:1045200000778648C46006612078BA2801D001204F
:1045300000E000206178DC2901D0012100E00021A9
:104540000843A178CD2901D0012100E000210843D2
:10455000E178AB2901D0012100E00021084308B136
:1045600010259AE02079522801D0112595E0207974
:104570007249087160794871A079E17940EA0120B7
:104580006E49C88008694FF48061FBF7CEFF6B4825
:104590004079332873D00CDC282847D004DC01286C
:1045A00010D0272876D14CE0312855D0322871D14F
:1045B00056E0D7280AD0D82819D0D9281ED0DA2812
:1045C00068D128E000205D49C88064E004205B4990
:1045D000C880012009690872584909694872002099
:1045E00056490969887255490969C87253E05448A7
:1045F00000F0A4F900205149C8804CE04F49C96837
:1046000001F10800FFF7DEFB05464FF4806700204C
:104610004A49C8803FE04949C96801F10800FFF7ED
:10462000F7FB054600204549C88034E04349096945
:1046300001F1080000F0B9F805462C203F49C88078
:1046400029E03E49C96801F10800FFF74CFC054626
:1046500000203A49C8801EE000203849C8801AE08E
:104660003649C96801F10800FFF702FC05464FF41E
:10467000806700203149C8800DE000E00AE02F4942
:10468000096901F10800FFF719FC054604202B49D0
:10469000C88000E000BF00BF00BFBA2027490969F9
:1046A0000870DC20254909694870CD202349096933
:1046B0008870AB2021490969C87052201F490969D7
:1046C00008711E4840791D4909694871F4201B4949
:1046D000087245B1102D04D10020096948711749AD
:1046E000C88016480572154880791449096988718F
:1046F0001248C088001211490969C8710F48017A2F
:104700000269C088083011540C4A1169D28802F13C
:104710000900FFF74FFA094948810846817A026982
:10472000C0880930115405484089011203480269C4
:10473000C0880A3011543846BDE8F08150E3FF1FAD
:104740004C46464F10B500BFEFF3108404F0010350
:1047500072B600BF1A4603680B400360134603B9E4
:1047600062B600BF10BD10B500BFEFF3108404F0B7
:10477000010372B600BF1A4603680B430360134679
:1047800003B962B600BF10BD10B500BFEFF31084CF
:1047900004F0010372B600BF1A4603684B40036081
:1047A000134603B962B600BF10BD70B504460025BC
:1047B0002C262046FFF7C8FCB04200D0042528462E
:1047C00070BD000010B5044610A0E169FEF7F8FEC8
:1047D00012A0A169FEF7F4FE14A06169FEF7F0FED5
:1047E00016A02169FEF7ECFE18A0E168FEF7E8FECE
:1047F0001AA0A168FEF7E4FE1CA06168FEF7E0FEC7
:104800001EA02168FEF7DCFE10BD00007073723A36
:10481000203078253038780D0A0000002070633A87
:10482000203078253038780D0A000000206C723A6C
:10483000203078253038780D0A0000007231323A85
:10484000203078253038780D0A0000007230333A75
:10485000203078253038780D0A0000007230323A66
:10486000203078253038780D0A0000007230313A57
:10487000203078253038780D0A0000007230303A48
:10488000203078253038780D0A00000070B50446D5
:1048900000250C25002005E014F8012B0E490A54D0
:1048A000411CC8B2A842F7DB2025002006E014F81E
:1048B000012B09490C310A54411CC8B2A842F6DB4D
:1048C000064805490C3948600846FFF737FA08B131
:1048D000012070BD0020FCE798E3FF1F4B4E494CC0
:1048E00010B5FFF7CBF804460C48844207D10020EE
:1048F0000B4948604FF400308860012010BD094822
:10490000844208D14FF42040054948604FF4A83054
:1049100088600120F2E70020F0E700004C46464F97
:1049200064E3FF1F4B4E494C03468B4203D3934233
:1049300001D8012070470020FCE7000010B50446B4
:10494000FFF7DEFC08B1012010BD0B48844206D100
:1049500000200A4948604FF40030886009E00848A8
:10496000844206D14FF42040044948604FF4A830F7
:1049700088600020E8E700004C46464F78E3FF1FC0
:104980004B4E494C2DE9F04180460D4616461F46D8
:104990001048007878B94046FFF7D0FF0E4A91687A
:1049A0005068FFF7D7FCC4B214B10120BDE8F08114
:1049B0000120084908700748007840B13A4631465E
:1049C0002846FFF717FDC4B20CB10120EEE7002026
:1049D000ECE7000008E0FF1F78E3FF1F002001491B
:1049E0000870704708E0FF1F10B500F01DF8FCF7D5
:1049F000E1FDBDE81040FDF71FB800000348007856
:104A000008B1012070470020FCE700000BE1FF1F08
:104A100010B504462046FDF755F810BD002070473C
:104A200010B50446002010BD7047704710B5029CB9
:104A300010BD000010B5002004490870FFF7D4FF36
:104A4000FEF70FF8FDF7AAFF10BD000019E1FF1FE8
:104A50000948007809490880002009490870094977
:104A600008704FF0011008490860002007490860ED
:104A70000749086070470000344B000008E1FF1F41
:104A80000AE1FF1F0BE1FF1F0CE1FF1F10E1FF1FF9
:104A900014E1FF1F030001000302000003000000F7
:104AA0000000030100127A000D0400010000000064
:104AB00000000000000000000000000000000000F6
:104AC00000000000000000000000000000000000E6
:104AD00000000000000000000000000000000000D6
:104AE000000000000400024010000240802101701C
:104AF00002780A42FCD0704710B5002905D004683E
:104B00008C439340194021430160BFF36F8FBFF383
:104B10004F8F10BD0800100018002000300040002A
:104B200060008000C000000180010002000300045A
:104B30000006000000000400054002050500010019
:104B40004000400040000101400040000100000121
:104B5000030404004000400010001000400040002A
:104B6000030101004000000000000000913400003B
:104B7000000000000000000000000000B934000048
:104B800000000000E91B0000F51900000000000013
:104B90005B1500003D150000A5240000000000008A
:104BA0000000000000000000000000000000000005
:104BB00000000000000000000000000000000000F5
:104BC00000000000BF1A000000000000000000000C
:104BD000000000000600FF0901A101150026FF00EA
:104BE00075089540090181029540090191029501DE
:104BF0000901B102C0002100540012010002EF02BD
:104C00000140280D04020010010203010000090206
:104C1000820004010080FA09040200020300000679
:104C20000921000100012221000705850340000140
:104C300007050503400001080B00020202010409F8
:104C400004000001020201040524001001052401F2
:104C5000030204240206052406000107058303104D
:104C6000002009040100020A0000050705040240B3
:104C70000000070584024000000904030002FF0051
:104C800000070705810240000007050102400000FF
:104C900000000000040309040E0345005300530004
:104CA00045004D0049001403450053004C006900C5
:104CB0006E006B004900490020001A0330003000EC
:104CC0003000310041003000300030003000300052
:104CD0003000300022036D00620065006400200097
:104CE000530065007200690061006C0020005000F4
:104CF0006F007200740022036D00620065006400A2
:104D00002000530065007200690061006C00200003
:104D100050006F0072007400140343004D005300F4
:104D2000490053002D004400410050001603450087
:104D30005300530045004D0049005F004900430007
:104D4000440012034D00530046005400310030006F
:104D500030009700944D000000E0FF1F300100007C
:104D600006060000144E000000000020C0000000F5
:104D7000FA350000144E000030E1FF1FAC040000C3
:104D80000A360000D44E0000C00000201C120000B3
:104D90000A36000001504228130104720100091074
:104DA000030157494E5553423A8E281A05282A8442
:104DB00009393A12441265127612691A63081249C7
:104DC000126E1A7408127212663A611212471A555C
:104DD000163244324E127B12461237123012321AF9
:104DE00034041A430C1A2D121A420C1A350A1A34BA
:104DF000021A330E122D12391A451C1A450A3A416D
:104E00002A1A36341A461C1A370412391A38120272
:104E10002D7D0000000000000000000000000000E8
:104E200000000000000040010080000000093D007B
:104E30000000000000000000000000000000000072
:104E40000000000000000000000000000000000062
:104E500000000000555555550000000000000000FE
:104E60000000000000000000000000000000000042
:104E70000000000000000000000000000000000032
:104E80000000000000000000000000000000000022
:104E90000000000000000000000000000000000012
:104EA0000000000000000000000000000000000002
:104EB00000000000000000000000000000000000F2
:104EC00000000000000000000000000000000000E2
:044ED00000000000DE
:0400000500000411E2
:00000001FF
