:020000040000FA
:1000000000400020250400003D040000110D000008
:10001000410400004304000045040000000000000B
:100020000000000000000000000000004704000085
:1000300049040000000000004B040000B90D00005E
:100040004F04000053040000570400005B0400004C
:100050009704000097040000970400009704000034
:100060009704000097040000970400009704000024
:100070009704000097040000970400009704000014
:100080005F0400009704000097040000970400003C
:1000900097040000970400009704000097040000F4
:1000A00063040000670400006B0400006F0400009C
:1000B00073040000770400007B0400007F0400004C
:1000C000830400006D0E00008B0400008F0400000C
:1000D00093040000970400009704000097040000B8
:1000E00097040000970400009704000097040000A4
:1000F0009704000097040000970400009704000094
:100100009704000097040000970400009704000083
:10011000970400001D0F00009704000097040000E2
:100120009704000097040000970400009704000063
:100130009704000097040000970400009704000053
:100140009704000097040000970400009704000043
:100150009704000097040000970400009704000033
:1003F000970400009704000097040000FFFFFFFF30
:10040000FFFFFFFFFFFFFFFFFFFFFFFFFEF9FFFF03
:10041000DFF80CD000F094F8004800479935000050
:100420000040002072B61D481D4901600A6882F331
:1004300008881C48804762B61B480047FEE7FEE775
:10044000FEE7FEE7FEE7FEE7FEE7FEE7FEE717480A
:100450000047174800471748004717480047174804
:1004600000471748004717480047174800471748F4
:1004700000471748004717480047174800471748E4
:1004800000471748004717480047174800471748D4
:1004900000471748004717480047000008ED00E0F4
:1004A00000000000ED0D00001104000097040000A2
:1004B00097040000970400009704000097040000D0
:1004C000350D0000490D0000910D0000A50D000044
:1004D000970400009704000097040000350E000008
:1004E00097040000610E000097040000110F000047
:1004F000970400009704000040EA01039B0703D023
:1005000009E008C9121F08C0042AFAD203E011F852
:10051000013B00F8013B521EF9D27047D2B201E014
:1005200000F8012B491EFBD270470022F6E710B5F8
:1005300013460A4604461946FFF7F0FF204610BD51
:10054000064C074D06E0E06840F0010394E8070020
:1005500098471034AC42F6D3FFF75EFF903D0000A1
:10056000D03D000070B58C1810F8015B15F0070342
:1005700001D110F8013B2A1106D110F8012B03E03C
:1005800010F8016B01F8016B5B1EF9D12B0705D444
:100590000023521E0DD401F8013BFAE710F8013B8D
:1005A000CB1A921C03E013F8015B01F8015B521EA9
:1005B000F9D5A142D8D3002070BD000008B510497C
:1005C0000E4848640F4800F071F90F480F49086061
:1005D0000F480022009002230321104600F0EEF89D
:1005E0000848083800F0ECF90B490A480860BDE8F3
:1005F00008400A494FF4E02000F004B90000071158
:1006000000800440D83A000000127A0018E0FF1F72
:10061000DD070000008793031C000020006CDC0253
:100620007047000070B55E4800F0E0F85C48401C80
:1006300000F0DCF85A48801C00F0D8F85848C01C7C
:1006400000F0D4F85648001D00F0D0F8554C0722B1
:100650000021204600F094FB01220421204600F0F6
:100660008FFB6068504D2840606003220C212046BB
:1006700000F086FB03220D21204600F081FB0022C2
:100680001221204600F07CFB00221321204600F0BE
:1006900077FBA0682840A06007220321204600F0D5
:1006A0006FFB20692840206101220521204600F0CF
:1006B00067FB606920F0807040F0020060613B4C95
:1006C00001221321204600F05BFB0122122120466B
:1006D00000F056FB01220221204600F051FB0122CE
:1006E0000321204600F04CFB04221021204600F09C
:1006F00047FB2F4C00221146204600F041FB01220F
:100700000A21204600F03CFB01220221204600F095
:1007100037FB01220321204600F032FB0122042195
:10072000204600F02DFB01220821204600F028FB86
:1007300001220921204600F023FB1E4D0122002149
:10074000284600F01DFB01221146284600F018FB48
:1007500003220221284600F013FB01221146204605
:1007600000F00EFB01220421284600F009FB0722BD
:100770000521284600F004FB07220621284600F048
:10078000FFFA07221146284600F0FAFA0A48C16823
:1007900021F00371C160016921F03001016170BD78
:1007A0000900381000900440FDFFFFFE00A0044047
:1007B00000B0044000C00440008004402DE9F04136
:1007C0000C4615461E46069F00F0A0F83B463246F2
:1007D00029462046BDE8F04100F0B2B847F230505B
:1007E00000E000BF401E411CFBD17047044901EBF3
:1007F00010410A68012383401A430A6070470000D1
:100800000070044030B501231D4D2A6822F4802277
:100810002A601B4A343A00281AD01A4C091922D0EF
:10082000641009191CD0091917D0E14202D109211D
:10083000916400E00023516821F4E02101435160FC
:10084000296841F480212960B0F5E02F0ED014E032
:10085000516821F480215160F2E702219164EAE7B6
:1008600005219164E7E700219164E4E7064803214C
:100870000171017841F080010170184630BD00001F
:1008800034800440009423FD4021074049F697013D
:10089000884201D8002070470349884201D80120CE
:1008A000704702207047000000127A0010B504461D
:1008B0002068FFF7EBFF024612492379087820F001
:1008C0000F0018430870087820F0A003A07918439F
:1008D0000870E079800188700B484378120123F09A
:1008E0003C03C2F3011243EA021263791A434270D5
:1008F0006279002A05D00978090602D5817989072D
:10090000FCD510BD00500640004006400B4A117B4C
:1009100001F00301814201D0012100E00021137B9D
:1009200060F30103137331B140F2DC5000E000BF0B
:10093000401E411CFBD100207047000000400640D3
:100940002DE9F04100261D4CE578A779FF0604D576
:100950000126E77887F02007E7702778C00027F0A6
:10096000FC07C0F3C20047EAC0002070207B80076C
:1009700005D16078400702D5A0798007FCD5A07921
:10098000C006FCD406B1E570C801C0F3C010C001B8
:100990005101C1F3411140EA411025F0E001084343
:1009A000E070E1788142FCD1A07910F00C0FFBD10E
:1009B00003B198470020BDE8F081000000400640E8
:1009C000074942684A6402784B6862F311434B60FE
:1009D000407804490A6860F393420A607047000057
:1009E000008004400070044010B50268D30F054A2F
:1009F000002B02D05268904701E092689047BFF305
:100A00004F8F10BD300000202DE9F04389B08146A2
:100A10000E4615461C4601AA3146484602F08AFB9E
:100A20002A4631464846059B02F041FB002805D185
:100A3000204602F055FB0746380002D009B0BDE859
:100A4000F083019C029E25446D1EB5FBF6F006FB6B
:100A5000105020B1B5FBF6F56D1C75436D1E0021DD
:100A6000484602F008FBDFF82C800BE024F07F40C2
:100A700040F01060C8F80400484602F03BFB07460F
:100A800017B93444AC42F1D9484602F0F1FA38467D
:100A9000D4E700000000024070B50446002C2AD0C4
:100AA0001748C06CC0F303600F2826D0154931F8F1
:100AB0001000800200252560606001202072C002C5
:100AC000E06011480278811591406161C078A061B1
:100AD000204602F0DFFA50B10C480560A0F1800119
:100AE000416040318160E061204600F011F82562EC
:100AF0006562002070BD042070BD4FF40030D9E75E
:100B0000008004406C3B00002800024094E4FF1F7A
:100B100010B500280BD0C4694CB1606802F0B8F879
:100B2000A06802F0A5F802202060002010BD04207B
:100B300010BD00002DE9F04389B081460D461446F2
:100B40001E46002C10D001AA2946484602F0F2FAAF
:100B5000324629464846049B02F0A9FA0746380067
:100B600004D009B0BDE8F0830420FAE7019D00211C
:100B7000484602F080FADFF8588022E001CCC8F83D
:100B800008000498042803D00498082807D00FE030
:100B900025F07F4040F0C060C8F8040008E001CCB8
:100BA000C8F80C0025F07F4040F0E060C8F8040071
:100BB000484602F09FFA07462FB904980544049866
:100BC000361A002EDAD1484602F052FA3846C8E703
:100BD000000002402DE9F04788B082460C461546D9
:100BE00099466A462146504602F0A4FA2A46214612
:100BF0005046059B02F05BFA00282ED16A4621463A
:100C0000504602F097FA009EDDF808807042C8F165
:100C1000000108404742B7421CD147441AE0BC1BC0
:100C2000AC4200D92C460598B4FBF0F026F07F4189
:100C300041F080720A494A60000440EA092040F00D
:100C4000FF008860504602F055FA002805D12D1BA0
:100C500026444744002DE2D1002008B0BDE8F087CB
:100C6000000002402DE9F04F89B08346DDE9138989
:100C7000129F0C4616461D46002D14D001AA21468F
:100C8000584602F057FA324621465846089B02F071
:100C90000EFA002808D1019C6FF07F41DFF85CA0BC
:100CA00041EA076726E0042009B0BDE8F08F24F090
:100CB0007F4040F00070CAF80400CAF80870286845
:100CC000CAF80C00584602F015FA58B1B8F1000FF6
:100CD00001D0C8F80040B9F1000FE5D00021C9F8F3
:100CE0000010E1E70899761A089921F003010D44F4
:100CF00008990C44002EDAD1D6E70000000002402B
:100D000001238B40002A01D0436070478360704705
:100D1000BFF34F8F05480168054A01F4E0611143B4
:100D20000160BFF34F8F00BFFDE700000CED00E056
:100D30000400FA0502480168024800F00FB80000FC
:100D4000280000200060064002484168024800F088
:100D500005B80000280000200070064010B5C278D9
:100D6000D306064A02D483789B0602D512689047C0
:100D700001E052689047BFF34F8F10BD2000002064
:100D800050F8213062F30A2340F821307047000008
:100D9000024801680248FFF727BE00003C0000201F
:100DA00000C00240024841680248FFF71DBE000033
:100DB0003C00002000D002400B494868401C4860BD
:100DC0008868002805D08868401E886001D101200D
:100DD00008704878401CC0B248700A2803D300202D
:100DE000487002F00BBC7047000000200748016803
:100DF00041F47001016006484CF22051C1814DF66A
:100E00002811C1814FF4E9710180704788ED00E03D
:100E10000020054010B50448054A016812680348DF
:100E20009047BFF34F8F10BD08E4FF1F00A006409E
:100E300020E0FF1F10B5FFF7EDFFBFF34F8F10BD90
:100E400010B50448054A4168126803489047BFF34B
:100E50004F8F10BD08E4FF1F00B0064020E0FF1FC9
:100E600010B5FFF7EDFFBFF34F8F10BD38B51D4D27
:100E70002C79E878800601D424F02004E878000674
:100E800001D424F0800420060BD5174801F060FE41
:100E9000E871154801F04AFE18B9E87820F08000A2
:100EA000E870A00607D504F0040004F0020108432E
:100EB00002D0E879009038BDEC790C4801F025FEAD
:100EC000132805D92146BDE83840084801F054BE32
:100ED000064801F03DFE2146BDE83840034801F0D8
:100EE0004BBE000000B0064048E1FF1F58E2FF1F64
:100EF00010B50448054A8168126803489047BFF35B
:100F00004F8F10BD08E4FF1F00C0064020E0FF1F08
:100F100010B5FFF7EDFFBFF34F8F10BD2DE9F04186
:100F20000025354E96F88040344F2146200750D595
:100F3000DFF8CC804BE096F890000309C0F3C002C4
:100F4000C0F3800453EA020C23D14FEA037C4FEA3A
:100F50009C6C0CEB4202224418F83240C4F3830428
:100F6000012C16D108EBC20CBCF802408CB9234C02
:100F70001434E35CACF8023018F832305B0603D569
:100F8000882308F8323002E0C82308F8323040F0F5
:100F90000100EFF3108202F0010372B6194CBA6837
:100FA000A054521C1520B2FBF0F400FB1420B860D2
:100FB00003B962B6082086F880001DB996F894003F
:100FC000800601D5012500E0002596F88040200725
:100FD000B1D4214309480C3002F0F0FB0DB10120DF
:100FE00000E0002039780843387086F88040BDE87A
:100FF000F04100F06DBF00000020074024E0FF1F1B
:10100000000C0020A0110020002070470020704735
:1010100010B5054C6068002805D10120606000F023
:1010200005F80020606010BDF4E0FF1F2DE9F047D7
:10103000244CA06800283ED0D4E90401421AE0689C
:101040004FF0000652EA000137D021461E4FC96911
:10105000DFF87880DFF878901E4D7AB1A069814280
:1010600005D338888B182844834200D3421A99F854
:10107000000038F81000904200DA0246E660164898
:10108000007840F0800001F097FCE1690144E161E3
:101090006269024462613B882B448B4200D1E56166
:1010A000216991420BD199F8001038F81110814252
:1010B00005D10120E060BDE8F087A660FBE7E660AF
:1010C000F9E70000F4E0FF1FA43B0000A83B00008C
:1010D000D3E0FF1FF6110020A23B000010B50C4C1E
:1010E000206A002803D0A06A401CA06210BD012025
:1010F0002062606200F00EF8002060622062D4E995
:101100000C018842F2D0401AFFF780FF10BD0000AA
:10111000F4E0FF1F10B5134C1348164B216B0A1A4D
:1011200012481B780088821A114830F81300824256
:101130000FDB1148007800F0E9FF216B08442063C1
:10114000A06A002804D0616A002901D1401EA06273
:1011500010BD0120E062606A0028F9D0A06A401C3E
:10116000A06210BDF4E0FF1F21E5FF1FA63B0000B9
:10117000A83B0000D3E0FF1FA33B000010B50446CE
:10118000600702D52046FFF7A9FF200704D52046B7
:10119000BDE81040FFF73CBF10BD7047002070470E
:1011A0000020704710B50C4800F03EF888B10A4A9C
:1011B0000A48116801700B0A43700B0C8370090E0A
:1011C000C170117901715179417191798171012059
:1011D00010BD002010BD00002CE1FF1FA0E4FF1F88
:1011E00010B50E48002141608160C160016141611C
:1011F0000B4A8261C261016241628162C162094A35
:1012000002634263018038304FF41652026001716C
:1012100041710821817100F009F810BDF4E0FF1F51
:10122000F611002021E5FF1F0020704700207047C5
:1012300000207047002070470020704710B510480C
:10124000002444608460C460046144610D4981618C
:10125000C161046244628462C4620B4901634163F8
:101260000480FFF7E5FF06484FF41651383001605F
:101270000471447108218171FFF7DEFF10BD000089
:10128000F4E0FF1FF611002021E5FF1F10B5FFF766
:10129000D5FF10BD70B51948007800282DD0184C26
:1012A00000250126206A50B9D4E90C01884206D1F4
:1012B0001449884203D021636163E5622562A06A14
:1012C00070B1206A60B9E06A50B92662FFF722FF68
:1012D0002562D4E90C01884202D0401AFFF796FE3D
:1012E000D4E90101084308D1D4E90401884204D0BB
:1012F0006660A660FFF79AFE656070BDD1E0FF1FD3
:10130000F4E0FF1F21E5FF1F002070470020704719
:101310000020704710B502490880FFF78BFF10BD11
:10132000F4E0FF1F10B50B4801784278C37841EA1A
:1013300002228178090441EA03610A4306490A60EE
:1013400002790A7142794A71807988710846FFF7FB
:1013500073FF10BDA0E4FF1F2CE1FF1F10B5074C69
:101360000748217800F040F86060002805D0002090
:10137000A060BDE8104000F005B810BD34E1FF1FCB
:101380003612002070B5144D6C68002C1DD0134827
:101390000088844200D304460020D5E90213104A95
:1013A00003E046189E5D1654401CA042F9D30D4838
:1013B00022460B49007840F0800001F0FDFAA86851
:1013C0002044A8606868001B68606868002801D134
:1013D00000F070F870BD000034E1FF1FAE3B00006C
:1013E00036120020AC3B000070B506460D461B4C83
:1013F000207800280AD0012822D00020207000F098
:1014000059F82078022821D0002070BD082DF8D38B
:10141000304601F0CBFEA060B0F5A06F01D90122EB
:1014200000E0002250B10020024301D000F042F859
:101430002946304601F0D6FB2070E2E70120F3E7B1
:101440002946304601F0CEFB2070DAE70449A1F5C9
:10145000A06001F0EDFDE06070BD000000E0FF1F46
:10146000A0050020FFF78EBF10B506480649028888
:101470000648007800F04AFE05490870BDE81040B3
:10148000FFF76CBFAE3B000036120020AD3B000002
:1014900034E1FF1F10B50446600702D52046FFF770
:1014A000E3FF200704D52046BDE81040FFF7DABF70
:1014B00010BD0000034800218160C16041600170DF
:1014C0007047000000E0FF1F064800218160416076
:1014D000064B054A1A60064B02F5A0621A600170BD
:1014E0007047000000E0FF1FA000002044E1FF1F44
:1014F00040E1FF1F01078A0E0449114411F8C02F73
:1015000022F002020A7001F0C1B900000020074079
:10151000014688788988020601D4024A115401F0F4
:10152000B5B9000038E0FF1F704700F0A5BA000011
:101530000B49002808D011F8940F40F00100087002
:10154000102081F87400704711F8940F20F001000A
:10155000087091F8740020F0100081F87400704752
:101560000020074010B50B4C0B48A288007882423F
:1015700000D902461AB907490020143908718020A1
:10158000216801F019FA216801442160A188081A34
:10159000A08010BDE4E0FF1F8E3B000010B5064C9C
:1015A0000020A288216800F0B1FD2168014421607B
:1015B000A188081AA08010BDE4E0FF1F704700005A
:1015C0000A49020609D500F00F0001EB800010F86F
:1015D000C01F21F005010170704701EB800010F879
:1015E000C01F21F009010170704700000020074072
:1015F0000A49020609D500F00F0001EB800010F83F
:10160000C01F41F005010170704701EB800010F828
:10161000C01F41F009010170704700000020074021
:101620002DE9F0470446824EA007A6F108054FF0C9
:101630000009A5F1140723D501F09CF93078C00901
:10164000FFF7BCFFF088A8803178C1F3411020B1CA
:10165000012873D0022855D17FE07078DFF8D4815B
:101660000C287FD2DFE800F0060D7E1A7E26357E3C
:101670003B444F5F00F0BAFE002873D0FFF772FFC3
:101680008FE0002000F0F8FE00286BD001F07AF91E
:10169000D8F80000002800D0804782E0012000F048
:1016A000EBFE78B301F06EF9D8F80000002878D08E
:1016B000804776E011F01F0F54D1B07840F08000E1
:1016C000387000F07F00012101F03CF901F05AF977
:1016D00067E000F089FDA8B1FFF744FF61E011F079
:1016E0001F0F3FD152481B382860FFF73BFF58E0DF
:1016F00000F01EFF30B101F045F94F480068D0B34B
:1017000080474EE028E001F01F0001282AD17878B8
:1017100010B33079B978884224D248490844286007
:10172000FFF720FF3DE000F0CDFFA8B101F02AF95E
:1017300043480068F8B1804733E0FFE711F01F002D
:1017400010D001280ED100F031F9A0B900F092F9C3
:1017500088B900F0C3F870B904E011F01F000BD095
:10176000012811D03078000616D4F088A0B10020EE
:1017700001F0F2F813E014E03079042801D1314887
:101780002860FFF7EFFE0CE03079052801D12E48E4
:101790002860FFF7E7FE04E0802001F0DDF8A5F8FF
:1017A0000490600721D5307800061CD4A888E0B1E9
:1017B000FFF7F4FEA888C0B93078C0F3411161B1D9
:1017C00001290AD110F01F0007D0012805D100F02F
:1017D0006DF850B900F03AF838B9802001F0BCF843
:1017E000A5F8049001E001F0D3F8200712D5307875
:1017F000000606D5A88808B9387958B1FFF7B2FEB7
:1018000008E03878010605D500F07F003870002127
:1018100001F098F8600602D50020FFF76BFE200665
:1018200004D5BDE8F0478020FFF764BEBDE8F0872F
:10183000ECE0FF1F0C3C0000043C000074000020A2
:10184000083C00004C0000203DE0FF1F10B514498B
:10185000144A08791278904203D0134A12789042C1
:101860001CD1487820B1022809D0202816D10EE0DA
:10187000FFF74CFD90B101F085F8012010BD4888BC
:10188000FFF746FD50B101F07DF8012010BDFFF7D4
:1018900049FD18B101F076F8012010BD002010BDFF
:1018A000ECE0FF1FA03B0000A13B000010B5094881
:1018B000094A01791278914209D14078092806D164
:1018C00000F0E8FA18B101F05DF8012010BD002029
:1018D00010BD0000ECE0FF1F8F3B000070B52E49EB
:1018E0002E4A08791278904203D02D4A12789042FD
:1018F0004FD1294849782B4C2B4D4088042927D0BB
:1019000007DC79B1012910D0022916D0032940D172
:1019100016E0202923D0212924D022292AD02329C6
:1019200037D12EE02C60012070BDFFF739FC78B371
:101930002C60FFF717FE012070BD2C60012070BDE8
:10194000FFF72CFC20B32C60FFF70CFE012070BDCC
:10195000FFF75AFBE0B101F015F8012070BD2C60D3
:10196000012070BDFFF71EFC90B12C60FFF7FAFD5F
:10197000012070BDFFF7CEFC50B101F003F801204B
:1019800070BDFFF7C1FC18B100F0FCFF012070BD75
:10199000FFE70020FBE70000ECE0FF1FA03B00009A
:1019A000A13B0000A0E4FF1FE4E0FF1F2DE9F04190
:1019B000294E2A493079097888424AD17078284CD2
:1019C000284D294F0C2844D2DFE800F04306243389
:1019D0004343434343182C3C00F076F988B3F07836
:1019E000012802D0032803D003E02048206000E053
:1019F0002560FFF7B7FD0120BDE8F081F0780228EF
:101A000002D0032803D003E01948206000E02560DD
:101A10000120F1E700F040F998B12760FFF7A2FD3F
:101A20000120E9E700F00EFA58B100F0ABFF012009
:101A3000E2E700F03FF920B12760FFF793FD0120B6
:101A4000DAE706E000F01CFA18B100F09BFF012075
:101A5000D2E70020D0E70000ECE0FF1F8F3B000042
:101A6000E4E0FF1FCDE0FF1FA0E4FF1FE1E4FF1F44
:101A7000B611002000207047074800214170C16066
:101A800001614161418081808161C161C1800181C9
:101A900001624181704700007C0000202DE9F04781
:101AA0004A4FB88879884B4CDFF82491002604F11E
:101AB0000108884217D3B869A8B97E61BE800123A6
:101AC0002178621C184601F0DDFF7880788850B1DB
:101AD0007C6199F80000012802D8C7F8148002E060
:101AE0007888401C788078880125C8BBF86808B1E0
:101AF000FE6035E0386998B399F8001001290ED8D6
:101B00002670621CBE8002230021012001F0BAFF72
:101B10007880788808B1C7F814803E6120E0A0463C
:101B20002478202C00D3002405FA04F101421AD0B5
:101B3000601CC1B288F8001008F10102BE800223C7
:101B4000012001F09FFF7880788820B1C7F81480C9
:101B50007888401C7880386905FA04F18843386138
:101B6000788830B902E0641CE4B2DAE7B86900288A
:101B700028D07888B988401A84B2DFF86090DFF8FE
:101B8000588099F8000038F81000A04200D20446AE
:101B9000134822467969007840F0800000F00CFF7D
:101BA000786920447861B888204480B2B8800D49B3
:101BB0000988884208D299F8000038F81000A0423D
:101BC00002D1BD61BDE8F087BE61FBE77C0000206B
:101BD0009A3B0000E0E4FF1F963B0000D3E0FF1FAC
:101BE000903B00009C3B0000F8B51C4C00271C4DAE
:101BF00020891C4E002802D1E5613188E180E1880E
:101C00000A1A1948E169007800F080FA80B2E169A7
:101C10000144E161218901448BB2238148B13188BB
:101C20008B4206D2124A1149127831F812108142C1
:101C300013D9104801780120012906D80090084ADC
:101C40000021022001F022FF06E0009029786A1CA2
:101C50005B1E022001F01AFF2781F8BD7C000020E6
:101C6000B51100209E3B0000913B0000963B000018
:101C7000D3E0FF1F9B3B000010B50446200702D5B0
:101C80002046FFF70BFF600704D52046BDE8104053
:101C9000FFF7AABF10BD0000034804498078085C24
:101CA0000349087001207047ECE0FF1F7B00002013
:101CB000A0E4FF1F10B501F0E3FE02490870012007
:101CC00010BD0000A0E4FF1F10B500220949C8782C
:101CD000012804D0022804D0032805D103E0064AD5
:101CE00002E0002010BD054A8978002301F0CAFEF9
:101CF000012010BDECE0FF1FE1E4FF1FCDE0FF1F5E
:101D00002DE9FC5F4648007800287DD00026454D2F
:101D10000422B2462978481C28704348007800EB1A
:101D2000400B02FA0BF2521E914202DB85F800A032
:101D3000012600243D4A1188FF2901D2491C118047
:101D40003B4931F81000394901900988884200D197
:101D5000012400203949DFF8DCE04FF00108097860
:101D6000DFF8D490009145E0002276B119F8001018
:101D7000FF2902D2491C09F800101EF8001021B1F9
:101D800019F800308B4200D301221EF800700221A6
:101D900001FA0BF1019B07FA01F1994202DA0FB146
:101DA000012100E000213CB131B1D5F810C008FAA2
:101DB00000F343EA0C032B61214B1B5C9F420ED0C6
:101DC00019F800709F4208D3D5F810C008FA00F740
:101DD00047EA0C072F6185F800A00EF800303AB1F1
:101DE00021B92A6908FA00F11143296109F800A014
:101DF000401CC0B200998842B6D314B10B48A0F879
:101E000000A02869002800E007E006D068880028C4
:101E100003D1BDE8FC5FFFF741BEBDE8FC9F0000B9
:101E2000D1E0FF1F7C000020D3E0FF1F78000020DE
:101E3000923B0000CBE0FF1F7A0000209A3B00009D
:101E40007B0000200A480A498078C978002802D01F
:101E5000084A815409E00020084B074A1B7802E039
:101E60001154401CC0B29842FAD3012070470000C0
:101E7000ECE0FF1F7A0000207B0000209A3B00006E
:101E800010B50348807801F000FE012010BD00006D
:101E9000ECE0FF1F08B500220A49C878012804D0E9
:101EA000022804D0032805D103E0002008BD064A1B
:101EB00000E0064A00230093CB88897801F0E6FD14
:101EC000012008BDECE0FF1FB6110020CDE0FF1F90
:101ED0002DE9F05FEFF3108000F0010072B6DFF83B
:101EE00064B1DBF80C404FF00008CBF80C809BF895
:101EF00000A08BF80080002800D162B6E00707D070
:101F000000F07AFC01F0D2FD4F48006800B1804734
:101F1000E00605D500F046FD4C48006800B180475A
:101F2000A00605D500F0FEFC4948006800B18047D6
:101F3000600703D54748006800B18047DFF8189173
:101F4000022C08D14548016811B199F888008847EA
:101F5000FF2089F88800200769D5414E414F56E09F
:101F6000EFF3108000F0010372B63F48405C491C5B
:101F70001522B1FBF2F402FB1411CBF8041003B9E3
:101F800062B6C0F30314C0F3C001C0F3800244B9C9
:101F900008EB4103134416F83330C3F383030D2BCE
:101FA0000BD023079B0E03EB41018D1816F835105B
:101FB000C1F38301012915D01EE0DBF8100020F0E9
:101FC0000200CBF81000307E20F080003076307CAC
:101FD00020F0800030748BF801803968B9B102209C
:101FE000884714E01CB900F001008BF8010057F895
:101FF000241009B10420884716F83500C0F3830087
:10200000092804D157F8241009B108208847EFF3B4
:10201000108000F0010272B6DBE90110814201D1AB
:10202000012000E0002002B962B6002898D0BAF181
:10203000000F05D099F8940020F0200089F8940052
:10204000BDE8F09F24E0FF1FB03B0000B43B000060
:10205000B83B0000BC3B000000200740C03B000034
:10206000000C0020C43B0000A011002010B51F4848
:10207000402404701E48416841F4E0214160416BF6
:1020800041F48021416300F03DF81A4890F80C11AA
:1020900041F0800180F80C1190F80C110906FBD476
:1020A0001549090A00F89C1F1349090C01751249CA
:1020B000090E0176FF2100F81C1C9C380F490968A5
:1020C00009B1042100E000210D4A12680AB1022280
:1020D00000E000221143ED3041F0190100F8691CC5
:1020E000C474C17F41F04001C17710BD38E0FF1FCB
:1020F0000080044000200740000C0020BC3B000092
:10210000C03B0000352000F087BC70472DE9F04748
:102110004FF0000C0207940E304E06EBC408B8F8DE
:1021200002502F4F4FF0010900280BD17A784AB1A5
:10213000600809FA00F107F1100001F04BFB0020E4
:10214000BDE8F08738B916F83420C2F383020D2AAF
:1021500001D14FF0010C0022204BA03303EB84137C
:1021600004E013F802A001F802A0521CAA42F8D31E
:102170001B4A1432105CA8F8020038694FEA540870
:1021800016F8342020FA08F000F00100C2F38012A3
:1021900090420DD18879C97940EA0120BCF1000F45
:1021A00000D070B10E4809FA08F1103001F012FBAE
:1021B000386920FA08F0C0070AD0C82006F83400B1
:1021C00009E007486FF00101103001F0EBFAEFE78A
:1021D000882006F834002846B2E70000000C0020F2
:1021E00024E0FF1F704700007CB54E49A1F11C059B
:1021F0000878A1F1080410F01F0003D001287BD05B
:1022000000207CBD4848CB78027846481C38C1780D
:102210001C30082B80786DD2DFE803F06C04155178
:102220006C6C0934414820601220009069E02AB1AA
:1022300031B13F4820600A20009062E000207CBD60
:102240003C482060F7E70AB9012904D029B13A498E
:10225000019100210BE000207CBD38490191F8E795
:10226000019A137813B153881A440192491C884289
:10227000F6D10198017819B120604088009040E0C3
:1022800000207CBD22B129B12D49019100210BE034
:1022900000207CBD2B490191F8E7019A137813B116
:1022A00053881A440192491C8842F6D1019801785A
:1022B00019B120604088009023E000207CBD2249B5
:1022C0000191002105E0019A13780BB11A440192A3
:1022D000491C8842F7D1EE2801D11C480190019891
:1022E000017829B12060007800900AE004E001E064
:1022F00000207CBD00207CBD694601A800F02AF8C2
:1023000070B1A1880098814208D980B2A08010499C
:102310000978491E084201D10120287101207CBDA5
:1023200000207CBDECE0FF1F8B3B0000363C000032
:10233000493C0000483C0000CD3C00004A3C000005
:10234000CF3C0000CE3C0000D03C00007C3D0000B3
:102350008E3B000030B51B4A1B4C1A4BD2781B4DEC
:102360001B792478212A05D0222A1ED0232A27D09F
:10237000002030BDA34201D0002030BD144A1378A4
:10238000144A12780BB9012A0AD05AB1124A0260D3
:10239000124A0068128810442860092008600DE085
:1023A000002030BD0E4A0260F2E7A34201D00020B7
:1023B00030BD0C4828600C4800880860012030BD02
:1023C000002030BDECE0FF1F8F3B0000E4E0FF1F6A
:1023D0008B3B0000D3E0FF1FCD3C0000343C0000ED
:1023E0004A3C0000103C0000323C000070B5204820
:1023F0001F4C0078A4F1080410F01F000BD01C49FA
:10240000A4F114031B4D5A780979012807D002283A
:102410000FD0002070BD16481638206023E032B17E
:102420009878814203D20020288025601BE000209C
:1024300070BD01F08F00010605D500F00F064FF4C6
:102440008031B14001E0012181400AB900070CD17F
:102450009868084209D0D868084201D0012000E0FD
:10246000002028802560012070BD002070BD000084
:10247000ECE0FF1FA0E4FF1F70B502462B4B19468E
:102480001878498810F01F00A3F11C0605D0012818
:1024900018D0022818D0002070BD012901D00020DA
:1024A00070BD3AB1012000F085FAF08840F00200DA
:1024B000F08036E0002000F07DFAF08820F0020085
:1024C000F0802EE0002070BD187900F08F04200607
:1024D00005D504F00F004FF48035854001E001255B
:1024E000A5407078F8B120071DD0B06828421AD0F6
:1024F00009B1002070BD32B1204600F02DFAF0681D
:102500002843F0600DE03069284201D0012070BD01
:102510002046FEF7EFFF2046FFF764FEF068A84371
:10252000F060012070BD002070BD0000ECE0FF1FD6
:102530002DE9F05F0027DFF874B19BF8000010F080
:102540001F0F02D00020BDE8F09F584E9BF80200FC
:102550001C3E4FF000084FF001094FF4803A00286C
:1025600079D0534801783046C07809B9012802D0A3
:1025700018B1504C6AE00020E5E74F4C66E0607807
:10258000022804D0042844D005285DD143E06179B5
:102590009BF80200814239D170702079B070002020
:1025A0004749464A098802E002F80080401C8842F8
:1025B000FAD30125B16809FA05F0084202D028468D
:1025C000FEF7FEFFB1680AFA05F0084203D045F0B5
:1025D0008000FEF7F5FF6D1C102DEBD34FF00110BE
:1025E0003546B060C5F80C80C5F810800120FEF7B4
:1025F0009BFFE079400604D5E88840F00100E880C0
:1026000022E0E88820F00100E8801DE060880444B2
:102610001CE0E77818E0BFB9A07800F08F05280625
:1026200004D505F00F000AFA00F001E009FA05F000
:10263000B1680143B1602046FEF76AFF2846FEF705
:10264000D7FF284600F022F920780444207800289B
:1026500095D121E0FFE786F801800124B16809FAED
:1026600004F0084202D02046FEF7AAFFB1680AFA39
:1026700004F0084203D044F08000FEF7A1FF641C80
:10268000102CEBD34FF00110B060C6F80C80C6F8E8
:1026900010800020FEF748FF9BF802007178884206
:1026A00001D000204FE701204DE70000ECE0FF1FC4
:1026B0008B3B0000CD3C00004A3C00007400002031
:1026C0008C3B00002DE9F84F00270026B246B146AA
:1026D0004448007800F01F00012802D00020BDE827
:1026E000F88FDFF800B1ABF11C0B9BF8010038B19B
:1026F000002000903C4801785846C07811B103E0B2
:102700000020ECE7012802D018B1384C65E0002029
:10271000E5E7374C61E06078022804D004280AD04D
:10272000052858D119E060799BF80110884252D0F1
:102730006088044451E0A778E6784FF00009294802
:102740000179B94247D18078B04244D1012000904C
:10275000284810F807A0C6553DE022480179B94243
:1027600039D1A17801F08F085FEA086105D508F03A
:102770000F014FF480358D4002E0012505FA08F580
:102780008078B04215D1DBF808002843CBF8080068
:10279000DBF80C00A843CBF80C002046FEF7B8FE8F
:1027A0004046FEF725FF404600F070F849EA05096B
:1027B00011E056450FD119EA050F0CD1DBF80800DE
:1027C000A843CBF80800DBF80C00A843CBF80C00BA
:1027D0004046FEF7F5FE20780444207800289AD180
:1027E00000987CE7ECE0FF1F8B3B0000CD3C000035
:1027F0004A3C00007400002070B51F494FF40010DF
:102800000860BFF34F8FBFF36F8F01201B4D002473
:1028100005EB800181F8C040401C1028F8D3152139
:102820001748FDF782FE174844608460C460047056
:102830004470154940224A8001F1A0024A60C82232
:102840000A700C7201F590724A61CC610D218035DD
:1028500085F840104FF055310161287D40F00200AD
:102860002875FF202870287228732C76BDE87040E8
:10287000352000F0D1B8000084E100E000200740DE
:10288000A011002024E0FF1F000C00202DE9F047DC
:102890000546DFF8789028064FF000084FF0010158
:1028A000A9F1A00705F00F0418D501EB4400814001
:1028B000174800F083FF04F00F00022101EB8001B4
:1028C00009EB811207EBC1014A60032101EB800093
:1028D00007EBC000C0F80480BDE8F08768000E4632
:1028E00001FA00F0C1430A4800F05CFF0848001DEF
:1028F000415D07EB4410418009EB042141608821D0
:10290000017006EB840007F83080E5E7A00C00209A
:1029100034E0FF1F10B5FEF7B9FCBDE81040FEF72C
:10292000C9BD00000248017821F020010170704704
:102930008420074010B5FFF7E3F9BDE81040FEF72B
:10294000A9BC0000002903D1024900F07F000870F3
:10295000704700009820074000F00F0081000448F5
:10296000084410F8C01F41F00201017070470000D8
:1029700000200740082202490020FFF7C7BB0000E3
:10298000ECE0FF1F00221146802000F015B8000087
:102990000248034902780020FFF7B8BB8E3B0000D5
:1029A000A0E4FF1F0248017841F020010170704748
:1029B000842007407047000070B5154600F00F00F6
:1029C000022202EB8004124E06EBC4004580002375
:1029D00006F1A00000EB841002E0CA5CC2545B1C4C
:1029E000AB42FAD30B4960080969C140C90703D05B
:1029F000882106F8341002E0C82106F834100121BD
:102A000081400448103000F0E5FE284670BD00000B
:102A1000000C002024E0FF1F002809DB00F01F024B
:102A2000012191404009800000F1E020C0F8001130
:102A3000704702E008C8121F08C1002AFAD1704787
:102A40007047002001E001C1121F002AFBD170472E
:102A500010B50548406800F02BF8012801D000F0BF
:102A600005F8012010BD00007CE3FF1F024841680B
:102A70000868496800F06CBD7CE3FF1F0A484FF40A
:102A80007A710068B0FBF1F0401EB0F1807F09D28E
:102A90004FF0E0214861054AF02010700020886165
:102AA00007200861704700001C00002023ED00E0B3
:102AB00070B50646042430680B4A0C4900F070FFDC
:102AC00008B10B4D0AE0012070BD30190068D5E94E
:102AD00001120A4400F064FF20B1241D0C2CF4D92B
:102AE000002070BD012070BD0040002000E0FF1FED
:102AF0007CE3FF1F10B503460020002202E08C5C3F
:102B00002044521C9A42FAD310BD30B50546EFF36B
:102B1000108000F0010472B6284600F007F8A9689A
:102B2000081A401E002C00D162B630BDEFF31081B0
:102B300001F0010372B6D0E90021914201D3881A55
:102B400002E080680844801A002B00D162B670470A
:102B500010B5EFF3108101F0010272B6C36801688D
:102B60005B5C491C01608468A14201D300210160C3
:102B700002B962B6184610BD10B5EFF3108202F02C
:102B8000010272B64468C36819554168491C416026
:102B90008368994201D300214160002A00D162B6C6
:102BA00010BD000010B50C23002000210C4A03E0EA
:102BB00014182172401CC0B29842F9D3202300207F
:102BC00003E014182175401CC0B29842F9D30448A0
:102BD00000F02CF808B1012010BD002010BD00004D
:102BE000A4E3FF1FF0B500220E4D0F4C6B6803E00D
:102BF0009F18865CE655521C8A42F9D358186860C3
:102C0000AA68511AA960B0F5A06F01D9FEF752FC6D
:102C1000A86828B9686818B1002068600220F0BD73
:102C20000120F0BD00E0FF1FA000002030B595B0EE
:102C300005460E4C204600F0FFFB10B1012015B0F8
:102C400030BDFF22502101A8FDF768FC5022294623
:102C500001A8FDF751FC502201A9204600F020FCFC
:102C600008B10120EBE70020E9E7000000F00100D7
:102C700010B504461C2204492046FDF73DFC0348DC
:102C8000641C446010BD0000503B00004400002064
:102C900005490A6802604A684260896881600349A0
:102CA000401C086070470000443B000044000020C6
:102CB00070B50E46504CE0602661C178027883788A
:102CC00041EA02614278120442EA03221143216080
:102CD0004A4A1425914201D0A02024E0417902798A
:102CE00041EA0221A1808179522901D0A1201AE074
:102CF0005221A171C079E07114213046FDF715FC15
:102D00002661E27906F10800042A4ED006DC012A89
:102D100026D0022A39D0032A04D13CE0052A4AD021
:102D2000602A3FD003202269AB2111702269CD2196
:102D300051702269DC2191702269BA21D170A18879
:102D40002269090A11712269217951712269A179D7
:102D500091712269E179D17188B32072A58031E047
:102D6000012131722069417222690020907222692A
:102D7000D1722169087321694873216988732169B7
:102D8000C87321690874A580CDE700F02FFD4FF4CA
:102D90000571A180C7E7E068083000F03FF8002027
:102DA000A580C0E70020A580BDE7E068083000F0FE
:102DB000BFF8A580B7E700F0ECF8A580B3E7FFE720
:102DC000F4202072A2882169207A114401F8030CB2
:102DD000A0882169801EFFF78DFE6081A28821698D
:102DE000000A114401F8020CA2882169A07A11445A
:102DF00001F8010CA08870BD68E3FF1FBADCCDAB01
:102E000005494FF47A720968B1FBF2F1C91C8908CF
:102E10004143491EFDD170471C00002010B5417888
:102E200010F8092B41EA022100F012FD034800F0DE
:102E300001FD0349002081F8840010BD4B4E494C30
:102E40000020074070B5002401784278C37841EA39
:102E500002218278120442EA036211430279437923
:102E6000C57942EA03238279120442EA05621343D8
:102E700000F10802034800F0BDFD00B11224204615
:102E800070BD00004C46464F38B5044600256846E4
:102E900000F00EFA009881B200912078CAB29042F8
:102EA00001D0012000E000206278C1F307239A429C
:102EB00001D0012200E000221043A278C1F30743B1
:102EC0009A4201D0012200E000221043E278B2EBE6
:102ED000116F01D0012100E00021084301D012252B
:102EE00001E000F0B1FD284638BD000070B50024B7
:102EF00001784278C37841EA02218278120442EADA
:102F00000362114302794379C57942EA0323827946
:102F1000120442EA0562134300F10802034800F07C
:102F200069FD00B11224204670BD00004B4E494C93
:102F300070B500244178027841EA02234179827811
:102F4000057941EA0261C278120442EA052211437E
:102F500000F10902034800F04DFD00B112242046A3
:102F600070BD00004B4E494C38B50446002500F0BA
:102F70006BFD684600F09CF9009820700098000AEC
:102F800060700098000CA0700098000EE070284659
:102F900038BD30B58DB0044600252C2101A8FDF7C1
:102FA000C4FA00F051FD0CA800F082F90C98000A58
:102FB00020700C9860708DF80C0020788DF80D0052
:102FC00001A800F05DFC00B112250DB0284630BD0F
:102FD00010B5002400F054FC00B11224034800F0A6
:102FE00029FC00B11224204610BD00004B4E494C74
:102FF0000E4900280AD001280DD0022810D003283D
:1030000003D1022048600120886070470220486098
:103010000120486070470220886001208860704766
:10302000022088600120486070470000C0F00F4017
:1030300070B50022C3780478857843EA0463447845
:10304000240444EA05242343074CA34203D1FFF799
:103050002FFE024605E0054CA34202D100F0D0FA53
:103060000246104670BD0000BADCCDABABCDDCBA79
:103070000121AFF3008010B50C4600F00BF80028DA
:1030800007D1012C05D100F075F8BDE8104000F023
:103090007FB810BD002806D0C06910B100680228B2
:1030A00003D06D207047042070470020704710B592
:1030B000002806D05B1E194201D11A4203D06520B8
:1030C00010BD042010BD03688B4206D8406811442F
:1030D0001844884201D3002010BD662010BD0000B6
:1030E0000349884201D06B207047002070470000E0
:1030F0006B66656B10B50D4C70212170FFF7CAFF30
:10310000002807D10A4920460968884720788106A7
:1031100001D5672010BDC10601D5682010BDC007CC
:1031200001D0692010BD002010BD00000000024049
:103130004400002070B505460E461446002D17D0F9
:10314000B4B120212046FDF7F0F92868301A20603C
:10315000E8686060297A6868B0FBF1F0A06004203C
:10316000E060082121616161A061E061002070BD23
:10317000042070BD30B40448044C0F23142264684A
:103180001905A44630BC604704F00140440000200B
:1031900030B40448044C012313226468D904A446C3
:1031A00030BC604704F0014044000020C178027840
:1031B000837841EA02614278120442EA0322114311
:1031C000184A914204D14179007941EA00207047C0
:1031D000154A914224D14079182803D00021D928DA
:1031E00013D000E001210022114332280FD0002229
:1031F00011432A280DD00022114335280BD000207E
:1032000001430AD04FF4806070470122ECE70122AD
:10321000EEE70122F0E70120F2E74FF4007070477B
:1032200000207047BADCCDABABCDDCBA10B51C22A8
:103230000021064B06E05C1894F8344000F8014B7E
:10324000491CC9B29142F6D3104610BDA4E3FF1F3A
:103250004FF48040006A411C00D1002070470000FC
:103260000148006970470000A4E3FF1F10B50C235C
:1032700000210B4A05E05418247A00F8014B491C40
:10328000C9B29942F7D32023002105E05418247DC8
:1032900000F8014B491CC9B29942F7D32C2010BD4C
:1032A000A4E3FF1F0148C06870470000F4E3FF1F5C
:1032B00010B5044603488168406800F0DDF82060DE
:1032C000002010BD90E3FF1F70B53D4C606920F0F9
:1032D000100060613B49A0150861616D21F4003167
:1032E000616539494864C8648002A0646065344DF2
:1032F0000122C03511462846FDF702FDD4F8D4005E
:1033000040F00200C4F8D400012200212846FDF755
:10331000F7FCD4F8D40040F00100C4F8D400012236
:1033200005212046FDF7ECFC183454F8040C40F05D
:10333000200044F8040C224D012240350321284688
:10334000FDF7DEFCE06B40F00800E06301220221A3
:103350002846FDF7D5FCE06B40F00400E063184E12
:103360000022803601213046FDF7CAFCE06F40F0B4
:103370000200E067012212212846FDF7C1FCE06B44
:1033800040F48020E063012213212846FDF7B8FCB9
:10339000E06B40F40020E063012202213046FDF79B
:1033A000AFFCE06F40F00400E067012203213046EB
:1033B000FDF7A6FCE06F40F00800E06770BD00007C
:1033C00000F00F400090044000A0044010B5EFF35F
:1033D000108000F0010472B60C484CF22051C181FB
:1033E0004DF62811C181018821F0010101803421AD
:1033F0000748FDF79AF80648FDF74EFB08B1012093
:1034000010BD04B962B6002010BD000000200540C8
:10341000B40A002070B505460E46002407E02819BE
:1034200000F00AF808B1012070BD04F50064B44250
:10343000F5D3002070BD000070B50546EFF3108095
:1034400000F0010472B60A4E0A4B29463046F26873
:10345000FDF7DAFA28B9002329463046F268FDF76D
:10346000B9FB04B962B608B1012070BD002070BD7F
:10347000B40A00206B66656B30B50446002000235B
:103480000BE0E258D5B22844C2F307252844C2F322
:103490000745284400EB12601B1D8B42F1D330BD61
:1034A000F0B5ADF20C4D05460E4617464FF480615F
:1034B00003A8FDF73AF8A80703D001200DF20C4D40
:1034C000F0BD3A46314603A8FDF716F8EFF3108039
:1034D00000F0010472B63B4603AA29460A48FDF7EC
:1034E00029FB50B900200121CDE90010029033469C
:1034F0003A4629460448FDF7B5FB04B962B608B15F
:103500000120DBE70020D9E7B40A002030B585B000
:1035100005460E4C2046FFF78FFF10B1012005B085
:1035200030BDFF2214216846FCF7F8FF142229461B
:103530006846FCF7E1FF142269462046FFF7B0FF1A
:1035400008B10120EBE70020E9E7000000F80100E6
:1035500010B50D4A50609160D16080F3088880F307
:1035600009880A480A4A406820F07F0010604FF03E
:10357000E020026922F001020261064A0020107078
:10358000884700BF10BD00000C0000207CE3FF1F37
:1035900008ED00E084200740FDF744F8FDF70EF841
:1035A000FDF73EF800F08EF9FFF752FE00F0C2F989
:1035B00008B1FFF74DFAFFF787FE0220FFF718FD6D
:1035C000FFF75CFA00F064FA012000F057FA00F00F
:1035D0004BFA0028FBD00820074948602020064904
:1035E0004039886000F0A6F90028FBD00A20FFF7D8
:1035F00007FCFFF72DFAF5E740F00F407047000099
:103600002DE9F04100254FF40077644CE0600B4653
:1036100021610178BA2901D0012100E0002142781E
:10362000DC2A01D0012200E0002211438278CD2A59
:1036300001D0012200E000221143C278AB2A01D060
:10364000012200E0002211434FF0000601D00125C5
:103650006AE00179522901D0022565E021714179A2
:1036600061718179C07941EA0020E0804FF480687F
:1036700041461846FCF759FF607933284DD00CDCE1
:10368000282831D004DC012810D027284CD133E081
:10369000312838D0322847D137E0D72808D0D82869
:1036A0000ED0D92811D0DA283ED116E0E6803BE0D2
:1036B0002069083000F0A4F805460820E08033E0D7
:1036C000374800F075F9E6802EE0E0680830FFF733
:1036D000B9FB05464746E68026E0E0680830FFF77C
:1036E000D3FB0546E6801FE02069083000F099F81A
:1036F00005462C20E08017E0E0680830FFF768FC02
:103700000546E68010E0E6800EE0E0680830FFF74E
:10371000EDFB05464746E68006E020690830FFF7E6
:1037200023FC05460420E0802169BA200870216945
:10373000DC2048702169CD2088702169AB20C870D9
:10374000216952200871216960794871F420207242
:103750002DB1012D02D120694671E68025722169C3
:10376000A0798871E0882169000AC871E28821691E
:10377000207A11440872E08821690930FFF7BAF90C
:103780006081E288216911444872E2882169608978
:103790001144000A88723846BDE8F081A00A002072
:1037A0004C46464FEFF3108202F0010272B60368F6
:1037B0000B400360002A00D162B67047EFF310821D
:1037C00002F0010272B603680B430360002A00D1C5
:1037D00062B67047EFF3108202F0010272B603681E
:1037E0004B400360002A00D162B6704710B5002438
:1037F0000930FFF71BFD1C2800D01124204610BD06
:1038000010B50446FFF724FD2070010A6170010C19
:10381000A170000EE070002020716071A071E07155
:1038200010BD10B50024FFF721FD2C2800D0112475
:10383000204610BD10B50549C8600846FFF766FE72
:1038400008B1012010BD002010BD0000F4E3FF1FEF
:1038500070B51C220021094B06E05D1810F8014BE1
:1038600085F83440491CC9B29142F6D30348FFF7AA
:10387000DDF908B1012070BD002070BDA4E3FF1F79
:1038800070B50C2300210E4A05E0551810F8014BC5
:103890002C72491CC9B29942F7D32023002105E0BC
:1038A000551810F8014B2C75491CC9B29942F7D331
:1038B0000348FFF7BBF908B1012070BD002070BDBF
:1038C000A4E3FF1F10B5FFF781FD502213491448F0
:1038D000FCF712FE11491248142250315030FCF707
:1038E0000BFE10480068104CA04204D150220D4934
:1038F0000B48FCF701FE0A4804600C480068A0422F
:1039000005D10748142209495030FCF7F5FD044859
:10391000503004600649416010BD0000E03A0000EC
:10392000A4E3FF1F00F00100646C766B00F8010057
:1039300032324B4D2DE9F0410027FFF7B3FC15491A
:10394000154D884207D14FF4804068604000A86060
:103950000120BDE8F0811149884218D14FF4983612
:103960004FF4404831464046FFF786FD84B2FFF7EA
:1039700077FCA04206D00020FFF75CFFFFF712F9AA
:103980003846E6E7C5F80480AE600120E1E7002094
:10399000DFE700004C46464F7CE3FF1F4B4E494C8F
:1039A000884203D3904201D801207047002070471D
:1039B00010B50446FFF70AFD08B1012010BD0A4901
:1039C0000A488C4205D14FF4804141604900816032
:1039D00008E007498C4205D14FF4404141604FF463
:1039E00098318160002010BD4C46464F90E3FF1F88
:1039F0004B4E494C2DE9F04184460D4616461F4674
:103A00000F4C207800280ED16046FFF7D1FF0D48FB
:103A100081684068FFF7FEFCC0B210B10120BDE82C
:103A2000F08101202070207840B13A463146284686
:103A3000FFF736FDC0B208B10120F0E70020EEE745
:103A40000C00002090E3FF1F014900200870704720
:103A50000C00002010B500F017F8FDF7C1FBBDE821
:103A60001040FDF731BD000003484078002801D028
:103A70000120704700207047D0E0FF1FFDF758BDC0
:103A80000020704700207047704770477047000063
:103A900010B505490020C870FFF7DCFFFEF735FBC5
:103AA000BDE81040FEF7E2BAD0E0FF1F06480178FB
:103AB0000648C1800021017041704FF00112826000
:103AC000C1600161704700008A3B0000D0E0FF1F29
:103AD000030000000000030100127A000D04000141
:103AE00000000000000000000000000000000000D6
:103AF00000000000000000000000000000000000C6
:103B000000000000000000000000000000000000B5
:103B100000000000000000000000000000000000A5
:103B20000000000000000000000000000000000095
:103B30000000000000000000000000000000000085
:103B4000000000008021017002780A42FCD070471A
:103B500010B5002905D004688C43934019402143D7
:103B60000160BFF36F8FBFF34F8F10BD08001000CF
:103B7000180020003000400060008000C0000001FC
:103B8000800100020003000400060000040040035E
:103B900002020100400040004000010140004000DE
:103BA00001020404400040004000400001014000C8
:103BB0001529000000000000000000003529000069
:103BC000000000002116000095140000791C000080
:103BD0009B1100007D1100000000000000000000AB
:103BE00000000000000000000000000000000000D5
:103BF00000000000000000000000000000000000C5
:103C0000000000002B150000000000000000000074
:103C10000600FF0901A101150026FF007508954067
:103C20000901810295400901910295010901B10242
:103C3000C0002100540012010002EF020140280DD3
:103C400004020010010203010000090282000401C5
:103C50000080FA0904000002FF0000070705810246
:103C600040000007050102400000090403000203B0
:103C7000000006092100010001222100070582033E
:103C800040000107050203400001080B0102020287
:103C900001040904010001020201040524001001CD
:103CA0000524010302042402060524060102070577
:103CB000830310002009040200020A000005070522
:103CC00004024000000705840240000000000000DC
:103CD000040309040E0345005300530045004D0042
:103CE00049001203450053004C0069006E006B0050
:103CF000490049001A033000300030003100410013
:103D0000300030003000300030003000410022032D
:103D10006D006200650064002000530065007200C1
:103D2000690061006C00200050006F007200740098
:103D300022036D00620065006400200053006500EE
:103D40007200690061006C00200050006F0072007A
:103D50007400140343004D005300490053002D002C
:103D60004400410050001603450053005300450035
:103D70004D0049005F0049004300440012034D001C
:103D8000530046005400310030003000970000001E
:103D9000D03D000000E0FF1F480100006405000066
:103DA000483E000000000020A0000000322A000071
:103DB000483E000048E1FF1F1C040000422A0000AA
:103DC000E83E0000A0000020D8110000422A0000B8
:103DD00001113280031D093D1A550151428E130114
:103DE0000512012A84093112281244126512761232
:103DF000691A63081249126E1A7408127212663A2E
:103E0000611212471A55163244324E127B12461274
:103E100037123012321A34041A430C1A2D121A4275
:103E20000C1A350A1A34021A330E122D12391A4599
:103E30001C1A450A3A412A1A36341A461C1A370403
:103E400012391A381202807D0000000000000000C4
:103E50000000000000000000000000000000000062
:103E60000000000000004001000000000000000011
:103E70000000000000000000000000000000000042
:103E80000000000000000000000000000000000032
:103E900000000000280000000001040001000000F4
:103EA00000000000000157494E5553420000000039
:103EB0000000000000000000000000000000000002
:103EC00000000000000000000000000000000000F2
:103ED00000000000000000000000000000000000E2
:083EE0000000000000000000DA
:0400000500000411E2
:00000001FF
