:020000040000FA
:1000000000400020250400003D040000C112000053
:10001000410400004304000045040000000000000B
:100020000000000000000000000000004704000085
:1000300049040000000000004B040000C916000045
:100040004F04000053040000570400005B0400004C
:100050009704000097040000970400009704000034
:100060009704000097040000970400009704000024
:100070009704000097040000970400009704000014
:100080005F0400009704000097040000970400003C
:1000900097040000970400009704000097040000F4
:1000A00063040000670400006B0400006F0400009C
:1000B00073040000770400007B0400007F0400004C
:1000C00083040000BD1700008B0400008F040000B3
:1000D00093040000970400009704000097040000B8
:1000E00097040000970400009704000097040000A4
:1000F0009704000097040000970400009704000094
:100100009704000097040000970400009704000083
:100110009704000097040000970400009704000073
:1003F000970400009704000097040000FFFFFFFF30
:10040000FFFFFFFFFFFFFFFFFFFFFFFFFEFFFFFFFD
:10041000DFF80CD000F0C6F800480047A122000029
:100420000040002072B61D481D4901600A6882F331
:1004300008881C48804762B61B480047FEE7FEE775
:10044000FEE7FEE7FEE7FEE7FEE7FEE7FEE717480A
:100450000047174800471748004717480047174804
:1004600000471748004717480047174800471748F4
:1004700000471748004717480047174800471748E4
:1004800000471748004717480047174800471748D4
:1004900000471748004717480047000008ED00E0F4
:1004A000000000000917000011040000970400007C
:1004B00097040000970400009704000097040000D0
:1004C000FD1200001513000099160000B11600007F
:1004D00097040000970400009704000061170000D3
:1004E00097040000A5170000970400008118000081
:1004F000970400009704000040EA01039B0703D023
:1005000009E008C9121F08C0042AFAD203E011F852
:10051000013B00F8013B521EF9D27047D2B201E014
:1005200000F8012B491EFBD270470022F6E710B5F8
:1005300013460A4604461946FFF7F0FF204610BD51
:100540002DE9F05F0546002092469B468846064608
:10055000814640241BE0284641464746224600F09B
:1005600042F853465A46C01A914110D311461846D4
:10057000224600F029F82D1A67EB01084F46224663
:100580000120002100F020F817EB00094E41201E49
:10059000A4F10104DFDC484631462A464346BDE863
:1005A000F09F0000064C074D06E0E06840F00103B4
:1005B00094E8070098471034AC42F6D3FFF72CFFBD
:1005C000843B0000A43B0000202A04DB203A00FA10
:1005D00002F1002070479140C2F1200320FA03F39A
:1005E000194390407047202A04DB203A21FA02F098
:1005F0000021704721FA02F3D040C2F1200291405D
:10060000084319467047000038B500BF104811492B
:10061000486400BF104800F049FB0F4908680F49C3
:10062000086000BF0E480F4C00906379A2792179D1
:10063000E07900F00FF90C4800F0ECFB0B480C4996
:1006400008600C494FF4E02000F038F938BD000094
:10065000000007110080044028280000140000203A
:100660007B08000018280000202800000087930362
:1006700008000020006CDC027047000010B56E48D6
:1006800000F004F96C48401C00F000F96A48801C36
:1006900000F0FCF86848C01C00F0F8F86648001D3F
:1006A00000F0F4F807220021644800F0EDFF012279
:1006B0001146624800F0E8FF604840686049084021
:1006C0005E49486003220C215C4800F0DDFF0322F4
:1006D0000D215A4800F0D8FF00221221574800F09F
:1006E000D3FF00221321554800F0CEFF0122022142
:1006F000524800F0C9FF51488068514908404F49AD
:100700008860072203214D4800F0BEFF012204212A
:100710004A4800F0B9FF494800694949084047493B
:10072000086101220521454800F0AEFF43484069B9
:1007300043490840801C4149486102220021414848
:1007400000F0A2FF022201213E4800F09DFF04229A
:1007500010213C4800F098FF01221221394800F096
:1007600093FF01221321374800F08EFF012202215E
:10077000344800F089FF01220321324800F084FF51
:1007800000221146304800F07FFF002201212E4850
:1007900000F07AFF01220A212B4800F075FF0122A8
:1007A0000221294800F070FF01220321264800F0B1
:1007B0006BFF01220421244800F066FF012208217A
:1007C000214800F061FF012209211F4800F05CFF71
:1007D000012200211D4800F057FF012211461B484D
:1007E00000F052FF03220221184800F04DFF0122C1
:1007F0000321164800F048FF01220421134800F0AD
:1008000043FF07220521114800F03EFF0722062181
:100810000E4800F039FF072211460C4800F034FF63
:100820000B48C06820F003700949C8600846006999
:1008300020F03000086110BD09003810009004401D
:10084000FDFFFFFE00A0044000B0044000C00440D3
:10085000008004402DE9F04107460C4615461E462F
:10086000DDF81880384600F05BFA434632462946E8
:10087000204600F073FABDE8F08147F2305000E006
:1008800000BF011EA0F10100FAD17047044A02EB3B
:1008900010410A68012383401A430A607047000030
:1008A00000700440044A02EB10410A6801238340AF
:1008B0001A430A60704700000070044070B5024699
:1008C00001242748274D05EB10431D68012686406B
:1008D000B5431D6000BF32B92348406820F4802032
:1008E000214B586023E02148084490B1204B184424
:1008F00058B1184428B1184478B909201A4B9864A3
:100900000DE00220184B986409E00520164B98640E
:1009100005E00020144B986401E0002400BF00BFF4
:100920001148406820F4E02010430F4B58600C48F9
:100930000C4D05EB10431D680126864035431D60B4
:1009400000BFB2F5E02F09D103200A4B18700A4806
:1009500090F8400140F080001B1F1870204670BDC9
:10096000120034100070044000800440009423FD05
:1009700000CA91FE442107400020074000B51048FE
:100980000068C0F3814020B102280DD0032811D1A6
:100990000DE000F03DF9B0F5004F02D14FF40040FA
:1009A00000E00020014607E00648016804E04FF43B
:1009B0007A7101E0002100BF00BF084600BD0000C1
:1009C000007004401800002010B500F063F80446E1
:1009D00034B100F03BF9B4EBD00F01D8204610BD84
:1009E0000020FCE72DE9F04100F0E2F8044614B9DC
:1009F0002046BDE8F08116480078C0F3C205EC40FF
:100A000013484078C0F301171148007B00F003063B
:100A100007B10EB1022E19D1082D14D2DFE805F06E
:100A20000405060708090B0F00BF00BF00BF00BF89
:100A300000BF640909E01420B4FBF0F405E00C20C9
:100A4000B4FBF0F401E0002400BF00BF2046D0E773
:100A50000040064070B50D48407800F0020008B133
:100A6000002070BD00F016F804460CB92046F8E7E7
:100A70000648C078C0F341150448C078C609044848
:100A800000EB850030F816006043EAE700400640BE
:100A9000B03A000010B505488079C0F3001010B9D5
:100AA000FFF7A0FF10BD02480068FBE700400640CA
:100AB0000C00002070B50546142D4BD2DFE805F080
:100AC0000A0B154A1F4A292D464A423135394A4AEE
:100AD0004A4A3D3F00BF00F0B9F82149496C012264
:100AE00002EB1171B0FBF1F436E000F0AFF81C49F5
:100AF000496CC1F30361491CB0FBF1F42CE000F038
:100B0000A5F81749496CC1F30341491CB0FBF1F446
:100B100022E000F0B5F804461EE0FFF72FFF044680
:100B20001AE0FFF751FF044616E000F01DF80446F6
:100B300012E0FFF78FFF04460EE00A4C0CE04FF482
:100B40007A7409E000F064F8044605E000F04EF81D
:100B5000044601E0002400BF00BF204670BD000035
:100B600000800440006CDC0210B50548007800F0FD
:100B7000020008B9002010BD00F004F8FBE70000F7
:100B8000004006400748807900F0010010B906488F
:100B9000006870470348007AC0F3420103480068C8
:100BA000C840F6E7004006400C000020100000207E
:100BB0000A49097B01F0030121B1012905D002296D
:100BC00008D105E00649086806E00649086803E020
:100BD000054801E0002000BF00BF7047004006400C
:100BE0001400002018000020006CDC020648007889
:100BF00000F0800030B10448807881090348006823
:100C0000C84070470020FCE7005006401400002058
:100C10000448007800F0800010B103480068704775
:100C20000020FCE70050064014000020014649F671
:100C30009702914201D8002005E0034A914201D871
:100C4000012000E00220704700127A0010B50B4925
:100C50008979C1F3810424B1012C05D0022C09D17A
:100C600005E0FFF7F7FE07E0FFF78CFF04E0FFF772
:100C70009FFF01E0002000BF00BF10BD0040064004
:100C800010B508494968C1F3014111B1032905D1E3
:100C900002E0FFF7DFFE03E0034801E0002000BFB1
:100CA00000BF10BD00800440006CDC0270B504463B
:100CB0002068FFF7BBFF054617482279017821F02D
:100CC0000F011143017000BF00BF017821F0A001A6
:100CD000A27911430170E279C02303EA8212827083
:100CE00000BF0E48407820F03C00302101EA051199
:100CF00008436179084309494870607958B106484A
:100D0000007800F0800030B100BF0448807900F026
:100D100002000028F9D070BD005006400040064097
:100D200010B501460C48007B00F00300884201D05A
:100D3000012200E000220848007B61F30100064C1C
:100D400020733AB140F2DC5300E000BF181EA3F15B
:100D50000103FAD1002010BD004006402DE9F04704
:100D600006460F4690461D464FF000092848C478B5
:100D70008079C0F3001038B14FF001092448C078E1
:100D800080F020002249C8702148007820F0FC0142
:100D9000382000EAC60001431D480170007B00F0C6
:100DA000030058B91A48407800F0040030B100BF81
:100DB0001748807900F002000028F9D000BF1448DD
:100DC0008079C0F300100028F9D1B9F1000F01D0EB
:100DD0000F48C470802000EAC710602101EA481162
:100DE000084324F0E00140EA01040948C47000BF50
:100DF0000748C078A042FBD100BF05488079C0F306
:100E000081000028F9D105B1A8470020BDE8F0878E
:100E100000400640094A416851640178526861F314
:100E20001142064B5A6000BF4178054A126861F3CF
:100E30009342034B1A6000BF7047000000800440DB
:100E40000070044070B504460D46204600F036F8A8
:100E500028B129462046094A1268904704E02946ED
:100E60002046074A1268904700BF00BF00BFBFF38B
:100E70004F8F00BF00BF00BF70BD000038000020D2
:100E80003C00002021B1026822F48042026003E0AD
:100E9000026842F480420260704700000146002070
:100EA00006E0054A52F820208A4200D102E0401CA8
:100EB0000228F6D300BF7047703B00000146086867
:100EC000C00F70472DE9F84305460C4616462846E4
:100ED000FFF7E4FF3F4951F820804046FFF7E2FC6E
:100EE00001212846FFF7CEFF284600F0D3F9012163
:100EF000284600F0B3F92868374900EA0107A07FC7
:100F00004FF0804101EA8070384394F820104FF090
:100F1000806202EA81610843E17F921002EA016186
:100F2000084394F821104FF4407202EA012108436B
:100F30002860627F217F284600F095F921783346AA
:100F40002846626800F04AF800B900BF217805F130
:100F50000C0050F8210020F0FE47207A401E4FF090
:100F6000F04101EAC0603843217B4FF0806202EA21
:100F700081610843617B521002EA41610843A17B11
:100F8000521002EA01610843227805F10C0141F890
:100F9000220020690090217833460122284600F083
:100FA000E1F860690090217833460222284600F07B
:100FB000D9F8A0690090217833460322284600F032
:100FC000D1F80021284600F03DF9284600F05DF9EF
:100FD000BDE8F8837C3B0000FFCCFFBA2DE9FF4F52
:100FE00087B081468A464846FFF768FF18B9002057
:100FF0000BB0BDE8F08FDDF824B04FF0FF350020D6
:10100000059004900120039000200290002427E026
:10101000002620E0012719E01F4850F824101F483F
:1010200050F8260041430A987843B0FBF1F8C345D5
:101030000BD3ABEB080001900198854205D9019DC7
:1010400005940496CDF8088003977F1C032F01D2E6
:10105000002DE1D1761C102E01D2002DDAD1641CB6
:10106000042C01D2002DD3D109F10C0050F82A0034
:101070000B49084006900398411E069840EAC1714A
:10108000059841EA00400499084309F10C0141F830
:101090002A000298ACE70000D03A0000E03A0000D5
:1010A000F0FFFC7F2DE9F04104460D4616461F4631
:1010B000DDF818802046FFF701FFB8B3B8F1010F43
:1010C00006D0B8F1020F1AD0B8F1030F45D12EE0C7
:1010D00004F10C0050F8250020F4400020F470408A
:1010E0004FF4400101EA865108434FF4704101EA90
:1010F0000731084304F10C0141F825002EE004F10A
:101100000C0050F8250020F4401020F470604FF4DB
:10111000401101EA065108434FF4706101EA0721CA
:10112000084304F10C0141F8250017E017E004F131
:101130000C0050F8250020F4402020F0F0004FF47F
:10114000402101EA86410843F02101EA07110843E2
:1011500004F10C0141F8250000E000BF00BFBDE82C
:10116000F08100002DE9FF4F85B091461D46DDF866
:1011700048A00598FFF7A2FE18B9002009B0BDE805
:10118000F08F4FF0FF38032004904FF00F0B2948E9
:10119000B0FBF5F1284A049852F82000484327494B
:1011A00051F82B104843800803902548B0FBF5F018
:1011B000400001900198504509D300231A46CDF80C
:1011C0000090DDE90501FFF76DFF0198D6E70024E7
:1011D00021E0002619E01748B0FBF5F0164951F858
:1011E00024104843154951F82610484387085745AD
:1011F0000AD3A7EB0A0002900298804504D9DDF8D3
:1012000008800494B3460397761C102E02D2B8F1DE
:10121000000FE0D1641C042C02D2B8F1000FD8D129
:101220005B46CDF80090DDE904200699FFF73AFF10
:101230000398A3E700286BEE203B0000303B000042
:1012400000CA9A3B30B504460B462046FFF726FEFF
:1012500005460148435530BD40000020026861F357
:10126000DF720260704710B513460268012B05D18A
:101270004FF47C1404EA0144224304E04FF47C144C
:1012800004EA0144A243026010BD016821F001019B
:1012900001607047016841F00101016070471AB9AF
:1012A00001238B40836002E001238B404360704741
:1012B000816070478160704741607047416070474E
:1012C00005A000F0E9FA00BFEFF30980044601F041
:1012D0004BF900BFFEE700000D0A2048617264462A
:1012E00061756C745F48616E646C657220696E74C0
:1012F000657272757074210D0A00000010B5034804
:101300000168034800F012F810BD00002000002022
:101310000060064010B503484168034800F006F835
:1013200010BD0000200000200070064070B504468B
:101330000D46E07800F0100018B9A07800F0200009
:1013400028B129462046094A1268904704E02946F8
:101350002046074A1268904700BF00BF00BFBFF396
:101360004F8F00BF00BF00BF70BD000028000020ED
:101370002C000020002020E00A2100EB4002154B49
:1013800003EB82021171C82100EB400203EB8202E1
:101390009171002100EB400203EB820251710521A3
:1013A00000EB400203EB8202D171002100EB40020E
:1013B00003EB82021172411CC8B20128DCDB01215F
:1013C000044A9172022151720321D17202491160C3
:1013D0007047000064000020DD21000070B500248B
:1013E00018E004F1B001C8B201F036F8002001F0B5
:1013F00033F8102001F030F8002507E0074901EB31
:10140000C411485D01F06CF8681CC5B2802DF5DB95
:10141000601CC4B2082CE4DB70BD0000B4020020E4
:1014200070B5064600240BE0002505E0094800EBF6
:10143000C4104655681CC5B2802DF7DB601CC4B2D1
:10144000082CF1DB04480078012801D1FFF7C6FF22
:1014500070BD0000B4020020060000202DE9FF4FFF
:101460009BB016469946002400F008F9102005901C
:10147000069020254E480290DFF838818DE096F8DE
:1014800000B0BBF1800F14DA019505EBD570431065
:10149000009502980BFB030105EBD570421008A8DC
:1014A000FFF72AF8069800EBD071C1F347010791C6
:1014B00032E0701C064600781A901A9800B970E065
:1014C000002725E0A81C07FB00F4781CC7B218F819
:1014D000040058450DD1601C18F800101A9881427C
:1014E00007D1A41C08EB04012A4608A8FFF704F85A
:1014F0000FE018F80400FF280AD1601C18F800005B
:10150000FF2805D1FF22294608A8FFF707F800E0C9
:10151000D8E700BF069807901C980390002730E09A
:101520001B9804904FF0000A22E0079841000698AB
:1015300091FBF0F0784300EBDA0008A9085C0AF0B0
:10154000070280211141084030B199F80220DDE9FD
:10155000031000F03BF805E099F80420DDE90310E2
:1015600000F034F80498401C80B204900AF1010A9B
:1015700007988245D9D30398401C80B20390781C09
:10158000C7B205988742CBDBB9F80610079801442B
:101590001B98084480B21B90761C307800287FF49A
:1015A0006EAF00BF00F008F81FB0BDE8F08F00007C
:1015B0008A2A0000E029000010B5012002490870C5
:1015C000FFF70CFF10BD0000060000202DE9FF47CB
:1015D00080460C46914623A103C9CDE9020123A10F
:1015E00003C9CDE900012046E11704EB5171C1F3B5
:1015F000C70708F0FF061F4800EBC710855DB9F16B
:10160000000F0AD12046E11704EB5171C910A4EB79
:10161000C1011DF801100D4009E02046E11704EB5F
:101620005171C910A4EBC10102AA515C0D431148CC
:1016300000EBC710855510480078012810D107F13C
:10164000B001C8B200F008FF06F00F0000F004FF80
:10165000102101EB161000F0FFFE284600F040FFBD
:10166000BDE8FF870102040810204080FEFDFBF763
:10167000EFDFBF7FB40200200600002000200149F8
:10168000087070470600002050F8213062F30A23EA
:1016900040F821307047000010B503480168034846
:1016A000FFF7D0FB10BD00003000002000C002405A
:1016B00010B5034841680348FFF7C4FB10BD0000A4
:1016C0003000002000D0024010B50C48006840B146
:1016D0000A480068401E0949086010B901200849FD
:1016E000087008480078401CC0B2064908700A28F3
:1016F00003DB0020087000F005FE10BD0000002094
:1017000004000020050000200848006840F4700034
:10171000064908604CF220500549C8814DF6281052
:10172000C8814FF4E97008807047000088ED00E040
:101730000020054010B5074801680748074A1268AD
:10174000904700BF00BF00BFBFF34F8F00BF00BF77
:1017500000BF10BDB406002000A006401C00002001
:1017600010B5FFF7E7FF00BF00BF00BFBFF34F8F0B
:1017700000BF00BF00BF10BD10B507484168074853
:10178000074A1268904700BF00BF00BFBFF34F8FEA
:1017900000BF00BF00BF10BDB406002000B006406F
:1017A0001C00002010B5FFF7E7FF00BF00BF00BF1F
:1017B000BFF34F8F00BF00BF00BF10BDF8B5224878
:1017C0000479C07800F0200008B924F020041E48F5
:1017D000C07800F0800008B924F0800404F0800094
:1017E00070B11A4800F0BDFB1749C871174800F0E6
:1017F00089FB28B91448C07820F080001249C870CD
:1018000004F02000F0B104F0040010B904F002006C
:1018100018B10D48C079009014E00B48C6790C4807
:1018200000F05AFB0546132D04D93146084800F054
:10183000B4FB06E0064800F094FB3146044800F093
:10184000ACFB00BFF8BD000000B0064094000020D3
:10185000A401002010B5074881680748074A1268AC
:10186000904700BF00BF00BFBFF34F8F00BF00BF56
:1018700000BF10BDB406002000C006401C000020C0
:1018800010B5FFF7E7FF00BF00BF00BFBFF34F8FEA
:1018900000BF00BF00BF10BD0FB4054B10B503A9BA
:1018A000044A029800F018F810BC5DF814FB000020
:1018B000A52000004400002002E008C8121F08C153
:1018C000002AFAD170477047002001E001C1121FC1
:1018D000002AFBD1704700002DE9FF4F8DB00F4665
:1018E0000546002606E025280BD0DDE90F129047BB
:1018F0006D1C761C28780028F5D111B03046BDE863
:10190000F08F0024A246A1460122EC4900E00443E6
:1019100015F8013F203B02FA03F00842F7D128787E
:101920002A2810D06FF02F022878A0F13001092961
:1019300014D80AEB8A0102EB410144F0020400EBE7
:10194000010A6D1CF0E701CF5FEA000A03D544F4F9
:101950000054CAF1000A44F002046D1C28782E28B5
:1019600017D115F8010F44F004042A280ED06FF0A7
:101970002F022878A0F1300109290AD809EB890142
:1019800002EB410100EB01096D1CF2E757F8049BE3
:101990006D1C28786C280FD006DC4C2817D06828DE
:1019A0000DD06A2814D104E0742810D07A280FD101
:1019B0000DE044F400140AE044F4801401E044F41F
:1019C00040146978814202D104F580146D1C6D1CAD
:1019D0002A786E2A1FD00CDC632A31D004DC002A5E
:1019E0008BD0582A11D1A3E0642A68D0692A0CD17F
:1019F00065E0732A2ED004DC6F2A73D0702A04D1DC
:101A00009BE0752A6FD0782A6ED01046DDE90F1260
:101A10009047761C50E1C4F30250022806D00328F8
:101A200009D0042801CF09D0066045E101CFF117A4
:101A3000C0E9006140E101CF06803DE106703BE175
:101A400017F8040B8DF8000000208DF80100EB461C
:101A5000012003E057F804BB4FF0FF3061074FF05F
:101A6000000102D40DE008F10101884649450FDA72
:101A70008045F8DB1BF808100029F4D108E008F1D4
:101A8000010188468142FADB1BF808100029F6D1D3
:101A9000DDE90F23AAEB08008146214600F036F964
:101AA000304400EB080604E0DDE90F121BF8010BDF
:101AB0009047B8F10108F7D221464846F7E00A21DD
:101AC000C4F302534FF0000B0891022B04D001CF56
:101AD000C117032B09D00AE0FF1D27F00707F7E81D
:101AE000020108E032E01FE020E000B2C117042B41
:101AF00001D140B2C117031E71F1000307DA4FF0A4
:101B0000000CD0EB0C006CEB01012D2302E023054F
:101B100004D52B238DF82430012303E0E30701D003
:101B20002023F7E7984658E00A2110E010210EE044
:101B300010204FF0000B08900CE010214FF0000B2C
:101B400044F004044FF00809089103E008214FF025
:101B5000000B0891C4F30253022B04D001CF0021E3
:101B6000032B06D006E0FF1D27F00707F7E8020168
:101B700003E080B2042B00D1C0B24FF0000823076D
:101B80002BD5702A07D0DDF820C08CF0100C5CEA51
:101B90000B0C05D00EE040238DF82430012308E023
:101BA00050EA010306D030238DF824308DF825202B
:101BB00002239846DDF820C08CF0080C5CEA0B0C80
:101BC0000BD150EA010301D1630706D530238DF80C
:101BD00024304FF00108A9F10109582A04D038A295
:101BE0000B9208AA0A920BE03AA2F9E75B46089A20
:101BF000FEF7A6FC0B9B9B5C0A9A521E0A9213707E
:101C000050EA0102F2D10A98ADEB000000F1200B7E
:101C1000600702D524F4803401E04FF00109D94572
:101C200002DDA9EB0B0000E0002000EB0B014144BA
:101C30000890AAEB010AE00306D4DDE90F23214650
:101C4000504600F063F806444FF0000908E009A987
:101C500011F80900DDE90F12904709F10109761C1E
:101C6000C145F4DBE0030CD5DDE90F2321465046E6
:101C700000F04CF8064404E0DDE90F1230209047F4
:101C8000761C0899481E08900029F5DC08E00A989F
:101C90000A990078491C0A91DDE90F129047761CD9
:101CA000BBF10001ABF1010BF1DC21465046DDE94F
:101CB0000F2300F019F806446D1C1BE609280100EB
:101CC00030313233343536373839616263646566B2
:101CD0000000000030313233343536373839414274
:101CE00043444546000000002DE9F041044600252C
:101CF0001E461746880404D405E039462020B04724
:101D00006D1C641EF9D52846BDE8F0812DE9F0412F
:101D1000044600251E469046C80301D5302700E042
:101D20002027880404D505E041463846B0476D1C9D
:101D3000641EF9D52846BDE8F081000001B5009881
:101D400000B908BD0098012801D1022000900120AF
:101D500080F3108800BF0A490098086000200949F4
:101D6000087000BF80F3108800BF04E005480078C9
:101D7000012800D100E0F9E700BF00BFE1E7000063
:101D8000000000200400002070B5054605EB45006A
:101D9000384901EB8004207A062866D2DFE800F09B
:101DA000030B16304C622068804718B10120207266
:101DB000002060715CE02068804720B10220207222
:101DC0000020607101E00020207251E0206880470F
:101DD00098B16079401C60716079217988420EDB8E
:101DE00004F10A0000F050FAA079002802DD032077
:101DF000207204E00520207201E00020207237E00C
:101E000020688047A8B16079401C60716079A17931
:101E1000884210DB04F10B0000F036FAE07900286C
:101E200004DD042020720020607104E0052020728F
:101E300001E0052020721BE02068804778B16079BE
:101E4000401C60716079E17988420ADB04F10A0084
:101E500000F01AFA042020720020607101E00520D1
:101E6000207205E00020207202E00020207200BFF6
:101E700000BF70BD6400002030B5144800684FF406
:101E80007A72B0FBF2F1481EB0F1807F00D31BE004
:101E9000481E4FF0E022506150170F22002804DB4B
:101EA00013071C0E0A4B1C5406E013071D0E094BAA
:101EB00000F00F04241F1D5500BF00204FF0E0224A
:101EC00090610720106100BF30BD000008000020B5
:101ED00000E400E018ED00E070B5044600BFEFF349
:101EE000108101F0010072B600BF0546204600F0E7
:101EF00009F8A168081A461E284600B962B600BF54
:101F0000304670BD10B5014600BFEFF3108404F0F9
:101F1000010372B600BF1A46D1E90043A34203D3BE
:101F2000D1E90043181B04E0D1E9013423440C68D3
:101F3000181B134603B962B600BF10BD30B500BF11
:101F4000EFF3108505F0010472B600BF2346C160AF
:101F500082600024046044601C4604B962B600BF7D
:101F600030BD10B5014600BFEFF3108404F001004E
:101F700072B600BF02460C68C868035D0868401C62
:101F800008608C680868A04201D3002008601046F1
:101F900000B962B600BF184610BD10B500BFEFF320
:101FA000108404F0010372B600BF1A464468C36887
:101FB000195543685B1C4360D0E90134A34201D347
:101FC00000234360134603B962B600BF10BD2DE97C
:101FD000F04180460E4617464046FFF793FF054600
:101FE000AF4201D2384600E028460546002404E00E
:101FF0004046FFF7B6FF3055641CAC42F8D3284684
:10200000BDE8F0812DE9F04180460E461746404676
:10201000FFF762FF0546AF4201D2384600E028468E
:102020000546002404E0315D4046FFF7B6FF641C1E
:10203000AC42F8D32846BDE8F081000010B5014657
:102040004FF6FF7388B2164C606305E0181EA3F1CB
:10205000010301D1032010BD1148C06A00F0004007
:102060000028F3D00E48C06A40F000400C4CE062FB
:1020700005E0181EA3F1010301D10320EBE7084896
:10208000C06A00F400300028F3D00548806BC2B26B
:102090000348C06A40F40030014CE0621046DAE7C1
:1020A00000D0024038B504468DF800006946032090
:1020B000ABBE204638BD000010B54548406920F051
:1020C0000200434948618815424948604249C86056
:1020D00004203F49883108603D49C1F89400102030
:1020E0003B49C8310860012211463948C030FFF72A
:1020F000D6F83748D0F8D40040F002003449D43143
:102100000860012200213248C030FFF7C8F830488B
:10211000D0F8D40040F001002D49D43108600122EC
:1021200002212B484030FFF7BAF82948406D40F0B3
:10213000040027494865012205212548FFF7AFF82B
:102140002348406940F020002149486101220321D1
:102150001F484030FFF7A3F81D48406D40F00800CD
:102160001B4948650122022119488030FFF797F882
:102170001748D0F8940040F00400154994310860E5
:102180000122032112488030FFF789F81048D0F867
:10219000940040F008000E49943108600122122199
:1021A0000B484030FFF77BF80948406D40F4802031
:1021B000074948650122132105484030FFF76FF8B1
:1021C0000348406D40F400200149486510BD0000FF
:1021D00000F00F400090044000B004400248006945
:1021E000012121EA5000704700F00F4010B504466D
:1021F00044B902210E48FFF75FF801210C48FFF7B0
:102200005BF814E0012C08D102210948FFF750F8CF
:1022100001210748FFF750F809E0022C07D10221FD
:102220000348FFF749F801210148FFF741F810BDC5
:10223000C0F00F4010B50A2202490348FFF77EFEA6
:1022400010BD0000580000204800002010B5FFF726
:1022500091F8FFF7EFFF10BD10B5044601222146AB
:102260000248FFF7B4FEC0B210BD000048000020D5
:1022700010B5002404E02046FFF786FD601CC4B2C0
:10228000012CF8DB10BD000070B504460122214688
:102290000248FFF7B7FEC5B2284670BD48000020CF
:1022A00008B5002015490860FEF7E8F9FEF7ACF91B
:1022B000FEF7E2F9FFF700FF0120FFF797FFFFF7B6
:1022C000DBFD00F09BFA00F0D3F9FFF7BFFF00F051
:1022D00055F800F02BF810E020200949C86000BF35
:1022E0004FF47A70FFF72AFD6846FFF7B5FF20B17B
:1022F0009DF80000012800D000BFEDE708ED00E0E8
:1023000000F00F4010B5FFF7B3FF10BD0649096894
:102310004FF47A72B1FBF2F1C91C8908484300BF3F
:10232000411E081EFCD17047080000201FB5012087
:102330008DF80000ADF802000020ADF80400ADF803
:1023400006006B4607A200210846FFF787F86B4698
:1023500006A210210020FFF781F802208DF8080066
:102360001FBD000065735F6C696E6B00E98089E6D4
:102370008BA9E696B9E6A1880000000010B50421FB
:102380003448FEF79BFF6420FFF7C0FF042131486B
:10239000FEF790FF6420FFF7B9FF04212D48FEF7F8
:1023A0008DFFAE2000F058F8002000F055F8102006
:1023B00000F052F8402000F04FF8812000F04CF877
:1023C000CF2000F049F8A12000F046F8C82000F026
:1023D00043F8A62000F040F8A82000F03DF83F2088
:1023E00000F03AF8D32000F037F8002000F034F87D
:1023F000D52000F031F8802000F02EF8D92000F030
:102400002BF8F12000F028F8DA2000F025F812204F
:1024100000F022F8DB2000F01FF8402000F01CF84C
:10242000202000F019F8022000F016F88D2000F0AE
:1024300013F8142000F010F8A42000F00DF8A620E6
:1024400000F00AF8AF2000F007F80020FEF7E8FFE0
:1024500010BD000080F00F4070B5044608211F48F1
:10246000FEF728FF4FF480211C484038FEF722FF7A
:102470004FF4002119484038FEF71CFF4FF480212B
:1024800016484038FEF71AFF00251FE004F08000D0
:1024900030B14FF4002111484038FEF70FFF05E03E
:1024A0004FF400210D484038FEF704FF4FF480211F
:1024B0000A484038FEF7FEFE6006040E4FF4802105
:1024C00006484038FEF7FAFE681CC5B2082DDDDB71
:1024D00008210248FEF7F2FE70BD000080F00F40B8
:1024E00070B5044608211F48FEF7E4FE4FF4802132
:1024F0001C484038FEF7DEFE4FF4002119484038F2
:10250000FEF7DCFE4FF4802116484038FEF7D6FE79
:1025100000251FE004F0800030B14FF40021114885
:102520004038FEF7CBFE05E04FF400210D4840385F
:10253000FEF7C0FE4FF480210A484038FEF7BAFE8D
:102540006006040E4FF4802106484038FEF7B6FEC0
:10255000681CC5B2082DDDDB08210248FEF7AEFE7F
:1025600070BD000080F00F4010B5044610A0E16976
:10257000FFF792F912A0A169FFF78EF914A0616923
:10258000FFF78AF916A02169FFF786F918A0E1681C
:10259000FFF782F91AA0A168FFF77EF91CA0616815
:1025A000FFF77AF91EA02168FFF776F910BD000049
:1025B0007073723A203078253038780D0A000000A8
:1025C0002070633A203078253038780D0A000000FA
:1025D000206C723A203078253038780D0A000000DF
:1025E0007231323A203078253038780D0A000000F8
:1025F0007230333A203078253038780D0A000000E8
:102600007230323A203078253038780D0A000000D8
:102610007230313A203078253038780D0A000000C9
:102620007230303A203078253038780D0A000000BA
:102630002DE9F041002000F03BF89F20FFF7FEFC61
:10264000FF20FFF7FBFC0546FF20FFF7F7FC0646DF
:10265000FF20FFF7F3FC0746012000F029F82804CB
:1026600040EA062040EA07042046BDE8F081000069
:1026700010B5FFF7DDFF04460B48046000200A494F
:10268000C8614FF480508861401008620846806934
:10269000096A4843044948610448844201D1002042
:1026A00010BD4FF0FF30FBE7700000201720C20084
:1026B00020B91021044A916000BF04E01021024AB1
:1026C000516000BF00BF7047C0F00F4070B54FF4BD
:1026D0007A751CE00020FFF7EBFF32260520FFF79C
:1026E000ADFC00BFFF20FFF7A9FC0446022000F06C
:1026F00023F804F0010018B1301EA6F10106F1D153
:102700000120FFF7D5FF04F0010000B903E0281E07
:10271000A5F10105DED100BF0DB900BFFEE770BD18
:1027200010B50020FFF7C4FF0420FFF787FC01204D
:10273000FFF7BEFF10BD0000064909684FF47A722A
:10274000B1FBF2F1C91C8908484300BF411E081EB5
:10275000FCD170470800002010B58AB000208DF829
:102760000400224802900821039101218DF81010E5
:102770008DF8111000218DF812101D490298B1FB3F
:10278000F0F105911A490298B1FBF0F10691184950
:102790000298B1FBF0F1079100208DF822008DF82E
:1027A00023008DF824008DF825000220FEF782F921
:1027B0000446224601A90F48FEF784FB04200021AD
:1027C00021B9012282400C4B9A6003E00122824031
:1027D000094B5A6000BF08481430006840F01000F0
:1027E0000549C039C1F8D4000AB010BD80969800E0
:1027F00000CA9A3B00D00240C0F00F4010B5FFF76E
:10280000ABFF0020FFF754FFFFF760FFFFF788FFE3
:102810000120FFF74DFF10BD03000100030200007F
:10282000030000000000030100127A000D04000103
:1028300000000000000000000000FFC060C0602039
:1028400060206000610061007F0061006100610044
:102850006000602060206040FFC0000000000000B9
:10286000000000000000000000001F4030C0604079
:102870006040600070003C001F0007C001C000E025
:1028800040604060606030C00F80000000000000C9
:1028900000000000000000000000F8006000600080
:1028A0006000600060006000600060006000600028
:1028B0006000602060206040FFC000000000000059
:1028C000000000000000000000003FC006000600FD
:1028D00006000600060006000600060006000600C8
:1028E00006000600060006003FC0000000000000D1
:1028F0000000000000000000000071F0304038408F
:1029000038402C402C402640264022402340214085
:1029100021C021C020C020C0F840000000000000FD
:1029200000000000000000000000F3C061806300B0
:102930006200640068006C0074007600620063004E
:1029400061006180608060C0F1E000000000000074
:102950000000000000000000000000000000000077
:1029600000000000000000007FE000000000000008
:102970000000000000000000000000000000000057
:10298000000000000000000000003FC0060006003C
:102990000600060006000600060006000600060007
:1029A00006000600060006003FC000000000000010
:1029B000000000000000000000003FC0060006000C
:1029C00006000600060006000600060006000600D7
:1029D00006000600060006003FC0000000000000E0
:1029E000B0B801007FFC40040400FFFE08201E4038
:1029F00003C03C380100FFFE054009203118C10624
:102A00000100B7BD020001000100FFFE0400040048
:102A1000040007F00410041004100810081010102F
:102A200020A04040D1A100404240324813FC024067
:102A30000444F7FE10A010A010A011221122121EB3
:102A40002C00440603FCD4F1100013F8111010A060
:102A5000FC4010A015101A4E35F4D040104817FC59
:102A6000104010405040204001007FFC4004040012
:102A7000FFFE08201E4003C03C380100FFFE054059
:102A800009203118C1060100FFFF0000000000000E
:102A90000000000000000000000000007E81A58111
:102AA00081BD9981817E0000000000007EFFDBFF78
:102AB000FFC3E7FFFF7E00000000000000006CFE87
:102AC000FEFEFE7C38100000000000000000103800
:102AD0007CFE7C38100000000000000000183C3C28
:102AE000E7E7E718183C00000000000000183C7EF3
:102AF000FFFF7E18183C00000000000000000000EE
:102B0000183C3C18000000000000FFFFFFFFFFFF23
:102B1000E7C3C3E7FFFFFFFFFFFF00000000003C2B
:102B2000664242663C0000000000FFFFFFFFFFC35B
:102B300099BDBD99C3FFFFFFFFFF00001E0E1A32B3
:102B400078CCCCCCCC780000000000003C666666F7
:102B5000663C187E18180000000000003F333F302C
:102B600030303070F0E00000000000007F637F63D1
:102B700063636367E7E6C00000000000001818DB2D
:102B80003CE73CDB1818000000000080C0E0F0F8D3
:102B9000FEF8F0E0C080000000000002060E1E3EBD
:102BA000FE3E1E0E0602000000000000183C7E18CB
:102BB00018187E3C1800000000000000666666667B
:102BC0006666660066660000000000007FDBDBDBF7
:102BD0007B1B1B1B1B1B00000000007CC660386CAD
:102BE000C6C66C380CC67C00000000000000000067
:102BF0000000FEFEFEFE000000000000183C7E18F3
:102C000018187E3C187E000000000000183C7E185A
:102C100018181818181800000000000018181818C4
:102C20001818187E3C180000000000000000001872
:102C30000CFE0C1800000000000000000000003036
:102C400060FE603000000000000000000000000096
:102C5000C0C0C0FE0000000000000000000000280E
:102C60006CFE6C280000000000000000000010381E
:102C7000387C7CFEFE000000000000000000FEFE2C
:102C80007C7C3838100000000000000000000000CC
:102C9000000000000000000000000000183C3C3C68
:102CA0001818180018180000000000666666240056
:102CB000000000000000000000000000006C6CFE3E
:102CC0006C6C6CFE6C6C0000000018187CC6C2C0F6
:102CD0007C060686C67C1818000000000000C2C6EC
:102CE0000C183060C686000000000000386C6C389C
:102CF00076DCCCCCCC7600000000003030306000B8
:102D00000000000000000000000000000C1830303F
:102D100030303030180C00000000000030180C0C6F
:102D20000C0C0C0C183000000000000000000066C5
:102D30003CFF3C660000000000000000000000189E
:102D4000187E1818000000000000000000000000BD
:102D500000000018181830000000000000000000FB
:102D600000FE000000000000000000000000000065
:102D7000000000001818000000000000000002061B
:102D80000C183060C080000000000000386CC6C61F
:102D9000D6D6C6C66C380000000000001838781877
:102DA00018181818187E0000000000007CC6060CD9
:102DB000183060C0C6FE0000000000007CC6060699
:102DC0003C060606C67C0000000000000C1C3C6CA3
:102DD000CCFE0C0C0C1E000000000000FEC0C0C0A9
:102DE000FC060606C67C0000000000003860C0C07B
:102DF000FCC6C6C6C67C000000000000FEC6060673
:102E00000C18303030300000000000007CC6C6C610
:102E10007CC6C6C6C67C0000000000007CC6C6C6D4
:102E20007E0606060C78000000000000000018185E
:102E30000000001818000000000000000000181832
:102E400000000018183000000000000000060C18F8
:102E5000306030180C060000000000000000007E0A
:102E600000007E000000000000000000006030183C
:102E70000C060C1830600000000000007CC6C60C78
:102E8000181818001818000000000000007CC6C6C2
:102E9000DEDEDEDCC07C00000000000010386CC606
:102EA000C6FEC6C6C6C6000000000000FC66666618
:102EB0007C66666666FC0000000000003C66C2C0DE
:102EC000C0C0C0C2663C000000000000F86C66662E
:102ED000666666666CF8000000000000FE666268C8
:102EE0007868606266FE000000000000FE666268AE
:102EF0007868606060F00000000000003C66C2C0BE
:102F0000C0DEC6C6663A000000000000C6C6C6C6DF
:102F1000FEC6C6C6C6C60000000000003C18181851
:102F200018181818183C0000000000001E0C0C0CAB
:102F30000C0CCCCCCC78000000000000E666666C7F
:102F400078786C6666E6000000000000F060606063
:102F50006060606266FE000000000000C6EEFEFEDB
:102F6000D6C6C6C6C6C6000000000000C6E6F6FE0D
:102F7000DECEC6C6C6C60000000000007CC6C6C6BF
:102F8000C6C6C6C6C67C000000000000FC666666B9
:102F90007C60606060F00000000000007CC6C6C677
:102FA000C6C6C6D6DE7C0C0E00000000FC66666657
:102FB0007C6C666666E60000000000007CC6C660A9
:102FC000380C06C6C67C0000000000007E7E5A1841
:102FD00018181818183C000000000000C6C6C6C625
:102FE000C6C6C6C6C67C000000000000C6C6C6C66F
:102FF000C6C6C66C3810000000000000C6C6C6C6B3
:10300000D6D6D6FEEE6C000000000000C6C66C7C72
:1030100038387C6CC6C60000000000006666666634
:103020003C181818183C000000000000FEC6860C72
:10303000183060C2C6FE0000000000003C30303096
:1030400030303030303C0000000000000080C0E034
:1030500070381C0E06020000000000003C0C0C0C36
:103060000C0C0C0C0C3C0000000010386CC600006E
:103070000000000000000000000000000000000050
:1030800000000000000000FF0000303018000000C9
:1030900000000000000000000000000000000078B8
:1030A0000C7CCCCCCC76000000000000E0606078A6
:1030B0006C666666667C0000000000000000007C14
:1030C000C6C0C0C0C67C0000000000001C0C0C3C48
:1030D0006CCCCCCCCC760000000000000000007C62
:1030E000C6FEC0C0C67C000000000000386C6460F2
:1030F000F060606060F000000000000000000076FA
:10310000CCCCCCCCCC7C0CCC78000000E060606CEB
:103110007666666666E60000000000001818003853
:1031200018181818183C0000000000000606000ED1
:1031300006060606060666663C000000E06060665D
:103140006C78786C66E600000000000038181818EB
:1031500018181818183C000000000000000000ECCF
:10316000FED6D6D6D6C6000000000000000000DC67
:103170006666666666660000000000000000007C6F
:10318000C6C6C6C6C67C000000000000000000DC09
:1031900066666666667C6060F0000000000000768F
:1031A000CCCCCCCCCC7C0C0C1E000000000000DC95
:1031B0007666606060F00000000000000000007CA7
:1031C000C660380CC67C000000000000103030FCE7
:1031D00030303030361C000000000000000000CC11
:1031E000CCCCCCCCCC760000000000000000006607
:1031F000666666663C18000000000000000000C61D
:10320000C6D6D6D6FE6C000000000000000000C646
:103210006C3838386CC6000000000000000000C6A2
:10322000C6C6C6C6C67E060CF8000000000000FE3A
:10323000CC183060C6FE0000000000000E18181800
:1032400070181818180E0000000000001818181840
:10325000001818181818000000000000701818183E
:103260000E181818187000000000000076DC00002E
:103270000000000000000000000000000000103806
:103280006CC6C6C6FE000000000000003C66C2C05E
:10329000C0C0C2663C0C067C00000000CC0000CC24
:1032A000CCCCCCCCCC7600000000000C1830007CDC
:1032B000C6FEC0C0C67C000000000010386C00785C
:1032C0000C7CCCCCCC76000000000000CC00007858
:1032D0000C7CCCCCCC76000000000060301800786C
:1032E0000C7CCCCCCC760000000000386C38007828
:1032F0000C7CCCCCCC7600000000000000003C66CA
:103300006060663C0C063C0000000010386C007CDD
:10331000C6FEC0C0C67C000000000000C600007CE5
:10332000C6FEC0C0C67C0000000000603018007CF3
:10333000C6FEC0C0C67C0000000000006600003869
:1033400018181818183C0000000000183C660038D7
:1033500018181818183C00000000006030180038D9
:1033600018181818183C0000000000C60010386C2F
:10337000C6C6FEC6C6C600000000386C3800386CF1
:10338000C6C6FEC6C6C60000000018306000FE6655
:10339000607C606066FE000000000000000000CC61
:1033A00076367ED8D86E0000000000003E6CCCCC93
:1033B000FECCCCCCCCCE000000000010386C007CE1
:1033C000C6C6C6C6C67C000000000000C600007C61
:1033D000C6C6C6C6C67C0000000000603018007C6F
:1033E000C6C6C6C6C67C00000000003078CC00CC43
:1033F000CCCCCCCCCC76000000000060301800CCE7
:10340000CCCCCCCCCC76000000000000C60000C6BE
:10341000C6C6C6C6C67E060C780000C6007CC6C6F8
:10342000C6C6C6C6C67C0000000000C600C6C6C62A
:10343000C6C6C6C6C67C000000000018183C666000
:103440006060663C18180000000000386C6460F092
:1034500060606060E6FC00000000000066663C18EA
:103460007E187E1818180000000000F8CCCCF8C4B4
:10347000CCDECCCCCCC600000000000E1B18181807
:103480007E1818181818D8700000001830600078DE
:103490000C7CCCCCCC7600000000000C183000383E
:1034A00018181818183C0000000000183060007C44
:1034B000C6C6C6C6C67C000000000018306000CC3E
:1034C000CCCCCCCCCC7600000000000076DC00DC5C
:1034D0006666666666660000000076DC00C6E6F694
:1034E000FEDECEC6C6C600000000003C6C6C3E008E
:1034F0007E00000000000000000000386C6C380006
:103500007C000000000000000000000030300030AF
:103510003060C0C6C67C0000000000000000000053
:10352000FEC0C0C0C000000000000000000000009D
:10353000FE06060606000000000000C0C0C2C6CCA1
:10354000183060DC860C183E000000C0C0C2C6CC3B
:10355000183066CE9E3E06060000000018180018BF
:1035600018183C3C3C180000000000000000003629
:103570006CD86C360000000000000000000000D88D
:103580006C366CD800000000000011441144114456
:103590001144114411441144114455AA55AA55AA85
:1035A00055AA55AA55AA55AA55AADD77DD77DD7724
:1035B000DD77DD77DD77DD77DD77181818181818D7
:1035C000181818181818181818181818181818187B
:1035D00018F818181818181818181818181818F8AB
:1035E00018F81818181818181818363636363636C7
:1035F00036F63636363636363636000000000000EF
:1036000000FE36363636363636360000000000F814
:1036100018F818181818181818183636363636F6D6
:1036200006F63636363636363636363636363636AA
:10363000363636363636363636360000000000FE70
:1036400006F636363636363636363636363636F6CA
:1036500006FE000000000000000036363636363622
:1036600036FE00000000000000001818181818F8B6
:1036700018F800000000000000000000000000003A
:1036800000F81818181818181818181818181818F2
:10369000181F000000000000000018181818181863
:1036A00018FF000000000000000000000000000003
:1036B00000FF1818181818181818181818181818BB
:1036C000181F181818181818181800000000000003
:1036D00000FF00000000000000001818181818185B
:1036E00018FF181818181818181818181818181F6C
:1036F000181F18181818181818183636363636368F
:103700003637363636363636363636363636363757
:10371000303F000000000000000000000000003FFB
:10372000303736363636363636363636363636F77D
:1037300000FF00000000000000000000000000FF8B
:1037400000F736363636363636363636363636378D
:10375000303736363636363636360000000000FF53
:1037600000FF00000000000000003636363636F755
:1037700000F736363636363636361818181818FF2B
:1037800000FF0000000000000000363636363636F6
:1037900036FF00000000000000000000000000FFF5
:1037A00000FF18181818181818180000000000005A
:1037B00000FF363636363636363636363636363616
:1037C000363F000000000000000018181818181FED
:1037D000181F000000000000000000000000001F93
:1037E000181F1818181818181818000000000000E2
:1037F000003F363636363636363636363636363696
:1038000036FF36363636363636361818181818FF5C
:1038100018FF181818181818181818181818181841
:1038200018F8000000000000000000000000000088
:10383000001F1818181818181818FFFFFFFFFFFFAF
:10384000FFFFFFFFFFFFFFFFFFFF00000000000082
:1038500000FFFFFFFFFFFFFFFFFFF0F0F0F0F0F0D1
:10386000F0F0F0F0F0F0F0F0F0F00F0F0F0F0F0F9E
:103870000F0F0F0F0F0F0F0F0F0FFFFFFFFFFFFFB8
:10388000FF000000000000000000000000000076C3
:10389000DCD8D8D8DC7600000000000078CCCCCC96
:1038A000D8CCC6C6C6CC000000000000FEC6C6C00C
:1038B000C0C0C0C0C0C00000000000000000FE6C1E
:1038C0006C6C6C6C6C6C00000000000000FEC6604C
:1038D00030183060C6FE0000000000000000007ECE
:1038E000D8D8D8D8D8700000000000000000666664
:1038F0006666667C6060C00000000000000076DC48
:10390000181818181818000000000000007E183C55
:103910006666663C187E00000000000000386CC639
:10392000C6FEC6C66C38000000000000386CC6C673
:10393000C66C6C6C6CEE0000000000001E30180CB1
:103940003E666666663C0000000000000000007EE7
:10395000DBDBDB7E00000000000000000003067ED1
:10396000DBDBF37E60C00000000000001C30606004
:103970007C606060301C000000000000007CC6C657
:10398000C6C6C6C6C6C60000000000000000FE0095
:1039900000FE0000FE0000000000000000001818FB
:1039A0007E18180000FF0000000000000030180C16
:1039B000060C1830007E000000000000000C1830DB
:1039C0006030180C007E0000000000000E1B1B1869
:1039D0001818181818181818181818181818181867
:1039E0001818D8D8D870000000000000000018187F
:1039F000007E0018180000000000000000000076A3
:103A0000DC0076DC00000000000000386C6C380040
:103A100000000000000000000000000000000000A6
:103A20000018180000000000000000000000000066
:103A300000001800000000000000000F0C0C0C0C2F
:103A40000CEC6C6C3C1C0000000000D86C6C6C6CC6
:103A50006C0000000000000000000070D83060C85A
:103A6000F8000000000000000000000000007C7C66
:103A70007C7C7C7C7C0000000000000000000000DA
:103A80000000000000000000000000000001010331
:103A90000404000102030404010102010101000108
:103AA00001030404000101030405040404040405E3
:103AB0008002DC020005B80580079508000A710B3A
:103AC000127A000097980000C0C62D00404B4C00B1
:103AD00002000000030000000500000007000000D5
:103AE00002000000040000000600000008000000C2
:103AF00010000000200000004000000080000000D6
:103B000000010000000200000004000000080000A6
:103B100000100000002000000040000000800000B5
:103B20000100000003000000050000000700000085
:103B30000200000004000000080000001000000067
:103B40002000000040000000800000000001000094
:103B50000002000000040000000800000010000047
:103B60000020000000400000008000000000010074
:103B700000C0024000D002401A1B00000C003C10A4
:103B80000D003C10A43B0000000000204800000095
:103B9000B8180000EC3B0000480000207806000048
:103BA000C8180000000000000000010000004001F3
:103BB0000080000000093D0000000000000000003F
:103BC00000000000000000000000000000000000F5
:103BD00000000000000000000000000000000000E5
:0C3BE000000000000000000000000000D9
:0400000500000411E2
:00000001FF
