:020000040000FA
:10A000000040002079A5000091A5000073C4000065
:10A0100095A5000097A5000099A50000000000008C
:10A020000000000000000000000000008DA40000FF
:10A030009DA500000000000015A5000065A500001A
:10A04000A3A50000A7A50000ABA50000AFA50000D8
:10A05000EBA50000EBA50000EBA50000EBA50000C0
:10A06000EBA50000EBA50000EBA50000EBA50000B0
:10A07000EBA50000EBA50000EBA50000EBA50000A0
:10A08000B3A50000EBA50000EBA50000EBA50000C8
:10A09000EBA50000EBA50000EBA50000EBA5000080
:10A0A000B7A50000BBA50000BFA50000C3A5000028
:10A0B000C7A50000CBA50000CFA50000D3A50000D8
:10A0C000D7A5000051D70000DFA50000E3A50000E0
:10A0D000E7A50000EBA50000EBA50000EBA5000044
:10A0E000EBA50000EBA50000EBA50000EBA5000030
:10A0F000EBA50000EBA50000EBA50000EBA5000020
:10A10000EBA50000EBA50000EBA50000EBA500000F
:10A11000EBA500002DD80000EBA50000EBA500008A
:10A12000EBA50000EBA50000EBA50000EBA50000EF
:10A13000EBA50000EBA50000EBA50000EBA50000DF
:10A14000EBA50000EBA50000EBA50000EBA50000CF
:10A15000EBA50000EBA50000EBA50000EBA50000BF
:10A3F000EBA50000EBA50000EBA50000FFFFFFFFB1
:10A40000FFFFFFFFFFFFFFFFFFFFFFFFFEFFFFFF5D
:10A41000DFF80CD000F03EF900480047F1380100A9
:10A420000040002080F309887047EFF309807047EF
:10A43000684680F3098804480078C00714BF0220EA
:10A44000032080F3148870476C620100DFF818C0A5
:10A45000EFF305831B0618BF6047EFF31483DB0798
:10A4600008BF604700DF704723490100DFF818C0CC
:10A47000EFF305831B0618BF6047EFF31483DB0778
:10A4800008BF604700DF7047B14B0100EFF3098060
:10A49000816911F8021C39BB90E80F10E047EFF317
:10A4A000098C194B93E80600914218D059B10CB4AD
:10A4B0004FF0010381F821302CE9F00FC1F824C0DE
:10A4C0000AF066FD0CBC1A60D2F824C0BCE8F00F9C
:10A4D00092F821308CF309881BB192F82000CCF857
:10A4E00000006FF0020E704710B5084A12689142E2
:10A4F00009D8074C54F8214090E80F10A047EFF31B
:10A50000098C8CE80F0010BD4C00002010A7000043
:10A5100010A700000AF066FC114B93E80600914278
:10A520001BD00CB44FF0000381F82130EFF3098CFD
:10A530002CE9F00FC1F824C00AF02AFD0CBC1A6007
:10A54000D2F824C0BCE8F00F8CF3098892F82130CF
:10A550001BB192F82030CCF800306FF0020E70473B
:10A560004C0000200AF0F6FDD6E7000009F0B8FD27
:10A570000AF0F0FDD0E7000072B61D481D490160E9
:10A580000A6882F308881C48804762B61B48004767
:10A59000FEE7FEE7FEE7FEE7FEE7FEE7FEE7FEE793
:10A5A000FEE7174800471748004717480047174875
:10A5B0000047174800471748004717480047174803
:10A5C00000471748004717480047174800471748F3
:10A5D00000471748004717480047174800471748E3
:10A5E0000047174800471748004717480047000032
:10A5F00008ED00E000A000009DD6000011A40000BE
:10A60000EBA50000EBA50000EBA50000EBA500000A
:10A61000EBA50000EBA50000EBA5000025C700009E
:10A620003DC70000EBA50000EBA50000EBA5000076
:10A63000F5D60000EBA5000039D70000EBA500001F
:10A6400015D80000EBA50000EBA5000040EA0103CF
:10A650009B0703D009E008C9121F08C0042AFAD2D8
:10A6600003E011F8013B00F8013B521EF9D270479C
:10A67000D2B201E000F8012B491EFBD27047002244
:10A68000F6E710B513460A4604461946FFF7F0FFF1
:10A69000204610BD064C074D06E0E06840F001037F
:10A6A00094E8070098471034AC42F6D3FFF7B4FEA5
:10A6B000207E0100607E010070B58C1810F8015BEF
:10A6C00015F0070301D110F8013B2A1106D110F84B
:10A6D000012B03E010F8016B01F8016B5B1EF9D14F
:10A6E0002B0705D40023521E0DD401F8013BFAE7D5
:10A6F00010F8013BCB1A921C03E013F8015B01F840
:10A70000015B521EF9D5A142D8D3002070BD0000D4
:10A710000000000038B500BF10481149486400BF70
:10A72000104800F049FB0F4908680F49086000BF56
:10A730000E480F4C00906379A2792179E07900F0FE
:10A740000FF90C4800F0ECFB0B480C4908600C4971
:10A750004FF4E02000F038F938BD00000000071188
:10A7600000800440546201004CE0FF1F87A90000F4
:10A77000446201004C620100008793032C0000201A
:10A78000006CDC027047000010B56E4800F004F960
:10A790006C48401C00F000F96A48801C00F0FCF88E
:10A7A0006848C01C00F0F8F86648001D00F0F4F896
:10A7B00007220021644801F0ADFF012211466248E2
:10A7C00001F0A8FF60484068604908405E49486061
:10A7D00003220C215C4801F09DFF03220D215A4801
:10A7E00001F098FF00221221574801F093FF002248
:10A7F0001321554801F08EFF01220221524801F039
:10A8000089FF51488068514908404F4988600722B4
:10A8100003214D4801F07EFF012204214A4801F046
:10A8200079FF4948006949490840474908610122C0
:10A830000521454801F06EFF4348406943490840FF
:10A84000801C4149486102220021414801F062FF19
:10A85000022201213E4801F05DFF042210213C4804
:10A8600001F058FF01221221394801F053FF012263
:10A870001321374801F04EFF01220221344801F034
:10A8800049FF01220321324801F044FF0022114612
:10A89000304801F03FFF002201212E4801F03AFF2D
:10A8A00001220A212B4801F035FF0122022129480B
:10A8B00001F030FF01220321264801F02BFF012285
:10A8C0000421244801F026FF01220821214801F03B
:10A8D00021FF012209211F4801F01CFF0122002154
:10A8E0001D4801F017FF012211461B4801F012FF1D
:10A8F00003220221184801F00DFF0122032116480E
:10A9000001F008FF01220421134801F003FF072290
:10A910000521114801F0FEFE072206210E4801F034
:10A92000F9FE072211460C4801F0F4FE0B48C068FE
:10A9300020F003700949C8600846006920F0300023
:10A94000086110BD0900381000900440FDFFFFFEB3
:10A9500000A0044000B0044000C004400080044057
:10A960002DE9F04107460C4615461E46DDF81880D5
:10A97000384600F05BFA434632462946204600F04E
:10A9800073FABDE8F08147F2305000E000BF011ECD
:10A99000A0F10100FAD17047044A02EB10410A68A5
:10A9A000012383401A430A6070470000007004408E
:10A9B000044A02EB10410A68012383401A430A60EB
:10A9C000704700000070044070B50246012427481B
:10A9D000274D05EB10431D6801268640B5431D60D9
:10A9E00000BF32B92348406820F48020214B5860D2
:10A9F00023E02148084490B1204B184458B1184432
:10AA000028B1184478B909201A4B98640DE0022047
:10AA1000184B986409E00520164B986405E0002067
:10AA2000144B986401E0002400BF00BF1148406847
:10AA300020F4E02010430F4B58600C480C4D05EB00
:10AA400010431D680126864035431D6000BFB2F5E6
:10AA5000E02F09D103200A4B18700A4890F84001F2
:10AA600040F080001B1F1870204670BD120034108B
:10AA70000070044000800440009423FD00CA91FE51
:10AA8000442107400020074000B510480068C0F38B
:10AA9000814020B102280DD0032811D10DE000F033
:10AAA0003DF9B0F5004F02D14FF4004000E0002026
:10AAB000014607E00648016804E04FF47A7101E0BE
:10AAC000002100BF00BF084600BD00000070044028
:10AAD00050E0FF1F10B500F063F8044634B100F0F9
:10AAE0003BF9B4EBD00F01D8204610BD0020FCE7A5
:10AAF0002DE9F04100F0E2F8044614B92046BDE823
:10AB0000F08116480078C0F3C205EC401348407845
:10AB1000C0F301171148007B00F0030607B10EB126
:10AB2000022E19D1082D14D2DFE805F0040506071E
:10AB300008090B0F00BF00BF00BF00BF00BF6409C2
:10AB400009E01420B4FBF0F405E00C20B4FBF0F4B1
:10AB500001E0002400BF00BF2046D0E700400640CF
:10AB600070B50D48407800F0020008B1002070BDBB
:10AB700000F016F804460CB92046F8E70648C078FD
:10AB8000C0F341150448C078C609044800EB8500AD
:10AB900030F816006043EAE70040064064750100A3
:10ABA00010B505488079C0F3001010B9FFF7A0FF79
:10ABB00010BD02480068FBE70040064044E0FF1F6C
:10ABC00070B50546142D4BD2DFE805F00A0B154A87
:10ABD0001F4A292D464A423135394A4A4A4A3D3FA1
:10ABE00000BF00F0B9F82149496C012202EB117154
:10ABF000B0FBF1F436E000F0AFF81C49496CC1F34A
:10AC00000361491CB0FBF1F42CE000F0A5F81749F2
:10AC1000496CC1F30341491CB0FBF1F422E000F0A0
:10AC2000B5F804461EE0FFF72FFF04461AE0FFF7D1
:10AC300051FF044616E000F01DF8044612E0FFF74D
:10AC40008FFF04460EE00A4C0CE04FF47A7409E0E2
:10AC500000F064F8044605E000F04EF8044601E018
:10AC6000002400BF00BF204670BD000000800440EB
:10AC7000006CDC0210B50548007800F0020008B94D
:10AC8000002010BD00F004F8FBE700000040064083
:10AC90000748807900F0010010B906480068704745
:10ACA0000348007AC0F3420103480068C840F6E751
:10ACB0000040064044E0FF1F48E0FF1F0A49097BAF
:10ACC00001F0030121B1012905D0022908D105E0D5
:10ACD0000649086806E00649086803E0054801E0FF
:10ACE000002000BF00BF7047004006404CE0FF1F3F
:10ACF00050E0FF1F006CDC020648007800F0800086
:10AD000030B104488078810903480068C840704722
:10AD10000020FCE7005006404CE0FF1F044800788C
:10AD200000F0800010B10348006870470020FCE785
:10AD3000005006404CE0FF1F014649F69702914241
:10AD400001D8002005E0034A914201D8012000E02B
:10AD50000220704700127A0010B50B498979C1F3BF
:10AD6000810424B1012C05D0022C09D105E0FFF7A4
:10AD7000F7FE07E0FFF78CFF04E0FFF79FFF01E01D
:10AD8000002000BF00BF10BD0040064010B50849BC
:10AD90004968C1F3014111B1032905D102E0FFF770
:10ADA000DFFE03E0034801E0002000BF00BF10BD4C
:10ADB00000800440006CDC0270B504462068FFF798
:10ADC000BBFF054617482279017821F00F01114396
:10ADD000017000BF00BF017821F0A001A2791143EA
:10ADE0000170E279C02303EA8212827000BF0E482C
:10ADF000407820F03C00302101EA051108436179D8
:10AE0000084309494870607958B10648007800F055
:10AE1000800030B100BF0448807900F002000028B3
:10AE2000F9D070BD005006400040064010B5014604
:10AE30000C48007B00F00300884201D0012200E0B2
:10AE400000220848007B61F30100064C20733AB1F0
:10AE500040F2DC5300E000BF181EA3F10103FAD159
:10AE6000002010BD004006402DE9F04706460F4681
:10AE700090461D464FF000092848C4788079C0F3F9
:10AE8000001038B14FF001092448C07880F020004C
:10AE90002249C8702148007820F0FC01382000EADF
:10AEA000C60001431D480170007B00F0030058B943
:10AEB0001A48407800F0040030B100BF174880798C
:10AEC00000F002000028F9D000BF14488079C0F3D8
:10AED00000100028F9D1B9F1000F01D00F48C4705B
:10AEE000802000EAC710602101EA4811084324F0DD
:10AEF000E00140EA01040948C47000BF0748C07877
:10AF0000A042FBD100BF05488079C0F38100002832
:10AF1000F9D105B1A8470020BDE8F0870040064000
:10AF2000094A416851640178526861F31142064B45
:10AF30005A6000BF4178054A126861F39342034B9F
:10AF40001A6000BF70470000008004400070044099
:10AF500010B502460B46107808B9012100E01178BF
:10AF6000012937D101201F4C207000BF20201E4C2A
:10AF7000206040201C4C843CC4F88400C0001A4C63
:10AF8000241D2060401020601020174C843CC4F821
:10AF900084002046D0F8940040F48070124C1034A5
:10AFA00020600802104C241D20604000206010200A
:10AFB0000D4C843CC4F884002046D0F8940040F046
:10AFC0001000094C1034206040F21310074C20612F
:10AFD00000BF01E0002100BF00BF19704FF0011059
:10AFE00010BD0000FC1C002084F00F4000B00440A5
:10AFF00030B502460B461078547840EA0421C1EB84
:10B0000001110846044600BF00BF651E2C1EFCD17E
:10B0100000BF00201870014830BD00000100020090
:10B0200001460020114A107000BF4FF40070104A12
:10B03000106040100E4A843AC2F884001020C2F812
:10B0400084001046D0F8940020F01000C2F894005C
:10B050000848006940F08070064A106140F2131001
:10B06000106100BF0020087001207047FC1C002008
:10B0700084F00F4000B0044030B502461546521C23
:10B0800012F8014B0BE012F8013B03F0020020B173
:10B0900003F0100010B1121D00E0121D641E002C00
:10B0A000F1D1002008704870501B0004801C30BD96
:10B0B0002DE9F04104460D4620787F281BD114F875
:10B0C000010B05F8010B14F8017B05F8017B4FF02B
:10B0D000021809E02946204600F096F80646B044DA
:10B0E00004EB1644B0B20544381EA7F10107F1D1B4
:10B0F0004046BDE8F0812946204600F085F8F8E793
:10B1000010B50246107810B101280DD107E0537830
:10B1100003F00100C343094C236000BF08E05378EB
:10B1200003F0010000BF03E0FF200870044810BDD9
:10B1300000BF002008700248F9E700001018FE4325
:10B140000100020010B502460020062A1BD006DCD2
:10B15000062A28D2DFE802F0270C0D0E0F16F02A7F
:10B1600012D0FD2A14D0FE2A19D0FF2A1BD110E0DC
:10B170001AE019E018E00D4B1C680C601B790B718C
:10B18000052011E010E00FE011230B7001200BE00F
:10B190000AE040230B7000234B70022004E00523DB
:10B1A0000B70012000E000BF00BF10BD84620100F1
:10B1B00002461378FF200870581C0004401C70479A
:10B1C0000246FF2008704FF001107047F0B50246AC
:10B1D0000B46FF2003F8010B0125012612F8017B25
:10B1E0000AE012F8014B04F03F0101B94021C81DEB
:10B1F000C1080A44481C0544381EA7F10107F0D1D4
:10B20000304665F31F40F0BD70B505460E46287800
:10B21000802807D328789F2804D83146284600F094
:10B2200088F870BD287806F8010B15F8010B17286F
:10B2300075D2DFE800F00C151B215B6167746D2689
:10B240002C747474747431373D43494F5500287819
:10B25000711CFFF777FF0446347004F10210E0E739
:10B2600031462846FFF74CFF04465EE0314628464B
:10B27000FFF76EFE044658E03046FFF7D1FE044665
:10B2800053E031462846FFF7B3FE04464DE0304612
:10B2900000F055F8044648E03146284600F0B4FB7B
:10B2A000044642E03146284600F074FB04463CE088
:10B2B0003146284600F070FC044636E03146284608
:10B2C00000F0B2F8044630E031462846FFF77EFF32
:10B2D00004462AE031462846FFF76AFF044624E088
:10B2E00031462846FFF76CFF04461EE031462846EB
:10B2F00000F0C0FC044618E03146284600F07AFC15
:10B30000044612E03146284600F08CFC04460CE06E
:10B310003146284600F0C6FC044606E0FFE7FF2061
:10B3200006F8010C4FF001107BE700BF04F101109B
:10B3300077E70246FF2008704FF001107047014682
:10B3400000BF002048700870022070473348806BAF
:10B3500040F4F050314988634FF4A070304948619F
:10B360002020304908602F488438D0F8940040F0FD
:10B3700020002C49103108604FF4A07028498861E2
:10B38000402028498439C1F884000846D0F8940048
:10B3900040F0400023491031086040F2031020497A
:10B3A000C86120488438D0F8940020F080001D49FE
:10B3B000103108604FF4A0701949486248151949C6
:10B3C0008439C1F884000846D0F8940040F4007035
:10B3D0001449103108604FF4A070114908628815B3
:10B3E00010498439C1F884000846D0F8940040F42C
:10B3F00080700C491031086040F223100849086140
:10B40000102008498439C1F884000846D0F8940017
:10B4100020F010000349103108607047008004409C
:10B4200000B0044084F00F4010B50246137803F0DA
:10B430000300401C054C2075C3F380040348447589
:10B44000002008704FF0011010BD0000FC1C00200F
:10B450002DE9F04F87B005460C4606950020059073
:10B460000026A246A41CE0490870834604906D1C87
:10B4700015F8019B50E115F8017B07F00200002848
:10B480007ED0BBF1000F3DD0D848B0F80A8007F05D
:10B490001100012811D100BF01A9384601F05AF965
:10B4A0000646022E1CD1B8F10000A8F1010817D001
:10B4B000CD4800780028EFD012E000BF01A90E208F
:10B4C00001F048F90646022E08D1B8F10000A8F1B3
:10B4D000010803D0C44800780028EFD04FF0000BDB
:10B4E000012E00D01CE1019804F8010B0198000A1C
:10B4F00004F8010B0198000C04F8010B0198000EF0
:10B5000004F8010B07F0100000285ED02878697855
:10B5100040EA0120A97840EA0140E97840EA016068
:10B5200003902D1DB1488089029007F00100B0B151
:10B53000AE48B0F80A8000BF0021384601F00AF991
:10B540000646022E08D1B8F10000A8F1010803D088
:10B55000A54800780028EFD0012E00D0E0E000BF21
:10B56000A248B0F80A8000BF01A9384601F0F2F8FD
:10B570000646022E0AD1B8F10000A8F1010800E049
:10B5800069E003D0984800780028EDD0012E00D063
:10B590000EE096480069019908400399884207D057
:10B5A0000298411E029118B18F4800780028D7D028
:10B5B00000BF8E480069019908400399884201D074
:10B5C00046F01006012E43D0AAE08848B0F80A8061
:10B5D00007F00100C8B1BBF1000F39D100BF002155
:10B5E000384601F0B7F80646022E08D1B8F100003F
:10B5F000A8F1010803D07C4800780028EFD0012E84
:10B6000000D08DE04FF0010B22E000BF01A93846C9
:10B6100001F0A0F80646022E08D1B8F10000A8F10A
:10B62000010803D0704800780028EFD0012E00D028
:10B6300076E0019804F8010B0198000A04F8010B68
:10B640000198000C04F8010B0198000E04F8010B9E
:10B650000020049057E0BBF1000F27D06348B0F8FA
:10B660000A8000BF01A90E2001F074F80646022EE0
:10B6700008D1B8F10000A8F1010803D05A480078B9
:10B680000028EFD0012E00D04AE0019804F8010B09
:10B690000198000A04F8010B0198000C04F8010B52
:10B6A0000198000E04F8010B4FF0000B2878697820
:10B6B00040EA0120A97840EA0140E97840EA0160C7
:10B6C00001902D1D07F0200020B14848019901612B
:10B6D000012618E04548B0F80A8000BF01A93846A5
:10B6E00001F038F80646022E08D1B8F10000A8F1A2
:10B6F000010803D03C4800780028EFD0012E00D08C
:10B700000EE0012004900598401C05903648007812
:10B7100000B105E0A9F10109B9F1000F7FF4ABAE6A
:10B7200000BF0CE015F8017B07F0020020B107F024
:10B73000100010B12D1D00E02D1DA9F10109B9F176
:10B74000000FEFD1012E3FD1BBF1000F26D02748CB
:10B75000B0F80A8000BF01A90E2000F0FBFF0646EA
:10B76000022E08D1B8F10000A8F1010803D01E484C
:10B7700000780028EFD0012E00D026E0019804F8D0
:10B78000010B0198000A04F8010B0198000C04F861
:10B79000010B0198000E04F8010B15E0049898B114
:10B7A0001248B0F80A8000BF00210E2000F0D2FF3E
:10B7B0000646022E08D1B8F10000A8F1010803D016
:10B7C000094800780028EFD000BF05988AF80000EB
:10B7D0008AF80160A4EB0A010698281A41EA0040A1
:10B7E00007B0BDE8F08F000004E0FF1FFC1C002044
:10B7F0002DE9F84F04460D464FF0000B0026A846F1
:10B80000ED1C002056490870641C2078617840EADD
:10B81000012AA41CBAF1000F00D195E014F8017BB5
:10B8200007F0020000284FD007F00100B0B14D48EA
:10B83000B0F80A9000BF0021384600F08BFF0646A2
:10B84000022E08D1B9F10000A9F1010903D0444842
:10B8500000780028EFD0012E00D075E02EE0BAF17C
:10B86000000F03D107F0010000B10E273D48B0F8EA
:10B870000A9000BF6946384600F06CFF0646022E6B
:10B8800008D1B9F10000A9F1010903D034480078CA
:10B890000028EFD0012E00D056E0009805F8010BEB
:10B8A0000098000A05F8010B0098000C05F8010B40
:10B8B0000098000E05F8010B0BF1010BBAF1000026
:10B8C000AAF1010ACBD13EE024E02078617840EA79
:10B8D0000120A17840EA0140E17840EA016000904F
:10B8E000241D2048B0F80A9000BF6946384600F091
:10B8F00031FF0646022E08D1B9F10000A9F1010975
:10B9000003D0174800780028EFD0012E00D01BE0AC
:10B910000BF1010BBAF10000AAF1010AD5D11148CF
:10B92000B0F80A9000BF00210E2000F013FF064679
:10B93000022E08D1B9F10000A9F1010903D008488D
:10B9400000780028EFD000BF88F800B04FEA1B2035
:10B9500088F8010088F80260A5EB0800BDE8F88FC0
:10B9600004E0FF1FFC1C002038B504460D4660783B
:10B97000A17840EA0120E17840EA0140217940EADB
:10B98000016000906946002000F0E4FE002028706D
:10B99000012038BD30B502460C461078557840EA93
:10B9A0000520957840EA0540D57840EA05631BB943
:10B9B000FF202070104830BD1048834204D301207E
:10B9C0000F4D6870686012E000200D4D6870581EC1
:10B9D0000C4D2844B0FBF3F1022905D9891E881CBF
:10B9E0000325B0FBF5F100E001210548416000208E
:10B9F00020700148DFE7000001000400BC85AE00B4
:10BA0000FC1C0020780B5D0170B503460D461978CB
:10BA10005A789878DE7840EA06201E7940EA064097
:10BA20005E7940EA066402F0010078B101F001009D
:10BA300028B100BF2020544E306000BF06E000BF98
:10BA40002020514E361D306000BF00BF02F00200C2
:10BA500078B101F0020028B100BF40204A4E3060AA
:10BA600000BF06E000BF4020474E361D306000BFDB
:10BA700000BF02F0040010B1880800BF00BF02F050
:10BA8000200010B1480900BF00BF02F0800020B1C3
:10BA9000C8093E4E306100BF00BF002C56D03C4864
:10BAA000844200D9044600BF00204FF0E026B06178
:10BAB000C4EB041000EB400070610520306100BF52
:10BAC00000BF02F0010020B100BF0020484000B1DB
:10BAD0002CE002F0020048B100BF2B480C30006897
:10BAE000C0F3C01080EA510000B11FE002F0040072
:10BAF00028B100BF002080EA910000B116E002F0FA
:10BB0000200028B100BF002080EA511000B10DE0F4
:10BB100002F0800048B100BF1B480C300068C0F341
:10BB2000001080EAD11000B100E007E000BF4FF044
:10BB3000E0200069C0F300400028C2D000BF00BF71
:10BB400000204FF0E026306100BF00BF00BF00269C
:10BB500000BF0D480C300068C0F3C01046EA40003A
:10BB600000BF40EA860000BF40EAC60000BF40EACE
:10BB7000461605488438D0F89000C0F3001046EA15
:10BB8000C0112970034870BD84F00F400010FE43BF
:10BB9000C0C62D000100060070B504460E4614F81C
:10BBA000015B0DB94FF480752146284601F036FD42
:10BBB00000203070E81DC508681C0004401C70BDE2
:10BBC00010B500200A490870487002204860002023
:10BBD00008726421064841810021818101610120B0
:10BBE00003490875002102484175FFF7AFFB10BDFE
:10BBF000FC1C002070B505460E4609480078012857
:10BC000005D131462846FFF723FC044605E03146BE
:10BC10002846FFF731FA044600BF00BF204670BD3A
:10BC2000FC1C002070B505460E461148007801281E
:10BC300005D131462846FFF7DBFD044605E000202C
:10BC400030707070B070032400BF00BFE87800F05F
:10BC5000020010B144F4802408E06878A97840EA32
:10BC60000120042101EB800044EA0044204670BD1D
:10BC7000FC1C002002461078084B1872507893780C
:10BC800040EA032305484381D078137940EA03232F
:10BC9000024883810020087001487047FC1C002086
:10BCA0000100050070B506460D46094800780128D8
:10BCB00005D129463046FFF757FE044603E0FF2032
:10BCC0002870012400BF00BF44F4A02070BD000014
:10BCD000FC1C002070B504460D46204600F036F8E6
:10BCE00028B129462046094A1268904704E02946AF
:10BCF0002046074A1268904700BF00BF00BFBFF34D
:10BD00004F8F00BF00BF00BF70BD00003800002093
:10BD10003C00002021B1026822F48042026003E06E
:10BD2000026842F480420260704700000146002031
:10BD300006E0054A52F820208A4200D102E0401C69
:10BD40000228F6D300BF7047247601000146086838
:10BD5000C00F70472DE9F84305460C4616462846A5
:10BD6000FFF7E4FF3F4951F820804046FEF720FEF0
:10BD700001212846FFF7CEFF284600F0D3F9012124
:10BD8000284600F0B3F92868374900EA0107A07F88
:10BD90004FF0804101EA8070384394F820104FF052
:10BDA000806202EA81610843E17F921002EA016148
:10BDB000084394F821104FF4407202EA012108432D
:10BDC0002860627F217F284600F095F9217833466C
:10BDD0002846626800F04AF800B900BF217805F1F2
:10BDE0000C0050F8210020F0FE47207A401E4FF052
:10BDF000F04101EAC0603843217B4FF0806202EAE3
:10BE000081610843617B521002EA41610843A17BD2
:10BE1000521002EA01610843227805F10C0141F851
:10BE2000220020690090217833460122284600F044
:10BE3000E1F860690090217833460222284600F03C
:10BE4000D9F8A0690090217833460322284600F0F3
:10BE5000D1F80021284600F03DF9284600F05DF9B0
:10BE6000BDE8F88330760100FFCCFFBA2DE9FF4F23
:10BE700087B081468A464846FFF768FF18B9002018
:10BE80000BB0BDE8F08FDDF824B04FF0FF35002097
:10BE9000059004900120039000200290002427E0E8
:10BEA000002620E0012719E01F4850F824101F4801
:10BEB00050F8260041430A987843B0FBF1F8C34597
:10BEC0000BD3ABEB080001900198854205D9019D89
:10BED00005940496CDF8088003977F1C032F01D2A8
:10BEE000002DE1D1761C102E01D2002DDAD1641C78
:10BEF000042C01D2002DD3D109F10C0050F82A00F6
:10BF00000B49084006900398411E069840EAC1710B
:10BF1000059841EA00400499084309F10C0141F8F1
:10BF20002A000298ACE700008475010094750100B6
:10BF3000F0FFFC7F2DE9F04104460D4616461F46F2
:10BF4000DDF818802046FFF701FFB8B3B8F1010F04
:10BF500006D0B8F1020F1AD0B8F1030F45D12EE088
:10BF600004F10C0050F8250020F4400020F470404B
:10BF70004FF4400101EA865108434FF4704101EA51
:10BF80000731084304F10C0141F825002EE004F1CB
:10BF90000C0050F8250020F4401020F470604FF49D
:10BFA000401101EA065108434FF4706101EA07218C
:10BFB000084304F10C0141F8250017E017E004F1F3
:10BFC0000C0050F8250020F4402020F0F0004FF441
:10BFD000402101EA86410843F02101EA07110843A4
:10BFE00004F10C0141F8250000E000BF00BFBDE8EE
:10BFF000F08100002DE9FF4F85B091461D46DDF828
:10C0000048A00598FFF7A2FE18B9002009B0BDE8C6
:10C01000F08F4FF0FF38032004904FF00F0B2948AA
:10C02000B0FBF5F1284A049852F82000484327490C
:10C0300051F82B104843800803902548B0FBF5F0D9
:10C04000400001900198504509D300231A46CDF8CD
:10C050000090DDE90501FFF76DFF0198D6E70024A8
:10C0600021E0002619E01748B0FBF5F0164951F819
:10C0700024104843154951F826104843870857456E
:10C080000AD3A7EB0A0002900298804504D9DDF894
:10C0900008800494B3460397761C102E02D2B8F1A0
:10C0A000000FE0D1641C042C02D2B8F1000FD8D1EB
:10C0B0005B46CDF80090DDE904200699FFF73AFFD2
:10C0C0000398A3E700286BEED4750100E475010026
:10C0D00000CA9A3B30B504460B462046FFF726FEC1
:10C0E00005460148435530BD40000020026861F319
:10C0F000DF720260704710B513460268012B05D14C
:10C100004FF47C1404EA0144224304E04FF47C140D
:10C1100004EA0144A243026010BD016821F001015C
:10C1200001607047016841F0010101607047000043
:10C130002DE9F04F89B083460C469046994601AAF6
:10C140002146584606F024FD424621465846059BA6
:10C1500006F0D2FC07461FB1384609B0BDE8F08FA3
:10C16000484606F0E3FC07460FB13846F5E7019C68
:10C17000029D04EB0800461EB6FBF5F005FB1060BF
:10C1800030B1B6FBF5F000F1010A0AFB05F0461EDE
:10C190000021584606F091FC0CE024F07F4040F06E
:10C1A000106008494860584606F0CAFC074607B1C7
:10C1B00002E02C44B442F0D900BF584606F076FCA9
:10C1C0003846CAE70000024010B504460CB9042006
:10C1D00010BD194AD26CC2F303610F2902D14FF48A
:10C1E000003003E0154A32F811209002002222604C
:10C1F000606001222272D202E2601148017880154B
:10C20000884060610E48283890F82B00A0612046D5
:10C2100006F064FC58B100200A4908600A484860EA
:10C220000A4888600846E061204600F011F80020C6
:10C230002062606200BFCBE70080044068760100A6
:10C2400028000240F8EFFF1F78EFFF1FB8EFFF1F35
:10C2500070B504460CB1E06908B9042070BDE56909
:10C26000686804F067F8A86804F054F802202860B1
:10C270000020F3E72DE9F04188B080460D461446D2
:10C280001E461CB9042008B0BDE8F0816A46294664
:10C29000404606F07DFC324629464046039B06F0A8
:10C2A0002BFC07460FB13846EDE7009D00214046C4
:10C2B00006F003FC20E001CC1349886003980428B1
:10C2C00005D125F07F4040F0C06048600AE0039847
:10C2D000082807D101CC0C49C86025F07F4040F008
:10C2E000E0604860404606F02BFC074607B105E0D9
:10C2F000039805440398361A002EDCD100BF40464F
:10C3000006F0D4FB3846BEE7000002402DE9FF4F9F
:10C3100089B00C46924601AA2146099806F038FCDD
:10C3200052462146069B099806F0E6FB8146B9F184
:10C33000000F03D048460DB0BDE8F08F01AA21469A
:10C34000099806F025FC019C039F60427942084051
:10C350004542A54200D13D44564625E0A5EB0408E0
:10C36000B04500D9B0460698B8FBF0FB24F07F40FA
:10C3700040F080700E4948604FEA0B410C98C0B203
:10C3800041EA002040F0FF0009498860099806F062
:10C39000D7FB8146B9F1000F01D04846CBE7A6EBA9
:10C3A000080644443D4400BF002ED7D10020C2E718
:10C3B000000002402DE9F04F89B082460C46174636
:10C3C0001D46DDE912B8DDF850901DB9042009B012
:10C3D000BDE8F08F01AA2146504606F0D9FB3A4647
:10C3E00021465046089B06F087FB06460EB13046B4
:10C3F000EDE7019C25E024F07F4040F000701349F8
:10C4000048606FF07F4040EA0B6088602868C86031
:10C41000504606F095FB06465EB1B8F1000F01D01C
:10C42000C8F80040B9F1000F02D00020C9F80000A0
:10C4300009E008983F1A0898800805EB80050898DD
:10C440000444002FD7D100BF3046C0E700000240AF
:10C450001AB901238B40836002E001238B404360C3
:10C4600070478160704781607047416070474160EC
:10C47000704700BFEFF30980014608F0DAFB00BF08
:10C48000FEE700003348806B40F4F0503149886388
:10C490004FF4A070304948612020304908602F488F
:10C4A0008438D0F8940040F020002C491031086006
:10C4B0004FF4A07028498861402028498439C1F888
:10C4C00084000846D0F8940040F040002349103121
:10C4D000086040F203102049C86120488438D0F831
:10C4E000940020F080001D49103108604FF4A070C6
:10C4F00019494862481519498439C1F88400084629
:10C50000D0F8940040F400701449103108604FF4E2
:10C51000A07011490862881510498439C1F8840057
:10C520000846D0F8940040F480700C49103108603F
:10C5300040F2231008490861102008498439C1F8E5
:10C5400084000846D0F8940020F010000349103110
:10C55000086070470080044000B0044084F00F4041
:10C5600008B50020009009F0D7F908B9002008BDEF
:10C570004EF29E7009F0AAFA08B90020F7E709F018
:10C58000CBF908B90020F2E7684609F08DF908B93F
:10C590000020ECE70120EAE7002020E00A2100EB80
:10C5A0004002154B03EB82021171C82100EB4002DF
:10C5B00003EB82029171002100EB400203EB820247
:10C5C0005171052100EB400203EB8202D171002181
:10C5D00000EB400203EB82021172411CC8B2012839
:10C5E000DCDB0121044A9172022151720321D172D4
:10C5F00002491160704700009C0100202D330100AA
:10C6000070B5002418E004F1B001C8B207F078FC5E
:10C61000002007F075FC102007F072FC002507E0F1
:10C62000074901EBC411485D07F0A8FC681CC5B2BE
:10C63000802DF5DB601CC4B2082CE4DB70BD00006B
:10C64000141D002010B5012002490870FFF7D8FF23
:10C6500010BD000040E0FF1F2DE9FF4780460C465B
:10C66000914623A103C9CDE9020123A103C9CDE964
:10C6700000012046E11704EB5171C1F3C70708F030
:10C68000FF061F4800EBC710855DB9F1000F0AD106
:10C690002046E11704EB5171C910A4EBC1011DF84C
:10C6A00001100D4009E02046E11704EB5171C9105B
:10C6B000A4EBC10102AA515C0D43114800EBC71065
:10C6C000855510480078012810D107F1B001C8B293
:10C6D00007F016FC06F00F0007F012FC102101EB2A
:10C6E000161007F00DFC284607F048FCBDE8FF8750
:10C6F0000102040810204080FEFDFBF7EFDFBF7F42
:10C70000141D002040E0FF1F002001490870704701
:10C7100040E0FF1F50F8213062F30A2340F8213037
:10C720007047000010B5034801680348FFF7D2FACC
:10C7300010BD00003000002000C0024010B50348CA
:10C7400041680348FFF7C6FA10BD00003000002022
:10C7500000D0024030B504460D460648407820B16E
:10C760002946204600F008F830BD2946204600F052
:10C7700075FAF9E7FC1C0020F0B503460F460024CB
:10C780000120DFF824C4CCF8180000BF00BF20202F
:10C79000DFF818C4CCF8880000BF00BF00BF00BF9E
:10C7A000CCF8840000BF00BF00BF1A461346FE4805
:10C7B000836100BF00BF2020CCF8880000BF00BF0D
:10C7C00000BF00BFCCF8840000BF00BF00BF14440E
:10C7D0005A081046DFF8D0C3CCF8180000BF00BFDD
:10C7E0002020DFF8C8C3CCF8880000BF00BF00BF1E
:10C7F00000BFCCF8840000BF00BF00BF14449A08FB
:10C800001046DFF8A4C3CCF8180000BF00BF2020FA
:10C81000DFF898C3CCF8880000BF00BF00BF00BF9E
:10C82000CCF8840000BF00BF00BF1444DA081046F3
:10C83000DFF874C3CCF8180000BF00BF2020DFF879
:10C840006CC3CCF8880000BF00BF00BF00BFCCF8AD
:10C85000840000BF00BF00BF14442046DFF848C377
:10C86000CCF8180000BF00BF2020DFF840C3CCF890
:10C87000880000BF00BF00BF00BFCCF8840000BF2D
:10C8800000BF00BF0020DFF820C3CCF8180000BFB5
:10C8900000BF2020DFF814C3CCF8880000BF00BF21
:10C8A00000BF00BFCCF8840000BF00BF00BF012064
:10C8B000DFF8F4C2CCF8180000BF00BF2020DFF87A
:10C8C000ECC2CCF8880000BF00BF00BF00BFCCF8AE
:10C8D000840000BF00BF00BF00BF0001CCF884008F
:10C8E00000BFB348017D0FE000BF2020DFF8BCC2CD
:10C8F000CCF8880000BF00BF00BF00BFCCF88400A8
:10C9000000BF00BF00BF491E0029EDD100BF20209D
:10C91000DFF898C2CCF8880000BF00BF00BF00BF9E
:10C92000A4480068024600BF2020CCF8840000BF65
:10C9300000BF00BF164600BFCCF8880000BF00BF94
:10C9400000BF00BF9848D0F81C02024600BF20205C
:10C95000CCF8840000BF00BF00BF46EA420600BF1B
:10C96000CCF8880000BF00BF00BF00BF914800683E
:10C97000024600BF2020CCF8840000BF00BF00BFEB
:10C9800046EA8206012E7DD103F00200002858D02D
:10C9900000250024202118E000BF2020DFF80CC271
:10C9A000CCF8880000BF00BF00BF00BF814800680E
:10C9B000024600BF2020CCF8840000BF00BF00BFAB
:10C9C00014446D0845EAC275491E0029E4D100BF30
:10C9D0002020DFF8D8C1CCF8880000BF00BF00BF1E
:10C9E00000BF74480068024600BF2020CCF88400D5
:10C9F00000BF00BF00BF84EA020000F0010000B1E8
:10CA0000082607B13D606A48017D0FE000BF202085
:10CA1000DFF898C1CCF8880000BF00BF00BF00BF9E
:10CA2000CCF8840000BF00BF00BF491E0029EDD133
:10CA300000BF4FF40070DFF874C1CCF8880000BF6D
:10CA40004FE05B48017D0FE000BF2020DFF85CC1B4
:10CA5000CCF8880000BF00BF00BF00BFCCF8840046
:10CA600000BF00BF00BF491E0029EDD100BF4FF439
:10CA70000070DFF838C1CCF8880000BF3D680024A2
:10CA8000202118E051E02846DFF81CC1CCF818003E
:10CA900000BF00BF2020DFF814C1CCF8880000BF21
:10CAA00000BF00BF00BFCCF8840000BF00BF00BFC4
:10CAB0002C446D08491E0029E5D100BF3A48846125
:10CAC00000BF00BF2020DFF8E4C0CCF8880000BF22
:10CAD00000BF00BF00BFCCF8840000BF00BF00BF94
:10CAE00000BF3348017AC1B10020DFF8BCC0CCF8E8
:10CAF000180000BF0FE000BF2020DFF8B0C0CCF866
:10CB0000880000BF00BF00BF00BFCCF8840000BF9A
:10CB100000BF00BF491E0029EDD10120DFF888C009
:10CB2000CCF8180000BFF0B2F0BD022E01D0042EE8
:10CB300067D11F48407DB0B103F0020098B12121B8
:10CB40000FE000BF2020DFF864C0CCF8880000BFF1
:10CB500000BF00BF00BFCCF8840000BF00BF00BF13
:10CB6000491E0029EDD11248017D0FE000BF2020B1
:10CB7000DFF838C0CCF8880000BF00BF00BF00BF9E
:10CB8000CCF8840000BF00BF00BF491E0029EDD1D2
:10CB900000BF4FF40070DFF814C0CCF8880000BF6D
:10CBA0000348407D28B307E00010FE4300F00F402B
:10CBB000FC1C00201C12FE4303F00200C8B9002038
:10CBC000DFF88CC0CCF8180000BF21210FE000BFB7
:10CBD0002020DFF880C0CCF8880000BF00BF00BF75
:10CBE00000BFCCF8840000BF00BF00BF491E002971
:10CBF000EDD10120DFF858C0CCF8180000BFF0B22A
:10CC000092E71548007D00F121010FE000BF2020D0
:10CC1000DFF840C0CCF8880000BF00BF00BF00BFF5
:10CC2000CCF8840000BF00BF00BF491E0029EDD131
:10CC300000BF4FF40070DFF81CC0CCF8880000BFC4
:10CC40000120DFF80CC0CCF8180000BFF0B26BE791
:10CC50000010FE4300F00F40FC1C002003B587B01D
:10CC60000020039001200190FE490198886100BFD7
:10CC700000BF2020FC49086000BFFC4840680190CC
:10CC80000198009000BF00BF0098401E009000284F
:10CC9000FAD100BF00BF2020F349091F086000BF80
:10CCA000F248406801900198009000BF00BF0098D2
:10CCB000401E00900028FAD100BF07980590059803
:10CCC0000190E8490198886100BF00BF2021E64833
:10CCD000016000BFE548406801900198009000BFE6
:10CCE00000BF0098401E00900028FAD100BF00BF8E
:10CCF0002020DD49091F086000BFDC484068019022
:10CD00000198009000BF00BF0098401E00900028CE
:10CD1000FAD100BF0599039808440390079840088A
:10CD2000059005980190CF490198886100BF00BF28
:10CD30002020CD49086000BFCC4840680190019890
:10CD4000009000BF00BF0098401E00900028FAD15C
:10CD500000BF00BF2020C449091F086000BFC348AE
:10CD6000406801900198009000BF00BF0098401EED
:10CD700000900028FAD100BF059903980844039059
:10CD800007988008059005980190B6490198886138
:10CD900000BF00BF2020B449086000BFB34840680E
:10CDA00001900198009000BF00BF0098401E0090C5
:10CDB0000028FAD100BF00BF2020AB49091F08603E
:10CDC00000BFAA48406801900198009000BF00BFD2
:10CDD0000098401E00900028FAD100BF05990398E2
:10CDE000084403900798C0080590059801909D4954
:10CDF0000198886100BF00BF20209B49086000BFE8
:10CE00009A48406801900198009000BF00BF0098C8
:10CE1000401E00900028FAD100BF00BF2020924998
:10CE2000091F086000BF9148406801900198009078
:10CE300000BF00BF0098401E00900028FAD100BF3C
:10CE40000599039808440390039801908549019837
:10CE5000886100BF00BF20208349086000BF83486D
:10CE6000406801900198009000BF00BF0098401EEC
:10CE700000900028FAD100BF00BF20207A49091F86
:10CE8000086000BF7948406801900198009000BF99
:10CE900000BF0098401E00900028FAD100BF01900A
:10CEA00070490198886100BF00BF20206E4908606A
:10CEB00000BF6E48406801900198009000BF00BF1D
:10CEC0000098401E00900028FAD100BF00BF20202B
:10CED0006549091F086000BF6448406801900198D7
:10CEE000009000BF00BF0098401E00900028FAD1BB
:10CEF00000BF012001905B490198886100BF00BF1D
:10CF000020205949086000BF5848406801900198A6
:10CF1000009000BF00BF0098401E00900028FAD18A
:10CF200000BF00BF20205049091F086000BF4F48C4
:10CF3000406801900198009000BF00BF0098401E1B
:10CF400000900028FAD100BF00BF4FF4007046499E
:10CF5000091F086000BF4548007D029027E000BF20
:10CF600020204149086000BF404840680190019876
:10CF7000009000BF00BF0098401E00900028FAD12A
:10CF800000BF00BF20203849091F086000BF374894
:10CF9000406801900198009000BF00BF0098401EBB
:10CFA00000900028FAD100BF0298401E029002981B
:10CFB0000028D4D100BF20202B49086000BF2B4897
:10CFC000406801900198009000BF00BF0098401E8B
:10CFD00000900028FAD100BF00BF254800680590E6
:10CFE00000BF202020498839C1F8840000BF1F48B5
:10CFF000406801900198009000BF00BF0098401E5B
:10D0000000900028FAD100BF0598069000BF2020AC
:10D010001549086000BF15484068019001980090CC
:10D0200000BF00BF0098401E00900028FAD100BF4A
:10D0300000BF0F480068059000BF20200A498839CA
:10D04000C1F8840000BF0948406801900198009031
:10D0500000BF00BF0098401E00900028FAD100BF1A
:10D0600008E000000010FE4388F00F40FC1C002088
:10D070001C12FE43DDE9051040EA4100069000BFA6
:10D080002021FE48016000BFFD48406801900198E2
:10D09000009000BF00BF0098401E00900028FAD109
:10D0A00000BF00BFF7480068059000BF2020F3498B
:10D0B0008839C1F8840000BFF148406801900198A8
:10D0C000009000BF00BF0098401E00900028FAD1D9
:10D0D00000BFDDE9051040EA8100069006980128AE
:10D0E0007ED1079800F0020000287AD0002004903A
:10D0F00003902020029038E000BF2020DF49086024
:10D1000000BFDF48406801900198009000BF00BF59
:10D110000098401E00900028FAD100BF00BFD948F7
:10D120000068059000BF2020D4498839C1F88400E8
:10D1300000BFD348406801900198009000BF00BF35
:10D140000098401E00900028FAD100BF059903986E
:10D1500008440390049840080490DDE9040140EA83
:10D16000C17004900298401E029002980028C3D11A
:10D1700000BF2020C149086000BFC148406801903D
:10D180000198009000BF00BF0098401E009000284A
:10D19000FAD100BF00BFBB480068059000BF202047
:10D1A000B6498839C1F8840000BFB548406801908D
:10D1B0000198009000BF00BF0098401E009000281A
:10D1C000FAD100BF05990398484000F0010008B16A
:10D1D00008200690089810B108990498086001E0AA
:10D1E00017E135E0A648007D029027E000BF20202F
:10D1F000A249086000BFA2484068019001980090D1
:10D2000000BF00BF0098401E00900028FAD100BF68
:10D2100000BF20209949091F086000BF9848406856
:10D2200001900198009000BF00BF0098401E009040
:10D230000028FAD100BF0298401E029002980028F0
:10D24000D4D100BF4FF400708C49086000BF9FE04C
:10D250008B48007D029027E000BF202087490860AE
:10D2600000BF8748406801900198009000BF00BF50
:10D270000098401E00900028FAD100BF00BF202176
:10D280007E48001F016000BF7D4840680190019802
:10D29000009000BF00BF0098401E00900028FAD107
:10D2A00000BF0298401E029002980028D4D100BF0F
:10D2B0004FF400717148016000BF08980068049045
:10D2C000002003902020029034E0049801906E49E1
:10D2D0000198886100BF00BF20206849086000BF36
:10D2E0006748406801900198009000BF00BF009817
:10D2F000401E00900028FAD100BF00BF20205F49E7
:10D30000091F086000BF5E484068019001980090C6
:10D3100000BF00BF0098401E00900028FAD100BF57
:10D32000DDE9030108440390049840080490029842
:10D33000401E029002980028C7D1039801905249DC
:10D340000198886100BF00BF20204C49086000BFE1
:10D350004B48406801900198009000BF00BF0098C2
:10D36000401E00900028FAD100BF00BF2021434892
:10D37000001F016000BF4248406801900198009082
:10D3800000BF00BF0098401E00900028FAD100BFE7
:10D390003B48007A0290029888B3002001903A49F5
:10D3A0000198886100BF27E000BF20203349086052
:10D3B00000BF3348406801900198009000BF00BF53
:10D3C0000098401E00900028FAD100BF00BF202026
:10D3D0002A49091F086000BF294840680190019848
:10D3E000009000BF00BF0098401E00900028FAD1B6
:10D3F00000BF0298401E029002980028D4D101205C
:10D40000019021490198886100BF0698C0B209B017
:10D4100000BD0698022802D0069804287ED118483C
:10D42000407D98B3079800F0020078B32120029065
:10D4300031E000BF20211148016000BF1048406862
:10D4400001900198009000BF00BF0098401E00901E
:10D450000028FAD100BF00BF20200849091F08603A
:10D4600000BF0748406801900198009000BF00BFCE
:10D470000098401E00900028FAD108E088F00F4084
:10D48000FC1C00201C12FE430010FE4306E000BFFF
:10D490000298401E029002980028CAD15C48007D84
:10D4A000029027E000BF20215A48016000BF584881
:10D4B000406801900198009000BF00BF0098401E96
:10D4C00000900028FAD100BF00BF20205149091F59
:10D4D000086000BF4E48406801900198009000BF6E
:10D4E00000BF0098401E00900028FAD100BF0298AB
:10D4F000401E029002980028D4D100BF4FF4007063
:10D500004449086000BF4248407DC8B3079800F016
:10D510000200A8BB002001903F4900E039E00198DB
:10D52000886100BF2120029027E000BF20203949F8
:10D53000086000BF3648406801900198009000BF25
:10D5400000BF0098401E00900028FAD100BF00BF25
:10D5500020203049091F086000BF2D484068019015
:10D560000198009000BF00BF0098401E0090002866
:10D57000FAD100BF0298401E029002980028D4D130
:10D580000120019024490198886100BF0698C0B22B
:10D590003DE71F48007D2130029027E000BF20209A
:10D5A0001C49086000BF1A4840680190019800902B
:10D5B00000BF00BF0098401E00900028FAD100BFB5
:10D5C00000BF20201349091F086000BF10484068B1
:10D5D00001900198009000BF00BF0098401E00908D
:10D5E0000028FAD100BF0298401E0290029800283D
:10D5F000D4D100BF4FF400710648016000BF012084
:10D60000019005490198886100BF0698C0B2FEE606
:10D61000FC1C002088F00F400010FE4370B5002273
:10D62000002332E013B911F8012B082302F00104A2
:10D630002CB100BF4024174D2C6000BF06E000BF96
:10D640004024144D2D1D2C6000BF00BF00BF2024BE
:10D65000104D2D1D2C6000BF0F4D6C68254600BF7E
:10D6600000BF6E1E351EFCD100BF00BF2024094D37
:10D670002C6000BF084D6C68254600BF00BF6E1EC1
:10D68000351EFCD100BF52085B1E041EA0F1010034
:10D69000C8D170BD84F00F40FC1C00200848006811
:10D6A00040F47000064908604CF220500549C881DA
:10D6B0004DF62810C8814FF4E970088070470000CB
:10D6C00088ED00E00020054010B5074801680748D4
:10D6D000074A1268904700BF00BF00BFBFF34F8FDB
:10D6E00000BF00BF00BF10BD4C21002000A00640BD
:10D6F00054E0FF1F10B5FFF7E7FF00BF00BF00BFFA
:10D70000BFF34F8F00BF00BF00BF10BD10B507486B
:10D7100041680748074A1268904700BF00BF00BF32
:10D72000BFF34F8F00BF00BF00BF10BD4C210020D2
:10D7300000B0064054E0FF1F10B5FFF7E7FF00BF41
:10D7400000BF00BFBFF34F8F00BF00BF00BF10BDC1
:10D75000F8B522480479C07800F0200008B924F018
:10D7600020041E48C07800F0800008B924F080042E
:10D7700004F0800070B11A4802F05BFC1749C871D0
:10D78000174802F027FC28B91448C07820F0800020
:10D790001249C87004F02000F0B104F0040010B980
:10D7A00004F0020018B10D48C079009014E00B4855
:10D7B000C6790C4802F0F8FB0546132D04D9314612
:10D7C000084802F052FC06E0064802F032FC3146FE
:10D7D000044802F04AFC00BFF8BD000000B006405B
:10D7E000CC010020DC02002010B507488168074802
:10D7F000074A1268904700BF00BF00BFBFF34F8FBA
:10D8000000BF00BF00BF10BD4C21002000C006407B
:10D8100054E0FF1F10B5FFF7E7FF00BF00BF00BFD8
:10D82000BFF34F8F00BF00BF00BF10BD2DE9F04711
:10D830004FF00009474800780446074604F0080006
:10D84000002870D06BE04349103108780509C0F317
:10D85000C006C0F3800865BB5EBB730005F00F0215
:10D8600003EB8202012303FB08213B4A12F831201B
:10D87000C2F38302012A1BD1374A02EBC10252884C
:10D88000B2B9364A525D344B03EBC1035A80324A77
:10D8900012F8312002F0400222B188222E4B03F808
:10D8A000312003E0C8222C4B03F8312040F0010066
:10D8B00000BF014600BFEFF3108C0CF0010372B6FD
:10D8C00000BF1A46DFF898C0DFF898A0DAF800A089
:10D8D0000CF80A10234B1B685B1C4FF0190CB3FBB0
:10D8E000FCFA0CFB1A33DFF87CC0CCF8003013468E
:10D8F00003B962B600BF00BF0821164A1170B9F122
:10D90000000F05D113491431097801F0200109B144
:10D91000012100E0002189460E490C7800BF04F087
:10D92000080000288FD1274339460F4806F0A7FE8C
:10D93000B9F1000F01D0012000E000200B49097867
:10D9400008430A49087003490C7001F07FFABDE8EA
:10D95000F08700008020074000F2FF1F70E0FF1FEB
:10D96000C0F8FF1F7CE0FF1F80E0FF1F84E0FF1F67
:10D9700001460020704701460020704710B504465C
:10D980000648006800B110BD01200449086000F09D
:10D9900007F800200149086000BFF4E740010020BB
:10D9A00070B53848006800B970BD3748006837491D
:10D9B0000968441A34B93648006818B9002031495A
:10D9C0000860F1E714B333480068334909688842B6
:10D9D0000FD33048006820443049314A128811443E
:10D9E000884206D32D482E490988084429490968E8
:10D9F000441A2C482C49097830F81100A04209DA61
:10DA000028482949097830F8114003E02048006887
:10DA100000B1002400201E4908602449097841F023
:10DA2000800022461B49096802F012F90546194890
:10DA300000682844174908601448006828441349BE
:10DA4000086016481649098808441249096888423E
:10DA500002D112480F4908600B4800680B49096859
:10DA600088420AD10F481049097830F81100A842BD
:10DA700003D101200649086002E000200449086043
:10DA800000BF91E7440100204C010020500100201C
:10DA90004801002058010020540100204A220020A3
:10DAA000207C0100287C01002D0100201D7C01004C
:10DAB00010B504461148006828B111480068401CA0
:10DAC0000F49086010BD01200C4908600D4908602D
:10DAD00000F01EF800200B490860084908600A4859
:10DAE00000680A490968884206D007490968074A58
:10DAF0001268881AFFF73FFF00BFE3E75C010020D0
:10DB000064010020600100206C01002070010020F1
:10DB100070B51D4800681D49401A1D490988081A3A
:10DB20001C491D4A127831F8121088421FDB164832
:10DB300000681649401A164909880D1A2A461248E3
:10DB400001681648007801F00FFB04460E48006893
:10DB500020440D4908601248006898B111480068D7
:10DB600080B90F480068401E0D4908600AE0012096
:10DB70000D4908600B48006820B109480068401C46
:10DB80000749086070BD00006C0100208A22002057
:10DB9000227C0100287C01002D0100201E7C010058
:10DBA00064010020600100206801002010B50446D7
:10DBB00004F0040010B12046FFF77AFF04F00800DB
:10DBC00010B12046FFF7DAFE10BD70470146002075
:10DBD000704700207047000010B5104800F072F840
:10DBE000D0B10E4800780E4908700C480088000A31
:10DBF00048700A480068000C887008480068000EE9
:10DC0000C870064800790871044840794871034893
:10DC100080798871012010BD0020FCE7760100208A
:10DC20008821002010B500201549086015490860BA
:10DC300015490860154908601549086015481649D6
:10DC400008601649086000201549086015490860F9
:10DC500015490860154908601548164908601649B5
:10DC600008600020154908804FF4165014490860D8
:10DC70000020087148710820887100F035F810BD47
:10DC80004001002044010020480100204C010020F8
:10DC9000500100204A220020540100205801002099
:10DCA0005C01002060010020640100206801002068
:10DCB0008A2200206C0100207001002074010020E5
:10DCC0007601002001460748006808600548007991
:10DCD00088710448407948710248807908710120B0
:10DCE00070470000C8E0FF1F10B508F06BF805F0A2
:10DCF00029FE012010BD10B508F0A2F8012010BDCA
:10DD0000014601207047000010B50446206807490D
:10DD10000860A079087160794871207988710020C5
:10DD2000C871084608F0A0F810BD0000C8E0FF1F49
:10DD300010B50020174908601749086017490860A6
:10DD400017490860174908601748184908601849BA
:10DD500008600020174908601749086017490860E3
:10DD600017490860174818490860184908600020DA
:10DD700017490880FFF7BFFF4FF416501549086098
:10DD8000002008714871082088710846FFF7BCFF21
:10DD900010BD000040010020440100204801002087
:10DDA0004C010020500100204A2200205401002094
:10DDB000580100205C010020600100206401002067
:10DDC000680100208A2200206C01002070010020E0
:10DDD000740100207601002010B5FFF7A9FF10BDE7
:10DDE00010B52A48007800B910BD29480068B8B9B4
:10DDF0002848006828490968884211D125480068E8
:10DE0000264988420CD00120214908602348214935
:10DE10000860214908600020214908601C49086009
:10DE200020480068D0B11A480068B8B91C4800689A
:10DE3000A0B9012016490860FFF76AFE00201449C6
:10DE400008601448006814490968884206D01149DE
:10DE50000968114A1268881AFFF78DFD1248006898
:10DE600090B91248006878B91148006811490968EA
:10DE7000401A09D001200C4908600C490860FFF7DE
:10DE80008FFD00200849086000BFADE71F0100209A
:10DE90005C0100206C010020700100208A2200201B
:10DEA000680100206401002040010020440100209E
:10DEB0004C0100205001002070B5054645B1DFF847
:10DEC00038C000DF0D490860002007F04EFF10E069
:10DED000DFF824C000DF044608480068201AB0F5C7
:10DEE000967F03D3012005F045FD02E0002005F0F8
:10DEF00041FD012070BD000099510100D0E0FF1FDD
:10DF000000207047014600207047000010B504460D
:10DF1000024804802046FFF7F3FE10BD7401002084
:10DF200010B50E4800780D49497840EA01200B49A8
:10DF3000897840EA01400949C97840EA0160084906
:10DF40000860064800790871044840794871034820
:10DF5000807988710846FFF7D7FE10BD8821002020
:10DF60007601002010B508480178084800F056F8FE
:10DF7000074908600846006820B10020054908608C
:10DF800000F00AF810BD0000B4E0FF1FD42200200A
:10DF9000B8E0FF1FBCE0FF1F70B5002519480068FE
:10DFA00050B31848006818490988884202D21548B9
:10DFB000006801E0144800880546002408E0134882
:10DFC0000068204412490968085C12490855641C1D
:10DFD000AC42F4D31049097841F080002A460D493B
:10DFE00001F036FE094800682844084908600548E1
:10DFF0000068401B034908600248006808B900F047
:10E000008BF870BDB8E0FF1F307C0100BCE0FF1F43
:10E01000C4E0FF1FD42200202D7C010070B505460E
:10E020000C462248007810B1012828D120E0082CA5
:10E0300000DA2AE0284604F0E7FE1D490860084699
:10E040000068B0F5A06F01D3012000E0002018495E
:10E05000096809B9012100E00021084308B100F076
:10E060005BF82146284602F08BF8104908700CE056
:10E070002146284602F084F80C49087005E000208B
:10E080000A49087000F048F800BF00BF0748007850
:10E09000022808D10749084803F054F907490860E5
:10E0A0000846006870BD0020FCE70000000000206A
:10E0B00008000020D4E5FF1FD4E0FF1F0C00002063
:10E0C00010B50446FFF768FF10BD000010B5044608
:10E0D0000548028805490648007801F045F80549D9
:10E0E0000870FFF73FFF10BD307C0100D4220020F4
:10E0F0002E7C0100B4E0FF1F10B5044604F00400BC
:10E1000010B12046FFF7E2FF04F0080010B12046EE
:10E11000FFF7D6FF10BD0000002004490860044945
:10E12000086004490860044908707047080000202E
:10E130000C000020040000200000002000200749FF
:10E140000860074908600748074908600748084908
:10E150000860002007490870704700000800002090
:10E1600004000020D4E0FF1FC0E0FF1FD4E5FF1F24
:10E17000C4E0FF1F0000002010B50446074804F06B
:10E180000F0110F8210020F00201044804F00F02F2
:10E1900000F82210204601F09BFC10BDC020074073
:10E1A00070B50446A578A688A07800F0800008B96C
:10E1B00002494E55284601F08BFC70BD70E0FF1FF0
:10E1C000704700F075BB000060B10E49097841F05E
:10E1D00001010C4A943A82F894101021094A7432D1
:10E1E00011700EE00749097821F00101054A943ABF
:10E1F00082F89410114691F8081121F0100182F86C
:10E20000081170479420074010B5104880881049C5
:10E210000978884202DD0E48047801E00B488488C2
:10E2200014B900200B490870084822460168802074
:10E2300001F00EFD044605480068204403490860CB
:10E2400008468088001B888010BD00003001002037
:10E25000057C01002E01002010B508488288016865
:10E26000002000F081FF0446044800682044034970
:10E27000086008468088001B888010BD300100209F
:10E280007047000000F0800151B100F00F00094913
:10E2900011F8201021F00502064901F8202007E0BE
:10E2A000044911F8201021F00902024901F8202048
:10E2B00070470000C020074000F0800151B100F01D
:10E2C0000F00094911F8201041F00502064901F834
:10E2D000202007E0044911F8201041F0090202490A
:10E2E00001F8202070470000C020074010B5044608
:10E2F00004F00200002872D001F07EFCBD490978CC
:10E30000C809FFF7BDFFBB48C088BB498880B94832
:10E310000078C0F3411020B101286ED002286DD1E1
:10E32000C5E0B44840780C2869D2DFE800F0060D5B
:10E33000A21BA229464D4E62729501F0D7F800B992
:10E34000DBE0FFF761FF95E0002001F02FF900B955
:10E35000D3E001F05BFCA948006810B1A748006851
:10E36000804787E0012001F021F900B9C5E001F004
:10E370004DFCA248006810B1A0480068804779E0D1
:10E3800000BF9C48007800F01F0030B999488078A1
:10E3900040F080009A49087001E0002001E000BFD1
:10E3A000012000B9A9E09649097801F07F00012118
:10E3B00001F00CFC01F02AFC5CE000F05FFF00B90A
:10E3C0009BE0FFF721FF55E097E000BF8948007808
:10E3D00000F01F0020B98B488749086002E09FE0E9
:10E3E000002001E000BF012000B986E0FFF70CFF2C
:10E3F00040E001F053F918B97FE03DE07CE038E0FF
:10E4000001F004FC8048006810B17F480068804734
:10E4100030E000BF7748007800F01F00012812D1DB
:10E420007848007860B17348007978490978884263
:10E4300006DA70480079764908446F49086001E0BF
:10E44000002004E001E0002001E000BF012000B94D
:10E4500053E0FFF7D9FE0DE001F012FA00B94CE0ED
:10E4600001F0D4FB6B48006810B16A48006880472F
:10E4700000E042E000BF52E05E48007800F01F007C
:10E4800020B1012803D002280FD10DE035E000F0C3
:10E490009BF900B10AE000F009FA00B106E000F0D3
:10E4A00013F900B102E028E027E026E037E0514808
:10E4B000007800F01F0010B101281AD10CE04D487F
:10E4C0000079042803D154484B49086000E000BF9C
:10E4D00000BFFFF799FE0DE046480079052803D1FB
:10E4E0004E484549086000E000BF00BFFFF78CFEC2
:10E4F00000E002E000BF12E000BF3E480078C00923
:10E5000030B93C48C08818B1002001F067FB02E038
:10E51000802001F063FB00203749888000BF00BFE6
:10E5200004F0040098B333480078C00980BB324837
:10E53000808860B3FFF790FE2F48808838BB2D4855
:10E540000078C0F3411010B1012818D100E017E0A5
:10E550002848007800F01F0020B1012803D00228CD
:10E560000BD109E00CE000F095F800B106E000F0F6
:10E5700059F800B102E003E002E001E007E000BF6B
:10E58000802001F02BFB00201B49888000BF02E0A7
:10E59000FFE701F043FB04F00800F0B115480078F4
:10E5A0000121B1EBD01F08D11348808810B91C4855
:10E5B000007890B1FFF728FE0FE01148007800F0D6
:10E5C000800050B10E48007800F07F000C490870C0
:10E5D00000210B48007801F0F9FA04F0400010B176
:10E5E0000020FFF7C9FD04F0800010B18020FFF784
:10E5F000C3FD10BD3801002030010020987C0100CF
:10E600001E0100201F010020907C01002C01002031
:10E6100058000020947C0100640000208C00002041
:10E620002E01002010B51848007918490978884251
:10E6300005D01548007916490978884222D1124838
:10E64000407820B102280AD020281AD111E0FFF723
:10E6500057FC18B101F0DAFA012010BD11E00A49A7
:10E660004888FFF74FFC18B101F0D0FA0120F4E719
:10E6700007E0FFF755FC18B101F0C8FA0120ECE7FC
:10E6800000BF00BF0020E8E7380100201A7C01002D
:10E690001B7C010010B50A4800790A4909788842B4
:10E6A0000CD107484078092807D100F0ABFB18B11E
:10E6B00001F0ACFA012010BD00BF00BF0020FAE756
:10E6C00038010020067C010010B53A4800793A492B
:10E6D0000978884205D03748007938490978884256
:10E6E00066D134484078042833D007DC78B101285B
:10E6F00012D002281BD0032859D11DE0202832D087
:10E70000212835D022283ED0232850D145E02C485E
:10E710002C490860012010BDFFF75BFA30B1284892
:10E7200028490860FFF770FD0120F4E73FE0244826
:10E73000244908600120EEE71E494888FFF746FAA1
:10E7400030B11F481F490860FFF75EFD0120E2E776
:10E750002DE018494888FFF70BF918B101F056FA77
:10E760000120D8E723E01648164908600120D2E7C7
:10E77000FFF732FA30B1124812490860FFF744FD42
:10E780000120C8E713E00B494888FFF7BFFB18B129
:10E7900001F03CFA0120BEE709E006494888FFF78E
:10E7A0008BFB18B101F032FA0120B4E700BF00BFC3
:10E7B0000020B0E7380100201A7C01001B7C01001A
:10E7C000882100203001002010B5314800793149FE
:10E7D000097888425AD12E4840780C2855D2DFE873
:10E7E00000F054062E4154545454541D394C00F03A
:10E7F00003FA90B12648C078012803D1264827495A
:10E80000086006E02248C078032802D12448234942
:10E810000860FFF7F9FC012010BD36E01C48C07805
:10E82000022803D11F481D49086006E01848C07837
:10E83000032802D11A48194908600120ECE700F0CA
:10E84000C3F930B1184815490860FFF7DDFC012015
:10E85000E2E71AE000F0AEFA18B101F0D7F90120B2
:10E86000DAE712E000F0BEF930B10F480B4908605A
:10E87000FFF7CAFC0120CFE707E000F0B9FA18B1B2
:10E8800001F0C4F90120C7E700BF00BF0020C3E7C3
:10E8900038010020067C0100C92100203001002041
:10E8A000620000200A2200208821002000207047FA
:10E8B00000200C4908700C4908600C4908600C499C
:10E8C00008600C4908800C4908800C4908600C4914
:10E8D00008600C4908800C4908800C4908600C4904
:10E8E000088070478CE0FF1F90E0FF1F94E0FF1F3F
:10E8F00098E0FF1F9CE0FF1F9EE0FF1FA0E0FF1FAE
:10E90000A4E0FF1FA8E0FF1FAAE0FF1FACE0FF1F6D
:10E91000B0E0FF1F70B50646664800886649098862
:10E92000884224DB6548006808BB00206449086011
:10E9300060490880634801780123421C184607F0AB
:10E9400019FB5D4908800846008880B15D485C4934
:10E9500008605D480078012804DC08460068401C17
:10E96000086004E054480088401C5349088052481D
:10E97000008800285ED15548006818B1002053492E
:10E98000086057E052480068002853D04E4800788D
:10E9900001281CDC4E48006800284BD00020494963
:10E9A0000870444908800223464A521C0021012075
:10E9B00007F0E0FA404908800846008818B141484D
:10E9C000401C3F49086000204149086032E03D4852
:10E9D000047800BF202C00DB00240120A0403C492B
:10E9E0000968084010B3601C36490870002031499E
:10E9F0000880601CC1B20223324A521C012007F079
:10EA0000B9FA2D4908800846008838B12D482C49AC
:10EA1000086029480088401C274908800120A04040
:10EA20002B49096881432A48016002E0601CC4B296
:10EA3000D0E700BF2048008810B920480068A0B384
:10EA40001D4800881B490988401A85B2214822497F
:10EA5000097830F81100A84204DA1E481E490978E6
:10EA600030F811501D49097841F080002A461449B8
:10EA7000096801F0EDF81248006828441049086060
:10EA80000C48008828440B4908800846008814492F
:10EA9000098888420ADA0F480F49097830F81100CE
:10EAA000A84203D101200549086002E00020034983
:10EAB000086070BD9EE0FF1F9CE0FF1FA0E0FF1FED
:10EAC00098E0FF1FC8210020127C010090E0FF1F8A
:10EAD00094E0FF1F0E7C01002D010020077C010047
:10EAE000147C010038B505462648008848B92648F8
:10EAF00026490860264800882649088000202149C8
:10EB00000880244800881F490988421A1F48016864
:10EB10002148007800F028FB84B21C48006820449B
:10EB20001A4908601748008820441649088064B1D3
:10EB30000846008816490988884206DA17481849A5
:10EB4000097830F81100A0421BDD16480078012832
:10EB500009DC012000900B4803880B4A00210220A9
:10EB600007F0CEFA0AE00120009006480088431E14
:10EB700005480178421C022007F0C2FA0020014932
:10EB8000088038BDAAE0FF1F09220020A4E0FF1F73
:10EB9000167C0100A8E0FF1F087C01000E7C01002C
:10EBA0002D010020137C010010B5044604F008007C
:10EBB00010B12046FFF7AEFE04F0040010B120466D
:10EBC000FFF790FF10BD0000034880780349085C00
:10EBD00003490870012070473801002060000020C0
:10EBE0008821002010B507F0C3F902490870012000
:10EBF00010BD00008821002010B500240C48C0780A
:10EC0000012804D0022804D0032806D103E0094CCF
:10EC100003E0002010BD084C00BF00BF044A9178FB
:10EC2000D0780023224607F0A5F90120F2E7000082
:10EC300038010020C9210020620000202DE9F041A8
:10EC40005148007800287DD000265048017800788F
:10EC5000401C4E4A10704E48007800EB40020420E1
:10EC60009040401E814203DB002048490870012685
:10EC7000002548480088FF2804DA46480088401CE0
:10EC80004449088044484249097830F81100414914
:10EC90000988884200D10125002462E04FF0000875
:10ECA0009EB13E48005DFF2804DA3C48005D401CF0
:10ECB0003A4908553A48005D38B13848005D38494E
:10ECC000095D884201DB4FF001083548005D30499D
:10ECD000097801EB41020221914088402E492C4ADB
:10ECE000127831F81210884204DA2D48005D08B11C
:10ECF000012000E0002007463DB137B10120A040CF
:10ED0000284909680843274908602548005D2649C5
:10ED1000095D884213D02148005D2349095D88427E
:10ED200009DB0120A0401F49096808431D4908600C
:10ED30000020164908701C48005D19490855B8F1B3
:10ED4000000F00E01EE00AD037B90120A0401549AD
:10ED50000968084313490860002010490855601CE1
:10ED6000C4B212480078844298DB15B100200949EA
:10ED700008800C48006828B10D48008810B90020B0
:10ED8000FFF7C8FDBDE8F0811F010020B2E0FF1FC2
:10ED90002D0100205C0000200A7C01005E000020A4
:10EDA0005F00002094E0FF1F60000020127C010043
:10EDB0009CE0FF1F0B48807830B10A48C278807809
:10EDC000401E094B1A540BE0002105E00548C078AD
:10EDD000054A5054481CC1B2044800788142F5DB12
:10EDE000012070473801002060000020127C0100E3
:10EDF00010B50349887807F081F9012010BD0000A3
:10EE00003801002038B500240D48C078012804D00E
:10EE1000022804D0032806D103E0002038BD094CA5
:10EE200001E0094C00BF00BF0020054A0090D388D4
:10EE30009178D078224607F063F90120EEE70000D0
:10EE4000380100200A220020620000202DE9F0474E
:10EE50004FF0000A00BFEFF3108101F0010072B61D
:10EE600000BF81467F48056800207E4908607E48D3
:10EE700090F800A000207C490870484600B962B6AE
:10EE800000BF05F0010048B100F0A6FD07F09CF9B5
:10EE90007648006810B175480068804705F010009A
:10EEA00038B100F0C7FE7248006810B170480068C1
:10EEB000804705F0200038B100F074FE6D4800680E
:10EEC00010B16C480068804705F0040028B16A481A
:10EED000006810B1684800688047022D0AD1674871
:10EEE000006820B166490878644909688847FF20AE
:10EEF0006349087005F0080000287DD089E000BF54
:10EF000000BFEFF3108303F0010272B600BF114699
:10EF10005C4A5D4B1B68D05C5B4A1268521C19232B
:10EF2000B2FBF3FC03FB1C22574B1A600A4602B9E2
:10EF300062B600BF00BF0646C6F30314C6F3C0079F
:10EF4000C6F3800864BB790004F00F0001EB800079
:10EF5000012101FB08004D4911F83000C0F3830086
:10EF60000D281DD14A48006820F002004849086079
:10EF70004648007E20F08000444908760846007C20
:10EF800020F080000874002042490870424850F880
:10EF9000240090B3404850F824100220884737E0FE
:10EFA000790004F00F0001EB8000012101FB080053
:10EFB000364911F83000C0F3830001280DD11CB987
:10EFC00006F0010033490870334850F8240020B19E
:10EFD000314850F8241004208847790004F00F00CD
:10EFE00001EB8000012101FB0800284911F83000E5
:10EFF000C0F38300092801E026E009E008D1264893
:10F0000050F8240020B1244850F8241008208847E4
:10F0100000BF00BF00BFEFF3108303F0010172B621
:10F0200000BF0846184909681C4B1B68994201D16A
:10F03000012100E000210A46014601B962B600BF85
:10F0400000BF002A3FF45BAFBAF1000F08D00C48B4
:10F050000C30007820F020000949883981F89400AC
:10F06000BDE8F08780E0FF1F84E0FF1F387C0100CF
:10F070003C7C0100407C0100487C01004C7C01008C
:10F0800088200740C0F8FF1F78E0FF1F00F2FF1F35
:10F0900088E0FF1F85E0FF1F507C01007CE0FF1F20
:10F0A00010B54020264908702648406840F4E0200A
:10F0B000244948600846406B40F48020486300F0D3
:10F0C0004DF82148007840F08000204981F80C017B
:10F0D00000BF1D48007800F080000028F9D11C48CE
:10F0E000000A1949703908701948000C174981F84D
:10F0F000B0001748000E144958390870FF20134912
:10F1000081F880001348006808B1042000E0002066
:10F1100040F019001049096809B1022100E00021FE
:10F1200008430A49843108704020084981F80001E9
:10F13000084690F80C0140F0400081F80C0110BD29
:10F1400070E0FF1F008004400C21074000200740B2
:10F1500000F2FF1F487C01004C7C010010B53520F7
:10F1600000F0E9FD10BD70472DE9F05F05460F4640
:10F1700093464FF0000905F00F00002101EB8004D9
:10F18000384800EBC400B0F8028065B93648007812
:10F1900048B16208012000FA02F1344805F080FA13
:10F1A0000020BDE8F09F45B92E4810F83400C0F3A8
:10F1B00083000D2801D14FF00109002605E02C48FD
:10F1C00000EB8410805DB855761C4645F7D329487E
:10F1D000405D244901EBC401488061082348006870
:10F1E000C84000F001001F4911F83410C1F380112C
:10F1F000884217D1B879F97940EA012AB9F1000FAC
:10F2000008D0BAF1000F05D16FF00101174805F0E1
:10F2100025FA06E06208012000FA02F1134805F021
:10F220003FFA00BF610811480068C84000F00100C3
:10F2300058B148200B4901F83400084610F8340052
:10F2400040F0800001F834000AE00820054901F888
:10F250003400084610F8340040F0800001F8340013
:10F2600040469EE700F2FF1F85E0FF1F88E0FF1F7A
:10F27000C0F2FF1F70E0FF1F704700001CB561481F
:10F28000007800F01F0010B1012874D19BE05D48A8
:10F29000C078082870D2DFE800F092041C709292C7
:10F2A0000A475948594908601220009089E0584897
:10F2B000007808B900201CBD5648007818B9564897
:10F2C0005249086002E05548504908600A20009001
:10F2D00077E04F48007828B94E480078012801D1DE
:10F2E0000020E8E74B48007810B94D48019001E054
:10F2F0004C480190002407E00198007818B101986B
:10F30000418808440190641C3E488078A042F3D1B3
:10F310000198007808B90020CDE73C4901980860C1
:10F320000198408800904CE03948007808B90020E6
:10F33000C1E73848007810B93B48019001E03B48EC
:10F340000190002407E00198007818B101984188E5
:10F3500008440190641C2B488078A042F3D10198A6
:10F36000007808B90020A6E72849019808600198AC
:10F370004088009025E02EE021E02D4801900024F7
:10F3800007E00198007818B10198017808440190CD
:10F39000641C1C488078A042F3D11A488078EE287B
:10F3A00001D1244801900198007808B9002082E733
:10F3B00016490198086001980078009001E000204B
:10F3C00079E700BF09E0694601A800F039F808B9FB
:10F3D000002070E701E000206DE700BF0B48808847
:10F3E000009988420CD9094900988880084680888D
:10F3F00011490978491E084010B901200F490870C9
:10F40000012058E738010020C67C010030010020AF
:10F41000017C01002D010020D87C0100D97C010075
:10F42000DA7C01005D7D01005E7D01005F7D0100F1
:10F43000607D01000E7E0100057C01002E01002090
:10F4400002462048C078212804D0222824D023282E
:10F4500033D130E01B4800791B4B1B78984201D018
:10F46000002070471948007828B919480078012809
:10F4700001D10020F5E71648007810B91548106052
:10F4800001E015481060154B1B8810681844144B98
:10F4900018600920086012E00A4800790A4B1B78BE
:10F4A000984201D00020DCE70E480D4B18600E4852
:10F4B0000088086003E00020D3E70020D1E700BF08
:10F4C0000120CEE738010020067C0100017C01000C
:10F4D0002D010020DA7C01005D7D0100C47C01006B
:10F4E00030010020A07C0100C27C01002748007888
:10F4F00000F01F0020B1012806D0022841D116E0FB
:10F500002348244B18603EE02348007860B11F4830
:10F510000079224B1B78984206DA0020204B188095
:10F5200018461C4B186001E0002070472BE017487C
:10F53000007900F08F0101F0800028B101F00F0385
:10F540004FF48030984001E0012088400246124884
:10F55000007810B901F00F0080B91248006810401F
:10F5600060B111480068104008B1012000E000209F
:10F570000B4B18801846074B186001E00020D4E7B9
:10F5800001E00020D1E700BF0120CEE738010020D4
:10F590001C010020300100201F0100202C01002050
:10F5A00088210020200100202401002070B506469B
:10F5B0003448007800F01F0020B101281DD0022837
:10F5C0005BD11CE02F484088012813D146B100F0E0
:10F5D0003DFB2D48008840F002002B4908800BE0DD
:10F5E000002000F033FB2848008820F00200264964
:10F5F000088001E0002070BD41E00020FBE72148C9
:10F60000007900F08F0404F0800028B104F00F01AD
:10F610004FF48030884001E00120A04005461B489F
:10F62000007838B304F00F0020B319480068284070
:10F6300000B314484088D8B946B1204600F0CEFA4D
:10F640001448006828431349086015E01248006810
:10F65000284008B10120CEE72046FEF78DFD204668
:10F66000FFF70AFE0B480068A8430A49086003E058
:10F670000020C0E70020BEE701E00020BBE700BF9C
:10F680000120B8E7380100201C0100201F010020E4
:10F690002001002024010020280100202DE9F04154
:10F6A00000266A48007800F01F0000286FD16748E4
:10F6B000807800286CD06648007830B965480078BA
:10F6C000012802D10020BDE8F0816248007808B925
:10F6D000614D00E0614D7FE06878022804D0042885
:10F6E00053D0052874D154E0687958498978884204
:10F6F00047D1564880785A49087028795949087086
:10F70000002403E0002058490855641C574800882D
:10F710008442F7D3012414E00120A0405449096831
:10F72000084010B12046FEF7ADFD4FF48030A040F8
:10F730004F490968084018B144F08000FEF7A2FD67
:10F74000641C102CE8D34FF00110494908600020D8
:10F7500048490860484908600120FEF731FDE87912
:10F7600000F0400030B14548008840F001004349B6
:10F77000088009E04148008820F001003F490880E6
:10F7800002E06888054427E022E0EE7820E058E0B7
:10F7900027E0E6B9A87800F08F0404F0800028B1D3
:10F7A00004F00F014FF48030884001E00120A040B8
:10F7B00007462F48006838432D4908602846FEF761
:10F7C000EFFC2046FEF778FD204600F081F900BFEF
:10F7D00000BF2878054400BF287800287FF47CAF5C
:10F7E00026E000201E490870012414E00120A040FA
:10F7F0001F490968084010B12046FEF743FD4FF449
:10F800008030A0401A490968084018B144F08000CF
:10F81000FEF738FD641C102CE8D34FF0011014499A
:10F82000086000201349086013490860FEF7C8FC0F
:10F83000064880780A490978884201D0002042E7CA
:10F8400001E000203FE700BF01203CE73801002035
:10F85000017C01002D010020DA7C01005D7D0100AA
:10F860001F0100202C01002058000020027C010014
:10F870002001002024010020280100201C0100207C
:10F880002DE9F05F0027B846BB46B94649480078E5
:10F8900000F01F0001287CD14748007810B90020F3
:10F8A000BDE8F09F4FF0000A4448007828B944486A
:10F8B0000078012801D10020F2E74148007808B91A
:10F8C000404C00E0404C6CE06078022804D00428F2
:10F8D0000BD0052861D11EE060793749097888424C
:10F8E00002D0608804445CE057E0A77894F8038075
:10F8F0004FF000092F480079B8420BD12D4880788D
:10F90000404507D14FF0010A304810F807B00146D2
:10F9100001F8078041E027480079B8423CD1A0783F
:10F9200000F08F0606F0800028B106F00F014FF4BA
:10F930008030884001E00120B04005461D488078B5
:10F94000404515D1224800682843214908602148D4
:10F950000068A8431F4908602046FEF721FC304696
:10F96000FEF7AAFC304600F0B3F849EA050913E0B7
:10F97000D84511D109EA050070B915480068A843B7
:10F980001349086013480068A843124908603046CC
:10F9900000E00AE0FEF776FC00BF00BF20780444D8
:10F9A00000BF207800288FD101E0002078E700BF59
:10F9B000504675E7380100201F010020017C01003E
:10F9C0002D010020DA7C01005D7D0100580000203F
:10F9D000200100202401002010B53520002817DB6D
:10F9E00000F01F02012191402E4A430942F82310E2
:10F9F00000BF00BF00BFBFF34F8F00BF00BF00BFFD
:10FA000000BF00BF00BFBFF36F8F00BF00BF00BFCC
:10FA100000BF012404E00021234800F82410641CE6
:10FA2000102CF8D319212148FAF729FE002020498B
:10FA30000860204908602049086020490870204972
:10FA4000087040201F4948801F484860C82008703F
:10FA5000002008721C488030486100211948C161AB
:10FA60000D20114908704FF05530184908600E48B4
:10FA7000C03890F8940040F002000B492C3908700F
:10FA8000FF20094940390870074938390870091DB5
:10FA900008700020044928390870352000F04BF91F
:10FAA00010BD000080E100E0C0200740C0F8FF1F4B
:10FAB00078E0FF1F7CE0FF1F80E0FF1F84E0FF1F56
:10FAC00085E0FF1F00F2FF1FC0F2FF1F88E0FF1F4D
:10FAD00010B5044604F08000F8B104F00F040120D2
:10FAE00000EB440200FA02F1264804F0C8FD0220AF
:10FAF00000EB8400244901EB8011022000EB84001C
:10FB0000224A02EBC00041600021022000EB840089
:10FB1000401C02EBC000416033E0620001209040D5
:10FB2000C143184804F09AFD1948015D04F00F0024
:10FB3000002202EB8000154A02EBC000418004F075
:10FB40000F00002101EB80000F4901EB801104F050
:10FB50000F00002202EB80000C4A02EBC000416063
:10FB6000882104F00F00002202EB8000074A02F80F
:10FB70003010002104F00F0001EB8000401C02F85F
:10FB8000301010BD88E0FF1FC0F2FF1F00F2FF1F02
:10FB900070E0FF1F10B5FEF71FF9BDE81040FEF73B
:10FBA000BBBA00000448007820F0200002498439E4
:10FBB00081F88400704700008420074010B5FFF7EB
:10FBC0003DF8BDE81040FEF70BB9000019B900F090
:10FBD0007F02014B1A7070479820074000F00F0019
:10FBE000044911F8201041F00202024901F82020D6
:10FBF00070470000C020074010B5082202490020CD
:10FC0000FFF7B2FA10BD00003801002010B5002245
:10FC10001146802000F01CF810BD000010B503480C
:10FC2000027803490020FFF79FFA10BD057C010010
:10FC3000882100200448007840F0200002498439DF
:10FC400081F884007047000084200740704700005E
:10FC50002DE9F04105468846164605F00F050220BD
:10FC600000EB8504144901EBC4014E80002706E037
:10FC700018F80700114901EB8411C8557F1CB742E1
:10FC8000F6D361080E480068C84000F0010020B1BA
:10FC90008820094901F8340003E0C820064901F82A
:10FCA00034006208012000FA02F1054804F0F8FC73
:10FCB0003046BDE8F081000000F2FF1FC0F2FF1FD8
:10FCC00088E0FF1F002807DB00F01F0201219140A0
:10FCD000024A430942F823107047000080E200E026
:10FCE000002817DB00F01F02012191400A4A430956
:10FCF00042F8231000BF00BF00BFBFF34F8F00BF0B
:10FD000000BF00BF00BF00BF00BFBFF36F8F00BFC9
:10FD100000BF00BF7047000080E100E0002809DB61
:10FD200000F01F02012191404209920002F1E022FD
:10FD3000C2F800117047002809DB00F01F02012102
:10FD400091404209920002F1E022C2F8001170478E
:10FD500002E008C8121F08C1002AFAD17047704794
:10FD6000002001E001C1121F002AFBD17047F0B54D
