:020000040000FA
:1040000000400020254400003D4400008D55000084
:10401000414400004344000045440000000000000B
:104020000001000000000000000000004744000004
:1040300049440000000000004B440000E557000028
:104040004F44000053440000574400005B4400000C
:1040500097440000974400009744000097440000F4
:1040600097440000974400009744000097440000E4
:1040700097440000974400009744000097440000D4
:104080005F440000974400009744000097440000FC
:1040900097440000974400009744000097440000B4
:1040A00063440000674400006B4400006F4400005C
:1040B00073440000774400007B4400007F4400000C
:1040C00083440000874400008B4400008F440000BC
:1040D0009344000097440000974400009744000078
:1040E0009744000097440000974400009744000064
:1040F0009744000097440000974400009744000054
:104100009744000097440000974400009744000043
:104110009744000097440000974400009744000033
:1043F000974400009744000097440000FFFFFFFF30
:10440000FFFFFFFFFFFFFFFFFFFFFFFFFEF9FFFFC3
:10441000DFF80CD000F0C0F8004800477D8C0000A9
:104420000040002072B61D481D4901600A6882F3F1
:1044300008881C48804762B61B480047FEE7FEE735
:10444000FEE7FEE7FEE7FEE7FEE7FEE7FEE71748CA
:1044500000471748004717480047174800471748C4
:1044600000471748004717480047174800471748B4
:1044700000471748004717480047174800471748A4
:104480000047174800471748004717480047174894
:1044900000471748004717480047000008ED00E0B4
:1044A000004000002558000011440000974400001F
:1044B0009744000097440000974400009744000090
:1044C000A9550000C1550000B5570000CD570000A8
:1044D000974400009744000097440000C158000032
:1044E0009744000005590000974400004959000016
:1044F000974400009744000040EA01039B0703D063
:1045000009E008C9121F08C0042AFAD203E011F812
:10451000013B00F8013B521EF9D27047D2B201E0D4
:1045200000F8012B491EFBD270470022F6E710B5B8
:1045300013460A4604461946FFF7F0FF204610BD11
:10454000421C10F8011B0029FBD1801A704710B5DE
:10455000002200E0521C835C8C5CA34201D1002B42
:10456000F8D1D8B2E1B2401A10BD30B50B460146C1
:1045700000202022012409E021FA02F59D4205D302
:1045800003FA02F5491B04FA02F52844151EA2F1AC
:104590000102F1DC30BD0000064C074D06E0E0688A
:1045A00040F0010394E8070098471034AC42F6D37A
:1045B000FFF732FF50BE000090BE000038B500BFCC
:1045C00010481149486400BF104800F035FB0F49FE
:1045D00008680F49086000BF0E480F4C00906379CF
:1045E000A2792179E07900F0FBF80C4800F0D8FBC3
:1045F0000B480C4908600C494FF4E02000F024F906
:1046000038BD00000000071100800440C0A4000075
:104610001400002007480000B0A40000B8A4000067
:104620000087930308000020006CDC027047000044
:1046300010B5644800F0F0F86248401C00F0ECF857
:104640006048801C00F0E8F85E48C01C00F0E4F808
:104650005C48001D00F0E0F8072200215A4801F0F4
:10466000A1F801220421584801F09CF856484068FE
:10467000564908405449486003220C21524801F031
:1046800091F803220D21504801F08CF800221221EC
:104690004D4801F087F8002213214B4801F082F8C1
:1046A00001220221484801F07DF8474880684749C7
:1046B00008404549886007220321434801F072F809
:1046C00041480069414908403F49086101220521EC
:1046D0003D4801F067F83C4840693C490840801C6F
:1046E0003949486104221021394801F05BF8012260
:1046F0001221374801F056F801221321344801F005
:1047000051F801220321324801F04CF800221146F1
:10471000304801F047F8002201212E4801F042F80C
:1047200001220A212B4801F03DF8012202212948EB
:1047300001F038F801220321264801F033F8012264
:104740000421244801F02EF801220821214801F01B
:1047500029F8012209211F4801F024F80122002133
:104760001D4801F01FF8012211461B4801F01AF8FC
:1047700003220221184801F015F8012203211648EE
:1047800001F010F801220421134801F00BF8072270
:104790000521114801F006F8072206210E4801F014
:1047A00001F8072211460C4800F0FCFF0B48C068D6
:1047B00020F003700949C8600846006920F0300005
:1047C000086110BD0900381000900440FDFFFFFE95
:1047D00000A0044000B0044000C004400080044039
:1047E0002DE9F04107460C4615461E46DDF81880B7
:1047F000384600F05BFA434632462946204600F030
:1048000073FABDE8F08147F2305000E000BF011EAE
:10481000A0F10100FAD17047044A02EB10410A6886
:10482000012383401A430A6070470000007004406F
:10483000044A02EB10410A68012383401A430A60CC
:10484000704700000070044070B5024601242748FC
:10485000274D05EB10431D6801268640B5431D60BA
:1048600000BF32B92348406820F48020214B5860B3
:1048700023E02148084490B1204B184458B1184413
:1048800028B1184478B909201A4B98640DE0022029
:10489000184B986409E00520164B986405E0002049
:1048A000144B986401E0002400BF00BF1148406829
:1048B00020F4E02010430F4B58600C480C4D05EBE2
:1048C00010431D680126864035431D6000BFB2F5C8
:1048D000E02F09D103200A4B18700A4890F84001D4
:1048E00040F080001B1F1870204670BD120034106D
:1048F0000070044000800440009423FD00CA91FE33
:10490000442107400020074000B510480068C0F36C
:10491000814020B102280DD0032811D10DE000F014
:104920003DF9B0F5004F02D14FF4004000E0002007
:10493000014607E00648016804E04FF47A7101E09F
:10494000002100BF00BF084600BD00000070044009
:104950001800002010B500F063F8044634B100F0F0
:104960003BF9B4EBD00F01D8204610BD0020FCE786
:104970002DE9F04100F0E2F8044614B92046BDE804
:10498000F08116480078C0F3C205EC401348407827
:10499000C0F301171148007B00F0030607B10EB108
:1049A000022E19D1082D14D2DFE805F00405060700
:1049B00008090B0F00BF00BF00BF00BF00BF6409A4
:1049C00009E01420B4FBF0F405E00C20B4FBF0F493
:1049D00001E0002400BF00BF2046D0E700400640B1
:1049E00070B50D48407800F0020008B1002070BD9D
:1049F00000F016F804460CB92046F8E70648C078DF
:104A0000C0F341150448C078C609044800EB85008E
:104A100030F816006043EAE700400640B4B70000F3
:104A200010B505488079C0F3001010B9FFF7A0FF5A
:104A300010BD02480068FBE7004006400C00002063
:104A400070B50546142D4BD2DFE805F00A0B154A68
:104A50001F4A292D464A423135394A4A4A4A3D3F82
:104A600000BF00F0B9F82149496C012202EB117135
:104A7000B0FBF1F436E000F0AFF81C49496CC1F32B
:104A80000361491CB0FBF1F42CE000F0A5F81749D4
:104A9000496CC1F30341491CB0FBF1F422E000F082
:104AA000B5F804461EE0FFF72FFF04461AE0FFF7B3
:104AB00051FF044616E000F01DF8044612E0FFF72F
:104AC0008FFF04460EE00A4C0CE04FF47A7409E0C4
:104AD00000F064F8044605E000F04EF8044601E0FA
:104AE000002400BF00BF204670BD000000800440CD
:104AF000006CDC0210B50548007800F0020008B92F
:104B0000002010BD00F004F8FBE700000040064064
:104B10000748807900F0010010B906480068704726
:104B20000348007AC0F3420103480068C840F6E732
:104B3000004006400C000020100000200A49097BBC
:104B400001F0030121B1012905D0022908D105E0B6
:104B50000649086806E00649086803E0054801E0E0
:104B6000002000BF00BF7047004006401400002036
:104B700018000020006CDC020648007800F080007D
:104B800030B104488078810903480068C840704704
:104B90000020FCE700500640140000200448007884
:104BA00000F0800010B10348006870470020FCE767
:104BB0000050064014000020014649F69702914239
:104BC00001D8002005E0034A914201D8012000E00D
:104BD0000220704700127A0010B50B498979C1F3A1
:104BE000810424B1012C05D0022C09D105E0FFF786
:104BF000F7FE07E0FFF78CFF04E0FFF79FFF01E0FF
:104C0000002000BF00BF10BD0040064010B508499D
:104C10004968C1F3014111B1032905D102E0FFF751
:104C2000DFFE03E0034801E0002000BF00BF10BD2D
:104C300000800440006CDC0270B504462068FFF779
:104C4000BBFF054617482279017821F00F01114377
:104C5000017000BF00BF017821F0A001A2791143CB
:104C60000170E279C02303EA8212827000BF0E480D
:104C7000407820F03C00302101EA051108436179B9
:104C8000084309494870607958B10648007800F037
:104C9000800030B100BF0448807900F00200002895
:104CA000F9D070BD005006400040064010B50146E6
:104CB0000C48007B00F00300884201D0012200E094
:104CC00000220848007B61F30100064C20733AB1D2
:104CD00040F2DC5300E000BF181EA3F10103FAD13B
:104CE000002010BD004006402DE9F04706460F4663
:104CF00090461D464FF000092848C4788079C0F3DB
:104D0000001038B14FF001092448C07880F020002D
:104D10002249C8702148007820F0FC01382000EAC0
:104D2000C60001431D480170007B00F0030058B924
:104D30001A48407800F0040030B100BF174880796D
:104D400000F002000028F9D000BF14488079C0F3B9
:104D500000100028F9D1B9F1000F01D00F48C4703C
:104D6000802000EAC710602101EA4811084324F0BE
:104D7000E00140EA01040948C47000BF0748C07858
:104D8000A042FBD100BF05488079C0F38100002814
:104D9000F9D105B1A8470020BDE8F08700400640E2
:104DA000094A416851640178526861F31142064B27
:104DB0005A6000BF4178054A126861F39342034B81
:104DC0001A6000BF7047000000800440007004407B
:104DD00070B504460D46204600F036F828B1294645
:104DE0002046094A1268904704E029462046074AAF
:104DF0001268904700BF00BF00BFBFF34F8F00BFD6
:104E000000BF00BF70BD000024000020280000206B
:104E100021B1026822F48042026003E0026842F499
:104E200080420260704700000146002006E0054A0B
:104E300052F820208A4200D102E0401C0228F6D31A
:104E400000BF704774B8000001460868C00F704783
:104E50002DE9F84305460C4616462846FFF7E4FFC1
:104E60003F4951F820804046FFF7E2FC01212846E7
:104E7000FFF7CEFF284600F0D3F90121284600F0C5
:104E8000B3F92868374900EA0107A07F4FF0804155
:104E900001EA8070384394F820104FF0806202EAF3
:104EA00081610843E17F921002EA0161084394F8AE
:104EB00021104FF4407202EA012108432860627F0A
:104EC000217F284600F095F921783346284662680C
:104ED00000F04AF800B900BF217805F10C0050F845
:104EE000210020F0FE47207A401E4FF0F04101EAF9
:104EF000C0603843217B4FF0806202EA8161084341
:104F0000617B521002EA41610843A17B521002EA20
:104F100001610843227805F10C0141F82200206963
:104F20000090217833460122284600F0E1F86069BC
:104F30000090217833460222284600F0D9F8A06973
:104F40000090217833460322284600F0D1F8002152
:104F5000284600F03DF9284600F05DF9BDE8F883E9
:104F600080B80000FFCCFFBA2DE9FF4F87B0814623
:104F70008A464846FFF768FF18B900200BB0BDE825
:104F8000F08FDDF824B04FF0FF350020059004903D
:104F90000120039000200290002427E0002620E05A
:104FA000012719E01F4850F824101F4850F8260028
:104FB00041430A987843B0FBF1F8C3450BD3ABEB00
:104FC000080001900198854205D9019D0594049639
:104FD000CDF8088003977F1C032F01D2002DE1D16B
:104FE000761C102E01D2002DDAD1641C042C01D2C3
:104FF000002DD3D109F10C0050F82A000B490840CC
:1050000006900398411E069840EAC171059841EA4E
:1050100000400499084309F10C0141F82A00029864
:10502000ACE70000D4B70000E4B70000F0FFFC7F5D
:105030002DE9F04104460D4616461F46DDF818805E
:105040002046FFF701FFB8B3B8F1010F06D0B8F161
:10505000020F1AD0B8F1030F45D12EE004F10C0075
:1050600050F8250020F4400020F470404FF4400137
:1050700001EA865108434FF4704101EA07310843C1
:1050800004F10C0141F825002EE004F10C0050F869
:10509000250020F4401020F470604FF4401101EA24
:1050A000065108434FF4706101EA0721084304F1F7
:1050B0000C0141F8250017E017E004F10C0050F84E
:1050C000250020F4402020F0F0004FF4402101EAB8
:1050D00086410843F02101EA0711084304F10C015D
:1050E00041F8250000E000BF00BFBDE8F0810000EE
:1050F0002DE9FF4F85B091461D46DDF848A0059883
:10510000FFF7A2FE18B9002009B0BDE8F08F4FF0FC
:10511000FF38032004904FF00F0B2948B0FBF5F146
:10512000284A049852F820004843274951F82B1088
:105130004843800803902548B0FBF5F040000190FB
:105140000198504509D300231A46CDF80090DDE9B7
:105150000501FFF76DFF0198D6E7002421E0002646
:1051600019E01748B0FBF5F0164951F824104843F0
:10517000154951F826104843870857450AD3A7EB2D
:105180000A0002900298804504D9DDF80880049452
:10519000B3460397761C102E02D2B8F1000FE0D16F
:1051A000641C042C02D2B8F1000FD8D15B46CDF8B4
:1051B0000090DDE904200699FFF73AFF0398A3E782
:1051C00000286BEE24B8000034B8000000CA9A3BF7
:1051D00030B504460B462046FFF726FE054601483B
:1051E000435530BD2C000020026861F3DF7202607D
:1051F000704710B513460268012B05D14FF47C149B
:1052000004EA0144224304E04FF47C1404EA01441C
:10521000A243026010BD016821F0010101607047E6
:10522000016841F001010160704700002DE9F04F75
:1052300089B083460C469046994601AA21465846B5
:1052400002F0D4FE424621465846059B02F082FEFB
:1052500007461FB1384609B0BDE8F08F484602F056
:1052600093FE07460FB13846F5E7019C029D04EB1B
:105270000800461EB6FBF5F005FB106030B1B6FB2A
:10528000F5F000F1010A0AFB05F0461E0021584620
:1052900002F041FE0CE024F07F4040F0106008492D
:1052A0004860584602F07AFE074607B102E02C44F7
:1052B000B442F0D900BF584602F026FE3846CAE78D
:1052C0000000024010B504460CB9042010BD194A74
:1052D000D26CC2F303610F2902D14FF4003003E016
:1052E000154A32F8112090020022226060600122EB
:1052F0002272D202E2601148017880158840606114
:105300000E48283890F82B00A061204602F014FEC9
:1053100058B100200A4908600A4848600A48886075
:105320000846E061204600F011F80020206260622B
:1053300000BFCBE700800440B8B80000280002405E
:105340003CE6FF1FBCE5FF1FFCE5FF1F70B50446F0
:105350000CB1E06908B9042070BDE569686800F027
:105360004BFFA86800F038FF022028600020F3E718
:105370002DE9F04188B080460D4614461E461CB902
:10538000042008B0BDE8F0816A462946404602F094
:105390002DFE324629464046039B02F0DBFD0746C0
:1053A0000FB13846EDE7009D0021404602F0B3FD05
:1053B00020E001CC134988600398042805D125F02A
:1053C0007F4040F0C06048600AE00398082807D199
:1053D00001CC0C49C86025F07F4040F0E060486097
:1053E000404602F0DBFD074607B105E0039805449F
:1053F0000398361A002EDCD100BF404602F084FD2F
:105400003846BEE7000002402DE9FF4F89B00C4648
:10541000924601AA2146099802F0E8FD524621462B
:10542000069B099802F096FD8146B9F1000F03D062
:1054300048460DB0BDE8F08F01AA2146099802F058
:10544000D5FD019C039F6042794208404542A54238
:1054500000D13D44564625E0A5EB0408B04500D9EF
:10546000B0460698B8FBF0FB24F07F4040F0807017
:105470000E4948604FEA0B410C98C0B241EA002047
:1054800040F0FF0009498860099802F087FD8146D5
:10549000B9F1000F01D04846CBE7A6EB080644441B
:1054A0003D4400BF002ED7D10020C2E700000240DB
:1054B0002DE9F04F89B082460C4617461D46DDE9BE
:1054C00012B8DDF850901DB9042009B0BDE8F08F86
:1054D00001AA2146504602F089FD3A46214650462F
:1054E000089B02F037FD06460EB13046EDE7019C01
:1054F00025E024F07F4040F00070134948606FF0D1
:105500007F4040EA0B6088602868C860504602F01F
:1055100045FD06465EB1B8F1000F01D0C8F8004065
:10552000B9F1000F02D00020C9F8000009E0089886
:105530003F1A0898800805EB800508980444002F5E
:10554000D7D100BF3046C0E7000002401AB901239E
:105550008B40836002E001238B40436070471AB99F
:1055600001238B40836002E001238B40436070473E
:1055700081607047816070478160704781607047CB
:1055800041607047416070474160704700BFEFF372
:105590000980014604F0C9F900BFEFF30880014615
:1055A00004F0C3F900BFFEE710B5034801680348E3
:1055B00000F012F810BD000038E0FF1F0060064048
:1055C00010B503484168034800F006F810BD00001C
:1055D00038E0FF1F0070064070B504460D46E078C5
:1055E00000F0100018B9A07800F0200028B129467A
:1055F0002046094A1268904704E029462046074A97
:105600001268904700BF00BF00BFBFF34F8F00BFBD
:1056100000BF00BF70BD000040E0FF1F44E0FF1F5F
:1056200000201EE0052100EB4002144B03EB820238
:105630001171642100EB400203EB820291710021A1
:1056400000EB400203EB8202517100EB400203EBDE
:105650008202D17100EB400203EB82021172411C05
:10566000C8B20128DEDB0121044A91720221517285
:105670000321D17202491160704700004C000020E4
:105680000988000070B5002418E004F1B001C8B228
:1056900003F060FF002003F05DFF102003F05AFFCD
:1056A000002507E0074901EBC411485D03F090FFB6
:1056B000681CC5B2802DF5DB601CC4B2082CE4DB8D
:1056C00070BD0000FCE0FF1F10B50120024908700A
:1056D000FFF7D8FF10BD0000070000202DE9FF47AD
:1056E00080460C46914623A103C9CDE9020123A1BE
:1056F00003C9CDE900012046E11704EB5171C1F364
:10570000C70708F0FF061F4800EBC710855DB9F119
:10571000000F0AD12046E11704EB5171C910A4EB28
:10572000C1011DF801100D4009E02046E11704EB0E
:105730005171C910A4EBC10102AA515C0D4311487B
:1057400000EBC710855510480078012810D107F1EB
:10575000B001C8B203F0FEFE06F00F0003F0FAFE3F
:10576000102101EB161003F0F5FE284603F030FF80
:10577000BDE8FF870102040810204080FEFDFBF712
:10578000EFDFBF7FFCE0FF1F070000200020014982
:10579000087070470700002010B500EB81031488E3
:1057A0001C8010BD50F8213062F30A2340F82130EC
:1057B0007047000010B5034801680348FFF708FB75
:1057C00010BD00001C00002000C0024010B50348BE
:1057D00041680348FFF7FCFA10BD00001C000020E0
:1057E00000D0024010B50C48006840B10A4800687B
:1057F000401E0949086010B901200849087008488E
:105800000078401CC0B2064908700A2803DB00205B
:10581000087003F077FA10BD00000020040000209B
:10582000050000200848006840F470000649086040
:105830004CF220500549C8814DF62810C8814FF41C
:10584000E97008807047000088ED00E00020054006
:1058500000BF00BF00BF00BF00BFBFF34F8F00BF3E
:1058600000BF00BF0948006800F4E0600849084331
:10587000001D0649086000BF00BF00BFBFF34F8F87
:1058800000BF00BF00BF00BF00BFFDE70CED00E0A0
:105890000000FA0510B5074801680748074A126872
:1058A000904700BF00BF00BFBFF34F8F00BF00BFD6
:1058B00000BF10BD3C12002000A0064034E0FF1FD6
:1058C00010B5FFF7E7FF00BF00BF00BFBFF34F8F6A
:1058D00000BF00BF00BF10BD10B5074841680748B2
:1058E000074A1268904700BF00BF00BFBFF34F8F49
:1058F00000BF00BF00BF10BD3C12002000B006403A
:1059000034E0FF1F10B5FFF7E7FF00BF00BF00BF87
:10591000BFF34F8F00BF00BF00BF10BD10B50748D9
:1059200081680748074A1268904700BF00BF00BF60
:10593000BFF34F8F00BF00BF00BF10BD3C1200205F
:1059400000C0064034E0FF1F10B5FFF7E7FF00BFBF
:1059500000BF00BFBFF34F8F00BF00BF00BF10BD2F
:105960000FB4084B10B504A902AA039800F01CF864
:10597000044602A9002000F0B8F9204610BC5DF8EA
:1059800014FB0000EB5C000002E008C8121F08C115
:10599000002AFAD170477047002001E001C1121FB0
:1059A000002AFBD1704700002DE9FF4F8BB08846DD
:1059B0000546002606E025280BD0DDE90D129047AC
:1059C0006D1C761C28780028F5D10FB03046BDE854
:1059D000F08F0024A146A2460122AE4900E0044314
:1059E00015F8013F203B02FA03F00842F7D128786E
:1059F0002A2810D06FF02F022878A0F13001092951
:105A000015D809EB890102EB410144F0020400EBD7
:105A100001096D1CF0E758F8041B5FEA010903D582
:105A200044F40054C9F1000944F002046D1C2878C4
:105A30002E2817D115F8010F44F004042A280ED09F
:105A40006FF02F022878A0F1300109290AD80AEB5B
:105A50008A0102EB410100EB010A6D1CF2E758F8E4
:105A600004AB6D1C28786C280FD006DC4C2817D0AE
:105A700068280DD06A2814D104E0742810D07A2840
:105A80000FD10DE044F400140AE044F4801401E066
:105A900044F440146978814202D104F580146D1CED
:105AA0006D1C2878692865D006DC00288DD0632815
:105AB00027D0642806D15DE06E2808D073282AD04C
:105AC000752877D0DDE90D129047761CE0E0C4F32D
:105AD0000250022809D003280DD0D8F8001004285D
:105AE0000DD00E6008F10408D2E0D8F80010F217CB
:105AF000C1E90062F6E7D8F800100E80F2E70E70F8
:105B0000F0E718F8041B8DF8001000208DF8010054
:105B1000EB46012003E058F804BB4FF0FF3061076B
:105B20004FF0000701D40AE07F1C57450DDA874289
:105B3000FADB1BF807100029F6D106E07F1C87422C
:105B4000FCDB1BF807100029F8D1DDE90D23A9EBD8
:105B500007008146214600F0B1F83044C61904E040
:105B6000DDE90D121BF8010B90477F1EF8D221468C
:105B7000484688E058F8040BC4F302514FF00A0B72
:105B8000032900D100B2042900D140B2002802DA72
:105B900040422D2102E0210505D52B218DF824104E
:105BA000012104E006E0E10710D02021F6E708AF6C
:105BB000089113E058F8040BC4F302514FF00A0B9C
:105BC000032900D180B2042900D1C0B20021EEE740
:105BD0005946FEF7CAFC303107F8011D0028F7D1FD
:105BE000ADEB070000F1200B600702D524F48034F0
:105BF00001E04FF0010ADA4502DDAAEB0B0000E0FC
:105C00000020824600EB0B0108980144A9EB01003B
:105C10000A90E00306D4DDE90D2321460A9800F03E
:105C20004DF806444FF0000908E009A911F80900F1
:105C3000DDE90D12904709F10109761C08998945A3
:105C4000F3DBE0030CD5DDE90D2321460A9800F0D3
:105C500035F8064404E0DDE90D1230209047761C4B
:105C6000BAF10001AAF1010AF5DC05E0DDE90D1247
:105C700017F8010B9047761CBBF10001ABF1010B4B
:105C8000F4DC0A982146DDE90D2300F005F806440E
:105C90006D1C97E6092801002DE9F0410446002516
:105CA0001E461746880404D405E039462020B04734
:105CB0006D1C641EF9D52846BDE8F0812DE9F04140
:105CC000044600251E469046C80301D5302700E053
:105CD0002027880404D505E041463846B0476D1CAE
:105CE000641EF9D52846BDE8F0810A68531C0B6094
:105CF0001070704701B5009800B908BD00980128E0
:105D000001D102200090012080F3108800BF0A49D1
:105D10000098086000200949087000BF80F31088CF
:105D200000BF04E005480078012800D100E0F9E751
:105D300000BF00BFE1E700000000002004000020D9
:105D400070B5054605EB4500384901EB8004207A23
:105D5000062866D2DFE800F0030B162C485E2068A8
:105D6000804718B101202072002060715CE020683B
:105D7000804720B1022020720020607101E00020E5
:105D8000207251E02068804778B16079401C6071D2
:105D90006079217988420ADBA079002802DD03209E
:105DA000207204E00520207201E0002020723BE018
:105DB00020688047A8B16079401C60716079A17942
:105DC000884210DB04F10B0002F03CFFE079002870
:105DD00004DD042020720020607104E005202072A0
:105DE00001E0052020721FE02068804778B16079CB
:105DF000401C60716079E17988420ADB04F10A0095
:105E000002F020FF042020720020607101E00520D4
:105E1000207209E004F10A0002F014FF0020207251
:105E200002E00020207200BF00BF70BD4C000020C7
:105E300030B5144800684FF47A72B0FBF2F1481E96
:105E4000B0F1807F00D31BE0481E4FF0E02250618C
:105E500050170F22002804DB13071C0E0A4B1C549A
:105E600006E013071D0E094B00F00F04241F1D55FB
:105E700000BF00204FF0E02290610720106100BFBA
:105E800030BD00000800002000E400E018ED00E054
:105E900070B504460D4600202071401EE062294680
:105EA000204602F077FF08B1032070BD94F82E124F
:105EB00094F82F0241EA00204AF65521884201D089
:105EC0000220F2E794F86900010694F8680041EABC
:105ED000004194F8670041EA002094F866100843F6
:105EE00020F07F400D49884201D10020DDE794F881
:105EF0008500010694F8840041EA004194F883008B
:105F000041EA002094F88210084320F07F400349C2
:105F1000884201D10020C8E70120C6E7464154006D
:105F200010B502460B460020002102E05C5C2044D4
:105F3000491C9142FAD310BD024600E0521C107871
:105F400010B110788842F9D11078704770B50446C6
:105F500000BFEFF3108101F0010072B600BF0546EB
:105F6000204600F009F8A168081A461E284600B924
:105F700062B600BF304670BD10B5014600BFEFF3FA
:105F8000108404F0010372B600BF1A46D1E9004341
:105F9000A34203D3D1E90043181B04E0D1E9013443
:105FA00023440C68181B134603B962B600BF10BD2A
:105FB00030B500BFEFF3108505F0010472B600BFE5
:105FC0002346C16082600024046044601C4604B91A
:105FD00062B600BF30BD10B5014600BFEFF31084BC
:105FE00004F0010072B600BF02460C68C868035D89
:105FF0000868401C08608C680868A04201D3002033
:106000000860104600B962B600BF184610BD10B552
:1060100000BFEFF3108404F0010372B600BF1A460C
:106020004468C368195543685B1C4360D0E9013478
:10603000A34201D300234360134603B962B600BFF5
:1060400010BD2DE9F04180460E4617464046FFF749
:1060500093FF0546AF4201D2384600E02846054688
:10606000002404E04046FFF7B6FF3055641CAC4204
:10607000F8D32846BDE8F0812DE9F04180460E4670
:1060800017464046FFF762FF0546AF4201D2384649
:1060900000E028460546002404E0315D4046FFF755
:1060A000B6FF641CAC42F8D32846BDE8F08170B559
:1060B00003460D46586A021D280B1E68B678B0FBD1
:1060C000F6F400BF02CA09B9002070BD8C4200D2AC
:1060D00002E0641A121DF5E700BF10682044F4E7DF
:1060E0000246891E5069801E884201D800207047F0
:1060F0009378906A01FB0300F9E700002DE9F0476F
:1061000005460C46207820F04000401E00EB800140
:1061100001EBC00600274FF0010800BF1A48C05D20
:10612000205C1949C95D2144497840EA0129B8F148
:10613000000F10D0484601F021FC8046182E07D2EF
:106140003146761C35F8110001F018FC404508D0A6
:106150000020BDE8F0874FF6FF70814501D0002098
:10616000F7E7781C07460D28D8D3207800F04000C8
:1061700038B1B8F1000F04D035F8160008B100208E
:10618000E7E70120E5E7000016BE000070B58EB01D
:1061900004460F4E304602F0AFFC054615B1012013
:1061A0000EB070BDFF22342101A8FEF7B7F93422EA
:1061B000214601A8FEF7A0F9342201A9304602F0D9
:1061C000C1FC05460DB10120EAE70020E8E7000028
:1061D00000F001000020704710B504461C2204495D
:1061E0002046FEF789F9601C0249086010BD0000D6
:1061F0009CB800004CE0FF1F05490A6802604A682D
:10620000426089688160411C024A11607047000049
:1062100090B8000048E0FF1F2DE9F047044689468A
:10622000B9F1000F06D1E76817B16069B84215D817
:10623000012713E04946204602F0B2F80646022E36
:1062400002D20120BDE8F087701C08B93046F9E79A
:106250006069B04201D93046F4E74F463D4600BF81
:106260006D1C6069A84204D80225BD4201D90020F6
:10627000E8E72946204602F093F8064606B909E009
:10628000701C08B1012E01D13046DBE7BD42E7D1D9
:106290000020D7E700BF6FF070422946204603F088
:1062A00073FA8046B8F1000F08D1B9F1000F05D09C
:1062B0002A464946204603F067FA8046B8F1000FA7
:1062C0000BD1E5602069401C78B12069401E206137
:1062D000607940F00100607107E0B8F1010F02D170
:1062E0004FF0FF3000E0012005462846AAE70000F5
:1062F0002DE9F34F83B082460498D0F800B001E056
:106300000BF1010B9BF800002F28F9D09BF800003F
:106310005C28F5D0DAF81C9000252E4600BF3046E8
:10632000761C1BF80040202C03DB2F2C01D05C2CAA
:1063300000D11CE0182D03D3062005B0BDE8F08F76
:10634000E4B20121204601F0F3FA04460CB906201C
:10635000F3E7802C06DA21466BA0FFF7EDFD08B1CC
:106360000620EAE728466D1C29F81040D7E700BF51
:106370000BEB060104980160202C01DA042000E0F8
:106380000020074608E0681E39F81040202C02D093
:106390002E2C00D002E06D1E002DF4D100BF0DB9EF
:1063A0000620CAE7002029F815000B222021DAF880
:1063B000180002F0CBFC002600E0761C39F816002D
:1063C0002028FAD039F816002E28F6D00EB147F062
:1063D000030700E06D1E25B1681E39F810002E2855
:1063E000F8D14FF00008CDF808800820019000BFD8
:1063F0003046761C39F8104004B955E0202C03D003
:106400002E2C04D1AE4202D047F00307F0E7DDE9BD
:106410000110884201D2AE4216D101980B2802D158
:1064200047F0030740E0AE4201D047F00307AE4219
:1064300000D939E02E46082002900B2001904FEA47
:1064400088604FEA1068D3E7802C0BDB00212046E0
:1064500001F06EFA04461CB1A4F180002D490C5CD9
:1064600047F0020700BF24B121462BA0FFF764FDCF
:1064700018B15F2447F003070FE0412C04DB5A2CCE
:1064800002DC48F0020808E0612C06DB7A2C04DC10
:1064900048F00108A4F1200084B2DAF8183002981C
:1064A000411C02911C54A3E700BFDAF818000078E1
:1064B000E52803D10520DAF818100870019808289B
:1064C00003D14FEA88604FEA106808F00C000C28EE
:1064D00003D008F00300032801D147F0020707F0BA
:1064E000020058B908F00300012801D147F0100755
:1064F00008F00C00042801D147F00807DAF818006A
:10650000C772002019E70000222A3A3C3E3F7C7FF8
:106510000000000096BD00002B2C3B3D5B5D0000A1
:106520002DE9F04104460E460021204600F01AFAFB
:106530000546EDB9002700BF2169206802F02AFC5A
:10654000054605B113E060690078E52802D060696E
:10655000007820B9781C0746B04201D107E0002737
:106560000121204600F07FF80546002DE4D000BF51
:10657000042D00D107252846BDE8F0812DE9F0471C
:1065800004460021204600F0EDF9074617B13846D1
:10659000BDE8F0874FF0FF09CA464FF6FF70208430
:1065A00000BF2169206802F0F5FB074607B157E0FC
:1065B00065692E780EB9042752E0E87A00F03F08AA
:1065C000E52E05D008F0080040B1B8F10F0F05D056
:1065D0004FF0FF094FF6FF7020843AE0B8F10F0F3B
:1065E0001CD1E06978B306F0400030B195F80DA0F9
:1065F00026F04006B146E08820844E450AD1687BEB
:10660000504507D12946E069FFF778FD10B1A9F19F
:10661000010000E0FF2000F0FF091AE0B9F1000FCF
:1066200005D1284603F059FC504500D118E0A06977
:10663000C07A00F0010038B90B222846A16902F0A7
:1066400065FB08B90CE004E04FF0FF094FF6FF705E
:1066500020840021204600F006F80746002FA0D035
:1066600000BF384694E72DE9F04104468846E088AB
:10667000461CB0B208B1206910B90420BDE8F08111
:1066800006F07F0000286CD12069401C2061E06882
:1066900028B920680089B04263D80420EEE720685A
:1066A0008078401E00EAD61000285AD1E1682068A0
:1066B00001F076FE0546012D01D80220DEE7681CB8
:1066C00008B90120DAE720684069A84243D8B8F148
:1066D000000F01D10420D1E7E1682068FFF79CFD9D
:1066E00005460DB90720C9E7012D01D10220C5E7F4
:1066F000681C08B90120C1E7206803F062FC08B1FA
:106700000120BBE7216801F130004FF480520021E5
:1067100002F01CFB29462068FFF7E2FC2168C862F2
:1067200000270EE0012021680871206803F049FC71
:1067300008B10120A2E72068C06A401C2168C86235
:106740007F1C20688078B842ECD82068C06AC01BE3
:106750002168C86200BFE56029462068FFF7C0FCD9
:106760002061E6802068303006F07F0100EB4110A8
:106770006061002082E72DE9F05F04468A464FF011
:10678000FF09CB4604274EE02169206802F002FB96
:10679000074607B14AE0666935780DB9042745E038
:1067A000F07A00F03F08E52D09D02E2D07D0B8F182
:1067B000080F01D1012000E00020504502D04FF029
:1067C000FF0929E0B8F10F0F1AD105F0400030B1F0
:1067D00096F80DB025F04005A946E08820844D4587
:1067E0000AD1707B584507D13146E06902F092FF2B
:1067F00010B1A9F1010000E0FF2000F0FF090BE05B
:10680000B9F1000F04D1304603F067FB584502D0C0
:106810004FF6FF70208409E000212046FFF723FF98
:10682000074607B102E020690028ADD100BF0FB1D3
:10683000002020613846BDE8F09F2DE9FE4F044658
:10684000D4F81880D4F81C900C224146684602F017
:1068500070FA00BF9DF80B0000F0010020B300208B
:1068600088F80B00E06101260CE033464A46694691
:10687000404601F013FD2046FFF780FE054605B1B6
:1068800002E0761C642EF0D300BF642E02D10720F4
:10689000BDE8FE8F042D01D02846F9E79DF80B00D6
:1068A00088F80B00C4F81C909DF80B0000F0020063
:1068B00060B1002600E0761C39F816000028FAD1F5
:1068C00006F119000D21B0FBF1F700E00127394670
:1068D0002046FFF725FE054645BB781E071E25D03E
:1068E000E088C11B204600F03DF80546F5B9A069D7
:1068F00003F0F3FA824600BF2169206802F04AFAE9
:10690000054605B111E0FAB253466169E06901F04C
:10691000BBFA01202168087100212046FFF7A3FE81
:10692000054615B9781E071EE6D100BFC5B9216915
:10693000206802F02FFA054695B9202200216069EF
:1069400002F004FA0B22D4E9050102F0F2F9A06981
:10695000C07A00F01800616908730120216808718D
:10696000284695E72DE9F04104460E46E680A568E5
:10697000012D03D020684069A84202D80220BDE85A
:10698000F0812DB920680078032801D12068456A7C
:1069900045B920680089B04201D80220EFE720689D
:1069A000476A1EE0206880784FEAC01812E0294646
:1069B000206801F0F5FC0546681C08B90120DEE7F7
:1069C000022D03D320684069A84201D80220D6E7EF
:1069D000A6EB08064645EAD229462068FFF780FB69
:1069E0000746E5600FB90220C9E707EBD610206122
:1069F0002068303006F07F0100EB4110606100201C
:106A0000BDE710B5044634B903F0E8F808B1012039
:106A100010BD0020FCE70120FAE710B50346ABB932
:106A2000012904D0022906D003290BD107E04FF435
:106A3000C060106006E04FF48050108002E001203A
:106A4000106000BF00BF0024204610BD0420FCE7FA
:106A50002DE9F04105460F4614461E464DB904F592
:106A6000007432032003394603F0C6F90020BDE864
:106A7000F0810420FBE7014611B90022104670475F
:106A80000120FCE72DE9F04105460F4614461E465D
:106A900075B904F5007420034FF4805103F00CF82D
:106AA00032032003394603F0D7F90020BDE8F08116
:106AB0000420FBE710B5044644B902211448FEF750
:106AC0005FFD01211248FEF75BFD1FE0012C08D19C
:106AD00002210F48FEF74CFD01210D48FEF748FD4D
:106AE00014E0022C08D102210948FEF741FD0121E2
:106AF0000748FEF745FD09E0032C07D102210448B1
:106B0000FEF73EFD01210248FEF732FD10BD0000F8
:106B1000C0F00F4070B50546284600F0C4FE04469C
:106B200034B9284603F0A8FC04460CB900202860BC
:106B3000204670BD70B50446204603F09DFC054616
:106B40000DB900202060284670BD2DE9F74F82B0B6
:106B50008A46002202A9049800F0D2FF019004980E
:106B60000468019800286DD1D4E90410801E814288
:106B700003D82069CAF8000064E094F800B0002649
:106B8000BBF1010F1CD1022700BF3946204601F09E
:106B900007FC804608F1010010B9012001900EE0C9
:106BA000B8F1010F02D10220019008E0B8F1000F06
:106BB00000D1761C781C074661698842E5D33AE02B
:106BC0006769206A00904FF00009002500BFB9F105
:106BD000000F0ED10098421C01462046009202F0A0
:106BE000D9F80190019800B124E004F130054FF488
:106BF0008059BBF1020F09D12878697840EA012059
:106C000000B9761CAD1CA9F1020910E0E878000675
:106C1000A97840EA0140697840EA012029780843D0
:106C200020F0704000B9761C2D1DA9F10409781ED2
:106C3000071ECCD100BF2661607940F00100607171
:106C4000CAF80060019805B0BDE8F08F2DE9FE4F4D
:106C500004460D46204603F00FFC0290029810B146
:106C60000298BDE8FE8FE07908B1E079F9E7606A43
:106C7000002863D0681C002839D1676A57F804AB34
:106C80004FF0020926693EB300BF00960020019034
:106C900009F1020900BFB3460198401C019031463A
:106CA000206801F07DFB0646012E02D80220E0712B
:106CB000D7E7701C10B90120E071D2E70BF1010099
:106CC0008642E8D0D14503D8019801C7009801C792
:106CD00020684069B042D8D8606AC0F80090D145B9
:106CE00002D80020386028E01120029025E0E068FA
:106CF000A84200D2E568A560FDB1691E2046FFF7F5
:106D0000D6F9606161692068FFF7EAF98046B8F159
:106D1000000F02D10220E071A3E720688078401EB6
:106D2000691E00EA113080442089C0F30B0020B1B5
:106D3000A069404501D0C4F818808BE0E068A84203
:106D400004D2A07900F0020000B9E568D4F80890F8
:106D50004FF00008C4F80880002D67D020688078C4
:106D60000703B9F1000F11D0681EB0FBF7F1A9F1CC
:106D70000100B0FBF7F0814208D3A9F10100791EB0
:106D80008843A060A0682D1A666912E026697EB962
:106D900000212068FFF740FA0646012E02D10220AA
:106DA000E0715EE7701C10B90120E07159E72661BF
:106DB0006661C6B323E0A07900F0020038B1314625
:106DC0002068FFF729FA064636B93D4619E03146F4
:106DD000206801F0E5FA0646701C10B90120E07148
:106DE0003FE7012E03D920684069B04202D8022053
:106DF000E07136E76661A0683844A060ED1BBD42D3
:106E0000D9D800BFA0682844A060C5F30B0050B1DA
:106E100031462068FFF764F98046B8F1000F03D1CE
:106E20000220E0711DE701E008EB15382089C0F36E
:106E30000B0020B1A069404501D0C4F81880D4E906
:106E40000201884205D9A068E060A07940F02000E6
:106E5000A07100BF029804E72DE9F74F90B091466A
:106E600010A801F094FB0F900F98002803DA0B2074
:106E700013B0BDE8F08F1198012801DD1320F7E76A
:106E8000A9F1010000EA090008B11320F0E7FE496A
:106E90000F9851F820B0BBF1000F01D10C20E7E7AB
:106EA00000208BF800000F98C0B20C9000200B90CF
:106EB0000C98FFF7A6FD0190019800F0010008B1C1
:106EC0000320D5E7019800F0040008B10A20CFE7BD
:106ED00000BF04AA01210C98FFF79FFD10B9049888
:106EE000802801D20120C3E7119808B1002000E0FA
:106EF0003F2080460498A0EB08000490B9F1000FF1
:106F000012D1FA210498B0FBF1F00A904FF0000A78
:106F100001E00AF1010ADD4830F81A100A988142AE
:106F2000F7D8DB4830F81A904FEA1939B9F1000F59
:106F300001D14FF00109B9F1800F01D94FF080095B
:106F40000498B0FBF9F7012540F6F670874200D3AC
:106F500002254FF6F670874200D30325032D0AD190
:106F6000082000EB870000F6FF70060B202003903E
:106F70000020029011E0012D05D107EB4700401CD5
:106F80004008C01C01E07800001D064606F6FF70B0
:106F9000060B0120039004200290039840440790C0
:106FA0000798304406900299069808440590059881
:106FB0004844A0EB08000499884201D90E2057E705
:106FC00009AA03210C98FFF728FD28B9099818B1E0
:106FD0000998B0F5004F01D9012009900999059849
:106FE0000844401E491E8843099009990598081ACB
:106FF0000990032D08D10999039808440390099931
:1070000007980844079001E009980644DDE9030168
:10701000081A811B0298081AB0FBF9F7022D03D158
:1070200040F6F670874205D3032D05D14FF6F67072
:10703000874201D20E201BE7032D02D10C200D90B8
:1070400010E0012D06D10498B0F5803F02D2012056
:107050000D9007E00498B0F5803F01D2042000E0D5
:1070600006200D9000BF119810B1F0200E9044E062
:107070004FF4805200210BF1300001F067FE0BF558
:10708000F77401206070A0700020E0700D982071EE
:10709000FE206071049840443F21B0FBF1F0FF21D5
:1070A000B0FBF1F009903F21099841EA9000A071EE
:1070B0000998E0713F20207200216172A172E17293
:1070C000049820730498010A61730498010CA17359
:1070D0000498010EE17355218BF82E12AA218BF82A
:1070E0002F12012300220BF130010C98FFF7CAFC8C
:1070F00008B10120BCE6F8200E900BF130044FF4EB
:1071000080520021204601F021FE0B2261A1204681
:1071100001F00FFE4FF4805A84F80BA04FEA1A21B9
:10712000217384F80D900398A0730398010AE1730A
:1071300001202074032D01D1002001E04FF40070E4
:10714000824684F811A04FEA1A21A1740498B0F580
:10715000803F05D20498E0740498010A217510E07C
:10716000049884F820000498C0F3072121200155D9
:107170000498C0F30741222001550498010E2320F2
:1071800001550E9860753F20207600216176FF2022
:10719000A076E17684F81C804FEA182161774FEAE7
:1071A0001841A1774FEA1861E17701F06DF9099074
:1071B000032D3ED1099884F843000998C0F30721B4
:1071C000442001550998C0F307414520015509980D
:1071D000010E4620015584F82460C6F307212520BE
:1071E0000155C6F3074126200155310E27200155D0
:1071F000022084F82C0000212D2001552E2001555D
:107200002F200155012084F830003120015506203F
:1072100084F8320033200155802084F84000292072
:1072200084F8420013221EA104F1470001F081FD01
:107230001FE0099884F827000998C0F30721282047
:1072400001550998C0F30741292001550998010EFD
:107250002A200155A675310AE175802084F82400A2
:10726000292084F82600132212A104F12B0001F03A
:1072700060FD552084F8FE01AA2140F2FF1001555F
:107280000123424621461FE050E0FF1F24BE0000BC
:107290003ABE0000EBFE904D53444F53352E300064
:1072A0004E4F204E414D4520202020464154333240
:1072B000202020004E4F204E414D452020202046CA
:1072C00041542020202020000C98FFF7DBFB08B160
:1072D0000120CDE5032D06D1012308F10602214648
:1072E0000C98FFF7CFFB079808904FF0000A61E079
:1072F0004FF480520021204601F028FD0E9809909D
:10730000032D14D0012D01D1614801E06FF0FF0081
:10731000099908430990099820700998000A60703B
:107320000998000CA0700998000EE07019E0099807
:1073300060F0FF000990099820700998000A6070B9
:107340000998000CA0700998000EE070FF202071D1
:10735000FF216171A171E17120726172A1720F212F
:10736000E1720898411C02460123089121460C98BD
:10737000FFF788FB08B101207AE54FF48052002125
:10738000204601F0E3FC012009900EE00898411C22
:1073900002460123089121460C98FFF773FB08B1C0
:1073A000012065E50998401C09900998B042EDD389
:1073B0000AF1010ABAF1000F9AD0032D01D1484613
:1073C00000E00298824600BF0898411C0246012353
:1073D000089121460C98FFF755FB08B1012047E5BD
:1073E000AAF10100B0F1000AEED1032D46D15220DE
:1073F000207060706120A0704120E070722084F8DD
:10740000E401722140F2E51001554121401C015573
:107410006121401C0155781E84F8E801C0F3072162
:1074200040F2E9100155781EC0F307414FF4F570A2
:107430000155781E010E40F2EB100155022084F830
:10744000EC01002140F2ED100155401C0155401C9B
:107450000155552084F8FE01AA2140F2FF10015584
:10746000012308F1010221460C98FFF70BFB0123D1
:1074700008F1070221460C98FFF704FB0022114691
:107480000C98FFF7CAFA08B10120F1E40020EFE4FC
:1074900000FFFF00F7B582B016460398019001A8DF
:1074A00001F075F80546002D02DA0B2005B0F0BD9D
:1074B0000E4850F825400CB100202070029810B101
:1074C0000020029908700949029841F825000298A5
:1074D00008B1012E01D00020E8E7002203A902A88C
:1074E00000F00EFB07463846E0E7000050E0FF1FC3
:1074F0002DE9F7439AB0054616461DB909201DB07F
:10750000BDE8F0830020286006F01F0626F0010287
:107510001BA911A800F0F4FA0746002F7ED10EA88F
:10752000179001A8189011A81B9900F06FFE07464C
:10753000169C0FB904B9062706F01C00002851D08C
:107540004FB1042F03D111A8FFF777F9074646F092
:107550000806169C09E0E07A00F0110008B1072740
:1075600003E006F0040000B10827002F39D106F02F
:107570000800002835D000F087FF804684F80E8090
:107580004FEA1821E1734FEA184121744FEA18615C
:1075900061740020E072207700216177A177E177A4
:1075A0002146119801F05AFB81460021204602F045
:1075B0008CFC012011990871B9F1000F11D01198BC
:1075C000D0F82C804946119802F079F9074647B95E
:1075D000A9F101001199C8604146119801F0DAFB48
:1075E00007460EE06FB9E07A00F0100008B10427FA
:1075F00007E006F0020020B1E07A00F0010000B1DF
:10760000072747B906F0080008B146F02006119890
:10761000C06AE8612C620FB9AE7100E01AE0002088
:10762000E8712146119801F019FB2861E07F0106FD
:10763000A07F41EA0041607F41EA0020217F0843AA
:10764000E8600020A860A861686211982860286836
:10765000C088A880384652E733B591B0044614B9C3
:10766000092013B030BD002212A910A800F048FA7A
:1076700005462DBB109820600DA8A061C4F81CD051
:107680002046129900F0C2FD0546B5B9606958B1AF
:107690006069C07A00F0100028B16169109801F0AB
:1076A000DDFAA06000E005253DB91098C088A080F3
:1076B00000212046FFF756F90546042D00D1052587
:1076C0000DB1002020602846CBE72DE9FF4F83B0A5
:1076D000044615469A46DDF810B00020CAF80000AE
:1076E000204602F0C9FE0290029818B1029807B035
:1076F000BDE8F08FE07908B1E079F8E7A07900F013
:10770000010008B90720F2E7D4E90210401A0090FE
:107710000098854200D9009D90E02089C0F30B00BD
:10772000002866D120688078401EA16800EA1130E8
:1077300000F0FF09B9F1000F1FD1A06810B920694E
:1077400001900CE0606A28B12046A168FEF7AFFC0A
:10775000019004E06169206800F022FE0190019828
:10776000022802D20220E071C1E70198401C10B942
:107770000120E071BBE70198606161692068FEF754
:10778000AFFC064616B90220E071B0E74E444FEA5E
:107790001538B8F1000F2BD009EB08002168897863
:1077A000884203D920688078A0EB090808F0FF031D
:1077B0002168487832465946FFF74AF910B101204E
:1077C000E07194E72068007978B12068C06A801B76
:1077D00040450AD2226802F13001D26A921B0BEBBB
:1077E00002304FF4805201F0A4FA4FEA08371BE050
:1077F000A6612089C0F30B00C0F58057AF4200D9C5
:107800002F46A169206801F0C5FA10B10120E0718E
:107810006DE7206830302289C2F30B0281183A46A6
:10782000584601F086FA00BFBB44A0683844A06007
:10783000DAF800003844CAF80000ED1B002D7FF490
:107840006CAF002053E770B590B004460E4620465A
:1078500002F012FE05461DBB2EB900212046FFF79F
:1078600081F805461CE00DA8A061C4F81CD00021D9
:107870002046FEF780FF0546042D02D1002020613E
:1078800000256DB93146204600F002FE0021204659
:10789000FEF7E9FE0546042D02D1002020610025F7
:1078A000284610B070BD2DE9F0410446204602F094
:1078B000E3FD0746002F38D1A07900F02000002812
:1078C00033D0E169206801F065FA0746002F2CD11A
:1078D000256AE87A40F02000E872207B2877A089AA
:1078E000010A6977E068010CA977E068010EE97781
:1078F0002846216902F0E9FA00F0C6FD0646AE7599
:10790000310AE975310C2976310E69760020A874A8
:107910000021E974A07920F02000A07101202168E5
:107920000871206802F0E9FA07463846BDE8F081A0
:1079300010B50246802A01DA10461BE051B1FF2A39
:1079400001DD002304E0A2F180030B4C34F8133076
:1079500018460FE0002007E0074B33F81030934241
:1079600000D103E0431C98B28028F5DB00BF00F192
:107970008003D8B210BD0000D6B800000246002136
:1079800000E0491C094830F8110020B1074830F8E0
:1079900011009042F5D1054830F8110018B10448A3
:1079A00030F8110070471046FCE70000D6B900001F
:1079B000B6BB000030B591B0204806901920079062
:1079C0001FA108A8FFF748FE04462CB11D48FFF789
:1079D000A1F8012011B030BD00BF694608A8FFF72B
:1079E00032FF044614B99DF8090000B920E09DF863
:1079F00009002E2800D1F0E70698007808B1069813
:107A000001E00DF1090005469DF8080000F01000A6
:107A100068B90D490A78891C01EB02101022294629
:107A2000FCF76AFD08480078401C07490870D4E755
:107A300000BF08A8FFF77EF80020CBE70612002061
:107A40002F000000AC100020E41000207CB50122C3
:107A500018A11948FFF71EFD0446BCB102F01AF840
:107A60000022114613A0FFF7F7F9044664B900227B
:107A700010A11046FFF70EFD044601220DA10E488D
:107A8000FFF708FD044601E001207CBD01AA69461C
:107A900008A0FFF75AF8044601984069801E019932
:107AA000897800FB01F601988078009900FB01F5C8
:107AB0000020EAE7303A00007C000020F8B50446D8
:107AC0000E46154621460D48FFF7C0F8074627B178
:107AD0000A48FFF71FF80120F8BD6B462A463146D9
:107AE0000648FFF7F2FD07460098854204D0034898
:107AF000FFF710F80120EFE70020EDE7AC100020C1
:107B00002DE9F74F88B0002108980160099800F02E
:107B10003EFD07900798002803DA0B200BB0BDE864
:107B2000F08FD549079851F820400CB90C20F5E7A3
:107B300008980460207878B16078FEF79CFF804652
:107B400008F0010040B90A9820B108F0040008B11B
:107B50000A20E3E70020E1E700202070079860702A
:107B60006078FEF74EFF804608F0010008B1032060
:107B7000D4E70A9820B108F0040008B10A20CDE744
:107B8000002739462046FEF783F90546012D01D02E
:107B90006DBB2CE0002614E004F5F77101EB061034
:107BA000017951B1C17A0A06817A42EA0142417AE9
:107BB00042EA0121027A114300E000214DF826102B
:107BC000761C042EE8D3002606B1761E00BF5DF8B1
:107BD000267027B139462046FEF75AF900E0022008
:107BE00005461DB1701C06460428F0D300BF032DC6
:107BF00001D1012092E70DB10D208FE73B20015DFF
:107C000094F83C0041EA0020B0F5805F01D00D20DF
:107C100084E74620015D94F8470041EA0029B9F164
:107C2000000F0ED194F85700010694F8560041EA6F
:107C3000004194F8550041EA002094F8541040EABD
:107C40000109C4F818904020005DE070E078012838
:107C500004D0E078022801D00D205FE7E07809FB2E
:107C600000F93D20005DA070A07818B1A078411EF9
:107C7000084008B10D2051E74120015D94F8420011
:107C800041EA00202081207A00F07F0008B10D2019
:107C900044E74320015D94F8440041EA002BBBF126
:107CA000000F0ED194F85300010694F8520041EAF7
:107CB000004194F8510041EA002094F8501040EA45
:107CC000010B3E20015D94F83F0041EA0020049042
:107CD000049808B90D2021E704984844218900EB55
:107CE000D11006900698834501D20D2016E706981C
:107CF000ABEB0000A178B0FBF1FABAF1000F01D1B3
:107D00000D200BE7012540F6F670824500D30225D1
:107D10004FF6F670824500D303250AF10200606138
:107D2000E76104983844206206983844A062032D25
:107D300016D1208908B10D20F0E694F85F00010605
:107D400094F85E0041EA004194F85D0041EA0020A9
:107D500094F85C100843606260698000059014E04C
:107D6000208908B90D20D9E6206A48446062022DB6
:107D700002D16069400007E0207D00F001006169E8
:107D800001EB410100EB51000590A169059800F657
:107D9000FF70B1EB103F01D20D20BFE64FF0FF3076
:107DA0002061E06080206071032D5AD194F860104A
:107DB00094F8610041EA0020012852D1791C204644
:107DC00000F0E8FFE8BB0020607194F82E1294F8F0
:107DD0002F0241EA00204AF65521884241D1332042
:107DE000005D01063220005D41EA00413120005D66
:107DF00041EA002094F8301008432049884230D1ED
:107E000094F81702010694F8160241EA004194F82A
:107E1000150241EA002094F81412084318498842D8
:107E20001FD194F81B02010694F81A0241EA00419E
:107E300094F8190241EA002094F8181208432061CE
:107E400000E00EE094F81F02010694F81E0241EAD9
:107E5000004194F81D0241EA002094F81C120843E6
:107E6000E060257007480088401C80B20549088002
:107E7000E080002052E6000050E0FF1F52526141B6
:107E80007272416154E0FF1FF0B504461D464D7308
:107E90000F27CF7200270F738F76BC4681F81BC067
:107EA000571E07EB870C0CEBC706002738463B46EE
:107EB00000BF4FF6FF77B84203D03746761C34F840
:107EC0001700DFF840C01CF803C001F80C000712CF
:107ED000DFF830C01CF803C08C448CF8017008B97E
:107EE0004FF6FF705F1C3B460D2FE2D34FF6FF7736
:107EF000B84202D034F816700FB942F040020A704E
:107F0000F0BD000016BE000010B504460121204659
:107F100000F001F810BD70B505460C46284600F08B
:107F20000BF8064606B170BD012C03D100F04EF9E6
:107F300000F05CF900BFF6E7014609B9042070477C
:107F4000CA69C86920B11068022801D10020F6E78B
:107F50006D20F4E730B504460CB9042030BD581E3E
:107F6000084010B9581E104008B16520F6E7206897
:107F7000884207D8D4E9000528448D18A84201D3C7
:107F80000020EBE76620E9E701460348814201D083
:107F90006B2070470020FCE76B66656B70B506468A
:107FA0007020104908703046FFF7C6FF05460DB136
:107FB000284670BD0B480C49096888470948047871
:107FC00004F0200008B16720F3E704F0100008B1C6
:107FD0006820EEE704F0010008B16920E9E700201D
:107FE000E7E700000000024048E0FF1F70B50546CB
:107FF0000E46144605B10CB9042070BD2021204660
:10800000FCF793FA2868301A2060E8686060297AE3
:108010006868B0FBF1F0A0600420E06008202061F7
:1080200060610420A061E0610020E6E710B5014630
:108030004FF6FF7388B2164C606305E0181EA3F17B
:10804000010301D1032010BD1148C06A00F00040B7
:108050000028F3D00E48C06A40F000400C4CE062AB
:1080600005E0181EA3F1010301D10320EBE7084846
:10807000C06A00F400300028F3D00548806BC2B21B
:108080000348C06A40F40030014CE0621046DAE771
:1080900000D0024010B5A02000F0BEFB08B90020BF
:1080A00010BD00F061FC0120FAE710B501F004FEFC
:1080B000FFF7F0FF08B1012010BD0020FCE770B50C
:1080C00004460D46164600F031FC0E2101EAE4118B
:1080D00041F0A00000F0A8FC00F06AFC00B123E031
:1080E000E0B200F0A1FC00F063FC00B11CE000F085
:1080F0001DFC0E2101EAE41141F0A10000F094FC06
:1081000000F056FC00B10FE003E000F0D7FB287050
:108110006D1C701E80B2061EF7D100F0EDFB2870BA
:1081200000F022FC002070BD00F01EFC0120FAE7E8
:108130002DE9F04105460E46174600F0F7FB0E21EB
:1081400001EAE51141F0A00000F06EFC00F030FC07
:1081500000B137E0E8B200F067FC00F029FC00B1A4
:1081600030E000240AE0305D00F05EFC00F020FC0E
:1081700000B127E0681C85B2601C84B2BC42F2DB0F
:1081800000F0F2FB002412E000F0D0FB0E2101EA27
:10819000E51141F0A00000F047FC00F009FC00B937
:1081A00007E04FF4FA7000F045FB601C84B20A2C23
:1081B000EADB00BF0A2C00DB04E000F0D5FB002066
:1081C000BDE8F08100F0D0FB0120F9E770B5002494
:1081D000044C0F23142219052046034D2D68A8478F
:1081E00070BD000004F001404CE0FF1F70B500249A
:1081F000044C01231322D9042046034D2D68A847BF
:1082000070BD000004F001404CE0FF1F2DE9F34178
:108210000446019800782F2803D0019800785C2844
:1082200002D10198401C01900020A06001980078C4
:10823000202807D200212046FEF794FB05460020A7
:10824000606128E000BF01A92046FEF751F805460D
:1082500005B11FE02046FEF791F90546A069C67AF0
:108260003DB1042D04D100BF06F0040000B905257E
:1082700010E006F0040000B10CE06769F87A00F045
:10828000100008B9052505E03946206800F0E6FC35
:10829000A060D8E700BF2846BDE8FC812DE9FC4777
:1082A00080468A4617461D460B225146404600F03E
:1082B00040FD052D17D9284610E037F8021B002491
:1082C0000AE00A4660F35F021046491000F480326B
:1082D0000AB11D4A5040641C102CF2D33A88002A7F
:1082E000EBD1054600BF072400BF05F00F0000F1E9
:1082F0003009B9F1390F03DD09F1070000F0FF097A
:108300002046641E0DF800902D09002DEDD17E2031
:108310000DF80400002600E0761CA64203D218F8EF
:1083200006002028F8D100BF082C04D22046641C87
:108330001DF8001000E020213046761C08F80010DF
:10834000082EF1D3BDE8FC872110010010B5A0B0C4
:10835000002011490870FFF72DFB10B10E2020B04E
:1083600010BD00F01DFE00240EE00B48801C00EB49
:10837000041110220948FCF7BFF880226946104614
:1083800000F0EAFD601CC4B203480078A042ECDCB7
:1083900000F0F8FD0020E2E7E4100020D4100020F7
:1083A0002DE9F04105460C46022C02D36869A04233
:1083B00002D80120BDE8F0812878012804D00228E5
:1083C0002CD003285AD13DE0274607EB5707286AEF
:1083D00000EB1731284600F0DDFC00B150E0C7F398
:1083E0000B0105F1300010F801807F1C286A00EBBA
:1083F0001731284600F0CEFC00B141E0C7F30B0175
:1084000005F13000405C48EA002804F0010010B19A
:108410004FEA1810CEE7C8F30B00CBE7286A00EB51
:10842000D421284600F0B6FC00B129E040F6FF70E8
:1084300000EA440105F130000E183078717840EA06
:108440000120B7E7286A00EB9421284600F0A2FC3F
:1084500000B115E040F6FF7000EA840105F130003C
:108460000E18F0780006B17840EA0140717840EAD1
:1084700001203178084320F070409BE7012099E704
:1084800000BF4FF0FF3095E70048704700002142E1
:108490002DE9F04707460C4604F109063869002823
:1084A00043D07869002526E029466D1C10F801802C
:1084B000B8F1200F00D11EE0B8F1050F01D14FF047
:1084C000E508092D02D12E2106F8011BB8F1410F54
:1084D0000EDBB8F15A0F0BDC017B092D01D3102202
:1084E00000E00822114019B108F1200101F0FF0855
:1084F00006F8018B00BF0B2DD6D3C17A2172C17F44
:108500000A06817F42EA0142417F42EA0121027F5D
:1085100011432160027E417E42EA0121A180827DD9
:10852000C17D42EA0121E18000BF00203070A069D6
:1085300058B30025A669386920B3E06910B3388CB8
:108540004FF6FF7188421DD0D7F81CA014E000211F
:108550004846FFF7EDF98146B9F1000F01D100253A
:108560000FE000BFE069401EA84201D8002508E0E6
:1085700028466D1C06F800903AF8021BB1F100097C
:10858000E5D100BF0020705500BFBDE8F08770B591
:1085900002464FF0FF301568DDB1116800E0491C5C
:1085A0000D78202D02D30D783A2DF8D10D783A2D83
:1085B0000ED1146814F8015BA5F130030A2B06D222
:1085C0008C4204D11BB918464D1C2946156070BD5C
:1085D000002000BFFBE7000070B504460D460448CC
:1085E00000EB041110222846FBF786FF002070BD27
:1085F000E61000200146024800780870002070470D
:10860000E4100020F0B5A1B00546AE686F681649C9
:108610002868884202D0862021B0F0BD802E01D08B
:108620008620F9E700F0BCFC324601A9384600F08C
:1086300093FC04460CB12046EEE700F0A3FC802139
:10864000042001F003F80446802301AA002104203D
:1086500001F028F804460CB12046DDE70CB12046B5
:10866000DAE70020D8E70000014C464F70B521A59D
:108670002248FFF7BFFF002409E004EB04121F4863
:10868000401C11182046FFF7A7FF601CC4B21B480E
:108690000078A042F1DC2846FBF752FF0646174956
:1086A000097801EB01121549491C50183246294638
:1086B000FBF722FF11480078401C1049087008465B
:1086C0000078032803DB03200D49087003E00B4802
:1086D00000780B4908700948007818B10120084952
:1086E000487002E000200649487000200449887064
:1086F000C87070BD4558495400000000FCE4FF1FDD
:1087000011E0FF1F10B53D48406920F010003B49C3
:10871000486188153A4908613A49C8648002374976
:108720008864486510203549C83108600122114627
:108730003248C030FCF70AFF3048D0F8D40040F08F
:1087400002002E49D4310860012200212B48C0309C
:10875000FCF7FCFE2948D0F8D40040F0010027497E
:10876000D4310860012205212448FCF7EFFE23489C
:10877000406940F0200021494861012203211F483F
:108780004030FCF7E3FE1D48406D40F008001B49F7
:1087900048650122122119484030FCF7D7FE1748DE
:1087A000406D40F48020154948650122132113488B
:1087B0004030FCF7CBFE1148406D40F400200F49DB
:1087C0004865012202210D488030FCF7BFFE0B48AE
:1087D000D0F8940040F00400084994310860012268
:1087E000032106488030FCF7B1FE0448D0F894001D
:1087F00040F0080001499431086010BD00F00F40BE
:108800000090044000A0044002480069012121EAD0
:108810001010704700F00F4070B5044600F086F865
:10882000204600F001F900F0C3F8054600F09CF87E
:10883000284670BD06490968064AB1FBF2F1C91C19
:108840008908484300BF411E081EFCD17047000044
:108850000800002040420F0070B500241648406D0B
:1088600020F002001449486500251BE06006040E54
:10887000012111484030FCF785FE0120FFF7DAFFA7
:1088800000BF0D48006DC0F3400008B1601CC4B2C9
:10889000012109484030FCF76DFE0120FFF7CAFFB7
:1088A000681CC5B2082DE1DB0348406D40F00200B2
:1088B00001494865204670BD00F00F4010B5FFF734
:1088C000CBFF044602210B48FCF754FE0120FFF7C2
:1088D000B1FF01210748FCF755FE0120FFF7AAFF71
:1088E00001210448FCF746FE02210248FCF74AFE3B
:1088F000204610BD40F00F4010B5FFF7ADFF044615
:1089000002210948FCF73EFE0120FFF793FF0121F9
:108910000548FCF737FE0120FFF78CFF01210248D4
:10892000FCF728FE204610BD40F00F4010B5022194
:108930000C48FCF727FE0120FFF77CFF01210948C6
:10894000FCF720FE0420FFF775FF02210548FCF725
:1089500011FE0420FFF76EFF01210248FCF70AFE1A
:1089600010BD000040F00F4010B501210C48FCF78D
:1089700001FE0120FFF75EFF02210948FCF7FAFD26
:108980000420FFF757FF01210548FCF7FBFD0221FA
:108990000348FCF7F7FD0420FFF74CFF10BD000073
:1089A00040F00F4010B5FFF7DFFF012010BD0000C1
:1089B00010B54FF4805402211A48FCF7E3FD012062
:1089C000FFF738FF01211748FCF7DCFD0120FFF716
:1089D00031FF14484038406D20F002001149403901
:1089E000486506E0201EA4F1010402D1FFF7DAFF7A
:1089F00010BD00BF0B484038006DC0F34000002898
:108A0000F0D108484038406D40F002000549403937
:108A1000486501210348FCF7ADFD0120FFF70AFF7F
:108A20000020E5E740F00F4070B5044600251FE048
:108A3000E00920B102211048FCF7A4FD03E0022167
:108A40000D48FCF797FD0120FFF7F4FE01210A48CD
:108A5000FCF798FD0120FFF7EDFE01210648FCF729
:108A600089FD0120FFF7E6FE6006040E681CC5B212
:108A7000082DDDDB70BD000040F00F4070B500BF79
:108A8000EFF3108101F0010072B600BF04464CF212
:108A900020500D49C8814DF62810C881084600882D
:108AA00020F00100088034210848FBF73EFD07480C
:108AB000FCF708FC05460DB1012070BD204600B949
:108AC00062B600BF0020F8E700200540A0E0FF1FCD
:108AD0002DE9F04105460F46002409E02E193046E5
:108AE00000F00AF810B10120BDE8F08104F500643F
:108AF000BC42F3D30020F7E770B5044600BFEFF3A4
:108B0000108101F0010072B600BF05460B480C4B06
:108B10002146C268FCF78AFB064636B9074800239F
:108B20002146C268FCF770FC0646284600B962B6CA
:108B300000BF0EB1012070BD0020FCE7A0E0FF1FC8
:108B40006B66656B2DE9FE4306460F46904606F0C0
:108B5000030010B10120BDE8FE8300BFEFF31081D8
:108B600001F0010072B600BF044643463A46314662
:108B70000C48FCF7FDFB05465DB900200122CDE95C
:108B800000203B464246314602900648FCF790FCE6
:108B90000546204600B962B600BF0DB10120DAE7F4
:108BA0000020D8E7A0E0FF1F70B586B004460F4E46
:108BB0003046FFF7A1FF054615B1012006B070BD94
:108BC000FF22142101A8FBF7A9FC1422214601A8C9
:108BD000FBF792FC142201A93046FFF7B3FF0546CC
:108BE0000DB10120EAE70020E8E7000000F80100ED
:108BF00010B50A2202490348FDF7DAF910BD00005A
:108C0000400000203000002010B5FCF709FDFFF700
:108C1000EFFF10BD10B50446012221460248FDF7C2
:108C200010FAC0B210BD00003000002010B50024C2
:108C300004E02046FDF784F8601CC4B2012CF8DB88
:108C400010BD000070B50446012221460248FDF720
:108C500013FAC5B2284670BD3000002010B5024698
:108C60008C7ECB7E44EA03201378032B05D10C7D48
:108C70004B7D44EA032340EA034010BD1CB54FF48A
:108C800080401E490860FBF7D3FCFBF797FCFBF71D
:108C9000CDFC00F08DFEFFF735FD0220FDF70AFF49
:108CA00000F0E8FBFFF7B0FFFFF7FFF901F096F8DF
:108CB00000F01AF900F05CF8FDF7BAF81CE001A822
:108CC000FFF7A8FF88B19DF80400012802D003280F
:108CD00006D102E00220009003E00320009000E0B3
:108CE00000BF00BF684600F087F800F039F8202088
:108CF0000349C86000BF00BFE1E7000008ED00E0E5
:108D000000F00F4010B5FFF791FF10BDF0B503461E
:108D10001C460D46002000BF161EA2F1010207D01E
:108D200014F8017B15F801CBA7EB0C06301EF3D02D
:108D3000F0BD70B503460C4603E014F8015B03F880
:108D4000015B151EA2F10102F7D170BD30B50346DB
:108D500001E003F8011B141EA2F10102F9D130BD9C
:108D600010B5024909680868804710BD18E0FF1F68
:108D700010B5054805490860012005490870FFF74E
:108D800075FC00F021F810BD2CE0FF1F18E0FF1F5C
:108D900010E0FF1F70B504460D46E06AA84210D0EF
:108DA000204601F00EF908B1012070BD6078012362
:108DB0002A4604F13001FDF74BFE08B10120F4E72B
:108DC000E5620020F1E7000010B50A2202490348DD
:108DD000FDF7EEF810BD0000301200202012002038
:108DE00010B50446012221460248FDF72AF9C0B217
:108DF00010BD00002012002070B50446012221465B
:108E00000248FDF739F9C5B2284670BD201200208E
:108E10007CB504460D4601208DF80000ADF8020037
:108E20000020ADF80400ADF806006B462A46214646
:108E300000F072FA7CBD7CB504460D4601208DF829
:108E400000000020ADF802000120ADF80400002071
:108E5000ADF806006B462A46214600F05DFA7CBD5F
:108E600010B586B0142101A8FBF75FFB00241DE0BC
:108E70001148C078204400EB001110480A1810A1D6
:108E800001A8FCF76DFD0C488078A04206D1611C5A
:108E90000907080E01A9FFF7CEFF05E0611C0907CD
:108EA000080E01A9FFF7B4FF601CC4B202480078A5
:108EB000A042DDDC06B010BD11E0FF1FFDE4FF1F86
:108EC000252D31367300000070B504460D4620464E
:108ED00000F016F800F064F880222946002000F027
:108EE0003BF800F04FF870BD10B5FEF7AFFD08B1CC
:108EF0000C2010BDFFF72AFA04462046F9E70000CF
:108F000070B50546102229461048FBF7F5FA1048BF
:108F100000780A2801DB852070BD04220B490D482A
:108F2000FEF7E6FA0446082C04D10A48FDF7F2FDE4
:108F30008420F1E724B10748FDF7ECFD0D20EBE7B5
:108F40000448FDF7E7FD0020E6E70000D41000200C
:108F5000E4100020AC10002070B504460D46164603
:108F600007480078022801D00F2070BD32462946FC
:108F70002046FEF7A3FD08B10F20F6E70020F4E736
:108F80000600002010B50020034908700348FDF7D3
:108F9000C1FD002010BD000006000020AC10002024
:108FA00010B50B48007808B10F2010BD0220084909
:108FB0000870012207490848FEF79AFA044624B1CE
:108FC0000548FDF7A7FD0F20EFE70020EDE70000C3
:108FD00006000020D4100020AC10002070B5A0B016
:108FE0000646002569463046FFF76EFF2249009885
:108FF000884202D0862020B070BD0198062802D396
:109000000198072801D98620F5E769467C20FCF7FE
:1090100087FF05441F98A84201D08620EBE702A8ED
:10902000FFF7F0FA04460CB12046E4E706A801F089
:109030006FF904460CB12046DDE70AA801F030F9CB
:1090400004460CB12046D6E70EA801F09DF8044670
:109050000CB12046CFE712A801F0FAF804460CB193
:109060002046C8E716A801F0A1F904460CB1204635
:10907000C1E70020BFE70000004C464F10B588B0A4
:109080000020079060A4069061A207CA03AB07C343
:1090900001208DF80400ADF806000020ADF80800AE
:1090A0005E480078012834D1002000F007F9012043
:1090B0008DF80400ADF806000020ADF8080001AB03
:1090C00003AA0021084600F027F901AB54A20021B1
:1090D000402000F021F954480078421E53A106A810
:1090E000FCF73EFC01AB06AA0021602000F014F959
:1090F000504842784DA106A8FCF732FC01AB06AA05
:109100000021482000F008F9002044490870FFF7CA
:10911000A7FE07A8FFF764FE9DF81C00002871D089
:109120009DF81C00022802D003286AD148E041487B
:1091300040783D49097888420EDB3B48007818B1F9
:1091400001203C49487002E000203A494870002064
:1091500038498870C87016E036488078022809D0EF
:1091600034484078401C3349487008468078401C99
:10917000887008E02F48C078401C2E49C870084607
:109180004078401C48702B4840782749097888422D
:1091900007D128484078421E24A106A8FCF7E0FB2E
:1091A00005E02448427821A106A8FCF7D9FB01ABD1
:1091B00006AA0021482000F0AFF8FFF751FE20E09A
:1091C00001201D4908711B484078401E00EB00112A
:1091D0001548401C08441849086008682146FBF7F8
:1091E000B6F940B11548006840681449086001208C
:1091F0000A49087004E0124800F098FBFCF728FBCD
:1092000000BF00BF08B010BD455849540000000021
:10921000D1A1D4F1B7BDB0B80000000010E0FF1F2D
:109220002830302F20202900FCE4FF1F2530326435
:109230000000000011E0FF1F1CE0FF1F18E0FF1FEF
:109240004B4E494C2DE9F04180460C4616461F46D0
:109250001848007878B9404600F0DAFE164A91685E
:109260005068FFF735FCC5B215B10120BDE8F081AB
:109270000120104908700F480078C0B10E484068BE
:1092800004440D484068A04206D80B4840680A498B
:1092900089680844A04201D20120E7E73A463146F6
:1092A0002046FFF74FFCC5B20DB10120DEE70020DC
:1092B000DCE7000000E0FF1FE8E0FF1F70B5064696
:1092C00000240BE0002505E0094800EBC4104655DA
:1092D000681CC5B2802DF7DB601CC4B2082CF1DB22
:1092E00004480078012801D1FCF7CCF970BD0000DA
:1092F000FCE0FF1F07000020064909684FF47A725E
:10930000B1FBF2F1C91C8908484300BF411E081E89
:10931000FCD17047080000202DE9FF4F9BB0164696
:1093200099460024FCF732FA10200590069020257B
:109330004E480290DFF838818DE096F800B0BBF11E
:10934000800F14DA019505EBD57043100095029853
:109350000BFB030105EBD570421008A8FBF7CCF816
:10936000069800EBD071C1F34701079132E0701C01
:10937000064600781A901A9800B970E0002725E098
:10938000A81C07FB00F4781CC7B218F80400584565
:109390000DD1601C18F800101A98814207D1A41C46
:1093A00008EB04012A4608A8FBF7A6F80FE018F816
:1093B0000400FF280AD1601C18F80000FF2805D11E
:1093C000FF22294608A8FBF7A9F800E0D8E700BF6C
:1093D000069807901C980390002730E01B98049093
:1093E0004FF0000A22E007984100069891FBF0F048
:1093F000784300EBDA0008A9085C0AF00702802134
:109400001141084030B199F80220DDE90310FCF762
:1094100065F905E099F80420DDE90310FCF75EF931
:109420000498401C80B204900AF1010A0798824512
:10943000D9D30398401C80B20390781CC7B205981A
:109440008742CBDBB9F80610079801441B98084403
:1094500080B21B90761C307800287FF46EAF00BF7E
:10946000FCF732F91FB0BDE8F08F000090A70000B4
:10947000C2A6000010B54FF480213548FCF784F8EF
:109480006420FFF739FF4FF480213148FCF774F86E
:109490006420FFF731FF4FF480212D48FCF774F86A
:1094A000AE2000F057F8002000F054F8102000F033
:1094B00051F8402000F04EF8812000F04BF8CF200A
:1094C00000F048F8A12000F045F8C82000F042F86C
:1094D000A62000F03FF8A82000F03CF83F2000F064
:1094E00039F8D32000F036F8002000F033F8D5200A
:1094F00000F030F8802000F02DF8D92000F02AF894
:10950000F12000F027F8DA2000F024F8122000F013
:1095100021F8DB2000F01EF8402000F01BF820208E
:1095200000F018F8022000F015F88D2000F012F875
:10953000142000F00FF8A42000F00CF8A62000F092
:1095400009F8AF2000F006F80020FFF7B7FE10BDC5
:1095500040F00F4070B504464FF400211B48FCF763
:109560000BF8042119484030FCF706F80821174889
:109570004030FCF701F8042114484030FCF704F8AF
:1095800000251BE004F0800028B108210F4840307E
:10959000FBF7FAFF04E008210C484030FBF7ECFF32
:1095A00004210A484030FBF7E7FF6006040E04215F
:1095B00006484030FBF7E8FF681CC5B2082DE1DB28
:1095C0004FF400210148FBF7DFFF70BD40F00F4072
:1095D00070B504464FF400211B48FBF7CDFF042172
:1095E00019484030FBF7C8FF082117484030FBF707
:1095F000CBFF042114484030FBF7C6FF00251BE0D9
:1096000004F0800028B108210F484030FBF7BCFF70
:1096100004E008210C484030FBF7AEFF04210A4863
:109620004030FBF7A9FF6006040E042106484030D5
:10963000FBF7AAFF681CC5B2082DE1DB4FF400213F
:109640000148FBF7A1FF70BD40F00F402DE9F0414C
:1096500005460F46052D10D2DFE805F003050A0880
:109660000D0000240CE04FF4F81409E00B4C07E067
:109670004FF4FF1404E00A4C02E01320BDE8F0812F
:1096800000BF07F6FF70060B36033146204600F098
:1096900013FA08B10820F1E70020EFE700D01F001F
:1096A00000F01F002DE9F04105460E46174698468A
:1096B000052D10D2DFE805F003050A080D0000248F
:1096C0000CE04FF4F81409E0104C07E04FF4FF14DD
:1096D00004E00F4C02E01320BDE8F08100BF2644F7
:1096E00042463946304600F0B7FB08B10920F3E79F
:1096F000FCF770FD38B142463946304600F08EF92D
:1097000008B10920E8E70020E6E7000000D01F00CC
:1097100000F01F00F0B50346087800F03F00401E3F
:1097200000EB800707EBC0020025012600BF1548AB
:10973000405D085C134F7F5D0F447F7840EA07244B
:109740004EB1182A01D30020F0BD26461046521C07
:1097500023F8104005E04FF6FF70844201D000204E
:10976000F2E7681C05460D28E1D3087800F04000B8
:1097700030B1182A01D30020E6E7002023F81200B8
:109780000120E1E716BE00002DE9F04705460E4630
:109790001746022E02D36869B04202D84FF0020881
:1097A0008AE02878012804D0022841D003287DD1FE
:1097B00054E0B14609EB5909286A00EB19312846F3
:1097C000FFF7E8FA8046B8F1000F00D071E0C9F366
:1097D0000B0105F130000C1806F0010020B1F9B2C0
:1097E000207861F31F1000E03846207009F101096C
:1097F00001202871286A00EB19312846FFF7CAFAC0
:109800008046B8F1000F00D053E0C9F30B0105F119
:1098100030000C1806F0010010B1C7F3071005E086
:10982000207800F0F000C7F303210843207040E0E7
:10983000286A00EBD6212846FFF7ACFA8046B8F13B
:10984000000F00D035E040F6FF7000EA460105F158
:1098500030000C182770380A60702AE0286A00EB84
:1098600096212846FFF796FA8046B8F1000F00D0FF
:109870001FE040F6FF7000EA860105F130000C1889
:10988000E0780006A17840EA0140617840EA0120D2
:109890002178084300F0704007432770380A607051
:1098A000380CA070380EE07003E0FFE74FF00208BC
:1098B00000BF00BF012028714046BDE8F0872DE9B8
:1098C000F04104460E46022E02D36069B04201D830
:1098D000022727E0002721E031462046FEF760FD01
:1098E000054605B91DE0012D01D1022719E0681CCC
:1098F00008B9012715E0002231462046FFF744FF52
:10990000074607B10DE02069401C30B12069401CBA
:109910002061607940F0010060712E466069B042BC
:10992000DAD800BF3846BDE8F081704710B504466C
:109930000448C460FFF738F908B1012010BD0020C9
:10994000FCE700008CE0FF1F10B5044604480461EA
:10995000FFF72AF908B1012010BD0020FCE7000044
:109960008CE0FF1F70B5044600250C25002005E0A3
:1099700014F8012B0D490A54411CC8B2A842F7DB68
:109980002025002006E014F8012B08490C310A5468
:10999000411CC8B2A842F6DB04480838FCF7F6FBC5
:1099A00008B1012070BD0020FCE7000060E0FF1F4F
:1099B00010B5FFF763F8342211491248FAF79CFDFD
:1099C000142211491148FAF797FD1148006811490E
:1099D000884204D134220E490A48FAF78DFD0D4819
:1099E000084908600C4800680A49884204D11422DA
:1099F00009490648FAF780FD06480449086010BD89
:109A0000CAA4000058E0FF1FFEA400008CE0FF1F66
:109A100000F00100646C766B00F801002DE9F04164
:109A200004460E46154661191948006AB1EB003F1D
:109A300002D90120BDE8F0810DB90020FAE700202D
:109A400000F0ECF80320FEF7F1FAC4F30740FEF74C
:109A5000EDFAC4F30720FEF7E9FAE0B2FEF7E6FA02
:109A60000CE0FF20FEF7E2FA074616F8011BB942A8
:109A700004D0012000F0D2F80120DBE7281EA5F178
:109A80000105EED1012000F0C9F80020D2E7000066
:109A90005800002010B500F004F9002000F0BEF8D6
:109AA000C720FEF7C3FA012000F0B8F800F0C4F8B0
:109AB00000F0ECF8002010BD70B504460D460026FD
:109AC000C4F30B00201AA04201D0042070BD61191C
:109AD0001948006AB1EB003F01D90420F6E71648A7
:109AE0008069B5FBF0F100FB115008B10420EDE7EF
:109AF0001BE000F0D6F8002000F090F82020FEF7E0
:109B000095FAC4F30740FEF791FAC4F30720FEF775
:109B10008DFAE0B2FEF78AFA012000F07FF806F530
:109B2000805604F5805400F087F8AE42E1D300F08F
:109B3000ADF80020CAE70000580000202DE9F041F0
:109B400004460D461746E0B210B10420BDE8F0818E
:109B500000F0A7F800F070F8002000F05FF8022095
:109B6000FEF764FAC4F30740FEF760FAC4F3072077
:109B7000FEF75CFAE0B2FEF759FA002604E0287816
:109B8000FEF754FA6D1C761CFF2EF8D9012000F068
:109B900045F800F051F800F079F80020D6E72DE9FB
:109BA000F041002000F03AF89F20FEF73FFAFF2036
:109BB000FEF73CFA0546FF20FEF738FA0646FF207E
:109BC000FEF734FA0746012000F028F8280440EA9E
:109BD000062040EA07042046BDE8F08110B5FFF7F3
:109BE000DEFF04460B48046000200A49C8614FF4B8
:109BF000805088614010086208468069096A4843BD
:109C0000044948610448844201D1002010BD4FF04E
:109C1000FF30FBE7580000201720C20020B91021B8
:109C2000044A916000BF04E01021024A516000BF65
:109C300000BF7047C0F00F4070B54FF47A751CE05C
:109C40000020FFF7EBFF32260520FEF7EFF900BFFB
:109C5000FF20FEF7EBF90446022000F05DF804F067
:109C6000010018B1301EA6F10106F1D10120FFF765
:109C7000D5FF04F0010000B903E0281EA5F101059D
:109C8000DED100BF0DB900BFFEE770BD10B50020EA
:109C9000FFF7C4FF0420FEF7C9F90120FFF7BEFF5C
:109CA00010BD10B50020FFF7B9FF0620FEF7BEF982
:109CB0000120FFF7B3FF10BD08B5144800680090FD
:109CC0006A4600211248FBF767FD6A4601211048E9
:109CD000FBF762FD012200210E48FBF740FC0D4816
:109CE0004038406D40F001000A4940394865012282
:109CF00011460848FBF733FC06484038406D40F0F9
:109D0000020004494039486508BD0000C8A40000AD
:109D100000A0044040F00F40064909684FF47A72F1
:109D2000B1FBF2F1C91C8908484300BF411E081E5F
:109D3000FCD170470800002010B58AB000208DF8D3
:109D40000400224802900821039101218DF810108F
:109D50008DF8111000218DF812101D490298B1FBE9
:109D6000F0F105911A490298B1FBF0F106911849FA
:109D70000298B1FBF0F1079100208DF822008DF8D8
:109D800023008DF824008DF825000220FAF758FEF4
:109D90000446224601A90F48FBF75AF80420002187
:109DA00021B9012282400C4B9A6003E001228240DB
